:100000000C94D7190C94011A0C94011A0C94011A2F
:100010000C94011A0C94011A0C94011A0C94011AF4
:100020000C94011A0C94011A0C94011A0C94011AE4
:100030000C94011A0C94B96A0C94011A0C94011ACC
:100040000C94011A0C94BD4E0C94F77E0C94011A7A
:100050000C9438430C94011A0C94011A0C94011A54
:100060000C94011A0C94011A0C94011A0C94011AA4
:100070000C94011A0C94011A0C94011A0C94011A94
:100080000C94011A0C94011A0C94011A0E4F1D4F76
:100090003C4F4B4F664F6B4F6E4F734F764F7B4FBE
:1000A0007E4F834F8D4F667E6B7E707E7A7EA87EFC
:1000B000A87E847E8C7E947E9E7E57925A924D922C
:1000C0005192719271925E92629268926C92084A19
:1000D000D73B3BCE016E84BCBFFDC12F3D6C74315C
:1000E0009ABD56833DDA3D00C77F11BED9E4BB4CB3
:1000F0003E916BAAAABE000000803F05A84CCDB27D
:10010000D44EB93836A9020C50B9918688083CA65D
:10011000AAAA2ABE000000803F0020746F6F206CE6
:100120006F6E6720657874727573696F6E20707278
:100130006576656E7465640A0020636F6C64206583
:100140007874727573696F6E2070726576656E74FF
:1001500065640A00536C6565702E2E2E005A20705F
:10016000726F6265206F75742E206265640A005A92
:100170002070726F6265206F75742E206265640056
:10018000473238205A20466F7262696464656E0A8D
:1001900000473238205A20466F7262696464656E87
:1001A0000028422961636B00284629726F6E740033
:1001B0002852296967687400284C296566740052C2
:1001C000756E6E696E6720696E204452592D5255C6
:1001D0004E206D6F64650A00473239204175746F97
:1001E00020426564204C6576656C696E670A003F45
:1001F0002856296572626F7365204C6576656C20A0
:10020000697320696D706C61757369626C65202813
:10021000302D34292E0A00205A3A200020593A2045
:100220000042656420583A20004D616C79616E206F
:100230004D3135302072656164792E0052657375D9
:100240006D696E67207072696E7400576169742001
:10025000666F7220757365722E2E2E004E6F206DA4
:100260006F76652E00456E642066696C65206C694A
:1002700073740A00426567696E2066696C65206C5C
:100280006973740A005344207072696E74696E67F2
:10029000206279746520004E6F7420534420707280
:1002A000696E74696E670A0046696C652064656CE6
:1002B000657465643A0044656C6574696F6E2066A8
:1002C00061696C65642C2046696C653A20006F702A
:1002D000656E206661696C65642C2046696C653AC0
:1002E00020002569730025696D2025697300256943
:1002F000682025696D2025697300256964202569BA
:10030000682025696D202569730025697920256994
:1003100064202569682025696D2025697300507265
:10032000696E742074696D653A200050726F74654F
:10033000637465642050696E0A004B494C4C454417
:100340002E200042656420646F6E652E003F0A0017
:1003500020573A004265642048656174696E672ED3
:10036000004649524D574152455F4E414D453A4D29
:1003700061726C696E20312E312E302D5243372040
:10038000284769746875622920534F555243455F69
:10039000434F44455F55524C3A68747470733A2F1A
:1003A0002F6769746875622E636F6D2F4D61726C73
:1003B000696E4669726D776172652F4D61726C6905
:1003C0006E2050524F544F434F4C5F564552534945
:1003D0004F4E3A312E30204D414348494E455F54EF
:1003E0005950453A4D616C79616E204D3135302060
:1003F00045585452554445525F434F554E543A3137
:1004000020555549443A63656465326132662D343E
:100410003161322D343734382D396231322D633524
:10042000356336326633363766660A007A5F6D6941
:100430006E3A2000795F6D696E3A2000785F6D69D1
:100440006E3A20005265706F7274696E6720656E37
:100450006473746F70207374617475730A004D3126
:10046000343520533C696E6465783E206F75742086
:100470006F662072616E67652028302D31290A0071
:1004800053657474696E672054726176656C20419F
:100490006363656C65726174696F6E3A20005365C1
:1004A0007474696E6720526574726163742041636D
:1004B00063656C65726174696F6E3A200053657490
:1004C00074696E67205072696E7420416363656C55
:1004D00065726174696F6E3A200053657474696E59
:1004E00067205072696E7420616E64205472617668
:1004F000656C20416363656C65726174696F6E3A07
:10050000200020643A0020693A0020703A00432914
:100510000A0061626C656420286D696E2074656DE7
:10052000702000436F6C6420657874727564657325
:1005300020617265200023646566696E6520204431
:10054000454641554C545F4B642000236465666901
:100550006E65202044454641554C545F4B69200050
:1005600023646566696E65202044454641554C54B8
:100570005F4B702000504944204175746F74756E54
:10058000652066696E697368656421205075742002
:10059000746865206C617374204B702C204B69204B
:1005A000616E64204B6420636F6E7374616E74734C
:1005B0002066726F6D2062656C6F7720696E746F54
:1005C00020436F6E66696775726174696F6E2E681D
:1005D0000A00504944204175746F74756E65206639
:1005E00061696C6564212074696D656F75740A00BA
:1005F000504944204175746F74756E652066616959
:100600006C6564212054656D7065726174757265E6
:1006100020746F6F20686967680A00204B643A2075
:1006200000204B693A2000204B703A20000A2043FA
:100630006C617373696320504944200A002054752B
:100640003A2000204B753A2000206D61783A200056
:10065000206D696E3A200020643A200020626961B2
:10066000733A2000426564204C6576656C696E675C
:1006700020004661696C656420746F20656E61625C
:100680006C6520426564204C6576656C696E670A0E
:10069000004F666673657473206170706C69656481
:1006A000004572723A20546F6F20666172210054C7
:1006B0006F6F206661722066726F6D20726566656D
:1006C00072656E636520706F696E740A003A20006F
:1006D0007A5F6D61783A20007A5F6D696E3A20002A
:1006E0005A204F6666736574004E6F2063617365B0
:1006F000206C696768740A004163746976652045F7
:10070000787472756465723A2000556E6B6E6F77FF
:100710006E20636F6D6D616E643A2022004E6F2013
:100720004C696E65204E756D6265722077697468DC
:1007300020636865636B73756D2C204C6173742046
:100740004C696E653A20004B494C4C45442E2000C4
:1007500053544F505045442E20005072696E7465BA
:10076000722073746F707065642064756520746F97
:10077000206572726F72732E2046697820746865E6
:10078000206572726F7220616E6420757365204DF2
:1007900039393920746F20726573746172742E2038
:1007A0002854656D70657261747572652069732077
:1007B00072657365742E20536574206974206166B8
:1007C0007465722072657374617274696E67290A48
:1007D000004E6F20436865636B73756D2077697495
:1007E00068206C696E65206E756D6265722C204C98
:1007F000617374204C696E653A2000636865636BB1
:1008000073756D206D69736D617463682C204C6124
:100810007374204C696E653A20004C696E65204EF9
:10082000756D626572206973206E6F74204C617300
:1008300074204C696E65204E756D6265722B312C8B
:10084000204C617374204C696E653A20004D313143
:1008500030004D3331004D383420582059205A2073
:10086000450053442072656164206572726F720A9C
:1008700000446F6E65207072696E74696E672066E1
:10088000696C650A0020496E76616C696420657840
:10089000747275646572200000004843000048438C
:1008A00000004843000000000000000000000000BD
:1008B000205A3A200020593A200042656420583AD4
:1008C0002000203D3D3D3D00202020200042696C5D
:1008D000696E656172204C6576656C696E6720474C
:1008E0007269643A0A200025753A25303275002570
:1008F0003032753A25303275002575642025303246
:10090000753A25303275005A005900580009200008
:100910000000000000000000000000007FFFE00079
:1009200000000000000000000000007000E0000077
:100930000000000000000000000061F860000000FE
:1009400000000000000000000041F820000000004E
:10095000000000000000000040F020000000000047
:1009600000000000000000406020000000000000C7
:100970000000000000005801A07F8000000000007F
:1009800000004104005C63A0FFC000000000000004
:10099000002082005EF7A0FFC00000000000000001
:1009A0002082005EF7A0FFC00000000000000041B0
:1009B00004005C63A07F800000000000000082084B
:1009C000005801A07F80000000000000010410001A
:1009D000406020FFC0000000000000010410004043
:1009E000F020FFC00000000000000082080041F875
:1009F00020FFC00000000000000041040061F8601A
:100A00003F00000000000000000000007000E01E39
:100A10000000000000000001FFFF807FFFE00C00ED
:100A200000000000000001FFFF8000000000000047
:100A30000000000000000000007FFFE00000000058
:100A400000000000000000007000E0000000000056
:100A500000000000000000630C60000000000000C7
:100A6000000000000000470E200000000000000011
:100A700000000000004F0F200000000000000000F8
:100A8000000000005F0FA000000000000000000058
:100A90000000005E07A07F80000000000000004111
:100AA0000400406020FFC000000000000000208221
:100AB0000040F020FFC00000000000000020820085
:100AC00040F020FFC0000000000000004104004092
:100AD00060207F80000000000000008208005E07A8
:100AE000A07F80000000000000010410005F0FA044
:100AF000FFC0000000000000010410004F0F20FFA5
:100B0000C000000000000000820800470E20FFC067
:100B100000000000000000410400630C603F000082
:100B20000000000000000000007000E01E00000057
:100B30000000000001FFFF807FFFE00C00000000CC
:100B400000000001FFFF80000000496E69742E2044
:100B500053442063617264004E6F205344206361EC
:100B60007264004D3231004368616E676520534402
:100B70002063617264005072696E742066726F6DDA
:100B8000205344004D32310053746F7020707269ED
:100B90006E7400526573756D65207072696E7400B5
:100BA0005061757365207072696E7400436F6E7466
:100BB000726F6C00507265706172650054756E657D
:100BC00000496E666F2073637265656E00000609EA
:100BD00000FE000000000001090008FE00000508FA
:100BE0000806000040F0C8888898781005080806B4
:100BF0000000C0F88888888888F805050506000187
:100C00002030F830200508080600002070F8202069
:100C10002020E00509090600FF2070A8A8B88888F0
:100C200070200509090600FFE080C0B0A828302820
:100C3000280509090600FFF8A88888888888A8F888
:100C4000050A0A0600FE205050505088A8A8887057
:100C500003030306000340A040544845524D414C55
:100C60002052554E4157415900546865726D616C70
:100C70002052756E61776179004572723A204D415C
:100C80005854454D5020424544004572723A204D1B
:100C9000415854454D50004D415854454D502074D5
:100CA0007269676765726564004572723A204D49E2
:100CB0004E54454D5020424544004572723A204DF5
:100CC000494E54454D50004D494E54454D502074A9
:100CD00072696767657265640000000000000000CB
:100CE0000000000000000000000000000000000004
:100CF00000000000000000000000000000000000F4
:100D000000000000000000000000000000000000E3
:100D100000000000000000000000000000000000D3
:100D200000000000000000000000000000000000C3
:100D300000000000000000000000000000000000B3
:100D400000000000000000000000000000000000A3
:100D50000000000000000000000000000000000093
:100D60000000000000000000000000000000000083
:100D70000000000000000000000000000000000073
:100D80000000000000000000000000000000000063
:100D90000000000000000000000000000000000053
:100DA0000000000000000000000000000000000043
:100DB0000000000000000000000000000000000033
:100DC0000000000000000000000000000000000023
:100DD0000000000000000000000000000000000013
:100DE0000000000000000000000700000380000079
:100DF0000000000000000000001FC0000FE07C03A6
:100E0000E0781C0781E0F03E0E7FE0003FF07E07B7
:100E1000E0FC1C0381C1F83F0E7FF8007FF07E07E5
:100E2000E0FC1C03C3C1F83F0E7BFE01FEF07F0F08
:100E3000E1FE1C01C383FC3F8E7CFF87F9F0770E37
:100E4000E1FE1C01E783FC3B8E7F7FCFF7F0779EAE
:100E5000E1CE1C00E7039C3BCE7F9FFFCFF0739C4D
:100E6000E3CF1C00FF079E39CE7FE7FF3FF073FC06
:100E7000E3871C007E070E39EE7FFBFEFFF071F862
:100E8000E3871C007E0F0F38EE7FFCF9FFF071F84E
:100E9000E7FF9C003C0FFF38FE7FFF27FFF070F05C
:100EA000E7FF9C003C0FFF387E7FFFDFFFF070F014
:100EB000EFFFDC003C1FFFB87E7FDFFFDFF07060DC
:100EC000EF03DFF83C1E07B83E7FC7FF1FF07060DE
:100ED000EE01DFF83C1C03B83E7FC3FE1FF070003C
:100EE000EE01DFF83C1C03B81E7FC3FE1FF00000BC
:100EF0000000000000000000007FC3DE1FF07FFF45
:100F0000FFFFFFFFFFFFFFFFFE7FC3DE1FF07FFF3E
:100F1000FFFFFFFFFFFFFFFFFE7FC3DE1FF07C3FF1
:100F2000FAFBFFFFFFFD7ABFFE7FC3DE1FF07D9F50
:100F3000FBFFFFFFFFFF7EF7FE7FC3DE1FF07D9309
:100F40001A8A18E38C451AA2DE3FC3DE0FF07C2D0F
:100F5000CACAD6E924CD6AB6BE1F83DE07E07DA3E8
:100F60006A9AD6E926656AB63E0603DE01807D915F
:100F70000A8AD8E38C451AB37E0003DE00007FFFA7
:100F8000FFFFFEEFFFFFFFFF7E0003DE00007FFF9D
:100F9000FFFFF1EFFFFFFFFEFE0003DE00007FFF1B
:100FA000FFFFFFFFFFFFFFFFFE0003DE00007FFFEC
:100FB000FFFFFFFFFFFFFFFFFE0003DE000000005A
:100FC0000000000000000000000001DC0000000044
:100FD00000000000000000000000005000000000C1
:100FE0000000000000000000000000000000000001
:100FF00000000000000000000000000000000000F1
:1010000000000000000000000000000000000000E0
:1010100000000000000000000000000000000000D0
:1010200000000000000000000000000000000000C0
:1010300000000000000000000000000000000000B0
:1010400000000000000000000000000000000000A0
:101050000000000000000000000000000000000090
:101060000000000000000000000000000000000080
:101070000000000000000000000000000000000070
:101080000000000000000000000000000000000060
:101090000000000000000000000000000000000050
:1010A0000000000000000000000000000000000040
:1010B0000000000000000000000000000000000030
:1010C0000000000000000000000000000000000020
:1010D000000000000000000000466C6F7700466CC6
:1010E0006F770046616E2073706565640046616EBF
:1010F0002073706565640042656400426564004E5B
:101100006F7A7A6C65004E6F7A7A6C650053706501
:101110006564005370656564004D61696E005072CE
:10112000656865617420504C4120426564005072CE
:10113000656865617420504C410050726570617241
:1011400065005072656865617420414253204265B4
:1011500064005072656865617420414253005072AA
:101160006570617265004D34323800436F6F6C6496
:101170006F776E005072656865617420414253005C
:101180005072656865617420504C41004D383400E0
:1011900044697361626C6520737465707065727305
:1011A0000053657420686F6D65206F6666736574A3
:1011B00073004732380A47323900473239004C65EC
:1011C00076656C2062656400473238004175746F43
:1011D00020686F6D65004D6F7665206178697300DA
:1011E0004D61696E004D6F76652058004D6F7665D4
:1011F0002059004D6F7665205A00457874727564E9
:101200006572004D6F766520302E316D6D004D6F2B
:10121000766520316D6D004D6F76652031306D6DD6
:10122000004D6F766520617869730045787472753A
:10123000646572004D6F7665205A004D6F766520AB
:1012400059004D6F76652058004572726F72207795
:10125000726974696E6720746F20454550524F4D16
:10126000210A00206279746573290A005365747439
:10127000696E67732053746F72656420280045455A
:1012800050524F4D20636865636B73756D206D69B7
:10129000736D617463680A00206279746573290A4A
:1012A000002073746F7265642073657474696E676F
:1012B00073207265747269657665642028004861E0
:1012C0007264636F6465642044656661756C742044
:1012D00053657474696E6773204C6F616465640A4A
:1012E0000024F4D43050C38E20C2A24017828B70E9
:1012F00011127A910D816CD90AA861E108C758666C
:1013000007615143061E4B5D05C145A7041A4111F3
:1013100004093D9803713931034036DB026533918E
:1013200002D4305402802E1D02632CEE01752AC5B2
:1013300001B028A001102781018F2564012B244BC7
:1013400001E0223401AC211F018D200D01801FFC22
:1013500000841EED00971DDF00B81CD200E61BC6FE
:1013600000201BBC00641AB200B219A8000A19A020
:10137000006A189900D117910040178B00B51684A8
:101380000031167E00B31579003A157300C7146F4B
:101390000058146A00EE1366008813630025135E7C
:1013A00000C7125B006C12570015125400C1115196
:1013B0000070114F0021114B00D61049008D1047CD
:1013C000004610440002104200C00F4000800F3E53
:1013D00000420F3C00060F3B00CB0E3800930E3747
:1013E000005C0E3500270E3400F30D3200C10D31C4
:1013F00000900D3000600D2E00320D2D00050D2CDB
:1014000000D90C2B00AE0C2900850C29005C0C27A0
:1014100000350C27000E0C2600E80B2400C40B241A
:1014200000A00B23007D0B23005A0B2100390B2158
:1014300000180B2000F80A1F00D90A1E00BB0A1E64
:10144000009D0A1D00800A1D00630A1C00470A1B3C
:10145000002C0A1B00110A1A00F7091A00DD0919ED
:1014600000C4091900AB091900920917007B09187B
:1014700000630917004C09160036091600200916EA
:10148000000A091500F5081500E0081400CC08143E
:1014900000B8081400A4081400900813007D081276
:1014A000006B081300580812004608120034081197
:1014B00000230811001208110001081100F00710A4
:1014C00000E0071000D0071000C0071000B0070FA1
:1014D00000A107100091070E0083070F0074070F8B
:1014E0000065070E0057070E0049070E003B070D69
:1014F000002E070E0020070D0013070D0006070D34
:1015000000F9060C00ED060D00E0060C00D4060CF8
:1015100000C8060C00BC060C00B0060C00A4060BAC
:101520000099060C008D060B0082060B0077060B57
:10153000006C060B0061060A0057060B004C060AF9
:101540000042060A0038060A002E060A0024060A8F
:10155000001A060A001006090007060A00FD050920
:1015600000F4050900EB050900E2050900D90509A9
:1015700000D0050900C7050900BE050900B505082A
:1015800000AD050800A50509009C050800940508A4
:10159000008C050800840508007C05080074050817
:1015A000006C050700650508005D05070056050885
:1015B000004E0507004705070040050800380507ED
:1015C00000310507002A050700230507001C050652
:1015D00000160507000F05070008050600020507AD
:1015E00000FB040600F5040700EE040600E804060C
:1015F00000E2040700DB040600D5040600CF040661
:1016000000C9040600C3040600BD040600B70406B2
:1016100000B1040500AC040600A6040600A0040501
:10162000009B04060095040500900406008A04054A
:101630000085040500800406007A04050075040591
:1016400000700405006B04050066040500610405D4
:10165000005C04050057040500520405004D040514
:101660000048040500430405003E0404003A040554
:101670000035040500300404002C04050027040490
:1016800000230405001E0404001A040400160405C7
:1016900000110404000D04040009040500040404FE
:1016A0000000040400FC030400F8030400F4030435
:1016B00000F0030400EC030400E8030400E4030466
:1016C00000E0030400DC030400D8030400D4030496
:1016D00000D0030400CC030400C8030300C50303C7
:1016E0000024F404D9201BC40C5C0E9804C4095FC8
:1016F0000265077101F405F900FB04B30048048793
:1017000000C10369005803550003034500BE023AB7
:10171000008402310053022A00290225000402201D
:1017200000E4011C00C8011900AF01170098011462
:101730000084011300710110006101100051010EBD
:101740000043010D0036010B002B010B0020010BA3
:1017500000150109000C01090003010800FB000845
:1017600000F3000800EB000700E4000600DE0006BE
:1017700000D8000600D2000600CC000500C7000516
:1017800000C2000500BD000400B9000400B500045B
:1017900000B1000400AD000400A9000400A500038E
:1017A00000A20003009F0004009B000300980003B8
:1017B000009500020093000300900003008D0002DA
:1017C000008B0003008800020086000200840003F2
:1017D00000810002007F0002007D0002007B000209
:1017E0000079000200770001007600020074000218
:1017F0000072000100710002006F0002006D000124
:10180000006C0002006A000100690002006700012C
:101810000066000100650001006400020062000132
:101820000061000100600001005F0002005D000136
:10183000005C0001005B0001005A0001005900013A
:10184000005800010057000100560001005500013A
:101850000054000100530000005300010052000139
:101860000051000100500001004F0001004E000037
:10187000004E0001004D0001004C0001004B000033
:10188000004B0001004A000100490001004800002F
:10189000004800010047000100460000004600012A
:1018A0000045000000450001004400010043000025
:1018B000004300010042000000420001004100001E
:1018C0000041000100400001003F0000003F000116
:1018D000003E0000003E0001003D0000003D000110
:1018E000003C0000003C0000003C0001003B000008
:1018F000003B0001003A0000003A000100390000FE
:1019000000390001003800000038000000380001F4
:1019100000370000003700010036000000360000EC
:1019200000360001003500000035000000350001E0
:1019300000340000003400000034000100330000D7
:1019400000330000003300010032000000320000CC
:1019500000320001003100000031000000310001C0
:10196000003000000030000000300001002F0000B7
:10197000002F0000002F0000002F0001002E0000AB
:10198000002E0000002E0001002D0000002D0000A0
:10199000002D0000002D0001002C0000002C000094
:1019A000002C0000002C0001002B0000002B000088
:1019B000002B0000002B0001002A0000002A00007C
:1019C000002A0000002A0001002900000029000070
:1019D0000029000000290000002900010028000063
:1019E0000028000000280000002800000028000156
:1019F000002700000027000000270000002700004B
:101A0000002700010026000000260000002600003C
:101A1000002600000026000100250000002500002F
:101A20000025000000250000002500000025000121
:101A30000024000000240000002400000024000016
:101A40000024000100230000002300000023000008
:101A500000230000002300000023000000230001F9
:101A600000220000002200000022000000220000EE
:101A700000220000002200010021000000210000DF
:101A800000210000002100000021000000210000D2
:101A900000210001002000000020000000200000C4
:101AA00000200000002000000020000000200000B6
:101AB00000200001001F0000001F0000001F0000A8
:101AC000001F0000001F0000001F0000001F000199
:101AD000001E0000001E0000001E0000001E00008E
:101AE000004D383420582059205A20450062656442
:101AF0000A002C2073797374656D2073746F707095
:101B0000656421204865617465725F49443A20002C
:101B100048656174696E67206661696C6564004838
:101B2000656174696E67206661696C65640048650B
:101B30006174696E67206661696C656400486561FF
:101B400074696E67206661696C65640047322F476F
:101B5000332062616420706172616D6574657273B7
:101B60000A0020706F736974696F6E206F7574203E
:101B70006F662072616E67652E0A003F50726F6259
:101B80006520005374616E646172642044657669F7
:101B90006174696F6E3A20002052616E67653A2069
:101BA00000204D61783A2000204D696E3A20004DAA
:101BB00065616E3A200046696E697368656421004C
:101BC0002072616E67653A2000206D61783A2000CE
:101BD000206D696E3A2000207369676D613A2000BC
:101BE000206D65616E3A20003A207A3A2000206F1D
:101BF000662000205A00205900205800476F696E67
:101C00006720746F3A00436C6F636B776973650A82
:101C100000436F756E7465722D00204469726563B0
:101C200074696F6E3A2000202020616E676C653AFF
:101C300020005374617274696E6720726164697503
:101C4000733A2000506F736974696F6E696E672014
:101C50007468652070726F62652E2E2E0A003F4EEA
:101C6000756D626572206F66206C65677320696EA2
:101C7000206D6F76656D656E74206E6F7420706C6C
:101C800061757369626C652028302D3135292E0A03
:101C900000590058003F53616D706C652073697A7C
:101CA00065206E6F7420706C61757369626C65205D
:101CB00028342D3530292E0A004D3438205A2D5025
:101CC000726F6265205265706561746162696C69EA
:101CD000747920546573740A003F566572626F739D
:101CE00065204C6576656C206E6F7420706C617534
:101CF0007369626C652028302D34292E0A004865EE
:101D00006174696E672E2E2E004D616C79616E20B4
:101D10004D3135302072656164792E00000609006E
:101D2000FE070192032120FFFF08FF07FF000000CC
:101D30000600000107070602008080808080008086
:101D4000030202060105A0A0050707060000505087
:101D5000F850F850500507070600002078A07028BA
:101D6000F020050707060000C0C81020409818059D
:101D700007070600006090A040A8906802030306D1
:101D80000104C040800307070601002040808080D6
:101D900040200307070601008040202020408005E6
:101DA000050506000120A870A8200505050600010C
:101DB0002020F820200203030602FFC04080050116
:101DC00001060003F8020202060200C0C005050574
:101DD00006000108102040800507070600007088F3
:101DE000888888887003070706010040C04040408B
:101DF00040E0050707060000708808708080F8053D
:101E00000707060000F81020100808F0050707066D
:101E1000000010305090F81010050707060000F879
:101E200080F008088870050707060000708080F0C1
:101E3000888870050707060000F808102020202079
:101E400005070706000070888870888870050707F6
:101E500006000070888878080870020505060200F0
:101E6000C0C000C0C00206060602FFC0C000C040DD
:101E70008004070706000010204080402010050362
:101E800003060002F800F80407070601008040205E
:101E90001020408005070706000070880810200009
:101EA0002005070706000070880868A8A8700507C5
:101EB00007060000708888F88888880507070600EC
:101EC00000F08888F08888F0050707060000708811
:101ED0008080808870050707060000F08888888861
:101EE00088F0050707060000F88080F08080F8057C
:101EF0000707060000F88080F0808080050707064D
:101F00000000708880B88888700507070600008880
:101F10008888F8888888010707060200808080800A
:101F200080808005070706000038101010109060B0
:101F30000507070600008890A0C0A0908805070745
:101F4000060000808080808080F80507070600007A
:101F500088D8A8888888880507070600008888C868
:101F6000A8988888050707060000708888888888F0
:101F700070050707060000F08888F080808005075C
:101F80000706000070888888A89068050707060083
:101F900000F08888F0A09088050707060000788088
:101FA00080700808F0050707060000F820202020B0
:101FB0002020050707060000888888888888700523
:101FC00007070600008888888888502005070706CC
:101FD00000008888888888A85005070706000088C0
:101FE0008850205088880507070600008888885098
:101FF000202020050707060000F80810204080F880
:10200000030707060100E08080808080E005050569
:102010000600018040201008030707060100E020A9
:1020200020202020E005030306000420508805013D
:1020300001060000F80202020602058040050505BF
:102040000600007008788878050707060000808081
:10205000B0C88888F005050506000070808088708B
:1020600005070706000008086898888878050505B0
:102070000600007088F880700507070600003048E9
:10208000E0404040400506060600FF70888878085A
:10209000700507070600008080B0C888888801079F
:1020A0000706020080008080808080030808060107
:1020B000FF200020202020A0400407070600008009
:1020C0008090A0C0A090030707060100C0404040D8
:1020D0004040E0050505060000D0A8A8A8A8050511
:1020E00005060000B0C88888880505050600007050
:1020F000888888700506060600FFF08888F08080D2
:102100000506060600FF7888887808080505050694
:102110000000B0C880808005050506000070807052
:1021200008F00407070600004040E040404030054A
:1021300005050600008888889868050505060000E2
:1021400088888850200505050600008888A8A850C2
:102150000505050600008850205088050606060083
:10216000FF888888780870050505060000F81020AB
:1021700040F803070706010020404080404020014E
:1021800007070602008080808080808003070706A2
:1021900001008040402040408005020206000268A5
:1021A0009000000006000000000006000000000093
:1021B000060000000000060000000000060000000D
:1021C00000000600000000000600000000000600FD
:1021D00000000000060000000000060000000000F3
:1021E00006000000000006000000000006000000DD
:1021F00000000600000000000600000000000600CD
:1022000000000000060000000000060000000000C2
:1022100006000000000006000000000006000000AC
:10222000000006000000000006000000000006009C
:102230000000000006000000000006000000000092
:10224000060000000000060000000000060000007C
:10225000000006000000000006000000000006006C
:102260000000000006000000000006000001070753
:10227000060200800080808080800507070600003D
:102280002070A8A0A8702005070706000030404075
:10229000E04050A8050505060000887050708805CC
:1022A0000707060000885020F820F82001070706DD
:1022B00002008080800080808005080806000030D1
:1022C00048205050209060030101060107A0050737
:1022D00007060000F888B8B8B888F80507070600B0
:1022E00001700878887800F8050505060001285077
:1022F000A05028050303060001F8080802020206A0
:1023000002064080050707060000F888A88898A8FC
:10231000F8050101060006F80404040600036090B5
:1023200090600507070600002020F8202000F80430
:10233000050506000360902040F003050506000334
:10234000E020E020E00202020602064080050808C4
:102350000600FF8888888898E880800507070600BF
:102360000078989878181818020202060202C0C075
:102370000202020602FF408003050506000340C07A
:102380004040E0050707060001708888887000F863
:10239000050505060001A0502850A0050707060006
:1023A000008890A858B8080805070706000088901C
:1023B000B848982038050808060000C040C048D832
:1023C00038080805070706000020002040808870B4
:1023D0000508080600004020007088F88888050875
:1023E000080600001020007088F888880508080694
:1023F00000002050007088F8888805080806000052
:102400006890007088F88888050808060000500069
:10241000708888F888880508080600002050207019
:1024200088F888880507070600003860A0B8E0A093
:10243000B80508080600FF70888080887020600555
:102440000808060000402000F880F080F805080821
:10245000060000081000F880F080F8050808060063
:1024600000205000F880F080F805070706000050B3
:1024700000F880F080F8030808060100804000E0C2
:10248000404040E0030808060100204000E04040D2
:1024900040E003080806010040A000E0404040E0A2
:1024A000030707060100A000E0404040E0050707E1
:1024B000060000704848E848487005080806000013
:1024C00068900088C8A89888050808060000402081
:1024D00070888888887005080806000010207088B9
:1024E00088888870050808060000205000708888D9
:1024F0008870050808060000689000708888887059
:102500000508080600005000708888888870050556
:102510000506000188502050880508080600FF10B5
:1025200070A8A8A8A87040050808060000402088E8
:102530008888888870050808060000102088888828
:102540008888700508080600002050008888888860
:102550007005080806000050008888888888700583
:1025600008080600001020885020202020050909B6
:102570000600FFC040704848704040E0040808066C
:1025800001FF609090A09090E08005080806000090
:1025900040200070087888780508080600001020A0
:1025A0000070087888780508080600002050007040
:1025B0000878887805080806000068900070087898
:1025C00088780507070600005000700878887805AD
:1025D0000808060000205020700878887805060654
:1025E000060000D02878A0A8500506060600FF7057
:1025F0008088702060050808060000402000708870
:10260000F880700508080600001020007088F88027
:10261000700508080600002050007088F8807005DA
:10262000070706000050007088F88070030808064D
:10263000010080400040C04040E00308080601005F
:1026400020400040C04040E003080806010040A0D0
:102650000040C04040E0030707060100A00040C062
:102660004040E0050707060000A040A010788870F1
:10267000050808060000689000B0C888888805082A
:102680000806000040200070888888700508080649
:102690000000102000708888887005080806000077
:1026A000205000708888887005080806000068902F
:1026B0000070888888700507070600005000708841
:1026C0008888700505050600012000F80020050730
:1026D000070600FF1070A8A8A870400508080600AB
:1026E00000402000888888986805080806000010C7
:1026F0002000888888986805080806000020500097
:102700008888889868050707060000500088888830
:1027100098680509090600FF102000888888F808D5
:10272000700407070601FFC04060506040E00508E4
:10273000080600FF50008888887808704578747211
:1027400075646572004D6F7665205A004D6F766531
:102750002059004D6F766520580050726570617287
:102760006500526573746F7265206661696C736190
:102770006665004C6F6164206D656D6F7279005302
:10278000746F7265206D656D6F72790046696C615A
:102790006D656E74004D6F74696F6E0054656D7079
:1027A00065726174757265004D61696E0050726585
:1027B000686561742041425320636F6E66005072F9
:1027C000656865617420504C4120636F6E660050EF
:1027D00049442D44005049442D44005049442D495A
:1027E000005049442D49005049442D50005049445F
:1027F0002D500020082046616374002008204661A7
:102800006374002008204D6178002008204D617815
:10281000002008204D696E002008204D696E004F91
:102820006666004F6E20004175746F74656D7000B0
:1028300046616E2073706565640046616E2073703A
:102840006565640042656400426564004E6F7A7A93
:102850006C65004E6F7A7A6C6500436F6E74726FB0
:102860006C0053746F7265206D656D6F72790042F4
:10287000656400426564004E6F7A7A6C65004E6F45
:102880007A7A6C650046616E2073706565640046F7
:10289000616E2073706565640054656D706572616A
:1028A000747572650070012C0190012701B001223E
:1028B00001C0011D01F00118011002130130020EC8
:1028C000016002090190020401C002FF000003FA46
:1028D000004003F5008003F000D003EB002004E685
:1028E000007004E100E004DC004005D700C005D220
:1028F000004006CD00D006C8008007C3003008BEE7
:1029000000F008B900C009B400B00AAF00B00BAACB
:1029100000D00CA500000EA000500F9B00C0109628
:10292000005012910000148C00C0158700B017826F
:1029300000B0197D00D01B7800001E730040206E8F
:102940000090226900F024640040275F0090295A1B
:1029500000E02B5500102E500020304B0010324666
:1029600000E033410090353C0010373700703832BA
:1029700000A0392D00B03A2800A03B2300603C1E87
:1029800000103D1900903D1400103E0F00703E0AEB
:1029900000C03E0500003F0000403FFBFF803FF6C7
:1029A000FFC03FF1FF43616E6E6F74206F70656E04
:1029B0002073756264697220002066697273740006
:1029C0005A0059005800486F6D65200020666972F2
:1029D00073740A005A0059005800486F6D65200052
:1029E0006563686F3A0000002100240027002A0078
:1029F00000002200250028002B00000020002300FA
:102A00002600290002020202020202020404040457
:102A1000040404040303030303030303010101018A
:102A20000101010101020408102040800102040894
:102A300010204080010204081020408080402010B7
:102A400008040201000000010200090A0000000061
:102A50000403080700000000000000000000000060
:102A6000000000004B494C4C45442E2000202D20F6
:102A7000496E76616C6964206578747275646572FC
:102A8000206E756D62657220210A002020506C61F5
:102A90006E6E657242756666657242797465733AE8
:102AA00020002046726565204D656D6F72793A2071
:102AB00000436F6D70696C65643A204A616E203125
:102AC0003320323031370A00207C20417574686F22
:102AD000723A202842696F6E6963626F6E65290AD7
:102AE00000323031362D31322D30362031323A300D
:102AF0003000204C61737420557064617465643AD1
:102B00002000312E312E302D5243370A004D617294
:102B10006C696E0020536F66747761726520526530
:102B20007365740A00205761746368646F6720528C
:102B3000657365740A002042726F776E206F75743A
:102B40002052657365740A002045787465726E6161
:102B50006C2052657365740A00506F77657255700A
:102B60000A0073746172740A006572726F72207762
:102B7000726974696E6720746F2066696C650A00FB
:102B8000456E6473746F7073202563202563202560
:102B90006320256300205A3A0020593A0020583A11
:102BA00000656E6473746F7073206869743A2000F6
:102BB000446F6E6520736176696E672066696C6527
:102BC0002E0A004D323900434F4D4D554E49434179
:102BD00054494F4E0044525952554E004552524F9F
:102BE000525300494E464F004543484F0020424053
:102BF0003A0020403A00202F0020423A00202F00C7
:102C000020543A006F6B0048656174696E672064F8
:102C10006F6E652E003F0A0020573A0048656174C8
:102C2000696E672E2E2E004D616C79616E204D31DC
:102C300035302072656164792E00E82BE32BDC2BA4
:102C4000D52BC72B6F66660044454255473A004D69
:102C50003131332053004D616C79616E204D313537
:102C600030204F66662E00205A3A0020593A002044
:102C7000436F756E7420583A200020453A00205A60
:102C80003A0020593A00583A00205A00205900587A
:102C90000020204D61783A2000205A002059005829
:102CA0000020204D696E3A20004F6E20004F66666E
:102CB00000536F667420656E6473746F70733A208E
:102CC0000020746F6F206C6F6E672065787472756A
:102CD00073696F6E2070726576656E7465640A0044
:102CE00020636F6C6420657874727573696F6E20F1
:102CF00070726576656E7465640A00627573793A00
:102D00002070617573656420666F7220696E7075DE
:102D1000740A00627573793A207061757365642076
:102D2000666F7220757365720A00627573793A2056
:102D300070726F63657373696E670A004B494C4C20
:102D400045442E2000506C65617365207265736583
:102D500074005052494E5445522048414C54454409
:102D6000005072696E7465722068616C7465642EBF
:102D7000206B696C6C28292063616C6C6564210A86
:102D800000656E7175657565696E672022000000CB
:102D9000000000000000000000005761726E696EC4
:102DA000673A20486F6D696E672042756D702044E8
:102DB000697669736F72203C20310A000000A040E0
:102DC0000000A040000000400000484300004843CD
:102DD00000004843FFFFFF4573746570732F6D6DEE
:102DE000004573746570732F6D6D005A7374657050
:102DF000732F6D6D005A73746570732F6D6D00596C
:102E000073746570732F6D6D005973746570732FD3
:102E10006D6D005873746570732F6D6D0058737409
:102E20006570732F6D6D00412D74726176656C0055
:102E3000412D74726176656C00412D72657472610A
:102E4000637400412D7265747261637400416D6139
:102E500078204500416D6178204500416D61782002
:102E60005A00416D6178205A00416D617820590007
:102E7000416D6178205900416D6178205800416DA5
:102E800061782058005654726176206D696E005644
:102E900054726176206D696E00566D696E00566DD4
:102EA000696E00566D6178204500566D6178204549
:102EB00000566D6178205A00566D6178205A005690
:102EC0006D6178205900566D6178205900566D610A
:102ED00078205800566D617820580056652D6A6537
:102EE000726B0056652D6A65726B00567A2D6A65A5
:102EF000726B00567A2D6A65726B0056792D6A6581
:102F0000726B0056792D6A65726B0056782D6A6572
:102F1000726B0056782D6A65726B00416363656C55
:102F200000416363656C005A204F666673657400E8
:102F30005A204F666673657400436F6E74726F6CCF
:102F4000007C3C3E5E2B3D3F2F5B5D3B2C2A225C90
:102F50000053442063617264206F6B0A006F7065D8
:102F60006E526F6F74206661696C65640A00766FDB
:102F70006C756D652E696E6974206661696C656437
:102F80000A00534420696E6974206661696C0A0006
:102F900020204D383531205A005A2D50726F62650D
:102FA000204F666673657420286D6D293A0A0020EB
:102FB000204D3230302044300A0020204D32303055
:102FC0002044002044697361626C65640A004669AC
:102FD0006C616D656E742073657474696E67733AA5
:102FE0000020440020490020204D33303120500083
:102FF0005049442073657474696E67733A0A0020FF
:10300000460020420020480020204D313435205316
:10301000004D6174657269616C20686561747570DA
:1030200020706172616D65746572733A0A002020C8
:103030004D3432302053004175746F204265642056
:103040004C6576656C696E673A0A00205A00205913
:103050000020204D323036205800486F6D65206FBB
:10306000666673657420286D6D290A00204500206E
:103070005A002059002058002042002054002020EF
:103080004D323035205300416476616E63656420B3
:103090007661726961626C65733A20533D4D696E69
:1030A00020666565647261746520286D6D2F7329D3
:1030B0002C20543D4D696E2074726176656C2066DB
:1030C0006565647261746520286D6D2F73292C20ED
:1030D000423D6D696E696D756D207365676D656ED6
:1030E000742074696D6520286D73292C20583D6DFE
:1030F0006178696D756D205859206A65726B20285A
:103100006D6D2F73292C20205A3D6D6178696D7586
:103110006D205A206A65726B20286D6D2F73292CE3
:103120002020453D6D6178696D756D2045206A658B
:10313000726B20286D6D2F73290A002054002052D5
:103140000020204D323034205000416363656C65AF
:10315000726174696F6E733A20503D7072696E745B
:10316000696E672C20523D726574726163742061D0
:103170006E6420543D74726176656C0A00204500CF
:10318000205A0020590020204D3230312058004D67
:103190006178696D756D20416363656C65726174FA
:1031A000696F6E20286D6D2F7332293A0A00204511
:1031B00000205A0020590020204D32303320580082
:1031C0004D6178696D756D206665656472617465C1
:1031D0007320286D6D2F73293A0A00204500205A6C
:1031E0000020590020204D3932205800537465705A
:1031F000732070657220756E69743A0A0061757487
:103200006F25692E67004D3234004D32332025730F
:103210000057726974696E6720746F2066696C6507
:103220003A20006F70656E206661696C65642C20C1
:1032300046696C653A20006F70656E206661696C46
:1032400065642C2046696C653A200046696C6520EF
:1032500073656C65637465640A002053697A653A26
:10326000200046696C65206F70656E65643A2000C9
:103270006F70656E206661696C65642C2046696CB0
:10328000653A20002066696C653A20004E6F772011
:10329000002220706F73002220706172656E743A94
:1032A0002200535542524F5554494E452043414CFC
:1032B0004C207461726765743A22004B494C4C454E
:1032C000442E2000747279696E6720746F206361E8
:1032D0006C6C207375622D67636F64652066696C22
:1032E0006573207769746820746F6F206D616E79E3
:1032F000206C6576656C732E204D4158206C657688
:10330000656C2069733A004572726F723A004669C3
:103310006C2E204469612E0046696C2E2044696140
:103320002E004F6666004F6E20004520696E206DAE
:103330006D3300436F6E74726F6C0043616E6E6F1D
:103340007420656E746572207375626469723A20C8
:1033500000022E2E000152656672657368004D6191
:10336000696E00526573656E643A20006F6B004EA3
:10337000414E494E495459494E46CDCCCC3D0AD7D1
:10338000233C17B7D13877CC2B329595E6241FB163
:103390004F0A000020410000C84200401C4620BCEB
:1033A000BE4CCA1B0E5AAEC59D743EDD3DE21124D3
:1033B0001FBECFEFD0E4DEBFCDBF13E0A0E0B1E091
:1033C000E4EDF4EE01E00BBF02C007900D92AA33CA
:1033D000B107D9F723E1AAE3B3E001C01D92AE36ED
:1033E000B207E1F719E1C6EDD9E104C02197FE016A
:1033F0000E94BEE5C53DD107C9F70E941EDE0C94B0
:103400005DF20C9400002F923F924F925F926F9268
:103410007F928F929F92AF92BF92CF92DF92EF9264
:10342000FF920F931F93CF93DF93CDB7DEB7C358AF
:10343000D1090FB6F894DEBF0FBECDBF0091CE0FFD
:1034400020E6029F80011124025B114F10934A0372
:10345000009349038091DA0F80FF18C0E0EEF9E293
:1034600084917F013FEFE31AF30A882321F00E9441
:10347000E63CF701F5CFD8018D918D01882319F035
:103480000E94E63CF8CF8AE00E94E63C2091490386
:1034900030914A03F90180812F5F3F4F8032D1F391
:1034A000F0934A03E09349038E3469F01091490385
:1034B00000914A036AE270E0812F902F0E941DE97B
:1034C0000097D1F420C0818190ED980F9A3010F0D0
:1034D0008D3261F73296DF0131962C9120532A30DC
:1034E000D0F3CD01FC01019620812032D9F3F09375
:1034F0004A03E0934903DACFFC013196829180328E
:1035000031F08A3221F0A12FB02F9D9102C010829C
:10351000F5CFFD01808111968032D9F380538A3036
:1035200020F0E0EEF9E20C94BC3400E010E02AE078
:10353000209FB001219F700D11248B0100531109B0
:103540008191080F111D87FD1A95808180538A3063
:1035500078F37F013196D7018C918032D1F3F092CC
:103560004803E092470321E030E03093F50F2093C9
:10357000F40F9D3411F40C94F523943511F40C944C
:103580008534973411F00C949E340C31110509F4F4
:1035900089C168F40430110520F40230110518F1D6
:1035A0003AC10430110509F43FC10C94B3340A3513
:1035B000110511F40C94352350F40D31110509F463
:1035C000D9C20E31110509F477C70C94B3340B3509
:1035D000110511F40C9439230C35110511F40C94D8
:1035E0003E230C94B33480913201882311F40C945F
:1035F000B3340E94D2778EEF9FE00E949ED90E9442
:10360000A13C8091DA0F83FD93C0C0900A10D09046
:103610000B10E0900C10F0900D102091290E3091BD
:103620002A0E40912B0E50912C0EC701B6010E941C
:1036300006EE882309F47CC08091D50F811134C037
:1036400020919501309196014091970150919801F8
:103650006091ED0A7091EE0A8091EF0A9091F00A64
:103660000E9406EE87FF20C0C092290ED0922A0E3B
:10367000E0922B0EF0922C0EE0EEF9E284918F0195
:103680000F5F1F4F882321F00E94E63CF801F6CF20
:10369000E9E3F1E084918F010F5F1F4F882321F050
:1036A0000E94E63CF801F6CFC0900A10D0900B10B3
:1036B000E0900C10F0900D102091290E30912A0E00
:1036C00040912B0E50912C0EC701B6010E94CEE501
:1036D0000E943BE797FF07C0909580957095619594
:1036E0007F4F8F4F9F4F693C71058105910504F114
:1036F000C092290ED0922A0EE0922B0EF0922C0E40
:10370000E0EEF9E284918F010F5F1F4F882321F0D3
:103710000E94E63CF801F6CFEAE1F1E084918F01E6
:103720000F5F1F4F882321F00E94E63CF801F6CF7F
:103730002091FE0F3091FF0F409100105091011029
:1037400060911D0E70911E0E80911F0E9091200EA3
:103750000E9406EE81111DC02091021030910310CD
:1037600040910410509105106091210E7091220E2D
:103770008091230E9091240E0E9406EE811109C0C3
:10378000609100017091010180910201909103010B
:103790003CC08091D40F60911E0170911F0188235D
:1037A000F1F0072E000C880B990B0E940DEE209172
:1037B00000013091010140910201509103010E94EA
:1037C0006CEE2AE037ED43E25CE30E946CEE2FEFF3
:1037D0003FEF4FEF5FEF0E9467D40C94B334072E96
:1037E000000C880B990B0E940DEE20910001309186
:1037F000010140910201509103010E946CEE2AE008
:1038000037ED43E25CE30E946CEE0E9492390E9425
:1038100088390C94B33481E00230110509F080E05E
:103820000E9446780C94B33480E50E94ED398823D9
:1038300029F00E94803A6B017C0103C0C12CD12C7D
:10384000760183E50E94ED39882321F00E94B43A85
:103850006B017C010E94756A0E94A13C8091F60F69
:103860009091F70FA091F80FB091F90FC80ED91EE3
:10387000EA1EFB1E80914B01811105C060E084E5CA
:1038800091E00E946D850E94EB7EDC01CB018C19DA
:103890009D09AE09BF09B7FD02C00C94B3340E9464
:1038A000FEAAF1CF0E94756A80E00E9486370E94CE
:1038B000C63C11E01093940188E50E94ED39E82E92
:1038C00089E50E94ED39082F8AE50E94ED39F82E2E
:1038D000E11005C0011105C0982F912705C0011105
:1038E00002C090E001C0982F9093040180E1EDE1C7
:1038F000FEE0AEEFBFE001900D928A95E1F79111E5
:1039000004C0E11002C00023D9F120E030E040EA19
:1039100050E46091BC107091BD108091BE109091E8
:10392000BF100E94CFE52091B0103091B1104091AE
:10393000B2105091B3100E94CFE5609306107093BF
:10394000071080930810909309102091250E309154
:10395000260E4091270E5091280E0E942FE818162F
:103960007CF419821A821B821C829E012F5F3F4FBA
:1039700046E050E161E27EE08DE19EE00E94E037AA
:1039800080910401811102C0EE2021F080E090E0DE
:103990000E94F9A880910401811102C0002321F046
:1039A00081E090E00E94F9A880910401811103C098
:1039B000FF2009F4D3C08091190E882321F0809153
:1039C0001A0E81111EC060E081E991E00E946D85B0
:1039D000E0EEF9E284918F010F5F1F4F882321F001
:1039E0000E94E63CF801F6CFE0E8F1E084918F0117
:1039F0000F5F1F4F882309F4B1C00E94E63CF80115
:103A0000F5CF0E94403B20E030E048EC52E460916A
:103A1000B4107091B5108091B6109091B7100E94BB
:103A2000CFE52091A8103091A9104091AA10509193
:103A3000AB100E94CFE54B015C016093FE0F7093C9
:103A4000FF0F809300109093011020E030E048ECCD
:103A500052E46091B8107091B9108091BA109091B1
:103A6000BB100E94CFE52091AC103091AD10409179
:103A7000AE105091AF100E94CFE56B017C016093B6
:103A8000021070930310809304109093051080919E
:103A9000250E9091260EA091270EB091280E8093AE
:103AA000061090930710A0930810B09309108EEFA2
:103AB0009FE00E9465C28823A1F120E030E04CE045
:103AC00052E4C501B4010E94CEE56093FE0F7093ED
:103AD000FF0F809300109093011020E030E048E445
:103AE00052E4C701B6010E94CFE5609302107093C3
:103AF0000310809304109093051019821A821B8280
:103B00001C829E012F5F3F4F45E25EE062E070E164
:103B10008EEF9FE00E94E03782E090E00E94F9A8DB
:103B20001DC060E08FE691E00E946D85E0EEF9E255
:103B300084918F010F5F1F4F882321F00E94E63C84
:103B4000F801F6CFEDE5F1E084918F010F5F1F4F93
:103B5000882321F00E94E63CF801F6CF0E94403B0A
:103B600080917E05809394010E94AC3C0E94A693B4
:103B70000C94B3340E949B8C81110C94B33486E571
:103B80000E94ED39882339F00E94683A60969FAF11
:103B90008EAF609706C0E1E0F0E06096FFAFEEAF59
:103BA000609760962EAD3FAD60972530310570F07F
:103BB000EFEEF1E084918F010F5F1F4F882311F426
:103BC0000C94B3340E94E63CF801F4CF84E40E94E4
:103BD000ED392A968FAF2A9785E40E94ED39A29697
:103BE0008FAFA29760964EAD5FAD6097452BE9F021
:103BF000E8EDF1E084918F010F5F1F4F882321F0E2
:103C00000E94E63CF801F6CF2A965FAD2A9755232D
:103C100061F0EFEBF1E084918F010F5F1F4F88237C
:103C200021F00E94E63CF801F6CF83E50E94ED39D1
:103C3000882349F00E948B3A20E030E040E752E4CC
:103C40000E94C9E604C065E575E585E093E46093EC
:103C500005017093060180930701909308018CE49D
:103C60000E94ED39882319F00E948B3A18C020E099
:103C700030E048E452E46091B4107091B510809146
:103C8000B6109091B7100E94CFE52091A810309106
:103C9000A9104091AA105091AB100E94CFE50E944C
:103CA0003BE721967FAF6EAF219782E50E94ED3909
:103CB000882319F00E948B3A18C020E030E046E1DA
:103CC00053E46091B4107091B5108091B61090914A
:103CD000B7100E94CFE52091A8103091A910409113
:103CE000AA105091AB100E94CFE50E943BE78B01D8
:103CF00086E40E94ED39882319F00E948B3A18C09F
:103D000020E030E048E452E46091B8107091B910BE
:103D10008091BA109091BB100E94CFE52091AC1019
:103D20003091AD104091AE105091AF100E94CFE590
:103D30000E943BE71B0182E40E94ED39882319F0C1
:103D40000E948B3A18C020E030E046E153E46091D5
:103D5000B8107091B9108091BA109091BB100E9468
:103D6000CFE52091AC103091AD104091AE10509144
:103D7000AF100E94CFE50E943BE729967FAF6EAF60
:103D800029972196AEADBFAD2197BD01BB0F880B22
:103D9000990B0E940DEE65966CAF7DAF8EAF9FAF15
:103DA00065978090B4109090B510A090B610B09028
:103DB000B710C090A810D090A910E090AA10F09071
:103DC000AB1020E030E04CE052E4C501B4010E94A9
:103DD000CFE5A70196010E94CFE59B01AC01659656
:103DE0006CAD7DAD8EAD9FAD65970E9406EE87FDF3
:103DF00011C0B1E06196BFAF6197C80109972196E4
:103E0000EEADFFAD2197E817F90744F461961FAEB8
:103E1000619704C0F1E06196FFAF6197B801012E90
:103E2000000C880B990B0E940DEE2B013C0120E049
:103E300030E048E453E4C501B4010E94CFE5A70196
:103E400096010E94CFE59B01AC01C301B2010E9423
:103E50002FE8181684F021E024962FAF249721969E
:103E60008EAD9FAD219709968017910744F4249653
:103E70001FAE249704C031E024963FAF2497B101D0
:103E8000032C000C880B990B0E940DEE69966CAF09
:103E90007DAF8EAF9FAF69978090B8109090B910AA
:103EA000A090BA10B090BB10C090AC10D090AD10E4
:103EB000E090AE10F090AF1020E030E0A901C50115
:103EC000B4010E94CFE5A70196010E94CFE59B01B6
:103ED000AC0169966CAD7DAD8EAD9FAD69970E94CA
:103EE00006EE87FD10C041E02E964FAF2E97299623
:103EF0008EAD9FAD299709972816390644F42E9662
:103F00001FAE2E9704C051E02E965FAF2E972996D4
:103F1000AEADBFAD2997BD01BB0F880B990B0E94B9
:103F20000DEE2B013C0120E030E046E153E4C501F9
:103F3000B4010E94CFE5A70196010E94CFE59B0145
:103F4000AC01C301B2010E942FE8FF24F3941816BC
:103F500054F0C10109962996EEADFFAD29978E1751
:103F60009F070CF4F12C6196FFAD6197F11112C01F
:103F700024962FAD2497222329F080EB91E00E9414
:103F8000167211C02E963FAD2E9731110CC0F11054
:103F900013C01CC088EB91E00E94167224964FADAE
:103FA00024974111EACF2E965FAD2E97552321F02D
:103FB00088EA91E00E941672FF2011F40C94B33449
:103FC00081EA91E00E9416720C94B3340E94756AE3
:103FD0008091D40F24968FAF24971092D40F2A96F5
:103FE0009FAD2A97911106C084E690E00E9473D796
:103FF0000E94403B0E94C63C81E00E943D398823DC
:1040000039F02496AFAD2497A093D40F0C94B33419
:1040100018A219A21AA21BA219821A821B821C8240
:104020002196EEADFFAD21970E1B1F0B17FF02C0AF
:104030000F5F1F4F15950795B801012E000C880BD7
:10404000990B0E940DEE6D966CAF7DAF8EAF9FAF5A
:104050006D972996AEACBFAC2997A218B308B7FEEE
:1040600003C0FFEFAF1ABF0AB594A794B5010B2C9C
:10407000000C880B990B0E940DEEA1966CAF7DAFE2
:104080008EAF9FAFA197C0908610D0908710E09020
:104090008810F09089108AE50E94ED39882351F04C
:1040A0000E948B3A9B01AC01C701B6010E94CFE58B
:1040B0006B017C0160917A0570917B05072E000CE5
:1040C000880B990B0E940DEE9B01AC016D966CADB7
:1040D0007DAD8EAD9FAD6D970E9406EE811129C01A
:1040E00060917C0570917D05072E000C880B990B63
:1040F0000E940DEE9B01AC01A1966CAD7DAD8EAD25
:104100009FADA1970E9406EE811113C080917605A4
:104110009091770521962EAD3FAD2197281739074D
:1041200041F480917805909179052816390609F4B3
:1041300052C024963FAD24973093D40F0E94A637E7
:1041400010937B0500937A05B0927D05A0927C05C3
:104150002091B4103091B5104091B6105091B71025
:1041600065966CAD7DAD8EAD9FAD65970E94CEE539
:104170002091A8103091A9104091AA105091AB1035
:104180000E94CEE50E943BE7709377056093760529
:104190002091B8103091B9104091BA105091BB10D5
:1041A00069966CAD7DAD8EAD9FAD69970E94CEE5F1
:1041B0002091AC103091AD104091AE105091AF10E5
:1041C0000E94CEE50E943BE77093790560937805E5
:1041D00024961FAE249741E028964FAF289721964A
:1041E0001FAE1EAE219751E02E965FAF2E9783E053
:1041F00061968FAF6197312C28962FAD289731E0CB
:10420000232728962FAF289721968EAD9FAD219713
:10421000092E000CAA0BBB0BA6968CAF9DAFAEAFC0
:10422000BFAFA69761962FAD6197321609F4A5C06E
:10423000632D032C000C770B880B990B0E940DEE5D
:104240009B01AC016D966CAD7DAD8EAD9FAD6D9754
:104250000E946CEE9B01AC0165966CAD7DAD8EADA0
:104260009FAD65970E94CFE52B013C01A6966CADF2
:104270007DAD8EAD9FADA6970E940DEE9B01AC016A
:10428000A1966CAD7DAD8EAD9FADA1970E946CEEF9
:104290009B01AC0169966CAD7DAD8EAD9FAD69970C
:1042A0000E94CFE54B015C0120E030E0A901C30191
:1042B000B2010E9406EE87FD05C020E030E040E03C
:1042C0005FE303C020E030E0A901C301B2010E9416
:1042D000CFE50E9471E768A379A38AA39BA320E09E
:1042E00030E0A901C501B4010E9406EE87FD05C0BA
:1042F00020E030E040E05FE303C020E030E0A901CF
:10430000C501B4010E94CFE50E9471E769837A83F9
:104310008B839C8360962EAD3FAD6097A2964FAD88
:10432000A297BE016F5F7F4FCE0180960E947441BD
:10433000232D032C000C330B8901000F111F020FDA
:10434000131F2196AEADBFAD21970A0F1B1F000FA3
:10435000111F000F111F0E5A1A4FA70196010E943C
:10436000CFE5F80160837183828393830E94FEAA64
:104370002E96FFAD2E973F0E55CF21964EAD5FADD9
:1043800021974F5F5F4F21965FAF4EAF219743302C
:104390005105C9F028969FAD289791110BC0AFEF3A
:1043A0002E96AFAF2E97BFEF6196BFAF619762E0D9
:1043B000362E22CFE1E02E96EFAF2E97F3E06196F6
:1043C000FFAF619718CF80E00E943D39882339F014
:1043D00024965FAD24975093D40F0C94B3340E946D
:1043E000AC3C2A968FAD2A9781112BC011E092E048
:1043F000D92ECC24C39490E0FD2CF11A01E0090FD2
:10440000EC2CE91A21E041E06E2D812F0E947ADA2E
:1044100021E04FEF6E2D8F2D0E947ADA2FEF41E0D1
:10442000602F812F0E947ADA2FEF4FEF602F8F2DB0
:104430000E947ADA91E0023009F7112311F010E0BE
:10444000DACF0E9429DC2A969FAD2A97911118C0D5
:104450008DE19EE00E94BFD79B01AC016091250ECB
:104460007091260E8091270E9091280E0E94CEE525
:104470006093250E7093260E8093270E9093280E3E
:104480000E94A69381E090E09093F50F8093F40F43
:104490002A96AFAD2A97AA2321F024968FAD2497B0
:1044A00001C081E08093D40F882311F40C94B334BD
:1044B0000E94403B0C94B33488E50E94ED39882378
:1044C00019F00E948B3A0EC020E030E04CE052E43C
:1044D00060911D0E70911E0E80911F0E9091200E06
:1044E0000E94CFE56BAF7CAF8DAF9EAF89E50E9498
:1044F000ED39882319F00E948B3A0EC020E030E09D
:1045000048E452E46091210E7091220E8091230EB6
:104510009091240E0E94CEE568A379A38AA39BA361
:104520000BAD1CAD2DAD3EAD09831A832B833C83AF
:104530006D837E838F83988720E030E0A9016091AE
:10454000BC107091BD108091BE109091BF100E9460
:10455000CFE52091B0103091B1104091B210509140
:10456000B3100E94CFE569877A878B879C87CE013D
:1045700001960E9465C2882311F40C94B33483E53C
:104580000E94ED39882321F00E942F3A482F01C064
:1045900041E080E0CD57DF4F4883C358D0400E94B0
:1045A00086370E94C63C21E030E0CD57DF4F48817E
:1045B000C358D040BE01605E7F4FCE01CB960E94B3
:1045C00074416B017C01E1E2F2E084918F010F5FA5
:1045D0001F4F882321F00E94E63CF801F6CF27E127
:1045E00037EB41ED58E36BAD7CAD8DAD9EAD0E94D8
:1045F000CFE542E00E94FF40ECE1F2E084918F01C0
:104600000F5F1F4F882321F00E94E63CF801F6CF90
:1046100027E137EB41ED58E368A179A18AA19BA17D
:104620000E94CFE542E00E94FF40E7E1F2E0849182
:104630008F010F5F1F4F882321F00E94E63CF80195
:10464000F6CF27E137EB41ED58E3C701B6010E94F1
:10465000CFE542E00E94FF408AE00E94E63C0E94D3
:10466000AC3C0E94A6930C94B334109246030C9475
:10467000B33481E0809346030C94B43485E40E9403
:10468000ED39B82E811102C00E94756A1DEB812E92
:1046900011E0912E0DE1C02E0EE0D02E88EAE82E1A
:1046A00080E1F82E00E010E0A12CF40181914F018F
:1046B0000E94ED39882309F44CC0D6012D913D911B
:1046C0004D915C91C058DF4F2883C058D040CF57E0
:1046D000DF4F3883C158D040CD57DF4F4883C35890
:1046E000D040CE57DF4F5883C258D0400E948B3AFB
:1046F000F6016083718382839383C058DF4F2881E2
:10470000C058D040CF57DF4F3881C158D040CD5727
:10471000DF4F4881C358D040CE57DF4F5881C25831
:10472000D04003301105A9F00E94CEE59B01AC01F9
:10473000D7016D917D918D919C910E94CFE5F701FC
:104740006083718382839383C8010E942B3CAA24D7
:10475000A3940F5F1F4FF4E0CF0ED11C24E0E20EB4
:10476000F11C0430110509F0A0CFAA2019F00E9415
:10477000403B37C0BB20A9F1C090290ED0902A0E33
:10478000E0902B0EF0902C0E20913E1030913F10B7
:104790004091401050914110C701B6010E946CEE4B
:1047A0000E943CE86093540B7093550B8093560B1A
:1047B0009093570BC701B6010E943BE72FB7F894BF
:1047C0006093630A7093640A8093650A9093660A03
:1047D0002FBF1092440B1092450B1092460B109273
:1047E000470B0E94A6930C94B3340137110509F4CA
:1047F0003CC508F0C3C00033110509F40BC508F02F
:104800005FC00831110509F465C2B0F50231110528
:1048100009F4DAC6A0F40230110508F495C101319B
:10482000110511F00C94B33460E08CE592E00E9425
:104830006D855E985E9815985E980C94B33405313A
:10484000110509F43DC240F40431110511F00C9436
:10485000B334E4E7F2E0F1C10631110509F434C2E2
:104860000731110511F00C94B33440E061E0C70149
:104870000E94D6CB0C94B3340C31110509F475C2E7
:1048800050F40A31110509F430C208F032C2109216
:10489000880B0C94B3340F31110509F4CBC330F4F9
:1048A0000E31110509F468C20C94B33400321105BD
:1048B00009F470C30A32110509F464C40C94B334CA
:1048C0000C35110509F497C630F50135110509F4C9
:1048D0006EC688F40C34110509F4A0C40D3411051A
:1048E00009F4A0C40B34110511F00C94B3340E94E8
:1048F00054C30C94B3340335110509F460C608F4AD
:104900005AC60435110509F45FC60535110509F4C9
:104910005FC60C94B3340C36110509F49EC4D8F468
:104920000936110509F4A9C448F40836110511F037
:104930000C94B3340E94A5710C94B3340A3611055B
:1049400009F431C60B36110511F00C94B3340E94F2
:10495000C9950C94B3340E36110509F467C408F4F4
:1049600094C40F36110509F474C40037110511F011
:104970000C94B3348AE393E00E9492AA023E11059C
:1049800011F40C943C2E08F064C00E3B110509F4A0
:1049900080C430F50737110509F4C8C688F4033719
:1049A000110509F4B5C608F4AFC60537110511F0B5
:1049B0000C94B33460E0C7010E94E8B10C94B334A6
:1049C0000937110509F452C708F449C70C38110515
:1049D00009F44FC40139110509F44EC70C94B334DE
:1049E0000D3C110511F40C94A82DC0F4093C1105DF
:1049F00011F40C94FE2C30F4083C110509F4B3C7F3
:104A00000C94B3340B3C110511F40C94202D0C3C88
:104A1000110511F40C943E2D0C94B334033D110593
:104A200011F40C94132E48F40E3C110511F00C9463
:104A3000B3340E9465940C94B3340C3D110511F409
:104A40000C94162E0D3D110511F40C94232E0C948C
:104A5000B3340A3931E0130709F403C4B8F50F324F
:104A600051E0150711F40C949E2F80F40D3291E063
:104A7000190711F40C948E2E10F00C942D2F0C327B
:104A8000114011F40C94682E0C94B3340039E1E019
:104A90001E0711F40C94633248F40336114011F0F0
:104AA0000C94B334E7E0F3E30C945E34013931E065
:104AB000130711F40C9466320239114011F00C9472
:104AC000B33480E00E943D390C94B334063F51E08A
:104AD000150711F40C941634E8F40C3A91E0190718
:104AE00011F40C94FE3238F4043A114011F40C9491
:104AF0006A320C94B334043FE1E01E0711F40C94C5
:104B00001334053F114011F00C94B3340E94B25C91
:104B10000C94B334033523E0120711F40C942534BC
:104B200038F4073F114011F40C9419340C94B33449
:104B3000003A53E0150709F473C2073E134011F41D
:104B40000C9475340C94B33480E50E94ED398823BD
:104B500059F00E94803A4B015C0111E0672B682BF1
:104B6000692B31F410E004C010E0812C912C540129
:104B700083E50E94ED39882399F00E94B43A4B01F5
:104B80005C0111110FC0672B682B692B59F4D701F9
:104B90008C91882339F061E0C7010E94E8B107C019
:104BA0001123A9F360E08BE492E00E946D8581E01F
:104BB0008093261083E090E09093F50F8093F40F9C
:104BC0000E94756A0E94A13C81149104A104B10461
:104BD000E9F08091F60F9091F70FA091F80FB09146
:104BE000F90F880E991EAA1EBB1E0E94EB7EDC01E7
:104BF000CB0188199909AA09BB09B7FF1AC080918E
:104C000026108823B1F00E94FEAAEFCF80912610D3
:104C1000882319F00E94FEAAF9CF8091880B60E0EA
:104C2000882319F08CE392E002C089E292E00E94AE
:104C30006D85109226100C94B33484918F010F5F10
:104C40001F4F882321F00E94E63CF801F6CF109216
:104C50000E0E10920D0E40E050E0BA0189EB9BE081
:104C60000E940ABA8BE1E9EBFBE0DE0115960190A8
:104C70000D928A95E1F78091B70B9091B80B9C83C8
:104C80008B8381E692E09A83898340E050E0BE0105
:104C90006F5F7F4F8BE293E00E943690CE010196CA
:104CA0000E9480AAE5E6F2E084918F010F5F1F4F1A
:104CB000882311F40C94B3340E94E63CF801F4CF3D
:104CC0000E94E8C00C94B3341092880B1092890BA8
:104CD0000C94B3348091890B882319F081E0809380
:104CE000880B0E9454C30C94B3340E94FC710C9442
:104CF000B3348091890B882351F1E5E8F2E0849187
:104D00008F010F5F1F4F882321F00E94E63CF801BE
:104D1000F6CF6091040E7091050E8091060E909171
:104D2000070E4AE00E94143D8FE20E94E63C60912B
:104D3000000E7091010E8091020E9091030E4AE0D8
:104D40000E94143D8AE00E94E63C0C94B334E7E9EB
:104D5000F2E084918F010F5F1F4F882311F40C94B0
:104D6000B3340E94E63CF801F4CF40E060E0C701B4
:104D70000E94D6CB0C94B3348091890B882311F414
:104D80000C94B33483E59DE00E9433BC83E59DE041
:104D90000E9466BC1092870B1092860BE09047032E
:104DA000F09048038091890B882311F40C94B3345C
:104DB0000E94CBCB1D8218861C821B8281E692E06A
:104DC0009A83898385EB9BE09093D50B8093D40BDA
:104DD000F70180818F3209F068C06FE270E0C7018F
:104DE0000E941DE98C010F5F1F4F9E012F5F3F4FF7
:104DF00049010115110509F45EC06FE270E0C801B8
:104E00000E941DE96C01009709F456C008171907A4
:104E100008F052C05C01A01AB10AA501B801CE0188
:104E200080960E9446E9E0E2F0E0EC0FFD1FEA0DFB
:104E3000FB1D10828E01005E1F4FD8018D918D01E8
:104E4000882319F00E94E63CF8CF8AE00E94E63CF5
:104E50006091D40B7091D50B6115710511F06C5FE9
:104E60007F4F21E0AE01405E5F4FCE0105960E946C
:104E700096BF811112C0BE01605E7F4F8EEC92E042
:104E80000E94ED3C8EE20E94E63C8AE00E94E63CF5
:104E9000C4010E9480AA0C94B3349092D50B8092E6
:104EA000D40B86010F5F1F4FA4CF86ED9BE090933C
:104EB000D50B8093D40B87016091D40B7091D50BE7
:104EC0006115710511F06C5F7F4F18A21BA222E0E3
:104ED000A801CE0180960E9496BF811102C0F12CDC
:104EE00014C0CE0180960E94A48F8823C1F361E094
:104EF000CE0180960E9417BC009789F325EEFC0135
:104F000020831BA20E946F62F82ECE0180960E9421
:104F1000783CFF2009F1E8EAF2E084917F012FEF6D
:104F2000E21AF20A882321F00E94E63CF701F5CF4D
:104F3000D8018D918D01882319F00E94E63CF8CFAD
:104F40008AE00E94E63C1092040E1092050E109228
:104F5000060E1092070E18C0E6EBF2E084917F0176
:104F6000BFEFEB1AFB0A882321F00E94E63CF70111
:104F7000F5CFF80181918F01882319F00E94E63C5A
:104F8000F8CF8EE20E94E63CCE0101960E9480AAF4
:104F90000C94B3348091880B81110E94756A009142
:104FA00047031091480361E270E0C8010E941DE9C7
:104FB000009719F08C010F5F1F4F80E50E94ED39BB
:104FC000882349F0FF24F39480913A0390913B03A6
:104FD0008017910708F0F12C8091890B882311F438
:104FE0000C94B3344F2D61E0C8010E94D6CB83E509
:104FF0000E94ED39882349F080913A0390913B0358
:105000008017910710F40C94D7348091890B882372
:1050100019F081E08093880BF1100C94B33461CEC9
:1050200081E08093870B40E060E0C7010E94D6CB0F
:105030000C94B3340E946E8FBCE3CB2ED12CE12CA8
:10504000F12CA70196010E94FAF1762E672ECA0173
:10505000B901A70196010E94FAF16B017C01CA0116
:10506000B90128E130E040E050E00E94FAF14B0144
:105070005C01C9016DE671E00E9496E58E010F5F4B
:105080001F4F6115710599F06F927F92DF92CF9259
:105090009F928F929F938F937F936F938AE093E079
:1050A0009F938F931F930F930E94D6ED12C000978A
:1050B000B1F06F927F92DF92CF929F928F929F93E7
:1050C0008F938AEF92E09F938F931F930F930E9489
:1050D000D6ED0FB6F894DEBF0FBECDBF36C081143B
:1050E0009104A104B10479F06F927F92DF92CF9284
:1050F0009F928F928EEE92E09F938F931F930F93C8
:105100000E94D6EDE6CFC114D104E104F10469F0A8
:105110006F927F92DF92CF9286EE92E09F938F9371
:105120001F930F930E94D6EDD4CF6F927F9282EEA1
:1051300092E09F938F931F930F930E94D6ED0F9051
:105140000F900F900F900F900F9060E0C8010E9499
:10515000E8B1E0EEF9E284917F01BFEFEB1AFB0AC0
:10516000882321F00E94E63CF701F5CFB8018EE1DB
:1051700093E00E94ED3C8AE00E94E63C0E947E3C67
:105180000C94B33483E50E94ED39882311F40C9418
:10519000B3340E94683A7C018F3F910519F010F0FA
:1051A0000C94B33480E50E94ED39882339F00E94D5
:1051B000683A8C0197FF04C00C94B3340BE110E003
:1051C000D02EE1ECF1E0C801992721913191281707
:1051D000390731F022E0E131F207B9F70C94A0343D
:1051E000E7E0F3E384918F010F5F1F4F882321F0E5
:1051F0000E94E63CF801F6CFEBE2F3E084918F01E8
:105200000F5F1F4F882311F40C94B3340E94E63CC7
:10521000F801F4CF0E944F720C94B3340E94E571F0
:105220000C94B3340E94468E0C94B3348EE40E94E6
:10523000ED39882311F40C94B3340E94753A6093CD
:105240003C0370933D0380933E0390933F030C9483
:10525000B3340E9457950C94B334109209010C9406
:10526000B3340E94E0920C94B3340E942D950C94B8
:10527000B3340E9419950C94B3340E94389810925C
:10528000F50F1092F40F0C949D360E9486960C94A4
:10529000B3348091DA0F83FF02C00C94B33460E022
:1052A00084E593E00E946D8583E50E94ED392896A0
:1052B0008FAF2897811105C082E50E94ED398823C0
:1052C000B1F00E948B3A0E943BE77093CC0A609346
:1052D000CB0A0E945B510E948B3A20E030E040EA0A
:1052E00050E40E942FE8181614F40E9454C381E081
:1052F000809309011092F50F1092F40F80914103F1
:10530000809340032D961CAE1DAE1EAE1FAE2D9792
:1053100027961CAE1DAE1EAE1FAE27971FAE2F9652
:105320001FAE2F973CE32E963FAF2E974CE162962F
:105330004FAF629756E466965FAF6697C12CD12C4B
:10534000F0E8EF2EAFEBFA2E812C912C54016091F6
:10535000CB0A7091CC0A072E000C880B990B0E9487
:105360000DEE162F072F782E692E262F372F482F58
:10537000592FB601C7010E9406EE882339F120910A
:10538000B6033091B7034091B8035091B903612F30
:10539000702F872D962D0E9406EE881F8827881F64
:1053A0008FAF28968FAD28978823A1F09FAD9923C2
:1053B00089F080910901882311F40C94B33460E0E2
:1053C00083E493E00E946D850C94B3341C2D0D2D65
:1053D0007E2C6F2C0E94EB7E6B017C01DC01CB01EB
:1053E00027962CAD3DAD4EAD5FAD2797821B930B3D
:1053F000A40BB50BB7FD47C0D701C60188519C4F20
:10540000AF4FBF4F27968CAF9DAFAEAFBFAF2797C3
:105410000E94FE95E0E5F3E084912F019FEF491A89
:10542000590A882321F00E94E63CF201F5CF81144D
:105430009104A104B104D1F0D501C401805F984D5D
:10544000AF4FBF4FBC01CD016C197D098E099F097B
:1054500028EE33E040E050E00E94FAF1CA01B901C1
:105460000E94993D8AE00E94E63C0DC0EDE4F3E025
:1054700084912F01AFEF4A1A5A0A882321F00E9423
:10548000E63CF201F5CF0E94FEAA0E94A13C2090CA
:10549000B6033090B7034090B8035090B903910120
:1054A000A201612F702F872D962D0E94CEE59F7748
:1054B00081149104A104B10449F420E030E040E8F3
:1054C0005FE30E9406EE87FF0BC008C020E030E0DB
:1054D00040E450E40E942FE8181614F446015701E6
:1054E000BFADBB2309F443C02D962CAD3DAD4EADF1
:1054F0005FAD2D97211531054105510541F0D701CB
:10550000C601821B930BA40BB50BB7FD30C09101F4
:10551000A2012F966FAD2F972E967FAD2E97629694
:105520008FAD629766969FAD66970E94CEE520E0AC
:1055300030E040EC5FE30E9406EE87FD3ACFD701F2
:10554000C601805A9541AF4FBF4F2D968CAF9DAF8E
:10555000AEAFBFAF2D972F962FAE2F972E963FAEA3
:105560002E9762964FAE629766965FAE6697809171
:105570000901882309F41DCF81149104A104B10409
:1055800029F4C12ED02EE72CF62CE1CE90E1C91AD9
:1055900097E2D90AE108F108C818D908EA08FB0817
:1055A000F7FE07CFEECF0E94D8950C94B3340E943B
:1055B00002950C94B334109245030C94B33481E0FB
:1055C000809345030C94B4340E94BE940C94B3347D
:1055D00083E50E94ED39882311F40C94B3340E94C2
:1055E000B43A6093FA0F7093FB0F8093FC0F909383
:1055F000FD0F0C94B3347DEBC72E71E0D72EE2E3A0
:10560000EE2EE0E1FE2E10E0D6018D916D010E949C
:10561000ED39882309F46DC0133009F063C00E948E
:105620008B3A4B015C0120E030E040EA51E40E94FB
:1056300006EE87FF4EC0A501940160913E10709167
:105640003F1080914010909141100E94C9E62B01BB
:105650003C019B01AC0160917E1070917F108091A4
:105660008010909181100E946CEE60937E10709378
:105670007F108093801090938110A301920160911C
:105680006E1070916F1080917010909171100E9447
:105690006CEE60936E1070936F1080937010909307
:1056A00071106091E70F7091E80F8091E90F909170
:1056B000EA0F0E940BEEA30192010E946CEE0E9481
:1056C00042E76093E70F7093E80F8093E90F9093A0
:1056D000EA0F80923E1090923F10A0924010B0923C
:1056E000411007C00E948B3AF70160837183828367
:1056F00093831F5FF4E0EF0EF11C143009F084CFA8
:105700000E9482990C94B3340E94A6930C94B334F3
:10571000E1E6F3E084918F010F5F1F4F882311F4BE
:105720000C94B3340E94E63CF801F4CFE4E4F4E0D6
:1057300084918F010F5F1F4F882321F00E94E63C68
:10574000F801F6CFECE3F4E084918F010F5F1F4F77
:10575000882321F00E94E63CF801F6CF329B03C07B
:1057600003E912E002C008E912E0D8018D918D0131
:10577000882319F00E94E63CF8CF8AE00E94E63CBC
:10578000E4E3F4E084918F010F5F1F4F882321F041
:105790000E94E63CF801F6CF339B03C003E912E018
:1057A00002C008E912E0F80181918F01882319F005
:1057B0000E94E63CF8CF8AE00E94E63CECE2F4E08E
:1057C00084918F010F5F1F4F882321F00E94E63CD8
:1057D000F801F6CF349B03C003E912E002C008E9E8
:1057E00012E0D8018D918D018823A1F10E94E63C41
:1057F000F8CF80E20E94E63C8AE50E94ED398823DA
:1058000011F40C9450340E948B3A6B017C0120E01F
:1058100030E040EA51EC0E942FE887FF02C00C9470
:105820003F3420E030E040EA51E4C701B6010E9475
:1058300006EE181614F40C943F34C0928610D092E1
:105840008710E0928810F092891042E0C701B601FB
:105850000E94FF408AE00E94E63C0C94B33481E051
:105860008093940180937E050C94B434109294013B
:1058700010927E050C94B33483E50E94ED398823A1
:10588000F9F00E94683A182F8230D8F0E7E0F3E38D
:1058900084918F010F5F1F4F882321F00E94E63C07
:1058A000F801F6CFEEE5F4E084918F010F5F1F4F12
:1058B000882311F40C94B3340E94E63CF801F4CF31
:1058C00010E088E40E94ED398823B1F00E94683A24
:1058D000E12FF0E08A3A91053CF08530B1E09B077A
:1058E0002CF084E091E002C08AEA90E0EE0FFF1F06
:1058F000EF52F54F9183808386E40E94ED3988232F
:10590000A1F00E94683AE12FF0E0EE0FFF1FEB528A
:10591000F54F8F3F910519F014F08FEF90E097FF4E
:1059200002C080E090E09183808382E40E94ED39A0
:10593000882311F40C94B3340E94683AE12FF0E00C
:105940008530910534F0883891052CF087E890E097
:1059500002C085E090E0EE0FFF1FE353F54F918307
:1059600080830C94B33488EC90E00E94BE40811197
:105970000C94B33484E40E94ED39882311F40C9420
:10598000B3340E948B3A11E020E030E0A9010E947C
:1059900006EE811101C010E01093D112112359F1CC
:1059A0000091400310E00E948B3A000F111F000F7E
:1059B000111FF801E155FE4F608371838283938349
:1059C00020E030E0A9016091AF017091B0018091B9
:1059D000B1019091B2010E9406EE81110CC080E0ED
:1059E00090E0A0E4B0E48093AF019093B001A09365
:1059F000B101B093B2010E943DA7B5C79AE4E92E68
:105A000090E1F92E0DEB11E024E0D22ED00EF8013A
:105A100081918F010E94ED39882351F00E948B3AC9
:105A20000E9442E7D7016D937D938D939C931397CA
:105A3000B4E0EB0EF11CD012EACF0E94559893C748
:105A400012E6E12E10E1F12E0DEB11E084E0D82EEC
:105A5000D00EF80181918F010E94ED39882341F029
:105A60000E948B3AD7016D937D938D939C931397EE
:105A7000B4E0EB0EF11CD012ECCF75C783E50E94A9
:105A8000ED398823D9F00E948B3AAB01BC014093D9
:105A9000821050938310609384107093851040930C
:105AA00042105093431060934410709345108AED58
:105AB00094E00E941B438AE00E94E63C80E50E943D
:105AC000ED39882399F00E948B3AAB01BC014093D9
:105AD00082105093831060938410709385108DEB27
