:100000000C94B0190C94DA190C94DA190C94DA19CE
:100010000C94DA190C94DA190C94DA190C94DA1994
:100020000C94DA190C94DA190C94DA190C94DA1984
:100030000C94DA190C94D7650C94DA190C94DA192B
:100040000C94DA190C948AD00C9492770C94DA19E7
:100050000C949B480C94DA190C94DA190C94DA1964
:100060000C94DA190C94DA190C94DA190C94DA1944
:100070000C94DA190C94DA190C94DA190C94DA1934
:100080000C94DA190C94DA190C94DA1901770677C2
:100090000B771577437743771F7727772F77397754
:1000A000E8A5EBA5DEA5E2A502A602A6EFA5F3A5AD
:1000B000F9A5FDA5DBD0EAD009D118D133D138D1CB
:1000C0003BD140D143D148D14BD150D15AD1084A2C
:1000D000D73B3BCE016E84BCBFFDC12F3D6C74315C
:1000E0009ABD56833DDA3D00C77F11BED9E4BB4CB3
:1000F0003E916BAAAABE000000803F05A84CCDB27D
:10010000D44EB93836A9020C50B9918688083CA65D
:10011000AAAA2ABE000000803F00434F4D4D554E15
:1001200049434154494F4E0044525952554E00459F
:1001300052524F525300494E464F004543484F00DC
:1001400020746F6F206C6F6E6720657874727573A2
:10015000696F6E2070726576656E7465640A002042
:10016000636F6C6420657874727573696F6E20704C
:10017000726576656E7465640A0047322F473320D6
:1001800062616420706172616D65746572730A00EA
:10019000536C6565702E2E2E00205A3A200020598F
:1001A0003A200042656420583A20004D616C796124
:1001B0006E204D3135302072656164792E005265B4
:1001C00073756D696E67207072696E74005761692E
:1001D0007420666F7220757365722E2E2E004E6F1E
:1001E000206D6F76652E00456E642066696C652013
:1001F0006C6973740A00426567696E2066696C6594
:10020000206C6973740A005344207072696E7469BB
:100210006E67206279746520004E6F74205344200D
:100220007072696E74696E670A0046696C65206455
:10023000656C657465643A0044656C6574696F6EDD
:10024000206661696C65642C2046696C653A200003
:100250006F70656E206661696C65642C2046696C00
:10026000653A20002569730025696D2025697300B2
:100270002569682025696D2025697300256964203A
:100280002569682025696D20256973002569792015
:10029000256964202569682025696D20256973001A
:1002A0005072696E742074696D653A200050726FE7
:1002B0007465637465642050696E0A0048656174F2
:1002C000696E672E2E2E004D616C79616E204D3166
:1002D00035302072656164792E003B0136012F01B3
:1002E00028011A016F66660044454255473A004BA3
:1002F000494C4C45442E20004D3131332053006F82
:100300006B0048656174696E6720646F6E652E00CE
:100310003F0A0020573A0048656174696E672E2EC7
:100320002E004D616C79616E204D31353020726543
:100330006164792E0042656420646F6E652E003F13
:100340000A0020573A004265642048656174696E6E
:10035000672E004D616C79616E204D313530204F34
:1003600066662E004649524D574152455F4E414DFB
:10037000453A4D61726C696E20312E312E302D520E
:1003800043382042756746697820362044656320EB
:100390003230313620284769746875622920534FFE
:1003A000555243455F434F44455F55524C3A68743C
:1003B0007470733A2F2F6769746875622E636F6D5E
:1003C0002F4D61726C696E4669726D776172652F2F
:1003D0004D61726C696E2050524F544F434F4C5FC9
:1003E00056455253494F4E3A312E30204D414348E5
:1003F000494E455F545950453A4D616C79616E20C4
:100400004D3135302045585452554445525F434F85
:10041000554E543A3120555549443A636564653226
:100420006132662D343161322D343734382D3962E2
:1004300031322D6335356336326633363766660AB8
:10044000007A5F6D696E3A2000795F6D696E3A20BF
:1004500000785F6D696E3A20005265706F72746942
:100460006E6720656E6473746F7020737461747549
:10047000730A004D31343520533C696E6465783E13
:10048000206F7574206F662072616E67652028305A
:100490002D31290A0043290A0061626C6564202815
:1004A0006D696E2074656D702000436F6C6420650B
:1004B00078747275646573206172652000236465C9
:1004C00066696E65202044454641554C545F4B6437
:1004D000200023646566696E6520204445464155C9
:1004E0004C545F4B69200023646566696E6520206B
:1004F00044454641554C545F4B70200050494420C0
:100500004175746F74756E652066696E6973686590
:1005100064212050757420746865206C61737420A8
:100520004B702C204B6920616E64204B6420636FFC
:100530006E7374616E74732066726F6D2062656C89
:100540006F7720696E746F20436F6E66696775728E
:100550006174696F6E2E680A0050494420417574B9
:100560006F74756E65206661696C656421207469BD
:100570006D656F75740A00504944204175746F743D
:10058000756E65206661696C6564212054656D70C7
:100590006572617475726520746F6F206869676831
:1005A0000A00204B643A2000204B693A2000204B7F
:1005B000703A20000A20436C6173736963205049CC
:1005C00044200A002054753A2000204B753A200040
:1005D000206D61783A2000206D696E3A2000206419
:1005E0003A200020626961733A2000426564204C21
:1005F0006576656C696E6720004661696C6564208C
:10060000746F20656E61626C6520426564204C6584
:1006100076656C696E670A004F6666736574732051
:100620006170706C696564004572723A20546F6F36
:10063000206661722100546F6F20666172206672BD
:100640006F6D207265666572656E636520706F6997
:100650006E740A003A20007A5F6D61783A20007A61
:100660005F6D696E3A20005A204F666673657400AC
:100670004E6F2063617365206C696768740A00417E
:1006800063746976652045787472756465723A2082
:1006900000556E6B6E6F776E20636F6D6D616E646B
:1006A0003A2022004E6F204C696E65204E756D62B7
:1006B0006572207769746820636865636B73756D14
:1006C0002C204C617374204C696E653A20004B49B4
:1006D0004C4C45442E200053544F505045442E203E
:1006E000005072696E7465722073746F7070656407
:1006F0002064756520746F206572726F72732E208E
:1007000046697820746865206572726F7220616E28
:100710006420757365204D39393920746F207265F6
:1007200073746172742E202854656D7065726174E3
:100730007572652069732072657365742E20536528
:1007400074206974206166746572207265737461C7
:100750007274696E67290A004E6F20436865636B87
:1007600073756D2077697468206C696E65206E758D
:100770006D6265722C204C617374204C696E653A11
:100780002000636865636B73756D206D69736D61BF
:100790007463682C204C617374204C696E653A2038
:1007A000004C696E65204E756D626572206973201C
:1007B0006E6F74204C617374204C696E65204E75A9
:1007C0006D6265722B312C204C617374204C696E04
:1007D000653A20004D313130004D3331004D383411
:1007E00020582059205A20450053442072656164E6
:1007F000206572726F720A00446F6E6520707269B4
:100800006E74696E672066696C650A0020496E76B1
:10081000616C69642065787472756465722000008B
:1008200000484300005C4300003443000000000027
:1008300000000000000000205A3A200020593A2011
:100840000042656420583A20005A2070726F626539
:10085000206F75742E206265640A005A2070726FD2
:100860006265206F75742E206265640047323820FF
:100870005A20466F7262696464656E0A00473238B6
:10088000205A20466F7262696464656E0020706F42
:10089000736974696F6E206F7574206F6620726162
:1008A0006E67652E0A003F50726F626520002575E5
:1008B0003A2530327500253032753A2530327500D0
:1008C00025756420253032753A25303275005A007E
:1008D000590058000920000000000000000000003E
:1008E0000000007FFFE000000000000000000000AA
:1008F00000007000E00000000000000000000000A8
:100900000061F8600000000000000000000000002E
:1009100041F820000000000000000000000000403E
:10092000F020000000000000000000000000406017
:10093000200000000000000000000000005801A09E
:100940007F80000000000000004104005C63A0FF05
:10095000C0000000000000002082005EF7A0FFC081
:10096000000000000000002082005EF7A0FFC00031
:100970000000000000004104005C63A07F800000D4
:1009800000000000008208005801A07F80000000E5
:1009900000000001041000406020FFC000000000C3
:1009A00000000104100040F020FFC0000000000023
:1009B000000082080041F820FFC000000000000095
:1009C0000041040061F8603F0000000000000000EA
:1009D0000000007000E01E0000000000000001FFA9
:1009E000FF807FFFE00C0000000000000001FFFF1F
:1009F0008000000000000000000000000000000077
:100A00007FFFE00000000000000000000000007018
:100A100000E0000000000000000000000000630C87
:100A200060000000000000000000000000470E20F1
:100A30000000000000000000000000004F0F200038
:100A400000000000000000000000005F0FA0000098
:100A5000000000000000000000005E07A07F800092
:100A6000000000000000410400406020FFC00000C2
:100A7000000000000020820040F020FFC0000000C5
:100A80000000000020820040F020FFC000000000B5
:100A90000000004104004060207F80000000000052
:100AA00000008208005E07A07F80000000000000B8
:100AB000010410005F0FA0FFC00000000000000153
:100AC0000410004F0F20FFC0000000000000008253
:100AD0000800470E20FFC000000000000000410495
:100AE00000630C603F0000000000000000000000F8
:100AF0007000E01E0000000000000001FFFF807F8A
:100B0000FFE00C0000000000000001FFFF8000007B
:100B100000496E69742E2053442063617264004E54
:100B20006F2053442063617264004D32310043688A
:100B3000616E67652053442063617264005072697E
:100B40006E742066726F6D2053440053746F702072
:100B50007072696E74004D323100526573756D6547
:100B6000207072696E7400506175736520707269CF
:100B70006E7400436F6E74726F6C005072657061BA
:100B800072650054756E6500496E666F20736372FE
:100B900065656E0000060900FE0000000000010906
:100BA0000008FE000005080806000040F0C888881C
:100BB000987810050808060000C0F888888888889A
:100BC000F80505050600012030F830200508080664
:100BD00000002070F820202020E00509090600FF11
:100BE0002070A8A8B8888870200509090600FFE0D1
:100BF00080C0B0A8283028280509090600FFF8A8F9
:100C00008888888888A8F8050A0A0600FE205050BF
:100C1000505088A8A8887003030306000340A04032
:100C200053442063617264206F6B0A006F70656EBD
:100C3000526F6F74206661696C65640A00766F6C30
:100C4000756D652E696E6974206661696C65640AEC
:100C500000534420696E6974206661696C0A006102
:100C600075746F25692E67004D3234004D32332084
:100C700025730057726974696E6720746F20666906
:100C80006C653A20006F70656E206661696C656402
:100C90002C2046696C653A20006F70656E20666195
:100CA000696C65642C2046696C653A200046696C65
:100CB000652073656C65637465640A002053697A06
:100CC000653A200046696C65206F70656E65643A10
:100CD00020006F70656E206661696C65642C20462B
:100CE000696C653A20002066696C653A20004E6F99
:100CF0007720002220706F73002220706172656E71
:100D0000743A2200535542524F5554494E452043A0
:100D1000414C4C207461726765743A22004B494C17
:100D20004C45442E2000747279696E6720746F20E0
:100D300063616C6C207375622D67636F64652066F8
:100D4000696C6573207769746820746F6F206D61BA
:100D50006E79206C6576656C732E204D4158206C41
:100D60006576656C2069733A004572726F723A005D
:100D7000466C6F7700466C6F770046616E2073702B
:100D80006565640046616E20737065656400426548
:100D90006400426564004E6F7A7A6C65004E6F7A2B
:100DA0007A6C650053706565640053706565640016
:100DB0004D61696E005072656865617420504C41E8
:100DC00020426564005072656865617420504C4132
:100DD000005072657061726500507265686561747B
:100DE0002041425320426564005072656865617419
:100DF000204142530050726570617265004D34327B
:100E00003800436F6F6C646F776E00507265686571
:100E100061742041425300507265686561742050CE
:100E20004C41004D38340044697361626C65207335
:100E3000746570706572730053657420686F6D65BA
:100E4000206F666673657473004732380A4732391B
:100E500000473239004C6576656C20626564004756
:100E60003238004175746F20686F6D65004D6F7684
:100E7000652061786973004D61696E004D6F76651C
:100E80002058004D6F76652059004D6F7665205AC9
:100E9000004578747275646572004D6F7665203018
:100EA0002E316D6D004D6F766520316D6D004D6F8B
:100EB00076652031306D6D004D6F76652061786903
:100EC00073004578747275646572004D6F766520A5
:100ED0005A004D6F76652059004D6F766520580099
:100EE00024F4D43050C38E20C2A24017828B7011DC
:100EF000127A910D816CD90AA861E108C75866077A
:100F0000615143061E4B5D05C145A7041A411104FA
:100F1000093D9803713931034036DB026533910294
:100F2000D4305402802E1D02632CEE01752AC501B7
:100F3000B028A001102781018F2564012B244B01CB
:100F4000E0223401AC211F018D200D01801FFC0027
:100F5000841EED00971DDF00B81CD200E61BC60002
:100F6000201BBC00641AB200B219A8000A19A00024
:100F70006A189900D117910040178B00B5168400AC
:100F800031167E00B31579003A157300C7146F004F
:100F900058146A00EE1366008813630025135E0080
:100FA000C7125B006C12570015125400C11151009A
:100FB00070114F0021114B00D61049008D104700D1
:100FC0004610440002104200C00F4000800F3E0057
:100FD000420F3C00060F3B00CB0E3800930E37004B
:100FE0005C0E3500270E3400F30D3200C10D3100C8
:100FF000900D3000600D2E00320D2D00050D2C00DF
:10100000D90C2B00AE0C2900850C29005C0C2700A4
:10101000350C27000E0C2600E80B2400C40B24001E
:10102000A00B23007D0B23005A0B2100390B21005C
:10103000180B2000F80A1F00D90A1E00BB0A1E0068
:101040009D0A1D00800A1D00630A1C00470A1B0040
:101050002C0A1B00110A1A00F7091A00DD091900F1
:10106000C4091900AB091900920917007B0918007F
:10107000630917004C0916003609160020091600EE
:101080000A091500F5081500E0081400CC08140042
:10109000B8081400A4081400900813007D0812007A
:1010A0006B0813005808120046081200340811009B
:1010B000230811001208110001081100F0071000A8
:1010C000E0071000D0071000C0071000B0070F00A5
:1010D000A107100091070E0083070F0074070F008F
:1010E00065070E0057070E0049070E003B070D006D
:1010F0002E070E0020070D0013070D0006070D0038
:10110000F9060C00ED060D00E0060C00D4060C00FC
:10111000C8060C00BC060C00B0060C00A4060B00B0
:1011200099060C008D060B0082060B0077060B005B
:101130006C060B0061060A0057060B004C060A00FD
:1011400042060A0038060A002E060A0024060A0093
:101150001A060A001006090007060A00FD05090024
:10116000F4050900EB050900E2050900D9050900AD
:10117000D0050900C7050900BE050900B50508002E
:10118000AD050800A50509009C05080094050800A8
:101190008C050800840508007C050800740508001B
:1011A0006C050700650508005D0507005605080089
:1011B0004E050700470507004005080038050700F1
:1011C000310507002A050700230507001C05060056
:1011D000160507000F0507000805060002050700B1
:1011E000FB040600F5040700EE040600E804060010
:1011F000E2040700DB040600D5040600CF04060065
:10120000C9040600C3040600BD040600B7040600B6
:10121000B1040500AC040600A6040600A004050005
:101220009B04060095040500900406008A0405004E
:1012300085040500800406007A0405007504050095
:10124000700405006B0405006604050061040500D8
:101250005C04050057040500520405004D04050018
:1012600048040500430405003E0404003A04050058
:1012700035040500300404002C0405002704040094
:10128000230405001E0404001A04040016040500CB
:10129000110404000D040400090405000404040002
:1012A00000040400FC030400F8030400F403040039
:1012B000F0030400EC030400E8030400E40304006A
:1012C000E0030400DC030400D8030400D40304009A
:1012D000D0030400CC030400C8030300C5030300CB
:1012E00024F404D9201BC40C5C0E9804C4095F02CA
:1012F00065077101F405F900FB04B3004804870099
:10130000C10369005803550003034500BE023A00BB
:101310008402310053022A00290225000402200021
:10132000E4011C00C8011900AF0117009801140066
:1013300084011300710110006101100051010E00C1
:1013400043010D0036010B002B010B0020010B00A7
:10135000150109000C01090003010800FB00080049
:10136000F3000800EB000700E4000600DE000600C2
:10137000D8000600D2000600CC000500C70005001A
:10138000C2000500BD000400B9000400B50004005F
:10139000B1000400AD000400A9000400A500030092
:1013A000A20003009F0004009B00030098000300BC
:1013B0009500020093000300900003008D000200DE
:1013C0008B000300880002008600020084000300F6
:1013D000810002007F0002007D0002007B0002000D
:1013E000790002007700010076000200740002001C
:1013F00072000100710002006F0002006D00010028
:101400006C0002006A000100690002006700010030
:101410006600010065000100640002006200010036
:1014200061000100600001005F0002005D0001003A
:101430005C0001005B0001005A000100590001003E
:10144000580001005700010056000100550001003E
:10145000540001005300000053000100520001003D
:1014600051000100500001004F0001004E0000003B
:101470004E0001004D0001004C0001004B00000037
:101480004B0001004A000100490001004800000033
:10149000480001004700010046000000460001002E
:1014A0004500000045000100440001004300000029
:1014B0004300010042000000420001004100000022
:1014C00041000100400001003F0000003F0001001A
:1014D0003E0000003E0001003D0000003D00010014
:1014E0003C0000003C0000003C0001003B0000000C
:1014F0003B0001003A0000003A0001003900000002
:1015000039000100380000003800000038000100F8
:1015100037000000370001003600000036000000F0
:1015200036000100350000003500000035000100E4
:1015300034000000340000003400010033000000DB
:1015400033000000330001003200000032000000D0
:1015500032000100310000003100000031000100C4
:101560003000000030000000300001002F000000BB
:101570002F0000002F0000002F0001002E000000AF
:101580002E0000002E0001002D0000002D000000A4
:101590002D0000002D0001002C0000002C00000098
:1015A0002C0000002C0001002B0000002B0000008C
:1015B0002B0000002B0001002A0000002A00000080
:1015C0002A0000002A000100290000002900000074
:1015D0002900000029000000290001002800000067
:1015E000280000002800000028000000280001005A
:1015F000270000002700000027000000270000004F
:101600002700010026000000260000002600000040
:101610002600000026000100250000002500000033
:101620002500000025000000250000002500010025
:10163000240000002400000024000000240000001A
:10164000240001002300000023000000230000000C
:1016500023000000230000002300000023000100FD
:1016600022000000220000002200000022000000F2
:1016700022000000220001002100000021000000E3
:1016800021000000210000002100000021000000D6
:1016900021000100200000002000000020000000C8
:1016A00020000000200000002000000020000000BA
:1016B000200001001F0000001F0000001F000000AC
:1016C0001F0000001F0000001F0000001F0001009D
:1016D0001E0000001E0000001E0000001E00000092
:1016E0004D383420582059205A2045006265640A3C
:1016F000002C2073797374656D2073746F7070653E
:101700006421204865617465725F49443A2000484D
:10171000656174696E67206661696C65640048651F
:101720006174696E67206661696C65640048656113
:1017300074696E67206661696C65640048656174F0
:10174000696E67206661696C6564007C3C3E5E2B57
:101750003D3F2F5B5D3B2C2A225C0000060900FE0A
:10176000070192032120FFFF08FF07FF000000068A
:10177000000001070706020080808080800080034F
:101780000202060105A0A00507070600005050F858
:1017900050F850500507070600002078A07028F088
:1017A00020050707060000C0C8102040981805074C
:1017B000070600006090A040A8906802030306019D
:1017C00004C040800307070601002040808080405D
:1017D00020030707060100804020202040800505E7
:1017E0000506000120A870A82005050506000120B7
:1017F00020F820200203030602FFC04080050101FB
:10180000060003F8020202060200C0C00505050634
:101810000001081020408005070706000070888836
:101820008888887003070706010040C04040404098
:10183000E0050707060000708808708080F805073B
:1018400007060000F81020100808F005070706003A
:101850000010305090F81010050707060000F880BF
:10186000F008088870050707060000708080F0887F
:101870008870050707060000F808102020202005C2
:1018800007070600007088887088887005070706BB
:10189000000070888878080870020505060200C0FC
:1018A000C000C0C00206060602FFC0C000C04080E3
:1018B00004070706000010204080402010050303A5
:1018C000060002F800F80407070601008040201017
:1018D00020408005070706000070880810200020BF
:1018E00005070706000070880868A8A870050707A4
:1018F000060000708888F8888888050707060000B9
:10190000F08888F08888F005070706000070888056
:1019100080808870050707060000F088888888881E
:10192000F0050707060000F88080F08080F80507C2
:1019300007060000F88080F0808080050707060019
:1019400000708880B88888700507070600008888BE
:1019500088F88888880107070602008080808080D8
:1019600080800507070600003810101010906005F1
:1019700007070600008890A0C0A09088050707060A
:101980000000808080808080F805070706000088BE
:10199000D8A8888888880507070600008888C8A80E
:1019A00098888805070706000070888888888870EE
:1019B000050707060000F08888F08080800507078B
:1019C00006000070888888A8906805070706000050
:1019D000F08888F0A09088050707060000788080CE
:1019E000700808F0050707060000F82020202020D6
:1019F0002005070706000088888888888870050702
:101A00000706000088888888885020050707060098
:101A1000008888888888A8500507070600008888FD
:101A200050205088880507070600008888885020C5
:101A30002020050707060000F80810204080F80362
:101A40000707060100E08080808080E0050505062C
:101A500000018040201008030707060100E0202055
:101A6000202020E005030306000420508805010122
:101A7000060000F802020206020580400505050680
:101A8000000070087888780507070600008080B09D
:101A9000C88888F0050505060000708080887005FC
:101AA0000707060000080868988888780505050675
:101AB00000007088F880700507070600003048E0D5
:101AC000404040400506060600FF70888878087090
:101AD0000507070600008080B0C8888888010707CE
:101AE000060200800080808080800308080601FFD5
:101AF000200020202020A04004070706000080804E
:101B000090A0C0A090030707060100C040404040DD
:101B100040E0050505060000D0A8A8A8A805050511
:101B2000060000B0C8888888050505060000708892
:101B30008888700506060600FFF08888F08080051A
:101B400006060600FF78888878080805050506005F
:101B500000B0C88080800505050600007080700810
:101B6000F00407070600004040E040404030050513
:101B70000506000088888898680505050600008825
:101B8000888850200505050600008888A8A850050B
:101B9000050506000088502050880506060600FF4F
:101BA000888888780870050505060000F810204030
:101BB000F80307070601002040408040402001074D
:101BC000070602008080808080808003070706016E
:101BD00000804040204040800502020600026890DC
:101BE00000000006000000000006000000000006E3
:101BF00000000000000600000000000600000000D9
:101C000000060000000000060000000000060000C2
:101C100000000006000000000006000000000006B2
:101C200000000000000600000000000600000000A8
:101C30000006000000000006000000000006000092
:101C40000000000600000000000600000000000682
:101C50000000000000060000000000060000000078
:101C60000006000000000006000000000006000062
:101C70000000000600000000000600000000000652
:101C80000000000000060000000000060000000048
:101C90000006000000000006000000000006000032
:101CA0000000000600000000000600000107070613
:101CB00002008000808080808005070706000020E9
:101CC00070A8A0A87020050707060000304040E07B
:101CD0004050A8050505060000887050708805076B
:101CE00007060000885020F820F8200107070602A8
:101CF0000080808000808080050808060000304851
:101D0000205050209060030101060107A00507073D
:101D1000060000F888B8B8B888F80507070600017B
:101D2000700878887800F80505050600012850A09D
:101D30005028050303060001F80808020202060203
:101D4000064080050707060000F888A88898A8F8CC
:101D5000050101060006F8040404060003609090E3
:101D6000600507070600002020F8202000F8040581
:101D70000506000360902040F0030505060003E01F
:101D800020E020E002020206020640800508080664
:101D900000FF8888888898E880800507070600008B
:101DA00078989878181818020202060202C0C00239
:101DB00002020602FF408003050506000340C04002
:101DC00040E0050707060001708888887000F80564
:101DD0000505060001A0502850A0050707060000D1
:101DE0008890A858B808080507070600008890B82A
:101DF00048982038050808060000C040C048D83878
:101E000008080507070600002000204080887005AC
:101E100008080600004020007088F8888805080837
:101E20000600001020007088F88888050808060061
:101E3000002050007088F8888805080806000068AF
:101E400090007088F8888805080806000050007027
:101E50008888F888880508080600002050207088C7
:101E6000F888880507070600003860A0B8E0A0B829
:101E70000508080600FF70888080887020600508CB
:101E800008060000402000F880F080F805080806E9
:101E90000000081000F880F080F80508080600002F
:101EA000205000F880F080F8050707060000500079
:101EB000F880F080F8030808060100804000E04048
:101EC0004040E0030808060100204000E040404098
:101ED000E003080806010040A000E0404040E003A5
:101EE0000707060100A000E0404040E005070706A4
:101EF0000000704848E84848700508080600006877
:101F0000900088C8A898880508080600004020703E
:101F10008888888870050808060000102070888866
:101F2000888870050808060000205000708888889E
:101F300070050808060000689000708888887005A1
:101F4000080806000050007088888888700505051C
:101F500006000188502050880508080600FF107010
:101F6000A8A8A8A870400508080600004020888896
:101F700088888870050808060000102088888888EE
:101F8000887005080806000020500088888888703E
:101F900005080806000050008888888888700508B1
:101FA000080600001020885020202020050909067E
:101FB00000FFC040704848704040E0040808060137
:101FC000FF609090A09090E0800508080600004017
:101FD00020007008788878050808060000102000A6
:101FE00070087888780508080600002050007008FE
:101FF00078887805080806000068900070087888DE
:1020000078050707060000500070087888780508F2
:10201000080600002050207008788878050606061B
:102020000000D02878A0A8500506060600FF7080A2
:10203000887020600508080600004020007088F8BD
:1020400080700508080600001020007088F8807075
:102050000508080600002050007088F88070050709
:102060000706000050007088F88070030808060119
:102070000080400040C04040E00308080601002006
:10208000400040C04040E003080806010040A000B6
:1020900040C04040E0030707060100A00040C040E8
:1020A00040E0050707060000A040A01078887005F2
:1020B0000808060000689000B0C8888888050808ED
:1020C0000600004020007088888870050808060017
:1020D000001020007088888870050808060000201D
:1020E0005000708888887005080806000068900015
:1020F000708888887005070706000050007088887F
:1021000088700505050600012000F8002005070776
:102110000600FF1070A8A8A8704005080806000077
:10212000402000888888986805080806000010206C
:1021300000888888986805080806000020500088F4
:1021400088889868050707060000500088888898E6
:10215000680509090600FF102000888888F80870C3
:102160000407070601FFC04060506040E005080812
:102170000600FF50008888887808703F2856296537
:1021800072626F7365204C6576656C206973206997
:102190006D706C61757369626C652028302D34290F
:1021A0002E0A005374616E6461726420446576691E
:1021B0006174696F6E3A20002052616E67653A2043
:1021C00000204D61783A2000204D696E3A20004D84
:1021D00065616E3A200046696E6973686564210026
:1021E0002072616E67653A2000206D61783A2000A8
:1021F000206D696E3A2000207369676D613A200096
:10220000206D65616E3A20003A207A3A2000206FF6
:10221000662000205A00205900205800476F696E40
:102220006720746F3A00436C6F636B776973650A5C
:1022300000436F756E7465722D002044697265638A
:1022400074696F6E3A2000202020616E676C653AD9
:1022500020005374617274696E67207261646975DD
:10226000733A2000506F736974696F6E696E6720EE
:102270007468652070726F62652E2E2E0A003F4EC4
:10228000756D626572206F66206C65677320696E7C
:10229000206D6F76656D656E74206E6F7420706C46
:1022A00061757369626C652028302D3135292E0ADD
:1022B00000590058003F53616D706C652073697A56
:1022C00065206E6F7420706C61757369626C652037
:1022D00028342D3530292E0A004D3438205A2D50FF
:1022E000726F6265205265706561746162696C69C4
:1022F000747920546573740A003F566572626F7377
:1023000065204C6576656C206E6F7420706C61750D
:102310007369626C652028302D34292E0A004578B7
:10232000747275646572004D6F7665205A004D6F4A
:1023300076652059004D6F766520580050726570A3
:1023400061726500526573746F7265206661696CB5
:1023500073616665004C6F6164206D656D6F7279A5
:102360000053746F7265206D656D6F7279004669F8
:102370006C616D656E74004D6F74696F6E005465AD
:102380006D7065726174757265004D61696E0050A3
:102390007265686561742041425320636F6E660008
:1023A0005072656865617420504C4120636F6E66A1
:1023B000005049442D44005049442D4400504944A4
:1023C0002D49005049442D49005049442D5000509A
:1023D00049442D50002008204661637400200820E5
:1023E00046616374002008204D6178002008204D6C
:1023F0006178002008204D696E002008204D696E2C
:10240000004F6666004F6E20004175746F74656DF5
:10241000700046616E2073706565640046616E20D1
:1024200073706565640042656400426564004E6FC8
:102430007A7A6C65004E6F7A7A6C6500436F6E74C1
:10244000726F6C0053746F7265206D656D6F727979
:102450000042656400426564004E6F7A7A6C6500E4
:102460004E6F7A7A6C650046616E207370656564A4
:102470000046616E2073706565640054656D70651B
:102480007261747572650070012C0190012701B0B2
:10249000012201C0011D01F00118011002130130D9
:1024A000020E016002090190020401C002FF000057
:1024B00003FA004003F5008003F000D003EB002096
:1024C00004E6007004E100E004DC004005D700C031
:1024D00005D2004006CD00D006C8008007C30030FA
:1024E00008BE00F008B900C009B400B00AAF00B0DF
:1024F0000BAA00D00CA500000EA000500F9B00C03E
:102500001096005012910000148C00C0158700B086
:10251000178200B0197D00D01B7800001E730040A8
:10252000206E0090226900F024640040275F009034
:10253000295A00E02B5500102E500020304B00107F
:10254000324600E033410090353C001037370070D0
:10255000383200A0392D00B03A2800A03B2300609B
:102560003C1E00103D1900903D1400103E0F0070FD
:102570003E0A00C03E0500003F0000403FFBFF80D8
:102580003FF6FFC03FF1FF43616E6E6F74206F70C6
:10259000656E2073756264697220002066697273CB
:1025A00074005A0059005800486F6D65200020667D
:1025B000697273740A005A0059005800486F6D65BB
:1025C00020006563686F3A0020746F6F206C6F6E37
:1025D0006720657874727573696F6E2070726576A6
:1025E000656E7465640A0020636F6C64206578749E
:1025F000727573696F6E2070726576656E7465644E
:102600000A0000002100240027002A000000220008
:10261000250028002B0000002000230026002900B0
:10262000020202020202020204040404040404047A
:10263000030303030303030301010101010101017A
:10264000010204081020408001020408102040808C
:10265000010204081020408080402010080402017C
:10266000000000010200090A00000000040308073E
:10267000000000000000000000000000000000005A
:102680004B494C4C45442E2000202D20496E76614C
:102690006C6964206578747275646572206E756DFE
:1026A00062657220210A002020506C616E6E657296
:1026B00042756666657242797465733A20002046F9
:1026C000726565204D656D6F72793A2000436F6DBC
:1026D00070696C65643A204A616E20323420323071
:1026E00031370A00207C20417574686F723A2028C7
:1026F00042696F6E6963626F6E65290A003230311C
:10270000362D31322D30362031323A303000204CE7
:1027100061737420557064617465643A2000312ED1
:10272000312E302D52433820427567466978203665
:102730002044656320323031360A004D61726C6985
:102740006E0020536F667477617265205265736501
:10275000740A00205761746368646F672052657360
:1027600065740A002042726F776E206F7574205274
:10277000657365740A002045787465726E616C201B
:1027800052657365740A00506F77657255700A0060
:1027900073746172740A006572726F722077726965
:1027A00074696E6720746F2066696C650A00456EF7
:1027B0006473746F70732025632025632025632064
:1027C000256300205A3A0020593A0020583A006503
:1027D0006E6473746F7073206869743A2000446F7C
:1027E0006E6520736176696E672066696C652E0A76
:1027F000004D3239004572726F72207772697469C8
:102800006E6720746F20454550524F4D210A0020BD
:102810006279746573290A0053657474696E67730D
:102820002053746F726564202800454550524F4D07
:1028300020636865636B73756D206D69736D61747A
:1028400063680A00206279746573290A0020737432
:102850006F7265642073657474696E677320726546
:10286000747269657665642028002042403A002031
:10287000403A00202F0020423A00202F0020543AF6
:1028800000205A3A0020593A0020436F756E742098
:10289000583A200020453A00205A3A0020593A0080
:1028A000583A0053657474696E6720547261766596
:1028B0006C20416363656C65726174696F6E3A2068
:1028C0000053657474696E67205265747261637435
:1028D00020416363656C65726174696F6E3A2000B4
:1028E00053657474696E67205072696E7420416319
:1028F00063656C65726174696F6E3A20005365742C
:1029000074696E67205072696E7420616E64205421
:10291000726176656C20416363656C657261746990
:102920006F6E3A2000205A00205900580020204D98
:1029300061783A2000205A00205900580020204D8C
:10294000696E3A20004F6E20004F666600536F6636
:102950007420656E6473746F70733A200020643A5B
:102960000020693A0020703A006F6B00627573793D
:102970003A2070617573656420666F7220696E70AD
:1029800075740A00627573793A20706175736564B5
:1029900020666F7220757365720A00627573793AEA
:1029A0002070726F63657373696E670A004B494CE0
:1029B0004C45442E2000506C656173652072657330
:1029C0006574005052494E5445522048414C54457C
:1029D00044005072696E7465722068616C7465643D
:1029E0002E206B696C6C28292063616C6C656421F6
:1029F0000A00656E7175657565696E672022000055
:102A000000000000000000000000005761726E69C5
:102A10006E673A20486F6D696E672042756D702051
:102A200044697669736F72203C20310A000000A06F
:102A3000400000A040000000400000484300005C4F
:102A40004300003443FFFFFF4573746570732F6DBF
:102A50006D004573746570732F6D6D005A737465E6
:102A600070732F6D6D005A73746570732F6D6D00E8
:102A70005973746570732F6D6D005973746570733D
:102A80002F6D6D005873746570732F6D6D005873E2
:102A9000746570732F6D6D00412D74726176656C75
:102AA00000412D74726176656C00412D72657472FF
:102AB00061637400412D7265747261637400416DCD
:102AC0006178204500416D6178204500416D617855
:102AD000205A00416D6178205A00416D617820597B
:102AE00000416D6178205900416D617820580041A6
:102AF0006D61782058005654726176206D696E00C1
:102B00005654726176206D696E00566D696E00567E
:102B10006D696E00566D6178204500566D617820B4
:102B20004500566D6178205A00566D6178205A0034
:102B3000566D6178205900566D6178205900566DA8
:102B40006178205800566D617820580056652D6ACE
:102B500065726B0056652D6A65726B00567A2D6A38
:102B600065726B00567A2D6A65726B0056792D6A14
:102B700065726B0056792D6A65726B0056782D6A06
:102B800065726B0056782D6A65726B0041636365F0
:102B90006C00416363656C005A204F666673657410
:102BA000005A204F666673657400436F6E74726FCF
:102BB0006C0048617264636F64656420446566619B
:102BC000756C742053657474696E6773204C6F6103
:102BD0006465640A0020204D383531205A005A2D92
:102BE00050726F6265204F666673657420286D6D44
:102BF000293A0A0020204D3230302044300A00208B
:102C0000204D3230302044002044697361626C658D
:102C1000640A0046696C616D656E74207365747436
:102C2000696E67733A0020440020490020204D332C
:102C300030312050005049442073657474696E67C8
:102C4000733A0A0020460020420020480020204D10
:102C50003134352053004D6174657269616C2068B0
:102C6000656174757020706172616D6574657273F1
:102C70003A0A0020204D3432302053004175746FE1
:102C800020426564204C6576656C696E673A0A007F
:102C9000205A0020590020204D323036205800485C
:102CA0006F6D65206F666673657420286D6D290AE7
:102CB00000204500205A00205900205800204200E2
:102CC00020540020204D323035205300416476617D
:102CD0006E636564207661726961626C65733A2027
:102CE000533D4D696E206665656472617465202888
:102CF0006D6D2F73292C20543D4D696E20747261C7
:102D000076656C20666565647261746520286D6DFA
:102D10002F73292C20423D6D696E696D756D20738E
:102D200065676D656E742074696D6520286D732903
:102D30002C20583D6D6178696D756D205859206A59
:102D400065726B20286D6D2F73292C20205A3D6DE4
:102D50006178696D756D205A206A65726B20286DE7
:102D60006D2F73292C2020453D6D6178696D756D3F
:102D70002045206A65726B20286D6D2F73290A002B
:102D800020540020520020204D3230342050004189
:102D90006363656C65726174696F6E733A20503D50
:102DA0007072696E74696E672C20523D7265747220
:102DB00061637420616E6420543D74726176656C49
:102DC0000A00204500205A0020590020204D3230B2
:102DD000312058004D6178696D756D2041636365E0
:102DE0006C65726174696F6E20286D6D2F73322966
:102DF0003A0A00204500205A0020590020204D3278
:102E000030332058004D6178696D756D20666565B9
:102E100064726174657320286D6D2F73293A0A00FE
:102E2000204500205A0020590020204D39322058DA
:102E30000053746570732070657220756E69743A02
:102E40000A00544845524D414C2052554E4157417D
:102E50005900546865726D616C2052756E617761BE
:102E600079004572723A204D415854454D502042E8
:102E70004544004572723A204D415854454D50002A
:102E80004D415854454D50207472696767657265AD
:102E900064004572723A204D494E54454D502042CF
:102EA0004544004572723A204D494E54454D5000FC
:102EB0004D494E54454D502074726967676572657F
:102EC000640000000000000000000000000000009E
:102ED00000000000000000000000000000000000F2
:102EE00000000000000000000000000000000000E2
:102EF00000000000000000000000000000000000D2
:102F000000000000000000000000000000000000C1
:102F100000000000000000000000000000000000B1
:102F200000000000000000000000000000000000A1
:102F30000000000000000000000000000000000091
:102F40000000000000000000000000000000000081
:102F50000000000000000000000000000000000071
:102F60000000000000000000000000000000000061
:102F70000000000000000000000000000000000051
:102F80000000000000000000000000000000000041
:102F90000000000000000000000000000000000031
:102FA0000000000000000000000000000000000021
:102FB0000000000000000000000000000000000011
:102FC0000000000000000000000000000000000001
:102FD0000000070000038000000000000000000067
:102FE00000001FC0000FE07C03E0781C0781E0F0C8
:102FF0003E0E7FE0003FF07E07E0FC1C0381C1F83D
:103000003F0E7FF8007FF07E07E0FC1C03C3C1F891
:103010003F0E7BFE01FEF07F0FE1FE1C01C383FC2F
:103020003F8E7CFF87F9F0770EE1FE1C01E783FC01
:103030003B8E7F7FCFF7F0779EE1CE1C00E7039CAD
:103040003BCE7F9FFFCFF0739CE3CF1C00FF079E1A
:1030500039CE7FE7FF3FF073FCE3871C007E070E4D
:1030600039EE7FFBFEFFF071F8E3871C007E0F0F47
:1030700038EE7FFCF9FFF071F8E7FF9C003C0FFF92
:1030800038FE7FFF27FFF070F0E7FF9C003C0FFF4A
:10309000387E7FFFDFFFF070F0EFFFDC003C1FFFAA
:1030A000B87E7FDFFFDFF07060EF03DFF83C1E07C4
:1030B000B83E7FC7FF1FF07060EE01DFF83C1C03D5
:1030C000B83E7FC3FE1FF07000EE01DFF83C1C032A
:1030D000B81E7FC3FE1FF0000000000000000000CB
:1030E00000007FC3DE1FF07FFFFFFFFFFFFFFFFF3A
:1030F000FFFE7FC3DE1FF07FFFFFFFFFFFFFFFFF2D
:10310000FFFE7FC3DE1FF07C3FFAFBFFFFFFFD7A6F
:10311000BFFE7FC3DE1FF07D9FFBFFFFFFFFFF7E33
:10312000F7FE7FC3DE1FF07D931A8A18E38C451AE1
:10313000A2DE3FC3DE0FF07C2DCACAD6E924CD6AD9
:10314000B6BE1F83DE07E07DA36A9AD6E926656ACC
:10315000B63E0603DE01807D910A8AD8E38C451ACB
:10316000B37E0003DE00007FFFFFFFFEEFFFFFFFE7
:10317000FF7E0003DE00007FFFFFFFF1EFFFFFFF98
:10318000FEFE0003DE00007FFFFFFFFFFFFFFFFFEB
:10319000FFFE0003DE00007FFFFFFFFFFFFFFFFFDA
:1031A000FFFE0003DE000000000000000000000041
:1031B00000000001DC000000000000000000000032
:1031C00000000000500000000000000000000000AF
:1031D00000000000000000000000000000000000EF
:1031E00000000000000000000000000000000000DF
:1031F00000000000000000000000000000000000CF
:1032000000000000000000000000000000000000BE
:1032100000000000000000000000000000000000AE
:10322000000000000000000000000000000000009E
:10323000000000000000000000000000000000008E
:10324000000000000000000000000000000000007E
:10325000000000000000000000000000000000006E
:10326000000000000000000000000000000000005E
:10327000000000000000000000000000000000004E
:10328000000000000000000000000000000000003E
:10329000000000000000000000000000000000002E
:1032A000000000000000000000000000000000001E
:1032B000000000000000000000000000000000000E
:1032C000000046696C2E204469612E0046696C2E10
:1032D000204469612E004F6666004F6E2000452035
:1032E000696E206D6D3300436F6E74726F6C0043B6
:1032F000616E6E6F7420656E7465722073756264A2
:1033000069723A2000022E2E0001526566726573C2
:1033100068004D61696E00526573656E643A200005
:103320004E414E494E495459494E46CDCCCC3D0AAA
:10333000D7233C17B7D13877CC2B329595E6241F8D
:10334000B14F0A000020410000C84200401C462046
:10335000BCBE4CCA1B0E5AAEC59D7400C2DC34E321
:1033600011241FBECFEFD0E4DEBFCDBF13E0A0E03D
:10337000B1E0E2E7F3EE01E00BBF02C007900D926F
:10338000AC37B107D9F723E1ACE7B3E001C01D9238
:10339000A03AB207E1F719E1CFEAD9E104C02197D9
:1033A000FE010E94B9E4CE3AD107C9F70E94EEDDD2
:1033B0000C94ACF10C9400002F923F924F925F92CC
:1033C0006F927F928F929F92AF92BF92CF92DF9235
:1033D000EF92FF920F931F93CF93DF93CDB7DEB79A
:1033E000CB5AD1090FB6F894DEBF0FBECDBF009106
:1033F000311120E6029F800111240F54104F1093C9
:103400008C0300938B038091800F80FF18C0E2EC47
:10341000F5E284917F013FEFE31AF30A882321F05C
:103420000E948D40F701F5CFD8018D918D01882341
:1034300019F00E948D40F8CF8AE00E948D402091C3
:103440008B0330918C03F90180812F5F3F4F8032D5
:10345000D1F3F0938C03E0938B038E3469F01091D9
:103460008B0300918C036AE270E0812F902F0E9401
:103470006CE80097D1F420C0818190ED980F9A30CC
:1034800010F08D3261F73296DF0131962C91205386
:103490002A30D0F3CD01FC01019620812032D9F3EE
:1034A000F0938C03E0938B03DACFFC013196829189
:1034B000803231F08A3221F0A12FB02F9D9102C0CD
:1034C0001082F5CFFD01808111968032D9F38053AF
:1034D0008A3020F0E2ECF5E20C94FC37E12CF12C80
:1034E0002AE02E9DB0012F9D700D11247B01B0E3C9
:1034F000EB1AF1088191E80EF11C87FDFA948081A6
:1035000080538A3070F38F013196D8018C918032CC
:10351000D1F310938A030093890321E030E03093C4
:103520005C1120935B119D3411F40C94F7259435B4
:1035300011F40C94C637973411F00C94DE37BCE0CC
:10354000EB16F10409F44AC790F4F4E0EF16F10425
:1035500038F480911F0122E0E216F104A8F128C19D
:1035600034E0E316F10409F4FBC60C94F3374EE1A2
:10357000E416F10411F40C94602480F48CE1E81654
:10358000F10411F40C945C249DE1E916F10411F0AE
:103590000C94F3370E94A7840C94F337ABE5EA163A
:1035A000F10411F40C943925BCE5EB16F10411F487
:1035B0000C943E25EAE5EE16F10411F00C94F33775
:1035C000109288030C94F337882311F40C94F3378A
:1035D0000E94E73D85E691E10E949EC10E9448401D
:1035E0008091800F83FD93C0C0907111D0907211B3
:1035F000E0907311F0907411209192043091930433
:103600004091940450919504C701B6010E9455ED74
:10361000882309F47CC080917B0F811134C02091F4
:103620007B0130917C0140917D0150917E01609140
:10363000300C7091310C8091320C9091330C0E94BF
:1036400055ED87FF20C0C0929204D0929304E0927F
:103650009404F0929504E2ECF5E284918F010F5FFF
:103660001F4F882321F00E948D40F801F6CFEFE52F
:10367000F1E084918F010F5F1F4F882321F00E949A
:103680008D40F801F6CFC0907111D0907211E0908A
:103690007311F09074112091920430919304409131
:1036A000940450919504C701B6010E94C9E40E9498
:1036B00036E697FF07C090958095709561957F4F8E
:1036C0008F4F9F4F693C71058105910504F1C092B0
:1036D0009204D0929304E0929404F0929504E2EC68
:1036E000F5E284918F010F5F1F4F882321F00E9424
:1036F0008D40F801F6CFE0E4F1E084918F010F5F97
:103700001F4F882321F00E948D40F801F6CF2091B1
:103710006511309166114091671150916811609167
:1037200086047091870480918804909189040E9496
:1037300055ED81111DC02091691130916A114091A0
:103740006B1150916C1160918A0470918B0480917F
:103750008C0490918D040E9455ED811109C06091F7
:1037600000017091010180910201909103011AC042
:1037700060910B0170910C01072E000C880B990BC6
:103780000E945CED20910001309101014091020105
:10379000509103010E94BBED2AE037ED43E25CE368
:1037A0000E94BBED0E94D03C0E94C63C0C94F337B3
:1037B000882311F40C94F33711E0F2E0EF16F104D2
:1037C00009F010E00E94E73D82E50E942B3D88232E
:1037D00009F45CC10E94BE3D6B017C0140908604EF
:1037E00050908704609088047090890420918A0426
:1037F00030918B0440918C0450918D0467962CAFCE
:103800003DAF4EAF5FAF67978091651190916611A4
:10381000A0916711B09168116B968CAF9DAFAEAF60
:10382000BFAF6B972091691130916A1140916B1174
:1038300050916C116F962CAF3DAF4EAF5FAF6F974D
:1038400020E030E0A901C701B6010E9455ED8823B0
:1038500009F46CC5A30192016B966CAD7DAD8EAD84
:103860009FAD6B970E9455ED811111C067962CADED
:103870003DAD4EAD5FAD67976F966CAD7DAD8EADD6
:103880009FAD6F970E9455ED882309F44FC520E046
:1038900030E0A901C701B6010E9455ED881F8827B5
:1038A000881F18130BC080E090E0A0E8BFE3AF963C
:1038B0008CAF9DAFAEAFBFAFAF970AC020E030E096
:1038C00040E85FEBAF962CAF3DAF4EAF5FAFAF9729
:1038D000A30192016B966CAD7DAD8EAD9FAD6B97E4
:1038E0000E94C9E4A7966CAF7DAF8EAF9FAFA7973C
:1038F00067962CAD3DAD4EAD5FAD67976F966CADE5
:103900007DAD8EAD9FAD6F970E94C9E4AB966CAF55
:103910007DAF8EAF9FAFAB97A7962CAD3DAD4EADB3
:103920005FADA797CA01B9010E94BBED4B015C01D5
:10393000AB962CAD3DAD4EAD5FADAB97CA01B901B5
:103940000E94BBED9B01AC01C501B4010E94CAE419
:103950000E94CCE7A3966CAF7DAF8EAF9FAFA397CD
:1039600020E030E040E05FE30E94BBED4B015C01F2
:10397000A7019601C701B6010E94BBED6B017C0156
:10398000A5019401C501B4010E94BBED9B01AC01EE
:10399000C701B6010E94C9E40E94CCE79B01AC01BB
:1039A000AF966CAD7DAD8EAD9FADAF970E94BBED78
:1039B0004B015C016B962CAD3DAD4EAD5FAD6B9791
:1039C000C301B2010E94CAE420E030E040E05FE3BE
:1039D0000E94BBED6B017C01AB966CAD7DAD8EADF5
:1039E0009FADAB979058A3962CAD3DAD4EAD5FAD5E
:1039F000A3970E94C4E59B01AC01C501B4010E94DC
:103A0000BBED9B01AC01C701B6010E94CAE4A30152
:103A100092010E94C9E46B017C016F962CAD3DAD13
:103A20004EAD5FAD6F9767966CAD7DAD8EAD9FADC2
:103A300067970E94CAE420E030E040E05FE30E9424
:103A4000BBED2B013C01A3962CAD3DAD4EAD5FAD62
:103A5000A397A7966CAD7DAD8EAD9FADA7970E9445
:103A6000C4E59B01AC01C501B4010E94BBED9B0103
:103A7000AC01C301B2010E94CAE467962CAD3DAD12
:103A80004EAD5FAD67970E94C9E414C089E40E94FF
:103A90002B3D882329F00E94BE3D6B017C0103C0B1
:103AA000C12CD12C76018AE40E942B3D8823F9F0A9
:103AB0000E94BE3D67966CAF7DAF8EAF9FAF67979C
:103AC00020E030E0A901C701B6010E9455ED811147
:103AD0001EC020E030E0A90167966CAD7DAD8EADD3
:103AE0009FAD67970E9455ED811111C01FC420E062
:103AF00030E0A901C701B6010E9455ED882309F401
:103B000015C467961CAE1DAE1EAE1FAE6797A7010B
:103B10009601C701B6010E94BBED4B015C0167969F
:103B20002CAD3DAD4EAD5FAD6797CA01B9010E94A6
:103B3000BBED9B01AC01C501B4010E94CAE40E9427
:103B4000CCE7CD57DF4F688379838A839B83C35843
:103B5000D0408091860490918704A0918804B09110
:103B60008904A3968CAF9DAFAEAFBFAFA397A7015B
:103B70009601BC01CD010E94CAE4AF966CAF7DAF47
:103B80008EAF9FAFAF9720918A0430918B04409104
:103B90008C0450918D04A7962CAF3DAF4EAF5FAF14
:103BA000A79767962CAD3DAD4EAD5FAD6797A796D5
:103BB0006CAD7DAD8EAD9FADA7970E94CAE4E39634
:103BC0006CAF7DAF8EAF9FAFE39780918E049091E5
:103BD0008F04A0919004B0919104E7968CAF9DAFB3
:103BE000AEAFBFAFE7979C01AD0160916D117091D1
:103BF0006E1180916F11909170110E94C9E4AB9683
:103C00006CAF7DAF8EAF9FAFAB97209171113091AC
:103C100072114091731150917411C957DF4F28836D
:103C200039834A835B83C758D04080919204909136
:103C30009304A0919404B0919504EB968CAF9DAF42
:103C4000AEAFBFAFEB97A701960150586B962CAF64
:103C50003DAF4EAF5FAF6B9767968CAD9DADAEAD90
:103C6000BFAD6797B0586F968CAF9DAFAEAFBFAF8B
:103C70006F972091651130916611409167115091B5
:103C80006811EF962CAF3DAF4EAF5FAFEF97AF9699
:103C90002CAD3DAD4EAD5FADAF97EF966CAD7DAD4C
:103CA0008EAD9FADEF970E94C9E46B017C018091BE
:103CB000691190916A11A0916B11B0916C11C1586A
:103CC000DF4F88839983AA83BB83CF57D040E39685
:103CD0002CAD3DAD4EAD5FADE397BC01CD010E9473
:103CE000C9E44B015C01A70196016B966CAD7DADFB
:103CF0008EAD9FAD6B970E94BBED2B013C01A501E2
:103D000094016F966CAD7DAD8EAD9FAD6F970E94A7
:103D1000BBED9B01AC01C301B2010E94CAE42B01BF
:103D20003C01A50194016B966CAD7DAD8EAD9FAD50
:103D30006B970E94BBED4B015C01A70196016F964A
:103D40006CAD7DAD8EAD9FAD6F970E94BBED9B01BD
:103D5000AC01C501B4010E94C9E4A30192010E9413
:103D600049E56B017C0120E030E0A9010E9455ED9E
:103D700087FF0AC02BED3FE049EC50E4C701B601D4
:103D80000E94CAE46B017C01112351F02BED3FE04E
:103D900049EC50E4C701B6010E94C9E46B017C0103
:103DA00020E030E0A901C701B6010E9455ED811164
:103DB0002CC0EF962CAD3DAD4EAD5FADEF97A39609
:103DC0006CAD7DAD8EAD9FADA3970E9455ED811179
:103DD0001CC0C158DF4F288139814A815B81CF5790
:103DE000D040A7966CAD7DAD8EAD9FADA7970E94DC
:103DF00055ED81110AC02BED3FE049EC50E4C701BD
:103E0000B6010E94CAE46B017C01CD57DF4F2881C7
:103E100039814A815B81C358D040C701B6010E94F5
:103E2000BBED9B01AC010E94BBED4B015C01AB966D
:103E30002CAD3DAD4EAD5FADAB97CA01B9010E944F
:103E4000BBED9B01AC01C501B4010E94CAE40E9414
:103E5000CCE74B015C012FE632E143E85AE30E94D4
:103E600055ED87FD5FC2C501B4010E946CE60E945A
:103E70003DE6A5967FAF6EAFA597DB01AB2B31F486
:103E8000E1E0F0E0A596FFAFEEAFA597A5962EADC9
:103E90003FADA597B90180E090E00E945AED4B013B
:103EA0005C019B01AC01C701B6010E94C4E5A39669
:103EB0006CAF7DAF8EAF9FAFA397A5019401AB967A
:103EC0006CAD7DAD8EAD9FADAB970E94C4E5EF9616
:103ED0006CAF7DAF8EAF9FAFEF97EB962CAD3DAD46
:103EE0004EAD5FADEB97C957DF4F688179818A810D
:103EF0009B81C758D0400E94C9E4A50194010E944B
:103F0000C4E5C158DF4F688379838A839B83CF5789
:103F1000D040A3962CAD3DAD4EAD5FADA397CA0189
:103F2000B9010E94BBED20E030E040E05FE30E9479
:103F3000BBED9B01AC0160E070E080E89FE30E9474
:103F4000C9E4AB966CAF7DAF8EAF9FAFAB97E796F2
:103F50008CAD9DADAEADBFADE79789879A87AB8736
:103F6000BC87EB962CAD3DAD4EAD5FADEB972D878D
:103F70003E874F87588B60910B0170910C01072E83
:103F8000000C880B990B0E945CED20910001309190
:103F9000010140910201509103010E94BBED2AE012
:103FA00037ED43E25CE30E94BBEDE7966CAF7DAF7B
:103FB0008EAF9FAFE7970E9486779B01AC01285395
:103FC0003F4F4F4F5F4FEB962CAF3DAF4EAF5FAFC4
:103FD000EB9768964FAC689769965FAC69976A965D
:103FE0006FAC6A976B967FAC6B9722242394312C2D
:103FF000D12CA5968EAD9FADA5972816390609F44C
:104000004DC10E94CC620E948677DC01CB01EB9609
:104010002CAD3DAD4EAD5FADEB97821B930BA40B6A
:10402000B50BB7FD10C00E9486779B01AC012853E9
:104030003F4F4F4F5F4FEB962CAF3DAF4EAF5FAF53
:10404000EB970E9458BFD39438E13D150CF44BC058
:10405000AB962CAD3DAD4EAD5FADAB976F966CADF5
:104060007DAD8EAD9FAD6F970E94BBED4B015C01A6
:10407000A3962CAD3DAD4EAD5FADA397B201C3018C
:104080000E94BBEDA50194010E94CAE47B018C0152
:10409000AB962CAD3DAD4EAD5FADAB97B201C3015C
:1040A0000E94BBED4B015C01A3962CAD3DAD4EAD26
:1040B0005FADA3976F966CAD7DAD8EAD9FAD6F97E5
:1040C0000E94BBED9B01AC01C501B4010E94C9E493
:1040D0002B013C01C701D8016F968CAF9DAFAEAFED
:1040E000BFAF6F975AC0B10180E090E00E945AEDD7
:1040F000A3962CAD3DAD4EAD5FADA3970E94BBED39
:104100004B015C010E94BFE56B017C01C501B4015C
:104110000E94BEE74B015C01A70196016B966CAD56
:104120007DAD8EAD9FAD6B970E94BBED2B013C0129
:10413000A501940167966CAD7DAD8EAD9FAD67977F
:104140000E94BBED9B01AC01C301B2010E94CAE415
:104150002B013C01A50194016B966CAD7DAD8EAD3C
:104160009FAD6B970E94BBED4B015C01A7019601CF
:1041700067966CAD7DAD8EAD9FAD67970E94BBED30
:104180009B01AC01C501B4010E94C9E46F966CAFFC
:104190007DAF8EAF9FAF6F97D12C9201A301AF96E9
:1041A0006CAD7DAD8EAD9FADAF970E94CAE46983C3
:1041B0007A838B839C836F962CAD3DAD4EAD5FAD06
:1041C0006F97E3966CAD7DAD8EAD9FADE3970E948A
:1041D000CAE46D837E838F839887EF962CAD3DADC7
:1041E0004EAD5FADEF9769857A858B859C850E9482
:1041F000CAE469877A878B879C87C158DF4F2881FB
:1042000039814A815B81CF57D0406D857E858F850E
:1042100098890E94CAE46D877E878F87988BCE012C
:1042200001960E949EC1C090830389819A81AB81CF
:10423000BC8188A399A3AAA3BBA38D819E81AF81D2
:10424000B8858CA39DA3AEA3BFA389859A85AB85B2
:10425000BC8588A799A7AAA7BBA7AE01485D5F4FF9
:10426000BE016C5D7F4FCE0180960E9499A4E796B7
:10427000ECACFDAC0EAD1FADE7979E01235F3F4F49
:10428000AE01485D5F4FBE016C5D7F4FCE018096F1
:104290000E9431964FEF241A340AABCEC0908303AC
:1042A0008091651190916611A0916711B09168118C
:1042B00088A399A3AAA3BBA38091691190916A11C5
:1042C000A0916B11B0916C118CA39DA3AEA3BFA361
:1042D00080916D1190916E11A0916F11B09170113C
:1042E00088A799A7AAA7BBA7AE01485D5F4FBE01EB
:1042F0006C5D7F4FCE0180960E9499A4E796ECAC4E
:10430000FDAC0EAD1FADE79721E731E1AE01485D91
:104310005F4FBE016C5D7F4FCE0180960E9431964B
:104320000E94C63C0E9448400C94F337E9E6FDE049
:1043300084918F010F5F1F4F882321F00E948D40D1
:10434000F801F6CFEAE7F1E084918F010F5F1F4F8C
:10435000882311F40C94F3370E948D40F801F4CFB8
:1043600080E50E942B3D882329F00E94B33D6B011C
:104370007C0103C0C12CD12C760183E50E942B3D2A
:10438000882321F00E945B3E6B017C010E949365B3
:104390000E94484080915D1190915E11A0915F1143
:1043A000B0916011C80ED91EEA1EFB1E8091380123
:1043B000811105C060E080E991E00E94B1AB0E94EC
:1043C0008677DC01CB018C199D09AE09BF09B7FDC9
:1043D00002C00C94F3370E9458BFF1CF0E94F18FB6
:1043E00081110C94F33780E50E942B3D882321F046
:1043F0000E94993D182F01C010E083E50E942B3DDB
:10440000882331F00E94993D64968FAF649704C071
:104410009CE064969FAF649784E50E942B3D8823BF
:1044200019F00E94993D01C083E0113009F07FC16D
:1044300040E050E060EF71E448A359A36AA37BA376
:104440004CA35DA36EA37FA340E050E060E87FE350
:1044500048A759A76AA77BA740E050E060EC7FE738
:104460004CA75DA76EA77FA7282E312C220C331CEA
:10447000B101032C000C880B990B0E945CED9B0191
:10448000AC0160E070E08CE892E40E94C4E56B014E
:104490007C0120E030E0A9010E9455ED181614F0CF
:1044A0000C94F33700918A0410918B0420918C04B2
:1044B00030918D0440918E0450918F04609190044E
:1044C000709191048091920490919304A09194042E
:1044D000B09195048090860490908704A090880401
:1044E000B090890489829A82AB82BC820D831E833C
:1044F0002F83388749875A876B877C878D879E876C
:10450000AF87B88B68961FAE68976896EFAD6897CF
:104510006496FFAD6497EF1709F4EEC010E0612FC9
:1045200070E0621573050CF071C0072E000C880B4B
:10453000990B0E945CEDA70196010E94BBED4B0117
:104540005C019B01AC0168A179A18AA19BA10E9499
:10455000CAE463966CAF7DAF8EAF9FAF6397A70140
:104560009601C701B6010E94CAE49B01AC01C501D6
:10457000B4010E948EE62B013C01A701960160E088
:1045800070E080EF91E40E94C4E54B015C01A7015B
:104590009601C301B2010E94C9E49B01AC015F779F
:1045A000C701B6010E94C9E49B01AC01C501B40179
:1045B0000E94BBED9B01AC016CA17DA18EA19FA1CE
:1045C0000E94CAE42F966CAF7DAF8EAF9FAF2F973E
:1045D0001BAE1CAE1DAE1EAEAE01455C5F4FBE01F4
:1045E000655B7F4FCE01815B9F4F0E94E0561111AA
:1045F0000BC01BAE1CAE1DAE1EAEBE01655C7F4F78
:10460000CE0188960E94003C1F5F89CFA7019601CA
:1046100060E070E080EF91E40E94C4E52B013C0172
:10462000A7019601C701B6010E94CAE46F966CAF5C
:104630007DAF8EAF9FAF6F978101B801012E000C47
:10464000880B990B0E945CEDA70196010E94BBEDBF
:104650004B015C019B01AC0168A179A18AA19BA1DE
:104660000E94CAE463966CAF7DAF8EAF9FAF639735
:104670006F962CAD3DAD4EAD5FAD6F97C501B401EA
:104680000E948EE6A70196010E94C9E49B01AC013D
:104690005F77C701B6010E94C9E49B01AC01C30169
:1046A000B2010E94BBED9B01AC016CA17DA18EA16A
:1046B0009FA10E94CAE42F966CAF7DAF8EAF9FAFD3
:1046C0002F971BAE1CAE1DAE1EAEAE01455C5F4FFC
:1046D000BE01655B7F4FCE01815B9F4F0E94E0561C
:1046E0000150110908F0A9CF6896BFAD6897BF5F68
:1046F0006896BFAF689709CF1BAE1CAE1DAE1EAE4D
:10470000BE01655C7F4FCE0109960E94003C1BAE46
:104710001CAE1DAE1EAEAE01455C5F4FBE016B5FB1
:104720007F4FCE0101960E94E0560C94F33780E053
:1047300090E0A8ECB2E48BAF9CAFADAFBEAF80E031
:1047400090E0A0E7B2E423968CAF9DAFAEAFBFAFD1
:10475000239740E050E060E87FE327964CAF5DAFE1
:104760006EAF7FAF279780E090E0A0ECBFE72B967D
:104770008CAF9DAFAEAFBFAF2B9700E010E020EF46
:1047800031E408A319A32AA33BA30CA31DA32EA3C2
:104790003FA348A759A76AA77BA78CA79DA7AEA749
:1047A000BFA700918A0410918B0420918C04309152
:1047B0008D0440918E0450918F046091900470910B
:1047C00091048091920490919304A0919404B091EB
:1047D0009504C0908604D0908704E0908804F090FF
:1047E0008904C982DA82EB82FC820D831E832F83C7
:1047F000388749875A876B877C878D879E87AF87E5
:10480000B88B2F961CAE1DAE1EAE1FAE2F97AE01FD
:10481000455B5F4FBE016C5D7F4FCE0180960E946D
:10482000E0562F961CAE1DAE1EAE1FAE2F97BE01DA
:10483000655B7F4FCE0188960E94003C64962FAD49
:104840006497022F10E015950795F12C8F2D90E0BD
:104850002F961CAE1DAE1EAE1FAE2F978017910770
:10486000E4F4AE01455B5F4FBE01615C7F4FCE015A
:10487000CB960E94E0562F961CAE1DAE1EAE1FAE0C
:104880002F97AE01455B5F4FBE016C5D7F4FCE0140
:1048900080960E94E056F394D9CF9E01255B3F4F4E
:1048A000AE01475F5F4FBE016B5F7F4FCE01019648
:1048B0000E941C3B0C94F3370E94CD400C94F337BC
:1048C00088E50E942B3D882319F00E94BE3D0EC052
:1048D00020E030E04CE052E460918604709187045F
:1048E00080918804909189040E94CAE46BAF7CAFE8
:1048F0008DAF9EAF89E50E942B3D882319F00E9461
:10490000BE3D0EC020E030E048E452E460918A04ED
:1049100070918B0480918C0490918D040E94C9E465
:1049200068A379A38AA39BA30BAD1CAD2DAD3EADAF
:1049300009831A832B833C836D837E838F839887BF
:1049400020E030E0A901609182047091830480919D
:104950008404909185040E94CAE4209176043091E9
:10496000770440917804509179040E94CAE46987E1
:104970007A878B879C87CE0101960E94E556882313
:1049800011F40C94F33783E50E942B3D882321F02A
:104990000E946D3D482F01C041E080E0C955DF4FC6
:1049A0004883C75AD0400E94073B0E946D4021E0D7
:1049B00030E0C955DF4F4881C75AD040BE01605E24
:1049C0007F4FCE01CB960E94D5466B017C01E3EA76
:1049D000F1E084918F010F5F1F4F882321F00E9427
:1049E0008D40F801F6CF27E137EB41ED58E36BAD91
:1049F0007CAD8DAD9EAD0E94CAE442E00E9460464F
:104A0000EEE9F1E084918F010F5F1F4F882321F0C1
:104A10000E948D40F801F6CF27E137EB41ED58E3D6
:104A200068A179A18AA19BA10E94CAE442E00E94E8
:104A30006046E9E9F1E084918F010F5F1F4F882301
:104A400021F00E948D40F801F6CF27E137EB41EDD0
:104A500058E3C701B6010E94CAE442E00E946046E2
:104A60008AE00E948D400E9453400E9459BA0C94E3
:104A7000F33781E0809388030C94F43785E40E9437
:104A80002B3DB82E811102C00E949365F1E08F2E5C
:104A9000F2E09F2EA6E8CA2EA4E0DA2EBEE6EB2EA8
:104AA000B4E0FB2E00E010E0A12CD4018D914D016B
:104AB0000E942B3D882309F44EC0F60120813181EC
:104AC00042815381CC55DF4F2883C45AD040CB5507
:104AD000DF4F3883C55AD040C955DF4F4883C75A86
:104AE000D040CA55DF4F5883C65AD0400E94BE3DC1
:104AF000D6016D937D938D939C931397CC55DF4F87
:104B00002881C45AD040CB55DF4F3881C55AD04098
:104B1000C955DF4F4881C75AD040CA55DF4F588129
:104B2000C65AD04003301105B1F00E94C9E49B0180
:104B3000AC01F70160817181828193810E94CAE496
:104B4000D7016D937D938D939C931397C8010E9419
:104B5000D23FAA24A3940F5F1F4FB4E0CB0ED11C09
:104B6000E4E0EE0EF11C0430110509F09ECFAA20FE
:104B700019F00E94E73E37C0BB20A9F1C090920413
:104B8000D0909304E0909404F090950420919511B6
:104B9000309196114091971150919811C701B6012B
:104BA0000E94BBED0E948BE76093BB0C7093BC0C22
:104BB0008093BD0C9093BE0CC701B6010E9436E6EF
:104BC0002FB7F8946093AE0B7093AF0B8093B00B3C
:104BD0009093B10B2FBF1092AB0C1092AC0C1092B3
:104BE000AD0C1092AE0C0E9459BA0C94F337F1E759
:104BF000EF16F10409F493C608F0E5C030E3E316BC
:104C0000F10409F46EC508F06EC058E1E516F10430
:104C100009F4BDC2F0F592E1E916F10411F40C9427
:104C20006F30B0F4B2E0EB16F10408F4E9C1E1E151
:104C3000EE16F10411F00C94F33760E08EED91E084
:104C40000E94B1AB5E985E9815985E980C94F3370D
:104C5000F5E1EF16F10409F490C248F434E1E316EB
:104C6000F10411F00C94F337E6EFF1E043C246E1B2
:104C7000E416F10409F485C257E1E516F10411F0D8
:104C80000C94F33740E061E0C8010E942B520C9471
:104C9000F3378CE1E816F10409F4CEC258F4AAE126
:104CA000EA16F10409F47EC208F08AC21092EF0CF1
:104CB0000C94F337EFE1EE16F10409F422C438F452
:104CC0002EE1E216F10409F4BEC20C94F33730E28F
:104CD000E316F10409F4C5C34AE2E416F10409F449
:104CE000B8C40C94F3375CE5E516F10411F40C94A8
:104CF000AD3090F591E5E916F10411F40C945030C3
:104D0000A0F4BCE4EB16F10409F4EFC4EDE4EE16F4
:104D1000F10409F404C5FBE4EF16F10411F00C945E
:104D2000F3370E941D580C94F33723E5E216F10483
:104D300011F40C946B3010F40C94683044E5E416D4
:104D4000F10411F40C946F3055E5E516F10411F4FB
:104D50000C949C300C94F3378CE6E816F10409F4BB
:104D6000D6C5D8F4A9E6EA16F10409F41DC638F44C
:104D7000E8E6EE16F10409F4D6C40C94F337FAE62B
:104D8000EF16F10411F40C941A302BE6E216F1043C
:104D900011F40C9440300C94F3373EE6E316F10422
:104DA00009F405C508F41DC65FE6E516F10409F42B
:104DB00011C580E7E816F10411F00C94F3378FEE7B
:104DC00092E00E94ECBE92EEE916F10411F40C940C
:104DD000503208F07FC0BEEBEB16F10409F4AFC708
:104DE00090F5F7E7EF16F10411F40C944531A8F4AF
:104DF00033E7E316F10411F40C94383110F40C94F9
:104E0000353155E7E516F10411F00C94F33760E005
:104E1000C8010E94C6AB0C94F33789E7E816F10489
:104E200011F40C94AF3110F40C94A931ACE8EA16EB
:104E3000F10409F4A0C5B1E9EB16F10411F40C94E6
:104E4000B4310C94F337EDECEE16F10411F40C943C
:104E50002E3208F529ECE216F10411F40C942832F4
:104E600050F448ECE416F10411F00C94F3370E946E
:104E70000CBA0C94F3375BECE516F10411F40C94C6
:104E80002B328CECE816F10411F00C94F3370E94ED
:104E90005CB90C94F33793EDE916F10411F40C941A
:104EA000313250F4BEECEB16F10411F00C94F337F0
:104EB0000E9418BB0C94F337ECEDEE16F10411F4DC
:104EC0000C943432FDEDEF16F10411F40C943732EA
:104ED0000C94F3372AE9E21621E0F20609F41BC527
:104EE00008F043C04FE2E41641E0F40611F40C94DC
:104EF000C732A8F48DE2E81681E0F80611F40C94AC
:104F0000533210F00C945632ACE2EA16A1E0FA06E5
:104F100011F00C94F3370E94C5B70C94F337B0E945
:104F2000EB16B1E0FB0611F40C94E83558F4F3E607
:104F3000EF16F1E0FF0611F00C94F337E9E6FDE01F
:104F40000C949F3721E9E21621E0F20611F40C944B
:104F5000EB3532E9E31631E0F30611F00C94F33748
:104F600080E00E947B3C0C94F33746EFE41641E06E
:104F7000F40611F40C94573718F58CEAE81681E022
:104F8000F80611F40C943F3648F4A4EAEA16A1E0BE
:104F9000FA0611F40C94EF350C94F337B4EFEB16DA
:104FA000B1E0FB0611F40C945437E5EFEE16E1E0A6
:104FB000FE0611F00C94F3370E94A9B10C94F3375C
:104FC000F3E5EF16F3E0FF0611F40C94663748F4AE
:104FD00037EFE31631E0F30611F40C945A370C94D2
:104FE000F33740EAE41643E0F40609F480C257EED2
:104FF000E51653E0F50611F40C94B6370C94F3372C
:1050000080E50E942B3D882361F00E94B33D6B0137
:105010007C01BB24B394672B682B692B31F4B12C32
:1050200004C0B12CC12CD12C760183E50E942B3D0C
:10503000882399F00E945B3E6B017C01B1100FC088
:10504000672B682B692B59F4D8018C91882339F090
:1050500061E0C8010E94C6AB07C0BB20A9F360E0B5
:105060008DEC91E00E94B1AB81E08093431183E02D
:1050700090E090935C1180935B110E9493650E9475
:105080004840C114D104E104F104E9F080915D11BC
:1050900090915E11A0915F11B0916011C80ED91E60
:1050A000EA1EFB1E0E948677DC01CB018C199D094C
:1050B000AE09BF09B7FF1AC0809143118823B1F030
:1050C0000E9458BFEFCF80914311882319F00E94AE
:1050D00058BFF9CF8091EF0C60E0882319F08EEB78
:1050E00091E002C08BEA91E00E94B1AB10924311B3
:1050F0000C94F33784918F010F5F1F4F882321F0A9
:105100000E948D40F801F6CF1092750F1092740F27
:1051100040E050E0BA0180E29DE00E94756E8BE1B4
:10512000E0E2FDE0DE01159601900D928A95E1F72F
:1051300080911E0D90911F0D9C838B838FE092E0D8
:105140009A83898340E050E0BE016F5F7F4F88E41F
:1051500093E00E948C93CE0101960E94DABEE7EEA6
:10516000F1E084918F010F5F1F4F882311F40C949D
:10517000F3370E948D40F801F4CF0E9462550C94E1
:10518000F3371092EF0C1092F00C0C94F3378091DF
:10519000F00C882319F081E08093EF0C0E941D58D9
:1051A0000C94F3378091F00C882311F40C94F337AE
:1051B00083E50E942B3D81110C9417380C94F33732
:1051C0008091F00C882351F1E7E0F2E084918F01A7
:1051D0000F5F1F4F882321F00E948D40F801F6CF0A
:1051E00060916B0F70916C0F80916D0F90916E0FAD
:1051F0004AE00E9475428FE20E948D406091670FE5
:105200007091680F8091690F90916A0F4AE00E9437
:1052100075428AE00E948D400C94F337E9E1F2E098
:1052200084918F010F5F1F4F882311F40C94F33783
:105230000E948D40F801F4CF40E060E0C8010E9478
:105240002B520C94F3378091F00C882311F40C94BA
:10525000F3378AEB9EE00E9400718AEB9EE00E9489
:1052600033711092EE0C1092ED0CE0908903F090E7
:105270008A038091F00C882311F40C94F3370E9478
:1052800020521D8218861C821B828FE092E09A8336
:1052900089838CE19DE090933C0D80933B0DF70159
:1052A00080818F3209F068C06FE270E0C7010E9410
:1052B0006CE88C010F5F1F4F9E012F5F3F4F49012C
:1052C0000115110509F45EC06FE270E0C8010E948B
:1052D0006CE86C01009709F456C00817190708F02C
:1052E00052C05C01A01AB10AA501B801CE01809696
:1052F0000E9495E8E0E2F0E0EC0FFD1FEA0DFB1DD7
:1053000010828E01005E1F4FD8018D918D01882380
:1053100019F00E948D40F8CF8AE00E948D40609184
:105320003B0D70913C0D6115710511F06C5F7F4F65
:1053300021E0AE01405E5F4FCE0105960E94CA7328
:10534000811112C0BE01605E7F4F80E592E00E9435
:105350004E428EE20E948D408AE00E948D40C40140
:105360000E94DABE0C94F33790923C0D80923B0D74
:1053700086010F5F1F4FA4CF8DE39DE090933C0DFE
:1053800080933B0D870160913B0D70913C0D611541
:10539000710511F06C5F7F4F18A21BA222E0A801DB
:1053A000CE0180960E94CA73811102C0F12C14C0F4
:1053B000CE0180960E94FA928823C1F361E0CE016B
:1053C00080960E94E470009789F325EEFC0120830B
:1053D0001BA20E94FFB4F82ECE0180960E941F40AF
:1053E000FF2009F1EAE2F2E084917F012FEFE21A57
:1053F000F20A882321F00E948D40F701F5CFD801F1
:105400008D918D01882319F00E948D40F8CF8AE09C
:105410000E948D4010926B0F10926C0F10926D0FC6
:1054200010926E0F18C0E8E3F2E084917F01BFEFA5
:10543000EB1AFB0A882321F00E948D40F701F5CF7B
:10544000F80181918F01882319F00E948D40F8CFD7
:105450008EE20E948D40CE0101960E94DABE0C942D
:10546000F3378091EF0C81110E94936500918903BD
:1054700010918A0361E270E0C8010E946CE8009715
:1054800019F08C010F5F1F4F80E50E942B3D882390
:1054900049F0FF24F39480917C0390917D03801761
:1054A000910708F0F12C8091F00C882311F40C94F2
:1054B000F3374F2D61E0C8010E942B5283E50E9413
:1054C0002B3D882349F080917C0390917D038017C8
:1054D000910710F40C9428388091F00C882319F06F
:1054E00081E08093EF0CF1100C94F33757CE81E0FC
:1054F0008093EE0C40E060E0C8010E942B520C94B7
:10550000F3370E94C492ECE3CE2ED12CE12CF12C87
:10551000A70196010E9449F1762E672ECA01B901B2
:10552000A70196010E9449F16B017C01CA01B901F2
:1055300028E130E040E050E00E9449F14B015C017D
:10554000C9016DE671E00E9491E48E010F5F1F4F6B
:105550006115710599F06F927F92DF92CF929F92C1
:105560008F929F938F937F936F938CE892E09F939A
:105570008F931F930F930E9425ED12C00097B1F0F7
:105580006F927F92DF92CF929F928F929F938F9391
:105590008CE792E09F938F931F930F930E9425EDCA
:1055A0000FB6F894DEBF0FBECDBF36C08114910494
:1055B000A104B10479F06F927F92DF92CF929F9213
:1055C0008F9280E792E09F938F931F930F930E9497
:1055D00025EDE6CFC114D104E104F10469F06F9226
:1055E0007F92DF92CF9288E692E09F938F931F93F2
:1055F0000F930E9425EDD4CF6F927F9284E692E0C4
:105600009F938F931F930F930E9425ED0F900F9000
:105610000F900F900F900F9060E0C8010E94C6ABF2
:10562000E2ECF5E284917F01BFEFEB1AFB0A8823DD
:1056300021F00E948D40F701F5CFB80180EA92E099
:105640000E944E428AE00E948D400E9425400C94A8
:10565000F33783E50E942B3D882311F40C94F33734
:105660000E94A63D7C018F3F910519F010F00C942B
:10567000F33780E50E942B3D882339F00E94A63D38
:105680008C0197FF04C00C94F3370BE110E0D02E8F
:10569000E1EBF1E0C80199272191319128173907F1
:1056A00031F022E0E130F207B9F70C94E037E9E697
:1056B000FDE084918F010F5F1F4F882321F00E942E
:1056C0008D40F801F6CFEDEAF2E084918F010F5F93
:1056D0001F4F882311F40C94F3370E948D40F8017A
:1056E000F4CF0E94267F0C94F3378091DF0C9091C9
:1056F000E00C019711F00C94F33782E090E0909366
:10570000E00C8093DF0C0E9486776093E90C709325
:10571000EA0C8093EB0C9093EC0C0C94F3370E9402
:105720009C910C94F33788E690E00E941F4681110B
:105730000C94F3378091800F83FF02C00C94F337F1
:1057400083E50E942B3D882371F10E94BE3D0E949B
:1057500036E670932F0C60932E0C0E94AD900E9441
:10576000BE3D20E030E04AEA52E40E9455ED1816B2
:105770003CF00E949C9160E087EC92E00E94B1AB0B
:105780000E94BE3D2091300C3091310C4091320C82
:105790005091330C0E947EE718162CF460E08CEBDD
:1057A00092E00E94B1AB0E9492DC0C94F3378EE43D
:1057B0000E942B3D882311F40C94F3370E9444DBA4
:1057C00060937E0370937F038093800390938103A3
:1057D0000C94F33783E50E942B3D882319F00E9437
:1057E0003E3D01C080E08093800FE2ECF5E28491C1
:1057F0008F010F5F1F4F882321F00E948D40F80119
:10580000F6CFE8EEF2E084918F010F5F1F4F8823FF
:1058100021F00E948D40F801F6CF8091800F8823FF
:10582000A1F16AEDC62E62E0D62EE12CF12C20E02B
:105830008091800F90E00E2C02C0959587950A9478
:10584000E2F780FF17C0BB24B394B20E222319F0F5
:105850008CE20E948D40F60125913491F9018491EA
:1058600089010F5F1F4F882321F00E948D4098010E
:10587000F5CF2B2DFFEFEF1AFF0A32E0C30ED11C3C
:1058800045E0E416F104A1F63DC0E4EEF2E08491B7
:105890008F010F5F1F4F8823A9F10E948D40F801EF
:1058A000F6CF80E20E948D408AE50E942B3D88233E
:1058B00011F40C9491370E94BE3D6B017C0120E0F5
:1058C00030E040EA51EC0E947EE787FF02C00C9472
:1058D000803720E030E040EA51E4C701B6010E9481
:1058E00055ED181614F40C948037C092DD11D09247
:1058F000DE11E092DF11F092E01142E0C701B60143
:105900000E9460468AE00E948D400C94F33710920A
:1059100005010C94F3370E94F3B60C94F33783E53A
:105920000E942B3D882369F00E943E3D80938C01AC
:105930008D3310F40C94F3378CE380938C010C942A
:10594000F337E2ECF5E284918F010F5F1F4F88235C
:1059500021F00E948D40F801F6CF40918C0150E07B
:1059600060E070E088EF92E00E94DD428AE00E94F1
:105970008D400C94F3378091800F83FF02C00C940C
:10598000F33783E50E942B3D882311F40C94F33701
:105990000E94BE3D0E9436E670930F0C60930E0C81
:1059A0000E9428D30C94F33789E690E00E941F46AA
:1059B000811111C0EFEFF2E084918F010F5F1F4F53
:1059C000882321F00E948D40F801F6CF0E9471BB20
:1059D0008AE00E948D4010925C1110925B110C9431
:1059E0001E3A8DE690E00E941F4681110C94F33719
:1059F0008091800F83FF02C00C94F33783E50E94EF
:105A00002B3D6C968FAF6C97811105C082E50E948B
:105A10002B3D8823C1F10E94BE3D0E9436E6709363
:105A20002F0C60932E0C0E94AD900E94BE3D20E092
:105A300030E04AEA52E40E9455ED181614F40C9432
:105A40003A380E949C9160E082E293E00E94B1AB00
:105A500060912E0C70912F0C072E000C880B990B67
:105A60000E945CED2091300C3091310C4091320C51
:105A70005091330C0E947EE718162CF460E087E109
:105A800093E00E94B1AB0E9492DC81E0809305011B
:105A900010925C1110925B116B961CAE1DAE1EAE87
:105AA0001FAE6B97A3961CAE1DAE1EAE1FAEA39786
:105AB00064961FAE6497A4961FAEA4975CE3A89665
:105AC0005FAFA8978CE1AC968FAFAC9796E4E09669
:105AD0009FAFE097C12CD12C40E8E42E5FEBF52E70
