:100000000C94601A0C948A1A0C948A1A0C948A1A0A
:100010000C948A1A0C948A1A0C948A1A0C948A1AD0
:100020000C948A1A0C948A1A0C948A1A0C948A1AC0
:100030000C948A1A0C949F980C948A1A0C948A1A1D
:100040000C948A1A0C94ED810C9452740C948A1AB4
:100050000C94AD550C948A1A0C948A1A0C948A1A32
:100060000C948A1A0C948A1A0C948A1A0C948A1A80
:100070000C948A1A0C948A1A0C948A1A0C948A1A70
:100080000C948A1A0C948A1A0C948A1AEB72EE72E7
:10009000E172E57205730573F272F672FC72007319
:1000A000C173C673CB73D57303740374DF73E773C3
:1000B000EF73F97336824582648273828E829382F3
:1000C00096829B829E82A382A682AB82B582084AD8
:1000D000D73B3BCE016E84BCBFFDC12F3D6C74315C
:1000E0009ABD56833DDA3D00C77F11BED9E4BB4CB3
:1000F0003E916BAAAABE000000803F05A84CCDB27D
:10010000D44EB93836A9020C50B9918688083CA65D
:10011000AAAA2ABE000000803F00434F4D4D554E15
:1001200049434154494F4E0044525952554E00459F
:1001300052524F525300494E464F004543484F00DC
:1001400020746F6F206C6F6E6720657874727573A2
:10015000696F6E2070726576656E7465640A002042
:10016000636F6C6420657874727573696F6E20704C
:10017000726576656E7465640A00536C6565702EF1
:100180002E2E005A2070726F6265206F75742E20BB
:100190006265640A005A2070726F6265206F757420
:1001A0002E2062656400205A3A200020593A20002F
:1001B00042656420583A2000526573756D696E6718
:1001C000207072696E74003344205072696E7465D9
:1001D000722072656164792E005761697420666FC0
:1001E0007220757365722E2E2E004E6F206D6F7605
:1001F000652E00456E642066696C65206C697374B9
:100200000A00426567696E2066696C65206C6973D7
:10021000740A005344207072696E74696E672062BC
:1002200079746520004E6F74205344207072696E9B
:1002300074696E670A0046696C652064656C657454
:1002400065643A0044656C6574696F6E2066616927
:100250006C65642C2046696C653A20006F70656E91
:10026000206661696C65642C2046696C653A2000E3
:100270002569730025696D2025697300256968204B
:1002800025696D202569730025696420256968202A
:1002900025696D2025697300256979202569642009
:1002A0002569682025696D20256973005072696E83
:1002B000742074696D653A200048656174696E67E1
:1002C0002E2E2E003344205072696E746572207297
:1002D000656164792E003B0136012F0128011A0166
:1002E0006F66660044454255473A004B494C4C45C1
:1002F000442E20004D31313320530048656174692C
:100300006E6720646F6E652E003F0A0020573A002A
:1003100048656174696E672E2E2E0033442050723A
:10032000696E7465722072656164792E004265643D
:1003300020646F6E652E003F0A0020573A00426528
:10034000642048656174696E672E003344205072E2
:10035000696E746572204F66662E004649524D578D
:100360004152455F4E414D453A4D61726C696E2078
:10037000312E312E302D524337202847697468754D
:10038000622920534F555243455F434F44455F55C3
:10039000524C3A68747470733A2F2F676974687599
:1003A000622E636F6D2F4D61726C696E4669726D5E
:1003B000776172652F4D61726C696E2050524F5497
:1003C0004F434F4C5F56455253494F4E3A312E30B2
:1003D000204D414348494E455F545950453A3344B6
:1003E000205072696E7465722045585452554445C8
:1003F000525F434F554E543A3120555549443A6364
:10040000656465326132662D343161322D343734A2
:10041000382D396231322D633535633632663336E5
:100420003766660A007A5F6D696E3A2000795F6D03
:10043000696E3A2000785F6D696E3A2000526570EF
:100440006F7274696E6720656E6473746F70207369
:1004500074617475730A004D31343520533C696EF4
:100460006465783E206F7574206F662072616E67D8
:10047000652028302D31290A0053657474696E6730
:100480002054726176656C20416363656C657261AE
:1004900074696F6E3A200053657474696E672052F8
:1004A00065747261637420416363656C6572617425
:1004B000696F6E3A200053657474696E67205072DC
:1004C000696E7420416363656C65726174696F6EF7
:1004D0003A200053657474696E67205072696E74B7
:1004E00020616E642054726176656C20416363659F
:1004F0006C65726174696F6E3A200020643A002066
:10050000693A0020703A0043290A0061626C656410
:1005100020286D696E2074656D702000436F6C64D7
:10052000206578747275646573206172652000239C
:10053000646566696E65202044454641554C545FAC
:100540004B64200023646566696E6520204445463F
:1005500041554C545F4B69200023646566696E65A4
:10056000202044454641554C545F4B702000504973
:1005700044204175746F74756E652066696E697389
:10058000686564212050757420746865206C6173FF
:1005900074204B702C204B6920616E64204B6420CA
:1005A000636F6E7374616E74732066726F6D206218
:1005B000656C6F7720696E746F20436F6E66696734
:1005C00075726174696F6E2E680A0050494420414B
:1005D00075746F74756E65206661696C6564212041
:1005E00074696D656F75740A0050494420417574D3
:1005F0006F74756E65206661696C65642120546551
:100600006D706572617475726520746F6F206869B2
:1006100067680A00204B643A2000204B693A2000AA
:10062000204B703A200020436C6173736963205043
:100630004944200A002054753A2000204B753A2086
:1006400000206D61783A2000206D696E3A2000200C
:10065000643A200020626961733A20004F66667335
:10066000657473206170706C696564004572723ADC
:1006700020546F6F206661722100546F6F20666195
:10068000722066726F6D207265666572656E636555
:1006900020706F696E740A003A20007A5F6D61788D
:1006A0003A20007A5F6D696E3A20005A204F6666E4
:1006B000736574004163746976652045787472755A
:1006C0006465723A2000220A00556E6B6E6F776E79
:1006D00020636F6D6D616E643A202200202B000A4A
:1006E000436F727265637465642042656420486577
:1006F000696768742076732E2042656420546F7099
:100700006F6C6F67793A0A00202B000A42656420FB
:1007100048656967687420546F706F6772617068AC
:10072000793A0A2020202B2D2D2D204241434B20A9
:100730002D2D2B0A2020207C20202020202020204E
:100740002020207C0A204C207C20202020282B29BF
:10075000202020207C20520A2045207C20202020A0
:10076000202020202020207C20490A2046207C2098
:10077000282D29204E20282B29207C20470A205470
:10078000207C20202020202020202020207C204889
:100790000A2020207C20202020282D2920202020F5
:1007A0007C20540A2020207C202020202020202073
:1007B0002020207C0A2020204F2D2D2046524F4EF5
:1007C00054202D2D2B0A2028302C30290A004D656D
:1007D000616E206F662073616D706C656420706F50
:1007E000696E74733A200020643A200020623A2037
:1007F0000045716E20636F656666696369656E7436
:10080000733A20613A200028422961636B00284630
:1008100029726F6E74002852296967687400284C29
:1008200029656674003F4E756D626572206F6620A3
:1008300070726F626564202850296F696E7473202E
:10084000697320696D706C61757369626C652028CD
:1008500032206D696E696D756D292E0A0052756EB4
:100860006E696E6720696E204452592D52554E2094
:100870006D6F64650A00473239204175746F2042FC
:100880006564204C6576656C696E670A003F285682
:10089000296572626F7365204C6576656C2069739B
:1008A00020696D706C61757369626C652028302DEC
:1008B00034292E0A004E6F204C696E65204E756DEE
:1008C000626572207769746820636865636B73750D
:1008D0006D2C204C617374204C696E653A20004B7E
:1008E000494C4C45442E200053544F505045442E03
:1008F00020005072696E7465722073746F70706539
:10090000642064756520746F206572726F72732E37
:100910002046697820746865206572726F72206164
:100920006E6420757365204D39393920746F2072DB
:100930006573746172742E202854656D70657261E0
:10094000747572652069732072657365742E205307
:1009500065742069742061667465722072657374B1
:10096000617274696E67290A004E6F20436865637F
:100970006B73756D2077697468206C696E65206E85
:10098000756D6265722C204C617374204C696E65C4
:100990003A2000636865636B73756D206D69736DD4
:1009A000617463682C204C617374204C696E653AE5
:1009B00020004C696E65204E756D6265722069730A
:1009C000206E6F74204C617374204C696E65204EEC
:1009D000756D6265722B312C204C617374204C69EB
:1009E0006E653A20004D313130004D3331004D38C5
:1009F0003420582059205A20450053442072656104
:100A000064206572726F720A00446F6E65207072A6
:100A1000696E74696E672066696C650A0020496EAC
:100A200076616C6964206578747275646572200003
:100A30000000484300004843000048430000000015
:100A40000000000000000000205A3A200020593A1F
:100A5000200042656420583A200020706F7369744A
:100A6000696F6E206F7574206F662072616E6765A6
:100A70002E0A003F50726F6265200000060900FEDA
:100A8000070192032120FFFF08FF07FF0000000677
:100A9000000001070706020080808080800080033C
:100AA0000202060105A0A00507070600005050F845
:100AB00050F850500507070600002078A07028F075
:100AC00020050707060000C0C81020409818050739
:100AD000070600006090A040A8906802030306018A
:100AE00004C040800307070601002040808080404A
:100AF00020030707060100804020202040800505D4
:100B00000506000120A870A82005050506000120A3
:100B100020F820200203030602FFC04080050101E7
:100B2000060003F8020202060200C0C00505050621
:100B30000001081020408005070706000070888823
:100B40008888887003070706010040C04040404085
:100B5000E0050707060000708808708080F8050728
:100B600007060000F81020100808F0050707060027
:100B70000010305090F81010050707060000F880AC
:100B8000F008088870050707060000708080F0886C
:100B90008870050707060000F808102020202005AF
:100BA00007070600007088887088887005070706A8
:100BB000000070888878080870020505060200C0E9
:100BC000C000C0C00206060602FFC0C000C04080D0
:100BD0000407070600001020408040201005030392
:100BE000060002F800F80407070601008040201004
:100BF00020408005070706000070880810200020AC
:100C000005070706000070880868A8A87005070790
:100C1000060000708888F8888888050707060000A5
:100C2000F08888F08888F005070706000070888043
:100C300080808870050707060000F088888888880B
:100C4000F0050707060000F88080F08080F80507AF
:100C500007060000F88080F0808080050707060006
:100C600000708880B88888700507070600008888AB
:100C700088F88888880107070602008080808080C5
:100C800080800507070600003810101010906005DE
:100C900007070600008890A0C0A0908805070706F7
:100CA0000000808080808080F805070706000088AB
:100CB000D8A8888888880507070600008888C8A8FB
:100CC00098888805070706000070888888888870DB
:100CD000050707060000F08888F080808005070778
:100CE00006000070888888A890680507070600003D
:100CF000F08888F0A09088050707060000788080BB
:100D0000700808F0050707060000F82020202020C2
:100D100020050707060000888888888888700507EE
:100D20000706000088888888885020050707060085
:100D3000008888888888A8500507070600008888EA
:100D400050205088880507070600008888885020B2
:100D50002020050707060000F80810204080F8034F
:100D60000707060100E08080808080E00505050619
:100D700000018040201008030707060100E0202042
:100D8000202020E00503030600042050880501010F
:100D9000060000F80202020602058040050505066D
:100DA000000070087888780507070600008080B08A
:100DB000C88888F0050505060000708080887005E9
:100DC0000707060000080868988888780505050662
:100DD00000007088F880700507070600003048E0C2
:100DE000404040400506060600FF7088887808707D
:100DF0000507070600008080B0C8888888010707BB
:100E0000060200800080808080800308080601FFC1
:100E1000200020202020A04004070706000080803A
:100E200090A0C0A090030707060100C040404040CA
:100E300040E0050505060000D0A8A8A8A8050505FE
:100E4000060000B0C888888805050506000070887F
:100E50008888700506060600FFF08888F080800507
:100E600006060600FF78888878080805050506004C
:100E700000B0C880808005050506000070807008FD
:100E8000F00407070600004040E040404030050500
:100E90000506000088888898680505050600008812
:100EA000888850200505050600008888A8A85005F8
:100EB000050506000088502050880506060600FF3C
:100EC000888888780870050505060000F81020401D
:100ED000F80307070601002040408040402001073A
:100EE000070602008080808080808003070706015B
:100EF00000804040204040800502020600026890C9
:100F000000000006000000000006000000000006CF
:100F100000000000000600000000000600000000C5
:100F200000060000000000060000000000060000AF
:100F3000000000060000000000060000000000069F
:100F40000000000000060000000000060000000095
:100F5000000600000000000600000000000600007F
:100F6000000000060000000000060000000000066F
:100F70000000000000060000000000060000000065
:100F8000000600000000000600000000000600004F
:100F9000000000060000000000060000000000063F
:100FA0000000000000060000000000060000000035
:100FB000000600000000000600000000000600001F
:100FC0000000000600000000000600000107070600
:100FD00002008000808080808005070706000020D6
:100FE00070A8A0A87020050707060000304040E068
:100FF0004050A80505050600008870507088050758
:1010000007060000885020F820F820010707060294
:10101000008080800080808005080806000030483D
:10102000205050209060030101060107A00507072A
:10103000060000F888B8B8B888F805070706000168
:10104000700878887800F80505050600012850A08A
:101050005028050303060001F808080202020602F0
:10106000064080050707060000F888A88898A8F8B9
:10107000050101060006F8040404060003609090D0
:10108000600507070600002020F8202000F804056E
:101090000506000360902040F0030505060003E00C
:1010A00020E020E002020206020640800508080651
:1010B00000FF8888888898E8808005070706000078
:1010C00078989878181818020202060202C0C00226
:1010D00002020602FF408003050506000340C040EF
:1010E00040E0050707060001708888887000F80551
:1010F0000505060001A0502850A0050707060000BE
:101100008890A858B808080507070600008890B816
:1011100048982038050808060000C040C048D83864
:101120000808050707060000200020408088700599
:1011300008080600004020007088F8888805080824
:101140000600001020007088F8888805080806004E
:10115000002050007088F88888050808060000689C
:1011600090007088F8888805080806000050007014
:101170008888F888880508080600002050207088B4
:10118000F888880507070600003860A0B8E0A0B816
:101190000508080600FF70888080887020600508B8
:1011A00008060000402000F880F080F805080806D6
:1011B0000000081000F880F080F80508080600001C
:1011C000205000F880F080F8050707060000500066
:1011D000F880F080F8030808060100804000E04035
:1011E0004040E0030808060100204000E040404085
:1011F000E003080806010040A000E0404040E00392
:101200000707060100A000E0404040E00507070690
:101210000000704848E84848700508080600006863
:10122000900088C8A898880508080600004020702B
:101230008888888870050808060000102070888853
:10124000888870050808060000205000708888888B
:10125000700508080600006890007088888870058E
:101260000808060000500070888888887005050509
:1012700006000188502050880508080600FF1070FD
:10128000A8A8A8A870400508080600004020888883
:1012900088888870050808060000102088888888DB
:1012A000887005080806000020500088888888702B
:1012B000050808060000500088888888887005089E
:1012C000080600001020885020202020050909066B
:1012D00000FFC040704848704040E0040808060124
:1012E000FF609090A09090E0800508080600004004
:1012F0002000700878887805080806000010200093
:1013000070087888780508080600002050007008EA
:1013100078887805080806000068900070087888CA
:1013200078050707060000500070087888780508DF
:101330000806000020502070087888780506060608
:101340000000D02878A0A8500506060600FF70808F
:10135000887020600508080600004020007088F8AA
:1013600080700508080600001020007088F8807062
:101370000508080600002050007088F880700507F6
:101380000706000050007088F88070030808060106
:101390000080400040C04040E003080806010020F3
:1013A000400040C04040E003080806010040A000A3
:1013B00040C04040E0030707060100A00040C040D5
:1013C00040E0050707060000A040A01078887005DF
:1013D0000808060000689000B0C8888888050808DA
:1013E0000600004020007088888870050808060004
:1013F000001020007088888870050808060000200A
:101400005000708888887005080806000068900001
:10141000708888887005070706000050007088886B
:1014200088700505050600012000F8002005070763
:101430000600FF1070A8A8A8704005080806000064
:101440004020008888889868050808060000102059
:1014500000888888986805080806000020500088E1
:1014600088889868050707060000500088888898D3
:10147000680509090600FF102000888888F80870B0
:101480000407070601FFC04060506040E0050808FF
:101490000600FF500088888878087045737465706E
:1014A000732F6D6D004573746570732F6D6D005AE9
:1014B00073746570732F6D6D005A73746570732F3C
:1014C0006D6D005973746570732F6D6D0059737471
:1014D0006570732F6D6D005873746570732F6D6D2B
:1014E000005873746570732F6D6D00412D747261B7
:1014F00076656C00412D74726176656C00412D72C9
:1015000065747261637400412D72657472616374F5
:1015100000416D6178204500416D617820450041B2
:101520006D6178205A00416D6178205A00416D61EB
:1015300078205900416D6178205900416D61782013
:101540005800416D61782058005654726176206DC4
:10155000696E005654726176206D696E00566D6931
:101560006E00566D696E00566D6178204500566DAF
:101570006178204500566D6178205A00566D61787B
:10158000205A00566D6178205900566D61782059B7
:1015900000566D6178205800566D617820580056CD
:1015A000652D6A65726B0056652D6A65726B005613
:1015B0007A2D6A65726B00567A2D6A65726B0056D9
:1015C00078792D6A65726B005678792D6A65726B31
:1015D00000416363656C00416363656C005A204F92
:1015E0006666736574005A204F66667365740043BF
:1015F0006F6E74726F6C0046696C2E204469612EA8
:101600000046696C2E204469612E004F6666004FCB
:101610006E20004520696E206D6D3300436F6E743F
:10162000726F6C0043616E6E6F7420656E746572CC
:10163000207375626469723A2000022E2E000152F6
:10164000656672657368004D61696E004572726F00
:10165000722077726974696E6720746F20454550F7
:10166000524F4D210A00206279746573290A005394
:10167000657474696E67732053746F726564202893
:1016800000454550524F4D20636865636B73756D1F
:10169000206D69736D617463680A002062797465F6
:1016A00073290A002073746F726564207365747403
:1016B000696E677320726574726965766564202847
:1016C0000000002100240027002A0000002200253D
:1016D0000028002B00000020002300260029000223
:1016E00002020202020202040404040404040403C9
:1016F00003030303030303010101010101010101CC
:1017000002040810204080010204081020408001DB
:1017100002040810204080804020100804020100CC
:1017200000000102000000000000000403080700A0
:101730000000000000000000000000000000004B5E
:10174000494C4C45442E2000202D20496E76616C7A
:101750006964206578747275646572206E756D6257
:10176000657220210A002020506C616E6E65724205
:10177000756666657242797465733A200020467218
:101780006565204D656D6F72793A20004465632070
:10179000323820323031360A00436F6D70696C6523
:1017A000643A20004D61726C696E20426564204C81
:1017B0006576656C0A00207C20417574686F723A0A
:1017C0002000323031362D30372D33312031323A4E
:1017D000303000204C61737420557064617465640E
:1017E0003A200020312E312E302D5243370A004D41
:1017F00061726C696E0020536F6674776172652048
:1018000052657365740A00205761746368646F677A
:101810002052657365740A002042726F776E206FE4
:1018200075742052657365740A002045787465727A
:101830006E616C2052657365740A00506F77657233
:1018400055700A0073746172740A006572726F7267
:101850002077726974696E6720746F2066696C65A1
:101860000A00456E6473746F7073202563202563CE
:1018700020256320256300205A3A0020593A002091
:10188000583A00656E6473746F7073206869743AB7
:101890002000446F6E6520736176696E672066690B
:1018A0006C652E0A004D3239005344206361726426
:1018B000206F6B0A006F70656E526F6F74206661E7
:1018C000696C65640A00766F6C756D652E696E696A
:1018D00074206661696C65640A00534420696E690E
:1018E00074206661696C0A006175746F25692E67E2
:1018F000004D3234004D3233202573005772697425
:10190000696E6720746F2066696C653A20006F709D
:10191000656E206661696C65642C2046696C653A69
:1019200020006F70656E206661696C65642C2046CE
:10193000696C653A200046696C652073656C656367
:101940007465640A002053697A653A200046696C20
:1019500065206F70656E65643A20006F70656E205B
:101960006661696C65642C2046696C653A20004E9E
:101970006F772066726573682066696C653A20002F
:101980004E6F7720646F696E672066696C653A20D8
:10199000002220706F73002220706172656E743AAD
:1019A0002200535542524F5554494E452043414C15
:1019B0004C207461726765743A22004B494C4C4567
:1019C000442E2000747279696E6720746F20636101
:1019D0006C6C207375622D67636F64652066696C3B
:1019E0006573207769746820746F6F206D616E79FC
:1019F000206C6576656C732E204D4158206C6576A1
:101A0000656C2069733A004572726F723A004361E7
:101A10006E6E6F74206F70656E207375626469728C
:101A20002000544845524D414C2052554E4157419B
:101A30005900546865726D616C2052756E617761F2
:101A400079004572723A204D415854454D50004D31
:101A5000415854454D5020747269676765726564DA
:101A6000004572723A204D494E54454D50004D4943
:101A70004E54454D50207472696767657265640005
:101A80004572723A204D494E54454D5020424544CE
:101A9000004D494E54454D50207472696767657218
:101AA0006564004572723A204D415854454D5020AE
:101AB000424544004D415854454D50207472696769
:101AC000676572656400000000000000000000000F
:101AD0000000000000000000000000000000000006
:101AE00000000000000000000000000000000000F6
:101AF00000000000000000000000000000000000E6
:101B000000000000000000000000000000000000D5
:101B100000000000000000000000000000000000C5
:101B200000000000000000000000000000000000B5
:101B300000000000000000000000000000000000A5
:101B40000000000000000000000000000000000095
:101B50000000000000000000000000000000000085
:101B60000000000000000000000000000000000075
:101B70000000000000000000000000000000000065
:101B80000000000000000000000000000000000055
:101B90000000000000000000000000000000000045
:101BA0000000000000000000000000000000000035
:101BB0000000000000000000000000000000000025
:101BC0000000000000000000000000000000000015
:101BD000000000000000070000038000000000007B
:101BE0000000000000001FC0000FE07C03E0781C34
:101BF0000781E0F03E0E7FE0003FF07E07E0FC1C36
:101C00000381C1F83F0E7FF8007FF07E07E0FC1CE7
:101C100003C3C1F83F0E7BFE01FEF07F0FE1FE1C07
:101C200001C383FC3F8E7CFF87F9F0770EE1FE1C39
:101C300001E783FC3B8E7F7FCFF7F0779EE1CE1CE0
:101C400000E7039C3BCE7F9FFFCFF0739CE3CF1C4C
:101C500000FF079E39CE7FE7FF3FF073FCE3871C50
:101C6000007E070E39EE7FFBFEFFF071F8E3871C64
:101C7000007E0F0F38EE7FFCF9FFF071F8E7FF9C54
:101C8000003C0FFF38FE7FFF27FFF070F0E7FF9C5E
:101C9000003C0FFF387E7FFFDFFFF070F0EFFFDCCE
:101CA000003C1FFFB87E7FDFFFDFF07060EF03DFD7
:101CB000F83C1E07B83E7FC7FF1FF07060EE01DFE3
:101CC000F83C1C03B83E7FC3FE1FF07000EE01DF3E
:101CD000F83C1C03B81E7FC3FE1FF000000000008C
:101CE0000000000000007FC3DE1FF07FFFFFFFFF4A
:101CF000FFFFFFFFFFFE7FC3DE1FF07FFFFFFFFF41
:101D0000FFFFFFFFFFFE7FC3DE1FF07C3FFAFBFFFC
:101D1000FFFFFD7ABFFE7FC3DE1FF07D9FFBFFFF4D
:101D2000FFFFFF7EF7FE7FC3DE1FF07D931A8A1848
:101D3000E38C451AA2DE3FC3DE0FF07C2DCACAD663
:101D4000E924CD6AB6BE1F83DE07E07DA36A9AD67A
:101D5000E926656AB63E0603DE01807D910A8AD8CF
:101D6000E38C451AB37E0003DE00007FFFFFFFFE19
:101D7000EFFFFFFFFF7E0003DE00007FFFFFFFF1AC
:101D8000EFFFFFFFFEFE0003DE00007FFFFFFFFF0F
:101D9000FFFFFFFFFFFE0003DE00007FFFFFFFFFEE
:101DA000FFFFFFFFFFFE0003DE0000000000000059
:101DB0000000000000000001DC0000000000000046
:101DC00000000000000000005000000000000000C3
:101DD0000000000000000000000000000000000003
:101DE00000000000000000000000000000000000F3
:101DF00000000000000000000000000000000000E3
:101E000000000000000000000000000000000000D2
:101E100000000000000000000000000000000000C2
:101E200000000000000000000000000000000000B2
:101E300000000000000000000000000000000000A2
:101E40000000000000000000000000000000000092
:101E50000000000000000000000000000000000082
:101E60000000000000000000000000000000000072
:101E70000000000000000000000000000000000062
:101E80000000000000000000000000000000000052
:101E90000000000000000000000000000000000042
:101EA0000000000000000000000000000000000032
:101EB0000000000000000000000000000000000022
:101EC000000000000000466C6F7700466C6F7700E2
:101ED00046616E2073706565640046616E207370A4
:101EE0006565640042656400426564004E6F7A7AFD
:101EF0006C65004E6F7A7A6C65005370656564009E
:101F00005370656564004D61696E00507265686567
:101F1000617420504C4120426564005072656865D0
:101F2000617420504C4100507265706172650050C0
:101F300072656865617420414253204265640050B7
:101F4000726568656174204142530050726570612A
:101F50007265004D34323800436F6F6C646F776E7A
:101F6000005072656865617420414253005072658B
:101F70006865617420504C41004D383400446973E9
:101F800061626C65207374657070657273004D6F6B
:101F900076652061786973004732380A4732390024
:101FA000473239004C6576656C2062656400536584
:101FB0007420686F6D65206F666673657473004783
:101FC0003238205A00486F6D65205A004732382059
:101FD0005900486F6D652059004732382058004835
:101FE0006F6D65205800473238004175746F206866
:101FF0006F6D65004D61696E004D6F76652058000C
:102000004D6F76652059004D6F7665205A004578F2
:1020100074727564657200457874727564657200D7
:102020004D6F7665205A004D6F76652059004D6FD3
:1020300076652058004D6F766520617869730025BC
:102040003032693A25303269005A00590020003F89
:1020500000580009200000000000000000000000FF
:1020600000007FFFE0000000000000000000000012
:10207000007000E000000000000000000000000010
:1020800061F8600000000000000000000000004156
:10209000F82000000000000000000000000040F0F8
:1020A0002000000000000000000000000040602050
:1020B0000000000000000000000000005801A07FA8
:1020C00080000000000000004104005C63A0FFC02D
:1020D000000000000000002082005EF7A0FFC000AA
:1020E0000000000000002082005EF7A0FFC000009A
:1020F00000000000004104005C63A07F800000003D
:10210000000000008208005801A07F80000000004D
:10211000000001041000406020FFC000000000002B
:10212000000104100040F020FFC00000000000008B
:102130000082080041F820FFC000000000000000FD
:1021400041040061F8603F00000000000000000052
:1021500000007000E01E0000000000000001FFFF12
:10216000807FFFE00C0000000000000001FFFF8006
:102170000000000000000000000000000000007FE0
:10218000FFE0000000000000000000000000700000
:10219000E0000000000000000000000000630C6090
:1021A000000000000000000000000000470E2000BA
:1021B00000000000000000000000004F0F200000A1
:1021C000000000000000000000005F0FA000000001
:1021D0000000000000000000005E07A07F800000FB
:1021E0000000000000410400406020FFC00000002B
:1021F0000000000020820040F020FFC0000000002E
:1022000000000020820040F020FFC000000000001D
:1022100000004104004060207F80000000000000BA
:10222000008208005E07A07F80000000000000011F
:102230000410005F0FA0FFC00000000000000104B8
:1022400010004F0F20FFC0000000000000008208B7
:1022500000470E20FFC00000000000000041040005
:10226000630C603F000000000000000000000070F0
:1022700000E01E0000000000000001FFFF807FFF63
:10228000E00C0000000000000001FFFF80000000E3
:102290004E6F2053442063617264004D323100431D
:1022A00068616E67652053442063617264005072F8
:1022B000696E742066726F6D20534400496E6974B4
:1022C0002E20534420636172640053746F70207039
:1022D00072696E74004D323100526573756D652000
:1022E0007072696E74005061757365207072696EEA
:1022F0007400436F6E74726F6C005072657061721F
:10230000650054756E6500496E666F207363726573
:10231000656E0000060900FE0000000000010900D3
:1023200008FE000005080806000040F0C8888898EC
:102330007810050808060000C0F88888888888F8A2
:102340000505050600012030F830200508080600C4
:10235000002070F820202020E00509090600FF2059
:1023600070A8A8B8888870200509090600FFE080D9
:10237000C0B0A8283028280509090600FFF8A88859
:1023800088888888A8F8050A0A0600FE2050505060
:102390005088A8A8887003030306000340A04024C7
:1023A000F4D43050C38E20C2A24017828B70111219
:1023B0007A910D816CD90AA861E108C75866076156
:1023C0005143061E4B5D05C145A7041A411104097E
:1023D0003D9803713931034036DB0265339102D4F5
:1023E000305402802E1D02632CEE01752AC501B007
:1023F00028A001102781018F2564012B244B01E0C7
:10240000223401AC211F018D200D01801FFC0084AE
:102410001EED00971DDF00B81CD200E61BC6002091
:102420001BBC00641AB200B219A8000A19A0006A05
:10243000189900D117910040178B00B51684003110
:10244000167E00B31579003A157300C7146F005853
:10245000146A00EE1366008813630025135E00C73C
:10246000125B006C12570015125400C1115100701C
:10247000114F0021114B00D61049008D1047004626
:1024800010440002104200C00F4000800F3E004286
:102490000F3C00060F3B00CB0E3800930E37005C5C
:1024A0000E3500270E3400F30D3200C10D310090BF
:1024B0000D3000600D2E00320D2D00050D2C00D9C1
:1024C0000C2B00AE0C2900850C29005C0C27003574
:1024D0000C27000E0C2600E80B2400C40B2400A0DF
:1024E0000B23007D0B23005A0B2100390B21001810
:1024F0000B2000F80A1F00D90A1E00BB0A1E009D0F
:102500000A1D00800A1D00630A1C00470A1B002CDC
:102510000A1B00110A1A00F7091A00DD091900C484
:10252000091900AB091900920917007B091800630B
:102530000917004C09160036091600200916000A72
:10254000091500F5081500E0081400CC081400B8BF
:10255000081400A4081400900813007D0812006BF2
:10256000081300580812004608120034081100230E
:102570000811001208110001081100F0071000E016
:10258000071000D0071000C0071000B0070F00A10F
:1025900007100091070E0083070F0074070F0065F6
:1025A000070E0057070E0049070E003B070D002ECF
:1025B000070E0020070D0013070D0006070D00F998
:1025C000060C00ED060D00E0060C00D4060C00C859
:1025D000060C00BC060C00B0060C00A4060B00990B
:1025E000060C008D060B0082060B0077060B006CB4
:1025F000060B0061060A0057060B004C060A004253
:10260000060A0038060A002E060A0024060A001AE6
:10261000060A001006090007060A00FD050900F475
:10262000050900EB050900E2050900D9050900D0FC
:10263000050900C7050900BE050900B5050800AD7C
:10264000050800A50509009C050800940508008CF4
:10265000050800840508007C050800740508006C66
:10266000050700650508005D050700560508004ED2
:102670000507004705070040050800380507003139
:102680000507002A050700230507001C050600169C
:102690000507000F0507000805060002050700FBF7
:1026A000040600F5040700EE040600E8040600E254
:1026B000040700DB040600D5040600CF040600C9A9
:1026C000040600C3040600BD040600B7040600B1FA
:1026D000040500AC040600A6040600A00405009B47
:1026E00004060095040500900406008A0405008590
:1026F000040500800406007A0405007504050070D6
:102700000405006B04050066040500610405005C17
:1027100004050057040500520405004D0405004857
:10272000040500430405003E0404003A0405003596
:10273000040500300404002C0405002704040023D1
:102740000405001E0404001A040400160405001108
:102750000404000D0404000904050004040400003E
:10276000040400FC030400F8030400F4030400F074
:10277000030400EC030400E8030400E4030400E0A5
:10278000030400DC030400D8030400D4030400D0D5
:10279000030400CC030400C8030300C503030024A2
:1027A000F404D9201BC40C5C0E9804C4095F0265B4
:1027B000077101F405F900FB04B30048048700C168
:1027C0000369005803550003034500BE023A008424
:1027D00002310053022A002902250004022000E4ED
:1027E000011C00C8011900AF0117009801140084F2
:1027F000011300710110006101100051010E00432E
:10280000010D0036010B002B010B0020010B001500
:102810000109000C01090003010800FB000800F396
:10282000000800EB000700E4000600DE000600D808
:10283000000600D2000600CC000500C7000500C25B
:10284000000500BD000400B9000400B5000400B19B
:10285000000400AD000400A9000400A5000300A2CC
:102860000003009F0004009B0003009800030095F4
:1028700000020093000300900003008D0002008B13
:10288000000300880002008600020084000300812B
:102890000002007F0002007D0002007B0002007940
:1028A000000200770001007600020074000200724E
:1028B000000100710002006F0002006D0001006C59
:1028C0000002006A00010069000200670001006662
:1028D0000001006500010064000200620001006167
:1028E000000100600001005F0002005D0001005C6B
:1028F0000001005B0001005A00010059000100586E
:10290000000100570001005600010055000100546D
:10291000000100530000005300010052000100516B
:10292000000100500001004F0001004E0000004E69
:102930000001004D0001004C0001004B0000004B65
:102940000001004A00010049000100480000004861
:10295000000100470001004600000046000100455C
:102960000000004500010044000100430000004356
:10297000000100420000004200010041000000414F
:10298000000100400001003F0000003F0001003E48
:102990000000003E0001003D0000003D0001003C41
:1029A0000000003C0000003C0001003B0000003B38
:1029B0000001003A0000003A00010039000000392F
:1029C0000001003800000038000000380001003726
:1029D000000000370001003600000036000000361D
:1029E0000001003500000035000000350001003412
:1029F0000000003400000034000100330000003308
:102A000000000033000100320000003200000032FC
:102A100000010031000000310000003100010030F1
:102A200000000030000000300001002F0000002FE7
:102A30000000002F0000002F0001002E0000002EDB
:102A40000000002E0001002D0000002D0000002DD0
:102A50000000002D0001002C0000002C0000002CC4
:102A60000000002C0001002B0000002B0000002BB8
:102A70000000002B0001002A0000002A0000002AAC
:102A80000000002A000100290000002900000029A0
:102A90000000002900000029000100280000002893
:102AA0000000002800000028000000280001002786
:102AB000000000270000002700000027000000277A
:102AC000000100260000002600000026000000266D
:102AD0000000002600010025000000250000002560
:102AE0000000002500000025000000250001002452
:102AF0000000002400000024000000240000002446
:102B00000001002300000023000000230000002338
:102B10000000002300000023000000230001002229
:102B2000000000220000002200000022000000221D
:102B3000000000220001002100000021000000210F
:102B40000000002100000021000000210000002101
:102B500000010020000000200000002000000020F4
:102B600000000020000000200000002000000020E5
:102B70000001001F0000001F0000001F0000001FD8
:102B80000000001F0000001F0000001F0001001EC9
:102B90000000001E0000001E0000001E0000004D8E
:102BA000383420582059205A2045006265640A00B4
:102BB0002C2073797374656D2073746F7070656405
:102BC00021204865617465725F49443A2000486578
:102BD0006174696E67206661696C6564004865614F
:102BE00074696E67206661696C656400486561742C
:102BF000696E67206661696C656400486561746927
:102C00006E67206661696C656400100060035001A6
:102C10002C0190012201D001180110020E01700256
:102C20000401E002FA006003F0000004E600B004D2
:102C3000DC00A005D200B006C8000008BE00A00954
:102C4000B400800BAA00D00DA00090109600C01315
:102C50008C0070178200901B780010206E00C0243A
:102C60006400E02D500080353C00A03A2800A03DD3
:102C70001400003F0000A03FECFF4D6F7665203050
:102C80002E316D6D004D6F766520316D6D004D6F8D
:102C900076652031306D6D0050726570617265002F
:102CA000526573746F7265206661696C73616665E5
:102CB000004C6F6164206D656D6F72790053746FA5
:102CC0007265206D656D6F72790046696C616D6526
:102CD0006E74004D6F74696F6E0054656D7065722F
:102CE0006174757265004D61696E0050726568654A
:102CF00061742041425320636F6E660050726568B4
:102D000065617420504C4120636F6E6600504944E9
:102D10002D44005049442D44005049442D49005051
:102D200049442D49005049442D50005049442D50EC
:102D30000020082046616374002008204661637407
:102D4000002008204D6178002008204D6178002087
:102D500008204D696E002008204D696E004F6666A0
:102D6000004F6E20004175746F74656D7000466190
:102D70006E2073706565640046616E2073706565D2
:102D8000640042656400426564004E6F7A7A6C6547
:102D9000004E6F7A7A6C6500436F6E74726F6C00D0
:102DA00053746F7265206D656D6F72790042656452
:102DB00000426564004E6F7A7A6C65004E6F7A7AD5
:102DC0006C650046616E2073706565640046616ED7
:102DD0002073706565640054656D7065726174750B
:102DE00072650053746F7265206D656D6F72790046
:102DF00042656400426564004E6F7A7A6C65004EED
:102E00006F7A7A6C650046616E2073706565640048
:102E100046616E2073706565640054656D706572FF
:102E200061747572650070012C0190012701B00179
:102E30002201C0011D01F00118011002130130022E
:102E40000E016002090190020401C002FF000003AC
:102E5000FA004003F5008003F000D003EB002004EB
:102E6000E6007004E100E004DC004005D700C00586
:102E7000D2004006CD00D006C8008007C30030084D
:102E8000BE00F008B900C009B400B00AAF00B00B32
:102E9000AA00D00CA500000EA000500F9B00C0108F
:102EA00096005012910000148C00C0158700B017D6
:102EB0008200B0197D00D01B7800001E73004020F6
:102EC0006E0090226900F024640040275F00902982
:102ED0005A00E02B5500102E500020304B001032CD
:102EE0004600E033410090353C0010373700703821
:102EF0003200A0392D00B03A2800A03B2300603CEE
:102F00001E00103D1900903D1400103E0F00703E51
:102F10000A00C03E0500003F00002066697273741D
:102F2000005A0059005800486F6D652000206669FE
:102F30007273740A005A0059005800486F6D65207A
:102F4000006563686F3A0020746F6F206C6F6E6766
:102F500020657874727573696F6E2070726576651E
:102F60006E7465640A0020636F6C64206578747207
:102F70007573696F6E2070726576656E7465640A2C
:102F8000007C3C3E5E2B3D3F2F5B5D3B2C2A225C50
:102F90000048617264636F646564204465666175AE
:102FA0006C742053657474696E6773204C6F616430
:102FB00065640A0020204D383531205A005A2D50C2
:102FC000726F6265204F666673657420286D6D2987
:102FD0003A0A0020204D3230302044300A002020B0
:102FE0004D3230302044002044697361626C656466
:102FF0000A0046696C616D656E742073657474694E
:103000006E67733A0020440020490020204D333081
:10301000312050005049442073657474696E6773A1
:103020003A0A0020460020420020204D313435204D
:10303000533120480020460020420020204D3134EA
:10304000352053302048004D6174657269616C20F1
:1030500068656174757020706172616D6574657208
:10306000733A0A00205A0020590020204D32303691
:10307000205800486F6D65206F6666736574202860
:103080006D6D290A00204500205A0020580020427A
:103090000020540020204D3230352053004164760A
:1030A000616E636564207661726961626C65733A12
:1030B00020533D4D696E20666565647261746520BC
:1030C000286D6D2F73292C20543D4D696E2074722C
:1030D0006176656C20666565647261746520286D33
:1030E0006D2F73292C20423D6D696E696D756D20C1
:1030F0007365676D656E742074696D6520286D73E6
:10310000292C20583D6D6178696D756D20585920C6
:103110006A65726B20286D6D2F73292C20205A3D13
:103120006D6178696D756D205A206A65726B202813
:103130006D6D2F73292C2020453D6D6178696D756B
:103140006D2045206A65726B20286D6D2F73290AEA
:103150000020540020520020204D323034205000F6
:10316000416363656C65726174696F6E733A205078
:103170003D7072696E74696E672C20523D72657481
:103180007261637420616E6420543D74726176656F
:103190006C0A00204500205A0020590020204D32A2
:1031A00030312058004D6178696D756D2041636341
:1031B000656C65726174696F6E20286D6D2F733256
:1031C000293A0A00204500205A0020590020204DAD
:1031D0003230332058004D6178696D756D20666519
:1031E0006564726174657320286D6D2F73293A0AC6
:1031F00000204500205A0020590020204D3932205F
:10320000580053746570732070657220756E697410
:103210003A0A00526573656E643A20006F6B006273
:103220007573793A2070617573656420666F7220DA
:10323000696E7075740A00627573793A20706175F1
:1032400073656420666F7220757365720A0062751B
:1032500073793A2070726F63657373696E670A00E1
:103260004B494C4C45442E2000506C6561736520E1
:103270007265736574005052494E5445522048415E
:103280004C544544005072696E7465722068616CDC
:103290007465642E206B696C6C28292063616C6CEA
:1032A0006564210A00220A00656E7175657565699D
:1032B0006E672022000000000000000000000000F7
:1032C000005761726E696E673A20486F6D696E676C
:1032D0002042756D702044697669736F72203C20BE
:1032E000310A000000A0400000A0400000004000A3
:1032F0000048430000484300004843FFFFFF537469
:10330000616E6461726420446576696174696F6E90
:103310003A20004D65616E3A2000202020736967D5
:103320006D613A2000206D65616E3A2000202020FA
:103330007A3A2000206F662000205A002059002091
:103340005800476F696E6720746F3A00436C6F6373
:103350006B776973650A00436F756E7465722D0033
:1033600020446972656374696F6E3A2000202020E2
:10337000616E676C653A20005374617274696E67A0
:10338000207261646975733A2000506F73697469C3
:103390006F6E696E67207468652070726F62652E4B
:1033A0002E2E0A003F4E756D626572206F66206C8E
:1033B00065677320696E206D6F76656D656E74202C
:1033C0006E6F7420706C61757369626C6520283053
:1033D0002D3135292E0A00590058003F53616D7078
:1033E0006C652073697A65206E6F7420706C6175EE
:1033F0007369626C652028342D3530292E0A004D02
:103400003438205A2D50726F6265205265706561A4
:10341000746162696C69747920746573740A003F21
:10342000566572626F7365204C6576656C206E6FB1
:103430007420706C61757369626C652028302D345E
:10344000292E0A002042403A0020403A00202F0056
:1034500020423A00202F0020543A006F6B00205A7F
:103460003A0020593A0020436F756E7420583A2074
:103470000020453A00205A3A0020593A00583A00B4
:103480004E414E494E495459494E46CDCCCC3D0A49
:10349000D7233C17B7D13877CC2B329595E6241F2C
:1034A000B14F0A000020410000C84200401C4620E5
:1034B000BCBE4CCA1B0E5AAEC59D740073E1BFE37F
:1034C00011241FBECFEFD0E4DEBFCDBF13E0A0E0DC
:1034D000B1E0E6E6F9EE01E00BBF02C007900D9205
:1034E000A633B107D9F724E1A6E3B3E001C01D92EA
:1034F000AC32B207E1F71AE1CFE5DAE104C0219777
:10350000FE010E9407E8CE35D107C9F70E94C2DC50
:103510000C94A6F40C9400002F923F924F925F926D
:103520006F927F928F929F92AF92BF92CF92DF92D3
:10353000EF92FF920F931F93CF93DF93CDB7DEB738
:10354000C057D1090FB6F894DEBF0FBECDBF0091B2
:10355000CD0520E6029F80011124035B1B4F1093D1
:103560004603009345038091BB1380FF19C0A1E47B
:10357000EA2EAFE2FA2EF7018491882331F00E94FF
:1035800089A73FEFE31AF30AF6CFD8018D918D0199
:10359000882319F00E9489A7F8CF8AE00E9489A7A2
:1035A0002091450330914603F90180812F5F3F4F01
:1035B0008032D1F3F0934603E09345038E3469F0F3
:1035C00010914503009146036AE270E0812F902F2D
:1035D0000E9466EB0097D1F420C0818190ED980F96
:1035E0009A3010F08D3261F73296DF0131962C91CE
:1035F00020532A30D0F3CD01FC01019620812032E6
:10360000D9F3F0934603E0934503DACFFC013196FA
:103610008291803231F08A3221F0A12FB02F9D911A
:1036200002C01082F5CFFD01808111968032D9F35E
:1036300080538A3020F001E41FE20C947F3220E0B6
:1036400030E06AE0629FA001639F500D11249A014F
:10365000205331098191280F311D87FD3A958081D2
:1036600080538A3078F38F013196D8018C91803263
:10367000D1F3109344030093430341E050E050938F
:10368000D3134093D2139D3409F40BC4943511F431
:103690000C943832973411F00C9461322C3131058E
:1036A00009F48FC170F42430310528F4223031053B
:1036B00008F44CC03FC12430310509F444C10C94D6
:1036C00073322A35310509F438C3B0F52D3131058F
:1036D00009F4CEC22E31310511F00C9473320E94E0
:1036E0008D5520E030E048E452E46091EC057091A3
:1036F000ED058091EE059091EF050E9417E84B01D2
:103700005C0120E030E04CE052E46091E80570910B
:10371000E9058091EA059091EB050E9418E8EE24F6
:10372000E394F12C01E0A50194010E9434546B0153
:103730007C0100EB11E0A0C22B35310509F401C377
:103740002C35310509F402C30C9473328091400189
:10375000882311F40C9473320E94E54B8CED93E1B5
:103760000E948FCC0E9480508091BB1383FF16C0B3
:103770002091DC133091DD134091DE135091DF1363
:103780006091E8057091E9058091EA059091EB055B
:103790000E944FF0882309F490C0ACC08090E813D9
:1037A0009090E913A090EA13B090EB132091F405E8
:1037B0003091F5054091F6055091F705C501B4012A
:1037C0000E9417E86B017C0120E030E0A9010E9413
:1037D0004FF0882369F28091B613882331F1C70135
:1037E000B6010E9484E997FF07C090958095709577
:1037F00061957F4F8F4F9F4F6139714081059105D2
:103800000CF4B6CF8091E8139091E913A091EA13DC
:10381000B091EB138093F4059093F505A093F60512
:10382000B093F70501E41FE233C020919801309175
:10383000990140919A0150919B016091EB0F709119
:10384000EC0F8091ED0F9091EE0F0E944FF087FFEB
:10385000C6CF8092F4059092F505A092F605B0923D
:10386000F70501E41FE2F8018491882329F00E9402
:1038700089A70F5F1F4FF7CF0FE511E0F801849183
:10388000882309F4ACCF0E9489A70F5F1F4FF6CFA2
:10389000F8018491882329F00E9489A70F5F1F4FA8
:1038A000F7CF00E411E0F8018491882309F460CF98
:1038B0000E9489A70F5F1F4FF6CF2091E013309130
:1038C000E1134091E2135091E3136091EC05709184
:1038D000ED058091EE059091EF050E944FF081116A
:1038E00009C06091000170910101809102019091E5
:1038F00003011AC060912C0170912D01072E000C5C
:10390000880B990B0E9456F0209100013091010123
:1039100040910201509103010E94B5F02AE037ED79
:1039200043E25CE30E94B5F00E944F4A0E94454A80
:103930000C94733281E02230310509F080E00E945E
:103940008B500C94733280E50E94624B882329F0DF
:103950000E94B14B6B017C0103C0C12CD12C7601BC
:1039600083E50E94624B882321F00E94534C6B0137
:103970007C010E9468980E9480508091D41390919D
:10398000D513A091D613B091D713C80ED91EEA1E35
:10399000FB1E80915501811105C060E08AE791E02E
:1039A0000E948D5D0E944674DC01CB018C199D093B
:1039B000AE09BF09B7FD02C00C9473320E942ACA37
:1039C000F1CF0E9468980E9489DA0E948D5511E01B
:1039D0001093170188E50E94624BE82E89E50E944A
:1039E000624B082F8AE50E94624BF82EE11005C059
:1039F000011105C0982F912705C0011102C090E068
:103A000001C0982F9093040180E1E8EEF5E0ACED61
:103A1000B3E101900D928A95E1F7911104C0E11094
:103A200002C00023A9F120E030E040EA50E46091B8
:103A300022147091231480912414909125140E94D3
:103A400018E82091161430911714409118145091D1
:103A500019140E9418E84B015C016093E413709301
:103A6000E5138093E6139093E7132091F0053091CE
:103A7000F1054091F2055091F3050E9478EA18167D
:103A80003CF420E030E0A901C501B4010E94244AC1
:103A900080910401811102C0EE2021F080E090E0CD
:103AA0000E9400C880910401811102C0002321F00E
:103AB00081E090E00E9400C880910401811103C060
:103AC000F11036C0C7C00E948E4F80E090E0A6E99A
:103AD000B2E48093DC139093DD13A093DE13B093D4
:103AE000DF1380E090E0A6E1B3E48093E0139093CD
:103AF000E113A093E213B093E313E090F005F0908C
:103B0000F1050091F2051091F305E092E413F092B3
:103B1000E5130093E6131093E713A12CB12C650174
:103B20009C01AD0160E070E086E992E40E94F448F7
:103B300080E00E94D7A881110C94733220911A144E
:103B400030911B1440911C1450911D146091E80594
:103B50007091E9058091EA059091EB050E9417E8C4
:103B600020910E1430910F144091101450911114A3
:103B70000E9417E86B017C018090EC059090ED05A8
:103B8000A090EE05B090EF0540901E1450901F14C9
:103B9000609020147090211420911214309113140D
:103BA00040911414509115142BAF3CAF4DAF5EAF44
:103BB00020E030E04CE052EC0E9478EA87FD2FC014
:103BC00020E030E045E253E4C701B6010E944FF027
:103BD00018162CF1A3019201C501B4010E9417E847
:103BE0002BAD3CAD4DAD5EAD0E9417E86B017C0185
:103BF00020E030E048E452E40E9478EA87FD0FC0FC
:103C000020E030E04AE753E4C701B6010E944FF0DC
:103C100018162CF082E090E00E9400C81BC060E003
:103C200085E991E00E948D5D01E41FE2F801849135
:103C3000882329F00E9489A70F5F1F4FF7CF03E861
:103C400011E0F8018491882329F00E9489A70F5F71
:103C50001F4FF7CF0E948E4F8091CD138093170195
:103C600010924C040E9473550E94E4D70C94733256
:103C70000E946F340C947332F8018491882329F0E8
:103C80000E9489A70F5F1F4FF7CF20E030E04CE084
:103C900052E46091E8057091E9058091EA05909100
:103CA000EB050E9418E827E137EB41ED58E30E944D
:103CB00018E842E00E943FA80BEA11E0F801849165
:103CC000882329F00E9489A70F5F1F4FF7CF20E0BC
:103CD00030E048E452E46091EC057091ED0580918C
:103CE000EE059091EF050E9417E827E137EB41EDD3
:103CF00058E30E9418E842E00E943FA806EA11E05B
:103D0000F8018491882329F00E9489A70F5F1F4F33
:103D1000F7CF27E137EB41ED58E3C701B6010E9429
:103D200018E842E00E943FA88AE00E9489A70E940A
:103D300073550E94E4D70C947332109242030C9492
:103D4000733281E0809342030C94743285E40E94C4
:103D5000624BB82E811102C00E94689862EB862ED9
:103D600061E0962E78EEC72E75E0D72EEEE0EE2EAF
:103D7000E4E1FE2E00E010E0A12CD4018D914D0174
:103D80000E94624B8823F1F1F6012081318142814A
:103D90005381AE962FAFAE97AF963FAFAF97E096F9
:103DA0004FAFE097E1965FAFE1970E94BC4BD60121
:103DB0006D937D938D939C931397AE962FADAE9795
:103DC000AF963FADAF97E0964FADE097E1965FAD10
:103DD000E19703301105B1F00E9417E89B01AC0197
:103DE000F70160817181828193810E9418E8D70177
:103DF0006D937D938D939C931397C8010E94154BEF
:103E0000AA24A3940F5F1F4FB4E0CB0ED11CE4E0B3
:103E1000EE0EF11C0430110509F0AFCFAA2021F0FD
:103E20000E948E4F0C947332BB2011F40C947332A9
:103E30002091040630910506409106065091070630
:103E40006091F4057091F5058091F6059091F70564
:103E50000E94B5F00E9485EA6093F7107093F81005
:103E60008093F9109093FA108FB7F8944091F7105F
:103E70005091F8106091F9107091FA104093E40598
:103E80005093E5056093E6057093E7058FBF1092A8
:103E9000E7101092E8101092E9101092EA100C94BA
:103EA00073322037310509F44AC608F0B9C020330F
:103EB000310509F42EC508F05DC02831310509F43B
:103EC0006DC2B8F52231310511F40C948D29A0F49E
:103ED0002230310508F48AC12131310511F00C94EA
:103EE000733260E08AEE91E00E948D5D5E985E988C
:103EF00015985E980C9473322531310509F444C24B
:103F000040F42431310511F00C94733202E012E0D8
:103F1000FAC12631310509F43BC22731310511F0D0
:103F20000C94733240E061E0C8010E944A780C941E
:103F300073322C31310509F48FC238F42A3131053E
:103F400009F441C208F435C24CC22F31310509F4DD
:103F5000E4C330F42E31310509F485C20C94733278
:103F60002032310509F489C32A32310509F48FC49E
:103F70000C9473322C35310511F40C94912968F5A9
:103F80002135310511F40C946B2988F42C3431055A
:103F900009F4C3C42D34310509F4D9C42B343105D7
:103FA00011F00C9473320E94B4DA0C9473322335FE
:103FB000310511F40C94882910F40C9484292435CB
:103FC000310511F40C948D292535310511F00C942F
:103FD00073320E9437D90C9473322B36310511F4A9
:103FE0000C94592968F42936310509F4DBC510F021
:103FF0000C9433292836310509F4ADC40C9473327E
:104000002D36310509F4D6C508F495C52E3631058F
:1040100009F4E7C42F36310509F4F6C40C94733261
:104020002D3D310511F40C94652C08F063C0213945
:10403000310511F40C94152A98F52537310511F442
:104040000C94A02980F42237310511F40C94A62990
:1040500008F47DC52337310511F00C9473320BE55C
:1040600013E00C9495292837310511F40C94AA29F2
:1040700048F42737310511F00C9473320DE314E046
:104080000C94B7292937310511F40C94B1292C3837
:10409000310511F00C9473320E948BD90C94733259
:1040A0002B3C310511F40C942E2B80F4283C310567
:1040B00011F40C94C42A293C310511F40C940D2BF5
:1040C0002E3B310511F00C94733248C72D3C31055D
:1040D00011F40C94B52B10F40C944B2B2E3C3105A1
:1040E00011F40C94112C2C3D310511F40C94582C26
:1040F0000C9473322A39F1E03F0709F424C5A8F57E
:104100002E3251E0350711F40C94AF2D80F42C328F
:1041100091E0390711F40C94CE2C10F00C94F42C8F
:10412000223E310511F40C947E2C0C94733220390C
:10413000B1E03B0711F40C94C33038F42F32314016
:1041400011F40C941A2E0C947332213941E0340787
:1041500011F40C94C6302239314011F00C947332B2
:1041600080E00E94EA490C947332263F81E03807D0
:1041700011F40C94C93100F5243FA1E03A0711F481
:104180000C94C33110F00C94C6312C3A314011F02C
:104190000C94733228EE222E25E0322E2AE134E1EF
:1041A0003CAF2BAF4FEE5FE021965FAF4EAF219754
:1041B00000E010E00C94CA302335F3E03F0711F41F
:1041C0000C94DB3138F4273F314011F40C94CC319E
:1041D0000C947332203A83E0380709F494C2273EE6
:1041E000334011F40C9428320C94733280E50E9411
:1041F000624B882361F00E94B14B6B017C01BB24B0
:10420000B394672B682B692B31F4B12C04C0B12C0B
:10421000C12CD12C760183E50E94624B882399F052
:104220000E94534C6B017C01B1100FC0672B682BAF
:10423000692B59F4D8018C91882339F061E0C801C9
:104240000E94A25D07C0BB20A9F360E089ED91E068
:104250000E948D5D81E080935A0A1092590A0E9453
:1042600068980E948050C114D104E104F10439F12E
:104270008091D4139091D513A091D613B091D713F8
:10428000C80ED91EEA1EFB1E83E090E09093D31364
:104290008093D2130E944674DC01CB018C199D09D6
:1042A000AE09BF09B7FD02C00C94AA328091BF03CA
:1042B00082FF02C00C94AA320E942ACAEBCF83E08C
:1042C00090E09093D3138093D2138091BF0382FD2B
:1042D00003C00E942ACAF9CF81E090E09093D313E3
:1042E0008093D21380912B1160E0882331F088EB0A
:1042F00091E00E948D5D0C94733287EC91E00E94F6
:104300008D5D0C947332F8018491882329F00E940A
:1043100089A70F5F1F4FF7CF1092B1131092B01300
:1043200040E050E0BA018CE591E10E94A66E8BE17D
:10433000ECE5F1E1DE01159601900D928A95E1F729
:1043400080915A1190915B119C838B8386E392E05C
:104350009A83898340E050E0BE016F5F7F4F85E321
:1043600093E00E941976CE0101960E94A9C903EF3D
:1043700011E0F8018491882311F40C9473320E94A7
:1043800089A70F5F1F4FF5CF0E94CB7B0C94733230
:1043900010922B1110922C110C94733280912C11CD
:1043A000882319F081E080932B110E94B4DA0C94D9
:1043B000733280912B11882311F40C947332109274
:1043C0002B110C94733280912C11882311F40C94CE
:1043D000733283E50E94624B81110C9463320C941A
:1043E000733280912C11811103C005E212E029C0C3
:1043F00003E112E0F8018491882329F00E9489A743
:104400000F5F1F4FF7CF6091A7137091A813809192
:10441000A9139091AA134AE00E9490A78FE20E94EC
:1044200089A76091A3137091A4138091A513909113
:10443000A6134AE00E9490A78AE00E9489A70C94E4
:104440007332F8018491882311F40C9473320E9422
:1044500089A70F5F1F4FF5CF40E060E0C8010E94C1
:104460004A780C94733280912C11882311F40C94A7
:10447000733286EF92E10E94736E86EF92E10E94A2
:1044800070BB10922A1110922911C0904303D09052
:10449000440380912C11882311F40C94733286EF1D
:1044A00092E10E9470BB10922B111D8218861C8213
:1044B0001B8286E392E09A83898388E591E1909359
:1044C000781180937711D6018C91FE01B0967F010F
:1044D0008F3209F05EC06FE270E0C6010E9466EBA9
:1044E0008C010F5F1F4F9E012F5F3F4F4901011548
:1044F000110509F454C06FE270E0C8010E9466EB38
:104500005C01009709F44CC00817190708F048C06F
:104510003C01601A710AA301B801C7010E948FEB28
:10452000F701E60DF71D10828701D8018D918D01ED
:10453000882319F00E9489A7F8CF8AE00E9489A7F2
:1045400060917711709178116115710511F06C5FB0
:104550007F4F21E0A701CE0105960E94A2BF8111E5
:1045600010C0A701FF0C660B770B8CE592E00E9450
:10457000A74F8EE20E9489A7C4010E94A9C90C948A
:104580007332909278118092771185010F5F1F4FDF
:10459000AECF89E791E190937811809377118601EE
:1045A00060917711709178116115710511F06C5F50
:1045B0007F4F18A21BA222E0A801C7010E94A2BF40
:1045C000811102C0D12C12C0C7010E94EEA988231C
:1045D000C9F361E0C7010E9479BB009799F325EE0A
:1045E000FC0120831BA20E947F6CD82EC7010E9471
:1045F0005750D11005C054E4E52E52E0F52E22C0EC
:1046000046E3E42E42E0F42EF7018491882331F052
:104610000E9489A7FFEFEF1AFF0AF6CFD8018D910C
:104620008D01882319F00E9489A7F8CF8AE00E94A3
:1046300089A71092A7131092A8131092A913109291
:10464000AA1315C0F7018491882331F00E9489A72D
:10465000BFEFEB1AFB0AF6CFD8018D918D018823AD
:1046600019F00E9489A7F8CF8EE20E9489A7CE0197
:1046700001960E94A9C90C94733280912B1181116B
:104680000E946898009143031091440361E270E036
:10469000C8010E9466EB009719F08C010F5F1F4F55
:1046A00080E50E94624B882349F0FF24F3948091B7
:1046B0003603909137038017910708F0F12C809111
:1046C0002C11882311F40C9473324F2D61E0C80132
:1046D0000E944A7883E50E94624B882349F08091CA
:1046E0003603909137038017910710F40C94B6327B
:1046F00080912C11882319F081E080932B11F11007
:104700000C94733252CE81E080932A1140E060E035
:10471000C8010E944A780C9473320E9470AC3CE34A
:10472000C32ED12CE12CF12CA70196010E9443F459
:10473000762E672ECA01B901A70196010E9443F4A3
:104740006B017C01CA01B90128E130E040E050E092
:104750000E9443F44B015C01C9016DE671E00E94C7
:10476000DFE78E010F5F1F4F6115710599F06F92A2
:104770007F92DF92CF929F928F929F938F937F939E
:104780006F9388E992E09F938F931F930F930E94FA
:104790001FF012C00097B1F06F927F92DF92CF921C
:1047A0009F928F929F938F9388E892E09F938F932D
:1047B0001F930F930E941FF00FB6F894DEBF0FBE39
:1047C000CDBF36C081149104A104B10479F06F9279
:1047D0007F92DF92CF929F928F928CE792E09F938D
:1047E0008F931F930F930E941FF0E6CFC114D10443
:1047F000E104F10469F06F927F92DF92CF9284E737
:1048000092E09F938F931F930F930E941FF0D4CF3A
:104810006F927F9280E792E09F938F931F930F9305
:104820000E941FF00F900F900F900F900F900F901D
:1048300060E0C8010E94A25D21E4E22E2FE2F22E88
:10484000F7018491882331F00E9489A79FEFE91A2C
:10485000F90AF6CF9CEAE92E92E0F92EF70184914D
:10486000882331F00E9489A7FFEFEF1AFF0AF6CFE5
:10487000D8018D918D01882319F00E9489A7F8CF66
:104880008AE00E9489A70E945D500C94733283E5F0
:104890000E94624B882311F40C9473320E94A44B43
:1048A0007C018F3F910519F010F00C94733280E574
:1048B0000E94624B882339F00E94A44B8C0197FF21
:1048C00004C00C9473320BE110E0E6EBF1E081914F
:1048D00091910817190711F40C94733222E0E63015
:1048E000F207A9F761E0802F0E945E736E2D802F82
:1048F0000E942E73B701802F0E949A730430110515
:1049000011F00C947332F092C70FE092C60F0C9422
:1049100073320E9469CD0C94733280911B11909177
:104920001C11019711F00C94733282E090E0909387
:104930001C1180931B110E94467460932511709383
:10494000261180932711909328110C9473320E94A2
:1049500080AA0C94733288E690E00E941350811173
:104960000C9473328091BB1383FF02C00C9473329A
:1049700083E50E94624B882311F40C9473320E94E9
:10498000BC4B0E9484E97093EA0F6093E90F0E9488
:104990009EA90E94BC4B20E030E04AEA52E40E940B
:1049A0004FF018163CF00E9480AA60E084EC92E080
:1049B0000E948D5D0E94BC4B2091EB0F3091EC0F5B
:1049C0004091ED0F5091EE0F0E9478EA181614F006
:1049D0000C94733260E089EB92E00E948D5D0C9440
:1049E00073328EE40E94624B882311F40C9473326C
:1049F0000E94DBDB609338037093390380933A03A2
:104A000090933B030C94733283E50E94624B88239E
:104A100019F00E94754B01C080E08093BB1301E444
:104A20001FE2F8018491882329F00E9489A70F5F73
:104A30001F4FF7CF04EE12E0F8018491882329F08C
:104A40000E9489A70F5F1F4FF7CF8091BB13882368
:104A500089F186EDE82E82E0F82E00E010E020E0FB
:104A60008091BB1390E0002E02C0959587950A9423
:104A7000E2F780FF16C0BB24B394B20E222319F0D4
:104A80008CE20E9489A7F701C590D490F601849129
:104A9000882331F00E9489A7FFEFCF1ADF0AF6CFF3
:104AA0002B2D0F5F1F4FF2E0EF0EF11C05301105AB
:104AB000B9F63CC000EE12E0F80184918823B1F110
:104AC0000E9489A70F5F1F4FF7CF80E20E9489A73E
:104AD0008AE50E94624B882311F40C941A320E94DA
:104AE000BC4B6B017C0120E030E040EA51EC0E94BD
:104AF00078EA87FF02C00C94F33120E030E040EA0E
:104B000051E4C701B6010E944FF0181614F40C943A
:104B1000F331C0920F04D0921004E0921104F0928D
:104B2000120442E0C701B6010E943FA88AE00E9439
:104B300089A70C94733210923A010C9473328BEE65
:104B400092E00E94BBC90E94B7D70C94733283E5F0
:104B50000E94624B882369F00E94754B8093A001EC
:104B60008D3310F40C9473328CE38093A0010C9479
:104B7000733201E41FE2F8018491882329F00E9436
:104B800089A70F5F1F4FF7CF4091A00150E060E071
:104B900070E084EF92E00E94A74F8AE00E9489A70C
:104BA0000C9473320E9421DA1092D3131092D21314
:104BB0000C9455348DE690E00E94135081110C94B2
:104BC00073328091BB1383FF02C00C94733283E570
:104BD0000E94624B24968FAF2497811105C082E515
:104BE0000E94624B8823C1F10E94BC4B0E9484E961
:104BF0007093EA0F6093E90F0E949EA90E94BC4B3C
:104C000020E030E04AEA52E40E944FF0181614F413
:104C10000C94C8320E9480AA60E08BE193E00E946D
:104C20008D5D6091E90F7091EA0F072E000C880BE3
:104C3000990B0E9456F02091EB0F3091EC0F4091B0
:104C4000ED0F5091EE0F0E9478EA18162CF460E0F8
:104C500080E193E00E948D5D86E40E94624B809328
:104C6000C50F882351F00E94BC4B6093490170939B
:104C70004A0180934B0190934C0183E50E94624B63
:104C8000882351F00E94BC4B6093510170935201F4
:104C9000809353019093540182E40E94624B8823D5
:104CA00051F00E94BC4B60934D0170934E01809374
:104CB0004F019093500181E080933A011092D313F9
:104CC0001092D21323961CAE1DAE1EAE1FAE2397BC
:104CD00029961CAE1DAE1EAE1FAE29971BAE2A969E
:104CE0001FAE2A97FCE32B96FFAF2B972CE12C9657
:104CF0002FAF2C9736E42E963FAF2E97C12CD12C98
:104D000010E8E12E0FEBF02E812C912C54016091D4
:104D1000E90F7091EA0F072E000C880B990B0E9487
:104D200056F0162F072F782E692E262F372F482F53
:104D3000592FB601C7010E944FF0882301F120913D
:104D4000EB0F3091EC0F4091ED0F5091EE0F612F72
:104D5000702F872D962D0E944FF0881F8827881F5F
:104D60008BAF24964FAD2497442369F0882359F0E4
:104D700060E08BEF92E00E948D5D0C9473321C2DED
:104D80000D2D7E2C6F2C0E9446746B017C01DC0182
:104D9000CB0129962CAD3DAD4EAD5FAD2997821B61
:104DA000930BA40BB50BB7FD49C0D701C6018851C1
:104DB0009C4FAF4FBF4F29968CAF9DAFAEAFBFAFEB
:104DC00029970E949FD9BCE04B2EB3E05B2EF201E5
:104DD0008491882331F00E9489A79FEF491A590ACC
:104DE000F6CF81149104A104B104D1F0D501C4011E
:104DF000805F984DAF4FBF4FBC01CD016C197D094D
:104E00008E099F0928EE33E040E050E00E9443F411
:104E1000CA01B9010E9417A88AE00E9489A70EC0A2
:104E2000A9E04A2EA3E05A2EF2018491882331F0A2
:104E30000E9489A7FFEF4F1A5F0AF6CF0E942ACA85
:104E40000E9480502090EB0F3090EC0F4090ED0FBF
:104E50005090EE0F9101A201612F702F872D962D9A
:104E60000E9417E89F7781149104A104B10449F4CA
:104E700020E030E040E85FE30E944FF087FF0BC086
:104E800008C020E030E040E450E40E9478EA1816C0
:104E900014F446015701FBADFF2309F443C02396E8
:104EA0002CAD3DAD4EAD5FAD2397211531054105CC
:104EB000510541F0D701C601821B930BA40BB50B22
:104EC000B7FD30C09101A2012A966FAD2A972B96AB
:104ED0007FAD2B972C968FAD2C972E969FAD2E974E
:104EE0000E9417E820E030E040EC5FE30E944FF0C2
:104EF00087FD3ECFD701C601805A9541AF4FBF4FC6
:104F000023968CAF9DAFAEAFBFAF23972A962FAE3F
:104F10002A972B963FAE2B972C964FAE2C972E961A
:104F20005FAE2E9780913A01882309F421CF811436
:104F30009104A104B10429F4C12ED02EE72CF62C43
:104F4000E6CE90E1C91A97E2D90AE108F108C8183B
:104F5000D908EA08FB08F7FE0BCFEECF8091BB1310
:104F600083FF02C00C94733260E08EE393E00E94F2
:104F70008D5D83E50E94624B24968FAF249781114B
:104F800005C082E50E94624B8823B1F00E94BC4BB1
:104F90000E9484E97093C90F6093C80F0E946C84CB
:104FA0000E94BC4B20E030E040EA50E40E9478EAE6
:104FB000181614F40E94B4DA81E080933A0110923A
:104FC000D3131092D21380913D0380933C03239618
:104FD0001CAE1DAE1EAE1FAE239729961CAE1DAE95
:104FE0001EAE1FAE29971BAE2A961FAE2A97ACE3C2
:104FF0002B96AFAF2B97BCE12C96BFAF2C97E6E476
:105000002E96EFAF2E97C12CD12CE0E8EE2EFFEBC1
:10501000FF2E812C912C54016091C80F7091C90F03
:10502000072E000C880B990B0E9456F0162F072FA5
:10503000782E692E262F372F482F592FB601C701FA
:105040000E944FF0882301F12091550A3091560AB1
:105050004091570A5091580A612F702F872D962D35
:105060000E944FF0881F8827881F8BAF2496FFADC2
:105070002497FF2369F0882359F060E08DE293E0E4
:105080000E948D5D0C9473321C2D0D2D7E2C6F2C87
:105090000E9446746B017C01DC01CB0129962CAD8A
:1050A0003DAD4EAD5FAD2997821B930BA40BB50BA5
:1050B000B7FD49C0D701C60188519C4FAF4FBF4FC4
:1050C00029968CAF9DAFAEAFBFAF29970E949FD9F5
:1050D0007AE3472E73E0572EF2018491882331F052
:1050E0000E9489A79FEF491A590AF6CF81149104AB
:1050F000A104B104D1F0D501C401805F984DAF4F38
:10510000BF4FBC01CD016C197D098E099F0928EEA6
:1051100033E040E050E00E9443F4CA01B9010E942C
:1051200017A88AE00E9489A70EC067E3462E63E0B5
:10513000562EF2018491882331F00E9489A7FFEF57
:105140004F1A5F0AF6CF0E942ACA0E948050209010
:10515000550A3090560A4090570A5090580A9101CB
:10516000A201612F702F872D962D0E9417E89F773F
:1051700081149104A104B10449F420E030E040E836
:105180005FE30E944FF087FF0BC008C020E030E0D3
:1051900040E450E40E9478EA181614F446015701DE
:1051A000FBADFF2309F443C023962CAD3DAD4EADBE
:1051B0005FAD2397211531054105510541F0D70118
:1051C000C601821B930BA40BB50BB7FD30C0910138
:1051D000A2012A966FAD2A972B967FAD2B972C961E
:1051E0008FAD2C972E969FAD2E970E9417E820E04A
:1051F00030E040EC5FE30E944FF087FD3ECFD701E7
:10520000C601805A9541AF4FBF4F23968CAF9DAFDB
:10521000AEAFBFAF23972A962FAE2A972B963FAEFD
:105220002B972C964FAE2C972E965FAE2E97809193
:105230003A01882309F421CF81149104A104B10417
:1052400029F4C12ED02EE72CF62CE6CE90E1C91A17
:1052500097E2D90AE108F108C818D908EA08FB085A
:10526000F7FE0BCFEECF83E50E94624B882321F03F
:105270000E94CEDB8C0102C00FEF10E080E50E949F
:10528000624B882319F00E94CEDB02C080E090E0E0
:1052900098010F3F110519F010F02FEF30E0892B26
:1052A00011F00C9473323093C70F2093C60F0C94F7
:1052B000733280E50E94624B811106C01092C70FC5
:1052C0001092C60F0C9473320E94CEDB892B11F022
:1052D0000C947332F3CF0E94BC840E9468980E94A1
:1052E000B1C91092C70F1092C60F68EE73E080E04C
:1052F00090E00E940C7460E08BE493E00E948D5D6E
:105300000E94B35D0C947332109241030C9473327B
:1053100081E0809341030C9474320E9447D90C942D
:1053200073320E949CD80C947332F80184918823C4
:1053300011F40C9473320E9489A70F5F1F4FF5CFB1
:1053400060E0C8010E94A25D0C9473320E94E4D711
:105350000C94733281E0809317018093CD130C94E9
:105360007432109217011092CD130C947332F8011D
:105370008491882329F00E9489A70F5F1F4FF7CFE0
:1053800005E314E0F8018491882329F00E9489A79D
:105390000F5F1F4FF7CF329B03C008E812E002C037
:1053A0000DE812E0D8018D918D01882319F00E943B
:1053B00089A7F8CF8AE00E9489A70DE214E0F801DE
:1053C0008491882329F00E9489A70F5F1F4FF7CF90
:1053D000339B03C008E812E002C00DE812E0D801D8
:1053E0008D918D01882319F00E9489A7F8CF8AE05A
:1053F0000E9489A705E214E0F8018491882329F02E
:105400000E9489A70F5F1F4FF7CF349B03C008E8A6
:1054100012E002C00DE812E0D8018D918D018823C1
:1054200009F484CB0E9489A7F7CF83E50E94624BE1
:105430008823F9F00E94A44B8230C0F007E01AE103
:10544000F8018491882329F00E9489A70F5F1F4FDC
:10545000F7CF07E514E0F8018491882311F40C9448
:1054600073320E9489A70F5F1F4FF5CF813009F477
:1054700046C088E40E94624B882391F00E94A44BAE
:105480008A3A91053CF08530F1E09F072CF084E0EA
:1054900091E002C08AEA90E09093CD0F8093CC0F08
:1054A00086E40E94624B882381F00E94A44B8F3FC8
:1054B000910519F014F08FEF90E097FF02C080E0A3
:1054C00090E09093CF0F8093CE0F82E40E94624BC6
:1054D000882311F40C9473320E94A44B85309105FB
:1054E00034F0883891052CF087E890E002C085E020
:1054F00090E09093CB0F8093CA0F0C94733288E4A2
:105500000E94624B882391F00E94A44B8A3A910535
:105510003CF0853021E092072CF084E091E002C05D
:105520008AEA90E09093D30F8093D20F86E40E9492
:10553000624B882381F00E94A44B8F3F910519F0A4
:1055400014F08FEF90E097FF02C080E090E090931E
:10555000D50F8093D40F82E40E94624B882311F40C
:105560000C9473320E94A44B8530910534F0883836
:1055700091052CF087E890E002C085E090E09093E0
:10558000D10F8093D00FAFC788EC90E00E941350EA
:105590008111A9C784E40E94624B882309F4A3C740
:1055A0000E94BC4B11E020E030E0A9010E944FF0C6
:1055B000811101C010E010931304112359F10091DF
:1055C0003C0310E00E94BC4B000F111F000F111F85
:1055D000F801E75FFE4F608371838283938320E04D
:1055E00030E0A9016091090170910A0180910B01DD
:1055F00090910C010E944FF081110CC080E090E06E
:10560000A0E4B0E48093090190930A01A0930B01F8
:10561000B0930C010E94ADC766C737EDE32E33E0AF
:10562000F32E02EB11E044E0D42ED00ED8018D9180
:105630008D010E94624B882349F00E94BC4B0E945E
:105640008BE9F7016083718382839383F4E0EF0E2B
:10565000F11CD012EBCF0E9422AD45C79FEEE92E80
:1056600093E0F92E02EB11E024E0D22ED00ED80107
:105670008D918D010E94624B882339F00E94BC4BB2
:10568000F7016083718382839383F4E0EF0EF11C52
:10569000D012EDCF28C783E50E94624B8823D9F052
:1056A0000E94BC4BAB01BC0140930B0450930C0413
:1056B00060930D0470930E044093CF035093D00376
:1056C0006093D1037093D20383ED94E00E94DF4F87
:1056D0008AE00E9489A780E50E94624B882399F0A6
:1056E0000E94BC4BAB01BC0140930B0450930C04D3
:1056F00060930D0470930E0486EB94E00E94DF4FDC
:105700008AE00E9489A782E50E94624B882399F073
:105710000E94BC4BAB01BC014093D3035093D40314
:105720006093D5037093D60387E994E00E94DF4F1E
:105730008AE00E9489A784E50E94624B882309F4CD
:10574000D2C60E94BC4BAB01BC014093CF03509327
:10575000D0036093D1037093D20389E794E00E9451
:10576000DF4F8AE00E9489A7BEC683E50E94624B94
:10577000882351F00E94BC4B6093EB037093EC03C1
:105780008093ED039093EE0384E50E94624B88239F
:1057900051F00E94BC4B6093E7037093E803809341
:1057A000E9039093EA0382E40E94624B882351F05C
:1057B0000E94B14B6093B7137093B8138093B913E1
:1057C0009093BA1388E50E94624B882351F00E949F
:1057D000BC4B609307047093080480930904909372
:1057E0000A048AE50E94624B882351F00E94BC4B58
:1057F000609303047093040480930504909306045B
:1058000085E40E94624B882309F46DC60E94BC4B5C
:105810006093FF037093000480930104909302044B
:1058200062C612EBA12E11E0B12E08EEC02E05E0EB
:10583000D02E8AE1E82E84E1F82E00E010E0D501B8
:105840008D915D010E94624B882311F10E94BC4B37
:105850002B013C01F70120813181428153810E945B
:1058600017E89B01AC01D6016D917D918D919C91C2
:105870000E9418E8F6016083718382839383D701C5
:105880004D925D926D927C921397C8010E94154BC8
:105890000F5F1F4FB4E0CB0ED11CE4E0EE0EF11C05
:1058A0000330110561F60E948E4F0E94E4D71BC69B
:1058B00083E50E94624B882309F415C60E94A44B1D
:1058C00090932D0180932C010EC68DED90E00E94E7
:1058D0001350811108C683E50E94624B882309F4A6
:1058E00002C600913C0310E00E94A44B000F111F60
:1058F000F801E65DFE4F91838083F5C580E50E9447
:10590000624B882309F4EFC50E94A44B8C0183E508
:105910000E94624B882321F00E94A44B7C0103C0AB
:10592000EE24EA94FE2CC7010196039708F0DBC52C
:10593000E6EBF1E0819191918017910709F4D3C5CD
:1059400022E0E630F207B1F717FDCDC50E94689856
:10595000D02E60E0802F0E945E733FEFE316F306C7
:1059600031F0EA94EF2871F401E010E00DC0802FCF
:105970000E9499DC31E020E0892B09F030E0032F10
:10598000122F02C000E010E08D2D0E9499DC8017DC
:10599000910709F4A8C50E942ACAF6CF83E50E94A0
:1059A000624B882319F00E94CEDB02C084E091E0B4
:1059B00099A388A380E50E94624B882349F00E9446
:1059C000CEDB893853E1950728F088E893E102C0DF
:1059D00088EE93E09A838983BE01605E7F4FCE019B
:1059E00001960E943CAC7FC585E40E94624B811108
:1059F00010C080E50E94624B882399F00E94BC4B46
:105A0000609341017093420180934301909344015C
:105A100008C00E94A44B181619065CF707E01AE1AB
:105A200089C089E40E94624B882381F00E94BC4BAC
:105A30002CE933E549E45EE30E94B5F0609313017D
:105A400070931401809315019093160184E40E94D1
:105A5000624B882381F00E94BC4B2CE933E549E47A
:105A60005EE30E9412E960934501709346018093C2
:105A70004701909348010E94339801E41FE2F80126
:105A80008491882329F00E9489A70F5F1F4FF7CFC9
:105A900003E015E0F8018491882329F00E9489A78A
:105AA0000F5F1F4FF7CF60914101709142018091CC
:105AB00043019091440142E00E943FA80FEF14E09F
:105AC000F8018491882329F00E9489A70F5F1F4F56
:105AD000F7CF2CE933E549E45EE36091130170915F
