:100000000C94E9190C94131A0C94131A0C94131AE7
:100010000C94131A0C94131A0C94131A0C94131AAC
:100020000C94131A0C94131A0C94131A0C94131A9C
:100030000C94131A0C949D5B0C94131A0C94131AC1
:100040000C94131A0C94F73C0C94BF780C94131A6C
:100050000C9410470C94131A0C94131A0C94131A42
:100060000C94131A0C94131A0C94131A0C94131A5C
:100070000C94131A0C94131A0C94131A0C94131A4C
:100080000C94131A0C94131A0C94131A483D573DF0
:10009000763D853DA03DA53DA83DAD3DB03DB53D7E
:1000A000B83DBD3DC73D2E783378387842787078BA
:1000B00070784C7854785C786678A59CA89C9B9C5A
:1000C0009F9CBF9CBF9CAC9CB09CB69CBA9C084AB1
:1000D000D73B3BCE016E84BCBFFDC12F3D6C74315C
:1000E0009ABD56833DDA3D00C77F11BED9E4BB4CB3
:1000F0003E916BAAAABE000000803F05A84CCDB27D
:10010000D44EB93836A9020C50B9918688083CA65D
:10011000AAAA2ABE000000803F00434F4D4D554E15
:1001200049434154494F4E0044525952554E00459F
:1001300052524F525300494E464F004543484F00DC
:1001400020746F6F206C6F6E6720657874727573A2
:10015000696F6E2070726576656E7465640A002042
:10016000636F6C6420657874727573696F6E20704C
:10017000726576656E7465640A0047322F473320D6
:1001800062616420706172616D65746572730A00EA
:10019000536C6565702E2E2E00205A3A200020598F
:1001A0003A200042656420583A20004E6F206D6F5F
:1001B00076652E00456E642066696C65206C6973F7
:1001C000740A00426567696E2066696C65206C6917
:1001D00073740A005344207072696E74696E6720EC
:1001E0006279746520004E6F7420534420707269E8
:1001F0006E74696E670A0046696C652064656C659B
:100200007465643A0044656C6574696F6E2066615C
:10021000696C65642C2046696C653A20006F7065D6
:100220006E206661696C65642C2046696C653A20B5
:10023000002569730025696D2025697300256968AB
:100240002025696D2025697300256964202569686A
:100250002025696D20256973002569792025696449
:10026000202569682025696D202569730050726911
:100270006E742074696D653A200050726F74656306
:100280007465642050696E0A0048656174696E6720
:100290002E2E2E004D616C79616E204D313530204F
:1002A00072656164792E003B0136012F0128011A25
:1002B000016F66660044454255473A004B494C4C35
:1002C00045442E20004D3131332053006F6B0048E0
:1002D000656174696E6720646F6E652E003F0A0069
:1002E00020573A0048656174696E672E2E2E004DC6
:1002F000616C79616E204D313530207265616479B1
:100300002E0042656420646F6E652E003F0A002057
:10031000573A004265642048656174696E672E0033
:100320004D616C79616E204D313530204F66662EFF
:10033000004649524D574152455F4E414D453A4D59
:1003400061726C696E20312E312E302D524338206F
:100350004275674669782036204465632032303123
:100360003620284769746875622920534F555243D7
:10037000455F434F44455F55524C3A6874747073FF
:100380003A2F2F6769746875622E636F6D2F4D6108
:10039000726C696E4669726D776172652F4D61721C
:1003A0006C696E2050524F544F434F4C5F5645522C
:1003B00053494F4E3A312E30204D414348494E4526
:1003C0005F545950453A4D616C79616E204D31351D
:1003D000302045585452554445525F434F554E5472
:1003E0003A3120555549443A636564653261326655
:1003F0002D343161322D343734382D396231322D7C
:100400006335356336326633363766660A007A5F9F
:100410006D696E3A2000795F6D696E3A2000785FF1
:100420006D696E3A20005265706F7274696E672054
:10043000656E6473746F70207374617475730A00F1
:100440004D31343520533C696E6465783E206F75BC
:1004500074206F662072616E67652028302D312907
:100460000A0053657474696E672054726176656C16
:1004700020416363656C65726174696F6E3A200038
:1004800053657474696E6720526574726163742079
:10049000416363656C65726174696F6E3A200053E5
:1004A000657474696E67205072696E74204163636D
:1004B000656C65726174696F6E3A2000536574747F
:1004C000696E67205072696E7420616E6420547288
:1004D0006176656C20416363656C65726174696FF8
:1004E0006E3A2000205A00205900580020204D610B
:1004F000783A2000205A00205900580020204D69E9
:100500006E3A20004F6E20004F666600536F66748F
:1005100020656E6473746F70733A200020643A0033
:1005200020693A0020703A0043290A0061626C6534
:100530006420286D696E2074656D702000436F6CB7
:10054000642065787472756465732061726520003B
:1005500023646566696E65202044454641554C54C8
:100560005F4B64200023646566696E652020444506
:100570004641554C545F4B69200023646566696EA3
:1005800065202044454641554C545F4B7020005037
:100590004944204175746F74756E652066696E6993
:1005A00073686564212050757420746865206C61DF
:1005B0007374204B702C204B6920616E64204B6457
:1005C00020636F6E7374616E74732066726F6D203A
:1005D00062656C6F7720696E746F20436F6E666919
:1005E0006775726174696F6E2E680A005049442005
:1005F0004175746F74756E65206661696C65642100
:100600002074696D656F75740A0050494420417506
:10061000746F74756E65206661696C656421205421
:10062000656D706572617475726520746F6F206896
:100630006967680A00204B643A2000204B693A2021
:1006400000204B703A20000A20436C617373696389
:1006500020504944200A002054753A2000204B7550
:100660003A2000206D61783A2000206D696E3A20B2
:100670000020643A200020626961733A20004E6FC6
:100680002063617365206C696768740A0041637454
:100690006976652045787472756465723A200055F4
:1006A0006E6B6E6F776E20636F6D6D616E643A2056
:1006B0002200544845524D414C2052554E4157411D
:1006C0005900546865726D616C2052756E61776176
:1006D00079004572723A204D415854454D502042A0
:1006E0004544004572723A204D415854454D5000E2
:1006F0004D415854454D5020747269676765726565
:1007000064004572723A204D494E54454D50204286
:100710004544004572723A204D494E54454D5000B3
:100720004D494E54454D5020747269676765726536
:100730006400000000000000000000000000000055
:1007400000000000000000000000000000000000A9
:100750000000000000000000000000000000000099
:100760000000000000000000000000000000000089
:100770000000000000000000000000000000000079
:100780000000000000000000000000000000000069
:100790000000000000000000000000000000000059
:1007A0000000000000000000000000000000000049
:1007B0000000000000000000000000000000000039
:1007C0000000000000000000000000000000000029
:1007D0000000000000000000000000000000000019
:1007E0000000000000000000000000000000000009
:1007F00000000000000000000000000000000000F9
:1008000000000000000000000000000000000000E8
:1008100000000000000000000000000000000000D8
:1008200000000000000000000000000000000000C8
:1008300000000000000000000000000000000000B8
:10084000000007000003800000000000000000001E
:1008500000001FC0000FE07C03E0781C0781E0F07F
:100860003E0E7FE0003FF07E07E0FC1C0381C1F8F4
:100870003F0E7FF8007FF07E07E0FC1C03C3C1F849
:100880003F0E7BFE01FEF07F0FE1FE1C01C383FCE7
:100890003F8E7CFF87F9F0770EE1FE1C01E783FCB9
:1008A0003B8E7F7FCFF7F0779EE1CE1C00E7039C65
:1008B0003BCE7F9FFFCFF0739CE3CF1C00FF079ED2
:1008C00039CE7FE7FF3FF073FCE3871C007E070E05
:1008D00039EE7FFBFEFFF071F8E3871C007E0F0FFF
:1008E00038EE7FFCF9FFF071F8E7FF9C003C0FFF4A
:1008F00038FE7FFF27FFF070F0E7FF9C003C0FFF02
:10090000387E7FFFDFFFF070F0EFFFDC003C1FFF61
:10091000B87E7FDFFFDFF07060EF03DFF83C1E077B
:10092000B83E7FC7FF1FF07060EE01DFF83C1C038C
:10093000B83E7FC3FE1FF07000EE01DFF83C1C03E1
:10094000B81E7FC3FE1FF000000000000000000082
:1009500000007FC3DE1FF07FFFFFFFFFFFFFFFFFF1
:10096000FFFE7FC3DE1FF07FFFFFFFFFFFFFFFFFE4
:10097000FFFE7FC3DE1FF07C3FFAFBFFFFFFFD7A27
:10098000BFFE7FC3DE1FF07D9FFBFFFFFFFFFF7EEB
:10099000F7FE7FC3DE1FF07D931A8A18E38C451A99
:1009A000A2DE3FC3DE0FF07C2DCACAD6E924CD6A91
:1009B000B6BE1F83DE07E07DA36A9AD6E926656A84
:1009C000B63E0603DE01807D910A8AD8E38C451A83
:1009D000B37E0003DE00007FFFFFFFFEEFFFFFFF9F
:1009E000FF7E0003DE00007FFFFFFFF1EFFFFFFF50
:1009F000FEFE0003DE00007FFFFFFFFFFFFFFFFFA3
:100A0000FFFE0003DE00007FFFFFFFFFFFFFFFFF91
:100A1000FFFE0003DE0000000000000000000000F8
:100A200000000001DC0000000000000000000000E9
:100A30000000000050000000000000000000000066
:100A400000000000000000000000000000000000A6
:100A50000000000000000000000000000000000096
:100A60000000000000000000000000000000000086
:100A70000000000000000000000000000000000076
:100A80000000000000000000000000000000000066
:100A90000000000000000000000000000000000056
:100AA0000000000000000000000000000000000046
:100AB0000000000000000000000000000000000036
:100AC0000000000000000000000000000000000026
:100AD0000000000000000000000000000000000016
:100AE0000000000000000000000000000000000006
:100AF00000000000000000000000000000000000F6
:100B000000000000000000000000000000000000E5
:100B100000000000000000000000000000000000D5
:100B200000000000000000000000000000000000C5
:100B300000004E6F204C696E65204E756D626572C7
:100B4000207769746820636865636B73756D2C200A
:100B50004C617374204C696E653A20004B494C4CD3
:100B600045442E200053544F505045442E200050F1
:100B700072696E7465722073746F7070656420643E
:100B8000756520746F206572726F72732E204669CE
:100B90007820746865206572726F7220616E6420BF
:100BA000757365204D39393920746F2072657374FF
:100BB0006172742E202854656D706572617475724F
:100BC000652069732072657365742E2053657420E7
:100BD00069742061667465722072657374617274E1
:100BE000696E67290A004E6F20436865636B7375F1
:100BF0006D2077697468206C696E65206E756D6212
:100C000065722C204C617374204C696E653A20002B
:100C1000636865636B73756D206D69736D61746373
:100C2000682C204C617374204C696E653A20004C2E
:100C3000696E65204E756D626572206973206E6FF6
:100C400074204C617374204C696E65204E756D6222
:100C500065722B312C204C617374204C696E653A9F
:100C600020004D313130004D3331004D38342058A3
:100C70002059205A20450053442072656164206544
:100C800072726F720A00446F6E65207072696E74C2
:100C9000696E672066696C650A0020496E76616C32
:100CA0006964206578747275646572200025753AF0
:100CB0002530327500253032753A253032750025E1
:100CC000756420253032753A25303275005A005946
:100CD0000058000920000000000000000000000093
:100CE00000007FFFE00000000000000000000000A6
:100CF000007000E0000000000000000000000000A4
:100D000061F86000000000000000000000000041E9
:100D1000F82000000000000000000000000040F08B
:100D200020000000000000000000000000406020E3
:100D30000000000000000000000000005801A07F3B
:100D400080000000000000004104005C63A0FFC0C0
:100D5000000000000000002082005EF7A0FFC0003D
:100D60000000000000002082005EF7A0FFC000002D
:100D700000000000004104005C63A07F80000000D0
:100D8000000000008208005801A07F8000000000E1
:100D9000000001041000406020FFC00000000000BF
:100DA000000104100040F020FFC00000000000001F
:100DB0000082080041F820FFC00000000000000091
:100DC00041040061F8603F000000000000000000E6
:100DD00000007000E01E0000000000000001FFFFA6
:100DE000807FFFE00C0000000000000001FFFF809A
:100DF0000000000000000000000000000000007F74
:100E0000FFE0000000000000000000000000700093
:100E1000E0000000000000000000000000630C6023
:100E2000000000000000000000000000470E20004D
:100E300000000000000000000000004F0F20000034
:100E4000000000000000000000005F0FA000000094
:100E50000000000000000000005E07A07F8000008E
:100E60000000000000410400406020FFC0000000BE
:100E70000000000020820040F020FFC000000000C1
:100E800000000020820040F020FFC00000000000B1
:100E900000004104004060207F800000000000004E
:100EA000008208005E07A07F8000000000000001B3
:100EB0000410005F0FA0FFC000000000000001044C
:100EC00010004F0F20FFC00000000000000082084B
:100ED00000470E20FFC00000000000000041040099
:100EE000630C603F00000000000000000000007084
:100EF00000E01E0000000000000001FFFF807FFFF7
:100F0000E00C0000000000000001FFFF8000000076
:100F1000496E69742E2053442063617264004E6FE1
:100F20002053442063617264004D32310043686194
:100F30006E67652053442063617264005072696E6D
:100F4000742066726F6D205344004D32310053742B
:100F50006F70207072696E7400526573756D6520D4
:100F60007072696E74005061757365207072696E7D
:100F70007400436F6E74726F6C00507265706172B2
:100F8000650054756E6500496E666F207363726507
:100F9000656E0000060900FE000000000001090067
:100FA00008FE000005080806000040F0C888889880
:100FB0007810050808060000C0F88888888888F836
:100FC0000505050600012030F83020050808060058
:100FD000002070F820202020E00509090600FF20ED
:100FE00070A8A8B8888870200509090600FFE0806D
:100FF000C0B0A8283028280509090600FFF8A888ED
:1010000088888888A8F8050A0A0600FE20505050F3
:101010005088A8A8887003030306000340A0404638
:101020006C6F7700466C6F770046616E2073706559
:1010300065640046616E2073706565640042656496
:1010400000426564004E6F7A7A6C65004E6F7A7A62
:101050006C65005370656564005370656564004D90
:1010600061696E005072656865617420504C412062
:10107000426564005072656865617420504C41009F
:1010800050726570617265005072656865617420A8
:101090004142532042656400507265686561742066
:1010A0004142530050726570617265004D343238B0
:1010B00000436F6F6C646F776E0050726568656196
:1010C0007420414253005072656865617420504C31
:1010D00041004D38340044697361626C652073745B
:1010E0006570706572730053657420686F6D65205C
:1010F0006F666673657473004732380A4732390089
:10110000473239004C6576656C2062656400473271
:1011100038004175746F20686F6D65004D6F76659E
:101120002061786973004D61696E004D6F766520AE
:1011300058004D6F76652059004D6F7665205A0036
:101140004578747275646572004D6F766520302E37
:10115000316D6D004D6F766520316D6D004D6F7690
:10116000652031306D6D004D6F7665206178697353
:10117000004578747275646572004D6F7665205A0B
:10118000004D6F76652059004D6F7665205800241C
:10119000F4D43050C38E20C2A24017828B7011123B
:1011A0007A910D816CD90AA861E108C75866076178
:1011B0005143061E4B5D05C145A7041A41110409A0
:1011C0003D9803713931034036DB0265339102D417
:1011D000305402802E1D02632CEE01752AC501B029
:1011E00028A001102781018F2564012B244B01E0E9
:1011F000223401AC211F018D200D01801FFC0084D1
:101200001EED00971DDF00B81CD200E61BC60020B3
:101210001BBC00641AB200B219A8000A19A0006A27
:10122000189900D117910040178B00B51684003132
:10123000167E00B31579003A157300C7146F005875
:10124000146A00EE1366008813630025135E00C75E
:10125000125B006C12570015125400C1115100703E
:10126000114F0021114B00D61049008D1047004648
:1012700010440002104200C00F4000800F3E0042A8
:101280000F3C00060F3B00CB0E3800930E37005C7E
:101290000E3500270E3400F30D3200C10D310090E1
:1012A0000D3000600D2E00320D2D00050D2C00D9E3
:1012B0000C2B00AE0C2900850C29005C0C27003596
:1012C0000C27000E0C2600E80B2400C40B2400A001
:1012D0000B23007D0B23005A0B2100390B21001832
:1012E0000B2000F80A1F00D90A1E00BB0A1E009D31
:1012F0000A1D00800A1D00630A1C00470A1B002CFF
:101300000A1B00110A1A00F7091A00DD091900C4A6
:10131000091900AB091900920917007B091800632D
:101320000917004C09160036091600200916000A94
:10133000091500F5081500E0081400CC081400B8E1
:10134000081400A4081400900813007D0812006B14
:101350000813005808120046081200340811002330
:101360000811001208110001081100F0071000E038
:10137000071000D0071000C0071000B0070F00A131
:1013800007100091070E0083070F0074070F006518
:10139000070E0057070E0049070E003B070D002EF1
:1013A000070E0020070D0013070D0006070D00F9BA
:1013B000060C00ED060D00E0060C00D4060C00C87B
:1013C000060C00BC060C00B0060C00A4060B00992D
:1013D000060C008D060B0082060B0077060B006CD6
:1013E000060B0061060A0057060B004C060A004275
:1013F000060A0038060A002E060A0024060A001A09
:10140000060A001006090007060A00FD050900F497
:10141000050900EB050900E2050900D9050900D01E
:10142000050900C7050900BE050900B5050800AD9E
:10143000050800A50509009C050800940508008C16
:10144000050800840508007C050800740508006C88
:10145000050700650508005D050700560508004EF4
:10146000050700470507004005080038050700315B
:101470000507002A050700230507001C05060016BE
:101480000507000F0507000805060002050700FB19
:10149000040600F5040700EE040600E8040600E276
:1014A000040700DB040600D5040600CF040600C9CB
:1014B000040600C3040600BD040600B7040600B11C
:1014C000040500AC040600A6040600A00405009B69
:1014D00004060095040500900406008A04050085B2
:1014E000040500800406007A0405007504050070F8
:1014F0000405006B04050066040500610405005C3A
:1015000004050057040500520405004D0405004879
:10151000040500430405003E0404003A04050035B8
:10152000040500300404002C0405002704040023F3
:101530000405001E0404001A04040016040500112A
:101540000404000D04040009040500040404000060
:10155000040400FC030400F8030400F4030400F096
:10156000030400EC030400E8030400E4030400E0C7
:10157000030400DC030400D8030400D4030400D0F7
:10158000030400CC030400C8030300C503030024C4
:10159000F404D9201BC40C5C0E9804C4095F0265D6
:1015A000077101F405F900FB04B30048048700C18A
:1015B0000369005803550003034500BE023A008446
:1015C00002310053022A002902250004022000E40F
:1015D000011C00C8011900AF011700980114008414
:1015E000011300710110006101100051010E004350
:1015F000010D0036010B002B010B0020010B001523
:101600000109000C01090003010800FB000800F3B8
:10161000000800EB000700E4000600DE000600D82A
:10162000000600D2000600CC000500C7000500C27D
:10163000000500BD000400B9000400B5000400B1BD
:10164000000400AD000400A9000400A5000300A2EE
:101650000003009F0004009B000300980003009516
:1016600000020093000300900003008D0002008B35
:10167000000300880002008600020084000300814D
:101680000002007F0002007D0002007B0002007962
:101690000002007700010076000200740002007270
:1016A000000100710002006F0002006D0001006C7B
:1016B0000002006A00010069000200670001006684
:1016C0000001006500010064000200620001006189
:1016D000000100600001005F0002005D0001005C8D
:1016E0000001005B0001005A000100590001005890
:1016F0000001005700010056000100550001005490
:10170000000100530000005300010052000100518D
:10171000000100500001004F0001004E0000004E8B
:101720000001004D0001004C0001004B0000004B87
:101730000001004A00010049000100480000004883
:10174000000100470001004600000046000100457E
:101750000000004500010044000100430000004378
:101760000001004200000042000100410000004171
:10177000000100400001003F0000003F0001003E6A
:101780000000003E0001003D0000003D0001003C63
:101790000000003C0000003C0001003B0000003B5A
:1017A0000001003A0000003A000100390000003951
:1017B0000001003800000038000000380001003748
:1017C000000000370001003600000036000000363F
:1017D0000001003500000035000000350001003434
:1017E000000000340000003400010033000000332A
:1017F000000000330001003200000032000000321F
:101800000001003100000031000000310001003013
:1018100000000030000000300001002F0000002F09
:101820000000002F0000002F0001002E0000002EFD
:101830000000002E0001002D0000002D0000002DF2
:101840000000002D0001002C0000002C0000002CE6
:101850000000002C0001002B0000002B0000002BDA
:101860000000002B0001002A0000002A0000002ACE
:101870000000002A000100290000002900000029C2
:1018800000000029000000290001002800000028B5
:1018900000000028000000280000002800010027A8
:1018A000000000270000002700000027000000279C
:1018B000000100260000002600000026000000268F
:1018C0000000002600010025000000250000002582
:1018D0000000002500000025000000250001002474
:1018E0000000002400000024000000240000002468
:1018F000000100230000002300000023000000235B
:10190000000000230000002300000023000100224B
:10191000000000220000002200000022000000223F
:101920000000002200010021000000210000002131
:101930000000002100000021000000210000002123
:101940000001002000000020000000200000002016
:101950000000002000000020000000200000002007
:101960000001001F0000001F0000001F0000001FFA
:101970000000001F0000001F0000001F0001001EEB
:101980000000001E0000001E0000001E0000004DB0
:10199000383420582059205A2045006265640A00D6
:1019A0002C2073797374656D2073746F7070656427
:1019B00021204865617465725F49443A200048659A
:1019C0006174696E67206661696C65640048656171
:1019D00074696E67206661696C656400486561744E
:1019E000696E67206661696C656400486561746949
:1019F0006E67206661696C65640028422961636BCB
:101A000000284629726F6E7400285229696768742D
:101A100000284C296566740052756E6E696E6720E9
:101A2000696E204452592D52554E206D6F64650ADF
:101A300000473239204175746F20426564204C653F
:101A400076656C696E670A003F2856296572626F79
:101A50007365204C6576656C20697320696D706CC8
:101A600061757369626C652028302D34292E0A0057
:101A70004D616C79616E204D313530207265616445
:101A8000792E00526573756D696E67207072696E8C
:101A900074005761697420666F7220757365722EC9
:101AA0002E2E005374616E64617264204465766901
:101AB0006174696F6E3A20002052616E67653A204A
:101AC00000204D61783A2000204D696E3A20004D8B
:101AD00065616E3A200046696E697368656421002D
:101AE0002072616E67653A2000206D61783A2000AF
:101AF000206D696E3A2000207369676D613A20009D
:101B0000206D65616E3A20003A207A3A2000206FFD
:101B1000662000205A00205900205800476F696E47
:101B20006720746F3A00436C6F636B776973650A63
:101B300000436F756E7465722D0020446972656391
:101B400074696F6E3A2000202020616E676C653AE0
:101B500020005374617274696E67207261646975E4
:101B6000733A2000506F736974696F6E696E6720F5
:101B70007468652070726F62652E2E2E0A003F4ECB
:101B8000756D626572206F66206C65677320696E83
:101B9000206D6F76656D656E74206E6F7420706C4D
:101BA00061757369626C652028302D3135292E0AE4
:101BB00000590058003F53616D706C652073697A5D
:101BC00065206E6F7420706C61757369626C65203E
:101BD00028342D3530292E0A004D3438205A2D5006
:101BE000726F6265205265706561746162696C69CB
:101BF000747920546573740A003F566572626F737E
:101C000065204C6576656C206E6F7420706C617514
:101C10007369626C652028302D34292E0A004545F1
:101C200050524F4D20636865636B73756D206D690D
:101C3000736D617463680A00206279746573290AA0
:101C4000002073746F7265642073657474696E67C5
:101C50007320726574726965766564202800486136
:101C60007264636F6465642044656661756C74209A
:101C700053657474696E6773204C6F616465640AA0
:101C80000020204D383531205A005A2D50726F6295
:101C900065204F666673657420286D6D293A0A00C9
:101CA00020204D3230302044300A0020204D323088
:101CB000302044002044697361626C65640A004608
:101CC000696C616D656E742073657474696E677399
:101CD0003A0020440020490020204D33303120506C
:101CE000005049442073657474696E67733A0A0042
:101CF00020460020420020480020204D313435206D
:101D000053004D6174657269616C2068656174751A
:101D10007020706172616D65746572733A0A00209B
:101D2000204D3432302053004175746F2042656479
:101D3000204C6576656C696E673A0A00205A00206F
:101D4000590020204D323036205800486F6D6520F4
:101D50006F666673657420286D6D290A0020450042
:101D6000205A002059002058002042002054002012
:101D7000204D323035205300416476616E636564D6
:101D8000207661726961626C65733A20533D4D69DA
:101D90006E20666565647261746520286D6D2F73B1
:101DA000292C20543D4D696E2074726176656C203B
:101DB000666565647261746520286D6D2F73292CCA
:101DC00020423D6D696E696D756D207365676D6547
:101DD0006E742074696D6520286D73292C20583D20
:101DE0006D6178696D756D205859206A65726B2038
:101DF000286D6D2F73292C20205A3D6D6178696DF7
:101E0000756D205A206A65726B20286D6D2F7329BD
:101E10002C2020453D6D6178696D756D2045206AE7
:101E200065726B20286D6D2F73290A0020540020E5
:101E3000520020204D323034205000416363656CE5
:101E400065726174696F6E733A20503D7072696E8D
:101E500074696E672C20523D7265747261637420E0
:101E6000616E6420543D74726176656C0A00204591
:101E700000205A0020590020204D323031205800D7
:101E80004D6178696D756D20416363656C65726144
:101E900074696F6E20286D6D2F7332293A0A002005
:101EA0004500205A0020590020204D323033205860
:101EB000004D6178696D756D206665656472617449
:101EC000657320286D6D2F73293A0A002045002084
:101ED0005A0020590020204D393220580053746593
:101EE00070732070657220756E69743A0A0000067E
:101EF0000900FE070192032120FFFF08FF07FF00F2
:101F00000000060000010707060200808080808034
:101F10000080030202060105A0A0050707060000D5
:101F20005050F850F850500507070600002078A0E0
:101F30007028F020050707060000C0C81020409850
:101F4000180507070600006090A040A890680203EB
:101F500003060104C04080030707060100204080FB
:101F60008080402003070706010080402020204099
:101F70008005050506000120A870A82005050506B6
:101F800000012020F820200203030602FFC0408049
:101F9000050101060003F8020202060200C0C005A6
:101FA000050506000108102040800507070600000F
:101FB0007088888888887003070706010040C04041
:101FC000404040E0050707060000708808708080E8
:101FD000F8050707060000F81020100808F00507AC
:101FE0000706000010305090F81010050707060093
:101FF00000F880F008088870050707060000708068
:1020000080F0888870050707060000F80810202077
:1020100020200507070600007088887088887005F2
:102020000707060000708888780808700205050612
:102030000200C0C000C0C00206060602FFC0C00009
:10204000C040800407070600001020408040201098
:10205000050303060002F800F804070706010080E4
:1020600040201020408005070706000070880810F7
:1020700020002005070706000070880868A8A870DF
:10208000050707060000708888F888888805070714
:10209000060000F08888F08888F005070706000031
:1020A00070888080808870050707060000F08888A7
:1020B000888888F0050707060000F88080F0808097
:1020C000F8050707060000F88080F080808005078B
:1020D00007060000708880B888887005070706002A
:1020E00000888888F88888880107070602008080B1
:1020F00080808080800507070600003810101010CF
:1021000090600507070600008890A0C0A090880591
:102110000707060000808080808080F8050707069A
:10212000000088D8A88888888805070706000088E6
:1021300088C8A898888805070706000070888888DE
:10214000888870050707060000F08888F080808086
:1021500005070706000070888888A89068050707AB
:10216000060000F08888F0A09088050707060000A8
:10217000788080700808F0050707060000F8202026
:102180002020202005070706000088888888888886
:102190007005070706000088888888885020050792
:1021A000070600008888888888A850050707060069
:1021B0000088885020508888050707060000888816
:1021C0008850202020050707060000F8081020404E
:1021D00080F8030707060100E08080808080E0052A
:1021E00005050600018040201008030707060100CE
:1021F000E02020202020E005030306000420508872
:10220000050101060000F8020202060205804005F1
:1022100005050600007008788878050707060000A5
:102220008080B0C88888F0050505060000708080B1
:1022300088700507070600000808689888887805F0
:1022400005050600007088F8807005070706000085
:102250003048E0404040400506060600FF70888890
:102260007808700507070600008080B0C888888855
:102270000107070602008000808080808003080834
:102280000601FF200020202020A0400407070600B0
:1022900000808090A0C0A090030707060100C04006
:1022A00040404040E0050505060000D0A8A8A8A8C9
:1022B000050505060000B0C88888880505050600E4
:1022C0000070888888700506060600FFF08888F090
:1022D00080800506060600FF7888887808080505CE
:1022E00005060000B0C88080800505050600007066
:1022F000807008F00407070600004040E0404040BE
:1023000030050505060000888888986805050506DB
:10231000000088888850200505050600008888A8E8
:10232000A8500505050600008850205088050606BF
:102330000600FF888888780870050505060000F803
:10234000102040F80307070601002040408040406D
:1023500020010707060200808080808080800307BC
:102360000706010080404020404080050202060030
:102370000268900000000600000000000600000057
:10238000000006000000000006000000000006003B
:102390000000000006000000000006000000000031
:1023A000060000000000060000000000060000001B
:1023B000000006000000000006000000000006000B
:1023C0000000000006000000000006000000000001
:1023D00006000000000006000000000006000000EB
:1023E00000000600000000000600000000000600DB
:1023F00000000000060000000000060000000000D1
:1024000006000000000006000000000006000000BA
:1024100000000600000000000600000000000600AA
:1024200000000000060000000000060000000000A0
:102430000600000000000600000000000600000189
:10244000070706020080008080808080050707065D
:1024500000002070A8A0A870200507070600003023
:102460004040E04050A80505050600008870507007
:1024700088050707060000885020F820F82001078B
:102480000706020080808000808080050808060022
:10249000003048205050209060030101060107A041
:1024A000050707060000F888B8B8B888F8050707D8
:1024B000060001700878887800F805050506000117
:1024C0002850A05028050303060001F8080802025E
:1024D000020602064080050707060000F888A88863
:1024E00098A8F8050101060006F804040406000394
:1024F000609090600507070600002020F82020006B
:10250000F804050506000360902040F00305050669
:102510000003E020E020E0020202060206408005FF
:1025200008080600FF8888888898E88080050707E3
:10253000060000789898781818180202020602021D
:10254000C0C00202020602FF408003050506000328
:1025500040C04040E0050707060001708888887089
:1025600000F8050505060001A0502850A005070742
:102570000600008890A858B808080507070600005C
:102580008890B848982038050808060000C040C068
:1025900048D83808080507070600002000204080BA
:1025A00088700508080600004020007088F88888B8
:1025B0000508080600001020007088F888880508C3
:1025C000080600002050007088F888880508080672
:1025D00000006890007088F88888050808060000E8
:1025E0005000708888F88888050808060000205088
:1025F000207088F888880507070600003860A0B8B2
:10260000E0A0B80508080600FF7088808088702068
:1026100060050808060000402000F880F080F805FA
:102620000808060000081000F880F080F805080887
:10263000060000205000F880F080F805070706002B
:10264000005000F880F080F8030808060100804080
:1026500000E0404040E0030808060100204000E0A0
:10266000404040E003080806010040A000E0404070
:1026700040E0030707060100A000E0404040E005FD
:102680000707060000704848E84848700508080633
:10269000000068900088C8A898880508080600000F
:1026A000402070888888887005080806000010207F
:1026B000708888888870050808060000205000701F
:1026C000888888700508080600006890007088886F
:1026D0008870050808060000500070888888887097
:1026E00005050506000188502050880508080600E9
:1026F000FF1070A8A8A8A8704005080806000040B0
:1027000020888888888870050808060000102088BE
:10271000888888887005080806000020500088888E
:102720008888700508080600005000888888888816
:102730007005080806000010208850202020200581
:1027400009090600FFC040704848704040E0040896
:10275000080601FF609090A09090E08005080806B0
:1027600000004020007008788878050808060000FE
:1027700010200070087888780508080600002050AE
:1027800000700878887805080806000068900070D6
:1027900008788878050707060000500070087888D8
:1027A0007805080806000020502070087888780511
:1027B0000606060000D02878A0A8500506060600E8
:1027C000FF70808870206005080806000040200027
:1027D0007088F880700508080600001020007088D6
:1027E000F880700508080600002050007088F88006
:1027F0007005070706000050007088F88070030815
:102800000806010080400040C04040E00308080680
:10281000010020400040C04040E0030808060100DD
:1028200040A00040C04040E0030707060100A000B0
:1028300040C04040E0050707060000A040A0107817
:102840008870050808060000689000B0C88888886D
:102850000508080600004020007088888870050878
:102860000806000010200070888888700508080697
:102870000000205000708888887005080806000055
:10288000689000708888887005070706000050006F
:1028900070888888700505050600012000F8002072
:1028A0000507070600FF1070A8A8A87040050808D3
:1028B00006000040200088888898680508080600FF
:1028C0000010200088888898680508080600002005
:1028D000500088888898680507070600005000881F
:1028E000888898680509090600FF102000888888F4
:1028F000F808700407070601FFC04060506040E020
:102900000508080600FF5000888888780870457818
:10291000747275646572004D6F7665205A004D6F54
:1029200076652059004D6F766520580050726570AD
:1029300061726500526573746F7265206661696CBF
:1029400073616665004C6F6164206D656D6F7279AF
:102950000053746F7265206D656D6F727900466902
:102960006C616D656E74004D6F74696F6E005465B7
:102970006D7065726174757265004D61696E0050AD
:102980007265686561742041425320636F6E660012
:102990005072656865617420504C4120636F6E66AB
:1029A000005049442D44005049442D4400504944AE
:1029B0002D49005049442D49005049442D500050A4
:1029C00049442D50002008204661637400200820EF
:1029D00046616374002008204D6178002008204D76
:1029E0006178002008204D696E002008204D696E36
:1029F000004F6666004F6E20004175746F74656D00
:102A0000700046616E2073706565640046616E20DB
:102A100073706565640042656400426564004E6FD2
:102A20007A7A6C65004E6F7A7A6C6500436F6E74CB
:102A3000726F6C0053746F7265206D656D6F727983
:102A40000042656400426564004E6F7A7A6C6500EE
:102A50004E6F7A7A6C650046616E207370656564AE
:102A60000046616E2073706565640054656D706525
:102A7000726174757265004572726F722077726947
:102A800074696E6720746F20454550524F4D210A7E
:102A900000206279746573290A0053657474696E45
:102AA00067732053746F726564202800656E7175BA
:102AB000657565696E672022000000000000000057
:102AC00000000000005761726E696E673A20486F1F
:102AD0006D696E672042756D702044697669736F09
:102AE00072203C20310A000000A0400000A04000FD
:102AF000000040000048430000484300004843FFF6
:102B0000FFFF7C3C3E5E2B3D3F2F5B5D3B2C2A2232
:102B10005C0070012C0190012701B0012201C0016D
:102B20001D01F00118011002130130020E016002B4
:102B3000090190020401C002FF000003FA004003F3
:102B4000F5008003F000D003EB002004E6007004E1
:102B5000E100E004DC004005D700C005D2004006DB
:102B6000CD00D006C8008007C3003008BE00F008C2
:102B7000B900C009B400B00AAF00B00BAA00D00C75
:102B8000A500000EA000500F9B00C0109600501230
:102B9000910000148C00C0158700B0178200B01996
:102BA0007D00D01B7800001E730040206E00902234
:102BB0006900F024640040275F0090295A00E02B50
:102BC0005500102E500020304B0010324600E033EC
:102BD000410090353C001037370070383200A03982
:102BE0002D00B03A2800A03B2300603C1E00103DA1
:102BF0001900903D1400103E0F00703E0A00C03EC8
:102C00000500003F0000403FFBFF803FF6FFC03F54
:102C1000F1FF43616E6E6F74206F70656E20737587
:102C2000626469722000206669727374005A0059E8
:102C3000005800486F6D6520002066697273740A41
:102C4000005A0059005800486F6D652000656368A0
:102C50006F3A0000002100240027002A0000002213
:102C600000250028002B000000200023002600295A
:102C70000002020202020202020404040404040428
:102C80000403030303030303030101010101010121
:102C900001010204081020408001020408102040B5
:102CA00080010204081020408080402010080402A7
:102CB00001000000010200090A00000000040308EE
:102CC00007000000000000000000000000000000FD
:102CD000004B494C4C45442E2000202D20496E7657
:102CE000616C6964206578747275646572206E75B4
:102CF0006D62657220210A002020506C616E6E6545
:102D00007242756666657242797465733A20002076
:102D100046726565204D656D6F72793A2000436F8C
:102D20006D70696C65643A204A616E2031352032DD
:102D30003031370A00207C20417574686F723A2068
:102D40002842696F6E6963626F6E65290A003230CE
:102D500031362D31322D30362031323A30300020AC
:102D60004C61737420557064617465643A2000315D
:102D70002E312E302D524338204275674669782017
:102D8000362044656320323031360A004D61726C62
:102D9000696E0020536F66747761726520526573A7
:102DA00065740A00205761746368646F6720526518
:102DB0007365740A002042726F776E206F757420FD
:102DC00052657365740A002045787465726E616C93
:102DD0002052657365740A00506F77657255700AEA
:102DE0000073746172740A006572726F7220777278
:102DF0006974696E6720746F2066696C650A0045A6
:102E00006E6473746F7073202563202563202563BF
:102E100020256300205A3A0020593A0020583A00F1
:102E2000656E6473746F7073206869743A2000442F
:102E30006F6E6520736176696E672066696C652EBA
:102E40000A004D32390020746F6F206C6F6E67205E
:102E5000657874727573696F6E2070726576656ED1
:102E60007465640A0020636F6C6420657874727501
:102E700073696F6E2070726576656E7465640A00A2
:102E800000004843000048430000484300000000A1
:102E90000000000000000000205A3A200020593AAB
:102EA000200042656420583A2000203D3D3D3D0011
:102EB000202020200042696C696E656172204C659B
:102EC00076656C696E6720477269643A0A20005A19
:102ED0002070726F6265206F75742E206265640ABF
:102EE000005A2070726F6265206F75742E206265C3
:102EF0006400473238205A20466F72626964646504
:102F00006E0A00473238205A20466F726269646444
:102F1000656E0020706F736974696F6E206F7574D1
:102F2000206F662072616E67652E0A003F50726FD7
:102F3000626520004573746570732F6D6D00457375
:102F4000746570732F6D6D005A73746570732F6D97
:102F50006D005A73746570732F6D6D0059737465CD
:102F600070732F6D6D005973746570732F6D6D00E4
:102F70005873746570732F6D6D005873746570733A
:102F80002F6D6D00412D74726176656C00412D745A
:102F9000726176656C00412D7265747261637400B4
:102FA000412D7265747261637400416D61782045D2
:102FB00000416D6178204500416D6178205A0041E3
:102FC0006D6178205A00416D6178205900416D6132
:102FD00078205900416D6178205800416D6178205A
:102FE00058005654726176206D696E0056547261B5
:102FF00076206D696E00566D696E00566D696E00C3
:10300000566D6178204500566D6178204500566DFB
:103010006178205A00566D6178205A00566D6178AB
:10302000205900566D6178205900566D61782058FE
:1030300000566D617820580056652D6A65726B00E8
:1030400056652D6A65726B00567A2D6A65726B0043
:10305000567A2D6A65726B0056792D6A65726B001F
:1030600056792D6A65726B0056782D6A65726B0011
:1030700056782D6A65726B00416363656C0041632D
:1030800063656C005A204F6666736574005A204F62
:10309000666673657400436F6E74726F6C005344A0
:1030A0002063617264206F6B0A006F70656E526FEF
:1030B0006F74206661696C65640A00766F6C756D6B
:1030C000652E696E6974206661696C65640A0053D7
:1030D0004420696E6974206661696C0A00526573E8
:1030E000656E643A20006F6B00627573793A2070E8
:1030F000617573656420666F7220696E7075740AFD
:1031000000627573793A2070617573656420666F2B
:103110007220757365720A00627573793A20707255
:103120006F63657373696E670A004B494C4C454485
:103130002E2000506C6561736520726573657400A4
:103140005052494E5445522048414C544544005039
:1031500072696E7465722068616C7465642E206B90
:10316000696C6C28292063616C6C6564210A0020FD
:1031700042403A0020403A00202F0020423A0020EE
:103180002F0020543A00205A3A0020593A00204398
:103190006F756E7420583A200020453A00205A3A44
:1031A0000020593A00583A00426564204C65766523
:1031B0006C696E6720004661696C656420746F20DD
:1031C000656E61626C6520426564204C6576656C55
:1031D000696E670A004F666673657473206170706C
:1031E0006C696564004572723A20546F6F206661A5
:1031F000722100546F6F206661722066726F6D20BD
:103200007265666572656E636520706F696E740ABB
:10321000003A20007A5F6D61783A20007A5F6D692C
:103220006E3A20005A204F666673657400617574AB
:103230006F25692E67004D3234004D3233202573DF
:103240000057726974696E6720746F2066696C65D7
:103250003A20006F70656E206661696C65642C2091
:1032600046696C653A20006F70656E206661696C16
:1032700065642C2046696C653A200046696C6520BF
:1032800073656C65637465640A002053697A653AF6
:10329000200046696C65206F70656E65643A200099
:1032A0006F70656E206661696C65642C2046696C80
:1032B000653A20002066696C653A20004E6F7720E1
:1032C000002220706F73002220706172656E743A64
:1032D0002200535542524F5554494E452043414CCC
:1032E0004C207461726765743A22004B494C4C451E
:1032F000442E2000747279696E6720746F206361B8
:103300006C6C207375622D67636F64652066696CF1
:103310006573207769746820746F6F206D616E79B2
:10332000206C6576656C732E204D4158206C657657
:10333000656C2069733A004572726F723A00466993
:103340006C2E204469612E0046696C2E2044696110
:103350002E004F6666004F6E20004520696E206D7E
:103360006D3300436F6E74726F6C0043616E6E6FED
:103370007420656E746572207375626469723A2098
:1033800000022E2E000152656672657368004D6161
:10339000696E004E414E494E495459494E46CDCC76
:1033A000CC3D0AD7233C17B7D13877CC2B32959533
:1033B000E6241FB14F0A000020410000C84200402F
:1033C0001C4620BCBE4CCA1B0E5AAEC59D74D8DC30
:1033D000B7DC11241FBECFEFD0E4DEBFCDBF13E0BA
:1033E000A0E0B1E0E6EDF6EE01E00BBF02C0079011
:1033F0000D92A833B107D9F723E1A8E3B3E001C0E8
:103400001D92AE36B207E1F719E1C8EED9E104C06A
:103410002197FE010E94BFE6C73ED107C9F70E946F
:10342000B8DD0C945EF30C9400002F923F924F9203
:103430005F926F927F928F929F92AF92BF92CF9244
:10344000DF92EF92FF920F931F93CF93DF93CDB74D
:10345000DEB7C359D1090FB6F894DEBF0FBECDBF9A
:103460000091D80F20E6029F80011124085A114FC5
:1034700010934803009347038091E80F80FF18C022
:10348000EDE4FCE284917F013FEFE31AF30A882325
:1034900021F00E944842F701F5CFD8018D918D01AE
:1034A000882319F00E944842F8CF8AE00E944842DF
:1034B0002091470330914803F90180812F5F3F4FEE
:1034C0008032D1F3F0934803E09347038E3469F0E0
:1034D00010914703009148036AE270E0812F902F1A
:1034E0000E941EEA0097D1F420C0818190ED980FD0
:1034F0009A3010F08D3261F73296DF0131962C91BF
:1035000020532A30D0F3CD01FC01019620812032D6
:10351000D9F3F0934803E0934703DACFFC013196E7
:103520008291803231F08A3221F0A12FB02F2D917B
:1035300002C01082F5CFFD01808111968032D9F34F
:1035400080538A3020F0EDE4FCE20C947E36E12CCE
:10355000F12C9AE09E9DB0019F9D700D11247B017E
:10356000B0E3EB1AF1088191E80EF11C87FDFA94A3
:10357000808180538A3070F3CF013196DC013C9119
:103580003032D1F3909346038093450341E050E0FD
:1035900050933911409338112D3411F40C94D923E0
:1035A000243511F40C944836273411F00C9460360D
:1035B000BCE1EB16F10409F45BC790F4F4E0EF16FC
:1035C000F10438F480912D0122E0E216F10448F173
:1035D0003EC134E0E316F10409F40CC70C947536CF
:1035E0004AE5E416F10411F40C94192360F48DE11A
:1035F000E816F10409F440C79EE1E916F10409F464
:103600003FC70C947536ABE5EA16F10411F40C943F
:103610001D23BCE5EB16F10411F40C9422230C9449
:103620007536882311F40C9475360E9482AD8FEDA7
:103630009AE00E9453CE0E943D428091E80F83FDA4
:1036400093C0C090EB0AD090EC0AE090ED0AF090A5
:10365000EE0A2091330E3091340E4091350E509188
:10366000360EC701B6010E9407EF882309F47CC01B
:103670008091E30F811134C020919C0130919D0114
:1036800040919E0150919F016091F70A7091F80A54
:103690008091F90A9091FA0A0E9407EF87FF20C0F3
:1036A000C092330ED092340EE092350EF092360E68
:1036B000EDE4FCE284918F010F5F1F4F882321F01E
:1036C0000E944842F801F6CFEFE5F1E084918F01C6
:1036D0000F5F1F4F882321F00E944842F801F6CF68
:1036E000C090EB0AD090EC0AE090ED0AF090EE0A60
:1036F0002091330E3091340E4091350E5091360E9C
:10370000C701B6010E94CFE60E943CE897FF07C0C0
:1037100090958095709561957F4F8F4F9F4F693C35
:1037200071058105910504F1C092330ED092340EDB
:10373000E092350EF092360EEDE4FCE284918F01BA
:103740000F5F1F4F882321F00E944842F801F6CFF7
:10375000E0E4F1E084918F010F5F1F4F882321F097
:103760000E944842F801F6CF2091DF0A3091E00A2A
:103770004091E10A5091E20A6091270E7091280E63
:103780008091290E90912A0E0E9407EF81111DC091
:103790002091E30A3091E40A4091E50A5091E60A4B
:1037A00060912B0E70912C0E80912D0E90912E0E0B
:1037B0000E9407EF811109C0609100017091010121
:1037C00080910201909103013CC08091E20F6091D1
:1037D000190170911A018823F1F0072E000C880B53
:1037E000990B0E940EEF2091000130910101409150
:1037F0000201509103010E946DEF2AE037ED43E290
:103800005CE30E946DEF2FEF3FEF4FEF5FEF0E9401
:103810001CC90C947536072E000C880B990B0E945E
:103820000EEF209100013091010140910201509171
:1038300003010E946DEF2AE037ED43E25CE30E9452
:103840006DEF0E9490B40E9486B40C947536882364
:1038500011F40C94753611E0E2E0EE16F10409F073
:1038600010E00E9482AD82E50E948C40882309F41A
:103870005CC10E9412416B017C014090270E509068
:10388000280E6090290E70902A0E20912B0E3091F8
:103890002C0E40912D0E50912E0E23962CAF3DAF45
:1038A0004EAF5FAF23978091DF0A9091E00AA0911D
:1038B000E10AB091E20A27968CAF9DAFAEAFBFAFE1
:1038C00027972091E30A3091E40A4091E50A50914C
:1038D000E60A63962CAF3DAF4EAF5FAF639720E033
:1038E00030E0A901C701B6010E9407EF882309F45F
:1038F00067C5A301920127966CAD7DAD8EAD9FADDE
:1039000027970E9407EF811111C023962CAD3DAD82
:103910004EAD5FAD239763966CAD7DAD8EAD9FAD23
:1039200063970E9407EF882309F44AC520E030E03E
:10393000A901C701B6010E9407EF881F8827881FC9
:1039400018130BC080E090E0A0E8BFE36B968CAF4B
:103950009DAFAEAFBFAF6B970AC020E030E040E84C
:103960005FEB6B962CAF3DAF4EAF5FAF6B97A30194
:10397000920127966CAD7DAD8EAD9FAD27970E94CD
:10398000CFE62F966CAF7DAF8EAF9FAF2F9723966C
:103990002CAD3DAD4EAD5FAD239763966CAD7DAD67
:1039A0008EAD9FAD63970E94CFE667966CAF7DAFFB
:1039B0008EAF9FAF67972F962CAD3DAD4EAD5FADEF
:1039C0002F97CA01B9010E946DEF4B015C01679608
:1039D0002CAD3DAD4EAD5FAD6797CA01B9010E94F8
:1039E0006DEF9B01AC01C501B4010E94D0E60E94BD
:1039F0007EE92B966CAF7DAF8EAF9FAF2B9720E00B
:103A000030E040E05FE30E946DEF4B015C01A701F5
:103A10009601C701B6010E946DEF6B017C01A50103
:103A20009401C501B4010E946DEF9B01AC01C70177
:103A3000B6010E94CFE60E947EE99B01AC016B9625
:103A40006CAD7DAD8EAD9FAD6B970E946DEF4B0160
:103A50005C0127962CAD3DAD4EAD5FAD2797C30100
:103A6000B2010E94D0E620E030E040E05FE30E9437
:103A70006DEF6B017C0167966CAD7DAD8EAD9FAD3A
:103A8000679790582B962CAD3DAD4EAD5FAD2B9703
:103A90000E94CAE79B01AC01C501B4010E946DEF11
:103AA0009B01AC01C701B6010E94D0E6A3019201BF
:103AB0000E94CFE66B017C0163962CAD3DAD4EAD0F
:103AC0005FAD639723966CAD7DAD8EAD9FAD2397B3
:103AD0000E94D0E620E030E040E05FE30E946DEF1E
:103AE0002B013C012B962CAD3DAD4EAD5FAD2B9720
:103AF0002F966CAD7DAD8EAD9FAD2F970E94CAE71E
:103B00009B01AC01C501B4010E946DEF9B01AC01AA
:103B1000C301B2010E94D0E623962CAD3DAD4EAD5F
:103B20005FAD23970E94CFE614C089E40E948C40C9
:103B3000882329F00E9412416B017C0103C0C12C33
:103B4000D12C76018AE40E948C408823F9F00E94EF
:103B5000124123966CAF7DAF8EAF9FAF239720E0CD
:103B600030E0A901C701B6010E9407EF81111EC014
:103B700020E030E0A90123966CAD7DAD8EAD9FAD08
:103B800023970E9407EF811111C01AC420E030E092
:103B9000A901C701B6010E9407EF882309F410C4E8
:103BA00023961CAE1DAE1EAE1FAE2397A701960135
:103BB000C701B6010E946DEF4B015C0123962CAD4D
:103BC0003DAD4EAD5FAD2397CA01B9010E946DEFC7
:103BD0009B01AC01C501B4010E94D0E60E947EE9C0
:103BE000E3966CAF7DAF8EAF9FAFE3978091270ECA
:103BF0009091280EA091290EB0912A0E2B968CAF91
:103C00009DAFAEAFBFAF2B97A7019601BC01CD0111
:103C10000E94D0E66B966CAF7DAF8EAF9FAF6B9777
:103C200020912B0E30912C0E40912D0E50912E0E86
:103C300067962CAF3DAF4EAF5FAF679723962CAD25
:103C40003DAD4EAD5FAD239767966CAD7DAD8EAD4E
:103C50009FAD67970E94D0E66F966CAF7DAF8EAF39
:103C60009FAF6F9780912F0E9091300EA091310EE3
:103C7000B091320EA3968CAF9DAFAEAFBFAFA397FE
:103C80009C01AD016091E70A7091E80A8091E90A10
:103C90009091EA0A0E94CFE62F966CAF7DAF8EAF6F
:103CA0009FAF2F972091EB0A3091EC0A4091ED0ADB
:103CB0005091EE0AE7962CAF3DAF4EAF5FAFE7975E
:103CC0008091330E9091340EA091350EB091360E46
:103CD000A7968CAF9DAFAEAFBFAFA797A7019601D8
:103CE000505827962CAF3DAF4EAF5FAF2797239626
:103CF0008CAD9DADAEADBFAD2397B05863968CAF84
:103D00009DAFAEAFBFAF63972091DF0A3091E00A5D
:103D10004091E10A5091E20AAB962CAF3DAF4EAF15
:103D20005FAFAB976B962CAD3DAD4EAD5FAD6B9776
:103D3000AB966CAD7DAD8EAD9FADAB970E94CFE6DF
:103D40006B017C018091E30A9091E40AA091E50A5D
:103D5000B091E60AAF968CAF9DAFAEAFBFAFAF9755
:103D60006F962CAD3DAD4EAD5FAD6F97BC01CD01F3
:103D70000E94CFE64B015C01A701960127966CAD2E
:103D80007DAD8EAD9FAD27970E946DEF2B013C015D
:103D9000A501940163966CAD7DAD8EAD9FAD63972B
:103DA0000E946DEF9B01AC01C301B2010E94D0E6FD
:103DB0002B013C01A501940127966CAD7DAD8EAD24
:103DC0009FAD27970E946DEF4B015C01A701960103
:103DD00063966CAD7DAD8EAD9FAD63970E946DEF28
:103DE0009B01AC01C501B4010E94CFE6A301920181
:103DF0000E944FE76B017C0120E030E0A9010E94A6
:103E000007EF87FF0AC02BED3FE049EC50E4C70104
:103E1000B6010E94D0E66B017C01112351F02BED1D
:103E20003FE049EC50E4C701B6010E94CFE66B01C8
:103E30007C0120E030E0A901C701B6010E9407EF34
:103E400081112AC0AB962CAD3DAD4EAD5FADAB97A9
:103E50002B966CAD7DAD8EAD9FAD2B970E9407EF7D
:103E600081111AC0AF962CAD3DAD4EAD5FADAF9791
:103E700067966CAD7DAD8EAD9FAD67970E9407EFE5
:103E800081110AC02BED3FE049EC50E4C701B601B7
:103E90000E94D0E66B017C01E3962CAD3DAD4EADAA
:103EA0005FADE397C701B6010E946DEF9B01AC01C6
:103EB0000E946DEF4B015C012F962CAD3DAD4EADD8
:103EC0005FAD2F97CA01B9010E946DEF9B01AC0154
:103ED000C501B4010E94D0E60E947EE94B015C015D
:103EE0002FE632E143E85AE30E9407EF87FD64C200
:103EF000C501B4010E9472E80E9443E81B01672BD0
:103F000019F422242394312CB10180E090E00E9426
:103F10000CEF4B015C019B01AC01C701B6010E9493
:103F2000CAE72B966CAF7DAF8EAF9FAF2B97A501E5
:103F300094012F966CAD7DAD8EAD9FAD2F970E94F5
:103F4000CAE7AF966CAF7DAF8EAF9FAFAF97A79626
:103F50002CAD3DAD4EAD5FADA797E7966CAD7DAD99
:103F60008EAD9FADE7970E94CFE6A50194010E9418
:103F7000CAE7E3966CAF7DAF8EAF9FAFE3972B960A
:103F80002CAD3DAD4EAD5FAD2B97CA01B9010E947E
:103F90006DEF20E030E040E05FE30E946DEF9B01B9
:103FA000AC0160E070E080E89FE30E94CFE6AB9652
:103FB0006CAF7DAF8EAF9FAFAB97A3962CAD3DADF1
:103FC0004EAD5FADA39729873A874B875C87A7964D
:103FD0008CAD9DADAEADBFADA7978D879E87AF87EA
:103FE000B88B6091190170911A01072E000C880B93
:103FF000990B0E940EEF2091000130910101409138
:104000000201509103010E946DEF2AE037ED43E277
:104010005CE30E946DEFA3966CAF7DAF8EAF9FAF58
:10402000A3970E94B3789B01AC0128533F4F4F4F99
:104030005F4FA7962CAF3DAF4EAF5FAFA7972496CB
:104040004FAC249725965FAC259726966FAC2697A4
:1040500027967FAC279741E050E065965FAF4EAF63
:1040600065972C961FAE2C976596AEADBFAD659744
:10407000A215B30509F45CC10E9492580E94B3785E
:10408000DC01CB01A7962CAD3DAD4EAD5FADA79742
:10409000821B930BA40BB50BB7FD10C00E94B37825
:1040A0009B01AC0128533F4F4F4F5F4FA7962CAF5A
:1040B0003DAF4EAF5FAFA7970E94F5C62C963FADC0
:1040C0002C973F5F2C963FAF2C9739310CF04BC0AB
:1040D000AB962CAD3DAD4EAD5FADAB9763966CAD81
:1040E0007DAD8EAD9FAD63970E946DEF6B017C013E
:1040F0002B962CAD3DAD4EAD5FAD2B97B201C301FC
:104100000E946DEFA70196010E94D0E66B017C0131
:10411000AB962CAD3DAD4EAD5FADAB97B201C301DB
:104120000E946DEF4B015C012B962CAD3DAD4EAD69
:104130005FAD2B9763966CAD7DAD8EAD9FAD6397F4
:104140000E946DEF9B01AC01C501B4010E94CFE656
:104150002B013C01C601D70163968CAF9DAFAEAF7A
:10416000BFAF639760C065964EAD5FAD6597BA010E
:1041700080E090E00E940CEF2B962CAD3DAD4EAD53
:104180005FAD2B970E946DEF4B015C010E94C5E76C
:104190006B017C01C501B4010E9470E94B015C0117
:1041A000A701960127966CAD7DAD8EAD9FAD27978B
:1041B0000E946DEF2B013C01A501940123966CAD8B
:1041C0007DAD8EAD9FAD23970E946DEF9B01AC013D
:1041D000C301B2010E94D0E62B013C01A50194016C
:1041E00027966CAD7DAD8EAD9FAD27970E946DEF8C
:1041F0004B015C01A701960123966CAD7DAD8EADA0
:104200009FAD23970E946DEF9B01AC01C501B401E6
:104210000E94CFE663966CAF7DAF8EAF9FAF639782
:104220002C961FAE2C979201A3016B966CAD7DADC1
:104230008EAD9FAD6B970E94D0E669837A838B83A6
:104240009C8363962CAD3DAD4EAD5FAD63976F968D
:104250006CAD7DAD8EAD9FAD6F970E94D0E66D8346
:104260007E838F839887AF962CAD3DAD4EAD5FAD0D
:10427000AF9769857A858B859C850E94D0E6698792
:104280007A878B879C87E3962CAD3DAD4EAD5FADB5
:10429000E3976D857E858F8598890E94D0E66D872E
:1042A0007E878F87988BCE0101960E9453CEC09057
:1042B0003F0389819A81AB81BC8188A399A3AAA37A
:1042C000BBA38D819E81AF81B8858CA39DA3AEA336
:1042D000BFA389859A85AB85BC8588A799A7AAA71E
:1042E000BBA7AE01485D5F4FBE016C5D7F4FCE0145
:1042F00080960E94A3ABA396ECACFDAC0EAD1FADB7
:10430000A3979E01235F3F4FAE01485D5F4FBE0103
:104310006C5D7F4FCE0180960E945B9E65968EAD50
:104320009FAD6597019665969FAF8EAF65979CCEC2
:10433000C0903F038091DF0A9091E00AA091E10ACA
:10434000B091E20A88A399A3AAA3BBA38091E30A30
:104350009091E40AA091E50AB091E60A8CA39DA38E
:10436000AEA3BFA38091E70A9091E80AA091E90A61
:10437000B091EA0A88A799A7AAA7BBA7AE01485D92
:104380005F4FBE016C5D7F4FCE0180960E94A3AB54
:10439000A396ECACFDAC0EAD1FADA3972BEE3AE0AF
:1043A000AE01485D5F4FBE016C5D7F4FCE018096D0
:1043B0000E945B9E0E9486B40E943D420C9475361A
:1043C000E7E3F3E384918F010F5F1F4F882321F010
:1043D0000E944842F801F6CFEAE7F1E084918F01AC
:1043E0000F5F1F4F882311F40C9475360E944842CA
:1043F000F801F4CF80E50E948C40882329F00E94C8
:1044000007416B017C0103C0C12CD12C760183E5EF
:104410000E948C40882321F00E943B416B017C016B
:104420000E94595B0E943D4280913A1190913B114C
:10443000A0913C11B0913D11C80ED91EEA1EFB1E81
:1044400080914A01811105C060E080E991E00E94FD
:10445000357F0E94B378DC01CB018C199D09AE0930
:10446000BF09B7FD02C00C9475360E94F5C6F1CFA6
:104470000E942AB10C9475360E946C680C947536B3
:1044800088E50E948C40882319F00E9412410EC0DA
:1044900020E030E04CE052E46091270E7091280E4D
:1044A0008091290E90912A0E0E94D0E66BAF7CAFCE
:1044B0008DAF9EAF89E50E948C40882319F00E9441
:1044C00012410EC020E030E048E452E460912B0E2F
:1044D00070912C0E80912D0E90912E0E0E94CFE6A1
:1044E00068A379A38AA39BA30BAD1CAD2DAD3EADF4
:1044F00009831A832B833C836D837E838F83988704
:1045000020E030E0A9016091AE107091AF10809171
:10451000B0109091B1100E94D0E62091A21030917D
:10452000A3104091A4105091A5100E94D0E6698775
:104530007A878B879C87CE0101960E94F7C38823D8
:1045400011F40C94753683E50E948C40882321F089
:104550000E94CE40482F01C041E080E0CD56DF4FA1
:104560004883C359D0400E9439AF0E94ADAF21E0CB
:1045700030E0CD56DF4F4881C359D040BE01605E68
:104580007F4FCE01CB960E94FCB26B017C01E3EA27
:10459000F1E084918F010F5F1F4F882321F00E946B
:1045A0004842F801F6CF27E137EB41ED58E36BAD18
:1045B0007CAD8DAD9EAD0E94D0E642E00E9461468A
:1045C000EEE9F1E084918F010F5F1F4F882321F006
:1045D0000E944842F801F6CF27E137EB41ED58E35E
:1045E00068A179A18AA19BA10E94D0E642E00E9425
:1045F0006146E9E9F1E084918F010F5F1F4F882345
:1046000021F00E944842F801F6CF27E137EB41ED57
:1046100058E3C701B6010E94D0E642E00E9461461D
:104620008AE00E9448420E9493AF0E9478D00C9486
:104630007536109244030C94753681E080934403E0
:104640000C94763685E40E948C40B82E811102C00D
:104650000E94595B3DEB832E31E0932E47E2C42E3E
:104660004EE0D42E5AE9E52E50E1F52E00E010E0A0
:10467000A12CF40181914F010E948C40882309F400
:104680004CC0D6012D913D914D915C91C057DF4FAB
:104690002883C059D040CF56DF4F3883C159D0400E
:1046A000CD56DF4F4883C359D040CE56DF4F588395
:1046B000C259D0400E941241F60160837183828307
:1046C0009383C057DF4F2881C059D040CF56DF4F6A
:1046D0003881C159D040CD56DF4F4881C359D040B1
:1046E000CE56DF4F5881C259D04003301105A9F092
:1046F0000E94CFE69B01AC01D7016D917D918D9118
:104700009C910E94D0E6F70160837183828393833A
:10471000C8010E94EBB4AA24A3940F5F1F4FF4E0DA
:10472000CF0ED11C24E0E20EF11C0430110509F07B
:10473000A0CFAA2019F00E94C74137C0BB20A9F121
:10474000C090330ED090340EE090350EF090360EBF
:10475000209130103091311040913210509133102F
:10476000C701B6010E946DEF0E943DE960935E0BA8
:1047700070935F0B8093600B9093610BC701B60140
:104780000E943CE82FB7F89460932C0A70932D0A8E
:1047900080932E0A90932F0A2FBF10924E0B1092E7
:1047A0004F0B1092500B1092510B0E9478D00C942A
:1047B000753631E7E316F10409F4FBC508F0E4C0EF
:1047C00050E3E516F10409F407C508F06DC0B8E13F
:1047D000EB16F10409F44FC2E8F5F2E1EF16F1042B
:1047E00011F40C94AE2DB0F432E0E316F10408F4A9
:1047F000F1C141E1E416F10411F00C94753660E06A
:104800008BEA91E00E94357F5E985E9815985E98DD
:104810000C94753655E1E516F10409F422C248F40A
:10482000B4E1EB16F10411F00C947536E3ECF1E011
:10483000D5C1E6E1EE16F10409F417C2F7E1EF166F
:10484000F10411F00C94753640E061E00E9447D30A
:104850000C9475362CE1E216F10409F461C258F4A7
:104860004AE1E416F10409F411C208F01DC21092E5
:10487000920B0C9475368FE1E816F10409F4BCC371
:1048800038F4AEE1EA16F10409F450C20C9475361E
:10489000B0E2EB16F10409F460C3EAE2EE16F104AB
:1048A00009F452C40C947536FCE5EF16F10411F4CA
:1048B0000C94F02D90F531E5E316F10411F40C940D
:1048C0008C2DA0F45CE4E516F10409F489C48DE4B0
:1048D000E816F10409F49EC49BE4E916F10411F012
:1048E0000C9475360E94E6C40C947536A3E5EA165E
:1048F000F10411F40C94A92D10F40C94A52DE4E509
:10490000EE16F10411F40C94AE2DF5E5EF16F1045A
:1049100011F40C94DD2D0C9475362CE6E216F1049E
:1049200009F43FC5D8F449E6E416F10409F486C554
:1049300038F488E6E816F10409F470C40C9475366E
:104940009AE6E916F10411F40C94542DABE6EA163C
:10495000F10411F40C947A2D0C947536BEE6EB1626
:10496000F10409F49FC408F486C5FFE6EF16F104CC
:1049700009F4ABC420E7E216F10411F00C9475368B
:104980008CEB92E00E9489C632EEE316F10411F43A
:104990000C94C33108F086C05EEBE516F10409F40F
:1049A0000EC788F5B7E7EB16F10411F40C948B2EC3
:1049B000A0F4F3E7EF16F10411F40C947D2E10F43B
:1049C0000C94792E35E7E316F10411F00C9475364A
:1049D00060E00E94FBB90C94753649E7E416F104D7
:1049E00011F40C94F52E10F40C94EF2E8CE8E816CC
:1049F000F10409F40AC591E9E916F10411F40C94E3
:104A0000FA2E0C947536ADECEA16F10411F40C9400
:104A10006130E8F4E9ECEE16F10411F40C94B72FD0
:104A200040F428ECE216F10411F40C946E2F0C946F
:104A300075363BECE316F10411F40C94D92F4CECD1
:104A4000E416F10411F40C94F72F0C94753653ED21
:104A5000E516F10411F40C940531B0F49EECE9165E
:104A6000F10411F00C9475361DEBA12E11E0B12E5E
:104A700007E2C02E0EE0D02E86EAE82E80E1F82E66
:104A800000E010E00C94CC30ACEDEA16F10411F427
:104A90000C949D31BDEDEB16F10411F40C94AA3188
:104AA0000C947536EAE9EE16E1E0FE0609F47DC4E1
:104AB00008F041C02FE2E21621E0F20611F40C9456
:104AC000253398F44DE2E41641E0F40611F40C9419
:104AD000143210F00C94B4328CE2E81681E0F8063F
:104AE00011F40C94EE310C94753690E9E91691E0CE
:104AF000F90611F40C940E3658F4B3E6EB16B1E057
:104B0000FB0611F00C947536E7E3F3E30C942136C1
:104B1000E1E9EE16E1E0FE0611F40C941136F2E93B
:104B2000EF16F1E0FF0611F00C94753680E00E945C
:104B3000B1B20C94753626EFE21621E0F20611F4BC
:104B40000C941B3628F54CEAE41641E0F40611F407
:104B50000C94153658F484EAE81681E0F80611F052
:104B60000C9475360E94A7CF0C94753694EFE91615
:104B700091E0F90611F40C941836A5EFEA16A1E0BD
:104B8000FA0611F00C9475360E9403740C94753675
:104B9000B3E5EB16B3E0FB0611F40C941E3658F4A3
:104BA000F7EFEF16F1E0FF0611F00C9475360E9456
:104BB0009CCF0C94753620EAE21623E0F20609F445
:104BC00012C237EEE31633E0F30611F40C943836D4
:104BD0000C9475360E94DC670C94753684918F01B5
:104BE0000F5F1F4F882321F00E944842F801F6CF43
:104BF0001092180E1092170E40E050E0BA0183ECAC
:104C00009BE00E945E8B8BE1E3ECFBE0DE011596FE
:104C100001900D928A95E1F78091C10B9091C20BA2
:104C20009C838B8385E792E09A83898340E050E000
:104C3000BE016F5F7F4F81E293E00E94849ACE01B4
:104C400001960E94B696E4EBF1E084918F010F5F2C
:104C50001F4F882311F40C9475360E944842F801C6
:104C6000F4CF0E947AC20C9475361092920B109277
:104C7000930B0C9475368091930B882319F081E087
:104C80008093920B0E94E6C40C9475368091930B2E
:104C9000882311F40C94753683E50E948C408111B1
:104CA0000C9499360C9475368091930B882351F1AE
:104CB000E4EDF1E084918F010F5F1F4F882321F015
:104CC0000E944842F801F6CF60910E0E70910F0ECF
:104CD0008091100E9091110E4AE00E9476428FE270
:104CE0000E94484260910A0E70910B0E80910C0E4A
:104CF00090910D0E4AE00E9476428AE00E9448425E
:104D00000C947536E6EEF1E084918F010F5F1F4F32
:104D1000882311F40C9475360E944842F801F4CFB0
:104D200040E060E00E9447D30C9475368091930B6D
:104D3000882311F40C9475368DE59DE00E941B8B41
:104D40008DE59DE00E94B48F1092910B1092900B14
:104D5000E0904503F09046038091930B882311F473
:104D60000C9475360E943CD31D8218861C821B82CF
:104D700085E792E09A8389838FEB9BE09093DF0B2A
:104D80008093DE0BD7018C918F3209F067C06FE200
:104D900070E0C7010E941EEA8C010F5F1F4FFE01E9
:104DA00031964F010115110509F45EC06FE270E004
:104DB000C8010E941EEA6C01009709F456C008174A
:104DC000190708F052C05C01A01AB10AA501B80188
:104DD000CE0180960E9447EAE0E2F0E0EC0FFD1F72
:104DE000EA0DFB1D10828E01005E1F4FD8018D91D0
:104DF0008D01882319F00E944842F8CF8AE00E9472
:104E000048426091DE0B7091DF0B6115710511F066
:104E10006C5F7F4F21E0AE01405E5F4FCE01059693
:104E20000E94D693811112C0BE01605E7F4F8DE15A
:104E300092E00E944F428EE20E9448428AE00E9425
:104E40004842C4010E94B6960C9475369092DF0BCE
:104E50008092DE0B86010F5F1F4FA4CF80EE9BE098
:104E60009093DF0B8093DE0B87016091DE0B7091D6
:104E7000DF0B6115710511F06C5F7F4F18A21BA24B
:104E800022E0A801CE0180960E94D693811102C033
:104E9000F12C1EC0CE0180960E94F2998823C1F3A6
:104EA0006CA57DA58EA59FA541E00E9467898823FA
:104EB00079F3E8A9B0E2EB9FF0011124EA5AFE4E23
:104EC000309731F385EE80831BA20E942789F82E4C
:104ED000CE0180960E941442FF2009F1E7EFF1E035
:104EE00084917F012FEFE21AF20A882321F00E94B9
:104EF0004842F701F5CFD8018D918D01882319F033
:104F00000E944842F8CF8AE00E94484210920E0E5A
:104F100010920F0E1092100E1092110E18C0E5E0B4
:104F2000F2E084917F01BFEFEB1AFB0A882321F0A6
:104F30000E944842F701F5CFF80181918F01882343
:104F400019F00E944842F8CF8EE20E944842CE01FA
:104F500001960E94B6960C9475368091920B811141
:104F60000E94595B009145031091460361E270E095
:104F7000C8010E941EEA009719F08C010F5F1F4FB5
:104F800080E50E948C40882349F0FF24F3948091AF
:104F90003803909139038017910708F0F12C809124
:104FA000930B882311F40C9475364F2D61E0C801E2
:104FB0000E9447D383E50E948C40882349F080916A
:104FC0003803909139038017910710F40C94AA3696
:104FD0008091930B882319F081E08093920BF1105C
:104FE0000C9475364FCE21E02093910B40E060E0A9
:104FF0000E9447D30C9475360E94BC992CE3C22EB4
:10500000D12CE12CF12CA70196010E94FBF2762E07
:10501000672ECA01B901A70196010E94FBF26B013C
:105020007C01CA01B90128E130E040E050E00E9473
:10503000FBF24B015C01C9016DE671E00E9497E64D
:105040008E010F5F1F4F6115710599F06F927F926E
:10505000DF92CF929F928F929F938F937F936F93C4
:1050600089E592E09F938F931F930F930E94D7EE51
:1050700012C00097B1F06F927F92DF92CF929F9211
:105080008F929F938F9389E492E09F938F931F93C6
:105090000F930E94D7EE0FB6F894DEBF0FBECDBFC0
:1050A00036C081149104A104B10479F06F927F920B
:1050B000DF92CF929F928F928DE392E09F938F9396
:1050C0001F930F930E94D7EEE6CFC114D104E104E1
:1050D000F10469F06F927F92DF92CF9285E392E0C4
:1050E0009F938F931F930F930E94D7EED4CF6F920D
:1050F0007F9281E392E09F938F931F930F930E947F
:10510000D7EE0F900F900F900F900F900F9060E0E0
:10511000C8010E94FBB9EDE4FCE284917F01BFEF7E
:10512000EB1AFB0A882321F00E944842F701F5CFD1
:10513000B8018DE692E00E944F428AE00E94484208
:105140000E941A420C94753683E50E948C40882395
:1051500011F40C9475360E94FA407C018F3F910542
:1051600019F010F00C94753680E50E948C4088236D
:1051700039F00E94FA408C0197FF04C00C947536F8
:105180000BE110E0D02EE1ECF1E0C801992721916C
:1051900031912817390731F022E0E131F207B9F7F0
:1051A0000C946236E7E3F3E384918F010F5F1F4FA6
:1051B000882321F00E944842F801F6CFEAE7F2E0A6
:1051C00084918F010F5F1F4F882311F40C94753663
:1051D0000E944842F801F4CF0E9459620C9475363F
:1051E0008091820B9091830B019711F00C9475368E
:1051F00082E090E09093830B8093820B0E94B378BF
:1052000060938C0B70938D0B80938E0B90938F0B10
:105210000C9475360E9494980C94753688E690E04C
:105220000E94204681110C9475368091E80F83FF0F
:1052300002C00C94753683E50E948C40882371F17E
:105240000E9412410E943CE87093F60A6093F50AAE
:105250000E94A5970E94124120E030E04AEA52E401
:105260000E9407EF18163CF00E94949860E084E9D1
:1052700092E00E94357F0E9412412091F70A3091FE
:10528000F80A4091F90A5091FA0A0E9430E918167A
:105290002CF460E089E892E00E94357F0E9487DC70
:1052A0000C9475368EE40E948C40882311F40C9483
:1052B00075360E9455DC60933A0370933B038093EC
:1052C0003C0390933D030C94753683E50E948C401B
:1052D000882319F00E949F4001C080E08093E80F6E
:1052E000EDE4FCE284918F010F5F1F4F882321F0D2
:1052F0000E944842F801F6CFE5EBF2E084918F017D
:105300000F5F1F4F882321F00E944842F801F6CF1B
:105310008091E80F8823A1F197EAC92E92E0D92E57
:10532000E12CF12C20E08091E80F90E00E2C02C0DF
:10533000959587950A94E2F780FF17C0BB24B39434
:10534000B20E222319F08CE20E944842F601259108
:105350003491F901849189010F5F1F4F882321F057
:105360000E9448429801F5CF2B2DFFEFEF1AFF0A5C
:1053700032E0C30ED11C45E0E416F104A1F60CC0E6
:10538000E1EBF2E084918F010F5F1F4F882321F042
:105390000E944842F801F6CF8AE00E9448420C94ED
:1053A0007536109216010C9475360E9448D00C94F4
:1053B000753683E50E948C40882369F00E949F40E7
:1053C0008093AA018D3310F40C9475368CE380938E
:1053D000AA010C947536EDE4FCE284918F010F5F15
:1053E0001F4F882321F00E944842F801F6CF4091D8
:1053F000AA0150E060E070E085EC92E00E94DE429D
:105400008AE00E9448420C9475368091E80F83FF31
:1054100002C00C94753683E50E948C40882311F4F9
:105420000C9475360E9412410E943CE87093C50AA4
:105430006093C40A0E94A53F0C94753689E690E0FB
:105440000E942046811111C0ECECF2E084918F01A2
:105450000F5F1F4F882321F00E944842F801F6CFCA
:105460000E945FD28AE00E94484210923911109245
:1054700038110C94B4388DE690E00E9420468111DA
:105480000C9475368091E80F83FF02C00C9475363A
:1054900083E50E948C4060968FAF6097811105C0B4
:1054A00082E50E948C408823C1F10E9412410E9433
:1054B0003CE87093F60A6093F50A0E94A5970E9453
:1054C000124120E030E04AEA52E40E9407EF181649
:1054D00014F40C94BC360E94949860E08FEE92E035
:1054E0000E94357F6091F50A7091F60A072E000C34
:1054F000880B990B0E940EEF2091F70A3091F80A61
:105500004091F90A5091FA0A0E9430E918162CF4D9
:1055100060E084EE92E00E94357F0E9487DC81E0AB
:1055200080931601109239111092381127961CAEF3
:105530001DAE1EAE1FAE27972B961CAE1DAE1EAE27
:105540001FAE2B971FAE2C961FAE2C975CE3649674
:105550005FAF64978CE168968FAF689796E46C961E
:105560009FAF6C97E12CF12C00E81FEB812C912C64
:1055700054016091F50A7091F60A072E000C880B11
:10558000990B0E940EEF762E672E582E492E262F4D
:10559000372F482F592FB701C8010E9407EF8823E2
:1055A00019F12091F70A3091F80A4091F90A5091C7
:1055B000FA0A672D762D852D942D0E9407EF881FFE
:1055C0008827881F8FAF6096AFAD6097AA2381F0C0
:1055D000882371F080911601882311F40C9475369C
:1055E00060E08FEC92E06FC17E2C6F2C502E412E2C
:1055F0000E94B3786B017C01DC01CB012B962CADB2
:105600003DAD4EAD5FAD2B97821B930BA40BB50B3D
:10561000B7FD45C0D701C60188519C4FAF4FBF4F62
:105620002B968CAF9DAFAEAFBFAF2B970E945FD2D2
:10563000E0EEF2E084918F010F5F1F4F882321F08D
:105640000E944842F801F6CF81149104A104B104EC
:10565000D1F0D501C401805F984DAF4FBF4FBC0161
:10566000CD016C197D098E099F0928EE33E040E0D9
:1056700050E00E94FBF2CA01B9010E94FB428AE09D
:105680000E9448420CC0EDEDF2E084918F010F5F63
:105690001F4F882321F00E944842F801F6CF0E9454
:1056A000F5C60E943D422090F70A3090F80A00911A
:1056B000F90A1091FA0A9101A801672D762D852D1E
:1056C000942D0E94CFE69F7781149104A104B10428
:1056D00049F420E030E040E85FE30E9407EF87FFF5
:1056E0000BC008C020E030E040E450E40E9430E904
:1056F000181614F4460157019FAD992309F443C0CD
:1057000027962CAD3DAD4EAD5FAD279721153105E8
:105710004105510541F0D701C601821B930BA40B33
:10572000B50BB7FD30C09101A8012C966FAD2C9739
:1057300064967FAD649768968FAD68976C969FADC1
:105740006C970E94CFE620E030E040EC5FE30E94DF
:1057500007EF87FD3FCFD701C601805A9541AF4F74
:10576000BF4F27968CAF9DAFAEAFBFAF27972C969C
:105770002FAE2C9764963FAE649768960FAF6897EC
:105780006C961FAF6C9780911601882309F422CF85
:1057900081149104A104B10429F4E72CF62C052D01
:1057A000142DE7CE90E1C91A97E2D90AE108F10871
:1057B000C818D908EA08FB08F7FE0CCFEECF809195
:1057C000E80F83FF02C00C94753660E083E193E03C
:1057D0000E94357F83E50E948C4060968FAF609772
:1057E00081110C94C03682E50E948C4081110C948A
:1057F000C03681E080931601109239111092381151
:1058000080913F0380933E0327961CAE1DAE1EAED3
:105810001FAE27972B961CAE1DAE1EAE1FAE2B974C
:105820001FAE2C961FAE2C97ACE36496AFAF649777
:10583000BCE16896BFAF6897E6E46C96EFAF6C97F3
:10584000C12CD12C00E8E02E8FEBF82E812C912C6E
:1058500054016091C40A7091C50A072E000C880B90
:10586000990B0E940EEF162F072F782E692E262FE8
:10587000372F482F592FB601C7010E9407EF882301
:1058800031F12091190530911A0540911B05509175
:105890001C05612F702F872D962D0E9407EF881F02
:1058A0008827881F8FAF6096FFAD6097FF2399F020
:1058B000882389F080911601882311F40C947536A1
:1058C00060E082E093E00E94357F0C9475361C2DD9
:1058D0000D2D7E2C6F2C0E94B3786B017C01DC01B6
:1058E000CB012B962CAD3DAD4EAD5FAD2B97821B02
:1058F000930BA40BB50BB7FD47C0D701C601885168
:105900009C4FAF4FBF4F2B968CAF9DAFAEAFBFAF8D
:105910002B970E945FD2EFE0F3E084912F019FEF7D
:10592000491A590A882321F00E944842F201F5CF12
:1059300081149104A104B104D1F0D501C401805FA8
:10594000984DAF4FBF4FBC01CD016C197D098E0939
:105950009F0928EE33E040E050E00E94FBF2CA01CC
:10596000B9010E94FB428AE00E9448420DC0ECE06F
:10597000F3E084912F01AFEF4A1A5A0A882321F0ED
:105980000E944842F201F5CF0E94F5C60E943D42B6
:105990002090190530901A0540901B0550901C0569
:1059A0009101A201612F702F872D962D0E94CFE6C5
:1059B0009F7781149104A104B10449F420E030E000
:1059C00040E85FE30E9407EF87FF0BC008C020E0BC
:1059D00030E040E450E40E9430E9181614F4460127
:1059E0005701BFADBB2309F443C027962CAD3DAD95
:1059F0004EAD5FAD2797211531054105510541F0A9
:105A0000D701C601821B930BA40BB50BB7FD30C0A9
:105A10009101A2012C966FAD2C9764967FAD64978F
:105A200068968FAD68976C969FAD6C970E94CFE695
:105A300020E030E040EC5FE30E9407EF87FD3ACFC3
:105A4000D701C601805A9541AF4FBF4F27968CAF03
:105A50009DAFAEAFBFAF27972C962FAE2C97649615
:105A60003FAE649768964FAE68976C965FAE6C9742
:105A700080911601882309F41DCF81149104A1049B
:105A8000B10429F4C12ED02EE72CF62CE2CE90E101
:105A9000C91A97E2D90AE108F108C818D908EA0832
:105AA000FB08F7FE07CFEECF83E50E948C408823EA
:105AB00021F00E9448DC8C0102C00FEF10E080E56D
:105AC0000E948C40882319F00E9448DC02C080E0CC
:105AD00090E098010F3F110519F010F02FEF30E022
