:100000000C94E9190C94131A0C94131A0C94131AE7
:100010000C94131A0C94131A0C94131A0C94131AAC
:100020000C94131A0C94131A0C94131A0C94131A9C
:100030000C94131A0C94CB6A0C94131A0C94131A84
:100040000C94131A0C94CF4E0C94097F0C94131A31
:100050000C944A430C94131A0C94131A0C94131A0C
:100060000C94131A0C94131A0C94131A0C94131A5C
:100070000C94131A0C94131A0C94131A0C94131A4C
:100080000C94131A0C94131A0C94131A204F2F4F1C
:100090004E4F5D4F784F7D4F804F854F884F8D4F2E
:1000A000904F954F9F4F787E7D7E827E8C7EBA7E6C
:1000B000BA7E967E9E7EA67EB07E69926C925F929C
:1000C000639283928392709274927A927E92084A9B
:1000D000D73B3BCE016E84BCBFFDC12F3D6C74315C
:1000E0009ABD56833DDA3D00C77F11BED9E4BB4CB3
:1000F0003E916BAAAABE000000803F05A84CCDB27D
:10010000D44EB93836A9020C50B9918688083CA65D
:10011000AAAA2ABE000000803F0020746F6F206CE6
:100120006F6E6720657874727573696F6E20707278
:100130006576656E7465640A0020636F6C64206583
:100140007874727573696F6E2070726576656E74FF
:1001500065640A00536C6565702E2E2E005A20705F
:10016000726F6265206F75742E206265640A005A92
:100170002070726F6265206F75742E206265640056
:10018000473238205A20466F7262696464656E0A8D
:1001900000473238205A20466F7262696464656E87
:1001A0000028422961636B00284629726F6E740033
:1001B0002852296967687400284C296566740052C2
:1001C000756E6E696E6720696E204452592D5255C6
:1001D0004E206D6F64650A00473239204175746F97
:1001E00020426564204C6576656C696E670A003F45
:1001F0002856296572626F7365204C6576656C20A0
:10020000697320696D706C61757369626C65202813
:10021000302D34292E0A00205A3A200020593A2045
:100220000042656420583A20004D616C79616E206F
:100230004D3135302072656164792E0052657375D9
:100240006D696E67207072696E7400576169742001
:10025000666F7220757365722E2E2E004E6F206DA4
:100260006F76652E00456E642066696C65206C694A
:1002700073740A00426567696E2066696C65206C5C
:100280006973740A005344207072696E74696E67F2
:10029000206279746520004E6F7420534420707280
:1002A000696E74696E670A0046696C652064656CE6
:1002B000657465643A0044656C6574696F6E2066A8
:1002C00061696C65642C2046696C653A20006F702A
:1002D000656E206661696C65642C2046696C653AC0
:1002E00020002569730025696D2025697300256943
:1002F000682025696D2025697300256964202569BA
:10030000682025696D202569730025697920256994
:1003100064202569682025696D2025697300507265
:10032000696E742074696D653A200050726F74654F
:10033000637465642050696E0A004B494C4C454417
:100340002E200042656420646F6E652E003F0A0017
:1003500020573A004265642048656174696E672ED3
:10036000004649524D574152455F4E414D453A4D29
:1003700061726C696E20312E312E302D524338203F
:1003800042756746697820362044656320323031F3
:100390003620284769746875622920534F555243A7
:1003A000455F434F44455F55524C3A6874747073CF
:1003B0003A2F2F6769746875622E636F6D2F4D61D8
:1003C000726C696E4669726D776172652F4D6172EC
:1003D0006C696E2050524F544F434F4C5F564552FC
:1003E00053494F4E3A312E30204D414348494E45F6
:1003F0005F545950453A4D616C79616E204D3135ED
:10040000302045585452554445525F434F554E5441
:100410003A3120555549443A636564653261326624
:100420002D343161322D343734382D396231322D4B
:100430006335356336326633363766660A007A5F6F
:100440006D696E3A2000795F6D696E3A2000785FC1
:100450006D696E3A20005265706F7274696E672024
:10046000656E6473746F70207374617475730A00C1
:100470004D31343520533C696E6465783E206F758C
:1004800074206F662072616E67652028302D3129D7
:100490000A0053657474696E672054726176656CE6
:1004A00020416363656C65726174696F6E3A200008
:1004B00053657474696E6720526574726163742049
:1004C000416363656C65726174696F6E3A200053B5
:1004D000657474696E67205072696E74204163633D
:1004E000656C65726174696F6E3A2000536574744F
:1004F000696E67205072696E7420616E6420547258
:100500006176656C20416363656C65726174696FC7
:100510006E3A200020643A0020693A0020703A00C8
:1005200043290A0061626C656420286D696E20743D
:10053000656D702000436F6C64206578747275641B
:10054000657320617265200023646566696E6520AD
:100550002044454641554C545F4B6420002364655C
:1005600066696E65202044454641554C545F4B6991
:10057000200023646566696E652020444546415528
:100580004C545F4B702000504944204175746F7487
:10059000756E652066696E697368656421205075A3
:1005A0007420746865206C617374204B702C204B30
:1005B0006920616E64204B6420636F6E7374616E9A
:1005C00074732066726F6D2062656C6F7720696E40
:1005D000746F20436F6E66696775726174696F6EC0
:1005E0002E680A00504944204175746F74756E6519
:1005F000206661696C6564212074696D656F75742E
:100600000A00504944204175746F74756E65206608
:1006100061696C6564212054656D706572617475E3
:10062000726520746F6F20686967680A00204B64E8
:100630003A2000204B693A2000204B703A20000AF3
:1006400020436C617373696320504944200A002081
:1006500054753A2000204B753A2000206D61783A9D
:100660002000206D696E3A200020643A200020624C
:100670006961733A2000426564204C6576656C6957
:100680006E6720004661696C656420746F20656E3A
:1006900061626C6520426564204C6576656C696EAC
:1006A000670A004F666673657473206170706C69C9
:1006B0006564004572723A20546F6F206661722142
:1006C00000546F6F206661722066726F6D207265D4
:1006D000666572656E636520706F696E740A003AB4
:1006E00020007A5F6D61783A20007A5F6D696E3A1A
:1006F00020005A204F6666736574004E6F20636158
:100700007365206C696768740A0041637469766573
:100710002045787472756465723A2000556E6B6E70
:100720006F776E20636F6D6D616E643A2022004EAC
:100730006F204C696E65204E756D62657220776919
:10074000746820636865636B73756D2C204C6173EE
:1007500074204C696E653A20004B494C4C45442E40
:10076000200053544F505045442E20005072696E63
:100770007465722073746F70706564206475652091
:10078000746F206572726F72732E204669782074C0
:100790006865206572726F7220616E642075736582
:1007A000204D39393920746F207265737461727409
:1007B0002E202854656D70657261747572652069AC
:1007C000732072657365742E2053657420697420DC
:1007D00061667465722072657374617274696E67A4
:1007E000290A004E6F20436865636B73756D20772F
:1007F000697468206C696E65206E756D6265722C17
:10080000204C617374204C696E653A200063686502
:10081000636B73756D206D69736D617463682C20F3
:100820004C617374204C696E653A20004C696E65AA
:10083000204E756D626572206973206E6F74204C56
:10084000617374204C696E65204E756D6265722B04
:10085000312C204C617374204C696E653A20004D38
:10086000313130004D3331004D383420582059207B
:100870005A20450053442072656164206572726F8E
:10088000720A00446F6E65207072696E74696E67DB
:100890002066696C650A0020496E76616C69642087
:1008A000657874727564657220000000484300002A
:1008B0004843000048430000000000000000000022
:1008C0000000205A3A200020593A20004265642056
:1008D000583A2000203D3D3D3D0020202020004290
:1008E000696C696E656172204C6576656C696E67CE
:1008F00020477269643A0A200025753A253032751E
:1009000000253032753A2530327500257564202572
:100910003032753A25303275005A005900580009B6
:1009200020000000000000000000000000007FFF29
:10093000E00000000000000000000000007000E087
:1009400000000000000000000000000061F86000EE
:10095000000000000000000000000041F82000003E
:100960000000000000000000000040F02000000037
:1009700000000000000000000040602000000000B7
:1009800000000000000000005801A07F800000006F
:10099000000000004104005C63A0FFC000000000F4
:1009A0000000002082005EF7A0FFC00000000000F1
:1009B00000002082005EF7A0FFC0000000000000E1
:1009C000004104005C63A07F800000000000000084
:1009D0008208005801A07F80000000000000010490
:1009E0001000406020FFC000000000000001041063
:1009F0000040F020FFC0000000000000008208005E
:100A000041F820FFC0000000000000004104006128
:100A1000F8603F00000000000000000000007000CF
:100A2000E01E0000000000000001FFFF807FFFE0EB
:100A30000C0000000000000001FFFF80000000002B
:100A400000000000000000000000007FFFE0000048
:100A5000000000000000000000007000E000000046
:100A6000000000000000000000630C6000000000B7
:100A70000000000000000000470E20000000000001
:100A8000000000000000004F0F20000000000000E8
:100A90000000000000005F0FA00000000000000048
:100AA00000000000005E07A07F8000000000000042
:100AB00000410400406020FFC00000000000000072
:100AC00020820040F020FFC0000000000000002055
:100AD000820040F020FFC000000000000000410440
:100AE000004060207F8000000000000000820800BD
:100AF0005E07A07F80000000000000010410005F7E
:100B00000FA0FFC0000000000000010410004F0F04
:100B100020FFC000000000000000820800470E20F7
:100B2000FFC000000000000000410400630C603FB3
:100B300000000000000000000000007000E01E0047
:100B400000000000000001FFFF807FFFE00C0000BC
:100B5000000000000001FFFF80000000496E697482
:100B60002E2053442063617264004E6F2053442052
:100B700063617264004D3231004368616E676520C5
:100B800053442063617264005072696E742066720F
:100B90006F6D205344004D32310053746F702070DC
:100BA00072696E7400526573756D65207072696E3E
:100BB00074005061757365207072696E7400436FC4
:100BC0006E74726F6C00507265706172650054755E
:100BD0006E6500496E666F2073637265656E000016
:100BE000060900FE000000000001090008FE0000E8
:100BF00005080806000040F0C888889878100508A5
:100C000008060000C0F88888888888F80505050669
:100C100000012030F830200508080600002070F898
:100C200020202020E00509090600FF2070A8A8B8B0
:100C3000888870200509090600FFE080C0B0A82858
:100C40003028280509090600FFF8A88888888888C0
:100C5000A8F8050A0A0600FE205050505088A8A89F
:100C6000887003030306000340A040544845524DDA
:100C7000414C2052554E4157415900546865726DA0
:100C8000616C2052756E61776179004572723A200D
:100C90004D415854454D5020424544004572723AEA
:100CA000204D415854454D50004D415854454D50EC
:100CB00020747269676765726564004572723A20D4
:100CC0004D494E54454D5020424544004572723ABC
:100CD000204D494E54454D50004D494E54454D50C0
:100CE0002074726967676572656400000000000027
:100CF00000000000000000000000000000000000F4
:100D000000000000000000000000000000000000E3
:100D100000000000000000000000000000000000D3
:100D200000000000000000000000000000000000C3
:100D300000000000000000000000000000000000B3
:100D400000000000000000000000000000000000A3
:100D50000000000000000000000000000000000093
:100D60000000000000000000000000000000000083
:100D70000000000000000000000000000000000073
:100D80000000000000000000000000000000000063
:100D90000000000000000000000000000000000053
:100DA0000000000000000000000000000000000043
:100DB0000000000000000000000000000000000033
:100DC0000000000000000000000000000000000023
:100DD0000000000000000000000000000000000013
:100DE0000000000000000000000000000000000003
:100DF0000000000000000000000000070000038069
:100E000000000000000000000000001FC0000FE014
:100E10007C03E0781C0781E0F03E0E7FE0003FF0AD
:100E20007E07E0FC1C0381C1F83F0E7FF8007FF0D5
:100E30007E07E0FC1C03C3C1F83F0E7BFE01FEF001
:100E40007F0FE1FE1C01C383FC3F8E7CFF87F9F01E
:100E5000770EE1FE1C01E783FC3B8E7F7FCFF7F02E
:100E6000779EE1CE1C00E7039C3BCE7F9FFFCFF037
:100E7000739CE3CF1C00FF079E39CE7FE7FF3FF056
:100E800073FCE3871C007E070E39EE7FFBFEFFF04C
:100E900071F8E3871C007E0F0F38EE7FFCF9FFF03E
:100EA00071F8E7FF9C003C0FFF38FE7FFF27FFF043
:100EB00070F0E7FF9C003C0FFF387E7FFFDFFFF004
:100EC00070F0EFFFDC003C1FFFB87E7FDFFFDFF03C
:100ED0007060EF03DFF83C1E07B83E7FC7FF1FF0CE
:100EE0007060EE01DFF83C1C03B83E7FC3FE1FF0CC
:100EF0007000EE01DFF83C1C03B81E7FC3FE1FF03C
:100F000000000000000000000000007FC3DE1FF0B2
:100F10007FFFFFFFFFFFFFFFFFFFFE7FC3DE1FF02E
:100F20007FFFFFFFFFFFFFFFFFFFFE7FC3DE1FF01E
:100F30007C3FFAFBFFFFFFFD7ABFFE7FC3DE1FF0A1
:100F40007D9FFBFFFFFFFFFF7EF7FE7FC3DE1FF0ED
:100F50007D931A8A18E38C451AA2DE3FC3DE0FF098
:100F60007C2DCACAD6E924CD6AB6BE1F83DE07E04F
:100F70007DA36A9AD6E926656AB63E0603DE01803D
:100F80007D910A8AD8E38C451AB37E0003DE000007
:100F90007FFFFFFFFEEFFFFFFFFF7E0003DE00008D
:100FA0007FFFFFFFF1EFFFFFFFFEFE0003DE00000B
:100FB0007FFFFFFFFFFFFFFFFFFFFE0003DE0000DC
:100FC0007FFFFFFFFFFFFFFFFFFFFE0003DE0000CC
:100FD00000000000000000000000000001DC000034
:100FE00000000000000000000000000000500000B1
:100FF00000000000000000000000000000000000F1
:1010000000000000000000000000000000000000E0
:1010100000000000000000000000000000000000D0
:1010200000000000000000000000000000000000C0
:1010300000000000000000000000000000000000B0
:1010400000000000000000000000000000000000A0
:101050000000000000000000000000000000000090
:101060000000000000000000000000000000000080
:101070000000000000000000000000000000000070
:101080000000000000000000000000000000000060
:101090000000000000000000000000000000000050
:1010A0000000000000000000000000000000000040
:1010B0000000000000000000000000000000000030
:1010C0000000000000000000000000000000000020
:1010D0000000000000000000000000000000000010
:1010E0000000000000000000000000466C6F770068
:1010F000466C6F770046616E2073706565640046CC
:10110000616E2073706565640042656400426564C9
:10111000004E6F7A7A6C65004E6F7A7A6C65005378
:1011200070656564005370656564004D61696E00AB
:101130005072656865617420504C412042656400BE
:101140005072656865617420504C41005072657042
:101150006172650050726568656174204142532078
:1011600042656400507265686561742041425300B5
:1011700050726570617265004D34323800436F6F94
:101180006C646F776E0050726568656174204142CF
:1011900053005072656865617420504C41004D38B1
:1011A000340044697361626C6520737465707065A6
:1011B00072730053657420686F6D65206F66667387
:1011C000657473004732380A4732390047323900B4
:1011D0004C6576656C206265640047323800417565
:1011E000746F20686F6D65004D6F7665206178695A
:1011F00073004D61696E004D6F76652058004D6F2C
:1012000076652059004D6F7665205A0045787472D6
:1012100075646572004D6F766520302E316D6D00FE
:101220004D6F766520316D6D004D6F7665203130E4
:101230006D6D004D6F766520617869730045787437
:101240007275646572004D6F7665205A004D6F7639
:10125000652059004D6F76652058004572726F7297
:101260002077726974696E6720746F20454550520B
:101270004F4D210A00206279746573290A00536575
:101280007474696E67732053746F726564202800EC
:10129000454550524F4D20636865636B73756D20F3
:1012A0006D69736D617463680A0020627974657397
:1012B000290A002073746F72656420736574746901
:1012C0006E677320726574726965766564202800A4
:1012D00048617264636F6465642044656661756C1F
:1012E000742053657474696E6773204C6F61646514
:1012F000640A0024F4D43050C38E20C2A240178266
:101300008B7011127A910D816CD90AA861E108C71E
:10131000586607615143061E4B5D05C145A7041A77
:10132000411104093D9803713931034036DB0265F0
:10133000339102D4305402802E1D02632CEE0175CD
:101340002AC501B028A001102781018F2564012B37
:10135000244B01E0223401AC211F018D200D0180BE
:101360001FFC00841EED00971DDF00B81CD200E6B4
:101370001BC600201BBC00641AB200B219A8000AE8
:1013800019A0006A189900D117910040178B00B579
:1013900016840031167E00B31579003A157300C724
:1013A000146F0058146A00EE13660088136300255A
:1013B000135E00C7125B006C12570015125400C177
:1013C00011510070114F0021114B00D61049008DB2
:1013D0001047004610440002104200C00F40008039
:1013E0000F3E00420F3C00060F3B00CB0E3800932F
:1013F0000E37005C0E3500270E3400F30D3200C1AD
:101400000D3100900D3000600D2E00320D2D0005C5
:101410000D2C00D90C2B00AE0C2900850C29005C8A
:101420000C2700350C27000E0C2600E80B2400C406
:101430000B2400A00B23007D0B23005A0B21003945
:101440000B2100180B2000F80A1F00D90A1E00BB50
:101450000A1E009D0A1D00800A1D00630A1C004729
:101460000A1B002C0A1B00110A1A00F7091A00DDDA
:10147000091900C4091900AB091900920917007B6A
:10148000091800630917004C0916003609160020D8
:101490000916000A091500F5081500E0081400CC2B
:1014A000081400B8081400A4081400900813007D64
:1014B0000812006B08130058081200460812003486
:1014C000081100230811001208110001081100F092
:1014D000071000E0071000D0071000C0071000B090
:1014E000070F00A107100091070E0083070F00747B
:1014F000070F0065070E0057070E0049070E003B57
:10150000070D002E070E0020070D0013070D000623
:10151000070D00F9060C00ED060D00E0060C00D4E6
:10152000060C00C8060C00BC060C00B0060C00A49B
:10153000060B0099060C008D060B0082060B007747
:10154000060B006C060B0061060A0057060B004CE8
:10155000060A0042060A0038060A002E060A00247F
:10156000060A001A060A001006090007060A00FD0E
:10157000050900F4050900EB050900E2050900D999
:10158000050900D0050900C7050900BE050900B519
:10159000050800AD050800A50509009C0508009494
:1015A0000508008C050800840508007C0508007407
:1015B0000508006C050700650508005D0507005675
:1015C0000508004E050700470507004005080038DC
:1015D000050700310507002A050700230507001C41
:1015E000050600160507000F05070008050600029E
:1015F000050700FB040600F5040700EE040600E8FA
:10160000040600E2040700DB040600D5040600CF50
:10161000040600C9040600C3040600BD040600B7A2
:10162000040600B1040500AC040600A6040600A0F0
:101630000405009B04060095040500900406008A3A
:1016400004050085040500800406007A0405007581
:10165000040500700405006B0405006604050061C4
:101660000405005C04050057040500520405004D04
:1016700004050048040500430405003E0404003A44
:1016800004050035040500300404002C040500277F
:10169000040400230405001E0404001A04040016B8
:1016A000040500110404000D0404000904050004ED
:1016B00004040000040400FC030400F8030400F424
:1016C000030400F0030400EC030400E8030400E456
:1016D000030400E0030400DC030400D8030400D486
:1016E000030400D0030400CC030400C8030300C5B6
:1016F00003030024F404D9201BC40C5C0E9804C41A
:10170000095F0265077101F405F900FB04B30048A5
:10171000048700C10369005803550003034500BE58
:10172000023A008402310053022A002902250004F3
:10173000022000E4011C00C8011900AF0117009845
:1017400001140084011300710110006101100051A7
:10175000010E0043010D0036010B002B010B002090
:10176000010B00150109000C01090003010800FB31
:10177000000800F3000800EB000700E4000600DEAC
:10178000000600D8000600D2000600CC000500C705
:10179000000500C2000500BD000400B9000400B54A
:1017A000000400B1000400AD000400A9000400A57D
:1017B000000300A20003009F0004009B00030098A8
:1017C0000003009500020093000300900003008DC9
:1017D0000002008B000300880002008600020084E3
:1017E000000300810002007F0002007D0002007BF8
:1017F0000002007900020077000100760002007408
:1018000000020072000100710002006F0002006D12
:101810000001006C0002006A00010069000200671C
:101820000001006600010065000100640002006222
:1018300000010061000100600001005F0002005D26
:101840000001005C0001005B0001005A000100592A
:10185000000100580001005700010056000100552A
:101860000001005400010053000000530001005229
:1018700000010051000100500001004F0001004E26
:101880000000004E0001004D0001004C0001004B23
:101890000000004B0001004A00010049000100481F
:1018A000000000480001004700010046000000461B
:1018B0000001004500000045000100440001004314
:1018C000000000430001004200000042000100410E
:1018D00000000041000100400001003F0000003F07
:1018E0000001003E0000003E0001003D0000003D00
:1018F0000001003C0000003C0000003C0001003BF7
:101900000000003B0001003A0000003A00010039ED
:1019100000000039000100380000003800000038E5
:1019200000010037000000370001003600000036DB
:1019300000000036000100350000003500000035D1
:1019400000010034000000340000003400010033C6
:1019500000000033000000330001003200000032BC
:1019600000000032000100310000003100000031B1
:101970000001003000000030000000300001002FA6
:101980000000002F0000002F0000002F0001002E9B
:101990000000002E0000002E0001002D0000002D90
:1019A0000000002D0000002D0001002C0000002C84
:1019B0000000002C0000002C0001002B0000002B78
:1019C0000000002B0000002B0001002A0000002A6C
:1019D0000000002A0000002A000100290000002960
:1019E0000000002900000029000000290001002853
:1019F0000000002800000028000000280000002847
:101A00000001002700000027000000270000002739
:101A1000000000270001002600000026000000262C
:101A2000000000260000002600010025000000251F
:101A30000000002500000025000000250000002512
:101A40000001002400000024000000240000002405
:101A500000000024000100230000002300000023F8
:101A600000000023000000230000002300000023EA
:101A700000010022000000220000002200000022DD
:101A800000000022000000220001002100000021CF
:101A900000000021000000210000002100000021C2
:101AA00000000021000100200000002000000020B4
:101AB00000000020000000200000002000000020A6
:101AC000000000200001001F0000001F0000001F98
:101AD0000000001F0000001F0000001F0000001F8A
:101AE0000001001E0000001E0000001E0000001E7D
:101AF0000000004D383420582059205A20450062FB
:101B000065640A002C2073797374656D2073746F9B
:101B10007070656421204865617465725F49443A5C
:101B2000200048656174696E67206661696C656450
:101B30000048656174696E67206661696C65640060
:101B400048656174696E67206661696C6564004808
:101B5000656174696E67206661696C65640047320F
:101B60002F47332062616420706172616D65746516
:101B700072730A0020706F736974696F6E206F75DD
:101B800074206F662072616E67652E0A003F507286
:101B90006F626520005374616E64617264204465F5
:101BA00076696174696F6E3A20002052616E6765D4
:101BB0003A2000204D61783A2000204D696E3A208D
:101BC000004D65616E3A200046696E697368656410
:101BD00021002072616E67653A2000206D61783ABD
:101BE0002000206D696E3A2000207369676D613AAC
:101BF0002000206D65616E3A20003A207A3A20007C
:101C0000206F662000205A00205900205800476F9E
:101C1000696E6720746F3A00436C6F636B7769730A
:101C2000650A00436F756E7465722D0020446972F9
:101C3000656374696F6E3A2000202020616E676CC6
:101C4000653A20005374617274696E672072616432
:101C50006975733A2000506F736974696F6E696EAD
:101C600067207468652070726F62652E2E2E0A00E0
:101C70003F4E756D626572206F66206C65677320DC
:101C8000696E206D6F76656D656E74206E6F742061
:101C9000706C61757369626C652028302D3135294F
:101CA0002E0A00590058003F53616D706C65207317
:101CB000697A65206E6F7420706C61757369626CEF
:101CC000652028342D3530292E0A004D3438205A0D
:101CD0002D50726F62652052657065617461626932
:101CE0006C69747920546573740A003F566572629A
:101CF0006F7365204C6576656C206E6F7420706C18
:101D000061757369626C652028302D34292E0A00B4
:101D100048656174696E672E2E2E004D616C796185
:101D20006E204D3135302072656164792E000006D9
:101D30000900FE070192032120FFFF08FF07FF00B3
:101D400000000600000107070602008080808080F6
:101D50000080030202060105A0A005070706000097
:101D60005050F850F850500507070600002078A0A2
:101D70007028F020050707060000C0C81020409812
:101D8000180507070600006090A040A890680203AD
:101D900003060104C04080030707060100204080BD
:101DA000808040200307070601008040202020405B
:101DB0008005050506000120A870A8200505050678
:101DC00000012020F820200203030602FFC040800B
:101DD000050101060003F8020202060200C0C00568
:101DE00005050600010810204080050707060000D1
:101DF0007088888888887003070706010040C04003
:101E0000404040E0050707060000708808708080A9
:101E1000F8050707060000F81020100808F005076D
:101E20000706000010305090F81010050707060054
:101E300000F880F008088870050707060000708029
:101E400080F0888870050707060000F80810202039
:101E500020200507070600007088887088887005B4
:101E600007070600007088887808087002050506D4
:101E70000200C0C000C0C00206060602FFC0C000CB
:101E8000C04080040707060000102040804020105A
:101E9000050303060002F800F804070706010080A6
:101EA00040201020408005070706000070880810B9
:101EB00020002005070706000070880868A8A870A1
:101EC000050707060000708888F8888888050707D6
:101ED000060000F08888F08888F0050707060000F3
:101EE00070888080808870050707060000F0888869
:101EF000888888F0050707060000F88080F0808059
:101F0000F8050707060000F88080F080808005074C
:101F100007060000708880B88888700507070600EB
:101F200000888888F8888888010707060200808072
:101F30008080808080050707060000381010101090
:101F400090600507070600008890A0C0A090880553
:101F50000707060000808080808080F8050707065C
:101F6000000088D8A88888888805070706000088A8
:101F700088C8A898888805070706000070888888A0
:101F8000888870050707060000F08888F080808048
:101F900005070706000070888888A890680507076D
:101FA000060000F08888F0A090880507070600006A
:101FB000788080700808F0050707060000F82020E8
:101FC0002020202005070706000088888888888848
:101FD0007005070706000088888888885020050754
:101FE000070600008888888888A85005070706002B
:101FF00000888850205088880507070600008888D8
:102000008850202020050707060000F8081020400F
:1020100080F8030707060100E08080808080E005EB
:10202000050506000180402010080307070601008F
:10203000E02020202020E005030306000420508833
:10204000050101060000F8020202060205804005B3
:102050000505060000700878887805070706000067
:102060008080B0C88888F005050506000070808073
:1020700088700507070600000808689888887805B2
:1020800005050600007088F8807005070706000047
:102090003048E0404040400506060600FF70888852
:1020A0007808700507070600008080B0C888888817
:1020B00001070706020080008080808080030808F6
:1020C0000601FF200020202020A040040707060072
:1020D00000808090A0C0A090030707060100C040C8
:1020E00040404040E0050505060000D0A8A8A8A88B
:1020F000050505060000B0C88888880505050600A6
:102100000070888888700506060600FFF08888F051
:1021100080800506060600FF78888878080805058F
:1021200005060000B0C88080800505050600007027
:10213000807008F00407070600004040E04040407F
:10214000300505050600008888889868050505069D
:10215000000088888850200505050600008888A8AA
:10216000A850050505060000885020508805060681
:102170000600FF888888780870050505060000F8C5
:10218000102040F80307070601002040408040402F
:10219000200107070602008080808080808003077E
:1021A00007060100804040204040800502020600F2
:1021B0000268900000000600000000000600000019
:1021C00000000600000000000600000000000600FD
:1021D00000000000060000000000060000000000F3
:1021E00006000000000006000000000006000000DD
:1021F00000000600000000000600000000000600CD
:1022000000000000060000000000060000000000C2
:1022100006000000000006000000000006000000AC
:10222000000006000000000006000000000006009C
:102230000000000006000000000006000000000092
:10224000060000000000060000000000060000007C
:10225000000006000000000006000000000006006C
:102260000000000006000000000006000000000062
:10227000060000000000060000000000060000014B
:10228000070706020080008080808080050707061F
:1022900000002070A8A0A8702005070706000030E5
:1022A0004040E04050A805050506000088705070C9
:1022B00088050707060000885020F820F82001074D
:1022C00007060200808080008080800508080600E4
:1022D000003048205050209060030101060107A003
:1022E000050707060000F888B8B8B888F80507079A
:1022F000060001700878887800F8050505060001D9
:102300002850A05028050303060001F8080802021F
:10231000020602064080050707060000F888A88824
:1023200098A8F8050101060006F804040406000355
:10233000609090600507070600002020F82020002C
:10234000F804050506000360902040F0030505062B
:102350000003E020E020E0020202060206408005C1
:1023600008080600FF8888888898E88080050707A5
:1023700006000078989878181818020202060202DF
:10238000C0C00202020602FF4080030505060003EA
:1023900040C04040E005070706000170888888704B
:1023A00000F8050505060001A0502850A005070704
:1023B0000600008890A858B808080507070600001E
:1023C0008890B848982038050808060000C040C02A
:1023D00048D838080805070706000020002040807C
:1023E00088700508080600004020007088F888887A
:1023F0000508080600001020007088F88888050885
:10240000080600002050007088F888880508080633
:1024100000006890007088F88888050808060000A9
:102420005000708888F88888050808060000205049
:10243000207088F888880507070600003860A0B873
:10244000E0A0B80508080600FF708880808870202A
:1024500060050808060000402000F880F080F805BC
:102460000808060000081000F880F080F805080849
:10247000060000205000F880F080F80507070600ED
:10248000005000F880F080F8030808060100804042
:1024900000E0404040E0030808060100204000E062
:1024A000404040E003080806010040A000E0404032
:1024B00040E0030707060100A000E0404040E005BF
:1024C0000707060000704848E848487005080806F5
:1024D000000068900088C8A89888050808060000D1
:1024E0004020708888888870050808060000102041
:1024F00070888888887005080806000020500070E1
:102500008888887005080806000068900070888830
:102510008870050808060000500070888888887058
:1025200005050506000188502050880508080600AA
:10253000FF1070A8A8A8A870400508080600004071
:102540002088888888887005080806000010208880
:102550008888888870050808060000205000888850
:1025600088887005080806000050008888888888D8
:102570007005080806000010208850202020200543
:1025800009090600FFC040704848704040E0040858
:10259000080601FF609090A09090E0800508080672
:1025A00000004020007008788878050808060000C0
:1025B0001020007008788878050808060000205070
:1025C0000070087888780508080600006890007098
:1025D000087888780507070600005000700878889A
:1025E00078050808060000205020700878887805D3
:1025F0000606060000D02878A0A8500506060600AA
:10260000FF708088702060050808060000402000E8
:102610007088F88070050808060000102000708897
:10262000F880700508080600002050007088F880C7
:102630007005070706000050007088F880700308D6
:102640000806010080400040C04040E00308080642
:10265000010020400040C04040E00308080601009F
:1026600040A00040C04040E0030707060100A00072
:1026700040C04040E0050707060000A040A01078D9
:102680008870050808060000689000B0C88888882F
:10269000050808060000402000708888887005083A
:1026A0000806000010200070888888700508080659
:1026B0000000205000708888887005080806000017
:1026C0006890007088888870050707060000500031
:1026D00070888888700505050600012000F8002034
:1026E0000507070600FF1070A8A8A8704005080895
:1026F00006000040200088888898680508080600C1
:1027000000102000888888986805080806000020C6
:1027100050008888889868050707060000500088E0
:10272000888898680509090600FF102000888888B5
:10273000F808700407070601FFC04060506040E0E1
:102740000508080600FF50008888887808704578DA
:10275000747275646572004D6F7665205A004D6F16
:1027600076652059004D6F7665205800507265706F
:1027700061726500526573746F7265206661696C81
:1027800073616665004C6F6164206D656D6F727971
:102790000053746F7265206D656D6F7279004669C4
:1027A0006C616D656E74004D6F74696F6E00546579
:1027B0006D7065726174757265004D61696E00506F
:1027C0007265686561742041425320636F6E6600D4
:1027D0005072656865617420504C4120636F6E666D
:1027E000005049442D44005049442D440050494470
:1027F0002D49005049442D49005049442D50005066
:1028000049442D50002008204661637400200820B0
:1028100046616374002008204D6178002008204D37
:102820006178002008204D696E002008204D696EF7
:10283000004F6666004F6E20004175746F74656DC1
:10284000700046616E2073706565640046616E209D
:1028500073706565640042656400426564004E6F94
:102860007A7A6C65004E6F7A7A6C6500436F6E748D
:10287000726F6C0053746F7265206D656D6F727945
:102880000042656400426564004E6F7A7A6C6500B0
:102890004E6F7A7A6C650046616E20737065656470
:1028A0000046616E2073706565640054656D7065E7
:1028B0007261747572650070012C0190012701B07E
:1028C000012201C0011D01F00118011002130130A5
:1028D000020E016002090190020401C002FF000023
:1028E00003FA004003F5008003F000D003EB002062
:1028F00004E6007004E100E004DC004005D700C0FD
:1029000005D2004006CD00D006C8008007C30030C5
:1029100008BE00F008B900C009B400B00AAF00B0AA
:102920000BAA00D00CA500000EA000500F9B00C009
:102930001096005012910000148C00C0158700B052
:10294000178200B0197D00D01B7800001E73004074
:10295000206E0090226900F024640040275F009000
:10296000295A00E02B5500102E500020304B00104B
:10297000324600E033410090353C0010373700709C
:10298000383200A0392D00B03A2800A03B23006067
:102990003C1E00103D1900903D1400103E0F0070C9
:1029A0003E0A00C03E0500003F0000403FFBFF80A4
:1029B0003FF6FFC03FF1FF43616E6E6F74206F7092
:1029C000656E207375626469722000206669727397
:1029D00074005A0059005800486F6D652000206649
:1029E000697273740A005A0059005800486F6D6587
:1029F00020006563686F3A00000021002400270072
:102A00002A0000002200250028002B0000002000E2
:102A1000230026002900020202020202020204042C
:102A20000404040404040303030303030303010174
:102A3000010101010101010204081020408001028E
:102A400004081020408001020408102040808040CB
:102A5000201008040201000000010200090A000021
:102A60000000040308070000000000000000000050
:102A70000000000000004B494C4C45442E20002033
:102A80002D20496E76616C69642065787472756476
:102A90006572206E756D62657220210A00202050DB
:102AA0006C616E6E657242756666657242797465B8
:102AB000733A20002046726565204D656D6F72790E
:102AC0003A2000436F6D70696C65643A204A616E0C
:102AD00020323120323031370A00207C2041757499
:102AE000686F723A202842696F6E6963626F6E6523
:102AF000290A00323031362D31322D303620313234
:102B00003A303000204C61737420557064617465F4
:102B1000643A2000312E312E302D52433820427538
:102B20006746697820362044656320323031360AA2
:102B3000004D61726C696E0020536F66747761722C
:102B4000652052657365740A002057617463686478
:102B50006F672052657365740A002042726F776E4A
:102B6000206F75742052657365740A00204578746F
:102B700065726E616C2052657365740A00506F77E0
:102B8000657255700A0073746172740A006572721E
:102B90006F722077726974696E6720746F2066693E
:102BA0006C650A00456E6473746F70732025632032
:102BB000256320256320256300205A3A0020593AD6
:102BC0000020583A00656E6473746F7073206869F2
:102BD000743A2000446F6E6520736176696E6720D9
:102BE00066696C652E0A004D323900434F4D4D55D4
:102BF0004E49434154494F4E0044525952554E009C
:102C00004552524F525300494E464F004543484F9C
:102C1000002042403A0020403A00202F0020423A53
:102C200000202F0020543A006F6B004865617469E2
:102C30006E6720646F6E652E003F0A0020573A00D1
:102C400048656174696E672E2E2E004D616C796146
:102C50006E204D3135302072656164792E000C2C68
:102C6000072C002CF92BEB2B6F6666004445425570
:102C7000473A004D3131332053004D616C79616E1C
:102C8000204D313530204F66662E00205A3A002004
:102C9000593A0020436F756E7420583A2000204541
:102CA0003A00205A3A0020593A00583A00205A0077
:102CB000205900580020204D61783A2000205A0009
:102CC000205900580020204D696E3A20004F6E2098
:102CD000004F666600536F667420656E6473746F90
:102CE00070733A200020746F6F206C6F6E672065E0
:102CF0007874727573696F6E2070726576656E7424
:102D000065640A0020636F6C642065787472757363
:102D1000696F6E2070726576656E7465640A006214
:102D20007573793A2070617573656420666F7220DF
:102D3000696E7075740A00627573793A20706175F6
:102D400073656420666F7220757365720A00627520
:102D500073793A2070726F63657373696E670A00E6
:102D60004B494C4C45442E2000506C6561736520E6
:102D70007265736574005052494E54455220484163
:102D80004C544544005072696E7465722068616CE1
:102D90007465642E206B696C6C28292063616C6CEF
:102DA0006564210A00656E7175657565696E6720D9
:102DB0002200000000000000000000000000576139
:102DC000726E696E673A20486F6D696E6720427552
:102DD0006D702044697669736F72203C20310A005F
:102DE0000000A0400000A040000000400000484358
:102DF0000000484300004843FFFFFF4573746570BF
:102E0000732F6D6D004573746570732F6D6D005A6F
:102E100073746570732F6D6D005A73746570732FC2
:102E20006D6D005973746570732F6D6D00597374F7
:102E30006570732F6D6D005873746570732F6D6DB1
:102E4000005873746570732F6D6D00412D7472613D
:102E500076656C00412D74726176656C00412D724F
:102E600065747261637400412D726574726163747C
:102E700000416D6178204500416D61782045004139
:102E80006D6178205A00416D6178205A00416D6172
:102E900078205900416D6178205900416D6178209A
:102EA0005800416D61782058005654726176206D4B
:102EB000696E005654726176206D696E00566D69B8
:102EC0006E00566D696E00566D6178204500566D36
:102ED0006178204500566D6178205A00566D617802
:102EE000205A00566D6178205900566D617820593E
:102EF00000566D6178205800566D61782058005654
:102F0000652D6A65726B0056652D6A65726B005699
:102F10007A2D6A65726B00567A2D6A65726B00565F
:102F2000792D6A65726B0056792D6A65726B005651
:102F3000782D6A65726B0056782D6A65726B004158
:102F40006363656C00416363656C005A204F66667D
:102F5000736574005A204F666673657400436F6E24
:102F600074726F6C007C3C3E5E2B3D3F2F5B5D3B83
:102F70002C2A225C0053442063617264206F6B0A28
:102F8000006F70656E526F6F74206661696C656466
:102F90000A00766F6C756D652E696E6974206661C6
:102FA000696C65640A00534420696E697420666127
:102FB000696C0A0020204D383531205A005A2D50B6
:102FC000726F6265204F666673657420286D6D2987
:102FD0003A0A0020204D3230302044300A002020B0
:102FE0004D3230302044002044697361626C656466
:102FF0000A0046696C616D656E742073657474694E
:103000006E67733A0020440020490020204D333081
:10301000312050005049442073657474696E6773A1
:103020003A0A0020460020420020480020204D316E
:1030300034352053004D6174657269616C20686598
:103040006174757020706172616D65746572733A38
:103050000A0020204D3432302053004175746F2017
:10306000426564204C6576656C696E673A0A00209B
:103070005A0020590020204D323036205800486F29
:103080006D65206F666673657420286D6D290A0072
:10309000204500205A0020590020580020420020DE
:1030A000540020204D323035205300416476616E4B
:1030B000636564207661726961626C65733A20535E
:1030C0003D4D696E20666565647261746520286D8A
:1030D0006D2F73292C20543D4D696E2074726176DA
:1030E000656C20666565647261746520286D6D2F5E
:1030F00073292C20423D6D696E696D756D20736575
:10310000676D656E742074696D6520286D73292C58
:1031100020583D6D6178696D756D205859206A653C
:10312000726B20286D6D2F73292C20205A3D6D6104
:1031300078696D756D205A206A65726B20286D6DF7
:103140002F73292C2020453D6D6178696D756D20A8
:1031500045206A65726B20286D6D2F73290A002047
:10316000540020520020204D323034205000416362
:1031700063656C65726174696F6E733A20503D705F
:1031800072696E74696E672C20523D72657472614B
:10319000637420616E6420543D74726176656C0ABC
:1031A00000204500205A0020590020204D323031A7
:1031B0002058004D6178696D756D20416363656CC1
:1031C00065726174696F6E20286D6D2F7332293AB4
:1031D0000A00204500205A0020590020204D32309E
:1031E000332058004D6178696D756D2066656564A2
:1031F000726174657320286D6D2F73293A0A00205F
:103200004500205A0020590020204D393220580016
:1032100053746570732070657220756E69743A0A14
:10322000006175746F25692E67004D3234004D3290
:10323000332025730057726974696E6720746F209C
:1032400066696C653A20006F70656E206661696C16
:1032500065642C2046696C653A20006F70656E20AD
:103260006661696C65642C2046696C653A2000468D
:10327000696C652073656C65637465640A0020532E
:10328000697A653A200046696C65206F70656E65E5
:10329000643A20006F70656E206661696C65642C0D
:1032A0002046696C653A20002066696C653A20000A
:1032B0004E6F7720002220706F73002220706172A1
:1032C000656E743A2200535542524F5554494E454B
:1032D0002043414C4C207461726765743A22004B64
:1032E000494C4C45442E2000747279696E672074F5
:1032F0006F2063616C6C207375622D67636F64650A
:103300002066696C6573207769746820746F6F201C
:103310006D616E79206C6576656C732E204D415819
:10332000206C6576656C2069733A004572726F7225
:103330003A0046696C2E204469612E0046696C2E65
:10334000204469612E004F6666004F6E20004520C4
:10335000696E206D6D3300436F6E74726F6C004345
:10336000616E6E6F7420656E746572207375626431
:1033700069723A2000022E2E000152656672657352
:1033800068004D61696E00526573656E643A200095
:103390006F6B004E414E494E495459494E46CDCC73
:1033A000CC3D0AD7233C17B7D13877CC2B32959533
:1033B000E6241FB14F0A000020410000C84200402F
:1033C0001C4620BCBE4CCA1B0E5AAEC59D7450DDB7
:1033D0004FE211241FBECFEFD0E4DEBFCDBF13E01C
:1033E000A0E0B1E0E8EFF4EE01E00BBF02C007900F
:1033F0000D92AA33B107D9F723E1AAE3B3E001C0E4
:103400001D92AE36B207E1F719E1C8EED9E104C06A
:103410002197FE010E94D0E5C73ED107C9F70E945F
:1034200030DE0C946FF20C9400002F923F924F927A
:103430005F926F927F928F929F92AF92BF92CF9244
:10344000DF92EF92FF920F931F93CF93DF93CDB74D
:10345000DEB7C358D1090FB6F894DEBF0FBECDBF9B
:103460000091CE0F20E6029F80011124025B114FD4
:1034700010934A03009349038091DA0F80FF18C02C
:10348000E2EFF9E284917F013FEFE31AF30A882328
:1034900021F00E94F83CF701F5CFD8018D918D0104
:1034A000882319F00E94F83CF8CF8AE00E94F83C8B
:1034B0002091490330914A03F90180812F5F3F4FEA
:1034C0008032D1F3F0934A03E09349038E3469F0DC
:1034D0001091490300914A036AE270E0812F902F16
:1034E0000E942FE90097D1F420C0818190ED980FC0
:1034F0009A3010F08D3261F73296DF0131962C91BF
:1035000020532A30D0F3CD01FC01019620812032D6
:10351000D9F3F0934A03E0934903DACFFC013196E3
:103520008291803231F08A3221F0A12FB02F9D910B
:1035300002C01082F5CFFD01808111968032D9F34F
:1035400080538A3020F0E2EFF9E20C94CE3400E0B0
:1035500010E02AE0209FB001219F700D11248B0103
:10356000005311098191080F111D87FD1A95808163
:1035700080538A3078F37F013196D7018C91803265
:10358000D1F3F0924803E092470321E030E030931A
:10359000F50F2093F40F9D3411F40C940724943507
:1035A00011F40C949734973411F00C94B0340C311E
:1035B000110509F489C168F40430110520F40230C2
:1035C000110518F13AC10430110509F43FC10C94FA
:1035D000C5340A35110511F40C94472350F40D310C
:1035E000110509F4D9C20E31110509F477C70C94FD
:1035F000C5340B35110511F40C944B230C35110512
:1036000011F40C9450230C94C5348091320188231A
:1036100011F40C94C5340E94E4778EEF9FE00E9471
:10362000B0D90E94B33C8091DA0F83FD93C0C09063
:103630000A10D0900B10E0900C10F0900D1020911B
:10364000290E30912A0E40912B0E50912C0EC7015D
:10365000B6010E9418EE882309F47CC08091D50F32
:10366000811134C0209195013091960140919701CC
:10367000509198016091ED0A7091EE0A8091EF0AE5
:103680009091F00A0E9418EE87FF20C0C092290E88
:10369000D0922A0EE0922B0EF0922C0EE2EFF9E27D
:1036A00084918F010F5F1F4F882321F00E94F83C07
:1036B000F801F6CFE9E3F1E084918F010F5F1F4F2E
:1036C000882321F00E94F83CF801F6CFC0900A1040
:1036D000D0900B10E0900C10F0900D102091290E5E
:1036E00030912A0E40912B0E50912C0EC701B6013D
:1036F0000E94E0E50E944DE797FF07C090958095F6
:10370000709561957F4F8F4F9F4F693C7105810583
:10371000910504F1C092290ED0922A0EE0922B0E50
:10372000F0922C0EE2EFF9E284918F010F5F1F4FB0
:10373000882321F00E94F83CF801F6CFEAE1F1E09D
:1037400084918F010F5F1F4F882321F00E94F83C66
:10375000F801F6CF2091FE0F3091FF0F409100103D
:103760005091011060911D0E70911E0E80911F0EE0
:103770009091200E0E9418EE81111DC02091021020
:103780003091031040910410509105106091210E6A
:103790007091220E8091230E9091240E0E9418EEBB
:1037A000811109C0609100017091010180910201B5
:1037B000909103013CC08091D40F60911E017091E3
:1037C0001F018823F1F0072E000C880B990B0E9433
:1037D0001FEE2091000130910101409102015091B2
:1037E00003010E947EEE2AE037ED43E25CE30E9493
:1037F0007EEE2FEF3FEF4FEF5FEF0E9479D40C94F6
:10380000C534072E000C880B990B0E941FEE2091E7
:1038100000013091010140910201509103010E9489
:103820007EEE2AE037ED43E25CE30E947EEE0E94EA
:10383000A4390E949A390C94C53481E002301105F4
:1038400009F080E00E9458780C94C53480E50E940D
:10385000FF39882329F00E94923A6B017C0103C052
:10386000C12CD12C760183E50E94FF39882321F0F9
:103870000E94C63A6B017C010E94876A0E94B33C99
:103880008091F60F9091F70FA091F80FB091F90F7A
:10389000C80ED91EEA1EFB1E80914B01811105C086
:1038A00060E084E591E00E947F850E94FD7EDC015E
:1038B000CB018C199D09AE09BF09B7FD02C00C945C
:1038C000C5340E9410ABF1CF0E94876A80E00E944D
:1038D00098370E94D83C11E01093940188E50E942B
:1038E000FF39E82E89E50E94FF39082F8AE50E94FA
:1038F000FF39F82EE11005C0011105C0982F91275E
:1039000005C0011102C090E001C0982F90930401FE
:1039100080E1EDE1FEE0AEEFBFE001900D928A950F
:10392000E1F7911104C0E11002C00023D9F120E0B9
:1039300030E040EA50E46091BC107091BD1080917D
:10394000BE109091BF100E94E1E52091B01030911F
:10395000B1104091B2105091B3100E94E1E5609314
:10396000061070930710809308109093091020910F
:10397000250E3091260E4091270E5091280E0E9460
:1039800041E818167CF419821A821B821C829E015F
:103990002F5F3F4F46E050E161E27EE08DE19EE027
:1039A0000E94F23780910401811102C0EE2021F0C3
:1039B00080E090E00E940BA980910401811102C077
:1039C000002321F081E090E00E940BA98091040186
:1039D000811103C0FF2009F4D3C08091190E882300
:1039E00021F080911A0E81111EC060E081E991E002
:1039F0000E947F85E2EFF9E284918F010F5F1F4FF4
:103A0000882321F00E94F83CF801F6CFE0E8F1E0CD
:103A100084918F010F5F1F4F882309F4B1C00E946A
:103A2000F83CF801F5CF0E94523B20E030E048EC32
:103A300052E46091B4107091B5108091B6109091DD
:103A4000B7100E94E1E52091A8103091A910409193
:103A5000AA105091AB100E94E1E54B015C0160930C
:103A6000FE0F7093FF0F809300109093011020E0E1
:103A700030E048EC52E46091B8107091B910809138
:103A8000BA109091BB100E94E1E52091AC103091EA
:103A9000AD104091AE105091AF100E94E1E56B0166
:103AA0007C01609302107093031080930410909334
:103AB00005108091250E9091260EA091270EB091B1
:103AC000280E8093061090930710A0930810B093CF
:103AD00009108EEF9FE00E9477C28823A1F120E0B9
:103AE00030E048EC51E4C501B4010E94E0E5609388
:103AF000FE0F7093FF0F809300109093011020E051
:103B000030E048E452E4C701B6010E94E1E5609369
:103B10000210709303108093041090930510198283
:103B20001A821B821C829E012F5F3F4F45E25EE09E
:103B300062E070E18EEF9FE00E94F23782E090E059
:103B40000E940BA91DC060E08FE691E00E947F8576
:103B5000E2EFF9E284918F010F5F1F4F882321F07C
:103B60000E94F83CF801F6CFEDE5F1E084918F0179
:103B70000F5F1F4F882321F00E94F83CF801F6CF19
:103B80000E94523B80917E05809394010E94BE3C2E
:103B90000E94B8930C94C5340E94AD8C81110C9492
:103BA000C53486E50E94FF39882339F00E947A3AAD
:103BB00060969FAF8EAF609706C0E1E0F0E0609640
:103BC000FFAFEEAF609760962EAD3FAD60972530AA
:103BD000310570F0EFEEF1E084918F010F5F1F4F20
:103BE000882311F40C94C5340E94F83CF801F4CFFA
:103BF00084E40E94FF392A968FAF2A9785E40E94B9
:103C0000FF39A2968FAFA29760964EAD5FAD6097D9
:103C1000452BE9F0E8EDF1E084918F010F5F1F4F34
:103C2000882321F00E94F83CF801F6CF2A965FAD78
:103C30002A97552361F0EFEBF1E084918F010F5F3C
:103C40001F4F882321F00E94F83CF801F6CF83E54E
:103C50000E94FF39882349F00E949D3A20E030E01D
:103C600040E752E40E94DBE604C065E575E585E0C7
:103C700093E460930501709306018093070190938C
:103C800008018CE40E94FF39882319F00E949D3AB4
:103C900018C020E030E048E452E46091B410709124
:103CA000B5108091B6109091B7100E94E1E5209177
:103CB000A8103091A9104091AA105091AB100E9409
:103CC000E1E50E944DE721967FAF6EAF219782E537
:103CD0000E94FF39882319F00E949D3A18C020E005
:103CE00030E046E153E46091B4107091B5108091DA
:103CF000B6109091B7100E94E1E52091A810309184
:103D0000A9104091AA105091AB100E94E1E50E94C9
:103D10004DE78B0186E40E94FF39882319F00E9449
:103D20009D3A18C020E030E048E452E46091B810B9
:103D30007091B9108091BA109091BB100E94E1E58A
:103D40002091AC103091AD104091AE105091AF1059
:103D50000E94E1E50E944DE71B0182E40E94FF39C9
:103D6000882319F00E949D3A18C020E030E046E117
:103D700053E46091B8107091B9108091BA1090918D
:103D8000BB100E94E1E52091AC103091AD10409144
:103D9000AE105091AF100E94E1E50E944DE72996C8
:103DA0007FAF6EAF29972196AEADBFAD2197BD0114
:103DB000BB0F880B990B0E941FEE65966CAF7DAF11
:103DC0008EAF9FAF65978090B4109090B510A09083
:103DD000B610B090B710C090A810D090A910E09085
:103DE000AA10F090AB1020E030E048EC51E4C5019F
:103DF000B4010E94E1E5A70196010E94E1E59B0163
:103E0000AC0165966CAD7DAD8EAD9FAD65970E94A2
:103E100018EE87FD11C0B1E06196BFAF6197C80190
:103E200009972196EEADFFAD2197E817F90744F405
:103E300061961FAE619704C0F1E06196FFAF619794
:103E4000B801012E000C880B990B0E941FEE2B016C
:103E50003C0120E030E048E453E4C501B4010E9495
:103E6000E1E5A70196010E94E1E59B01AC01C301D8
:103E7000B2010E9441E8181684F021E024962FAF89
:103E8000249721968EAD9FAD2197099680179107B3
:103E900044F424961FAE249704C031E024963FAF2B
:103EA0002497B101032C000C880B990B0E941FEE84
:103EB00069966CAF7DAF8EAF9FAF69978090B81059
:103EC0009090B910A090BA10B090BB10C090AC10F8
:103ED000D090AD10E090AE10F090AF1020E030E048
:103EE000A901C501B4010E94E1E5A70196010E9464
:103EF000E1E59B01AC0169966CAD7DAD8EAD9FADEA
:103F000069970E9418EE87FD10C041E02E964FAFD2
:103F10002E9729968EAD9FAD2997099728163906B9
:103F200044F42E961FAE2E9704C051E02E965FAF3C
:103F30002E972996AEADBFAD2997BD01BB0F880B5B
:103F4000990B0E941FEE2B013C0120E030E046E17E
:103F500053E4C501B4010E94E1E5A70196010E9466
:103F6000E1E59B01AC01C301B2010E9441E8FF24DD
:103F7000F394181654F0C10109962996EEADFFADE1
:103F800029978E179F070CF4F12C6196FFAD61976E
:103F9000F11112C024962FAD2497222329F080EB33
:103FA00091E00E94287211C02E963FAD2E973111DC
:103FB0000CC0F11013C01CC088EB91E00E94287265
:103FC00024964FAD24974111EACF2E965FAD2E97E0
:103FD000552321F088EA91E00E942872FF2011F415
:103FE0000C94C53481EA91E00E9428720C94C53487
:103FF0000E94876A8091D40F24968FAF24971092E5
:10400000D40F2A969FAD2A97911106C084E690E0BE
:104010000E9485D70E94523B0E94D83C81E00E94BA
:104020004F39882339F02496AFAD2497A093D40F4D
:104030000C94C53418A219A21AA21BA219821A82C2
:104040001B821C822196EEADFFAD21970E1B1F0B2C
:1040500017FF02C00F5F1F4F15950795B801012E7E
:10406000000C880B990B0E941FEE6D966CAF7DAF14
:104070008EAF9FAF6D972996AEACBFAC2997A218B3
:10408000B308B7FE03C0FFEFAF1ABF0AB594A794F9
:10409000B5010B2C000C880B990B0E941FEEA1960A
:1040A0006CAF7DAF8EAF9FAFA197C0908610D090C0
:1040B0008710E0908810F09089108AE50E94FF39FF
:1040C000882351F00E949D3A9B01AC01C701B601C3
:1040D0000E94E1E56B017C0160917A0570917B059E
:1040E000072E000C880B990B0E941FEE9B01AC0160
:1040F0006D966CAD7DAD8EAD9FAD6D970E9418EE47
:10410000811129C060917C0570917D05072E000CFE
:10411000880B990B0E941FEE9B01AC01A1966CAD20
:104120007DAD8EAD9FADA1970E9418EE811113C099
:10413000809176059091770521962EAD3FAD219720
:104140002817390741F48091780590917905281650
:10415000390609F452C024963FAD24973093D40F0A
:104160000E94B83710937B0500937A05B0927D05C5
:10417000A0927C052091B4103091B5104091B610FA
:104180005091B71065966CAD7DAD8EAD9FAD6597C6
:104190000E94E0E52091A8103091A9104091AA104A
:1041A0005091AB100E94E0E50E944DE770937705B7
:1041B000609376052091B8103091B9104091BA10F3
:1041C0005091BB1069966CAD7DAD8EAD9FAD69977A
:1041D0000E94E0E52091AC103091AD104091AE10FE
:1041E0005091AF100E94E0E50E944DE77093790571
:1041F0006093780524961FAE249741E028964FAF30
:10420000289721961FAE1EAE219751E02E965FAFE4
:104210002E9783E061968FAF6197312C28962FAD52
:10422000289731E0232728962FAF289721968EAD27
:104230009FAD2197092E000CAA0BBB0BA6968CAF45
:104240009DAFAEAFBFAFA69761962FAD6197321607
:1042500009F4A5C0632D032C000C770B880B990B78
:104260000E941FEE9B01AC016D966CAD7DAD8EADD5
:104270009FAD6D970E947EEE9B01AC0165966CAD83
:104280007DAD8EAD9FAD65970E94E1E52B013C01B0
:10429000A6966CAD7DAD8EAD9FADA6970E941FEE2C
:1042A0009B01AC01A1966CAD7DAD8EAD9FADA1978C
:1042B0000E947EEE9B01AC0169966CAD7DAD8EAD2A
:1042C0009FAD69970E94E1E54B015C0120E030E081
:1042D000A901C301B2010E9418EE87FD05C020E0CC
:1042E00030E040E05FE303C020E030E0A901C3011B
:1042F000B2010E94E1E50E9483E768A379A38AA343
:104300009BA320E030E0A901C501B4010E9418EE92
:1043100087FD05C020E030E040E05FE303C020E01F
:1043200030E0A901C501B4010E94E1E50E9483E7E4
:1043300069837A838B839C8360962EAD3FAD6097B3
:10434000A2964FADA297BE016F5F7F4FCE018096C0
:104350000E948641232D032C000C330B8901000F92
:10436000111F020F131F2196AEADBFAD21970A0F8B
:104370001B1F000F111F000F111F0E5A1A4FA7010C
:1043800096010E94E1E5F801608371838283938343
:104390000E9410AB2E96FFAD2E973F0E55CF219663
:1043A0004EAD5FAD21974F5F5F4F21965FAF4EAF30
:1043B000219743305105C9F028969FAD2897911158
:1043C0000BC0AFEF2E96AFAF2E97BFEF6196BFAF8A
:1043D000619762E0362E22CFE1E02E96EFAF2E9766
:1043E000F3E06196FFAF619718CF80E00E944F39EC
:1043F000882339F024965FAD24975093D40F0C9402
:10440000C5340E94BE3C2A968FAD2A9781112BC0DD
:1044100011E092E0D92ECC24C39490E0FD2CF11A47
:1044200001E0090FEC2CE91A21E041E06E2D812F0B
:104430000E948CDA21E04FEF6E2D8F2D0E948CDAD6
:104440002FEF41E0602F812F0E948CDA2FEF4FEF8A
:10445000602F8F2D0E948CDA91E0023009F7112332
:1044600011F010E0DACF0E943BDC2A969FAD2A972C
:10447000911118C08DE19EE00E94D1D79B01AC0143
:104480006091250E7091260E8091270E9091280E36
:104490000E94E0E56093250E7093260E8093270E10
:1044A0009093280E0E94B89381E090E09093F50FCE
:1044B0008093F40F2A96AFAD2A97AA2321F0249671
:1044C0008FAD249701C081E08093D40F882311F42D
:1044D0000C94C5340E94523B0C94C53488E50E946C
:1044E000FF39882319F00E949D3A0EC020E030E089
:1044F00048EC51E460911D0E70911E0E80911F0ECC
:104500009091200E0E94E1E56BAF7CAF8DAF9EAF26
:1045100089E50E94FF39882319F00E949D3A0EC058
:1045200020E030E048E452E46091210E7091220EC8
:104530008091230E9091240E0E94E0E568A379A358
:104540008AA39BA30BAD1CAD2DAD3EAD09831A8391
:104550002B833C836D837E838F83988720E030E0BC
:10456000A9016091BC107091BD108091BE10909116
:10457000BF100E94E1E52091B0103091B110409140
:10458000B2105091B3100E94E1E569877A878B875A
:104590009C87CE0101960E9477C2882311F40C9467
:1045A000C53483E50E94FF39882321F00E94413AF7
:1045B000482F01C041E080E0CD57DF4F4883C3580A
:1045C000D0400E9498370E94D83C21E030E0CD577F
:1045D000DF4F4881C358D040BE01605E7F4FCE019F
:1045E000CB960E9486416B017C01E1E2F2E084916E
:1045F0008F010F5F1F4F882321F00E94F83CF801C4
:10460000F6CF27E137EB41ED58E36BAD7CAD8DADD7
:104610009EAD0E94E1E542E00E941141ECE1F2E032
:1046200084918F010F5F1F4F882321F00E94F83C77
:10463000F801F6CF27E137EB41ED58E368A179A106
:104640008AA19BA10E94E1E542E00E941141E7E1BD
:10465000F2E084918F010F5F1F4F882321F00E94A9
:10466000F83CF801F6CF27E137EB41ED58E3C701FD
:10467000B6010E94E1E542E00E9411418AE00E94F9
:10468000F83C0E94BE3C0E94B8930C94C534109232
:1046900046030C94C53481E0809346030C94C634E1
:1046A00085E40E94FF39B82E811102C00E94876AFA
:1046B0001DEB812E11E0912E0DE1C02E0EE0D02ECB
:1046C00088EAE82E80E1F82E00E010E0A12CF40149
:1046D00081914F010E94FF39882309F44CC0D60113
:1046E0002D913D914D915C91C058DF4F2883C0586A
:1046F000D040CF57DF4F3883C158D040CD57DF4F20
:104700004883C358D040CE57DF4F5883C258D0405B
:104710000E949D3AF6016083718382839383C0581F
:10472000DF4F2881C058D040CF57DF4F3881C15864
:10473000D040CD57DF4F4881C358D040CE57DF4FD0
:104740005881C258D04003301105A9F00E94E0E51D
:104750009B01AC01D7016D917D918D919C910E943F
:10476000E1E5F7016083718382839383C8010E942E
:104770003D3CAA24A3940F5F1F4FF4E0CF0ED11C41
:1047800024E0E20EF11C0430110509F0A0CFAA20AC
:1047900019F00E94523B37C0BB20A9F1C090290EEE
:1047A000D0902A0EE0902B0EF0902C0E20913E100F
:1047B00030913F104091401050914110C701B60117
:1047C0000E947EEE0E944EE86093540B7093550B4E
:1047D0008093560B9093570BC701B6010E944DE78B
:1047E0002FB7F8946093630A7093640A8093650A04
:1047F0009093660A2FBF1092440B1092450B1092B3
:10480000460B1092470B0E94B8930C94C5340137A5
:10481000110509F43CC508F0C3C00033110509F4C3
:104820000BC508F05FC00831110509F465C2B0F589
:104830000231110509F4DAC6A0F40230110508F4BA
:1048400095C10131110511F00C94C53460E08CE57F
:1048500092E00E947F855E985E9815985E980C9411
:10486000C5340531110509F43DC240F40431110588
:1048700011F00C94C534E4E7F2E0F1C10631110502
:1048800009F434C20731110511F00C94C53440E02D
:1048900061E0C7010E94E8CB0C94C5340C311105CE
:1048A00009F475C250F40A31110509F430C208F058
:1048B00032C21092880B0C94C5340F31110509F4E3
:1048C000CBC330F40E31110509F468C20C94C53421
:1048D0000032110509F470C30A32110509F464C4E9
:1048E0000C94C5340C35110509F497C630F5013523
:1048F000110509F46EC688F40C34110509F4A0C43E
:104900000D34110509F4A0C40B34110511F00C94F9
:10491000C5340E9466C30C94C5340335110509F4EF
:1049200060C608F45AC60435110509F45FC605359A
:10493000110509F45FC60C94C5340C36110509F451
:104940009EC4D8F40936110509F4A9C448F4083600
:10495000110511F00C94C5340E94B7710C94C53444
:104960000A36110509F431C60B36110511F00C9405
:10497000C5340E94DB950C94C5340E36110509F43C
:1049800067C408F494C40F36110509F474C40037E1
:10499000110511F00C94C5348AE393E00E94A4AA97
:1049A000023E110511F40C944E2E08F064C00E3B2B
:1049B000110509F480C430F50737110509F4C8C69C
:1049C00088F40337110509F4B5C608F4AFC60537F6
:1049D000110511F00C94C53460E0C7010E94FAB1D2
:1049E0000C94C5340937110509F452C708F449C7B6
:1049F0000C38110509F44FC40139110509F44EC7EB
:104A00000C94C5340D3C110511F40C94BA2DC0F46E
:104A1000093C110511F40C94102D30F4083C1105DB
:104A200009F4B3C70C94C5340B3C110511F40C9474
:104A3000322D0C3C110511F40C94502D0C94C534FE
:104A4000033D110511F40C94252E48F40E3C11057C
:104A500011F00C94C5340E9477940C94C5340C3D2D
:104A6000110511F40C94282E0D3D110511F40C9430
:104A7000352E0C94C5340A3931E0130709F403C408
:104A8000B8F50F3251E0150711F40C94B02F80F4F3
:104A90000D3291E0190711F40C94A02E10F00C9433
:104AA0003F2F0C32114011F40C947A2E0C94C53423
:104AB0000039E1E01E0711F40C94753248F4033616
:104AC000114011F00C94C534EBE2F3E30C94703414
:104AD000013931E0130711F40C9478320239114096
:104AE00011F00C94C53480E00E944F390C94C53409
:104AF000063F51E0150711F40C942834E8F40C3A01
:104B000091E0190711F40C94103338F4043A114071
:104B100011F40C947C320C94C534043FE1E01E0780
:104B200011F40C942534053F114011F00C94C53458
:104B30000E94C45C0C94C534033523E0120711F4C1
:104B40000C94373438F4073F114011F40C942B3493
:104B50000C94C534003A53E0150709F473C2073EBC
:104B6000134011F40C9487340C94C53480E50E94F2
:104B7000FF39882359F00E94923A4B015C0111E001
:104B8000672B682B692B31F410E004C010E0812CF6
:104B9000912C540183E50E94FF39882399F00E94EB
:104BA000C63A4B015C0111110FC0672B682B692BB2
:104BB00059F4D7018C91882339F061E0C7010E9434
:104BC000FAB107C01123A9F360E08BE492E00E94E0
:104BD0007F8581E08093261083E090E09093F50F2D
:104BE0008093F40F0E94876A0E94B33C8114910461
:104BF000A104B104E9F08091F60F9091F70FA09114
:104C0000F80FB091F90F880E991EAA1EBB1E0E94C4
:104C1000FD7EDC01CB0188199909AA09BB09B7FF00
:104C20001AC0809126108823B1F00E9410ABEFCFFC
:104C300080912610882319F00E9410ABF9CF809143
:104C4000880B60E0882319F08CE392E002C089E2CF
:104C500092E00E947F85109226100C94C5348491B6
:104C60008F010F5F1F4F882321F00E94F83CF8014D
:104C7000F6CF10920E0E10920D0E40E050E0BA01E9
:104C800089EB9BE00E941CBA8BE1E9EBFBE0DE01C3
:104C9000159601900D928A95E1F78091B70B90914E
:104CA000B80B9C838B8381E692E09A83898340E0F2
:104CB00050E0BE016F5F7F4F8BE293E00E9448900F
:104CC000CE0101960E9492AAE5E6F2E084918F015E
:104CD0000F5F1F4F882311F40C94C5340E94F83CD9
:104CE000F801F4CF0E94FAC00C94C5341092880BDE
:104CF0001092890B0C94C5348091890B882319F08C
:104D000081E08093880B0E9466C30C94C5340E9496
:104D10000E720C94C5348091890B882351F1E5E81B
:104D2000F2E084918F010F5F1F4F882321F00E94D2
:104D3000F83CF801F6CF6091040E7091050E809159
:104D4000060E9091070E4AE00E94263D8FE20E94D7
:104D5000F83C6091000E7091010E8091020E9091CE
:104D6000030E4AE00E94263D8AE00E94F83C0C9423
:104D7000C534E7E9F2E084918F010F5F1F4F88236C
:104D800011F40C94C5340E94F83CF801F4CF40E0D3
:104D900060E0C7010E94E8CB0C94C5348091890B78
:104DA000882311F40C94C53483E59DE00E9445BC32
:104DB00083E59DE00E9478BC1092870B1092860BD1
:104DC000E0904703F09048038091890B882311F409
:104DD0000C94C5340E94DDCB1D8218861C821B8278
:104DE00081E692E09A83898385EB9BE09093D50BD3
:104DF0008093D40BF70180818F3209F068C06FE295
:104E000070E0C7010E942FE98C010F5F1F4F9E01C8
:104E10002F5F3F4F49010115110509F45EC06FE294
:104E200070E0C8010E942FE96C01009709F456C098
:104E30000817190708F052C05C01A01AB10AA501B1
:104E4000B801CE0180960E9458E9E0E2F0E0EC0F54
:104E5000FD1FEA0DFB1D10828E01005E1F4FD80161
:104E60008D918D01882319F00E94F83CF8CF8AE0DB
:104E70000E94F83C6091D40B7091D50B61157105BF
:104E800011F06C5F7F4F21E0AE01405E5F4FCE01BD
:104E900005960E94A8BF811112C0BE01605E7F4FBF
:104EA0008EEC92E00E94FF3C8EE20E94F83C8AE089
:104EB0000E94F83CC4010E9492AA0C94C5349092BE
:104EC000D50B8092D40B86010F5F1F4FA4CF86EDC8
:104ED0009BE09093D50B8093D40B87016091D40B0A
:104EE0007091D50B6115710511F06C5F7F4F18A2A1
:104EF0001BA222E0A801CE0180960E94A8BF8111CA
:104F000002C0F12C14C0CE0180960E94B68F882377
:104F1000C1F361E0CE0180960E9429BC009789F31D
:104F200025EEFC0120831BA20E948162F82ECE0197
:104F300080960E948A3CFF2009F1E8EAF2E0849121
:104F40007F012FEFE21AF20A882321F00E94F83C39
:104F5000F701F5CFD8018D918D01882319F00E94BA
:104F6000F83CF8CF8AE00E94F83C1092040E1092B0
:104F7000050E1092060E1092070E18C0E6EBF2E036
:104F800084917F01BFEFEB1AFB0A882321F00E9476
:104F9000F83CF701F5CFF80181918F01882319F0D2
:104FA0000E94F83CF8CF8EE20E94F83CCE010196B8
:104FB0000E9492AA0C94C5348091880B81110E94A2
:104FC000876A009147031091480361E270E0C801CD
:104FD0000E942FE9009719F08C010F5F1F4F80E5A9
:104FE0000E94FF39882349F0FF24F39480913A030B
:104FF00090913B038017910708F0F12C8091890B69
:10500000882311F40C94C5344F2D61E0C8010E942F
:10501000E8CB83E50E94FF39882349F080913A0369
:1050200090913B038017910710F40C94E934809120
:10503000890B882319F081E08093880BF1100C9480
:10504000C53461CE81E08093870B40E060E0C7010A
:105050000E94E8CB0C94C5340E94808FBCE3CB2E19
:10506000D12CE12CF12CA70196010E940CF2762E96
:10507000672ECA01B901A70196010E940CF26B01CB
:105080007C01CA01B90128E130E040E050E00E9413
:105090000CF24B015C01C9016DE671E00E94A8E5CC
:1050A0008E010F5F1F4F6115710599F06F927F920E
:1050B000DF92CF929F928F929F938F937F936F9364
:1050C0008AE093E09F938F931F930F930E94E8EDE4
:1050D00012C00097B1F06F927F92DF92CF929F92B1
:1050E0008F929F938F938AEF92E09F938F931F935A
:1050F0000F930E94E8ED0FB6F894DEBF0FBECDBF50
:1051000036C081149104A104B10479F06F927F92AA
:10511000DF92CF929F928F928EEE92E09F938F9329
:105120001F930F930E94E8EDE6CFC114D104E10470
:10513000F10469F06F927F92DF92CF9286EE92E057
:105140009F938F931F930F930E94E8EDD4CF6F929C
:105150007F9282EE92E09F938F931F930F930E9412
:10516000E8ED0F900F900F900F900F900F9060E070
:10517000C8010E94FAB1E2EFF9E284917F01BFEF2A
:10518000EB1AFB0A882321F00E94F83CF701F5CFC7
:10519000B8018EE193E00E94FF3C8AE00E94F83C57
:1051A0000E94903C0C94C53483E50E94FF3988230B
:1051B00011F40C94C5340E947A3A7C018F3F91051A
:1051C00019F010F00C94C53480E50E94FF39882353
:1051D00039F00E947A3A8C0197FF04C00C94C534D0
:1051E0000BE110E0D02EE1ECF1E0C801992721910C
:1051F00031912817390731F022E0E131F207B9F790
:105200000C94B234EBE2F3E384918F010F5F1F4FF4
:10521000882321F00E94F83CF801F6CFEBE2F3E09E
:1052200084918F010F5F1F4F882311F40C94C534B4
:105230000E94F83CF801F4CF0E9461720C94C534CE
:105240000E94F7710C94C5340E94588E0C94C5349A
:105250008EE40E94FF39882311F40C94C5340E9417
:10526000873A60933C0370933D0380933E03909391
:105270003F030C94C5340E9469950C94C534109278
:1052800009010C94C5340E94F2920C94C5340E941A
:105290003F950C94C5340E942B950C94C5340E9404
:1052A0004A981092F50F1092F40F0C94AF360E94AA
:1052B00098960C94C5348091DA0F83FF02C00C9449
:1052C000C53460E084E593E00E947F8583E50E9419
:1052D000FF3928968FAF2897811105C082E50E947B
:1052E000FF398823B1F00E949D3A0E944DE77093E8
:1052F000CC0A6093CB0A0E946D510E949D3A20E037
:1053000030E040EA50E40E9441E8181614F40E948C
:1053100066C381E0809309011092F50F1092F40F9B
:1053200080914103809340032D961CAE1DAE1EAEAE
:105330001FAE2D9727961CAE1DAE1EAE1FAE279733
:105340001FAE2F961FAE2F973CE32E963FAF2E97A2
:105350004CE162964FAF629756E466965FAF6697F0
:10536000C12CD12CF0E8EF2EAFEBFA2E812C912C32
:1053700054016091CB0A7091CC0A072E000C880B67
:10538000990B0E941FEE162F072F782E692E262FBD
:10539000372F482F592FB601C7010E9418EE8823D6
:1053A00039F12091B6033091B7034091B803509181
:1053B000B903612F702F872D962D0E9418EE881F3C
:1053C0008827881F8FAF28968FAD28978823A1F054
:1053D0009FAD992389F080910901882311F40C94E1
:1053E000C53460E083E493E00E947F850C94C5346B
:1053F0001C2D0D2D7E2C6F2C0E94FD7E6B017C01DF
:10540000DC01CB0127962CAD3DAD4EAD5FAD2797AE
:10541000821B930BA40BB50BB7FD47C0D701C60188
:1054200088519C4FAF4FBF4F27968CAF9DAFAEAF0B
:10543000BFAF27970E941096E0E5F3E084912F011B
:105440009FEF491A590A882321F00E94F83CF20183
:10545000F5CF81149104A104B104D1F0D501C401A8
:10546000805F984DAF4FBF4FBC01CD016C197D09D6
:105470008E099F0928EE33E040E050E00E940CF2D4
:10548000CA01B9010E94AB3D8AE00E94F83C0DC000
:10549000EDE4F3E084912F01AFEF4A1A5A0A882312
:1054A00021F00E94F83CF201F5CF0E9410AB0E945F
:1054B000B33C2090B6033090B7034090B8035090AF
:1054C000B9039101A201612F702F872D962D0E94A3
:1054D000E0E59F7781149104A104B10449F420E030
:1054E00030E040E85FE30E9418EE87FF0BC008C081
:1054F00020E030E040E450E40E9441E8181614F443
:1055000046015701BFADBB2309F443C02D962CAD16
:105510003DAD4EAD5FAD2D972115310541055105CE
:1055200041F0D701C601821B930BA40BB50BB7FD4D
:1055300030C09101A2012F966FAD2F972E967FADAF
:105540002E9762968FAD629766969FAD66970E9482
:10555000E0E520E030E040EC5FE30E9418EE87FDDC
:105560003ACFD701C601805A9541AF4FBF4F2D9614
:105570008CAF9DAFAEAFBFAF2D972F962FAE2F97AD
:105580002E963FAE2E9762964FAE629766965FAEAE
:10559000669780910901882309F41DCF8114910435
:1055A000A104B10429F4C12ED02EE72CF62CE1CEB3
:1055B00090E1C91A97E2D90AE108F108C818D90898
:1055C000EA08FB08F7FE07CFEECF0E94EA950C949D
:1055D000C5340E9414950C94C534109245030C9464
:1055E000C53481E0809345030C94C6340E94D09466
:1055F0000C94C53483E50E94FF39882311F40C9480
:10560000C5340E94C63A6093FA0F7093FB0F8093E3
:10561000FC0F9093FD0F0C94C5347DEBC72E71E009
:10562000D72EE2E3EE2EE0E1FE2E10E0D6018D91C2
:105630006D010E94FF39882309F46DC0133009F011
:1056400063C00E949D3A4B015C0120E030E040EADB
:1056500051E40E9418EE87FF4EC0A50194016091AD
:105660003E1070913F1080914010909141100E9427
:10567000DBE62B013C019B01AC0160917E10709137
:105680007F1080918010909181100E947EEE609337
:105690007E1070937F108093801090938110A301EF
:1056A000920160916E1070916F10809170109091C6
:1056B00071100E947EEE60936E1070936F10809355
:1056C0007010909371106091E70F7091E80F8091C6
:1056D000E90F9091EA0F0E941DEEA30192010E9432
:1056E0007EEE0E9454E76093E70F7093E80F80937B
:1056F000E90F9093EA0F80923E1090923F10A09293
:105700004010B092411007C00E949D3AF70160839B
:105710007183828393831F5FF4E0EF0EF11C1430DA
:1057200009F084CF0E9494990C94C5340E94B893D8
:105730000C94C534E1E6F3E084918F010F5F1F4FB5
:10574000882311F40C94C5340E94F83CF801F4CF7E
:10575000E6E5F4E084918F010F5F1F4F882321F06D
:105760000E94F83CF801F6CFEEE4F4E084918F015A
:105770000F5F1F4F882321F00E94F83CF801F6CFFD
:10578000329B03C003E912E002C008E912E0D8012D
:105790008D918D01882319F00E94F83CF8CF8AE0A2
:1057A0000E94F83CE6E4F4E084918F010F5F1F4F04
:1057B000882321F00E94F83CF801F6CF339B03C008
:1057C00003E912E002C008E912E0F80181918F01BB
:1057D000882319F00E94F83CF8CF8AE00E94F83C38
:1057E000EEE3F4E084918F010F5F1F4F882321F0D7
:1057F0000E94F83CF801F6CF349B03C003E912E0A5
:1058000002C008E912E0D8018D918D018823A1F131
:105810000E94F83CF8CF80E20E94F83C8AE50E94A2
:10582000FF39882311F40C9462340E949D3A6B0175
:105830007C0120E030E040EA51EC0E9441E887FF23
:1058400002C00C94513420E030E040EA51E4C7013A
:10585000B6010E9418EE181614F40C945134C0923C
:105860008610D0928710E0928810F092891042E062
:10587000C701B6010E9411418AE00E94F83C0C94D5
:10588000C53481E08093940180937E050C94C634E6
:105890001092940110927E050C94C53483E50E9409
:1058A000FF398823F9F00E947A3A182F8230D8F015
:1058B000EBE2F3E384918F010F5F1F4F882321F008
:1058C0000E94F83CF801F6CFE0E7F4E084918F0104
:1058D0000F5F1F4F882311F40C94C5340E94F83CCD
:1058E000F801F4CF10E088E40E94FF398823B1F07A
:1058F0000E947A3AE12FF0E08A3A91053CF0853037
:10590000B1E09B072CF084E091E002C08AEA90E0CD
:10591000EE0FFF1FEF52F54F9183808386E40E94C4
:10592000FF398823A1F00E947A3AE12FF0E0EE0FD0
:10593000FF1FEB52F54F8F3F910519F014F08FEFD9
:1059400090E097FF02C080E090E09183808382E442
:105950000E94FF39882311F40C94C5340E947A3ACE
:10596000E12FF0E08530910534F0883891052CF076
:1059700087E890E002C085E090E0EE0FFF1FE35360
:10598000F54F918380830C94C53488EC90E00E949D
:10599000D04081110C94C53484E40E94FF398823DF
:1059A00011F40C94C5340E949D3A11E020E030E0DF
:1059B000A9010E9418EE811101C010E01093D112CC
:1059C000112359F10091400310E00E949D3A000F0D
:1059D000111F000F111FF801E155FE4F6083718305
:1059E0008283938320E030E0A9016091AF01709140
:1059F000B0018091B1019091B2010E9418EE811125
:105A00000CC080E090E0A0E4B0E48093AF019093FC
:105A1000B001A093B101B093B2010E944FA7B5C7E6
:105A20009AE4E92E90E1F92E0DEB11E024E0D22E5C
:105A3000D00EF80181918F010E94FF39882351F027
:105A40000E949D3A0E9454E7D7016D937D938D93F8
:105A50009C931397B4E0EB0EF11CD012EACF0E9496
:105A6000679893C712E6E12E10E1F12E0DEB11E0DD
:105A700084E0D82ED00EF80181918F010E94FF3969
:105A8000882341F00E949D3AD7016D937D938D93B9
:105A90009C931397B4E0EB0EF11CD012ECCF75C7BA
:105AA00083E50E94FF398823D9F00E949D3AAB011B
:105AB000BC014093821050938310609384107093C4
:105AC000851040934210509343106093441070939C
:105AD00045108CEE94E00E942D438AE00E94F83C31
