:100000000C941A180C9444180C9444180C9444182A
:100010000C9444180C9444180C9444180C944418F0
:100020000C9444180C9444180C9444180C944418E0
:100030000C9444180C94736F0C9444180C9444184A
:100040000C9444180C94AB550C94C09C0C9444181C
:100050000C942C420C9444180C9444180C9444189E
:100060000C9444180C9444180C9444180C944418A0
:100070000C9444180C9444180C9444180C94441890
:100080000C9444180C9444180C944418FC550B56CA
:100090002A563956545659565C5661566456695616
:1000A0006C5671567B56968A998A8C8A908AB08A49
:1000B000B08A9D8AA18AA78AAB8A6F8B748B798B51
:1000C000838BB18BB18B8D8B958B9D8BA78B084AC6
:1000D000D73B3BCE016E84BCBFFDC12F3D6C74315C
:1000E0009ABD56833DDA3D00C77F11BED9E4BB4CB3
:1000F0003E916BAAAABE000000803F05A84CCDB27D
:10010000D44EB93836A9020C50B9918688083CA65D
:10011000AAAA2ABE000000803F00434F4D4D554E15
:1001200049434154494F4E0044525952554E00459F
:1001300052524F525300494E464F004543484F00DC
:1001400020746F6F206C6F6E6720657874727573A2
:10015000696F6E2070726576656E7465640A002042
:10016000636F6C6420657874727573696F6E20704C
:10017000726576656E7465640A0047322F473320D6
:1001800062616420706172616D65746572730A00EA
:100190004D616C79616E204D31353020726561643E
:1001A000792E00526573756D696E67207072696E85
:1001B00074005761697420666F7220757365722EC2
:1001C0002E2E004E6F206D6F76652E00456E6420DA
:1001D00066696C65206C6973740A00426567696EB4
:1001E0002066696C65206C6973740A005344207042
:1001F00072696E74696E67206279746520004E6F53
:1002000074205344207072696E74696E670A0046E8
:10021000696C652064656C657465643A0044656C5E
:100220006574696F6E206661696C65642C2046692F
:100230006C653A20006F70656E206661696C65645C
:100240002C2046696C653A200043616E6E6F742005
:100250006F70656E20737562646972200025697322
:100260000025696D20256973002569682025696D61
:100270002025697300256964202569682025696D3A
:10028000202569730025697920256964202569681E
:100290002025696D20256973005072696E74207481
:1002A000696D653A200050726F74656374656420EF
:1002B00050696E0A0048656174696E672E2E2E00C3
:1002C0004D616C79616E204D31353020726561640D
:1002D000792E003B0136012F0128011A016F666655
:1002E0000044454255473A004B494C4C45442E206A
:1002F000004D3131332053006F6B004865617469E4
:100300006E6720646F6E652E003F0A0020573A002A
:1003100048656174696E672E2E2E004D616C79619F
:100320006E204D3135302072656164792E00426552
:100330006420646F6E652E003F0A0020573A004229
:1003400065642048656174696E672E004D616C7943
:10035000616E204D313530204F66662E0046495281
:100360004D574152455F4E414D453A4D61726C6962
:100370006E20312E312E302D524338204275674683
:100380006978203620446563203230313620284792
:1003900069746875622920534F555243455F434F36
:1003A00044455F55524C3A68747470733A2F2F6706
:1003B00069746875622E636F6D2F4D61726C696E22
:1003C0004669726D776172652F4D61726C696E203E
:1003D00050524F544F434F4C5F56455253494F4E26
:1003E0003A312E30204D414348494E455F545950D3
:1003F000453A4D616C79616E204D3135302045585C
:100400005452554445525F434F554E543A3120554E
:100410005549443A30303030303030302D30303083
:10042000302D303030302D303030302D30303030D5
:1004300030303030303030300A004D3134352053D8
:100440003C696E6465783E206F7574206F6620721B
:10045000616E67652028302D31290A005365747458
:10046000696E672054726176656C20416363656CC8
:1004700065726174696F6E3A200053657474696EB9
:1004800067205265747261637420416363656C65B3
:10049000726174696F6E3A200053657474696E6797
:1004A000205072696E7420416363656C657261747B
:1004B000696F6E3A200053657474696E67205072DC
:1004C000696E7420616E642054726176656C20419F
:1004D0006363656C65726174696F6E3A20002064B5
:1004E0003A0020693A0020703A0043290A0061620C
:1004F0006C656420286D696E2074656D7020004302
:100500006F6C6420657874727564657320617265C0
:10051000200023646566696E652020444546415588
:100520004C545F4B64200023646566696E6520202F
:1005300044454641554C545F4B6920002364656631
:10054000696E65202044454641554C545F4B7020F0
:1005500000504944204175746F74756E652066695A
:100560006E69736865642120507574207468652015
:100570006C617374204B702C204B6920616E642079
:100580004B6420636F6E7374616E74732066726F58
:100590006D2062656C6F7720696E746F20436F6E9B
:1005A00066696775726174696F6E2E680A005049DA
:1005B00044204175746F74756E65206661696C6561
:1005C00064212074696D656F75740A005049442078
:1005D0004175746F74756E65206661696C65642120
:1005E0002054656D706572617475726520746F6FEB
:1005F00020686967680A00204B643A2000204B6934
:100600003A2000204B703A20000A20436C6173733B
:10061000696320504944200A002054753A20002084
:100620004B753A2000206D61783A2000206D696E8C
:100630003A200020643A200020626961733A200069
:100640004F666673657473206170706C69656400D1
:100650004572723A20546F6F206661722100546FA8
:100660006F206661722066726F6D207265666572BA
:10067000656E636520706F696E740A004E6F20634B
:10068000617365206C696768740A004163746976F8
:10069000652045787472756465723A2000556E6BFA
:1006A0006E6F776E20636F6D6D616E643A2022000D
:1006B0004E6F204C696E65204E756D6265722077B5
:1006C00069746820636865636B73756D2C204C6179
:1006D0007374204C696E653A20004B494C4C45447C
:1006E0002E200053544F505045442E200050726924
:1006F0006E7465722073746F7070656420647565C4
:1007000020746F206572726F72732E204669782094
:10071000746865206572726F7220616E64207573F3
:1007200065204D39393920746F2072657374617298
:10073000742E202854656D70657261747572652021
:1007400069732072657365742E2053657420697413
:100750002061667465722072657374617274696E6B
:1007600067290A004E6F20436865636B73756D20BF
:1007700077697468206C696E65206E756D6265724C
:100780002C204C617374204C696E653A20006368BC
:1007900065636B73756D206D69736D617463682C2F
:1007A000204C617374204C696E653A20004C696E70
:1007B00065204E756D626572206973206E6F7420BE
:1007C0004C617374204C696E65204E756D62657264
:1007D0002B312C204C617374204C696E653A2000DB
:1007E0004D313130004D3331004D383420582059CF
:1007F000205A20450053442072656164206572725E
:100800006F720A00446F6E65207072696E74696E53
:10081000672066696C650A0020496E76616C6964C0
:10082000206578747275646572200000004843008A
:1008300000484300003443000000000000000000B6
:10084000000000536C6565702E2E2E002042403A49
:100850000020403A00202F0020423A00202F0020A4
:10086000543A00205A3A0020593A0020436F756EDE
:100870007420583A200020453A00205A3A00205966
:100880003A00583A00205A00205900580020204DC4
:1008900061783A2000205A00205900580020204D4D
:1008A000696E3A20004F6E20004F666600536F66F7
:1008B0007420656E6473746F70733A200025753A06
:1008C0002530327500253032753A253032750025D5
:1008D000756420253032753A25303275005A00593A
:1008E0000058000920000000000000000000000087
:1008F00000007FFFE000000000000000000000009A
:10090000007000E000000000000000000000000097
:1009100061F86000000000000000000000000041DD
:10092000F82000000000000000000000000040F07F
:1009300020000000000000000000000000406020D7
:100940000000000000000000000000005801A07F2F
:1009500080000000000000004104005C63A0FFC0B4
:10096000000000000000002082005EF7A0FFC00031
:100970000000000000002082005EF7A0FFC0000021
:1009800000000000004104005C63A07F80000000C4
:10099000000000008208005801A07F8000000000D5
:1009A000000001041000406020FFC00000000000B3
:1009B000000104100040F020FFC000000000000013
:1009C0000082080041F820FFC00000000000000085
:1009D00041040061F8603F000000000000000000DA
:1009E00000007000E01E0000000000000001FFFF9A
:1009F000807FFFE00C0000000000000001FFFF808E
:100A00000000000000000000000000000000007F67
:100A1000FFE0000000000000000000000000700087
:100A2000E0000000000000000000000000630C6017
:100A3000000000000000000000000000470E200041
:100A400000000000000000000000004F0F20000028
:100A5000000000000000000000005F0FA000000088
:100A60000000000000000000005E07A07F80000082
:100A70000000000000410400406020FFC0000000B2
:100A80000000000020820040F020FFC000000000B5
:100A900000000020820040F020FFC00000000000A5
:100AA00000004104004060207F8000000000000042
:100AB000008208005E07A07F8000000000000001A7
:100AC0000410005F0FA0FFC0000000000000010440
:100AD00010004F0F20FFC00000000000000082083F
:100AE00000470E20FFC0000000000000004104008D
:100AF000630C603F00000000000000000000007078
:100B000000E01E0000000000000001FFFF807FFFEA
:100B1000E00C0000000000000001FFFF800000006A
:100B2000496E69742E2053442063617264004E6FD5
:100B30002053442063617264004D32310043686188
:100B40006E67652053442063617264005072696E61
:100B5000742066726F6D2053440053746F70207060
:100B600072696E7400526573756D65207072696E7E
:100B700074004D3231005061757365207072696E7A
:100B80007400436F6E74726F6C00507265706172A6
:100B9000650054756E6500496E666F2073637265FB
:100BA000656E0000060900FE00000000000109005B
:100BB00008FE000005080806000040F0C888889874
:100BC0007810050808060000C0F88888888888F82A
:100BD0000505050600012030F8302005080806004C
:100BE000002070F820202020E00509090600FF20E1
:100BF00070A8A8B8888870200509090600FFE08061
:100C0000C0B0A8283028280509090600FFF8A888E0
:100C100088888888A8F8050A0A0600FE20505050E7
:100C20005088A8A8887003030306000340A040531F
:100C3000442063617264206F6B0A006F70656E52AE
:100C40006F6F74206661696C65640A00766F6C75FD
:100C50006D652E696E6974206661696C65640A0051
:100C6000534420696E6974206661696C0A0061757D
:100C7000746F25692E67004D3234004D32332025C4
:100C8000730057726974696E6720746F2066696CAF
:100C9000653A20006F70656E206661696C65642C32
:100CA0002046696C653A20006F70656E2066616948
:100CB0006C65642C2046696C653A200046696C6559
:100CC0002073656C65637465640A002053697A65F6
:100CD0003A200046696C65206F70656E65643A2045
:100CE000006F70656E206661696C65642C204669D2
:100CF0006C653A20002066696C653A20004E6F777B
:100D000020002220706F73002220706172656E7463
:100D10003A2200535542524F5554494E45204341C3
:100D20004C4C207461726765743A22004B494C4CFC
:100D300045442E2000747279696E6720746F2063B9
:100D4000616C6C207375622D67636F6465206669E2
:100D50006C6573207769746820746F6F206D616EA5
:100D600079206C6576656C732E204D4158206C653A
:100D700076656C2069733A004572726F723A00545E
:100D80004845524D414C2052554E4157415900540F
:100D90006865726D616C2052756E6177617900458E
:100DA00072723A204D415854454D502042454400FE
:100DB0004572723A204D415854454D50004D4158AE
:100DC00054454D50207472696767657265640045CB
:100DD00072723A204D494E54454D502042454400D0
:100DE0004572723A204D494E54454D50004D494E82
:100DF00054454D50207472696767657265640000E0
:100E000000000000000000000000000000000000E2
:100E100000000000000000000000000000000000D2
:100E200000000000000000000000000000000000C2
:100E300000000000000000000000000000000000B2
:100E400000000000000000000000000000000000A2
:100E50000000000000000000000000000000000092
:100E60000000000000000000000000000000000082
:100E70000000000000000000000000000000000072
:100E80000000000000000000000000000000000062
:100E90000000000000000000000000000000000052
:100EA0000000000000000000000000000000000042
:100EB0000000000000000000000000000000000032
:100EC0000000000000000000000000000000000022
:100ED0000000000000000000000000000000000012
:100EE0000000000000000000000000000000000002
:100EF00000000000000000000000000000000000F2
:100F000000000000000000000000000000000007DA
:100F10000000038000000000000000000000001F2F
:100F2000C0000FE07C03E0781C0781E0F03E0E7FFC
:100F3000E0003FF07E07E0FC1C0381C1F83F0E7F1C
:100F4000F8007FF07E07E0FC1C03C3C1F83F0E7B76
:100F5000FE01FEF07F0FE1FE1C01C383FC3F8E7C8F
:100F6000FF87F9F0770EE1FE1C01E783FC3B8E7FE3
:100F70007FCFF7F0779EE1CE1C00E7039C3BCE7F4E
:100F80009FFFCFF0739CE3CF1C00FF079E39CE7FFD
:100F9000E7FF3FF073FCE3871C007E070E39EE7F0E
:100FA000FBFEFFF071F8E3871C007E0F0F38EE7F29
:100FB000FCF9FFF071F8E7FF9C003C0FFF38FE7F63
:100FC000FF27FFF070F0E7FF9C003C0FFF387E7FAB
:100FD000FFDFFFF070F0EFFFDC003C1FFFB87E7F0B
:100FE000DFFFDFF07060EF03DFF83C1E07B83E7FE5
:100FF000C7FF1FF07060EE01DFF83C1C03B83E7FB6
:10100000C3FE1FF07000EE01DFF83C1C03B81E7F2A
:10101000C3FE1FF000000000000000000000007F81
:10102000C3DE1FF07FFFFFFFFFFFFFFFFFFFFE7F1D
:10103000C3DE1FF07FFFFFFFFFFFFFFFFFFFFE7F0D
:10104000C3DE1FF07C3FFAFBFFFFFFFD7ABFFE7F90
:10105000C3DE1FF07D9FFBFFFFFFFFFF7EF7FE7FDC
:10106000C3DE1FF07D931A8A18E38C451AA2DE3F77
:10107000C3DE0FF07C2DCACAD6E924CD6AB6BE1FE6
:1010800083DE07E07DA36A9AD6E926656AB63E0646
:1010900003DE01807D910A8AD8E38C451AB37E0075
:1010A00003DE00007FFFFFFFFEEFFFFFFFFF7E007C
:1010B00003DE00007FFFFFFFF1EFFFFFFFFEFE00FA
:1010C00003DE00007FFFFFFFFFFFFFFFFFFFFE00CB
:1010D00003DE00007FFFFFFFFFFFFFFFFFFFFE00BB
:1010E00003DE00000000000000000000000000001F
:1010F00001DC000000000000000000000000000013
:10110000005000000000000000000000000000008F
:1011100000000000000000000000000000000000CF
:1011200000000000000000000000000000000000BF
:1011300000000000000000000000000000000000AF
:10114000000000000000000000000000000000009F
:10115000000000000000000000000000000000008F
:10116000000000000000000000000000000000007F
:10117000000000000000000000000000000000006F
:10118000000000000000000000000000000000005F
:10119000000000000000000000000000000000004F
:1011A000000000000000000000000000000000003F
:1011B000000000000000000000000000000000002F
:1011C000000000000000000000000000000000001F
:1011D000000000000000000000000000000000000F
:1011E00000000000000000000000000000000000FF
:1011F0000000000000000000000000000000007C73
:101200003C3E5E2B3D3F2F5B5D3B2C2A225C004524
:1012100072726F722077726974696E6720746F20C2
:10122000454550524F4D210A004D6F7665205800BC
:101230004D6F76652059004D6F7665205A004578D0
:10124000747275646572004D6F766520302E316D55
:101250006D004D6F766520316D6D004D6F766520A8
:1012600031306D6D004D6F76652061786973004592
:1012700078747275646572004D6F7665205A004D02
:101280006F76652059004D6F76652058004578745B
:101290007275646572004D6F7665205A004D6F76E9
:1012A000652059004D6F7665205800507265706159
:1012B000726500526573746F7265206661696C7344
:1012C000616665004C6F6164206D656D6F727900B9
:1012D00053746F7265206D656D6F72790046696C2D
:1012E000616D656E74004D6F74696F6E0054656D4D
:1012F0007065726174757265004D61696E0050723F
:1013000065686561742041425320636F6E660050CA
:1013100072656865617420504C4120636F6E660091
:101320005049442D44005049442D44005049442D17
:1013300049005049442D49005049442D500050491E
:10134000442D500046616E207370656564004661EF
:101350006E207370656564004265640042656400D8
:101360004E6F7A7A6C65004E6F7A7A6C6500436FC7
:101370006E74726F6C0053746F7265206D656D6F63
:1013800072790042656400426564004E6F7A7A6C3F
:1013900065004E6F7A7A6C650046616E20737065E9
:1013A00065640046616E2073706565640054656D08
:1013B00070657261747572650024F4D43050C38E08
:1013C00020C2A24017828B7011127A910D816CD9C4
:1013D0000AA861E108C7586607615143061E4B5DC4
:1013E00005C145A7041A411104093D98037139311B
:1013F000034036DB0265339102D4305402802E1D47
:1014000002632CEE01752AC501B028A001102781C6
:10141000018F2564012B244B01E0223401AC211FF4
:10142000018D200D01801FFC00841EED00971DDF43
:1014300000B81CD200E61BC600201BBC00641AB218
:1014400000B219A8000A19A0006A189900D11791D2
:101450000040178B00B516840031167E00B3157955
:10146000003A157300C7146F0058146A00EE136633
:10147000008813630025135E00C7125B006C1257CF
:101480000015125400C111510070114F0021114B71
:1014900000D61049008D104700461044000210424B
:1014A00000C00F4000800F3E00420F3C00060F3B83
:1014B00000CB0E3800930E37005C0E3500270E343B
:1014C00000F30D3200C10D3100900D3000600D2E83
:1014D00000320D2D00050D2C00D90C2B00AE0C296F
:1014E00000850C29005C0C2700350C27000E0C260B
:1014F00000E80B2400C40B2400A00B23007D0B2369
:10150000005A0B2100390B2100180B2000F80A1F8C
:1015100000D90A1E00BB0A1E009D0A1D00800A1D7C
:1015200000630A1C00470A1B002C0A1B00110A1A40
:1015300000F7091A00DD091900C4091900AB0919DF
:1015400000920917007B091800630917004C09165F
:101550000036091600200916000A091500F50815BD
:1015600000E0081400CC081400B8081400A4081403
:1015700000900813007D0812006B08130058081231
:101580000046081200340811002308110012081147
:101590000001081100F0071000E0071000D007104C
:1015A00000C0071000B0070F00A107100091070E40
:1015B0000083070F0074070F0065070E0057070E22
:1015C0000049070E003B070D002E070E0020070DF7
:1015D0000013070D0006070D00F9060C00ED060DBF
:1015E00000E0060C00D4060C00C8060C00BC060C7B
:1015F00000B0060C00A4060B0099060C008D060B2B
:101600000082060B0077060B006C060B0061060AD1
:101610000057060B004C060A0042060A0038060A6C
:10162000002E060A0024060A001A060A00100609FF
:101630000007060A00FD050900F4050900EB05098D
:1016400000E2050900D9050900D0050900C7050910
:1016500000BE050900B5050800AD050800A505098F
:10166000009C050800940508008C05080084050806
:10167000007C050800740508006C05070065050876
:10168000005D050700560508004E050700470507E1
:10169000004005080038050700310507002A050746
:1016A00000230507001C050600160507000F0507A7
:1016B000000805060002050700FB040600F5040704
:1016C00000EE040600E8040600E2040700DB04065E
:1016D00000D5040600CF040600C9040600C30406B2
:1016E00000BD040600B7040600B1040500AC040602
:1016F00000A6040600A00405009B0406009504054E
:1017000000900406008A0405008504050080040694
:10171000007A04050075040500700405006B0405DB
:101720000066040500610405005C0405005704051B
:1017300000520405004D040500480405004304055B
:10174000003E0404003A040500350405003004049A
:10175000002C04050027040400230405001E0404D3
:10176000001A04040016040500110404000D04040A
:1017700000090405000404040000040400FC030440
:1017800000F8030400F4030400F0030400EC030475
:1017900000E8030400E4030400E0030400DC0304A5
:1017A00000D8030400D4030400D0030400CC0304D5
:1017B00000C8030300C503030024F404D9201BC49C
:1017C0000C5C0E9804C4095F0265077101F405F909
:1017D00000FB04B30048048700C1036900580355A7
:1017E0000003034500BE023A008402310053022A7E
:1017F000002902250004022000E4011C00C8011990
:1018000000AF01170098011400840113007101104A
:10181000006101100051010E0043010D0036010B63
:10182000002B010B0020010B00150109000C010920
:101830000003010800FB000800F3000800EB0007AC
:1018400000E4000600DE000600D8000600D2000614
:1018500000CC000500C7000500C2000500BD000463
:1018600000B9000400B5000400B1000400AD00049C
:1018700000A9000400A5000300A20003009F0004CB
:10188000009B0003009800030095000200930003F2
:1018900000900003008D0002008B0003008800020E
:1018A000008600020084000300810002007F000225
:1018B000007D0002007B0002007900020077000139
:1018C0000076000200740002007200010071000244
:1018D000006F0002006D0001006C0002006A000150
:1018E0000069000200670001006600010065000158
:1018F000006400020062000100610001006000015C
:10190000005F0002005D0001005C0001005B00015F
:10191000005A000100590001005800010057000161
:101920000056000100550001005400010053000062
:10193000005300010052000100510001005000015D
:10194000004F0001004E0000004E0001004D00015C
:10195000004C0001004B0000004B0001004A000158
:101960000049000100480000004800010047000154
:10197000004600000046000100450000004500014F
:101980000044000100430000004300010042000049
:101990000042000100410000004100010040000140
:1019A000003F0000003F0001003E0000003E00013B
:1019B000003D0000003D0001003C0000003C000034
:1019C000003C0001003B0000003B0001003A000029
:1019D000003A000100390000003900010038000021
:1019E0000038000000380001003700000037000117
:1019F000003600000036000000360001003500000F
:101A00000035000000350001003400000034000003
:101A100000340001003300000033000000330001F7
:101A200000320000003200000032000100310000EE
:101A300000310000003100010030000000300000E3
:101A400000300001002F0000002F0000002F0000D8
:101A5000002F0001002E0000002E0000002E0001CB
:101A6000002D0000002D0000002D0000002D0001C1
:101A7000002C0000002C0000002C0000002C0001B5
:101A8000002B0000002B0000002B0000002B0001A9
:101A9000002A0000002A0000002A0000002A00019D
:101AA0000029000000290000002900000029000092
:101AB0000029000100280000002800000028000084
:101AC0000028000000280001002700000027000077
:101AD000002700000027000000270001002600006A
:101AE000002600000026000000260000002600015D
:101AF0000025000000250000002500000025000052
:101B00000025000000250001002400000024000042
:101B10000024000000240000002400010023000035
:101B20000023000000230000002300000023000029
:101B3000002300000023000100220000002200001A
:101B4000002200000022000000220000002200010C
:101B50000021000000210000002100000021000001
:101B600000210000002100000021000100200000F1
:101B700000200000002000000020000000200000E5
:101B8000002000000020000000200001001F0000D5
:101B9000001F0000001F0000001F0000001F0000C9
:101BA000001F0000001F0001001E0000001E0000BA
:101BB000001E0000001E0000004D3834205820593F
:101BC000205A2045006265640A002C2073797374E2
:101BD000656D2073746F7070656421204865617451
:101BE00065725F49443A200048656174696E6720F8
:101BF0006661696C65640048656174696E6720663A
:101C000061696C65640048656174696E672066612E
:101C1000696C65640048656174696E672066616916
:101C20006C65640043616E6E6F7420656E746572DE
:101C3000207375626469723A2000022E2E000152F0
:101C4000656672657368004D61696E002062797423
:101C50006573290A0053657474696E677320537441
:101C60006F726564202800454550524F4D206368CF
:101C700065636B73756D206D69736D617463680A5C
:101C800000206279746573290A002073746F72658D
:101C9000642073657474696E677320726574726909
:101CA0006576656420280048617264636F646564CA
:101CB0002044656661756C742053657474696E6741
:101CC00073204C6F616465640A0020204D3230300F
:101CD0002044300A0020204D32303020440020447F
:101CE000697361626C65640A0046696C616D656E5A
:101CF000742073657474696E67733A002044002021
:101D0000490020204D333031205000504944207389
:101D1000657474696E67733A0A00204600204200B9
:101D200020480020204D3134352053004D6174652A
:101D30007269616C20686561747570207061726190
:101D40006D65746572733A0A00205A0020590020AC
:101D5000204D323036205800486F6D65206F666622
:101D600073657420286D6D290A00204500205A00F3
:101D700020590020580020420020540020204D32DD
:101D80003035205300416476616E6365642076616E
:101D9000726961626C65733A20533D4D696E2066CD
:101DA0006565647261746520286D6D2F73292C2020
:101DB000543D4D696E2074726176656C2066656570
:101DC000647261746520286D6D2F73292C20423D4B
:101DD0006D696E696D756D207365676D656E7420D4
:101DE00074696D6520286D73292C20583D6D6178CC
:101DF000696D756D205859206A65726B20286D6D6C
:101E00002F73292C20205A3D6D6178696D756D20E6
:101E10005A206A65726B20286D6D2F73292C202043
:101E2000453D6D6178696D756D2045206A65726B01
:101E300020286D6D2F73290A0020540020520020A5
:101E4000204D323034205000416363656C6572610F
:101E500074696F6E733A20503D7072696E74696E6A
:101E6000672C20523D7265747261637420616E64E8
:101E700020543D74726176656C0A00204500205A3A
:101E80000020590020204D3230312058004D61781B
:101E9000696D756D20416363656C65726174696F0E
:101EA0006E20286D6D2F7332293A0A0020450020DC
:101EB0005A0020590020204D3230332058004D6107
:101EC00078696D756D2066656564726174657320EF
:101ED000286D6D2F73293A0A00204500205A0020F2
:101EE000590020204D3932205800537465707320FA
:101EF00070657220756E69743A0A00000021002432
:101F00000027002A0000002200250028002B0000E6
:101F10000020002300260029000202020202020221
:101F2000020404040404040404030303030303037A
:101F30000301010101010101010102040810204017
:101F40008001020408102040800102040810204093
:101F500080804020100804020100000001020009F6
:101F60000A00000000040308070000000000000051
:101F70000000000000000000004B494C4C45442E7E
:101F80002000202D20496E76616C6964206578748C
:101F90007275646572206E756D62657220210A002B
:101FA0002020506C616E6E65724275666665724285
:101FB000797465733A20002046726565204D656D21
:101FC0006F72793A2000436F6D70696C65643A20D6
:101FD00046656220203620323031370A00207C20CE
:101FE000417574686F723A202847756E746865721F
:101FF000290A00323031362D31322D30362031323F
:102000003A303000204C61737420557064617465FF
:10201000643A2000312E312E302D52433820427543
:102020006746697820362044656320323031360AAD
:10203000004D61726C696E0020536F667477617237
:10204000652052657365740A002057617463686483
:102050006F672052657365740A002042726F776E55
:10206000206F75742052657365740A00204578747A
:1020700065726E616C2052657365740A00506F77EB
:10208000657255700A0073746172740A0065727229
:102090006F722077726974696E6720746F20666949
:1020A0006C650A00456E6473746F7073202563203D
:1020B000256320256320256300205A3A0020593AE1
:1020C0000020583A00656E6473746F7073206869FD
:1020D000743A2000446F6E6520736176696E6720E4
:1020E00066696C652E0A004D3239007A5F6D696E43
:1020F0003A2000795F6D696E3A2000785F6D696EF5
:102100003A20005265706F7274696E6720656E6464
:1021100073746F70207374617475730A0020746F28
:102120006F206C6F6E6720657874727573696F6E5F
:102130002070726576656E7465640A0020636F6C4A
:102140006420657874727573696F6E20707265763D
:10215000656E7465640A0000060900FE07019203BB
:102160002120FFFF08FF07FF000000060000010715
:102170000706020080808080800080030202060142
:1021800005A0A00507070600005050F850F8505071
:102190000507070600002078A07028F02005070733
:1021A000060000C0C8102040981805070706000068
:1021B0006090A040A89068020303060104C040801C
:1021C00003070706010020408080804020030707A6
:1021D0000601008040202020408005050506000102
:1021E00020A870A8200505050600012020F8202061
:1021F0000203030602FFC04080050101060003F848
:10220000020202060200C0C0050505060001081012
:10221000204080050707060000708888888888703D
:1022200003070706010040C040404040E0050707A3
:10223000060000708808708080F805070706000017
:10224000F81020100808F0050707060000103050AD
:1022500090F81010050707060000F880F0080888BD
:1022600070050707060000708080F08888700507F9
:1022700007060000F80810202020200507070600A8
:1022800000708888708888700507070600007088CD
:102290008878080870020505060200C0C000C0C0AA
:1022A0000206060602FFC0C000C040800407070601
:1022B000000010204080402010050303060002F8B3
:1022C00000F8040707060100804020102040800528
:1022D0000707060000708808102000200507070681
:1022E000000070880868A8A870050707060000703D
:1022F0008888F8888888050707060000F08888F035
:102300008888F00507070600007088808080887044
:10231000050707060000F08888888888F005070709
:10232000060000F88080F08080F8050707060000AE
:10233000F88080F0808080050707060000708880A4
:10234000B8888870050707060000888888F888889C
:102350008801070706020080808080808080050752
:1023600007060000381010101090600507070600DF
:10237000008890A0C0A09088050707060000808014
:1023800080808080F805070706000088D8A8888824
:1023900088880507070600008888C8A898888805E7
:1023A0000707060000708888888888700507070678
:1023B0000000F08888F08080800507070600007024
:1023C000888888A89068050707060000F08888F0CC
:1023D000A09088050707060000788080700808F044
:1023E000050707060000F820202020202005070709
:1023F000060000888888888888700507070600001E
:102400008888888888502005070706000088888803
:102410008888A85005070706000088885020508843
:1024200088050707060000888888502020200507B7
:1024300007060000F80810204080F803070706018F
:1024400000E08080808080E0050505060001804076
:10245000201008030707060100E02020202020E0CC
:10246000050303060004205088050101060000F85A
:1024700002020206020580400505050600007008FC
:102480007888780507070600008080B0C88888F043
:1024900005050506000070808088700507070600A6
:1024A0000008086898888878050505060000708887
:1024B000F880700507070600003048E040404040C3
:1024C0000506060600FF708888780870050707066D
:1024D00000008080B0C88888880107070602008055
:1024E0000080808080800308080601FF20002020F3
:1024F0002020A040040707060000808090A0C0A014
:1025000090030707060100C04040404040E0050539
:1025100005060000D0A8A8A8A8050505060000B07B
:10252000C8888888050505060000708888887005B9
:1025300006060600FFF08888F08080050606060083
:10254000FF788888780808050505060000B0C8806F
:10255000808005050506000070807008F0040707FC
:102560000600004040E04040403005050506000000
:1025700088888898680505050600008888885020A6
:102580000505050600008888A8A850050505060071
:102590000088502050880506060600FF8888887845
:1025A0000870050505060000F8102040F80307072D
:1025B000060100204040804040200107070602003D
:1025C0008080808080808003070706010080404073
:1025D00020404080050202060002689000000006CC
:1025E00000000000000600000000000600000000DF
:1025F00000060000000000060000000000060000C9
:1026000000000006000000000006000000000006B8
:1026100000000000000600000000000600000000AE
:102620000006000000000006000000000006000098
:102630000000000600000000000600000000000688
:10264000000000000006000000000006000000007E
:102650000006000000000006000000000006000068
:102660000000000600000000000600000000000658
:10267000000000000006000000000006000000004E
:102680000006000000000006000000000006000038
:102690000000000600000000000600000000000628
:1026A000000000000006000001070706020080008D
:1026B00080808080800507070600002070A8A0A801
:1026C0007020050707060000304040E04050A80594
:1026D0000505060000887050708805070706000091
:1026E000885020F820F8200107070602008080802B
:1026F00000808080050808060000304820505020E7
:102700009060030101060107A0050707060000F815
:1027100088B8B8B888F805070706000170087888F7
:102720007800F80505050600012850A0502805038B
:1027300003060001F80808020202060206408005AE
:102740000707060000F888A88898A8F80501010680
:102750000006F80404040600036090906005070773
:102760000600002020F8202000F8040505060003DC
:1027700060902040F0030505060003E020E020E023
:1027800002020206020640800508080600FF88884B
:10279000888898E880800507070600007898987870
:1027A000181818020202060202C0C0020202060243
:1027B000FF408003050506000340C04040E00507D8
:1027C00007060001708888887000F8050505060076
:1027D00001A0502850A00507070600008890A858BF
:1027E000B808080507070600008890B84898203800
:1027F000050808060000C040C048D838080805078A
:1028000007060000200020408088700508080600A8
:10281000004020007088F88888050808060000102D
:1028200020007088F88888050808060000205000FD
:102830007088F8888805080806000068900070888D
:10284000F888880508080600005000708888F88815
:10285000880508080600002050207088F888880540
:1028600007070600003860A0B8E0A0B80508080611
:1028700000FF7088808088702060050808060000CE
:10288000402000F880F080F80508080600000810D5
:1028900000F880F080F8050808060000205000F8D5
:1028A00080F080F80507070600005000F880F080EF
:1028B000F8030808060100804000E0404040E003C3
:1028C0000808060100204000E0404040E0030808FE
:1028D00006010040A000E0404040E0030707060179
:1028E00000A000E0404040E00507070600007048F7
:1028F00048E848487005080806000068900088C845
:10290000A8988805080806000040207088888888F4
:1029100070050808060000102070888888887005F7
:102920000808060000205000708888887005080894
:102930000600006890007088888870050808060006
:102940000050007088888888700505050600018899
:10295000502050880508080600FF1070A8A8A8A8F5
:102960007040050808060000402088888888887024
:1029700005080806000010208888888888700508E7
:10298000080600002050008888888870050808061E
:1029900000005000888888888870050808060000B4
:1029A00010208850202020200509090600FFC04083
:1029B000704848704040E00408080601FF609090AD
:1029C000A09090E0800508080600004020007008F4
:1029D00078887805080806000010200070087888BC
:1029E00078050808060000205000700878887805EF
:1029F00008080600006890007008788878050707C6
:102A00000600005000700878887805080806000065
:102A10002050207008788878050606060000D02827
:102A200078A0A8500506060600FF70808870206018
:102A30000508080600004020007088F8807005082E
:102A4000080600001020007088F88070050808064D
:102A500000002050007088F880700507070600000D
:102A600050007088F880700308080601008040005C
:102A700040C04040E003080806010020400040C07C
:102A80004040E003080806010040A00040C040406C
:102A9000E0030707060100A00040C04040E0050732
:102AA00007060000A040A0107888700508080600FE
:102AB00000689000B0C888888805080806000040B3
:102AC0002000708888887005080806000010200023
:102AD00070888888700508080600002050007088FB
:102AE000888870050808060000689000708888884B
:102AF000700507070600005000708888887005057B
:102B0000050600012000F800200507070600FF1059
:102B100070A8A8A87040050808060000402000889A
:102B200088889868050808060000102000888888B2
:102B30009868050808060000205000888888986872
:102B4000050707060000500088888898680509096D
:102B50000600FF102000888888F808700407070620
:102B600001FFC04060506040E00508080600FF50CB
:102B700000888888780870526573656E643A200012
:102B80006F6B00627573793A2070617573656420AC
:102B9000666F7220696E7075740A00627573793A97
:102BA0002070617573656420666F7220757365723D
:102BB0000A00627573793A2070726F636573736986
:102BC0006E670A004B494C4C45442E2000506C6502
:102BD000617365207265736574005052494E5445A7
:102BE000522048414C544544005072696E746572DD
:102BF0002068616C7465642E206B696C6C282920D8
:102C000063616C6C6564210A00656E71756575653C
:102C1000696E672022000000000000000000000034
:102C200000005761726E696E673A20486F6D696E79
:102C3000672042756D702044697669736F72203C1D
:102C400020310A000000A0400000A0400000004029
:102C5000000048430000484300003443FFFFFF46A4
:102C60006C6F7700466C6F770046616E20737065FD
:102C700065640046616E207370656564004265643A
:102C800000426564004E6F7A7A6C65004E6F7A7A06
:102C90006C65005370656564005370656564004D34
:102CA00061696E005072656865617420504C412006
:102CB000426564005072656865617420504C410043
:102CC000507265706172650050726568656174204C
:102CD000414253204265640050726568656174200A
:102CE0004142530050726570617265004D34323854
:102CF00000436F6F6C646F776E005072656865613A
:102D00007420414253005072656865617420504CD4
:102D100041004D38340044697361626C65207374FE
:102D20006570706572730053657420686F6D6520FF
:102D30006F66667365747300473238004175746F4F
:102D400020686F6D65004D6F76652061786973004E
:102D50004D61696E004573746570732F6D6D00452C
:102D600073746570732F6D6D005A73746570732F73
:102D70006D6D005A73746570732F6D6D00597374A7
:102D80006570732F6D6D005973746570732F6D6D61
:102D9000005873746570732F6D6D0058737465708F
:102DA000732F6D6D00412D74726176656C00412D3D
:102DB00074726176656C00412D7265747261637422
:102DC00000412D7265747261637400416D617820F9
:102DD0004500416D6178204500416D6178205A00C1
:102DE000416D6178205A00416D6178205900416D34
:102DF0006178205900416D6178205800416D6178FB
:102E00002058005654726176206D696E00565472D7
:102E10006176206D696E00566D696E00566D696E43
:102E200000566D6178204500566D6178204500564A
:102E30006D6178205A00566D6178205A00566D6198
:102E400078205900566D6178205900566D617820C0
:102E50005800566D617820580056652D6A65726B72
:102E60000056652D6A65726B00567A2D6A65726B25
:102E700000567A2D6A65726B0056792D6A65726B01
:102E80000056792D6A65726B0056782D6A65726BF3
:102E90000056782D6A65726B00416363656C004172
:102EA0006363656C00436F6E74726F6C0046696C8F
:102EB0002E204469612E0046696C2E204469612EE3
:102EC000004F6666004F6E20004520696E206D6DD4
:102ED0003300436F6E74726F6C0070012C019001AF
:102EE0002701B0012201C0011D01F00118011002EB
:102EF000130130020E016002090190020401C002B8
:102F0000FF000003FA004003F5008003F000D00347
:102F1000EB002004E6007004E100E004DC00400562
:102F2000D700C005D2004006CD00D006C8008007FB
:102F3000C3003008BE00F008B900C009B400B00AF0
:102F4000AF00B00BAA00D00CA500000EA000500FDF
:102F50009B00C01096005012910000148C00C01508
:102F60008700B0178200B0197D00D01B7800001ECA
:102F7000730040206E0090226900F0246400402716
:102F80005F0090295A00E02B5500102E5000203091
:102F90004B0010324600E033410090353C001037C2
:102FA000370070383200A0392D00B03A2800A03B1D
:102FB0002300603C1E00103D1900903D1400103E9F
:102FC0000F00703E0A00C03E0500003F0000403F79
:102FD000FBFF803FF6FFC03FF1FF43616E6E6F74F1
:102FE000206F70656E20737562646972200065637E
:102FF000686F3A004E414E494E495459494E46CDAC
:10300000CCCC3D0AD7233C17B7D13877CC2B32959F
:1030100095E6241FB14F0A000020410000C842007D
:10302000401C4620BCBE4CCA1B0E5AAEC59D740047
:10303000A5C284C211241FBECFEFD0E4DEBFCDBF36
:1030400013E0A0E0B1E0E0EAFFE901E00BBF02C05D
:1030500007900D92A831B107D9F723E1A8E1B3E0B9
:1030600001C01D92AD30B207E1F718E1C9E1D8E126
:1030700004C02197FE010E94A8C3C831D107C9F737
:103080000E948FBE0C94C3CF0C9400002F923F92ED
:103090004F925F926F927F928F929F92AF92BF9268
:1030A000CF92DF92EF92FF920F931F93CF93DF9314
:1030B000CDB7DEB7C359D1090FB6F894DEBF0FBE46
:1030C000CDBF0091A60E20E6029F800111240A5D6B
:1030D000124F10932E0300932D038091AD0E80FFAD
:1030E00018C0EEEEFFE284917F013FEFE31AF30A8E
:1030F000882321F00E94873BF701F5CFD8018D91FD
:103100008D01882319F00E94873BF8CF8AE00E9446
:10311000873B20912D0330912E03F90180812F5F91
:103120003F4F8032D1F3F0932E03E0932D038E3482
:1031300069F010912D0300912E036AE270E0812F57
:10314000902F0E940FC70097D1F420C0818190ED8D
:10315000980F9A3010F08D3261F73296DF01319678
:103160002C9120532A30D0F3CD01FC01019620810F
:103170002032D9F3F0932E03E0932D03DACFFC0134
:1031800031968291803231F08A3221F0A12FB02F16
:103190009D9102C01082F5CFFD0180811196803291
:1031A000D9F380538A3020F0EEEEFFE20C942535FF
:1031B000E12CF12C2AE02E9DB0012F9D700D1124E1
:1031C0007B01B0E3EB1AF1088191E80EF11C87FD59
:1031D000FA94808180538A3070F38F013196D80140
:1031E0008C918032D1F3109326030093250321E0C4
:1031F00030E030934C0F20934B0F9D3411F40C941E
:10320000A221943511F40C94EF34973411F00C94FE
:103210000735B4E0EB16F10409F48CC640F4809154
:103220002C01F2E0EF16F10408F00EC119C02AE5F6
:10323000E216F10409F4C4C738F44CE1E416F104D1
:1032400009F47CC60C941C355BE5E516F10409F421
:10325000BBC78CE5E816F10409F4BBC70C941C3518
:10326000882311F40C941C350E94173981E69FE0E5
:103270000E947BA80E94373B8091AD0E83FD93C0D6
:10328000C0906D0FD0906E0FE0906F0FF090700FA8
:103290002091010D3091020D4091030D5091040DCC
:1032A000C701B6010E9493CB882309F47CC08091AA
:1032B000A80E811134C02091360130913701409120
:1032C0003801509139016091E40F7091E50F8091C0
:1032D000E60F9091E70F0E9493CB87FF20C0C0922A
:1032E000010DD092020DE092030DF092040DEEEE6E
:1032F000FFE284918F010F5F1F4F882321F00E940E
:10330000873BF801F6CFEFE5F1E084918F010F5F85
:103310001F4F882321F00E94873BF801F6CFC09011
:103320006D0FD0906E0FE0906F0FF090700F2091A6
:10333000010D3091020D4091030D5091040DC70114
:10334000B6010E94C0C30E942DC597FF07C090958B
:103350008095709561957F4F8F4F9F4F693C7105A8
:103360008105910504F1C092010DD092020DE09209
:10337000030DF092040DEEEEFFE284918F010F5FDA
:103380001F4F882321F00E94873BF801F6CFE0E42D
:10339000F1E084918F010F5F1F4F882321F00E947D
:1033A000873BF801F6CF2091610F3091620F409179
:1033B000630F5091640F6091F50C7091F60C809141
:1033C000F70C9091F80C0E9493CB81111DC02091B5
:1033D000650F3091660F4091670F5091680F6091B3
:1033E000F90C7091FA0C8091FB0C9091FC0C0E94EE
:1033F00093CB811109C0609100017091010180910E
:103400000201909103011AC060914501709146013B
:10341000072E000C880B990B0E949ACB209100017B
:103420003091010140910201509103010E94F9CBBA
:103430002AE037ED43E25CE30E94F9CB0E94D737E4
:103440000E94CD370C941C35882311F40C941C3544
:1034500011E092E0E916F10409F010E00E9417393A
:1034600082E50E940F38882309F45CC10E94EE387F
:103470006B017C014090F50C5090F60C6090F70CBD
:103480007090F80C2091F90C3091FA0C4091FB0CE3
:103490005091FC0C23962CAF3DAF4EAF5FAF2397FE
:1034A0008091610F9091620FA091630FB091640FB2
:1034B00027968CAF9DAFAEAFBFAF27972091650F1A
:1034C0003091660F4091670F5091680F2F962CAF87
:1034D0003DAF4EAF5FAF2F9720E030E0A901C701AD
:1034E000B6010E9493CB882309F40AC5A301920177
:1034F00027966CAD7DAD8EAD9FAD27970E9493CB87
:10350000811111C023962CAD3DAD4EAD5FAD23971B
:103510002F966CAD7DAD8EAD9FAD2F970E9493CB56
:10352000882309F4EDC420E030E0A901C701B60109
:103530000E9493CB881F8827881F18130BC080E038
:1035400090E0A0E8BFE36B968CAF9DAFAEAFBFAF8E
:103550006B970AC020E030E040E85FEB6B962CAF41
:103560003DAF4EAF5FAF6B97A301920127966CAD55
:103570007DAD8EAD9FAD27970E94C0C363966CAFA3
:103580007DAF8EAF9FAF639723962CAD3DAD4EAD13
:103590005FAD23972F966CAD7DAD8EAD9FAD2F9710
:1035A0000E94C0C367966CAF7DAF8EAF9FAF679729
:1035B00063962CAD3DAD4EAD5FAD6397CA01B901C9
:1035C0000E94F9CB4B015C0167962CAD3DAD4EAD31
:1035D0005FAD6797CA01B9010E94F9CB9B01AC01AD
:1035E000C501B4010E94C1C30E946FC62B966CAF87
:1035F0007DAF8EAF9FAF2B9720E030E040E05FE3E0
:103600000E94F9CB4B015C01A7019601C701B601ED
:103610000E94F9CB6B017C01A5019401C501B401A5
:103620000E94F9CB9B01AC01C701B6010E94C0C347
:103630000E946FC69B01AC016B966CAD7DAD8EADEB
:103640009FAD6B970E94F9CB4B015C0127962CAD87
:103650003DAD4EAD5FAD2797C301B2010E94C1C31E
:1036600020E030E040E05FE30E94F9CB6B017C0199
:1036700067966CAD7DAD8EAD9FAD679790582B96DC
:103680002CAD3DAD4EAD5FAD2B970E94BBC49B01F1
:10369000AC01C501B4010E94F9CB9B01AC01C7018B
:1036A000B6010E94C1C3A30192010E94C0C36B0175
:1036B0007C012F962CAD3DAD4EAD5FAD2F9723967F
:1036C0006CAD7DAD8EAD9FAD23970E94C1C320E050
:1036D00030E040E05FE30E94F9CB2B013C012B96E8
:1036E0002CAD3DAD4EAD5FAD2B9763966CAD7DAD12
:1036F0008EAD9FAD63970E94BBC49B01AC01C50119
:10370000B4010E94F9CB9B01AC01C301B2010E943C
:10371000C1C323962CAD3DAD4EAD5FAD23970E9446
:10372000C0C314C089E40E940F38882329F00E9486
:10373000EE386B017C0103C0C12CD12C76018AE4E8
:103740000E940F388823F9F00E94EE3823966CAF60
:103750007DAF8EAF9FAF239720E030E0A901C70176
:10376000B6010E9493CB81111EC020E030E0A90178
:1037700023966CAD7DAD8EAD9FAD23970E9493CB0C
:10378000811111C0BDC320E030E0A901C701B6011D
:103790000E9493CB882309F4B3C323961CAE1DAEBD
:1037A0001EAE1FAE2397A7019601C701B6010E9466
:1037B000F9CB4B015C0123962CAD3DAD4EAD5FAD19
:1037C0002397CA01B9010E94F9CB9B01AC01C50145
:1037D000B4010E94C1C30E946FC6E3966CAF7DAF77
:1037E0008EAF9FAFE3978091F50C9091F60CA0916E
:1037F000F70CB091F80C2B968CAF9DAFAEAFBFAF6E
:103800002B97A7019601BC01CD010E94C1C36B9605
:103810006CAF7DAF8EAF9FAF6B972091F90C30915D
:10382000FA0C4091FB0C5091FC0C63962CAF3DAF11
:103830004EAF5FAF639723962CAD3DAD4EAD5FAD00
:10384000239763966CAD7DAD8EAD9FAD63970E945F
:10385000C1C36F966CAF7DAF8EAF9FAF6F978091F6
:10386000FD0C9091FE0CA091FF0CB091000DA39661
:103870008CAF9DAFAEAFBFAFA3979C01AD01609180
:10388000690F70916A0F80916B0F90916C0F0E947D
:10389000C0C367966CAF7DAF8EAF9FAF6797209127
:1038A0006D0F30916E0F40916F0F5091700FE79632
:1038B0002CAF3DAF4EAF5FAFE7978091010D909178
:1038C000020DA091030DB091040DA7968CAF9DAF92
:1038D000AEAFBFAFA797A7019601505827962CAF60
:1038E0003DAF4EAF5FAF279723968CAD9DADAEAD8C
:1038F000BFAD2397B0582F968CAF9DAFAEAFBFAF83
:103900002F972091610F3091620F4091630F50917A
:10391000640FAB962CAF3DAF4EAF5FAFAB976B96DE
:103920002CAD3DAD4EAD5FAD6B97AB966CAD7DAD47
:103930008EAD9FADAB970E94C0C36B017C0180919F
:10394000650F9091660FA091670FB091680FAF96C9
:103950008CAF9DAFAEAFBFAFAF976F962CAD3DAD07
:103960004EAD5FAD6F97BC01CD010E94C0C34B014E
:103970005C01A701960127966CAD7DAD8EAD9FAD24
:1039800027970E94F9CB2B013C01A50194012F96AA
:103990006CAD7DAD8EAD9FAD2F970E94F9CB9B0195
:1039A000AC01C301B2010E94C1C32B013C01A501BE
:1039B000940127966CAD7DAD8EAD9FAD27970E948B
:1039C000F9CB4B015C01A70196012F966CAD7DAD43
:1039D0008EAD9FAD2F970E94F9CB9B01AC01C50125
:1039E000B4010E94C0C3A30192010E9440C46B01B4
:1039F0007C0120E030E0A9010E9493CB87FF0AC040
:103A00002BED3FE049EC50E4C701B6010E94C1C371
:103A10006B017C01112351F02BED3FE049EC50E4A8
:103A2000C701B6010E94C0C36B017C0120E030E0F9
:103A3000A901C701B6010E9493CB81112AC0AB96A0
:103A40002CAD3DAD4EAD5FADAB972B966CAD7DAD66
:103A50008EAD9FAD2B970E9493CB81111AC0AF966C
:103A60002CAD3DAD4EAD5FADAF9763966CAD7DAD0A
:103A70008EAD9FAD63970E9493CB81110AC02BED51
:103A80003FE049EC50E4C701B6010E94C1C36B019D
:103A90007C01E3962CAD3DAD4EAD5FADE397C70124
:103AA000B6010E94F9CB9B01AC010E94F9CB4B01FE
:103AB0005C0167962CAD3DAD4EAD5FAD6797CA0119
:103AC000B9010E94F9CB9B01AC01C501B4010E9470
:103AD000C1C30E946FC64B015C012FE632E143E88F
:103AE0005AE30E9493CB87FD07C2C501B4010E942F
:103AF00063C50E9434C561967FAF6EAF6197DB01ED
:103B0000AB2B31F4E1E0F0E06196FFAFEEAF6197EF
:103B100061962EAD3FAD6197B90180E090E00E94C3
:103B200098CB4B015C019B01AC01C701B6010E941F
:103B3000BBC42B966CAF7DAF8EAF9FAF2B97A5010B
:103B4000940167966CAD7DAD8EAD9FAD67970E9479
:103B5000BBC4AB966CAF7DAF8EAF9FAFAB97A79654
:103B60002CAD3DAD4EAD5FADA797E7966CAD7DAD8D
:103B70008EAD9FADE7970E94C0C3A50194010E943E
:103B8000BBC4AF966CAF7DAF8EAF9FAFAF972B9698
:103B90002CAD3DAD4EAD5FAD2B97CA01B9010E9472
:103BA000F9CB20E030E040E05FE30E94F9CB9B01DD
:103BB000AC0160E070E080E89FE30E94C0C36796BC
:103BC0006CAF7DAF8EAF9FAF6797A3968CAD9DAD69
:103BD000AEADBFADA39789879A87AB87BC87A79601
:103BE0002CAD3DAD4EAD5FADA7972D873E874F877E
:103BF000588B6091450170914601072E000C880B8F
:103C0000990B0E949ACB20910001309101014091C3
:103C10000201509103010E94F9CB2AE037ED43E203
:103C20005CE30E94F9CBA3966CAF7DAF8EAF9FAFE4
:103C3000A3970E94B49C9B01AC0128533F4F4F4F68
:103C40005F4FA7962CAF3DAF4EAF5FAFA7972496BF
:103C50004FAC249725965FAC259726966FAC269798
:103C600027967FAC279722242394312CD12C619660
:103C70008EAD9FAD61972816390609F429C10E94BF
:103C8000686C0E94B49CDC01CB01A7962CAD3DADC5
:103C90004EAD5FADA797821B930BA40BB50BB7FD81
:103CA00010C00E94B49C9B01AC0128533F4F4F4F62
:103CB0005F4FA7962CAF3DAF4EAF5FAFA7970E9467
:103CC0005EA7D39438E13D150CF44BC067962CAD3C
:103CD0003DAD4EAD5FAD67972F966CAD7DAD8EADB2
:103CE0009FAD2F970E94F9CB4B015C012B962CAD19
:103CF0003DAD4EAD5FAD2B97B201C3010E94F9CB34
:103D0000A50194010E94C1C37B018C0167962CAD73
:103D10003DAD4EAD5FAD6797B201C3010E94F9CBD7
:103D20004B015C012B962CAD3DAD4EAD5FAD2B979D
:103D30002F966CAD7DAD8EAD9FAD2F970E94F9CBC8
:103D40009B01AC01C501B4010E94C0C32B013C0121
:103D5000C701D8012F968CAF9DAFAEAFBFAF2F97E5
:103D60005AC0B10180E090E00E9498CB2B962CAD18
:103D70003DAD4EAD5FAD2B970E94F9CB4B015C0181
:103D80000E94B6C46B017C01C501B4010E9461C6EA
:103D90004B015C01A701960127966CAD7DAD8EAD00
:103DA0009FAD27970E94F9CB2B013C01A5019401FF
:103DB00023966CAD7DAD8EAD9FAD23970E94F9CB60
:103DC0009B01AC01C301B2010E94C1C32B013C01A4
:103DD000A501940127966CAD7DAD8EAD9FAD279763
:103DE0000E94F9CB4B015C01A701960123966CADB3
:103DF0007DAD8EAD9FAD23970E94F9CB9B01AC01A9
:103E0000C501B4010E94C0C32F966CAF7DAF8EAFC9
:103E10009FAF2F97D12C9201A3016B966CAD7DAD16
:103E20008EAD9FAD6B970E94C1C369837A838B83EC
:103E30009C832F962CAD3DAD4EAD5FAD2F976F9609
:103E40006CAD7DAD8EAD9FAD6F970E94C1C36D838C
:103E50007E838F839887AB962CAD3DAD4EAD5FAD25
:103E6000AB9769857A858B859C850E94C1C36987DC
:103E70007A878B879C87AF962CAD3DAD4EAD5FADFD
:103E8000AF976D857E858F8598890E94C1C36D87A8
:103E90007E878F87988BCE0101960E947BA8C09069
:103EA0001F03A396ECACFDAC0EAD1FADA3979E0116
:103EB000235F3F4FAE01475F5F4FBE016B5F7F4F98
:103EC000CE0101960E94018F4FEF241A340ACFCE03
:103ED000C0901F03A396ECACFDAC0EAD1FADA39735
:103EE0002DE63FE049E65FE065E67FE081E69FE0A2
:103EF0000E94018F0E94CD370E94373B0C941C35E5
:103F0000E8E7FDE084918F010F5F1F4F882321F0C8
:103F10000E94873BF801F6CFEAE7F1E084918F0138
:103F20000F5F1F4F882311F40C941C350E94873BB0
:103F3000F801F4CF0E94423B0C941C350E942F6F75
:103F40008090000190900101A0900201B0900301C7
:103F50008092290390922A03A0922B03B0922C0303
:103F60008091450190914601909328038093270307
:103F700084E690E090934601809345010E94373B90
:103F800081E08093350188E50E940F38282E89E56D
:103F90000E940F38182F8AE50E940F38082F211031
:103FA00005C0111105C091E0982705C0111102C08C
:103FB00090E001C0982F9093040180E1E5EFFCE0D0
:103FC000A1E6BFE001900D928A95E1F7911105C03D
:103FD000211003C0112309F4B1C020E030E0A90191
:103FE0006091F10C7091F20C8091F30C9091F40CB3
:103FF0000E94C1C320915D0F30915E0F40915F0F11
:104000005091600F0E94C1C32B013C016093690F66
:1040100070936A0F80936B0F90936C0FC090FD0CA0
:10402000D090FE0CE090FF0CF090000DA7019601DF
:104030000E9421C618160CF081C0A3019201C7018D
:10404000B6010E9493CB87FF16C080E090E0A0E805
:10405000B0E48093000190930101A0930201B0931A
:1040600003014092FD0C5092FE0C6092FF0C709286
:10407000000D0E94F0377090B50FC090B60FD09031
:10408000B70FE090B80F3090B90F4090BA0F509032
:10409000BB0F6090BC0F232D342D452D562D672D61
:1040A0007C2D8D2D9E2D0E9493CB87FD03C0732CFC
:1040B0006201E62C472D5C2D6D2D7E2D4093000175
:1040C0005093010160930201709303010E94F03745
:1040D0004090690F50906A0F60906B0F70906C0F5A
:1040E000A30192016091FD0C7091FE0C8091FF0C78
:1040F0009091000D0E9421C61816B4F480E090E063
:10410000A0E8B0E48093000190930101A093020124
:10411000B09303014092FD0C5092FE0C6092FF0C94
:104120007092000D0E94F0370E942F6F8092000164
:1041300090920101A0920201B092030180910401CA
:10414000811102C0222021F080E090E00E94B9A5F8
:1041500080910401811102C0112321F081E090E0DF
:104160000E94B9A580910401811102C0002321F0B1
:1041700082E090E00E94B9A50E94173A8091DF0C7E
:10418000809335018091290390912A03A0912B03FC
:10419000B0912C038093000190930101A093020140
:1041A000B0930301809127039091280390934601D7
:1041B000809345010E94373B0E9415400C941C35AA
:1041C000109224030C941C3581E0809324030C94FA
:1041D0001D3585E40E940F38B82E811102C00E945F
:1041E0002F6F41EF842E41E0942E55EFC52E5CE0F9
:1041F000D52E65E5E62E6FE0F62E00E010E0A12C4E
:10420000D4018D914D010E940F38882309F44EC0CE
:10421000F6012081318142815381C057DF4F2883CD
:10422000C059D040CF56DF4F3883C159D040CE5609
:10423000DF4F4883C259D040CD56DF4F5883C35912
:10424000D0400E94EE38D6016D937D938D939C9360
:104250001397C057DF4F2881C059D040CF56DF4F4A
:104260003881C159D040CE56DF4F4881C259D04025
:10427000CD56DF4F5881C359D04003301105B1F0FE
:104280000E94C0C39B01AC01F701608171818281F2
:1042900093810E94C1C3D7016D937D938D939C93AD
:1042A0001397C8010E94E43AAA24A3940F5F1F4FFA
:1042B000B4E0CB0ED11CE4E0EE0EF11C043011058D
:1042C00009F09ECFAA2019F00E94173A37C0BB20F0
:1042D000A9F1C090010DD090020DE090030DF09077
:1042E000040D2091910F3091920F4091930F5091B6
:1042F000940FC701B6010E94F9CB0E942EC66093AD
:1043000048107093491080934A1090934B10C70146
:10431000B6010E942DC52FB7F8946093690C709375
:104320006A0C80936B0C90936C0C2FBF109238101A
:104330001092391010923A1010923B100E941540C2
:104340000C941C35FFE6EF16F10409F49BC608F047
:10435000EAC031E2E316F10409F454C408F060C085
:1043600057E1E516F10409F4A7C268F592E1E916F0
:10437000F10411F40C94702CB0F4B2E0EB16F104DB
:1043800008F4E0C1E1E1EE16F10411F00C941C35E3
:1043900060E083EC91E00E94B6A25E985E9815986A
:1043A0005E980C941C35F5E1EF16F10409F47AC21D
:1043B00008F07CC234E1E316F10411F00C941C35D2
:1043C000EBEDF1E039C24BE1E416F10409F495C2DA
:1043D00040F489E1E816F10409F47DC208F470C2E2
:1043E0007EC2AEE1EA16F10409F4C3C268F4ECE15E
:1043F000EE16F10411F00C941C3540E060E0C801A9
:104400000E94A14B0C941C35FFE1EF16F10409F456
:10441000D0C420E2E216F10409F4AEC30C941C35BA
:1044200035E5E316F10411F40C949F2C08F048C014
:104430005DE4E516F10409F4C8C570F49BE4E916DF
:10444000F10409F4A4C508F0A6C5BAE2EB16F1041C
:1044500009F455C50C941C35E2E5EE16F10411F48F
:104460000C94672CF8F421E5E216F10411F00C9499
:104470001C350E9499580E942F6F0E94E8A6109246
:1044800057071092560768EE73E080E090E00E94B4
:10449000BA8B60E08CE493E00E94B6A20E94517D4A
:1044A0000C941C3533E5E316F10411F40C946B2CD9
:1044B00044E5E416F10411F40C94702C0C941C35B2
:1044C0005AE6E516F10411F40C942F2CC0F498E68A
:1044D000E916F10409F47DC508F089C6BCE5EB16C0
:1044E000F10411F00C941C35E1EFCE2EE1E0DE2E4C
:1044F000F5E8EF2EFFE0FF2E10E00C94B22CECE676
:10450000EE16F10409F42AC610F40C94552C2DE68D
:10451000E216F10409F488C63EE6E316F10409F454
:104520009EC50C941C3543EDE416F10411F40C9473
:10453000502F08F08DC08CE8E816F10409F43EC64F
:10454000C0F5A3E7EA16F10411F40C94362D60F4DB
:10455000E1E7EE16F10409F405C610F00C94322DD3
:1045600088EE92E00E94F2A627E7E216F10411F429
:104570000C94442D60F445E7E416F10411F00C941A
:104580001C3560E0C8010E94CBA20C941C3558E792
:10459000E516F10411F40C94482D89E7E816F104AE
:1045A00011F00C941C35109235011092DF0C0C9414
:1045B0001C3599ECE916F10411F40C940C2EA0F4BE
:1045C000BEEBEB16F10411F40C94BA2AE8ECEE16EB
:1045D000F10411F40C94C32DF1E9EF16F10411F07C
:1045E0000C941C350C944F2D2CECE216F10411F4B4
:1045F0000C94422E88F44BECE416F10411F00C9468
:104600001C3585EBE82E8FE0F82E01EF11E094E0E9
:10461000D92ED00E0C94332E5DECE516F10411F476
:104620000C94AC2E8EECE816F10411F00C941C35B1
:10463000B1EFAB2EB1E0BB2E15EFC12E1CE0D12E99
:1046400009EEE02E0CE0F02E00E010E00C94172FA5
:1046500090E9E91691E0F90611F40C949B33C0F54A
:10466000BCE2EB16B1E0FB0611F40C947C2FA0F435
:10467000FDEDEF16F10411F40C94602F22EEE2161A
:10468000F10411F40C94792F3CEDE316F10411F0D0
:104690000C941C350C94532F4EE2E41641E0F406C2
:1046A00011F40C94413010F40C94A22F8FE2E81610
:1046B00081E0F80611F40C94B23093E6E91691E02B
:1046C000F90611F00C941C35E8E7FDE00C94C834B1
:1046D000A5EFEA16A1E0FA0611F40C94B634C8F47A
:1046E000ECEAEE16E1E0FE0611F40C949E33F4EFD2
:1046F000EF16F1E0FF0611F40C94B3342AE9E21648
:1047000021E0F20611F00C941C350E94213A0C9421
:104710001C3537EFE31631E0F30611F40C94BC348A
:1047200010F40C94B93450EAE51653E0F50609F498
:1047300036C387EEE81683E0F80611F40C94DF34F4
:104740000C941C3580E50E940F38882361F00E948C
:10475000E3386B017C01BB24B394672B682B692B76
:1047600031F4B12C04C0B12CC12CD12C760183E5DD
:104770000E940F38882399F00E948B396B017C01CD
:10478000B1100FC0672B682B692B59F4D8018C919D
:10479000882339F061E0C8010E94CBA207C0BB208A
:1047A000A9F360E082EB91E00E94B6A281E08093E1
:1047B000CE0C83E090E090934C0F80934B0F0E94BF
:1047C0002F6F0E94373BC114D104E104F104E9F0DA
:1047D00080914D0F90914E0FA0914F0FB091500FBF
:1047E000C80ED91EEA1EFB1E0E94B49CDC01CB0140
:1047F0008C199D09AE09BF09B7FF1AC08091CE0C74
:104800008823B1F00E945EA7EFCF8091CE0C882361
:1048100019F00E945EA7F9CF80917C1060E0882398
:1048200019F083EA91E002C080E991E00E94B6A20B
:104830001092CE0C0C941C3584918F010F5F1F4F8A
:10484000882321F00E94873BF801F6CF10920213D3
:104850001092011340E050E0BA018DEA90E10E940D
:10486000B35B69EA70E1CE0101960E94585940E0BD
:1048700050E0BE016F5F7F4F86E093E00E94E2B898
:10488000CE0101960E94E0A6ECECF1E084918F014C
:104890000F5F1F4F882311F40C941C350E94873B37
:1048A000F801F4CF0E94CD4E0C941C3510927C1070
:1048B00010927D100C941C350E94C5370C941C3549
:1048C00080917D10882319F081E080937C100E94F4
:1048D0004B500C941C3510927C100C941C3580911C
:1048E0007D10882311F40C941C3583E50E940F3849
:1048F00081110C9440350C941C3580917D108823D7
:1049000051F1ECEEF1E084918F010F5F1F4F88238E
:1049100021F00E94873BF801F6CF6091F812709168
:10492000F9128091FA129091FB124AE00E94B53B75
:104930008FE20E94873B6091F4127091F512809192
:10494000F6129091F7124AE00E94B53B8AE00E946D
:10495000873B0C941C35EEEFF1E084918F010F5FE3
:104960001F4F882311F40C941C350E94873BF801DB
:10497000F4CF80917D10882311F40C941C3587E4CA
:1049800092E10E94805B87E492E10E94DB611092D9
:104990007B1010927A10E0902503F090260380910E
:1049A0007D10882311F40C941C350E94BBB6FE01C7
:1049B00031966F01CF010E94825989EA90E190936C
:1049C000C9108093C810D7018C918F3209F060C054
:1049D0006FE270E0C7010E940FC78C010F5F1F4F8D
:1049E00009F45CC06FE270E0C8010E940FC75C016F
:1049F000009709F454C00817190708F050C04C017B
:104A0000801A910AA401B801CE0180960E9438C78D
:104A1000E0E2F0E0EC0FFD1FE80DF91D10828E01C1
:104A2000005E1F4FF80181918F01882319F00E94C9
:104A3000873BF8CF8AE00E94873B6091C810709155
:104A4000C9106115710511F06C5F7F4F21E0AE0157
:104A5000405E5F4FCE0105960E94E461811112C055
:104A6000BE01605E7F4F85E392E00E948E3B8EE246
:104A70000E94873B8AE00E94873BC6010E94E0A615
:104A80000C941C35D092C910C092C8108501A6CFD5
:104A90008AEC90E19093C9108093C81087016091CF
:104AA000C8107091C9106115710511F06C5F7F4FCE
:104AB00018A21BA222E0A801CE0180960E94E46108
:104AC000811102C0F12C14C0CE0180960E9429B63B
:104AD0008823C1F361E0CE0180960E9427A300974E
:104AE00089F325EEDC012C931BA20E948C59F82E31
:104AF000CE0180960E94313BFF2009F1EFE0F2E009
:104B000084917F01BFEFEB1AFB0A882321F00E94FA
:104B1000873BF701F5CFF80181918F01882319F0C8
:104B20000E94873BF8CF8AE00E94873B1092F812E0
:104B30001092F9121092FA121092FB1218C0EDE1C5
:104B4000F2E084917F012FEFE21AF20A882321F02C
:104B50000E94873BF701F5CFD8018D918D01882305
:104B600019F00E94873BF8CF8EE20E94873BC60176
:104B70000E94E0A60C941C3580917C1081110E944B
:104B80002F6F009125031091260361E270E0C801A8
:104B90000E940FC7009719F08C010F5F1F4F80E52F
:104BA0000E940F38882349F0FF24F3948091180362
:104BB000909119038017910708F0F12C80917D10D6
:104BC000882311F40C941C354F2D61E0C8010E941C
:104BD000A14B83E50E940F38882349F08091180388
:104BE000909119038017910710F40C94513580911E
:104BF0007D10882319F081E080937C10F1100C94D3
:104C00001C3565CE82E090E09093021380930113EF
:104C1000F80101900020E9F731975F01A01AB10A6D
:104C2000F801CF01801B910B8A159B0534F480811C
:104C30008F3209F410823196F4CF69EA70E1CE0127
:104C400080960E945859E12CF12C3BE1732EEA1416
:104C5000FB040CF09BC0F801EE0DFF1D808181115B
:104C600003C0BFEFEB1AFB0A6801CE0CDF1CF60194
:104C70008081882309F48AC0FFEFEF1AFF0AF80148
:104C8000EE0DFF1D80818111F7CF40E050E0BA01A9
:104C9000CE0184960E94B35BBE01605E7F4FCE0161
:104CA00001960E945859A601BE016F5F7F4F86E0B2
:104CB00093E00E94E2B8CE0101960E94E0A68FE246
:104CC0000E94873B80918C10882319F08CE890E13A
:104CD00002C085E792E04C01D4018D914D018823FB
:104CE00019F00E94873BF8CF80917E10882309F449
:104CF0004DC0CE0101960E94825921E0A601BE015D
:104D00006C5D7F4FCE0105960E94E461811128C041
:104D10008AE00E94873BEEEEFFE284918F010F5FF5
:104D20001F4F882321F00E94873BF801F6CFE9E46A
:104D3000F2E084918F010F5F1F4F882321F00E94C2
:104D4000873BF801F6CFF60181916F01882319F0B6
:104D50000E94873BF8CFCE0101960E94E0A616C0C4
:104D6000CE0184960E94DB61FE013596DE019496A9
:104D7000872D01900D928A95E1F78B819C819BA3F1
:104D80008AA3CE0101960E94E0A661CF8AE00E942C
:104D9000873BCE0180960E94E0A60C941C3581E0F2
:104DA00080937B1040E060E0C8010E94A14B0C940E
:104DB0001C350E94ACB82CE3C22ED12CE12CF12C76
:104DC000A70196010E9487CF762E672ECA01B901EE
:104DD000A70196010E9487CF6B017C01CA01B9012E
:104DE00028E130E040E050E00E9487CF4B015C01B9
:104DF000C9016DE671E00E9461C38E010F5F1F4F14
:104E00006115710599F06F927F92DF92CF929F9218
:104E10008F929F938F937F936F9385E892E09F93F8
:104E20008F931F930F930E9463CB12C00097B1F032
:104E30006F927F92DF92CF929F928F929F938F93E8
:104E400085E792E09F938F931F930F930E9463CB0C
:104E50000FB6F894DEBF0FBECDBF36C081149104EB
:104E6000A104B10479F06F927F92DF92CF929F926A
:104E70008F9289E692E09F938F931F930F930E94E6
:104E800063CBE6CFC114D104E104F10469F06F9261
:104E90007F92DF92CF9281E692E09F938F931F9350
:104EA0000F930E9463CBD4CF6F927F928DE592E0F7
:104EB0009F938F931F930F930E9463CB0F900F903C
:104EC0000F900F900F900F9060E0C8010E94CBA24E
:104ED000EEEEFFE284917F01BFEFEB1AFB0A88231D
:104EE00021F00E94873BF701F5CFB80189E992E0F4
:104EF0000E948E3B8AE00E94873B0C941C3583E520
:104F00000E940F38882311F40C941C350E947D38C0
:104F10007C018F3F910519F010F00C941C3580E551
:104F20000E940F38882339F00E947D388C0197FF4A
:104F300004C00C941C350BE110E0D02EE1EAF1E046
:104F4000C8019927219131912817390731F021E0C3
:104F5000E13FF207B9F70C940935E8E7FDE08491E9
:104F60008F010F5F1F4F882321F00E94873BF801BC
:104F7000F6CFE6EAF2E084918F010F5F1F4F88239E
:104F800011F40C941C350E94873BF801F4CF0E9469
:104F90004B500C941C3580916C1090916D100197C2
:104FA00011F00C941C3582E090E090936D1080938A
:104FB0006C100E94B49C609376107093771080936D
:104FC0007810909379100C941C350E94E5B60C94DF
:104FD0001C3588E690E00E945F3F81110C941C35DF
:104FE0008091AD0E83FF02C00C941C3583E50E94B6
:104FF0000F38882311F40C941C350E94EE380E945F
:105000002DC57093E30F6093E20F0E94D9B50E9403
:10501000EE3820E030E04AEA52E40E9493CB1816C2
:105020003CF00E94E5B660E080EC92E00E94B6A2FF
:105030000E94EE382091E40F3091E50F4091E60F89
:105040005091E70F0E9421C6181614F00C941C35DD
:1050500060E085EB92E00E94B6A20C941C358EE4D1
:105060000E940F38882311F40C941C350E94B5BAA5
:1050700060931A0370931B0380931C0390931D038A
:105080000C941C3583E50E940F38882319F00E9488
:10509000223801C080E08093AD0EEEEEFFE28491F5
:1050A0008F010F5F1F4F882321F00E94873BF8017B
:1050B000F6CFE1EEF2E084918F010F5F1F4F88235E
:1050C00021F00E94873BF801F6CF8091AD0E882336
:1050D000A1F183EDC82E82E0D82EE12CF12C20E046
:1050E0008091AD0E90E00E2C02C0959587950A94A4
:1050F000E2F780FF17C0BB24B394B20E222319F04D
:105100008CE20E94873BF60125913491F90184914C
:1051100089010F5F1F4F882321F00E94873B980170
:10512000F5CF2B2DFFEFEF1AFF0A32E0C30ED11C93
:1051300045E0E416F104A1F60CC0EDEDF2E0849137
:105140008F010F5F1F4F882321F00E94873BF801DA
:10515000F6CF8AE00E94873B0C941C351092050123
:105160000C941C3583E50E940F38882369F00E9457
:10517000223880933E018D3310F40C941C358CE35F
:1051800080933E010C941C35EEEEFFE284918F017A
:105190000F5F1F4F882321F00E94873BF801F6CF55
:1051A00040913E0150E060E070E081EF92E00E94AB
:1051B0001D3C8AE00E94873B0C941C358091AD0E0B
:1051C00083FF02C00C941C3583E50E940F388823AE
:1051D00011F40C941C350E94EE380E942DC570937A
:1051E0005907609358070E9449580C941C3589E66A
:1051F00090E00E945F3F811111C0E8EFF2E08491DE
:105200008F010F5F1F4F882321F00E94873BF80119
:10521000F6CF0E94D4408AE00E94873B10924C0F48
:1052200010924B0F0C9433378DE690E00E945F3F55
:1052300081110C941C358091AD0E83FF02C00C943B
:105240001C3583E50E940F382C968FAF2C97811167
:1052500005C082E50E940F388823C1F10E94EE3814
:105260000E942DC57093E30F6093E20F0E94D9B5A1
:105270000E94EE3820E030E04AEA52E40E9493CBEC
:10528000181614F40C9463350E94E5B660E08BE1C7
:1052900093E00E94B6A26091E20F7091E30F072E97
:1052A000000C880B990B0E949ACB2091E40F30914F
:1052B000E50F4091E60F5091E70F0E9421C61816A6
:1052C0002CF460E080E193E00E94B6A281E080933C
:1052D000050110924C0F10924B0F27961CAE1DAE7D
:1052E0001EAE1FAE27972B961CAE1DAE1EAE1FAE78
:1052F0002B971FAE60961FAE60975CE364965FAF1E
:1053000064978CE168968FAF689796E46C969FAF30
:105310006C97C12CD12C10E8E12E0FEBF02E812CD4
:10532000912C54016091E20F7091E30F072E000C55
:10533000880B990B0E949ACB162F072F782E692E77
:10534000262F372F482F592FB601C7010E9493CB24
:10535000882319F12091E40F3091E50F4091E60F79
:105360005091E70F612F702F872D962D0E9493CBC0
:10537000881F8827881F8FAF2C96AFAD2C97AA2344
:1053800081F0882371F080910501882311F40C9439
:105390001C3560E08BEF92E071C11C2D0D2D7E2C31
:1053A0006F2C0E94B49C6B017C01DC01CB012B961D
:1053B0002CAD3DAD4EAD5FAD2B97821B930BA40B77
:1053C000B50BB7FD47C0D701C60188519C4FAF4F01
:1053D000BF4F2B968CAF9DAFAEAFBFAF2B970E9448
:1053E000D440ECE0F3E084912F019FEF491A590A71
:1053F000882321F00E94873BF201F5CF81149104AC
:10540000A104B104D1F0D501C401805F984DAF4F24
:10541000BF4FBC01CD016C197D098E099F0928EE93
:1054200033E040E050E00E9487CFCA01B9010E94FA
:105430003A3C8AE00E94873B0DC0E9E0F3E08491AA
:105440002F01AFEF4A1A5A0A882321F00E94873BA6
:10545000F201F5CF0E945EA70E94373B2090E40F37
:105460003090E50F4090E60F5090E70F9101A201B8
:10547000612F702F872D962D0E94C0C39F778114B6
:105480009104A104B10449F420E030E040E85FE376
:105490000E9493CB87FF0BC008C020E030E040E4BF
:1054A00050E40E9421C6181614F446015701BFADFE
:1054B000BB2309F443C027962CAD3DAD4EAD5FAD87
:1054C0002797211531054105510541F0D701C60146
:1054D000821B930BA40BB50BB7FD30C09101A20149
:1054E00060966FAD609764967FAD649768968FAD58
:1054F00068976C969FAD6C970E94C0C320E030E027
:1055000040EC5FE30E9493CB87FD3DCFD701C601FE
:10551000805A9541AF4FBF4F27968CAF9DAFAEAF2E
:10552000BFAF279760962FAE609764963FAE6497A3
:1055300068964FAE68976C965FAE6C978091050148
:10554000882309F420CF81149104A104B10429F423
:10555000C12ED02EE72CF62CE5CE90E1C91A97E2A9
:10556000D90AE108F108C818D908EA08FB08F7FECB
:105570000ACFEECF8091AD0E83FF02C00C941C3594
:1055800060E08FE393E00E94B6A283E50E940F38AB
:105590002C968FAF2C9781110C94673582E50E9471
:1055A0000F3881110C94673581E0809305011092CA
:1055B0004C0F10924B0F80911F0380931E03279670
:1055C0001CAE1DAE1EAE1FAE27972B961CAE1DAE99
:1055D0001EAE1FAE2B971FAE60961FAE6097ACE35A
:1055E0006496AFAF6497BCE16896BFAF6897E6E496
:1055F0006C96EFAF6C97C12CD12CA0E8EA2EBFEBD4
:10560000FB2E812C912C5401609158077091590701
:10561000072E000C880B990B0E949ACB162F072F90
:10562000782E692E262F372F482F592FB601C70104
:105630000E9493CB882331F12091DD033091DE036A
:105640004091DF035091E003612F702F872D962D3D
:105650000E9493CB881F8827881F8FAF2C96FFADA1
:105660002C97FF2399F0882389F0809105018823E6
:1056700011F40C941C3560E08EE293E00E94B6A217
:105680000C941C351C2D0D2D7E2C6F2C0E94B49C6F
:105690006B017C01DC01CB012B962CAD3DAD4EADF9
:1056A0005FAD2B97821B930BA40BB50BB7FD47C0C7
:1056B000D701C60188519C4FAF4FBF4F2B968CAF7F
:1056C0009DAFAEAFBFAF2B970E94D440EBE3F3E0AA
:1056D00084912F019FEF491A590A882321F00E94D3
:1056E000873BF201F5CF81149104A104B104D1F0FC
:1056F000D501C401805F984DAF4FBF4FBC01CD01B4
:105700006C197D098E099F0928EE33E040E050E0D6
:105710000E9487CFCA01B9010E943A3C8AE00E94E8
:10572000873B0DC0E8E3F3E084912F01AFEF4A1A05
:105730005A0A882321F00E94873BF201F5CF0E948C
:105740005EA70E94373B2090DD033090DE0340903F
:10575000DF035090E0039101A201612F702F872D8C
:10576000962D0E94C0C39F7781149104A104B104B7
:1057700049F420E030E040E85FE30E9493CB87FFEC
:105780000BC008C020E030E040E450E40E9421C695
:10579000181614F446015701BFADBB2309F443C0EA
:1057A00027962CAD3DAD4EAD5FAD27972115310548
:1057B0004105510541F0D701C601821B930BA40B93
:1057C000B50BB7FD30C09101A20160966FAD609737
:1057D00064967FAD649768968FAD68976C969FAD21
:1057E0006C970E94C0C320E030E040EC5FE30E9471
:1057F00093CB87FD3ACFD701C601805A9541AF4F71
:10580000BF4F27968CAF9DAFAEAFBFAF27976096C7
:105810002FAE609764963FAE649768964FAE6897D8
:105820006C965FAE6C9780910501882309F41DCFBB
:1058300081149104A104B10429F4C12ED02EE72CC7
:10584000F62CE2CE90E1C91A97E2D90AE108F108F4
:10585000C818D908EA08FB08F7FE07CFEECF83E5A2
:105860000E940F38882321F00E94A8BA8C0102C040
:105870000FEF10E080E50E940F38882319F00E9496
:10588000A8BA02C080E090E098010F3F110519F01E
:1058900010F02FEF30E0892B11F00C941C35309371
:1058A0005707209356070C941C3580E50E940F384B
:1058B000811106C010925707109256070C941C35A0
:1058C0000E94A8BA892B11F00C941C35F3CF1092CA
:1058D00023030C941C3581E0809323030C941D3525
:1058E00083E50E940F38882361F00E948B39609312
:1058F0003F017093400180934101909342010C94C9
:105900001C3588E50E940F3881110C94813589E59A
:105910000E940F3881110C9481358AE50E940F385E
:1059200081110C94813585E40E940F3881110C940B
:1059300081350E942F6F0E94E8A60C941C3583E5E8
:105940000E940F38882311F40C941C350E948B3967
:105950006093510F7093520F8093530F9093540F95
:105960000C941C35D6018D916D010E940F3888234F
:1059700009F46DC0133009F063C00E94EE384B018A
:105980005C0120E030E040EA51E40E9493CB87FFC5
:105990004EC0A50194016091910F7091920F80917A
:1059A000930F9091940F0E94BBC42B013C019B016B
:1059B000AC016091D10F7091D20F8091D30F909173
:1059C000D40F0E94F9CB6093D10F7093D20F8093C4
:1059D000D30F9093D40FA30192016091C10F7091E6
:1059E000C20F8091C30F9091C40F0E94F9CB6093B6
:1059F000C10F7093C20F8093C30F9093C40F609137
:105A000085077091860780918707909188070E948B
:105A100098CBA30192010E94F9CB0E9434C56093F8
:105A200085077093860780938707909388078092F5
:105A3000910F9092920FA092930FB092940F07C083
:105A40000E94EE38F70160837183828393831F5F26
:105A5000F4E0EF0EF11C143009F084CF0E94887638
:105A60000C941C350E9415400C941C35EDE5F3E0B8
:105A700084918F010F5F1F4F882311F40C941C3504
:105A80000E94873BF801F4CF0E94BE9B0C941C350A
:105A900081E0809335018093DF0C0C941D3583E504
:105AA0000E940F388823F1F00E947D38182F823031
:105AB000D0F0E8E7FDE084918F010F5F1F4F88234E
:105AC00021F00E94873BF801F6CFEAE3F4E08491ED
:105AD0008F010F5F1F4F882309F4AEC70E94873BD9
