:100000000C94CD200C94FC200C94FC200C94FC202F
:100010000C94FC200C94FC200C94FC200C94FC20F0
:100020000C94FC200C940DE50C94FC200C94FC200A
:100030000C94FC200C945B7C0C94FC200C94FC2015
:100040000C94FC200C94E38C0C94F0DF0C94FC20BA
:100050000C94D3330C94FC200C94FC200C94FC20C6
:100060000C94FC200C94FC200C94DAD80C94FC200A
:100070000C94FC200C94FC200C94FC200C94FC2090
:100080000C94FC200C94FC200C94FC202C8D3A8DBC
:10009000568D648D7E8D828D848D888D8A8D8E8D1A
:1000A000968D0AE10FE114E11EE14CE128E130E117
:1000B00038E142E169E16CE15FE163E183E170E134
:1000C00074E17AE17EE1084AD73B3BCE016E84BC05
:1000D000BFFDC12F3D6C74319ABD56833DDA3D00A2
:1000E000C77F11BED9E4BB4C3E916BAAAABE0000EB
:1000F00000803F05A84CCDB2D44EB93836A9020CC9
:1001000050B9918688083CA6AAAA2ABE00000080A1
:100110003F004D383420582059205A204500436173
:100120006E6E6F7420656E7465722073756264699B
:10013000723A20004D3234004D3233202573006175
:1001400075746F25692E67006572726F7220777201
:100150006974696E6720746F2066696C65004E6F04
:1001600074205344207072696E74696E67002F00AA
:100170005344207072696E74696E67206279746589
:1001800020002E0044656C6574696F6E206661699D
:100190006C65642C2046696C653A200046696C6584
:1001A0002064656C657465643A002E006F70656E3E
:1001B000206661696C65642C2046696C653A200094
:1001C00057726974696E6720746F2066696C653A4E
:1001D00020002E006F70656E206661696C65642C6E
:1001E0002046696C653A20002E006F70656E2066AF
:1001F00061696C65642C2046696C653A200046692B
:100200006C652073656C6563746564002053697A5E
:10021000653A200046696C65206F70656E65643ACA
:1002200020002E006F70656E206661696C65642C1D
:100230002046696C653A20004E6F772066726573C0
:10024000682066696C653A20004E6F7720646F699C
:100250006E672066696C653A20002220706F73001B
:100260002220706172656E743A2200535542524FDB
:100270005554494E452043414C4C2074617267658A
:10028000743A2200747279696E6720746F2063611A
:100290006C6C207375622D67636F64652066696C92
:1002A0006573207769746820746F6F206D616E7953
:1002B000206C6576656C732E204D4158206C6576F8
:1002C000656C2069733A0053442063617264206F47
:1002D0006B006F70656E526F6F74206661696C653C
:1002E0006400766F6C756D652E696E697420666149
:1002F000696C656400534420696E697420666169A5
:100300006C0048617264636F646564204465666173
:10031000756C742053657474696E6773204C6F61DB
:100320006465640053746F726564207365747469E6
:100330006E67732072657472696576656400204427
:10034000002049002020204D3330312050005049FA
:10035000442073657474696E67733A00205A0020F4
:10036000590020204D323036205800486F6D6520EE
:100370006F666673657420286D6D293A002045000C
:10038000205A0020580020420020540020204D32E6
:100390003035205300416476616E63656420766178
:1003A000726961626C65733A20533D4D696E2066D7
:1003B0006565647261746520286D6D2F73292C202A
:1003C000543D4D696E2074726176656C206665657A
:1003D000647261746520286D6D2F73292C20423D55
:1003E0006D696E696D756D207365676D656E7420DE
:1003F00074696D6520286D73292C20583D6D6178D6
:10040000696D756D205859206A65726B20286D6D75
:100410002F73292C20205A3D6D6178696D756D20F0
:100420005A206A65726B20286D6D2F73292C20204D
:10043000453D6D6178696D756D2045206A65726B0B
:1004400020286D6D2F73290020540020204D32305C
:1004500034205300416363656C65726174696F6E2B
:100460003A20533D616363656C65726174696F6EB8
:100470002C20543D726574726163742061636365FE
:100480006C65726174696F6E00204500205A00200F
:10049000590020204D3230312058004D6178696D6F
:1004A000756D20416363656C65726174696F6E2060
:1004B000286D6D2F7332293A00204500205A002004
:1004C000590020204D3230332058004D6178696D3D
:1004D000756D2066656564726174657320286D6D45
:1004E0002F73293A00204500205A0020590020206F
:1004F0004D39322058005374657073207065722036
:10050000756E69743A0053657474696E677320532D
:10051000746F7265640053544F505045442E200050
:100520005072696E7465722073746F7070656420A8
:1005300064756520746F206572726F72732E204629
:10054000697820746865206572726F7220616E64CC
:1005500020757365204D39393920746F20726573A9
:10056000746172742E202854656D706572617475A3
:1005700072652069732072657365742E20536574EB
:10058000206974206166746572207265737461728B
:1005900074696E6729004B494C4C45442E2000502D
:1005A00072696E7465722068616C7465642E206B6C
:1005B000696C6C28292063616C6C656421006F6B29
:1005C00000526573656E643A20002200556E6B6EB2
:1005D0006F776E20636F6D6D616E643A2022004309
:1005E00068616E67652066696C616D656E74005A3E
:1005F000204F6666736574203A20007A5F6D6178DB
:100600003A20007A5F6D696E3A20005A204F666684
:10061000736574005A204F6666736574206F6B00B3
:100620006C636420636F6E74726173742076616CA6
:1006300075653A20007A5F6D696E3A2000795F6DCA
:10064000696E3A2000785F6D696E3A2000205A3A50
:100650000020593A0020436F756E7420583A2000EC
:1006600020453A00205A3A0020593A00583A0046AC
:1006700049524D574152455F4E414D453A4D617289
:100680006C696E2056312E302E323B2053707269C9
:100690006E7465722F6772626C206D61736875701D
:1006A00020666F722067656E36204649524D57416D
:1006B00052455F55524C3A68747470733A2F2F67E5
:1006C00069746875622E636F6D2F4D61726C696E0F
:1006D0004669726D776172652F4D61726C696E202B
:1006E00050524F544F434F4C5F56455253494F4E13
:1006F0003A312E30204D414348494E455F545950C0
:10070000453A4D656E64656C2045585452554445D4
:10071000525F434F554E543A3120555549443A3073
:10072000303030303030302D303030302D303030CF
:10073000302D303030302D303030303030303030BF
:100740003030300A004D656E64656C204F66662E51
:100750000042656420646F6E652E0020423A0020DE
:10076000453A00543A004265642048656174696EF8
:10077000672E0048656174696E6720646F6E652E30
:100780000020573A0020453A00543A004865617409
:10079000696E672E2E2E002042403A0020403A001B
:1007A000202F003A00205400202F0020423A002041
:1007B0002F006F6B20543A002569206D696E2C2044
:1007C00025692073656300456E642066696C652049
:1007D0006C69737400426567696E2066696C652098
:1007E0006C697374004E6F206D6F76652E004D65D9
:1007F0006E64656C2072656164792E005265737554
:100800006D696E67207072696E740057616974203B
:10081000666F7220757365722E2E2E00536C65659F
:10082000702E2E2E00256920686F75727320256941
:10083000206D696E7574657300446F6E652070720B
:10084000696E74696E672066696C650053544F5019
:100850005045442E20005072696E74657220737486
:100860006F707065642064756520746F20657272A6
:100870006F72732E204669782074686520657272E5
:100880006F7220616E6420757365204D393939208F
:10089000746F20726573746172742E202854656DB4
:1008A0007065726174757265206973207265736515
:1008B000742E2053657420697420616674657220FB
:1008C00072657374617274696E6729004E6F204C93
:1008D000696E65204E756D62657220776974682057
:1008E000636865636B73756D2C204C617374204C69
:1008F000696E653A20004E6F20436865636B7375BF
:100900006D2077697468206C696E65206E756D6204
:1009100065722C204C617374204C696E653A20001E
:10092000636865636B73756D206D69736D61746366
:10093000682C204C617374204C696E653A20004C21
:10094000696E65204E756D626572206973206E6FE9
:1009500074204C617374204C696E65204E756D6215
:1009600065722B312C204C617374204C696E653A92
:1009700020004D31313000446F6E6520736176691F
:100980006E672066696C652E006F6B004D32390012
:100990002020506C616E6E657242756666657242AB
:1009A000797465733A20002046726565204D656D47
:1009B0006F72793A2000446563203136203230313D
:1009C0003500436F6D70696C65643A2000286E6F66
:1009D0006E652C2064656661756C7420636F6E664D
:1009E00069672900207C20417574686F723A200085
:1009F00044656320313620323031352031303A358C
:100A0000393A303600204C6173742055706461743B
:100A100065643A2000312E302E32004D61726C69CF
:100A20006E0020536F66747761726520526573653E
:100A30007400205761746368646F67205265736542
:100A400074002042726F776E206F75742052657348
:100A50006574002045787465726E616C2052657310
:100A6000657400506F7765725570007374617274AD
:100A7000002200656E717565696E67202200220094
:100A8000656E717565696E67202200FFFFFF0000CB
:100A9000A0400000A0400000004000004D430000C6
:100AA0004D4300004843000000000000000000002B
:100AB000000000004D4300004D430000484300008B
:100AC000000000000000000000006563686F3A004D
:100AD0004572726F723A0020746F6F206C6F6E6790
:100AE00020657874727573696F6E207072657665B3
:100AF0006E7465640020636F6C6420657874727531
:100B000073696F6E2070726576656E746564007CC3
:100B10003C3E5E2B3D3F2F5B5D3B2C2A225C0065FB
:100B20006E6473746F7073206869743A205A002081
:100B30005A3A00656E6473746F7073206869743A12
:100B400020590020593A00656E6473746F707320E9
:100B50006869743A20580020583A00656E647374CE
:100B60006F7073206869743A200024F4D43050C345
:100B70008E20C2A24017828B7011127A910D816C67
:100B8000D90AA861E108C7586607615143061E4BA0
:100B90005D05C145A7041A411104093D9803713947
:100BA00031034036DB0265339102D4305402802E8B
:100BB0001D02632CEE01752AC501B028A001102783
:100BC00081018F2564012B244B01E0223401AC21EB
:100BD0001F018D200D01801FFC00841EED00971D5C
:100BE000DF00B81CD200E61BC600201BBC00641A44
:100BF000B200B219A8000A19A0006A189900D1170A
:100C0000910040178B00B516840031167E00B31595
:100C100079003A157300C7146F0058146A00EE1378
:100C200066008813630025135E00C7125B006C1218
:100C3000570015125400C111510070114F002111BD
:100C40004B00D61049008D1047004610440002109A
:100C50004200C00F4000800F3E00420F3C00060FD4
:100C60003B00CB0E3800930E37005C0E3500270E8C
:100C70003400F30D3200C10D3100900D3000600DD5
:100C80002E00320D2D00050D2C00D90C2B00AE0CC2
:100C90002900850C29005C0C2700350C27000E0C60
:100CA0002600E80B2400C40B2400A00B23007D0BBE
:100CB00023005A0B2100390B2100180B2000F80AE1
:100CC0001F00D90A1E00BB0A1E009D0A1D00800AD3
:100CD0001D00630A1C00470A1B002C0A1B00110A96
:100CE0001A00F7091A00DD091900C4091900AB0937
:100CF0001900920917007B091800630917004C09B5
:100D0000160036091600200916000A091500F50814
:100D10001500E0081400CC081400B8081400A4085A
:100D20001400900813007D0812006B081300580887
:100D3000120046081200340811002308110012089E
:100D4000110001081100F0071000E0071000D007A3
:100D50001000C0071000B0070F00A1071000910796
:100D60000E0083070F0074070F0065070E0057077A
:100D70000E0049070E003B070D002E070E0020074E
:100D80000D0013070D0006070D00F9060C00ED0617
:100D90000D00E0060C00D4060C00C8060C00BC06D2
:100DA0000C00B0060C00A4060B0099060C008D0682
:100DB0000B0082060B0077060B006C060B00610629
:100DC0000A0057060B004C060A0042060A003806C5
:100DD0000A002E060A0024060A001A060A00100657
:100DE000090007060A00FD050900F4050900EB05E6
:100DF0000900E2050900D9050900D0050900C70569
:100E00000900BE050900B5050800AD050800A505E7
:100E100009009C050800940508008C05080084055D
:100E200008007C050800740508006C0507006505CE
:100E300008005D050700560508004E050700470538
:100E400007004005080038050700310507002A059E
:100E50000700230507001C050600160507000F05FF
:100E600007000805060002050700FB040600F5045C
:100E70000700EE040600E8040600E2040700DB04B5
:100E80000600D5040600CF040600C9040600C3040A
:100E90000600BD040600B7040600B1040500AC045A
:100EA0000600A6040600A00405009B0406009504A5
:100EB0000500900406008A040500850405008004EE
:100EC00006007A04050075040500700405006B0433
:100ED000050066040500610405005C040500570474
:100EE0000500520405004D040500480405004304B4
:100EF00005003E0404003A040500350405003004F2
:100F000004002C04050027040400230405001E042B
:100F100004001A04040016040500110404000D0462
:100F20000400090405000404040000040400FC0398
:100F30000400F8030400F4030400F0030400EC03CD
:100F40000400E8030400E4030400E0030400DC03FD
:100F50000400D8030400D4030400D0030400CC032D
:100F60000400C8030300C503030024F404D9201BB4
:100F7000C40C5C0E9804C4095F0265077101F40596
:100F8000F900FB04B30048048700C103690058035B
:100F9000550003034500BE023A00840231005302AB
:100FA0002A002902250004022000E4011C00C801D7
:100FB0001900AF011700980114008401130071019A
:100FC00010006101100051010E0043010D003601B7
:100FD0000B002B010B0020010B00150109000C0177
:100FE000090003010800FB000800F3000800EB0003
:100FF0000700E4000600DE000600D8000600D2006C
:101000000600CC000500C7000500C2000500BD00B9
:101010000400B9000400B5000400B1000400AD00F4
:101020000400A9000400A5000300A20003009F0023
:1010300004009B0003009800030095000200930049
:101040000300900003008D0002008B000300880065
:1010500002008600020084000300810002007F007D
:1010600002007D0002007B00020079000200770090
:10107000010076000200740002007200010071009D
:1010800002006F0002006D0001006C0002006A00A7
:1010900001006900020067000100660001006500B0
:1010A00001006400020062000100610001006000B4
:1010B00001005F0002005D0001005C0001005B00B8
:1010C00001005A00010059000100580001005700BA
:1010D00001005600010055000100540001005300BA
:1010E00000005300010052000100510001005000B7
:1010F00001004F0001004E0000004E0001004D00B5
:1011000001004C0001004B0000004B0001004A00B0
:1011100001004900010048000000480001004700AC
:1011200001004600000046000100450000004500A7
:1011300001004400010043000000430001004200A0
:101140000000420001004100000041000100400099
:1011500001003F0000003F0001003E0000003E0093
:1011600001003D0000003D0001003C0000003C008B
:1011700000003C0001003B0000003B0001003A0081
:1011800000003A0001003900000039000100380079
:101190000000380000003800010037000000370070
:1011A0000100360000003600000036000100350066
:1011B000000035000000350001003400000034005C
:1011C0000000340001003300000033000000330051
:1011D0000100320000003200000032000100310046
:1011E000000031000000310001003000000030003C
:1011F0000000300001002F0000002F0000002F0031
:1012000000002F0001002E0000002E0000002E0024
:1012100001002D0000002D0000002D0000002D0019
:1012200001002C0000002C0000002C0000002C000D
:1012300001002B0000002B0000002B0000002B0001
:1012400001002A0000002A0000002A0000002A00F5
:1012500001002900000029000000290000002900E9
:1012600000002900010028000000280000002800DC
:1012700000002800000028000100270000002700CF
:1012800000002700000027000000270001002600C2
:1012900000002600000026000000260000002600B6
:1012A00001002500000025000000250000002500A9
:1012B000000025000000250001002400000024009B
:1012C000000024000000240000002400010023008E
:1012D0000000230000002300000023000000230082
:1012E0000000230000002300010022000000220073
:1012F0000000220000002200000022000000220066
:101300000100210000002100000021000000210058
:101310000000210000002100000021000100200049
:10132000000020000000200000002000000020003D
:1013300000002000000020000000200001001F002D
:1013400000001F0000001F0000001F0000001F0021
:1013500000001F0000001F0001001E0000001E0012
:1013600000001E0000001E0000004572723A204D71
:10137000415854454D50204245440054656D7065B8
:101380007261747572652068656174656420626558
:1013900064207377697463686564206F66662E20C5
:1013A0004D415854454D50207472696767657265A8
:1013B00064202121004572723A204D494E54454D1A
:1013C00050003A20457874727564657220737769AD
:1013D0007463686564206F66662E204D494E5445DF
:1013E0004D502074726967676572656420210045FD
:1013F00072723A204D415854454D50003A2045787C
:1014000074727564657220737769746368656420AB
:101410006F66662E204D415854454D5020747269B8
:10142000676765726564202100202D20496E766112
:101430006C6964206578747275646572206E756D70
:10144000626572202100504944204175746F7475A3
:101450006E652066696E69736865642120507574D5
:1014600020746865206C617374204B702C204B696C
:1014700020616E64204B6420636F6E7374616E74C0
:10148000732066726F6D2061626F766520696E747D
:101490006F20436F6E66696775726174696F6E2E37
:1014A0006800504944204175746F74756E652066FC
:1014B00061696C6564212074696D656F75740020C5
:1014C000403A006F6B20543A006F6B20423A005054
:1014D0004944204175746F74756E65206661696C4E
:1014E0006564212054656D70657261747572652044
:1014F000746F6F206869676800204B643A20002091
:101500004B693A2000204B703A200020436C6173F5
:101510007369632050494420002054753A2000200C
:101520004B753A2000206D61783A2000206D696E7D
:101530003A200020643A200020626961733A20005A
:1015400070012C0190012701B0012201C0011D0191
:10155000F00118011002130130020E0160020901AE
:1015600090020401C002FF000003FA004003F500EE
:101570008003F000D003EB002004E6007004E100DB
:10158000E004DC004005D700C005D2004006CD00D5
:10159000D006C8008007C3003008BE00F008B900BC
:1015A000C009B400B00AAF00B00BAA00D00CA5006F
:1015B000000EA000500F9B00C0109600501291002A
:1015C00000148C00C0158700B0178200B0197D0090
:1015D000D01B7800001E730040206E00902269002E
:1015E000F024640040275F0090295A00E02B55004A
:1015F000102E500020304B0010324600E0334100E6
:1016000090353C001037370070383200A0392D007B
:10161000B03A2800A03B2300603C1E00103D19009A
:10162000903D1400103E0F00703E0A00C03E0500C1
:10163000003F00004D3330302053363938205032CF
:101640003030004D33303020533635392050323071
:101650003000B02000B0200059002D2D3A2D2D0073
:101660004D363030004368616E67652066696C6195
:101670006D656E7400466C6F77203000466C6F7736
:10168000203000466C6F7700466C6F770046616EC5
:101690002073706565640046616E207370656564D3
:1016A0000042656400426564004E6F7A7A6C6500A2
:1016B0004E6F7A7A6C65005370656564005370658F
:1016C0006564004D61696E005072656865617420E3
:1016D000504C412042656400507265686561742019
:1016E000504C41203100507265706172650050723B
:1016F0006568656174204142532042656400507200
:1017000065686561742041425320310050726570F4
:1017100061726500580059005A004578747275640A
:101720006572004578747275646572004D6F7665F8
:10173000205A004D6F76652059004D6F7665205810
:10174000004D6F76652061786973004D6F76652076
:10175000302E316D6D004D6F766520316D6D004D11
:101760006F76652031306D6D005072657061726505
:10177000004D6F7665206178697300436F6F6C640C
:101780006F776E0050726568656174204142530046
:101790005072656865617420504C41005365742037
:1017A000686F6D65206F66667365747300473238C5
:1017B000004175746F20686F6D65004D38340044CA
:1017C000697361626C652073746570706572730013
:1017D0004D61696E0053746F7265206D656D6F7237
:1017E000790042656400426564004E6F7A7A6C65E8
:1017F000004E6F7A7A6C650046616E207370656585
:10180000640046616E2073706565640054656D7098
:10181000657261747572650053746F7265206D65D1
:101820006D6F72790042656400426564004E6F7AA4
:101830007A6C65004E6F7A7A6C650046616E207333
:10184000706565640046616E207370656564005460
:10185000656D70657261747572650050726568655A
:1018600061742041425320636F6E66005072656858
:1018700065617420504C4120636F6E66005049448E
:101880002D43005049442D43005049442D440050FD
:1018900049442D44005049442D49005049442D49A4
:1018A000005049442D50005049442D500020022042
:1018B00046616374002002204661637400200220A8
:1018C0004D6178002002204D6178002002204D6992
:1018D0006E002002204D696E004F6666004F6E203C
:1018E000004F6666004F6E20004175746F74656D21
:1018F000700046616E2073706565640046616E20FD
:1019000073706565640042656400426564004E6FF3
:101910007A7A6C65004E6F7A7A6C6500436F6E74EC
:10192000726F6C004573746570732F6D6D00457335
:10193000746570732F6D6D005A73746570732F6DBD
:101940006D005A73746570732F6D6D0059737465F3
:1019500070732F6D6D005973746570732F6D6D000A
:101960005873746570732F6D6D0058737465707360
:101970002F6D6D00412D7265747261637400412D8D
:101980007265747261637400416D61782065004115
:101990006D6178206500416D6178207A00416D614C
:1019A00078207A00416D6178207900416D6178205E
:1019B0007900416D6178207800416D617820780070
:1019C0005654726176206D696E00565472617620AD
:1019D0006D696E00566D696E00566D696E00566DCC
:1019E0006178206500566D6178206500566D6178DC
:1019F000207A00566D6178207A00566D61782079E2
:101A000000566D6178207900566D61782078005617
:101A10006D617820780056652D6A65726B00566599
:101A20002D6A65726B00567A2D6A65726B00567A64
:101A30002D6A65726B005678792D6A65726B005657
:101A400078792D6A65726B00416363656C00416350
:101A500063656C00436F6E74726F6C0046696C2E28
:101A6000204469612E20310046696C2E2044696152
:101A70002E2031004F6666004F6E20004F666600D4
:101A80004F6E20004520696E206D6D3300436F6EF0
:101A900074726F6C004C434420636F6E7472617398
:101AA0007400526573746F7265206661696C73614E
:101AB0006665004C6F6164206D656D6F72790053CF
:101AC000746F7265206D656D6F7279004C434420B0
:101AD000636F6E74726173740046696C616D656EDC
:101AE00074004D6F74696F6E0054656D706572613E
:101AF00074757265004D61696E004D383420582050
:101B000059205A2045004D3234004D323320257380
:101B100000F92E2E00F852656672657368004D61FB
:101B2000696E004D323100496E69742E2053442095
:101B300063617264004E6F205344206361726400DD
:101B40004D3231004368616E676520534420636104
:101B50007264005072696E742066726F6D20534417
:101B60000053746F70207072696E740052657375E3
:101B70006D65207072696E740050617573652070B8
:101B800072696E7400436F6E74726F6C0050726590
:101B9000706172650054756E6500496E666F2073E2
:101BA000637265656E0000060900FE070199032B4C
:101BB00020FFFE08FE07FE000000060000010707E8
:101BC00006020080808080800080030303060104F9
:101BD000A0A0A00507070600005050F850F850508C
:101BE0000507070600002070A07028702005070771
:101BF00006000048A8502050A890050707060000DE
:101C000040A0A040A89068010303060204808080E1
:101C1000030707060100204080808040200307075B
:101C200006010080402020204080050505060001B7
:101C30008850F850880505050600012020F820206E
:101C40000303030601FF604080050101060003F85D
:101C50000303030601FF40E04005070706000008F4
:101C60000810204080800507070600002050888863
:101C70008850200507070600002060A0202020F8DB
:101C8000050707060000708808304080F805070740
:101C9000060000F8081030088870050707060000E5
:101CA00010305090F81010050707060000F880B0BB
:101CB000C8088870050707060000304080B0C88853
:101CC00070050707060000F80810102040400507BF
:101CD000070600007088887088887005070706006E
:101CE00000708898680810600307070601FF40E04D
:101CF000400040E0400307070601FF40E04000606D
:101D00004080040707060100102040804020100595
:101D10000303060002F800F80407070601008040EC
:101D20002010204080050707060000708810202042
:101D30000020050707060000708898A8B08070058D
:101D4000070706000020508888F8888805070706DE
:101D50000000F04848704848F0050707060000708A
:101D6000888080808870050707060000F048484892
:101D70004848F0050707060000F88080F08080F8EA
:101D8000050707060000F88080F0808080050707BF
:101D9000060000708880809888700507070600009C
:101DA000888888F8888888030707060100E0404093
:101DB000404040E005070706000038101010109062
:101DC000600507070600008890A0C0A0908805075E
:101DD00007060000808080808080F80507070600E5
:101DE000008888D8A88888880507070600008888A2
:101DF000C8A8988888050707060000708888888822
:101E00008870050707060000F08888F0808080054C
:101E100008080600FF7088888888A87008050707EA
:101E2000060000F08888F0A09088050707060000EB
:101E300070888070088870050707060000F8202069
:101E400020202020050707060000888888888888C9
:101E50007005070706000088888850505020050745
:101E600007060000888888A8A8D888050707060004
:101E70000088885020508888050707060000888859
:101E80005020202020050707060000F808102040F9
:101E900080F8030707060100E08080808080E0056D
:101EA0000707060000808040201008080307070687
:101EB0000100E02020202020E0050303060004208C
:101EC00050880501010600FFF802020206020680A2
:101ED00040050505060000700878887805070706A4
:101EE00000008080B0C888C8B005050506000070F5
:101EF0008880887005070706000008086898889899
:101F0000680505050600007088F88070050707065B
:101F10000000304840F04040400507070600FE78CA
:101F20008888780888700507070600008080B0C898
:101F30008888880307070601004000C0404040E051
:101F40000409090601FE1000301010109090600581
:101F5000070706000080808890E090880307070646
:101F60000100C04040404040E0050505060000D0AB
:101F7000A8A8A888050505060000B0C888888805B7
:101F8000050506000070888888700507070600FEB2
:101F9000B0C888C8B080800507070600FE6898882A
:101FA00098680808050505060000B0C8808080050F
:101FB000050506000070807008F0050707060000A0
:101FC0004040F040404830050505060000888888FC
:101FD000986805050506000088885050200505050D
:101FE0000600008888A8A85005050506000088504E
:101FF0002050880507070600FE88889868088870C2
:10200000050505060000F8102040F8040707060142
:1020100000304020C02040300107070602008080C9
:102020008080808080040707060100C02040304087
:1020300020C005030306000448A89000000001002A
:10204000000000000100000000000100000000008E
:10205000010000000000010000000000010000007D
:10206000000001000000000001000000000001006D
:10207000000000000100000000000100000000005E
:10208000010000000000010000000000010000004D
:10209000000001000000000001000000000001003D
:1020A000000000000100000000000100000000002E
:1020B000010000000000010000000000010000001D
:1020C000000001000000000001000000000001000D
:1020D00000000000010000000000010000000000FE
:1020E00001000000000001000000000001000000ED
:1020F00000000100000000000100000000000100DD
:1021000000000000060000010707060200800080B2
:10211000808080800507070600FF2078A0A0A078B7
:1021200020050707060000304840E04048B005059C
:102130000506000088705070880508080600FF88B2
:10214000885020F8202020010707060200808080A8
:10215000008080800508080600FF7080E090483805
:102160000870030101060107A005070706000070BB
:1021700088A8C8A888700406060601017090B050AF
:1021800000F00605050600002448904824040202D9
:10219000060102F010040101060103F0050707061D
:1021A00000007088E8C8C88870050101060007F8BB
:1021B00003030306010440A04005060606000020B4
:1021C00020F82020F804050506010360902040F067
:1021D000040505060103E0106010E0020202060299
:1021E0000640800506060600FF888888C8B080057E
:1021F000070706000078E8E868282828010101069A
:102200000203800202020602FE4080030505060169
:102210000340C04040E00406060601016090906063
:1022200000F00605050600009048244890060909BC
:102230000600FF40C04040E40C143C0406090906B7
:1022400000FF40C04040E81404081C0509090600CE
:10225000FFC0204020C8182878080507070600009E
:1022600020002020408870050808060000402070EB
:102270008888F8888805080806000010207088887B
:10228000F888880508080600002050708888F888BB
:102290008805080806000048B0708888F888880516
:1022A00008080600005000708888F888880508082B
:1022B0000600002050708888F88888060707060006
:1022C000003C50909CF0909C0509090600FE708827
:1022D0008080808870204005080806000040F88053
:1022E00080F08080F805080806000010F88080F073
:1022F0008080F805080806000020F88080F08080C3
:10230000F805080806000050F88080F08080F80387
:1023100008080601008040E040404040E003080813
:102320000601002040E040404040E003080806016C
:102330000040A0E040404040E0030808060100A043
:1023400000E040404040E0050707060000F0484834
:10235000E84848F0050808060000285088C8A898F2
:1023600088880508080600004020708888888870E2
:102370000508080600001020708888888870050805
:1023800008060000205070888888887005080806B4
:1023900000002850708888888870050808060000AA
:1023A00050007088888888700505050600008850F0
:1023B000205088050707060000709898A8C8C870C4
:1023C000050808060000402088888888887005086D
:1023D000080600001020888888888870050808068C
:1023E00000002050008888888870050808060000D2
:1023F000500088888888887005080806000010202A
:1024000088885020202005070706000080F088F00B
:10241000808080050707060000708890A09088B033
:102420000508080600004020007008788878050834
:102430000806000010200070087888780508080653
:102440000000205000700878887805080806000011
:1024500028500070087888780507070600005000AB
:102460007008788878050808060000205020700859
:1024700078887806050506000078147C907C0507AE
:10248000070600FE70888088702040050808060056
:10249000004020007088F8807005080806000010D1
:1024A00020007088F88070050808060000205000A1
:1024B0007088F8807005070706000050007088F8E3
:1024C0008070030808060100804000C0404040E0E2
:1024D000030808060100408000C0404040E00308B7
:1024E0000806010040A000C0404040E0060A0A067D
:1024F00000FEA4A800FC8480808084FC060A0A06F2
:1025000000FE549400FC8404040484FC05080806BE
:102510000000285000B0C888888805080806000018
:102520004020007088888870040A0A0602FE304045
:102530008090909090909090040A0A0600FEC0202F
:102540001090909090909090060707060001448CA0
:102550008C8480403C06070706000188C4C48404BC
:1025600008F00505050600012000F8002005080810
:1025700006000040F0C88888987810050808060012
:1025800000E0F88888888888F8050505060001209D
:1025900030F830200508080600002070F8202020C0
:1025A00020E00509090600FF2070A8A8B888885017
:1025B000200509090600FFE080C0B0A8A83028283F
:1025C0000509090600FFF8A88888888888A8F80502
:1025D0000A0A0600FE205050505088A8A8887000B3
:1025E000060900FE06018902FE20FFFE07FE06FE28
:1025F00000000006000701060606020080808080B9
:102600000080030303060103A0A0A005070706003E
:10261000FF5050F850F850500509090600FE207090
:10262000A8A07028A870200608080600FF40A84847
:1026300010204854080507070600FF609090609836
:1026400090680103030602038080800207070602E8
:10265000FF408080808080400207070602FF8040A4
:1026600040404040800505050600008850F850882D
:102670000505050600002020F820200204040602BB
:10268000FEC0404080050101060002F80202020679
:102690000200C0C004060606010010102040808021
:1026A00004060606010060909090906003060606FE
:1026B000010040C0404040E0040606060100609072
:1026C000102040F0040606060100F020601010E023
:1026D00005060606000010305090F81004060606A5
:1026E0000100F080E01010E00406060601006080A2
:1026F000E0909060040606060100F01010204040B3
:1027000004060606010060906090906004060606CC
:102710000100609090701060020505060200C0C0C4
:1027200000C0C00207070602FEC0C000C0404080D3
:102730000505050600001860806018050303060003
:1027400001F800F8050505060000C0300830C00497
:10275000070706010060901060400040050606066D
:1027600000007090A8B0807005060606000020509A
:1027700088F88888050606060000F088F08888F04A
:10278000040606060100609080809060040606063C
:102790000100E090909090E0040606060100F080B1
:1027A000E08080F0040606060100F080E080808072
:1027B000040606060100609080B0906004060606DC
:1027C00001009090F0909090030606060100E04012
:1027D000404040E0050606060000381010109060EA
:1027E00004060606010090A0C0A09090040606060C
:1027F00001008080808080F005060606000088D8F1
:10280000A8A8888804060606010090D0B090909091
:10281000050606060000708888888870040606068B
:102820000100E09090E080800407070601FF6090BF
:1028300090D0B06010040606060100E09090E09091
:102840009004060606010060904020906005060690
:10285000060000F820202020200406060601009033
:102860009090909060040606060100909090F060B1
:10287000600506060600008888A8A8D88805060610
:1028800006000088502020508805060606000088B3
:102890008850202020040606060100F01020408009
:1028A000F0030606060100E080808080E004060652
:1028B000060100808040201010030606060100E09B
:1028C00020202020E0050303060003205088050196
:1028D000010600FEF802020206020480400404041D
:1028E000060100709090700406060601008080E0EA
:1028F0009090E004040406010070808070040606D5
:10290000060100101070909070040404060100602D
:10291000B0C070040606060100205040E0404004AC
:1029200006060601FE60909070106004060606011F
:10293000008080E09090900306060601004000C0F1
:102940004040E00308080601FE200060202020A08F
:10295000400406060601008080A0C0A09003060681
:10296000060100C040404040E0050404060000D0DD
:10297000A8A888040404060100E0909090040404D0
:10298000060100609090600406060601FEE090904B
:10299000E080800406060601FE709090701010041E
:1029A0000404060100A0D080800404040601007025
:1029B000C030E00406060601004040E0405020041C
:1029C0000404060100909090700404040601009035
:1029D00090606005040406000088A8A85004040460
:1029E000060100906060900406060601FE9090903B
:1029F000709060040404060100F02040F003070713
:102A0000060100204040804040200107070602FFE9
:102A1000808080808080800307070601008040401E
:102A20002040408004020206010350A0FFFFFFFF88
:102A3000FFFFFFFFFFFFFFFFFFFFFFFFFFFFFFFFA6
:102A4000FFFFFFFFFFFFFFFFFFFFFFFFFF00000093
:102A500006000701060606020080008080808004D0
:102A600006060601FF2070A0A070200507070600DB
:102A7000FF304840F04040F8050505060000A8502A
:102A80008850A80506060600008850F820F82001A6
:102A900007070602FF808080008080800407070609
:102AA00001FF708060906010E0030101060105A045
:102AB000060707060000788494A49484780305052B
:102AC00006010160A06000E0050505060000285031
:102AD000A05028040303060100F0101004010106B1
:102AE0000102F00607070600007884B4A4A48478E5
:102AF000040101060105F004030306010260906071
:102B00000507070600FF2020F8202000F803050530
:102B100006010140A02040E0030505060101C02098
:102B20004020C0020202060204408004050506019E
:102B3000FF9090B0D08005060606000078E8E868AF
:102B40002828010101060202800202020602FE405C
:102B50008003050506010140C04040E0030505066D
:102B6000010140A04000E0050505060000A0502836
:102B700050A00508080600FF40C040507030781093
:102B80000508080600FF40C04050680810380508D6
:102B9000080600FFC0204030F03078100407070618
:102BA00001002000206080906005070706000040BB
:102BB000202050708888050707060000102020504C
:102BC000708888050707060000205020507088880C
:102BD0000507070600002850205070888805070761
:102BE0000600005000205070888805070706000086
:102BF0002050205070888805060606000078A0F056
:102C0000A0A0B80408080601FE60908080906020B3
:102C1000400407070601004020F080E080F0040730
:102C2000070601002040F080E080F004070706015D
:102C3000002050F080E080F00407070601005000FB
:102C4000F080E080F00307070601008040E040408C
:102C500040E00307070601002040E0404040E00359
:102C6000070706010040A0E0404040E003070706D8
:102C70000100A000E0404040E005060606000070AC
:102C800048E848487004070706010050A090D0B0FB
:102C90009090040707060100402060909090600427
:102CA0000707060100204060909090600407070627
:102CB00001002050609090906004070706010050CA
:102CC000A06090909060040707060100500060909B
:102CD0009090600505050600008850205088040883
:102CE000080601FF1070B0B0D0D0E08004070706DE
:102CF000010040209090909060040707060100209A
:102D0000409090909060040707060100205090903A
:102D1000909060040707060100500090909090602A
:102D20000507070600001020885020202004060612
:102D300006010080E09090E0800406060601006035
:102D400090A0A090A004070706010040200070900A
:102D500090700407070601002040007090907004F6
:102D600007070601002050007090907004070706C6
:102D7000010050A0007090907004060606010050FB
:102D8000007090907004070706010020502070909A
:102D9000907005040406000070A8B07804060606CA
:102DA00001FE70808070204004070706010040206B
:102DB0000060B0C07004070706010020400060B04A
:102DC000C07004070706010020500060B0C0700406
:102DD0000606060100500060B0C070030707060138
:102DE00000804000C04040E003070706010020408B
:102DF00000C04040E003070706010040A000C040BB
:102E000040E0030606060100A000C04040E00407C1
:102E100007060100306010709090600407070601FB
:102E20000050A000E09090900407070601004020A9
:102E30000060909060040707060100204000609049
:102E40009060040707060100205000609090600425
:102E5000070706010050A000609090600406060677
:102E600001005000609090600505050600002000FC
:102E7000F8002004040406010070B0D0E004070745
:102E800006010040200090909070040707060100A2
:102E90002040009090907004070706010020500029
:102EA000909090700406060601005000909090707B
:102EB0000409090601FE2040009090907090600483
:102EC00008080601FE8080E09090E08080040808F9
:102ED0000601FE500090909070906000000000008D
:102EE000000000000000007FFFE000000000000084
:102EF0000000000000007000E00000000000000082
:102F0000000000000061F860000000000000000008
:102F10000000000041F82000000000000000000058
:102F200000000040F0200000000000000000000051
:102F300000004060200000000000000000000000D1
:102F4000005801A07F800000000000000041040044
:102F50005C63A0FFC0000000000000002082005E53
:102F6000F7A0FFC0000000000000002082005EF714
:102F7000A0FFC0000000000000004104005C63A04E
:102F80007F80000000000000008208005801A07F40
:102F90008000000000000001041000406020FFC01D
:102FA0000000000000000104100040F020FFC000FD
:102FB00000000000000082080041F820FFC000006F
:102FC000000000000041040061F8603F00000000C4
:102FD000000000000000007000E01E000000000083
:102FE000000001FFFF807FFFE00C000000000000F8
:102FF0000001FFFF80000000000000000000000052
:10300000000000007FFFE000000000000000000062
:103010000000007000E00000000000000000000060
:103020000000630C600000000000000000000000D1
:1030300000470E200000000000000000000000001B
:103040004F0F200000000000000000000000005FA3
:103050000FA00000000000000000000000005E075C
:10306000A07F8000000000000000410400406020BC
:10307000FFC00000000000000020820040F020FFA0
:10308000C00000000000000020820040F020FFC0CF
:10309000000000000000004104004060207F80002C
:1030A0000000000000008208005E07A07F80000092
:1030B00000000000010410005F0FA0FFC00000002E
:1030C000000000010410004F0F20FFC000000000AE
:1030D000000000820800470E20FFC0000000000032
:1030E0000000410400630C603F000000000000008D
:1030F000000000007000E01E000000000000000161
:10310000FFFF807FFFE00C0000000000000001FFD7
:10311000FF80000000000000000000000000000030
:10312000000000000000000000000000000000009F
:10313000000000000000000000000000000000008F
:10314000000000000000000000000000000000007F
:10315000000000000000000000000000000000006F
:10316000000000000000000000000000000000005F
:10317000000000000000000000000000000000004F
:10318000000000000000000000000000000000003F
:10319000000000000000000000000000000000002F
:1031A000000000000000000000000000000000001F
:1031B000000000000000000000000000000000000F
:1031C00000000000000000000000000000000000FF
:1031D00000000000000000000000000000000000EF
:1031E00000000000000000000000000000000000DF
:1031F00000000000000000000000000000000000CF
:1032000000000000000000000000000000000000BE
:1032100000000000000000000000000000000000AE
:10322000000000000000000000000000000000009E
:10323000000000000000000000000000000000008E
:10324000000000000000000000000000000000007E
:10325000000000000000000000000000000000006E
:10326000000000000000000000000000000000005E
:10327000000000000000000000000000000000004E
:10328000000000000000000000000000000000003E
:10329000000000000001FC0FC01F003C007E0FC0BA
:1032A0003E00781F0001FC0FC03F807E007E1F8023
:1032B0007F00FC1F0001FC1FC03F807E003F1F807D
:1032C0007F00FE1F0001FE1FC03F807E003F3F00C9
:1032D0007F00FE1F0001FE1FC07FC07E001FBE00DA
:1032E000FF80FF1F0001FE3FC07FC07E000FFE0079
:1032F000FF80FF9F0001FE3FC0FBE07E000FFC014E
:10330000F7C0FF9F0001FF3FC0FBE07E0007FC010C
:10331000F7C0FFDF0001F73BC0F1E07E0007F801D6
:10332000E3C0FBFF0001F77BC1F1F07E0003F8036F
:10333000E3E0FBFF0001F7F7C1F1F07E0003F003CB
:10334000E3E0F9FF0001F7F7C1F1F07E0001F003BF
:10335000E3E0F8FF0001F3F7C3FFF87E0001F00798
:10336000FFF0F8FF0001F3F7C3FFF87FFC01F0075F
:10337000FFF0F87F0001F3E7C3FFF87FFC01F007DF
:10338000FFF0F83F0001F1E7C7C07C7FFC01F00FC0
:1033900080F8F83F0001F1E7C7C07C7FFC01F00F27
:1033A00080F8F81F0000000000000000000000008E
:1033B000000000000000000000000000000000000D
:1033C00000000000000000000000000000000000FD
:1033D00000000000000000000000000000000000ED
:1033E00000000000000000000000000000000000DD
:1033F00000000000000000000000000000000000CD
:1034000000000000000000000000000000000000BC
:1034100000000000000000000000000000000000AC
:10342000000000000000000000000000000000009C
:10343000000000000000000000000000000000008C
:10344000000000000000000000000000000000007C
:10345000000000000000000000000000000000006C
:10346000000000000000000000000000000000005C
:10347000000000000000000000000000000000004C
:10348000000000000000000000000000000000003C
:10349000000000000000000000000000000000002C
:1034A000000000000000000000000000000000001C
:1034B000000000000000000000000000000000000C
:1034C00000000000000000000000000000000000FC
:1034D00000000000000000000000000000000000EC
:1034E00000000000000000000000000000000000DC
:1034F00000000000000000000000000000000000CC
:1035000000000000000000000000000000000000BB
:10351000000000000000091200FC0A01E803D720A7
:10352000FFFD0EFD0BFD00000009000E010B0B0955
:1035300004008080808080808000008080040404FB
:1035400009030790909090080A0A09000024242497
:10355000FF2424FF242424070B0B0901FF107C9275
:103560009050381412927C10070A0A09010042A4F4
:10357000A4481010244A4A84070A0A0901006090EE
:10358000909060629488946201040409040780802A
:103590008080030C0C0903FF2040408080808080E5
:1035A00080404020030C0C0903FF80404020202075
:1035B000202020404080070707090103109254385B
:1035C000549210070707090101101010FE10101087
:1035D0000204040904FEC0C040800701010901047F
:1035E000FE020202090400C0C0070A0A0901000223
:1035F000040408101020404080070A0A090100381E
:10360000448282828282824438070A0A09010010B9
:103610003050901010101010FE070A0A09010038EF
:103620004482020408102040FE070A0A090100FE35
:10363000020408180402028478070A0A0901000437
:103640000C14244484FE040404070A0A090100FE41
:10365000808080F80402028478070A0A0901003C8D
:10366000408080B8C482824438070A0A090100FEFB
:10367000020404080810101010070A0A0901003893
:10368000448244384482824438070A0A09010038D7
:10369000448282463A02020478020707090400C005
:1036A000C0000000C0C00209090904FEC0C000003B
:1036B00000C0C040800509090902000810204080B0
:1036C00040201008070404090102FE0000FE05095D
:1036D00009090200804020100810204080070A0AD3
:1036E00009010038448202040810100010070A0A79
:1036F00009010038449AAAAAAAAA9C403C070A0ACF
:1037000009010010282828447C44828282070A0A82
:10371000090100F8848284F884828284F8070A0A06
:103720000901003C42808080808080423C070A0A78
:10373000090100F88482828282828284F8070A0A60
:10374000090100FE808080F880808080FE070A0AE0
:10375000090100FE808080F88080808080070A0A4E
:1037600009010038448280808E82824438070A0A28
:1037700009010082828282FE8282828282050A0A96
:10378000090200F82020202020202020F8070A0A23
:103790000901003E080808080808888870070A0A16
:1037A00009010082848890A0D088848282070A0A56
:1037B000090100808080808080808080FE070A0A66
:1037C0000901008282C6AA928282828282070A0A44
:1037D0000901008282C2A2928A86828282070A0A34
:1037E0000901007C82828282828282827C070A0AAC
:1037F000090100F884828284F880808080080B0BA5
:103800000901FF384482828282828A443A01070A8F
:103810000A090100F884828284F890888482070A69
:103820000A0901007C8280807C020202827C070AF5
:103830000A090100FE101010101010101010070AD5
:103840000A09010082828282828282824438070AC7
:103850000A09010082828244444428282810070A69
:103860000A0901008282828292929292AA44070AF5
:103870000A09010082824428101028448282070A23
:103880000A09010082824428101010101010070A43
:103890000A090100FE0204081020408080FE040C8A
:1038A0000C0903FFF080808080808080808080F021
:1038B000070A0A0901008040402010100804040291
:1038C000040C0C0902FFF010101010101010101052
:1038D00010F00704040901061028448208010109B8
:1038E00000FFFF03030309030A80402007070709BD
:1038F00001007C02027E82867A070A0A09010080A2
:103900008080BCC2828282C2BC0707070901007C9A
:1039100082808080827C070A0A0901000202027A02
:1039200086828282867A0707070901007C8282FEEE
:1039300080827C070A0A0901001C22222020F8202C
:10394000202020070A0A0901FD7A84848478807C7B
:1039500082827C070A0A090100808080BCC28282C0
:10396000828282050A0A090200600000E02020200D
:103970002020F8050D0D0902FD1800003808080880
:10398000080808888870070A0A0901008080808476
:103990008890B0C88482050A0A090200E02020202D
:1039A0002020202020F8070707090100EC929292BE
:1039B000929282070707090100BCC282828282823A
:1039C0000707070901007C82828282827C070A0A3B
:1039D0000901FDB8C4828282C4B8808080070A0AC7
:1039E0000901FD3A46828282463A0202020707072F
:1039F0000901009C6242404040400707070901005E
:103A00007C82807C02827C0709090901002020FC5D
:103A100020202020221C07070709010082828282C1
:103A200082867A0707070901008282444428281009
:103A30000707070901008282929292AA44070707AA
:103A400009010082442810284482070A0A0901FD5E
:103A50004242242424181810906007070709010027
:103A6000FE0408102040FE060B0B0902001C20205B
:103A70002020C0202020201C010C0C0904FF808085
:103A800080808080808080808080060B0B09010010
:103A9000E0101010100C10101010E00703030901C3
:103AA0000762928CFFFFFFFFFFFFFFFFFFFFFFFF9B
:103AB000FFFFFFFFFFFFFFFFFFFFFFFFFFFFFFFF16
:103AC000FFFFFFFFFF00000009000E010B0B0904C0
:103AD0000080800000808080808080800608080947
:103AE000010008789490A0A47840070A0A09010010
:103AF0001C222020F8202060A25C07060609010392
:103B0000827C44447C82070A0A090100828244289C
:103B10007C107C101010010B0B0904FF808080804A
:103B200080008080808080040B0B0902FF60908001
:103B3000609090906010906003020209030BA0A0B7
:103B40000809090900013C4299A5A1A599423C0533
:103B50000707090103609070907800F807080809CA
:103B6000010112244890904824120604040901021D
:103B7000FC040404050101090204F808090909000C
:103B8000013C42B9A5BDA9A5423C060101090109B4
:103B9000FC04040409030660909060070909090108
:103BA00001101010FE10101000FE0406060901049A
:103BB0006090106080F004060609010460902010F7
:103BC000906003030309030A2040800709090901E3
:103BD000FE8282828282C6BA8080070A0A090100B8
:103BE0007E8A8A8A7A0A0A0A0A0A020202090404F6
:103BF000C0C00403030902FD20906003060609010A
:103C00000440C0404040E005060609010470888871
:103C10007000F8070808090101904824121224488E
:103C200090070A0A09010040C0404042E60A121A01
:103C300006070A0A09010040C040404CF2020C107D
:103C40001E070A0A0901006090201092660A121AE3
:103C500006070A0A09010010001010204080828225
:103C60007C070E0E090100201008001028282844A7
:103C70007C44828282070E0E090100081020001089
:103C8000282828447C44828282070E0E09010010F5
:103C900028440010282828447C44828282070D0D85
:103CA00009010034580010282828447C448282826C
:103CB000070D0D09010028280010282828447C44FD
:103CC000828282070E0E0901001028281010282871
:103CD00028447C44828282070A0A0901001E28289F
:103CE000284E784888888E070D0D0901FD3C4280DA
:103CF0008080808080423C082418070E0E09010055
:103D000020100800FE808080F880808080FE070EF2
:103D10000E09010008102000FE808080F88080805D
:103D200080FE070E0E09010010284400FE808080EE
:103D3000F880808080FE070D0D090100282800FE14
:103D4000808080F880808080FE050E0E0902004091
:103D5000201000F82020202020202020F8050E0E22
:103D600009020010204000F82020202020202020E0
:103D7000F8050E0E09020020508800F820202020AF
:103D800020202020F8050D0D090200505000F820D9
:103D900020202020202020F8070A0A09010078446A
:103DA0004242F24242424478070D0D090100345864
:103DB000008282C2A2928A86828282070E0E090146
:103DC00000201008007C82828282828282827C07AC
:103DD0000E0E090100081020007C828282828282FD
:103DE00082827C070E0E090100102844007C82822A
:103DF0008282828282827C070D0D09010034580084
:103E00007C82828282828282827C070D0D0901007F
:103E10002828007C82828282828282827C07070735
:103E200009010182442810284482070C0C0901FF73
:103E3000027C868A8A9292A2A2C27C80070E0E0918
:103E400001002010080082828282828282824438AD
:103E5000070E0E09010008102000828282828282F1
:103E600082824438070E0E09010010284400828225
:103E70008282828282824438070D0D09010028283F
:103E80000082828282828282824438070E0E090179
:103E90000008102000828244281010101010100713
:103EA0000A0A0901008080FC828282FC80808006F0
:103EB0000A0A09010038444448D048444444580799
:103EC0000B0B090100201008007C02027E82867A1A
:103ED000070B0B090100081020007C02027E82867D
:103EE0007A070B0B090100102844007C02027E8235
:103EF000867A070A0A0901003458007C02027E8291
:103F0000867A070A0A0901002828007C02027E82BC
:103F1000867A070C0C09010010282810007C020288
:103F20007E82867A0707070901006C12127E909242
:103F30006C070A0A0901FD7C82808080827C10481F
:103F400030070B0B090100201008007C8282FE80E4
:103F5000827C070B0B090100081020007C8282FE86
:103F600080827C070B0B090100102844007C8282B0
:103F7000FE80827C070A0A0901002828007C8282D0
:103F8000FE80827C050C0C0902008040200000E0CD
:103F90002020202020F8050C0C09020010204000F1
:103FA00000E02020202020F8050C0C090200205001
:103FB000880000E02020202020F8050B0B090200DB
:103FC00050500000E02020202020F8070B0B0901B2
:103FD00000483050083C448282824438070A0A096B
:103FE0000100345800BCC28282828282070B0B0916
:103FF0000100201008007C82828282827C070B0BE9
:10400000090100081020007C82828282827C070BDA
:104010000B090100102844007C82828282827C0786
:104020000A0A0901003458007C82828282827C075D
:104030000A0A0901002828007C82828282827C0789
:10404000090909010010381000FE00103810070996
:10405000090901FF027C8A8A92A2A27C80070B0BCD
:10406000090100402010008282828282867A070B3A
:104070000B090100081020008282828282867A0762
:104080000B0B090100102844008282828282867A0A
:10409000070A0A0901002828008282828282867A21
:1040A000070E0E0901FD04081000424224242418C2
:1040B00018109060070B0B0901FE8080B8C4828243
:1040C00082C4B88080070D0D0901FD2424004242FE
:1040D0002424241818109060000000010200000041
:1040E00000000000040307060000000000000000BC
:1040F00000000000000000000102040810204080C1
:1041000001020408102040800102040810204080B1
:104110008040201008040201020202020202020290
:104120000404040404040404030303030303030357
:10413000010101010101010100002000230026000E
:10414000290000002200250028002B00000021008B
:10415000240027002A00024E414E494E4954594935
:104160004E46CDCCCC3D0AD7233C17B7D13877CCBF
:104170002B329595E6241FB14F0A00002041000024
:10418000C84200401C4620BCBE4CCA1B0E5AAEC5DD
:104190009D741F5811D8ADD8235811241FBECFEFDE
:1041A000D0E4DEBFCDBF13E0A0E0B1E0E8EFF1EE78
:1041B00001E00BBF02C007900D92AC39B107D9F7EF
:1041C00024E1ACE9B3E001C01D92A733B207E1F7E7
:1041D00011E4C8E9D1E400E006C022970109FE011C
:1041E0000BBF0E9484EAC239D10780E00807A9F713
:1041F0000E941DE20C94EAF00C940000FC01148271
:1042000017821382128283E093E091838083089562
:1042100023E033E0FC01318320832781222319F03E
:1042200004960C9443720895CF92DF92EF92FF921E
:104230000F931F93CF93DF93EC018F960E94FE2084
:10424000CE01805B9F4F0E94FE207E012FE6E20E92
:10425000F11C87016E013BE5C31A3EEFD30AC8018A
:104260000E94FE20015E1F4F0C151D05C1F7FE01C7
:10427000E955FE4F89E1818314823596178ACE0174
:1042800086539E4F0E94FE20FE01E558FD4F10828E
:104290001182128213823896108211821282138246
:1042A0001A821B82188219826E0181E8C81A8DEF6A
:1042B000D80AF6011082118212821382F80111824B
:1042C0001082FE01E751FE4F108286E391E0F70174
:1042D0009C01119221503040E1F7FE01E957FD4F5A
:1042E00081E080831EA61DA60E943AE068577C4E9E
:1042F0008F4F9F4FF6016083718382839383DF9199
:10430000CF911F910F91FF90EF90DF90CF90089584
:10431000FC0120E03EE2DB014C91403241F02830CC
:1043200011F430833196DB014C91408331962F5F3D
:104330006F5F7F4F2B3079F7108208952F923F9255
:104340004F925F926F927F928F929F92AF92BF92A5
:10435000CF92DF92EF92FF920F931F93CF93DF9351
:10436000CDB7DEB7C858D1090FB6F894DEBF0FBE7F
:10437000CDBF8C016B017A014901CA57DF4F18820A
:10438000C658D04084E0E80EF11C1801E1E12E0E81
:10439000311C3801F8E76F1AFDEF7F0A580186E7F4
:1043A000A81A8DEFB80A80E4482E512C4C0E5D1EE1
:1043B000E4E04E0E511CA101BE016F5F7F4FC701AB
:1043C0000E94A87018160CF03DC12C85322F387150
:1043D000303109F0A3C0F3018081918101970297E8
:1043E00008F49CC0BE016F5F7F4FCE0187589F4F7E
:1043F0000E948821A0961FAEA097F60180818111AE
:1044000007C06DEB71E0CE01815A9F4F0E94BEED57
:10441000B601CE01815A9F4F0E94BEEDBE01675882
:104420007F4FCE01815A9F4F0E94BEED6DEB71E030
:10443000CE01815A9F4F0E94BEEDCE01805C9F4FFE
:104440000E94FE2021E0AE0147585F4FB701C20134
:104450000E944C74811139C0F30180819181892BB4
:10446000A1F5EAECFAE08491882341F09091C00034
:1044700095FFFCCF8093C6003196F5CFEFEBF1E0CE
:104480008191882339F09091C00095FFFCCF8093F3
:10449000C600F6CF8091C00085FFFCCF8AE08093F4
:1044A000C600FE01E758FF4F8191882339F09091B3
:1044B000C00095FFFCCF8093C600F6CF8091C0006E
:1044C00085FFFCCF8AE08093C6008BE1FE01EC5BA8
:1044D000FF4FDE01959601900D928A95E1F72496A3
:1044E0008EAD9FAD24979CA38BA383E093E09AA30A
:1044F00089A320E030E0AE014F5D5F4FBE01615AFD
:104500007F4FC8010E949E21CE0181960E94082102
:10451000CE01805C9F4F0E9408214DCF8981882366
:1045200009F490C08E3209F446CF8F3509F443CF99
:10453000F80181898E3209F43ECF8F3509F43BCFE3
:1045400023FD39CF81E0303109F080E0F80184A704
:10455000811108C08985873409F02DCF8A858E376F
:1045600009F429CF98012C5F3F4FBE016F5F7F4F49
:10457000C901C957DF4F2883C758D040C857DF4FFC
:104580003883C858D0400E948821F30180819181EE
:10459000C957DF4F2881C758D040C857DF4F3881EF
:1045A000C858D0400097F1F4F6018191882339F082
:1045B0009091C00095FFFCCF8093C600F6CFF90123
:1045C0008191882339F09091C00095FFFCCF8093B2
:1045D000C600F6CF8091C00085FFFCCF8AE08093B3
:1045E000C600E9CE8130910539F4F50180819181D1
:1045F000019691838083DFCE029709F0DCCE81148F
:10460000910439F0B901C4010E94ABED892B71F41A
:1046100019C0CA57DF4FF881C658D0402F2F30E05D
:10462000F501808191812817390761F0CA57DF4F62
:10463000F881C658D040FF5FCA57DF4FF883C6588D
:10464000D040B9CEC857DF4F0FB6F894DEBF0FBECB
:10465000CDBFDF91CF911F910F91FF90EF90DF9031
:10466000CF90BF90AF909F908F907F906F905F9012
:104670004F903F902F900895EF92FF920F931F93CA
:10468000CF93DF93CDB7DEB76F970FB6F894DEBF49
:104690000FBECDBF8C01FC01E857FD4F1182108287
:1046A0007C0183E3E80EF11C40E050E0BA01C70151
:1046B0000E945D718BE1F701DE01159601900D926C
:1046C0008A95E1F7F80181A992A99C838B8383E005
:1046D00093E09A83898320E030E0AE014F5F5F4F23
:1046E0006AE173E0C8010E949E21CE0101960E94FA
:1046F00008216F960FB6F894DEBF0FBECDBFDF91D5
:10470000CF911F910F91FF90EF9008952BE1FB0146
:104710003496DC01149601900D922A95E1F7FB0185
:1047200022813381FC01338322830895EF92FF922B
:104730000F931F93CF93DF93EC011B828EA98823E5
:1047400021F0CE01C3960E9443727E0189E5E81AEA
:104750008EEFF80A4FE160E0C7010E949B6C811167
:104760001FC0EAECFAE08491882341F09091C000E8
:1047700095FFFCCF8093C6003196F5CFE5EFF2E0D0
:104780008491882341F09091C00095FFFCCF8093E5
:10479000C6003196F5CF8091C00085FFFCCF76C072
:1047A0008E0104551E4F41E0B701C8010E94747A82
:1047B000811126C040E0B701C8010E94747A8111BE
:1047C0001FC0E0EDFAE08491882341F09091C00091
:1047D00095FFFCCF8093C6003196F5CFE2EEF2E074
:1047E0008491882341F09091C00095FFFCCF809385
:1047F000C6003196F5CF8091C00085FFFCCF46C042
:10480000B801CE01C3960E94486F81111FC0E0ED30
:10481000FAE08491882341F09091C00095FFFCCF8D
:104820008093C6003196F5CFE2EDF2E084918823C3
:1048300041F09091C00095FFFCCF8093C600319667
:10484000F5CF8091C00085FFFCCF20C081E08B8335
:10485000EAECFAE08491882341F09091C00095FF42
:10486000FCCF8093C6003196F5CFE7ECF2E084915F
:10487000882341F09091C00095FFFCCF8093C60043
:104880003196F5CF8091C00085FFFCCF8AE0809300
:10489000C6008E01015D1F4FB801CE01805B9F4FA6
:1048A0000E948623C25BDF4F19830883DF91CF917B
:1048B0001F910F91FF90EF900895FC0112821382D7
:1048C0000895FC012381222311F021E02283089521
:1048D000FC012281211112820895AF92BF92CF92E2
:1048E000DF92EF92FF920F931F93CF93DF931F926C
:1048F000CDB7DEB78C018FE2FB0181935F01D12C34
:1049000041E07801FBE5EF1AFEEFFF0A9FE1C92EB7
:104910002D2D30E0F7018081918128173907D8F4D7
:10492000C29EC001C39E900D11248D589F4FB501AA
:10493000800F911F49830E94ED6EC50149815C0182
:104940000196F5012081222321F04D3810F44F5FAC
:10495000F6CFD394DDCF47FD11C0B501C801825316
:104960009E4F0F90DF91CF911F910F91FF90EF908D
:10497000DF90CF90BF90AF900C94ED6EF501108258
:104980000F90DF91CF911F910F91FF90EF90DF90EB
:10499000CF90BF90AF9008953F924F925F926F92E9
:1049A0007F928F929F92AF92BF92CF92DF92EF92BF
:1049B000FF920F931F93CF93DF93CDB7DEB7AC97E2
:1049C0000FB6F894DEBF0FBECDBF7C015B01FC01CA
:1049D0008381882309F409C1C70182539E4F0E9435
:1049E0004372F7011282CE0101966C010E94FE20F3
:1049F00027019EE4490E511CC7018F96F201918355
:104A00008083F50180818F3209F084C06FE270E00D
:104A1000C5010E94C9ED8C010F5F1F4F2AE0322EA5
:104A20000115110509F47CC06FE270E0C8010E9415
:104A3000C9ED4C01009709F474C00817190708F074
:104A400070C03C01601A710AA301B801CE018096C2
:104A50000E94F2EDE0E2F0E0EC0FFD1FE60DF71D25
:104A60001082FE01B0968191882339F09091C000A8
:104A700095FFFCCF8093C600F6CF8091C00085FFE4
:104A8000FCCF3092C600F201608171816115710521
:104A900019F06C5F7F4F02C060E070E021E0AE0172
:104AA000405E5F4FCE0105960E944C7481112BC071
:104AB000ECEAF1E08491882341F09091C00095FFE9
:104AC000FCCF8093C6003196F5CFFE01B096819160
:104AD000882339F09091C00095FFFCCF8093C600E9
:104AE000F6CFEAEAF1E08491882341F09091C0008A
:104AF00095FFFCCF8093C6003196F5CF8091C00022
:104B000085FFFCCF6CC0F201D182C08284010F5FAF
:104B10001F4F86CFC701805B9F4FF2019183808337
:104B20008501F20180819181009711F0049602C005
:104B300080E090E0B8010E942C75882339F1ECE9FF
:104B4000F1E08491882341F09091C00095FFFCCF63
:104B50008093C6003196F5CFF8018191882339F012
:104B60009091C00095FFFCCF8093C600F6CF809156
:104B7000C00085FFFCCF8AE08093C600F701ED57A7
:104B8000FD4F10821182128213822CC0E4E8F1E002
:104B90008491882341F09091C00095FFFCCF8093D1
:104BA000C6003196F5CFF8018191882339F09091B4
:104BB000C00095FFFCCF8093C600F6CFE2E8F1E09D
:104BC0008491882341F09091C00095FFFCCF8093A1
:104BD000C6003196F5CF8091C00085FFFCCF8AE0FA
:104BE0008093C600C6010E940821AC960FB6F894C7
:104BF000DEBF0FBECDBFDF91CF911F910F91FF9010
:104C0000EF90DF90CF90BF90AF909F908F907F906C
:104C10006F905F904F903F900895CF93DF93EC019A
:104C20008B818823C1F1E0E7F1E08491882341F092
:104C30009091C00095FFFCCF8093C6003196F5CFD0
:104C4000FE01ED57FD4F40815181628173812AE061
:104C500030E08CE993E00E945535EEE6F1E0849176
:104C6000882341F09091C00095FFFCCF8093C6004F
:104C70003196F5CFC558DD4F488159816A817B81D6
:104C80002AE030E08CE993E00E9455358091C00025
:104C900085FFFCCF11C0EEE5F1E08491882341F05F
:104CA0009091C00095FFFCCF8093C6003196F5CF60
:104CB0008091C00085FFFCCF8AE08093C600DF9121
:104CC000CF910895AF92BF92CF92DF92EF92FF9271
:104CD0000F931F93CF93DF935C01EB01FB010190D6
:104CE0000020E9F78F0101501109061B170B6C0119
:104CF000F2E3CF1AFEEFDF0AF60110826EE470E0F5
:104D0000CE010E94C9ED7C01009729F4F80131978A
:104D1000EC0FFD1F0DC060E270E00E94C9EDEC01D8
:104D200021966AE270E0C7010E94C9EDFC0131974B
:104D30008DE081838AE082831382BE01C5018653A0
:104D40009E4F0E941277F6018081882309F1E0EDE1
:104D5000FAE08491882341F09091C00095FFFCCF48
:104D60008093C6003196F5CFE8E4F1E08491882382
:104D700041F09091C00095FFFCCF8093C600319622
:104D8000F5CF8091C00085FFFCCF8AE08093C600FC
:104D9000DF91CF911F910F91FF90EF90DF90CF9017
:104DA000BF90AF9008952F923F924F925F926F9273
:104DB0007F928F929F92AF92BF92CF92DF92EF92AB
:104DC000FF920F931F93CF93DF93CDB7DEB7CC55F0
:104DD000D1090FB6F894DEBF0FBECDBF8C01895745
:104DE0009D4F5C01662339F0F5011082F801838143
:104DF00081111EC015C0FC018081882309F4AEC05A
:104E0000F801E158FD4FC080D180E280F3800E941C
:104E10003AE0C616D706E806F90608F49FC0E4CFC4
:104E2000C8010E949623F8018381882309F496C063
:104E3000F80186A58F9385A58F938FE391E09F93CB
:104E40008F937E01FFE3EF0EF11CFF92EF920E9421
:104E500001EE0F900F900F900F900F900F90B12CCC
:104E6000F70101900020E9F73197EE19FF09BE160E
:104E700084F46701CB0CD11CB7FCDA94F601808175
:104E8000992787FD90950E9435EDF6018083B394B4
:104E9000E7CF4801F3E38F0E911C40E050E0BA01E8
:104EA000C4010E945D71512CCE0101966C0138E362
:104EB000632E31E0732E5E0191E2A90EB11C40E039
:104EC00050E0B601C4010E94A8701816DCF5412C10
:104ED000F60101900020E9F73197EC19FD094E1613
:104EE00074F41601240C311C47FC3A94F1018081C2
:104EF00090E00E9435EDF10180834394E9CF8A85EB
:104F00008E37E9F245E050E0B701C6010E94E4EDBA
:104F1000892BA9F6FF92EF927F926F92BF92AF9288
:104F20000E9401EEC5010E94A73784E391E00E9430
:104F30001A380F900F900F900F900F900F905524EC
:104F40005394BDCF511004C08FEF9FEFF80104C000
:104F5000F80185A596A5019696A785A7C45ADF4FA7
:104F60000FB6F894DEBF0FBECDBFDF91CF911F917A
:104F70000F91FF90EF90DF90CF90BF90AF909F90F8
:104F80008F907F906F905F904F903F902F900895FB
:104F90000F931F93CF93DF93EC018C0102531E4FAD
:104FA000C8010E94F771C8010E94437218821982D9
:104FB000DF91CF911F910F910895CF92DF92EF92E1
:104FC000FF920F931F93CF93DF93CDB7DEB76F9709
:104FD0000FB6F894DEBF0FBECDBF8C016A017C0115
:104FE0008EE4E80EF11CC801805B9F4FF7019183AE
:104FF0008083E65CFD4F22E030E0318320833296EF
:105000007183608340E050E0BA0104960E945D71B4
:10501000F701808191812BE1FC013496DE01159628
:1050200001900D922A95E1F7FC01828193819C8386
:105030008B8383E093E09A8389839601AE014F5F6F
:105040005F4F6AE173E0C8010E949E21CE01019684
:105050000E9408216F960FB6F894DEBF0FBECDBF39
:10506000DF91CF911F910F91FF90EF90DF90CF9044
:1050700008952F923F924F925F926F927F928F92FC
:105080009F92AF92BF92CF92DF92EF92FF920F93D7
:105090001F93CF93DF93CDB7DEB7AC970FB6F894DD
:1050A000DEBF0FBECDBF8C016B01342EFC018381AE
:1050B000882309F4E6C2EF52FE4F8081882309F469
:1050C000F9C02111C5C07801F7E1EF1AFEEFFF0A20
:1050D000F7018081882361F1E0EDFAE08491882373
:1050E00041F09091C00095FFFCCF8093C6003196AF
:1050F000F5CFE4E8F2E08491882341F09091C0007C
:1051000095FFFCCF8093C6003196F5CF4AE050E082
:1051100061E070E08CE993E00E9426358091C00048
:1051200085FFFCCF8AE08093C6000E94C43CA9C2E0
:10513000EAECFAE08491882341F09091C00095FF59
:10514000FCCF8093C6003196F5CFEBE6F2E0849178
:10515000882341F09091C00095FFFCCF8093C6005A
:105160003196F5CFF6018191882339F09091C000F6
:1051700095FFFCCF8093C600F6CFE0E6F2E0849185
:10518000882341F09091C00095FFFCCF8093C6002A
:105190003196F5CFF70180815DE8B52EB801B89E54
:1051A000600D711D112462517E4FC8010E946D2453
:1051B000F7018081F801B89EE00DF11D1124E25144
:1051C000FE4F8191882339F09091C00095FFFCCF6C
:1051D0008093C600F6CFEAE5F2E08491882341F09F
:1051E0009091C00095FFFCCF8093C6003196F5CF1B
:1051F0005801FDE7AF1AFDEFBF0AF501408151816B
:10520000628173812AE030E08CE993E00E94553599
:105210008091C00085FFFCCF8AE08093C600F70133
:105220002081F80184E0289FE00DF11D1124AF01D9
:1052300046515E4FF50180819181A281B381FA01CF
:1052400080839183A283B3832F5FF70120832CC0D7
:10525000EAECFAE08491882341F09091C00095FF38
:10526000FCCF8093C6003196F5CFE9E4F2E084915B
:10527000882341F09091C00095FFFCCF8093C60039
:105280003196F5CFF6018191882339F09091C000D5
:1052900095FFFCCF8093C600F6CF8091C00085FFBC
:1052A000FCCF8AE08093C600C80182539E4F0E94C3
:1052B000437230C0F801E751FE4F1082EAECFAE089
:1052C0008491882341F09091C00095FFFCCF80939A
:1052D000C6003196F5CFE8E3F2E08491882341F0EF
:1052E0009091C00095FFFCCF8093C6003196F5CF1A
:1052F000F6018191882339F09091C00095FFFCCF91
:105300008093C600F6CF8091C00085FFFCCF8AE075
:105310008093C600F8011282CE0101965C010E94C2
:10532000FE2028019EE4490E511CC8018F96F2010F
:1053300091838083F60180818F3209F084C06FE20F
:1053400070E0C6010E94C9ED01967C014AE0242E5E
:10535000E114F10409F47DC06FE270E0C7010E941E
:10536000C9ED4C01009709F475C0E816F90608F07C
:1053700071C03C016E187F08A301B701CE01809671
:105380000E94F2EDE0E2F0E0EC0FFD1FE60DF71DEC
:105390001082FE01B0968191882339F09091C0006F
:1053A00095FFFCCF8093C600F6CF8091C00085FFAB
:1053B000FCCF2092C600F2016081718161157105F8
:1053C00019F06C5F7F4F02C060E070E021E0AE0139
:1053D000405E5F4FCE0105960E944C7481112BC038
:1053E000E4E2F2E08491882341F09091C00095FFBF
:1053F000FCCF8093C6003196F5CFFE01B096819127
:10540000882339F09091C00095FFFCCF8093C600AF
:10541000F6CFE2E2F2E08491882341F09091C0005F
:1054200095FFFCCF8093C6003196F5CF8091C000E8
:1054300085FFFCCFFAC0F201B182A0827401FFEFB8
:10544000EF1AFF0A85CFC801805B9F4FF20191835D
:1054500080837601C80182539E4F4C01F201608126
:105460007181332009F4A9C06115710519F06C5FD1
:105470007F4F02C060E070E021E0A701C4010E94FC
:105480004C74882309F46FC0F40181899289A3893F
:10549000B489F801E558FD4F80839183A283B383DB
:1054A000E4E1F2E08491D801A558BD4F882349F08A
:1054B0009091C00095FFFCCF8093C60031968491F7
:1054C000F5CFF7018191882339F09091C00095FFC5
:1054D000FCCF8093C600F6CFECE0F2E08491882305
:1054E00041F09091C00095FFFCCF8093C6003196AB
:1054F000F5CF4D915D916D917C912AE030E08CE982
:1055000093E00E9455358091C00085FFFCCF8AE072
:105510008093C600F801ED57FD4F10821182128270
:105520001382EEEFF1E08491882341F09091C00066
:1055300095FFFCCF8093C6003196F5CF8091C000D7
:1055400085FFFCCF8AE08093C600A70160E070E091
:10555000C8010E94DD27F8018189882309F48BC0E6
:10556000C801419689C0EAEEF1E08491882341F0B8
:105570009091C00095FFFCCF8093C6003196F5CF87
:10558000F7018191882339F09091C00095FFFCCFFD
:105590008093C600F6CFE8EEF1E08491882341F0D5
:1055A0009091C00095FFFCCF8093C6003196F5CF57
:1055B0008091C00085FFFCCF38C06115710519F0DE
:1055C0006C5F7F4F02C060E070E026E5A701C40178
:1055D0000E944C7481112DC0E4EDF1E08491882388
:1055E00041F09091C00095FFFCCF8093C6003196AA
:1055F000F5CFF7018191882339F09091C00095FF94
:10560000FCCF8093C600F6CFE2EDF1E084918823D1
:1056100041F09091C00095FFFCCF8093C600319679
:10562000F5CF8091C00085FFFCCF8AE08093C60053
:1056300025C081E0F8018083E0ECF1E084918823CB
:1056400041F09091C00095FFFCCF8093C600319649
:10565000F5CFF6018191882339F09091C00095FF34
:10566000FCCF8093C600F6CF8091C00085FFFCCFB1
:105670008AE08093C600C7010E94FEA5C5010E9472
:105680000821AC960FB6F894DEBF0FBECDBFDF91F8
:10569000CF911F910F91FF90EF90DF90CF90BF902F
:1056A000AF909F908F907F906F905F904F903F90C2
:1056B0002F90089521E0FC01218340E00C943928CB
:1056C000CF92DF92EF92FF920F931F93CF93DF93CE
:1056D000CDB7DEB76F970FB6F894DEBF0FBECDBF64
:1056E0008C016C012EE4C20ED11C805B9F4FF60131
:1056F00091838083E65CFD4F21E030E0318320839D
:105700007801F6E7EF1AFDEFFF0AF7011182108228
:1057100040E050E0BA0104960E945D71F60180817C
:1057200091812BE1FC013496DE01159601900D92DA
:105730002A95E1F7FC01828193819C838B8383E02E
:1057400093E09A83898320E030E0AE014F5F5F4FA2
:105750006AE173E0C8010E949E21CE0101960E9479
:105760000821F701808191816F960FB6F894DEBF12
:105770000FBECDBFDF91CF911F910F91FF90EF90A2
:10578000DF90CF900895AF92BF92CF92DF92EF92C9
:10579000FF920F931F93CF93DF93CDB7DEB76F9731
:1057A0000FB6F894DEBF0FBECDBF8C017B01CE01DA
:1057B00001960E94FE20F801E95AFF4F808168019E
:1057C000811104C02FE2C20ED11C03C080E5C80EB7
:1057D000D11C21E0A701B6016C5F7F4FCE01059679
:1057E0000E944C7481112DC0EAECFAE08491882368
:1057F00041F09091C00095FFFCCF8093C600319698
:10580000F5CFEEE1F1E08491882341F09091C00062
:1058100095FFFCCF8093C6003196F5CFF7018191BB
:10582000882339F09091C00095FFFCCF8093C6008B
:10583000F6CF8091C00085FFFCCF8AE08093C60040
:1058400036C0F801EB55FE4F808191818A30910579
:1058500030F59C012F5F3F4F318320832FE1289F3C
:105860007001299FF00C11242FE6E20EF11CE00ECE
:10587000F11E5C01B701C7014F960E94862381E0AB
:10588000A81AB1082FE1E21AF1088FEFA816B8069E
:1058900089F7B601C80181599F4F0E948623BE0136
:1058A0006F5F7F4FC801805B9F4F0E948623CE01B0
:1058B00001960E9408216F960FB6F894DEBF0FBEC6
:1058C000CDBFDF91CF911F910F91FF90EF90DF90AF
:1058D000CF90BF90AF900895EF92FF920F931F93D8
:1058E000CF93DF93EC01CB55DE4F28813981211511
:1058F0003105F9F021503109398328838C01015990
:105900001F4FB801805B9F4F0E948623C80100E0B3
:1059100010E07C012FE1E20EF11C28813981021791
:10592000130738F40F5F1F4FB7010E948623C7018A
:10593000F0CFDF91CF911F910F91FF90EF900895DD
:10594000EF92FF920F931F93CF93DF93EC010E948E
:1059500010838E0107511E4FF80180819E01225352
:105960003E4F79018823A9F1C9010E944372F801D1
:10597000808181508083BE01FDE88F9F600D711D85
:10598000112462517E4F21E041E0CE010E9439286E
:10599000F8018081FE0124E0829FE00DF11D1124B9
:1059A000E651FE4F4081518162817381FE01ED57C6
:1059B000FD4F4083518362837383C7010E945D71F1
:1059C000CE01DF91CF911F910F91FF90EF900C943A
:1059D00061240E948783C7010E9443721A8282E178
:1059E00091E00E941A388091970D8823F9F0109267
:1059F000970DC091F905D0E0CC0FDD1FC054DF4EEC
:105A000068817981882777FD8095982F0E94EAE642
:105A1000209143013091440140914501509146014C
:105A20000E944BE8181614F419821882DF91CF9166
:105A30001F910F91FF90EF900895EF92FF920F93B7
:105A40001F93CF93DF931F92CDB7DEB78C017B01FD
:105A5000460FF70161917F01F801808191814983AF
:105A60000E9433F0F80180819181019691838083B7
:105A700049814E11EECF0F90DF91CF911F910F9181
:105A8000FF90EF900895EF92FF920F931F93CF93A3
:105A9000DF931F92CDB7DEB78C017B01460FF80173
:105AA0008081918149830E942BF0F70181937F01CE
:105AB000F8018081918101969183808349814E1103
:105AC000EECF0F90DF91CF911F910F91FF90EF904C
:105AD00008950F931F93CF93DF93CDB7DEB72A9727
