:100000000C9452180C947C180C947C180C947C184A
:100010000C947C180C947C180C947C180C947C1810
:100020000C947C180C947C180C947C180C947C1800
:100030000C947C180C9485550C947C180C947C18AA
:100040000C947C180C941B4E0C9481660C947C18B8
:100050000C9496420C947C180C947C180C947C188C
:100060000C947C180C947C180C947C180C947C18C0
:100070000C947C180C947C180C947C180C947C18B0
:100080000C947C180C947C180C947C186C4E7B4E51
:100090009A4EA94EC44EC94ECC4ED14ED44ED94ED6
:1000A000DC4EE14EEB4EF065F565FA6504663266AE
:1000B00032660E6616661E6628661A8F1D8F108FB2
:1000C000148F348F348F218F258F2B8F2F8F084AD9
:1000D000D73B3BCE016E84BCBFFDC12F3D6C74315C
:1000E0009ABD56833DDA3D00C77F11BED9E4BB4CB3
:1000F0003E916BAAAABE000000803F05A84CCDB27D
:10010000D44EB93836A9020C50B9918688083CA65D
:10011000AAAA2ABE000000803F00434F4D4D554E15
:1001200049434154494F4E0044525952554E00459F
:1001300052524F525300494E464F004543484F00DC
:1001400020746F6F206C6F6E6720657874727573A2
:10015000696F6E2070726576656E7465640A002042
:10016000636F6C6420657874727573696F6E20704C
:10017000726576656E7465640A0047322F473320D6
:1001800062616420706172616D65746572730A00EA
:10019000536C6565702E2E2E005A2070726F62654A
:1001A000206F75742E206265640A005A2070726F89
:1001B0006265206F75742E206265640047323820B6
:1001C0005A20466F7262696464656E0A004732386D
:1001D000205A20466F7262696464656E004D616CDE
:1001E00079616E204D3135302072656164792E0061
:1001F000526573756D696E67207072696E74005711
:1002000061697420666F7220757365722E2E2E00E0
:100210004E6F206D6F76652E00456E642066696CAA
:1002200065206C6973740A00426567696E206669AF
:100230006C65206C6973740A005344207072696E97
:1002400074696E67206279746520004E6F74205364
:1002500044207072696E74696E670A0046696C6545
:100260002064656C657465643A0044656C65746906
:100270006F6E206661696C65642C2046696C653A16
:1002800020006F70656E206661696C65642C204685
:10029000696C653A20002569730025696D20256920
:1002A00073002569682025696D202569730025691B
:1002B00064202569682025696D20256973002569FA
:1002C0007920256964202569682025696D202569C4
:1002D00073005072696E742074696D653A20005025
:1002E000726F7465637465642050696E0A004865B6
:1002F0006174696E672E2E2E004D616C79616E20DF
:100300004D3135302072656164792E003B01360134
:100310002F0128011A016F66660044454255473A8D
:10032000004B494C4C45442E20004D313133205375
:10033000006F6B0042656420646F6E652E003F0A9B
:100340000020573A004265642048656174696E6711
:100350002E007A5F6D696E3A2000795F6D696E3AA2
:100360002000785F6D696E3A20005265706F72747C
:10037000696E6720656E6473746F70207374617446
:1003800075730A004D31343520533C696E646578CD
:100390003E206F7574206F662072616E676520283D
:1003A000302D31290A0053657474696E67205472C8
:1003B0006176656C20416363656C65726174696F19
:1003C0006E3A200053657474696E672052657472CA
:1003D00061637420416363656C65726174696F6EFB
:1003E0003A200053657474696E67205072696E74A8
:1003F00020416363656C65726174696F6E3A2000B9
:1004000053657474696E67205072696E7420616EF2
:10041000642054726176656C20416363656C65721B
:100420006174696F6E3A2000205A0020590058000C
:1004300020204D61783A2000205A002059005800B1
:1004400020204D696E3A20004F6E20004F666600F6
:10045000536F667420656E6473746F70733A200016
:1004600020643A0020693A0020703A0043290A00CB
:1004700061626C656420286D696E2074656D702002
:1004800000436F6C642065787472756465732061D5
:100490007265200023646566696E652020444546C8
:1004A00041554C545F4B64200023646566696E655A
:1004B000202044454641554C545F4B69200023643D
:1004C0006566696E65202044454641554C545F4B36
:1004D000702000504944204175746F74756E65201A
:1004E00066696E697368656421205075742074684C
:1004F00065206C617374204B702C204B6920616EF9
:1005000064204B6420636F6E7374616E7473206635
:10051000726F6D2062656C6F7720696E746F204317
:100520006F6E66696775726174696F6E2E680A0016
:10053000504944204175746F74756E652066616919
:100540006C6564212074696D656F75740A0050498B
:1005500044204175746F74756E65206661696C65C1
:1005600064212054656D70657261747572652074C4
:100570006F6F20686967680A00204B643A2000208A
:100580004B693A2000204B703A20000A20436C61EE
:100590007373696320504944200A002054753A203F
:1005A00000204B753A2000206D61783A2000206DC4
:1005B000696E3A200020643A200020626961733A33
:1005C00020004F666673657473206170706C696596
:1005D00064004572723A20546F6F20666172210088
:1005E000546F6F206661722066726F6D207265664F
:1005F0006572656E636520706F696E740A004E6F78
:100600002063617365206C696768740A00416374D4
:100610006976652045787472756465723A20005574
:100620006E6B6E6F776E20636F6D6D616E643A20D6
:1006300022004E6F204C696E65204E756D626572AA
:10064000207769746820636865636B73756D2C200F
:100650004C617374204C696E653A20004B494C4CD8
:1006600045442E200053544F505045442E200050F6
:1006700072696E7465722073746F70706564206443
:10068000756520746F206572726F72732E204669D3
:100690007820746865206572726F7220616E6420C4
:1006A000757365204D39393920746F207265737404
:1006B0006172742E202854656D7065726174757254
:1006C000652069732072657365742E2053657420EC
:1006D00069742061667465722072657374617274E6
:1006E000696E67290A004E6F20436865636B7375F6
:1006F0006D2077697468206C696E65206E756D6217
:1007000065722C204C617374204C696E653A200030
:10071000636865636B73756D206D69736D61746378
:10072000682C204C617374204C696E653A20004C33
:10073000696E65204E756D626572206973206E6FFB
:1007400074204C617374204C696E65204E756D6227
:1007500065722B312C204C617374204C696E653AA4
:1007600020004D313130004D3331004D38342058A8
:100770002059205A20450053442072656164206549
:1007800072726F720A00446F6E65207072696E74C7
:10079000696E672066696C650A0020496E76616C37
:1007A0006964206578747275646572200000004881
:1007B00043000048430000344300000000000000F4
:1007C00000000000002042403A0020403A00202F64
:1007D0000020423A00202F0020543A0048656174FE
:1007E000696E6720646F6E652E003F0A0020573ADD
:1007F0000048656174696E672E2E2E004D616C791C
:10080000616E204D3135302072656164792E004D66
:10081000616C79616E204D313530204F66662E0057
:10082000205A3A0020593A0020436F756E742058C0
:100830003A200020453A00205A3A0020593A005800
:100840003A004649524D574152455F4E414D453A57
:100850004D61726C696E20312E312E302D5243382D
:10086000204275674669782036204465632032301F
:10087000313620284769746875622920534F5552D4
:1008800043455F434F44455F55524C3A687474701A
:10089000733A2F2F6769746875622E636F6D2F4DE1
:1008A00061726C696E4669726D776172652F4D6118
:1008B000726C696E2050524F544F434F4C5F5645F7
:1008C0005253494F4E3A312E30204D414348494E04
:1008D000455F545950453A4D616C79616E204D31F8
:1008E00035302045585452554445525F434F554E7C
:1008F000543A3120555549443A6365646532613252
:10090000662D343161322D343734382D396231322D
:100910002D6335356336326633363766660A002511
:10092000753A2530327500253032753A25303275EA
:100930000025756420253032753A25303275005A0D
:1009400000590058000920000000000000000000CD
:10095000000000007FFFE000000000000000000039
:100960000000007000E00000000000000000000037
:10097000000061F8600000000000000000000000BE
:100980000041F8200000000000000000000000000E
:1009900040F02000000000000000000000000040C7
:1009A000602000000000000000000000000058016E
:1009B000A07F80000000000000004104005C63A0F4
:1009C000FFC0000000000000002082005EF7A0FFD2
:1009D000C0000000000000002082005EF7A0FFC001
:1009E000000000000000004104005C63A07F800064
:1009F0000000000000008208005801A07F80000075
:100A00000000000001041000406020FFC000000052
:100A10000000000104100040F020FFC000000000B2
:100A200000000082080041F820FFC0000000000024
:100A3000000041040061F8603F0000000000000079
:100A4000000000007000E01E000000000000000137
:100A5000FFFF807FFFE00C0000000000000001FFAE
:100A6000FF80000000000000000000000000000007
:100A7000007FFFE000000000000000000000000018
:100A80007000E000000000000000000000000063B3
:100A90000C60000000000000000000000000470E95
:100AA000200000000000000000000000004F0F20A8
:100AB0000000000000000000000000005F0FA00028
:100AC00000000000000000000000005E07A07F8022
:100AD00000000000000000410400406020FFC00052
:100AE00000000000000020820040F020FFC0000055
:100AF000000000000020820040F020FFC000000045
:100B0000000000004104004060207F8000000000E1
:100B10000000008208005E07A07F80000000000047
:100B200000010410005F0FA0FFC0000000000000E3
:100B3000010410004F0F20FFC00000000000000063
:100B4000820800470E20FFC00000000000000041A6
:100B50000400630C603F0000000000000000000083
:100B6000007000E01E0000000000000001FFFF8098
:100B70007FFFE00C0000000000000001FFFF80008C
:100B80000000496E69742E20534420636172640032
:100B90004E6F2053442063617264004D3231004334
:100BA00068616E676520534420636172640050720F
:100BB000696E742066726F6D205344004D323100AF
:100BC00053746F70207072696E7400526573756D26
:100BD00065207072696E7400506175736520707263
:100BE000696E7400436F6E74726F6C005072657042
:100BF0006172650054756E6500496E666F2073639F
:100C00007265656E0000060900FE0000000000012C
:100C1000090008FE000005080806000040F0C8882A
:100C200088987810050808060000C0F88888888829
:100C300088F80505050600012030F8302005080871
:100C40000600002070F820202020E0050909060099
:100C5000FF2070A8A8B8888870200509090600FF41
:100C6000E080C0B0A8283028280509090600FFF850
:100C7000A88888888888A8F8050A0A0600FE2050F7
:100C800050505088A8A8887003030306000340A0B2
:100C900040544845524D414C2052554E41574159C0
:100CA00000546865726D616C2052756E6177617970
:100CB000004572723A204D415854454D50204245EE
:100CC00044004572723A204D415854454D50004DF4
:100CD000415854454D502074726967676572656468
:100CE000004572723A204D494E54454D50204245C0
:100CF00044004572723A204D494E54454D50004DC6
:100D0000494E54454D502074726967676572656439
:100D100000000000000000000000000000000000D3
:100D200000000000000000000000000000000000C3
:100D300000000000000000000000000000000000B3
:100D400000000000000000000000000000000000A3
:100D50000000000000000000000000000000000093
:100D60000000000000000000000000000000000083
:100D70000000000000000000000000000000000073
:100D80000000000000000000000000000000000063
:100D90000000000000000000000000000000000053
:100DA0000000000000000000000000000000000043
:100DB0000000000000000000000000000000000033
:100DC0000000000000000000000000000000000023
:100DD0000000000000000000000000000000000013
:100DE0000000000000000000000000000000000003
:100DF00000000000000000000000000000000000F3
:100E000000000000000000000000000000000000E2
:100E100000000000000000000000000000000000D2
:100E20000007000003800000000000000000000038
:100E3000001FC0000FE07C03E0781C0781E0F03E5B
:100E40000E7FE0003FF07E07E0FC1C0381C1F83F0D
:100E50000E7FF8007FF07E07E0FC1C03C3C1F83F63
:100E60000E7BFE01FEF07F0FE1FE1C01C383FC3F01
:100E70008E7CFF87F9F0770EE1FE1C01E783FC3BD7
:100E80008E7F7FCFF7F0779EE1CE1C00E7039C3B7F
:100E9000CE7F9FFFCFF0739CE3CF1C00FF079E39EE
:100EA000CE7FE7FF3FF073FCE3871C007E070E391F
:100EB000EE7FFBFEFFF071F8E3871C007E0F0F381A
:100EC000EE7FFCF9FFF071F8E7FF9C003C0FFF3864
:100ED000FE7FFF27FFF070F0E7FF9C003C0FFF381C
:100EE0007E7FFFDFFFF070F0EFFFDC003C1FFFB8FC
:100EF0007E7FDFFFDFF07060EF03DFF83C1E07B896
:100F00003E7FC7FF1FF07060EE01DFF83C1C03B8A6
:100F10003E7FC3FE1FF07000EE01DFF83C1C03B8FB
:100F20001E7FC3FE1FF00000000000000000000054
:100F3000007FC3DE1FF07FFFFFFFFFFFFFFFFFFF0C
:100F4000FE7FC3DE1FF07FFFFFFFFFFFFFFFFFFFFE
:100F5000FE7FC3DE1FF07C3FFAFBFFFFFFFD7ABF81
:100F6000FE7FC3DE1FF07D9FFBFFFFFFFFFF7EF7CD
:100F7000FE7FC3DE1FF07D931A8A18E38C451AA208
:100F8000DE3FC3DE0FF07C2DCACAD6E924CD6AB697
:100F9000BE1F83DE07E07DA36A9AD6E926656AB69E
:100FA0003E0603DE01807D910A8AD8E38C451AB3A0
:100FB0007E0003DE00007FFFFFFFFEEFFFFFFFFF6D
:100FC0007E0003DE00007FFFFFFFF1EFFFFFFFFE6B
:100FD000FE0003DE00007FFFFFFFFFFFFFFFFFFFBC
:100FE000FE0003DE00007FFFFFFFFFFFFFFFFFFFAC
:100FF000FE0003DE00000000000000000000000012
:10100000000001DC00000000000000000000000003
:101010000000005000000000000000000000000080
:1010200000000000000000000000000000000000C0
:1010300000000000000000000000000000000000B0
:1010400000000000000000000000000000000000A0
:101050000000000000000000000000000000000090
:101060000000000000000000000000000000000080
:101070000000000000000000000000000000000070
:101080000000000000000000000000000000000060
:101090000000000000000000000000000000000050
:1010A0000000000000000000000000000000000040
:1010B0000000000000000000000000000000000030
:1010C0000000000000000000000000000000000020
:1010D0000000000000000000000000000000000010
:1010E0000000000000000000000000000000000000
:1010F00000000000000000000000000000000000F0
:1011000000000000000000000000000000000000DF
:101110000024F4D43050C38E20C2A24017828B70BA
:1011200011127A910D816CD90AA861E108C758663D
:1011300007615143061E4B5D05C145A7041A4111C5
:1011400004093D9803713931034036DB0265339160
:1011500002D4305402802E1D02632CEE01752AC584
:1011600001B028A001102781018F2564012B244B99
:1011700001E0223401AC211F018D200D01801FFCF4
:1011800000841EED00971DDF00B81CD200E61BC6D0
:1011900000201BBC00641AB200B219A8000A19A0F2
:1011A000006A189900D117910040178B00B516847A
:1011B0000031167E00B31579003A157300C7146F1D
:1011C0000058146A00EE1366008813630025135E4E
:1011D00000C7125B006C12570015125400C1115168
:1011E0000070114F0021114B00D61049008D10479F
:1011F000004610440002104200C00F4000800F3E25
:1012000000420F3C00060F3B00CB0E3800930E3718
:10121000005C0E3500270E3400F30D3200C10D3195
:1012200000900D3000600D2E00320D2D00050D2CAC
:1012300000D90C2B00AE0C2900850C29005C0C2772
:1012400000350C27000E0C2600E80B2400C40B24EC
:1012500000A00B23007D0B23005A0B2100390B212A
:1012600000180B2000F80A1F00D90A1E00BB0A1E36
:10127000009D0A1D00800A1D00630A1C00470A1B0E
:10128000002C0A1B00110A1A00F7091A00DD0919BF
:1012900000C4091900AB091900920917007B09184D
:1012A00000630917004C09160036091600200916BC
:1012B000000A091500F5081500E0081400CC081410
:1012C00000B8081400A4081400900813007D081248
:1012D000006B081300580812004608120034081169
:1012E00000230811001208110001081100F0071076
:1012F00000E0071000D0071000C0071000B0070F73
:1013000000A107100091070E0083070F0074070F5C
:101310000065070E0057070E0049070E003B070D3A
:10132000002E070E0020070D0013070D0006070D05
:1013300000F9060C00ED060D00E0060C00D4060CCA
:1013400000C8060C00BC060C00B0060C00A4060B7E
:101350000099060C008D060B0082060B0077060B29
:10136000006C060B0061060A0057060B004C060ACB
:101370000042060A0038060A002E060A0024060A61
:10138000001A060A001006090007060A00FD0509F2
:1013900000F4050900EB050900E2050900D905097B
:1013A00000D0050900C7050900BE050900B50508FC
:1013B00000AD050800A50509009C05080094050876
:1013C000008C050800840508007C050800740508E9
:1013D000006C050700650508005D05070056050857
:1013E000004E0507004705070040050800380507BF
:1013F00000310507002A050700230507001C050624
:1014000000160507000F050700080506000205077E
:1014100000FB040600F5040700EE040600E80406DD
:1014200000E2040700DB040600D5040600CF040632
:1014300000C9040600C3040600BD040600B7040684
:1014400000B1040500AC040600A6040600A00405D3
:10145000009B04060095040500900406008A04051C
:101460000085040500800406007A04050075040563
:1014700000700405006B04050066040500610405A6
:10148000005C04050057040500520405004D0405E6
:101490000048040500430405003E0404003A040526
:1014A0000035040500300404002C04050027040462
:1014B00000230405001E0404001A04040016040599
:1014C00000110404000D04040009040500040404D0
:1014D0000000040400FC030400F8030400F4030407
:1014E00000F0030400EC030400E8030400E4030438
:1014F00000E0030400DC030400D8030400D4030468
:1015000000D0030400CC030400C8030300C5030398
:101510000024F404D9201BC40C5C0E9804C4095F99
:101520000265077101F405F900FB04B30048048764
:1015300000C10369005803550003034500BE023A89
:10154000008402310053022A0029022500040220EF
:1015500000E4011C00C8011900AF01170098011434
:101560000084011300710110006101100051010E8F
:101570000043010D0036010B002B010B0020010B75
:1015800000150109000C01090003010800FB000817
:1015900000F3000800EB000700E4000600DE000690
:1015A00000D8000600D2000600CC000500C70005E8
:1015B00000C2000500BD000400B9000400B500042D
:1015C00000B1000400AD000400A9000400A5000360
:1015D00000A20003009F0004009B0003009800038A
:1015E000009500020093000300900003008D0002AC
:1015F000008B0003008800020086000200840003C4
:1016000000810002007F0002007D0002007B0002DA
:1016100000790002007700010076000200740002E9
:101620000072000100710002006F0002006D0001F5
:10163000006C0002006A00010069000200670001FE
:101640000066000100650001006400020062000104
:101650000061000100600001005F0002005D000108
:10166000005C0001005B0001005A0001005900010C
:10167000005800010057000100560001005500010C
:10168000005400010053000000530001005200010B
:101690000051000100500001004F0001004E000009
:1016A000004E0001004D0001004C0001004B000005
:1016B000004B0001004A0001004900010048000001
:1016C00000480001004700010046000000460001FC
:1016D00000450000004500010044000100430000F7
:1016E00000430001004200000042000100410000F0
:1016F0000041000100400001003F0000003F0001E8
:10170000003E0000003E0001003D0000003D0001E1
:10171000003C0000003C0000003C0001003B0000D9
:10172000003B0001003A0000003A000100390000CF
:1017300000390001003800000038000000380001C6
:1017400000370000003700010036000000360000BE
:1017500000360001003500000035000000350001B2
:1017600000340000003400000034000100330000A9
:10177000003300000033000100320000003200009E
:101780000032000100310000003100000031000192
:10179000003000000030000000300001002F000089
:1017A000002F0000002F0000002F0001002E00007D
:1017B000002E0000002E0001002D0000002D000072
:1017C000002D0000002D0001002C0000002C000066
:1017D000002C0000002C0001002B0000002B00005A
:1017E000002B0000002B0001002A0000002A00004E
:1017F000002A0000002A0001002900000029000042
:101800000029000000290000002900010028000034
:101810000028000000280000002800000028000127
:10182000002700000027000000270000002700001C
:10183000002700010026000000260000002600000E
:101840000026000000260001002500000025000001
:1018500000250000002500000025000000250001F3
:1018600000240000002400000024000000240000E8
:1018700000240001002300000023000000230000DA
:1018800000230000002300000023000000230001CB
:1018900000220000002200000022000000220000C0
:1018A00000220000002200010021000000210000B1
:1018B00000210000002100000021000000210000A4
:1018C0000021000100200000002000000020000096
:1018D0000020000000200000002000000020000088
:1018E00000200001001F0000001F0000001F00007A
:1018F000001F0000001F0000001F0000001F00016B
:10190000001E0000001E0000001E0000001E00005F
:10191000004D383420582059205A20450062656413
:101920000A002C2073797374656D2073746F707066
:10193000656421204865617465725F49443A2000FE
:1019400048656174696E67206661696C656400480A
:10195000656174696E67206661696C6564004865DD
:101960006174696E67206661696C656400486561D1
:1019700074696E67206661696C656400466C6F7798
:1019800000466C6F770046616E2073706565640079
:1019900046616E207370656564004265640042654F
:1019A00064004E6F7A7A6C65004E6F7A7A6C6500CF
:1019B0005370656564005370656564004D61696EC0
:1019C000005072656865617420504C412042656426
:1019D000005072656865617420504C41005072651A
:1019E0007061726500507265686561742041425390
:1019F00020426564005072656865617420414253FD
:101A00000050726570617265004D34323800436F6A
:101A10006F6C646F776E0050726568656174204109
:101A20004253005072656865617420504C41004D0E
:101A300038340044697361626C652073746570703A
:101A40006572730053657420686F6D65206F6666FC
:101A50007365747300473238004175746F20686F86
:101A60006D65004D6F76652061786973004D616921
:101A70006E004D6F76652058004D6F7665205900D9
:101A80004D6F7665205A00457874727564657200F2
:101A90004D6F766520302E316D6D004D6F7665206F
:101AA000316D6D004D6F76652031306D6D004D6F7D
:101AB0007665206178697300457874727564657223
:101AC000004D6F7665205A004D6F76652059004DA8
:101AD0006F766520580000060900FE070192032179
:101AE00020FFFF08FF07FF000000060000010707B6
:101AF00006020080808080800080030202060105CB
:101B0000A0A00507070600005050F850F8505005F7
:101B100007070600002078A07028F02005070706B8
:101B20000000C0C810204098180507070600006094
:101B300090A040A89068020303060104C0408003FF
:101B40000707060100204080808040200307070629
:101B5000010080402020204080050505060001206E
:101B6000A870A8200505050600012020F820200205
:101B700003030602FFC04080050101060003F802CE
:101B80000202060200C0C00505050600010810207B
:101B900040800507070600007088888888887003E1
:101BA000070706010040C040404040E00507070627
:101BB0000000708808708080F8050707060000F8AC
:101BC0001020100808F0050707060000103050909C
:101BD000F81010050707060000F880F00808887064
:101BE000050707060000708080F0888870050707E9
:101BF000060000F808102020202005070706000036
:101C000070888870888870050707060000708888CB
:101C100078080870020505060200C0C000C0C002B6
:101C200006060602FFC0C000C04080040707060089
:101C30000010204080402010050303060002F80039
:101C4000F8040707060100804020102040800507A7
:101C5000070600007088081020002005070706000E
:101C60000070880868A8A87005070706000070883B
:101C700088F8888888050707060000F08888F088BB
:101C800088F005070706000070888080808870054E
:101C90000707060000F08888888888F0050707068F
:101CA0000000F88080F08080F8050707060000F843
:101CB0008080F0808080050707060000708880B86B
:101CC000888870050707060000888888F888888853
:101CD000010707060200808080808080800507075A
:101CE000060000381010101090600507070600006D
:101CF0008890A0C0A090880507070600008080801B
:101D0000808080F805070706000088D8A8888888A2
:101D1000880507070600008888C8A89888880507EE
:101D20000706000070888888888870050707060005
:101D300000F08888F0808080050707060000708822
:101D40008888A89068050707060000F08888F0A03A
:101D50009088050707060000788080700808F00565
:101D60000707060000F8202020202020050707068E
:101D70000000888888888888700507070600008822
:101D8000888888885020050707060000888888888A
:101D900088A85005070706000088885020508888CA
:101DA00005070706000088888850202020050707BF
:101DB000060000F80810204080F80307070601001D
:101DC000E08080808080E0050505060001804020DD
:101DD0001008030707060100E02020202020E0056E
:101DE0000303060004205088050101060000F802E4
:101DF000020206020580400505050600007008780D
:101E000088780507070600008080B0C88888F0053C
:101E10000505060000708080887005070706000031
:101E2000080868988888780505050600007088F815
:101E300080700507070600003048E040404040053C
:101E400006060600FF7088887808700507070600F8
:101E5000008080B0C88888880107070602008000DB
:101E600080808080800308080601FF200020202059
:101E700020A040040707060000808090A0C0A0902A
:101E8000030707060100C04040404040E00505054B
:101E9000060000D0A8A8A8A8050505060000B0C83F
:101EA0008888880505050600007088888870050602
:101EB000060600FFF08888F080800506060600FF11
:101EC000788888780808050505060000B0C8808075
:101ED0008005050506000070807008F004070706FD
:101EE00000004040E0404040300505050600008805
:101EF00088889868050505060000888888502005B0
:101F000005050600008888A8A850050505060000FC
:101F100088502050880506060600FF8888887808C3
:101F200070050505060000F8102040F803070706B5
:101F30000100204040804040200107070602008049
:101F40008080808080800307070601008040402059
:101F50004040800502020600026890000000060072
:101F60000000000006000000000006000000000065
:101F7000060000000000060000000000060000004F
:101F8000000006000000000006000000000006003F
:101F90000000000006000000000006000000000035
:101FA000060000000000060000000000060000001F
:101FB000000006000000000006000000000006000F
:101FC0000000000006000000000006000000000005
:101FD00006000000000006000000000006000000EF
:101FE00000000600000000000600000000000600DF
:101FF00000000000060000000000060000000000D5
:1020000006000000000006000000000006000000BE
:1020100000000600000000000600000000000600AE
:102020000000000006000001070706020080008093
:10203000808080800507070600002070A8A0A87097
:1020400020050707060000304040E04050A8050585
:102050000506000088705070880507070600008894
:102060005020F820F8200107070602008080800039
:1020700080808005080806000030482050502090DD
:1020800060030101060107A0050707060000F888A4
:10209000B8B8B888F805070706000170087888788E
:1020A00000F80505050600012850A0502805030387
:1020B000060001F808080202020602064080050731
:1020C00007060000F888A88898A8F805010106000E
:1020D00006F80404040600036090906005070706F4
:1020E00000002020F8202000F80405050600036009
:1020F000902040F0030505060003E020E020E00208
:10210000020206020640800508080600FF8888884B
:102110008898E88080050707060000789898781866
:102120001818020202060202C0C00202020602FFE2
:10213000408003050506000340C04040E005070756
:10214000060001708888887000F805050506000102
:10215000A0502850A00507070600008890A858B88E
:1021600008080507070600008890B8489820380539
:102170000808060000C040C048D83808080507070E
:102180000600002000204080887005080806000036
:102190004020007088F88888050808060000102094
:1021A000007088F888880508080600002050007034
:1021B00088F888880508080600006890007088F88C
:1021C00088880508080600005000708888F888880C
:1021D0000508080600002050207088F88888050748
:1021E000070600003860A0B8E0A0B805080806009F
:1021F000FF70888080887020600508080600004015
:102200002000F880F080F80508080600000810009B
:10221000F880F080F8050808060000205000F880DB
:10222000F080F80507070600005000F880F080F8FD
:10223000030808060100804000E0404040E0030839
:1022400008060100204000E0404040E00308080686
:10225000010040A000E0404040E003070706010005
:10226000A000E0404040E005070706000070484835
:10227000E848487005080806000068900088C8A86B
:1022800098880508080600004020708888888870B3
:1022900005080806000010207088888888700508E6
:1022A000080600002050007088888870050808061D
:1022B0000000689000708888887005080806000093
:1022C00050007088888888700505050600018850D0
:1022D0002050880508080600FF1070A8A8A8A8705C
:1022E0004005080806000040208888888888700516
:1022F000080806000010208888888888700508086B
:1023000006000020500088888888700508080600AC
:10231000005000888888888870050808060000102A
:10232000208850202020200509090600FFC04070A9
:102330004848704040E00408080601FF609090A003
:102340009090E080050808060000402000700878A2
:102350008878050808060000102000700878887842
:1023600005080806000020500070087888780508E5
:10237000080600006890007008788878050707064E
:1023800000005000700878887805080806000020D2
:1023900050207008788878050606060000D0287856
:1023A000A0A8500506060600FF7080887020600512
:1023B00008080600004020007088F88070050808B2
:1023C0000600001020007088F880700508080600DC
:1023D000002050007088F880700507070600005044
:1023E000007088F8807003080806010080400040F3
:1023F000C04040E003080806010020400040C04003
:1024000040E003080806010040A00040C04040E052
:10241000030707060100A00040C04040E005070791
:10242000060000A040A0107888700508080600008B
:10243000689000B0C8888888050808060000402019
:102440000070888888700508080600001020007059
:102450008888887005080806000020500070888869
:1024600088700508080600006890007088888870E9
:10247000050707060000500070888888700505056C
:102480000600012000F800200507070600FF107075
:10249000A8A8A87040050808060000402000888809
:1024A0008898680508080600001020008888889829
:1024B000680508080600002050008888889868058C
:1024C00007070600005000888888986805090906F3
:1024D00000FF102000888888F808700407070601AC
:1024E000FFC04060506040E00508080600FF500053
:1024F000888888780870506C656173652072657390
:102500006574005052494E5445522048414C544540
:1025100044005072696E7465722068616C74656401
:102520002E206B696C6C28292063616C6C656421BA
:102530000A00656E7175657565696E672022000019
:1025400000000000000000000000005761726E698A
:102550006E673A20486F6D696E672042756D702016
:1025600044697669736F72203C20310A000000A034
:10257000400000A040000000400000484300004828
:102580004300003443FFFFFF7C3C3E5E2B3D3F2F6A
:102590005B5D3B2C2A225C00457874727564657221
:1025A000004D6F7665205A004D6F76652059004DBD
:1025B0006F766520580050726570617265005265D3
:1025C00073746F7265206661696C73616665004C37
:1025D0006F6164206D656D6F72790053746F726501
:1025E000206D656D6F72790046696C616D656E7402
:1025F000004D6F74696F6E0054656D706572617423
:10260000757265004D61696E005072656865617430
:102610002041425320636F6E6600507265686561A9
:102620007420504C4120636F6E66005049442D4425
:10263000005049442D44005049442D49005049441C
:102640002D49005049442D50005049442D50002040
:1026500008204661637400200820466163740020EE
:1026600008204D6178002008204D61780020082066
:102670004D696E002008204D696E004F6666004F60
:102680006E20004175746F74656D700046616E2038
:1026900073706565640046616E20737065656400E3
:1026A00042656400426564004E6F7A7A6C65004E44
:1026B0006F7A7A6C6500436F6E74726F6C0053743E
:1026C0006F7265206D656D6F7279004265640042BE
:1026D0006564004E6F7A7A6C65004E6F7A7A6C652D
:1026E0000046616E2073706565640046616E2073FC
:1026F000706565640054656D7065726174757265AE
:1027000000454550524F4D20636865636B73756D8E
:10271000206D69736D617463680A00206279746565
:1027200073290A002073746F726564207365747472
:10273000696E6773207265747269657665642028B6
:102740000048617264636F64656420446566617506
:102750006C742053657474696E6773204C6F616488
:1027600065640A0020204D3230302044300A0020B9
:10277000204D3230302044002044697361626C6522
:10278000640A0046696C616D656E742073657474CB
:10279000696E67733A0020440020490020204D33C1
:1027A00030312050005049442073657474696E675D
:1027B000733A0A0020460020420020480020204DA5
:1027C0003134352053004D6174657269616C206845
:1027D000656174757020706172616D657465727386
:1027E0003A0A00205A0020590020204D323036206D
:1027F0005800486F6D65206F666673657420286D9C
:102800006D290A00204500205A0020590020580058
:1028100020420020540020204D323035205300410A
:102820006476616E636564207661726961626C656D
:10283000733A20533D4D696E20666565647261741C
:102840006520286D6D2F73292C20543D4D696E2015
:1028500074726176656C206665656472617465206A
:10286000286D6D2F73292C20423D6D696E696D7541
:102870006D207365676D656E742074696D652028C1
:102880006D73292C20583D6D6178696D756D2058E8
:1028900059206A65726B20286D6D2F73292C2020BA
:1028A0005A3D6D6178696D756D205A206A65726B4D
:1028B00020286D6D2F73292C2020453D6D6178698E
:1028C0006D756D2045206A65726B20286D6D2F73C4
:1028D000290A0020540020520020204D323034209C
:1028E0005000416363656C65726174696F6E733A21
:1028F00020503D7072696E74696E672C20523D7273
:1029000065747261637420616E6420543D747261F9
:1029100076656C0A00204500205A002059002020CE
:102920004D3230312058004D6178696D756D204110
:102930006363656C65726174696F6E20286D6D2FBD
:102940007332293A0A00204500205A0020590020FD
:10295000204D3230332058004D6178696D756D20FF
:1029600066656564726174657320286D6D2F7329C7
:102970003A0A00204500205A0020590020204D39F5
:102980003220580053746570732070657220756E24
:1029900069743A0A004572726F72207772697469BD
:1029A0006E6720746F20454550524F4D210A00201C
:1029B0006279746573290A0053657474696E67736C
:1029C0002053746F726564202800000021002400E9
:1029D00027002A0000002200250028002B0000000C
:1029E0002000230026002900020202020202020245
:1029F000040404040404040403030303030303039F
:102A000001010101010101010102040810204080BF
:102A100001020408102040800102040810204080B8
:102A20008040201008040201000000010200090A91
:102A30000000000004030807000000000000000080
:102A400000000000000000004B494C4C45442E2083
:102A500000202D20496E76616C696420657874725F
:102A600075646572206E756D62657220210A0020A2
:102A700020506C616E6E6572427566666572427951
:102A80007465733A20002046726565204D656D6F50
:102A900072793A2000436F6D70696C65643A204A20
:102AA000616E20333120323031370A00207C2041E2
:102AB0007574686F723A202842696F6E6963626F3D
:102AC0006E65290A00323031362D31322D303620F4
:102AD00031323A303000204C61737420557064619B
:102AE0007465643A2000312E312E302D5243382047
:102AF000427567466978203620446563203230315C
:102B0000360A004D61726C696E0020536F667477EF
:102B10006172652052657365740A002057617463A1
:102B200068646F672052657365740A002042726F93
:102B3000776E206F75742052657365740A002045A6
:102B4000787465726E616C2052657365740A00500A
:102B50006F77657255700A0073746172740A00654C
:102B600072726F722077726974696E6720746F2059
:102B700066696C650A00456E6473746F7073202516
:102B80006320256320256320256300205A3A002016
:102B9000593A0020583A00656E6473746F70732060
:102BA0006869743A2000446F6E6520736176696EBF
:102BB000672066696C652E0A004D32390070012C61
:102BC0000190012701B0012201C0011D01F001188F
:102BD000011002130130020E01600209019002048B
:102BE00001C002FF000003FA004003F5008003F07B
:102BF00000D003EB002004E6007004E100E004DCF8
:102C0000004005D700C005D2004006CD00D006C860
:102C1000008007C3003008BE00F008B900C009B446
:102C200000B00AAF00B00BAA00D00CA500000EA0A7
:102C300000500F9B00C01096005012910000148CA1
:102C400000C0158700B0178200B0197D00D01B7836
:102C500000001E730040206E0090226900F0246482
:102C60000040275F0090295A00E02B5500102E509D
:102C70000020304B0010324600E033410090353CDC
:102C8000001037370070383200A0392D00B03A28D4
:102C900000A03B2300603C1E00103D1900903D1435
:102CA00000103E0F00703E0A00C03E0500003F00CD
:102CB00000403FFBFF803FF6FFC03FF1FF43616EE6
:102CC0006E6F74206F70656E207375626469722018
:102CD000006563686F3A0020746F6F206C6F6E67D9
:102CE00020657874727573696F6E20707265766591
:102CF0006E7465640A0020636F6C6420657874727A
:102D00007573696F6E2070726576656E7465640A9E
:102D10000053442063617264206F6B0A006F70651A
:102D20006E526F6F74206661696C65640A00766F1D
:102D30006C756D652E696E6974206661696C656479
:102D40000A00534420696E6974206661696C0A0048
:102D50004573746570732F6D6D0045737465707382
:102D60002F6D6D005A73746570732F6D6D005A73FB
:102D7000746570732F6D6D005973746570732F6D6A
:102D80006D005973746570732F6D6D0058737465A1
:102D900070732F6D6D005873746570732F6D6D00B7
:102DA000412D74726176656C00412D747261766597
:102DB0006C00412D7265747261637400412D7265FF
:102DC000747261637400416D6178204500416D61EA
:102DD00078204500416D6178205A00416D6178206E
:102DE0005A00416D6178205900416D617820590089
:102DF000416D6178205800416D617820580056542B
:102E0000726176206D696E005654726176206D692C
:102E10006E00566D696E00566D696E00566D617874
:102E2000204500566D6178204500566D6178205A26
:102E300000566D6178205A00566D61782059005611
:102E40006D6178205900566D6178205800566D618B
:102E50007820580056652D6A65726B0056652D6A9C
:102E600065726B00567A2D6A65726B00567A2D6A10
:102E700065726B0056792D6A65726B0056792D6A02
:102E800065726B0056782D6A65726B0056782D6AF4
:102E900065726B00416363656C00416363656C0040
:102EA000436F6E74726F6C0046696C2E20446961CA
:102EB0002E0046696C2E204469612E004F66660024
:102EC0004F6E20004520696E206D6D3300436F6E9C
:102ED00074726F6C0043616E6E6F7420656E746502
:102EE00072207375626469723A2000022E2E00010E
:102EF00052656672657368004D61696E0061757434
:102F00006F25692E67004D3234004D323320257312
:102F10000057726974696E6720746F2066696C650A
:102F20003A20006F70656E206661696C65642C20C4
:102F300046696C653A20006F70656E206661696C49
:102F400065642C2046696C653A200046696C6520F2
:102F500073656C65637465640A002053697A653A29
:102F6000200046696C65206F70656E65643A2000CC
:102F70006F70656E206661696C65642C2046696CB3
:102F8000653A20002066696C653A20004E6F772014
:102F9000002220706F73002220706172656E743A97
:102FA0002200535542524F5554494E452043414CFF
:102FB0004C207461726765743A22004B494C4C4551
:102FC000442E2000747279696E6720746F206361EB
:102FD0006C6C207375622D67636F64652066696C25
:102FE0006573207769746820746F6F206D616E79E6
:102FF000206C6576656C732E204D4158206C65768B
:10300000656C2069733A004572726F723A005265BE
:1030100073656E643A20006F6B00627573793A20B5
:1030200070617573656420666F7220696E70757467
:103030000A00627573793A20706175736564206661
:103040006F7220757365720A00627573793A207029
:10305000726F63657373696E670A004B494C4C4528
:10306000442E20004E414E494E495459494E46CDBA
:10307000CCCC3D0AD7233C17B7D13877CC2B32952F
:1030800095E6241FB14F0A000020410000C842000D
:10309000401C4620BCBE4CCA1B0E5AAEC59D7400D7
:1030A00005C4C7BF11241FBECFEFD0E4DEBFCDBF24
:1030B00013E0A0E0B1E0E8E1F9EA01E00BBF02C0F3
:1030C00007900D92A032B107D9F723E1A0E2B3E057
:1030D00001C01D92AA31B207E1F718E1C1E5D8E1BC
:1030E00004C02197FE010E9464C8C035D107C9F70A
:1030F0000E94E8BF0C947FD40C9400002F923F9262
:103100004F925F926F927F928F929F92AF92BF92F7
:10311000CF92DF92EF92FF920F931F93CF93DF93A3
:10312000CDB7DEB7CF58D1090FB6F894DEBF0FBECA
:10313000CDBF0091800C20E6029F80011124005039
:10314000154F10933603009335038091B20F80FF23
:1031500018C0E1EDFCE284917F013FEFE31AF30A2E
:10316000882321F00E94C53AF701F5CFD8018D914F
:103170008D01882319F00E94C53AF8CF8AE00E9499
:10318000C53A2091350330913603F90180812F5FD4
:103190003F4F8032D1F3F0933603E09335038E3402
:1031A00069F010913503009136036AE270E0812FD7
:1031B000902F0E94CBCB0097D1F420C0818190ED5D
:1031C000980F9A3010F08D3261F73296DF01319608
:1031D0002C9120532A30D0F3CD01FC01019620819F
:1031E0002032D9F3F0933603E0933503DACFFC01B4
:1031F00031968291803231F08A3221F0A12FB02FA6
:103200009D9102C01082F5CFFD0180811196803220
:10321000D9F380538A3020F0E1EDFCE20C949A342B
:10322000E12CF12C2AE02E9DB0012F9D700D112470
:103230007B01B0E3EB1AF1088191E80EF11C87FDE8
:10324000FA94808180538A3070F38F013196D801CF
:103250008C918032D1F310932E0300932D0321E043
:1032600030E030930313209302139D3411F40C9437
:10327000B622943511F40C946434973411F00C9404
:103280007C34B4E0EB16F10409F473C640F4809189
:103290001901F2E0EF16F10408F011C11CC02AE593
:1032A000E216F10411F40C94F42138F44CE1E41624
:1032B000F10409F49CC60C9491345BE5E516F10425
:1032C00011F40C94F8218CE5E816F10411F40C9437
:1032D000FD210C949134882311F40C9491340E94B4
:1032E000773888E99AE00E9410BE0E94BA3A80912D
:1032F000B20F83FD93C0C090A40AD090A50AE090BD
:10330000A60AF090A70A2091111030911210409156
:10331000131050911410C701B6010E944FD088239A
:1033200009F47CC08091AD0F811134C020918D01D2
:1033300030918E0140918F015091900160918A0CE3
:1033400070918B0C80918C0C90918D0C0E944FD0C1
:1033500087FF20C0C0921110D0921210E09213107B
:10336000F0921410E1EDFCE284918F010F5F1F4F8A
:10337000882321F00E94C53AF801F6CFEFE5F1E08D
:1033800084918F010F5F1F4F882321F00E94C53A5F
:10339000F801F6CFC090A40AD090A50AE090A60A42
:1033A000F090A70A20911110309112104091131043
:1033B00050911410C701B6010E947CC80E94E9C94F
:1033C00097FF07C090958095709561957F4F8F4FBF
:1033D0009F4F693C71058105910504F1C092111060
:1033E000D0921210E0921310F0921410E1EDFCE272
:1033F00084918F010F5F1F4F882321F00E94C53AEF
:10340000F801F6CFE0E4F1E084918F010F5F1F4FE8
:10341000882321F00E94C53AF801F6CF2091980A3E
:103420003091990A40919A0A50919B0A6091051037
:103430007091061080910710909108100E944FD053
:1034400081111DC020919C0A30919D0A40919E0AD5
:1034500050919F0A6091091070910A1080910B1091
:1034600090910C100E944FD0811109C060919A0177
:1034700070919B0180919C0190919D011AC0609177
:103480001C0170911D01072E000C880B990B0E94E6
:1034900056D020919A0130919B0140919C0150910E
:1034A0009D010E94B5D02AE037ED43E25CE30E9423
:1034B000B5D00E9487370E947D370C9491348823C1
:1034C00011F40C94913411E092E0E916F10409F042
:1034D00010E00E94773882E50E94BF37882309F404
:1034E00052C10E944E386B017C01409005105090F3
:1034F000061060900710709008102091091030910C
:103500000A1040910B1050910C102BAF3CAF4DAFF7
:103510005EAF8091980A9091990AA0919A0AB09111
:103520009B0A23968CAF9DAFAEAFBFAF2397209180
:103530009C0A30919D0A40919E0A50919F0A2B96B9
:103540002CAF3DAF4EAF5FAF2B9720E030E0A9012D
:10355000C701B6010E944FD0882309F4F0C4A3012B
:10356000920123966CAD7DAD8EAD9FAD23970E94E9
:103570004FD081110FC02BAD3CAD4DAD5EAD2B9644
:103580006CAD7DAD8EAD9FAD2B970E944FD0882343
:1035900009F4D5C420E030E0A901C701B6010E94BA
:1035A0004FD0881F8827881F18130BC080E090E039
:1035B000A0E8BFE367968CAF9DAFAEAFBFAF679794
:1035C0000AC020E030E040E85FEB67962CAF3DAFEB
:1035D0004EAF5FAF6797A301920123966CAD7DADAF
:1035E0008EAD9FAD23970E947CC82F966CAF7DAFA8
:1035F0008EAF9FAF2F972BAD3CAD4DAD5EAD2B96F3
:103600006CAD7DAD8EAD9FAD2B970E947CC863964F
:103610006CAF7DAF8EAF9FAF63972F962CAD3DAD56
:103620004EAD5FAD2F97CA01B9010E94B5D04B01D5
:103630005C0163962CAD3DAD4EAD5FAD6397CA01A5
:10364000B9010E94B5D09B01AC01C501B4010E9433
:103650007DC80E942BCB27966CAF7DAF8EAF9FAFFE
:10366000279720E030E040E05FE30E94B5D04B01B7
:103670005C01A7019601C701B6010E94B5D06B019C
:103680007C01A5019401C501B4010E94B5D09B0144
:10369000AC01C701B6010E947CC80E942BCB9B01E4
:1036A000AC0167966CAD7DAD8EAD9FAD67970E9406
:1036B000B5D04B015C0123962CAD3DAD4EAD5FAD59
:1036C0002397C301B2010E947DC820E030E040E0B2
:1036D0005FE30E94B5D06B017C0163966CAD7DAD5C
:1036E0008EAD9FAD6397905827962CAD3DAD4EADF6
:1036F0005FAD27970E9477C99B01AC01C501B4015A
:103700000E94B5D09B01AC01C701B6010E947DC8E3
:10371000A30192010E947CC86B017C012B962CAD09
:103720003DAD4EAD5FAD2B976BAD7CAD8DAD9EAD20
:103730000E947DC820E030E040E05FE30E94B5D009
:103740002B013C0127962CAD3DAD4EAD5FAD2797CB
:103750002F966CAD7DAD8EAD9FAD2F970E9477C932
:103760009B01AC01C501B4010E94B5D09B01AC0125
:10377000C301B2010E947DC82BAD3CAD4DAD5EAD25
:103780000E947CC814C089E40E94BF37882329F0B6
:103790000E944E386B017C0103C0C12CD12C7601F4
:1037A0008AE40E94BF378823D9F00E944E386BAF5D
:1037B0007CAF8DAF9EAF20E030E0A901C701B6011C
:1037C0000E944FD081111AC020E030E0A9016BADFA
:1037D0007CAD8DAD9EAD0E944FD081110FC0AFC3A7
:1037E00020E030E0A901C701B6010E944FD0882334
:1037F00009F4A5C31BAE1CAE1DAE1EAEA7019601FB
:10380000C701B6010E94B5D04B015C012BAD3CADA8
:103810004DAD5EADCA01B9010E94B5D09B01AC01AE
:10382000C501B4010E947DC80E942BCBAF966CAF3E
:103830007DAF8EAF9FAFAF9780910510909106102E
:10384000A0910710B091081027968CAF9DAFAEAF36
:10385000BFAF2797A7019601BC01CD010E947DC88B
:1038600067966CAF7DAF8EAF9FAF679720910910C1
:1038700030910A1040910B1050910C102F962CAFE4
:103880003DAF4EAF5FAF2F972BAD3CAD4DAD5EADB5
:103890002F966CAD7DAD8EAD9FAD2F970E947DC8EC
:1038A0006B966CAF7DAF8EAF9FAF6B9780910D1015
:1038B00090910E10A0910F10B09110106F968CAFD8
:1038C0009DAFAEAFBFAF6F979C01AD016091A00AF5
:1038D0007091A10A8091A20A9091A30A0E947CC8CB
:1038E00063966CAF7DAF8EAF9FAF63972091A40AB4
:1038F0003091A50A4091A60A5091A70AE3962CAFF1
:103900003DAF4EAF5FAFE3978091111090911210D1
:10391000A0911310B0911410A3968CAF9DAFAEAFD1
:10392000BFAFA397A7019601505823962CAF3DAF88
:103930004EAF5FAF23978BAD9CADADADBEADB05874
:103940002B968CAF9DAFAEAFBFAF2B972091980A4F
:103950003091990A40919A0A50919B0AA7962CAFF0
:103960003DAF4EAF5FAFA79767962CAD3DAD4EAD67
:103970005FAD6797A7966CAD7DAD8EAD9FADA797F8
:103980000E947CC86B017C0180919C0A90919D0AE9
:10399000A0919E0AB0919F0AAB968CAF9DAFAEAF3F
:1039A000BFAFAB976B962CAD3DAD4EAD5FAD6B979A
:1039B000BC01CD010E947CC84B015C01A7019601AE
:1039C00023966CAD7DAD8EAD9FAD23970E94B5D093
:1039D0002B013C01A50194012B966CAD7DAD8EAD04
:1039E0009FAD2B970E94B5D09B01AC01C301B201E2
:1039F0000E947DC82B013C01A501940123966CAD6A
:103A00007DAD8EAD9FAD23970E94B5D04B015C017B
:103A1000A70196012B966CAD7DAD8EAD9FAD2B971A
:103A20000E94B5D09B01AC01C501B4010E947CC8C5
:103A3000A30192010E94FCC86B017C0120E030E0F0
:103A4000A9010E944FD087FF0AC02BED3FE049EC4F
:103A500050E4C701B6010E947DC86B017C011123AF
:103A600051F02BED3FE049EC50E4C701B6010E9454
:103A70007CC86B017C0120E030E0A901C701B601E0
:103A80000E944FD081112AC0A7962CAD3DAD4EADFE
:103A90005FADA79727966CAD7DAD8EAD9FAD279797
:103AA0000E944FD081111AC0AB962CAD3DAD4EADEA
:103AB0005FADAB972F966CAD7DAD8EAD9FAD2F9763
:103AC0000E944FD081110AC02BED3FE049EC50E439
:103AD000C701B6010E947DC86B017C01AF962CAD79
:103AE0003DAD4EAD5FADAF97C701B6010E94B5D0F9
:103AF0009B01AC010E94B5D04B015C0163962CADDB
:103B00003DAD4EAD5FAD6397CA01B9010E94B5D01E
:103B10009B01AC01C501B4010E947DC80E942BCB62
:103B20004B015C012FE632E143E85AE30E944FD09B
:103B300087FD01C2C501B4010E941FCA0E94F0C9DD
:103B40002D967FAF6EAF2D97DB01AB2B31F4E1E00B
:103B5000F0E02D96FFAFEEAF2D972D962EAD3FAD39
:103B60002D97B90180E090E00E9454D04B015C0198
:103B70009B01AC01C701B6010E9477C927966CAFC3
:103B80007DAF8EAF9FAF2797A501940163966CAD73
:103B90007DAD8EAD9FAD63970E9477C9A7966CAF40
:103BA0007DAF8EAF9FAFA797A3962CAD3DAD4EAD29
:103BB0005FADA397E3966CAD7DAD8EAD9FADE39702
:103BC0000E947CC8A50194010E9477C9AB966CAF96
:103BD0007DAF8EAF9FAFAB9727962CAD3DAD4EAD71
:103BE0005FAD2797CA01B9010E94B5D020E030E04F
:103BF00040E05FE30E94B5D09B01AC0160E070E063
:103C000080E89FE30E947CC863966CAF7DAF8EAF67
:103C10009FAF63976F968CAD9DADAEADBFAD6F9707
:103C200089879A87AB87BC87A3962CAD3DAD4EADF7
:103C30005FADA3972D873E874F87588B60911C01FE
:103C400070911D01072E000C880B990B0E9456D015
:103C500020919A0130919B0140919C0150919D01CE
:103C60000E94B5D02AE037ED43E25CE30E94B5D074
:103C70006F966CAF7DAF8EAF9FAF6F970E947566EA
:103C80009B01AC0128533F4F4F4F5F4FA3962CAF82
:103C90003DAF4EAF5FAFA3974FAC21965FAC21977E
:103CA00022966FAC229723967FAC239722242394ED
:103CB000312CD12C2D968EAD9FAD2D97281639061F
:103CC00009F425C10E947A520E947566DC01CB017D
:103CD000A3962CAD3DAD4EAD5FADA397821B930B6C
:103CE000A40BB50BB7FD10C00E9475669B01AC011B
:103CF00028533F4F4F4F5F4FA3962CAF3DAF4EAF72
:103D00005FAFA3970E94DFBBD39438E13D150CF45D
:103D10004BC063962CAD3DAD4EAD5FAD63972B961A
:103D20006CAD7DAD8EAD9FAD2B970E94B5D04B0194
:103D30005C0127962CAD3DAD4EAD5FAD2797B2012E
:103D4000C3010E94B5D0A50194010E947DC87B01EA
:103D50008C0163962CAD3DAD4EAD5FAD6397B20166
:103D6000C3010E94B5D04B015C0127962CAD3DAD3F
:103D70004EAD5FAD27972B966CAD7DAD8EAD9FADF3
:103D80002B970E94B5D09B01AC01C501B4010E94E4
:103D90007CC82B013C01C701D8012B968CAF9DAF8D
:103DA000AEAFBFAF2B9756C0B10180E090E00E944C
:103DB00054D027962CAD3DAD4EAD5FAD27970E94F8
:103DC000B5D04B015C010E9472C96B017C01C50139
:103DD000B4010E941DCB4B015C01A7019601239603
:103DE0006CAD7DAD8EAD9FAD23970E94B5D02B01FC
:103DF0003C01A50194016BAD7CAD8DAD9EAD0E94E3
:103E0000B5D09B01AC01C301B2010E947DC82B015A
:103E10003C01A501940123966CAD7DAD8EAD9FADA7
:103E200023970E94B5D04B015C01A70196016BADB1
:103E30007CAD8DAD9EAD0E94B5D09B01AC01C5019E
:103E4000B4010E947CC82B966CAF7DAF8EAF9FAF44
:103E50002B97D12C9201A30167966CAD7DAD8EADF1
:103E60009FAD67970E947DC869837A838B839C830B
:103E70002B962CAD3DAD4EAD5FAD2B976B966CADDB
:103E80007DAD8EAD9FAD6B970E947DC86D837E83A7
:103E90008F839887A7962CAD3DAD4EAD5FADA797AC
:103EA00069857A858B859C850E947DC869877A871C
:103EB0008B879C87AB962CAD3DAD4EAD5FADAB9780
:103EC0006D857E858F8598890E947DC86D877E87E8
:103ED0008F87988BCE0101960E9410BEC090270359
:103EE0006F96ECACFDAC0EAD1FAD6F979E01235FDE
:103EF0003F4FAE01475F5F4FBE016B5F7F4FCE010B
:103F000001960E94C7954FEF241A340AD3CEC09071
:103F100027036F96ECACFDAC0EAD1FAD6F9724EA96
:103F20003AE040EA5AE06CE97AE088E99AE00E94D7
:103F3000C7950E947D370E94BA3A0C949134E7E00D
:103F4000F0E384918F010F5F1F4F882321F00E94BF
:103F5000C53AF801F6CFEAE7F1E084918F010F5FEF
:103F60001F4F882311F40C9491340E94C53AF80134
:103F7000F4CF80E50E94BF37882329F00E944338A0
:103F80006B017C0103C0C12CD12C760183E50E941A
:103F9000BF37882321F00E94EB386B017C010E941F
:103FA00041550E94BA3A8091041390910513A09153
:103FB0000613B0910713C80ED91EEA1EFB1E80918E
:103FC0004A01811105C060E080E991E00E94F76C30
:103FD0000E947566DC01CB018C199D09AE09BF09F1
:103FE000B7FD02C00C9491340E94DFBBF1CF0E9458
:103FF000415580919A0190919B01A0919C01B091B3
:104000009D018093310390933203A0933303B093C7
:10401000340380911C0190911D0190933003809393
:104020002F0384E690E090931D0180931C010E9471
:10403000BA3A81E08093490188E50E94BF37F82EA3
:1040400089E50E94BF37182F8AE50E94BF37082FE5
:10405000F11005C0111105C091E0982705C011119C
:1040600002C090E001C0982F9093000180E1E5E04C
:10407000F0E1A8E9BAE001900D928A95E1F791117B
:1040800004C0F11002C01123D9F120E030E040EA71
:1040900050E46091DB0A7091DC0A8091DD0A909116
:1040A000DE0A0E947DC82091940A3091950A4091C1
:1040B000960A5091970A0E947DC86093A00A709357
:1040C000A10A8093A20A9093A30A20910D10309127
:1040D0000E1040910F10509110100E94DDCA18165A
:1040E0007CF419821A821B821C829E012F5F3F4F33
:1040F00040EA5AE069E070E185E090E10E94D4ABCB
:1041000080910001811102C0FF2021F080E090E049
:104110000E94BE7280910001811102C0112321F022
:1041200081E090E00E94BE7280910001811103C085
:10413000002309F435C18091D00A882321F08091B1
:10414000D10A81111EC060E08DEC91E00E94F76CF5
:10415000E1EDFCE284918F010F5F1F4F882321F076
:104160000E94C53AF801F6CFECEBF1E084918F01A3
:104170000F5F1F4F882309F413C10E94C53AF8014D
:10418000F5CF0E9477394090D30A5090D40A6090BE
:10419000D50A7090D60AC0908C0AD0908D0AE09013
:1041A0008E0AF0908F0A20E030E048EC52E4C30120
:1041B000B2010E947DC8A70196010E947DC84B01F3
:1041C0005C016093980A7093990A80939A0A90937D
:1041D0009B0A2091D70A3091D80A4091D90A509170
:1041E000DA0A2BAF3CAF4DAF5EAF8091900A909151
:1041F000910AA091920AB091930A23968CAF9DAF39
:10420000AEAFBFAF239720E030E048EC52E46BAD97
:104210007CAD8DAD9EAD0E947DC823962CAD3DAD8D
:104220004EAD5FAD23970E947DC827966CAF7DAFE2
:104230008EAF9FAF279760939C0A70939D0A8093DF
:104240009E0A90939F0A20910D1030910E1040917C
:104250000F10509110102B962CAF3DAF4EAF5FAFAB
:104260002B972093A00A3093A10A4093A20A50935F
:10427000A30AA3019201C501B4010E947CC8A70151
:1042800096010E947CC86B017C018090DB0A9090B3
:10429000DC0AA090DD0AB090DE0A4090940A5090AB
:1042A000950A6090960A7090970A27E137EB41EDE6
:1042B00058EB0E94DDCA87FF02C00C94B53427E09A
:1042C00030E048E453E4C701B6010E944FD018160D
:1042D00014F40C94B5342BAD3CAD4DAD5EAD2796CA
:1042E0006CAD7DAD8EAD9FAD27970E947CC82396A7
:1042F0002CAD3DAD4EAD5FAD23970E947CC86B01E8
:104300007C0127E137EB41ED58EB0E94DDCA87FFC6
:1043100002C00C94B53427E030E048E453E4C70110
:10432000B6010E944FD0181614F40C94B534A501B0
:1043300094012B966CAD7DAD8EAD9FAD2B970E94F9
:104340007CC8A30192010E947CC86B017C0127E11B
:1043500037EB41ED58EB0E94DDCA87FF02C00C9499
:10436000B53427E030E044E353E4C701B6010E94CE
:104370004FD0181614F40C94B53419821A821B828B
:104380001C829E012F5F3F4F4DE050E16CE97AE0C7
:1043900088E99AE00E94D4AB82E090E00E94BE726D
:1043A0000E9477398091C80A809349018091310336
:1043B00090913203A0913303B091340380939A011A
:1043C00090939B01A0939C01B0939D0180912F033A
:1043D0009091300390931D0180931C010E94BA3A82
:1043E0000E94803F0C94913410922C030C949134D1
:1043F00081E080932C030C94923485E40E94BF37B3
:10440000B82E811102C00E9441553DEA832E31E051
:10441000932E45E0C42E40E1D42E5CE8E52E5AE010
:10442000F52E00E010E0A12CD4018D914D010E94E9
:10443000BF37882309F44EC0F601208131814281C3
:104440005381C457DF4F2883CC58D040C357DF4F28
:104450003883CD58D040C257DF4F4883CE58D04024
:10446000C157DF4F5883CF58D0400E944E38D601F5
:104470006D937D938D939C931397C457DF4F288141
:10448000CC58D040C357DF4F3881CD58D040C257A9
:10449000DF4F4881CE58D040C157DF4F5881CF58A9
:1044A000D04003301105B1F00E947CC89B01AC01E3
:1044B000F70160817181828193810E947DC8D7015B
:1044C0006D937D938D939C931397C8010E94443AFA
:1044D000AA24A3940F5F1F4FB4E0CB0ED11CE4E0DD
:1044E000EE0EF11C0430110509F09ECFAA2019F040
:1044F0000E94773937C0BB20A9F1C0901110D0902D
:104500001210E0901310F0901410209121103091AF
:1045100022104091231050912410C701B6010E942F
:10452000B5D00E94EACA6093EE0C7093EF0C8093B2
:10453000F00C9093F10CC701B6010E94E9C92FB7A6
:10454000F8946093100A7093110A8093120A909362
:10455000130A2FBF1092DE0C1092DF0C1092E00CA9
:104560001092E10C0E94803F0C949134F0E7EF161A
:10457000F10409F41DC608F0C2C03AE2E316F104E2
:1045800009F4E9C408F060C057E1E516F10409F444
:1045900082C268F592E1E916F10411F40C94E02A64
:1045A000B0F4B2E0EB16F10408F4AEC1E1E1EE16AE
:1045B000F10411F00C94913460E080E192E00E94EB
:1045C000F76C5E985E9815985E980C949134F5E1BE
:1045D000EF16F10409F455C208F057C234E1E316AE
:1045E000F10411F00C949134E8E2F2E007C24BE1DF
:1045F000E416F10409F473C240F489E1E816F10409
:1046000009F45BC208F44EC25CC2AEE1EA16F104E2
:1046100009F4A1C268F4ECE1EE16F10411F00C9477
:10462000913440E060E0C8010E94FDB60C949134E2
:10463000FFE1EF16F10409F4E6C320E2E216F1040B
:1046400009F497C30C9491343CE5E316F10411F49A
:104650000C94222B68F551E5E516F10409F4A3C783
:10466000A0F49CE4E916F10409F4BDC4ADE4EA1633
:10467000F10409F4D2C4BBE4EB16F10411F00C947C
:1046800091340E94A8AC0C949134E3E5EE16F10449
:1046900009F491C708F48BC724E5E216F10409F484
:1046A0008FC735E5E316F10409F4B9C70C949134CA
:1046B0004BE6E416F10409F472C770F489E6E816D3
:1046C000F10409F4BEC508F066C7A8E6EA16F104CD
:1046D00009F4A7C40C949134BDE6EB16F10409F477
:1046E000CDC508F461C5FEE6EF16F10409F4DDC49A
:1046F0002FE6E216F10409F4EBC40C94913433ED87
:10470000E316F10411F40C942C2E08F083C05CE83D
:10471000E516F10409F47CC578F595E7E916F1048E
:1047200011F40C94AF2B90F4B2E7EB16F10411F4F2
:104730000C94AB2B08F440C5F3E7EF16F10411F02D
:104740000C9491340E94CC3A0C94913428E7E216F0
:10475000F10411F40C94172C39E7E316F10411F469
:104760000C941E2C47E7E416F10411F00C949134DC
:10477000EAE6F3E00C94B52B59ECE516F10411F4DC
:104780000C94E62C98F49EEBE916F10409F47AC532
:10479000A8ECEA16F10411F40C949B2CB1E9EB1689
:1047A000F10411F00C9491340C94242CECECEE16E2
:1047B000F10411F40C941E2D88F42BECE216F10494
:1047C00011F00C94913495E4E92E90E1F92E0DEA64
:1047D00011E024E0D22ED00E0C940E2D3DECE31609
:1047E000F10411F40C94882D4EECE416F10411F050
:1047F0000C9491341DEAA12E11E0B12E05E0C02EDB
:1048000000E1D02E83EDE82E8AE0F82E00E010E0E3
:104810000C94F32D50E9E51651E0F50611F40C94D3
:104820001A33C0F59CE2E91691E0F90611F40C94F4
:10483000152FA0F4BDEDEB16F10411F40C94D12E5C
:10484000E2EEEE16F10411F40C94EA2EFCEDEF16F4
:10485000F10411F00C9491340C94C42E2EE2E21663
:1048600021E0F20611F40C94DA2F10F40C943B2F93
:104870004FE2E41641E0F40611F40C944B3053E699
:10488000E51651E0F50611F00C949134E7E0F0E301
:104890000C943D3485EFE81681E0F80611F40C9491
:1048A0002B34C8F4ACEAEA16A1E0FA0611F40C9431
:1048B0001D33B4EFEB16B1E0FB0611F40C94283471
:1048C000EAE9EE16E1E0FE0611F00C9491340E9444
:1048D00081390C949134F7EFEF16F1E0FF0611F4F3
:1048E0000C94313410F40C942E3430EAE31633E097
:1048F000F30609F484C247EEE41643E0F40611F42B
:104900000C9454340C94913480E50E94BF37882372
:1049100061F00E9443386B017C01BB24B394672B88
:10492000682B692B31F4B12C04C0B12CC12CD12CD3
:10493000760183E50E94BF37882399F00E94EB3807
:104940006B017C01B1100FC0672B682B692B59F4E8
:10495000D8018C91882339F061E0C8010E9447A7F3
:1049600007C0BB20A9F360E08FEF91E00E94F76CD5
:1049700081E08093DC0F83E090E0909303138093B9
:1049800002130E9441550E94BA3AC114D104E104B5
:10499000F104E9F08091041390910513A09106139E
:1049A000B0910713C80ED91EEA1EFB1E0E94756641
:1049B000DC01CB018C199D09AE09BF09B7FF1AC0F4
:1049C0008091DC0F8823B1F00E94DFBBEFCF809194
:1049D000DC0F882319F00E94DFBBF9CF8091220DF4
:1049E00060E0882319F080EF91E002C08DED91E046
:1049F0000E94F76C1092DC0F0C94913484918F011B
:104A00000F5F1F4F882321F00E94C53AF801F6CFAF
:104A10001092A80F1092A70F40E050E0BA0183E572
:104A20009DE00E94D58A8BE1E3E5FDE0DE0115966D
:104A300001900D928A95E1F78091510D9091520D60
:104A40009C838B8385E692E09A83898340E050E0E3
:104A5000BE016F5F7F4F81E193E00E94B892CE016B
:104A600001960E94E573E9E1F2E084918F010F5F06
:104A70001F4F882311F40C9491340E94C53AF80119
:104A8000F4CF0E9456AA0C9491341092220D1092E9
:104A9000230D0C94913440E061E0C8010E94FDB602
:104AA0000C9491348091230D882319F081E0809338
:104AB000220D0E94A8AC0C9491341092220D0C94FB
:104AC00091348091230D882311F40C94913483E563
:104AD0000E94BF3781110C94D4340C94913480918E
:104AE000230D882351F1E9E3F2E084918F010F5FF8
:104AF0001F4F882321F00E94C53AF801F6CF60913C
:104B00009E0F70919F0F8091A00F9091A10F4AE08E
:104B10000E94033B8FE20E94C53A60919A0F709108
:104B20009B0F80919C0F90919D0F4AE00E94033B48
:104B30008AE00E94C53A0C949134EBE4F2E084914F
:104B40008F010F5F1F4F882311F40C9491340E9442
:104B5000C53AF801F4CF8091230D882311F40C9409
:104B600091348DEE9EE00E94A28A8DEE9EE00E941E
:104B70000C6D1092210D1092200DE0902D03F090FD
:104B80002E038091230D882311F40C9491340E94FC
:104B900091901D8218861C821B8285E692E09A8382
:104BA00089838FE49DE090936F0D80936E0DF701E4
:104BB00080818F3209F068C06FE270E0C7010E9407
:104BC000CBCB8C010F5F1F4F9E012F5F3F4F4901E1
:104BD0000115110509F45EC06FE270E0C8010E9482
:104BE000CBCB6C01009709F456C00817190708F0E1
:104BF00052C05C01A01AB10AA501B801CE0180968D
:104C00000E94F4CBE0E2F0E0EC0FFD1FEA0DFB1D8B
:104C100010828E01005E1F4FD8018D918D01882377
:104C200019F00E94C53AF8CF8AE00E94C53A609117
:104C30006E0D70916F0D6115710511F06C5F7F4FF6
:104C400021E0AE01405E5F4FCE0105960E94657186
:104C5000811112C0BE01605E7F4F82E892E00E9427
:104C6000DC3A8EE20E94C53A8AE00E94C53AC4014D
:104C70000E94E5730C94913490926F0D80926E0DAA
:104C800086010F5F1F4FA4CF80E79DE090936F0DCB
:104C900080936E0D870160916E0D70916F0D61159F
:104CA000710511F06C5F7F4F18A21BA222E0A801D2
:104CB000CE0180960E946571811102C0F12C14C052
:104CC000CE0180960E94FF8F8823C1F361E0CE0160
:104CD00080960E94156D009789F325EEFC012083D4
:104CE0001BA20E94AE88F82ECE0180960E94913AB7
:104CF000FF2009F1ECE5F2E084917F012FEFE21A49
:104D0000F20A882321F00E94C53AF701F5CFD801B5
:104D10008D918D01882319F00E94C53AF8CF8AE061
:104D20000E94C53A10929E0F10929F0F1092A00FF2
:104D30001092A10F18C0EAE6F2E084917F01BFEF64
:104D4000EB1AFB0A882321F00E94C53AF701F5CF40
:104D5000F80181918F01882319F00E94C53AF8CF9C
:104D60008EE20E94C53ACE0101960E94E5730C9432
:104D700091348091220D81110E94415500912D03A3
:104D800010912E0361E270E0C8010E94CBCB009726
:104D900019F08C010F5F1F4F80E50E94BF378823F9
:104DA00049F0FF24F3948091200390912103801710
:104DB000910708F0F12C8091230D882311F40C94B5
:104DC00091344F2D61E0C8010E94FDB683E50E9439
:104DD000BF37882349F080912003909121038017E9
:104DE000910710F40C94E5348091230D882319F079
:104DF00081E08093220DF1100C9491345ACE0E94E0
:104E000072370C9491340E9482922CE3C22ED12CE2
:104E1000E12CF12CA70196010E9443D4762E672E37
:104E2000CA01B901A70196010E9443D46B017C011C
:104E3000CA01B90128E130E040E050E00E9443D4CB
:104E40004B015C01C9016DE671E00E941DC88E0135
:104E50000F5F1F4F6115710599F06F927F92DF927E
:104E6000CF929F928F929F938F937F936F938EEBAE
:104E700092E09F938F931F930F930E941FD012C0B5
:104E80000097B1F06F927F92DF92CF929F928F92B4
:104E90009F938F938EEA92E09F938F931F930F932C
:104EA0000E941FD00FB6F894DEBF0FBECDBF36C034
:104EB00081149104A104B10479F06F927F92DF9282
:104EC000CF929F928F9282EA92E09F938F931F934B
:104ED0000F930E941FD0E6CFC114D104E104F10466
:104EE00069F06F927F92DF92CF928AE992E09F936E
:104EF0008F931F930F930E941FD0D4CF6F927F92F6
:104F000086E992E09F938F931F930F930E941FD087
:104F10000F900F900F900F900F900F9060E0C801CE
:104F20000E9447A7E1EDFCE284917F01BFEFEB1AFD
:104F3000FB0A882321F00E94C53AF701F5CFB8019A
:104F400082ED92E00E94DC3A8AE00E94C53A0E941B
:104F5000973A0C94913483E50E94BF37882311F46B
:104F60000C9491340E9418BF7C018F3F910519F079
:104F700010F00C94913480E50E94BF37882339F0FB
:104F80000E9418BF8C0197FF04C00C9491340BE170
:104F900010E0D02EE1EBF1E0C80199272191319189
:104FA0002817390731F022E0E130F207B9F70C9405
:104FB0007E34E7E0F0E384918F010F5F1F4F882379
:104FC00021F00E94C53AF801F6CFEFEDF2E08491AE
:104FD0008F010F5F1F4F882311F40C9491340E94AE
:104FE000C53AF801F4CF8091120D9091130D0197FD
:104FF00011F00C94913482E090E09093130D809323
:10500000120D0E94756660931C0D70931D0D8093A8
:105010001E0D90931F0D0C9491340E943B910C94A3
:10502000913488E690E00E94AD3E81110C94913459
:105030008091B20F83FF02C00C94913483E50E94EB
:10504000BF37882371F10E944E380E94E9C97093DE
:10505000890C6093880C0E94AF8F0E944E3820E02C
:1050600030E04AEA52E40E944FD018163CF00E9409
:105070003B9160E089EF92E00E94F76C0E944E380D
:1050800020918A0C30918B0C40918C0C50918D0C9E
:105090000E94DDCA18162CF460E08EEE92E00E94A9
:1050A000F76C0E94305C0C9491348EE40E94BF3700
:1050B000882311F40C9491340E9425BF609322033D
:1050C0007093230380932403909325030C949134CD
:1050D00083E50E94BF37882319F00E94D23701C0B0
:1050E00080E08093B20FE1EDFCE284918F010F5FCD
:1050F0001F4F882321F00E94C53AF801F6CFEAE15C
:10510000F3E084918F010F5F1F4F882321F00E94ED
:10511000C53AF801F6CF8091B20F8823A1F19CE047
:10512000C92E93E0D92EE12CF12C20E08091B20F12
:1051300090E00E2C02C0959587950A94E2F780FFC7
:1051400017C0BB24B394B20E222319F08CE20E9444
:10515000C53AF60125913491F901849189010F5FD7
:105160001F4F882321F00E94C53A9801F5CF2B2DBF
:10517000FFEFEF1AFF0A32E0C30ED11C45E0E41640
:10518000F104A1F60CC0E6E1F3E084918F010F5F1A
:105190001F4F882321F00E94C53AF801F6CF8AE01C
:1051A0000E94C53A0C949134109201010C949134F0
:1051B00081E293E00E94ED7383E50E94BF3788236C
:1051C00069F00E94D2378093A2018D3310F40C94C1
:1051D00091348CE38093A2010C949134E1EDFCE2D4
:1051E00084918F010F5F1F4F882321F00E94C53AE1
:1051F000F801F6CF4091A20150E060E070E08AE251
:1052000093E00E946B3B8AE00E94C53A0C94913473
:105210008091B20F83FF02C00C94913483E50E9409
:10522000BF37882311F40C9491340E944E380E94A9
:10523000E9C97093AC0A6093AB0A0E94B9500C9410
:10524000913489E690E00E94AD3E811111C0E1E306
:10525000F3E084918F010F5F1F4F882321F00E949C
:10526000C53AF801F6CF0E943F408AE00E94C53A55
:1052700010920313109202130C94C9360E94C74077
:105280000C9491348091B20F83FF02C00C9491343E
:1052900060E085E493E00E94F76C83E50E94BF37ED
:1052A00028968FAF2897811105C082E50E94BF37ED
:1052B0008823B1F00E944E380E94E9C97093AC0A6D
:1052C0006093AB0A0E94B9500E944E3820E030E053
:1052D00040EA50E40E94DDCA181614F40E94A8ACFB
:1052E00081E08093010110920313109202138091C8
:1052F00027038093260323961CAE1DAE1EAE1FAE61
:10530000239727961CAE1DAE1EAE1FAE27971BAE71
:105310002C961FAE2C975CE360965FAF60978CE194
:1053200064968FAF649796E468969FAF6897C12C98
:10533000D12C00E8E02E8FEBF82E812C912C54011B
:105340006091AB0A7091AC0A072E000C880B990B88
:105350000E9456D0162F072F782E692E262F372F12
:10536000482F592FB601C7010E944FD0882331F131
:105370002091A8033091A9034091AA035091AB0357
:10538000612F702F872D962D0E944FD0881F882760
:10539000881F8BAF2896AFAD2897AA2399F0882352
:1053A00089F080910101882311F40C94913460E01C
:1053B00084E393E00E94F76C0C9491341C2D0D2D26
:1053C0007E2C6F2C0E9475666B017C01DC01CB0189
:1053D00027962CAD3DAD4EAD5FAD2797821B930B4D
:1053E000A40BB50BB7FD47C0D701C60188519C4F30
:1053F000AF4FBF4F27968CAF9DAFAEAFBFAF2797D4
:105400000E943F40E1E4F3E084912F019FEF491AAD
:10541000590A882321F00E94C53AF201F5CF811480
:105420009104A104B104D1F0D501C401805F984D6D
:10543000AF4FBF4FBC01CD016C197D098E099F098B
:1054400028EE33E040E050E00E9443D4CA01B901A5
:105450000E94883B8AE00E94C53A0DC0EEE3F3E06B
:1054600084912F01AFEF4A1A5A0A882321F00E9433
:10547000C53AF201F5CF0E94DFBB0E94BA3A2090F4
:10548000A8033090A9034090AA035090AB03910168
:10549000A201612F702F872D962D0E947CC89F77C7
:1054A00081149104A104B10449F420E030E040E803
:1054B0005FE30E944FD087FF0BC008C020E030E0C0
:1054C00040E450E40E94DDCA181614F44601570166
:1054D000BBADBB2309F443C023962CAD3DAD4EAD0F
:1054E0005FAD2397211531054105510541F0D701E5
:1054F000C601821B930BA40BB50BB7FD30C0910105
:10550000A2012C966FAD2C9760967FAD6097649644
:105510008FAD649768969FAD68970E947CC820E025
:1055200030E040EC5FE30E944FD087FD3ACFD701D7
:10553000C601805A9541AF4FBF4F23968CAF9DAFA8
:10554000AEAFBFAF23972C962FAE2C9760963FAE91
:10555000609764964FAE649768965FAE6897809147
:105560000101882309F41DCF81149104A104B10421
:1055700029F4C12ED02EE72CF62CE2CE90E1C91AE8
:1055800097E2D90AE108F108C818D908EA08FB0827
:10559000F7FE07CFEECF0E941D380C9491340E9485
:1055A0000E380C9491340E945B370C949134109215
:1055B0002B030C94913481E080932B030C94923450
:1055C00083E50E94BF37882361F00E94EB38609327
:1055D000A3017093A4018093A5019093A6010C945C
:1055E000913488E50E94BF3781110C94F73489E526
:1055F0000E94BF3781110C94F7348AE50E94BF37AF
:1056000081110C94F73485E40E94BF3781110C940A
:10561000F7340E9441550E9406BE0C94913483E5F4
:105620000E94BF37882311F40C9491340E94EB3808
:10563000609308137093091380930A1390930B13CC
:105640000C949134BDEACB2EB1E0DB2E15E1E12EB6
:1056500010E1F12E10E0D6018D916D010E94BF374F
:10566000882309F46DC0133009F063C00E944E38DE
:105670004B015C0120E030E040EA51E40E944FD051
:1056800087FF4EC0A50194016091211070912210F6
:1056900080912310909124100E9477C92B013C0126
:1056A0009B01AC0160916110709162108091631058
:1056B000909164100E94B5D0609361107093621055
:1056C0008093631090936410A30192016091511034
:1056D0007091521080915310909154100E94B5D047
:1056E0006093511070935210809353109093541004
:1056F0006091BF0F7091C00F8091C10F9091C20F48
:105700000E9454D0A30192010E94B5D00E94F0C91A
:105710006093BF0F7093C00F8093C10F9093C20F1F
:105720008092211090922210A0922310B092241007
:1057300007C00E944E38F701608371838283938390
:105740001F5FF4E0EF0EF11C143009F084CF0E94CB
:10575000605C0C9491340E94803F0C94913460E022
:10576000C8010E9447A70C94913484918F010F5F68
:105770001F4F882321F00E94C53AF801F6CFE2E6D8
:10578000F3E084918F010F5F1F4F882321F00E9467
:10579000C53AF801F6CF329B03C001E812E002C01F
:1057A00006E812E0D8018D918D01882319F00E943E
:1057B000C53AF8CF8AE00E94C53AEAE5F3E0849161
:1057C0008F010F5F1F4F882321F00E94C53AF80117
:1057D000F6CF339B03C001E812E002C006E812E0F6
:1057E000F80181918F01882319F00E94C53AF8CF02
:1057F0008AE00E94C53AE2E5F3E084918F010F5FF1
:105800001F4F882321F00E94C53AF801F6CF349B40
:1058100003C001E812E002C006E812E0D8018D9151
:105820008D01882309F4BBCC0E94C53AF7CF81E0F3
:10583000809349018093C80A0C94923410924901D4
:105840001092C80A0C94913483E50E94BF378823D4
:10585000F9F00E9418BF182F8230D8F0E7E0F0E38B
:1058600084918F010F5F1F4F882321F00E94C53A5A
:10587000F801F6CFE4E8F3E084918F010F5F1F4F4A
:10588000882311F40C9491340E94C53AF801F4CFA6
:1058900010E088E40E94BF378823B1F00E9418BF4F
:1058A000E12FF0E08A3A91053CF08530B1E09B07AA
:1058B0002CF084E091E002C08AEA90E0EE0FFF1F36
:1058C000EF54F54F9183808386E40E94BF3788238D
:1058D000A1F00E9418BFE12FF0E0EE0FFF1FEB5484
:1058E000F54F8F3F910519F014F08FEF90E097FF7F
:1058F00002C080E090E09183808382E40E94BF3701
:10590000882311F40C9491340E9418BFE12FF0E029
:105910008530910534F0883891052CF087E890E0C7
:1059200002C085E090E0EE0FFF1FE355F54F918335
:1059300080830C94913488EC90E00E94AD3E8111FC
:105940000C94913484E40E94BF37882311F40C94A2
:1059500091340E944E3811E020E030E0A9010E940D
:105960004FD0811101C010E010936A10112359F13A
:105970000091260310E00E944E38000F111F000F07
:10598000111FF801E256FE4F608371838283938377
:1059900020E030E0A90160919E0170919F0180910B
:1059A000A0019091A1010E944FD081110CC080E014
:1059B00090E0A0E4B0E480939E0190939F01A093B7
:1059C000A001B093A1010E9494BBABC73DE2E32EBE
:1059D00030E1F32E0DEA11E044E0D42ED00EF801B0
:1059E00081918F010E94BF37882351F00E944E3869
:1059F0000E94F0C9D7016D937D938D939C9313976B
:105A0000B4E0EB0EF11CD012EACF0E949A9489C741
:105A1000B4E0EB0EF11CD01609F483C7F8018191B4
:105A20008F010E94BF37882399F30E944E38D70117
:105A30006D937D938D939C931397EACF83E50E949A
:105A4000BF378823D9F00E944E38AB01BC01409388
:105A500065105093661060936710709368104093C0
:105A6000251050932610609327107093281080E023
:105A700094E00E9479428AE00E94C53A80E50E9443
:105A8000BF37882399F00E944E38AB01BC01409388
:105A9000651050936610609367107093681083EEE2
:105AA00093E00E9479428AE00E94C53A82E50E9412
:105AB000BF37882399F00E944E38AB01BC01409358
:105AC000291050932A1060932B1070932C1084ECA3
:105AD00093E00E9479428AE00E94C53A84E50E94E0
