:100000000C94B0190C94DA190C94DA190C94DA19CE
:100010000C94DA190C94DA190C94DA190C94DA1994
:100020000C94DA190C94DA190C94DA190C94DA1984
:100030000C94DA190C942F5C0C94DA190C94DA19DC
:100040000C94DA190C942C8D0C940A6D0C94DA191A
:100050000C9400460C94DA190C94DA190C94DA1901
:100060000C94DA190C94DA190C94DA190C94DA1944
:100070000C94DA190C94DA190C94DA190C94DA1934
:100080000C94DA190C94DA190C94DA19796C7E6CE8
:10009000836C8D6CBB6CBB6C976C9F6CA76CB16CEC
:1000A0007D8D8C8DAB8DBA8DD58DDA8DDD8DE28D0C
:1000B000E58DEA8DED8DF28DFC8D88B38BB37EB32B
:1000C00082B3A2B3A2B38FB393B399B39DB3084ADB
:1000D000D73B3BCE016E84BCBFFDC12F3D6C74315C
:1000E0009ABD56833DDA3D00C77F11BED9E4BB4CB3
:1000F0003E916BAAAABE000000803F05A84CCDB27D
:10010000D44EB93836A9020C50B9918688083CA65D
:10011000AAAA2ABE000000803F00434F4D4D554E15
:1001200049434154494F4E0044525952554E00459F
:1001300052524F525300494E464F004543484F00DC
:1001400020746F6F206C6F6E6720657874727573A2
:10015000696F6E2070726576656E7465640A002042
:10016000636F6C6420657874727573696F6E20704C
:10017000726576656E7465640A0047322F473320D6
:1001800062616420706172616D65746572730A00EA
:10019000536C6565702E2E2E005A2070726F62654A
:1001A000206F75742E206265640A005A2070726F89
:1001B0006265206F75742E206265640047323820B6
:1001C0005A20466F7262696464656E0A004732386D
:1001D000205A20466F7262696464656E003F28563B
:1001E000296572626F7365204C6576656C20697352
:1001F00020696D706C61757369626C652028302DA3
:1002000034292E0A00205A3A200020593A20004270
:10021000656420583A20004D616C79616E204D3143
:1002200035302072656164792E00526573756D6991
:100230006E67207072696E74005761697420666F12
:100240007220757365722E2E2E004E6F206D6F76A4
:10025000652E00456E642066696C65206C69737458
:100260000A00426567696E2066696C65206C697377
:10027000740A005344207072696E74696E6720625C
:1002800079746520004E6F74205344207072696E3B
:1002900074696E670A0046696C652064656C6574F4
:1002A00065643A0044656C6574696F6E20666169C7
:1002B0006C65642C2046696C653A20006F70656E31
:1002C000206661696C65642C2046696C653A200083
:1002D0002569730025696D202569730025696820EB
:1002E00025696D20256973002569642025696820CA
:1002F00025696D20256973002569792025696420A9
:100300002569682025696D20256973005072696E22
:10031000742074696D653A200050726F746563745F
:1003200065642050696E0A0048656174696E672EC5
:100330002E2E004D616C79616E204D31353020726A
:10034000656164792E003B0136012F0128011A01F5
:100350006F66660044454255473A004B494C4C4550
:10036000442E20004D3131332053006F6B0048651F
:100370006174696E6720646F6E652E003F0A00200D
:10038000573A0048656174696E672E2E2E004D61E4
:100390006C79616E204D3135302072656164792E43
:1003A0000042656420646F6E652E003F0A0020578E
:1003B0003A004265642048656174696E672E004D9D
:1003C000616C79616E204D313530204F66662E00AC
:1003D0004649524D574152455F4E414D453A4D6158
:1003E000726C696E20312E312E302D5243382042EE
:1003F000756746697820362044656320323031368F
:1004000020284769746875622920534F5552434527
:100410005F434F44455F55524C3A68747470733A69
:100420002F2F6769746875622E636F6D2F4D61722F
:100430006C696E4669726D776172652F4D61726C81
:10044000696E2050524F544F434F4C5F56455253A4
:10045000494F4E3A312E30204D414348494E455F79
:10046000545950453A4D616C79616E204D313530AB
:100470002045585452554445525F434F554E543AC7
:100480003120555549443A63656465326132662DC1
:10049000343161322D343734382D396231322D63A5
:1004A00035356336326633363766660A007A5F6DF5
:1004B000696E3A2000795F6D696E3A2000785F6D51
:1004C000696E3A20005265706F7274696E672065BC
:1004D0006E6473746F70207374617475730A004D69
:1004E00031343520533C696E6465783E206F7574F5
:1004F000206F662072616E67652028302D31290AD1
:100500000043290A0061626C656420286D696E20D1
:1005100074656D702000436F6C642065787472752B
:10052000646573206172652000426564204C6576C5
:10053000656C696E6720004661696C656420746F44
:1005400020656E61626C6520426564204C6576654D
:100550006C696E670A004F6666736574732061701C
:10056000706C696564004572723A20546F6F206642
:1005700061722100546F6F206661722066726F6D28
:10058000207265666572656E636520706F696E7452
:100590000A003A20007A5F6D61783A20007A5F6D38
:1005A000696E3A20005A204F6666736574004E6F7C
:1005B0002063617365206C696768740A0041637425
:1005C0006976652045787472756465723A200055C5
:1005D0006E6B6E6F776E20636F6D6D616E643A2027
:1005E00022004E6F204C696E65204E756D626572FB
:1005F000207769746820636865636B73756D2C2060
:100600004C617374204C696E653A20004B494C4C28
:1006100045442E200053544F505045442E20005046
:1006200072696E7465722073746F70706564206493
:10063000756520746F206572726F72732E20466923
:100640007820746865206572726F7220616E642014
:10065000757365204D39393920746F207265737454
:100660006172742E202854656D70657261747572A4
:10067000652069732072657365742E20536574203C
:100680006974206166746572207265737461727436
:10069000696E67290A004E6F20436865636B737546
:1006A0006D2077697468206C696E65206E756D6267
:1006B00065722C204C617374204C696E653A200081
:1006C000636865636B73756D206D69736D617463C9
:1006D000682C204C617374204C696E653A20004C84
:1006E000696E65204E756D626572206973206E6F4C
:1006F00074204C617374204C696E65204E756D6278
:1007000065722B312C204C617374204C696E653AF4
:1007100020004D313130004D3331004D38342058F8
:100720002059205A20450053442072656164206599
:1007300072726F720A00446F6E65207072696E7417
:10074000696E672066696C650A0020496E76616C87
:1007500069642065787472756465722000000048D1
:100760004300004843000034430000000000000044
:100770000000000000205A3A200020593A20004290
:10078000656420583A200025753A253032750025D9
:100790003032753A253032750025756420253032A7
:1007A000753A25303275005A00590058000920006A
:1007B0000000000000000000000000007FFFE000DB
:1007C00000000000000000000000007000E00000D9
:1007D0000000000000000000000061F86000000060
:1007E00000000000000000000041F82000000000B0
:1007F000000000000000000040F0200000000000A9
:100800000000000000000040602000000000000028
:100810000000000000005801A07F800000000000E0
:1008200000004104005C63A0FFC000000000000065
:10083000002082005EF7A0FFC00000000000000062
:100840002082005EF7A0FFC0000000000000004111
:1008500004005C63A07F80000000000000008208AC
:10086000005801A07F80000000000000010410007B
:10087000406020FFC00000000000000104100040A4
:10088000F020FFC00000000000000082080041F8D6
:1008900020FFC00000000000000041040061F8607B
:1008A0003F00000000000000000000007000E01E9B
:1008B0000000000000000001FFFF807FFFE00C004F
:1008C00000000000000001FFFF80000000000000A9
:1008D0000000000000000000007FFFE000000000BA
:1008E00000000000000000007000E00000000000B8
:1008F00000000000000000630C6000000000000029
:10090000000000000000470E200000000000000072
:1009100000000000004F0F20000000000000000059
:10092000000000005F0FA0000000000000000000B9
:100930000000005E07A07F80000000000000004172
:100940000400406020FFC000000000000000208282
:100950000040F020FFC000000000000000208200E6
:1009600040F020FFC00000000000000041040040F3
:1009700060207F80000000000000008208005E0709
:10098000A07F80000000000000010410005F0FA0A5
:10099000FFC0000000000000010410004F0F20FF06
:1009A000C000000000000000820800470E20FFC0C9
:1009B00000000000000000410400630C603F0000E4
:1009C0000000000000000000007000E01E000000B9
:1009D0000000000001FFFF807FFFE00C000000002E
:1009E00000000001FFFF80000000496E69742E20A6
:1009F00053442063617264004E6F2053442063614E
:100A00007264004D3231004368616E676520534463
:100A10002063617264005072696E742066726F6D3B
:100A2000205344004D32310053746F70207072694E
:100A30006E7400526573756D65207072696E740016
:100A40005061757365207072696E7400436F6E74C7
:100A5000726F6C00507265706172650054756E65DE
:100A600000496E666F2073637265656E000006094B
:100A700000FE000000000001090008FE000005085B
:100A80000806000040F0C888889878100508080615
:100A90000000C0F88888888888F8050505060001E8
:100AA0002030F830200508080600002070F82020CB
:100AB0002020E00509090600FF2070A8A8B8888852
:100AC00070200509090600FFE080C0B0A828302882
:100AD000280509090600FFF8A88888888888A8F8EA
:100AE000050A0A0600FE205050505088A8A88870B9
:100AF00003030306000340A0405344206361726473
:100B0000206F6B0A006F70656E526F6F74206661A4
:100B1000696C65640A00766F6C756D652E696E6927
:100B200074206661696C65640A00534420696E69CB
:100B300074206661696C0A006175746F25692E679F
:100B4000004D3234004D32332025730057726974E2
:100B5000696E6720746F2066696C653A20006F705B
:100B6000656E206661696C65642C2046696C653A27
:100B700020006F70656E206661696C65642C20468C
:100B8000696C653A200046696C652073656C656325
:100B90007465640A002053697A653A200046696CDE
:100BA00065206F70656E65643A20006F70656E2019
:100BB0006661696C65642C2046696C653A2000208A
:100BC00066696C653A20004E6F7720002220706FB6
:100BD00073002220706172656E743A220053554290
:100BE000524F5554494E452043414C4C207461723C
:100BF0006765743A22004B494C4C45442E200074E2
:100C00007279696E6720746F2063616C6C207375F4
:100C1000622D67636F64652066696C657320776910
:100C2000746820746F6F206D616E79206C657665D5
:100C30006C732E204D4158206C6576656C2069736D
:100C40003A004572726F723A0024F4D43050C38E69
:100C500020C2A24017828B7011127A910D816CD93B
:100C60000AA861E108C7586607615143061E4B5D3B
:100C700005C145A7041A411104093D980371393192
:100C8000034036DB0265339102D4305402802E1DBE
:100C900002632CEE01752AC501B028A0011027813E
:100CA000018F2564012B244B01E0223401AC211F6C
:100CB000018D200D01801FFC00841EED00971DDFBB
:100CC00000B81CD200E61BC600201BBC00641AB290
:100CD00000B219A8000A19A0006A189900D117914A
:100CE0000040178B00B516840031167E00B31579CD
:100CF000003A157300C7146F0058146A00EE1366AB
:100D0000008813630025135E00C7125B006C125746
:100D10000015125400C111510070114F0021114BE8
:100D200000D61049008D10470046104400021042C2
:100D300000C00F4000800F3E00420F3C00060F3BFA
:100D400000CB0E3800930E37005C0E3500270E34B2
:100D500000F30D3200C10D3100900D3000600D2EFA
:100D600000320D2D00050D2C00D90C2B00AE0C29E6
:100D700000850C29005C0C2700350C27000E0C2682
:100D800000E80B2400C40B2400A00B23007D0B23E0
:100D9000005A0B2100390B2100180B2000F80A1F04
:100DA00000D90A1E00BB0A1E009D0A1D00800A1DF4
:100DB00000630A1C00470A1B002C0A1B00110A1AB8
:100DC00000F7091A00DD091900C4091900AB091957
:100DD00000920917007B091800630917004C0916D7
:100DE0000036091600200916000A091500F5081535
:100DF00000E0081400CC081400B8081400A408147B
:100E000000900813007D0812006B081300580812A8
:100E100000460812003408110023081100120811BE
:100E20000001081100F0071000E0071000D00710C3
:100E300000C0071000B0070F00A107100091070EB7
:100E40000083070F0074070F0065070E0057070E99
:100E50000049070E003B070D002E070E0020070D6E
:100E60000013070D0006070D00F9060C00ED060D36
:100E700000E0060C00D4060C00C8060C00BC060CF2
:100E800000B0060C00A4060B0099060C008D060BA2
:100E90000082060B0077060B006C060B0061060A49
:100EA0000057060B004C060A0042060A0038060AE4
:100EB000002E060A0024060A001A060A0010060977
:100EC0000007060A00FD050900F4050900EB050905
:100ED00000E2050900D9050900D0050900C7050988
:100EE00000BE050900B5050800AD050800A5050907
:100EF000009C050800940508008C0508008405087E
:100F0000007C050800740508006C050700650508ED
:100F1000005D050700560508004E05070047050758
:100F2000004005080038050700310507002A0507BD
:100F300000230507001C050600160507000F05071E
:100F4000000805060002050700FB040600F504077B
:100F500000EE040600E8040600E2040700DB0406D5
:100F600000D5040600CF040600C9040600C3040629
:100F700000BD040600B7040600B1040500AC040679
:100F800000A6040600A00405009B040600950405C5
:100F900000900406008A040500850405008004060C
:100FA000007A04050075040500700405006B040553
:100FB0000066040500610405005C04050057040593
:100FC00000520405004D04050048040500430405D3
:100FD000003E0404003A0405003504050030040412
:100FE000002C04050027040400230405001E04044B
:100FF000001A04040016040500110404000D040482
:1010000000090405000404040000040400FC0304B7
:1010100000F8030400F4030400F0030400EC0304EC
:1010200000E8030400E4030400E0030400DC03041C
:1010300000D8030400D4030400D0030400CC03044C
:1010400000C8030300C503030024F404D9201BC413
:101050000C5C0E9804C4095F0265077101F405F980
:1010600000FB04B30048048700C10369005803551E
:101070000003034500BE023A008402310053022AF5
:10108000002902250004022000E4011C00C8011907
:1010900000AF0117009801140084011300710110C2
:1010A000006101100051010E0043010D0036010BDB
:1010B000002B010B0020010B00150109000C010998
:1010C0000003010800FB000800F3000800EB000724
:1010D00000E4000600DE000600D8000600D200068C
:1010E00000CC000500C7000500C2000500BD0004DB
:1010F00000B9000400B5000400B1000400AD000414
:1011000000A9000400A5000300A20003009F000442
:10111000009B000300980003009500020093000369
:1011200000900003008D0002008B00030088000285
:10113000008600020084000300810002007F00029C
:10114000007D0002007B00020079000200770001B0
:1011500000760002007400020072000100710002BB
:10116000006F0002006D0001006C0002006A0001C7
:1011700000690002006700010066000100650001CF
:1011800000640002006200010061000100600001D3
:10119000005F0002005D0001005C0001005B0001D7
:1011A000005A0001005900010058000100570001D9
:1011B00000560001005500010054000100530000DA
:1011C00000530001005200010051000100500001D5
:1011D000004F0001004E0000004E0001004D0001D4
:1011E000004C0001004B0000004B0001004A0001D0
:1011F00000490001004800000048000100470001CC
:1012000000460000004600010045000000450001C6
:1012100000440001004300000043000100420000C0
:1012200000420001004100000041000100400001B7
:10123000003F0000003F0001003E0000003E0001B2
:10124000003D0000003D0001003C0000003C0000AB
:10125000003C0001003B0000003B0001003A0000A0
:10126000003A000100390000003900010038000098
:10127000003800000038000100370000003700018E
:101280000036000000360000003600010035000086
:10129000003500000035000100340000003400007B
:1012A000003400010033000000330000003300016F
:1012B0000032000000320000003200010031000066
:1012C000003100000031000100300000003000005B
:1012D00000300001002F0000002F0000002F000050
:1012E000002F0001002E0000002E0000002E000143
:1012F000002D0000002D0000002D0000002D000139
:10130000002C0000002C0000002C0000002C00012C
:10131000002B0000002B0000002B0000002B000120
:10132000002A0000002A0000002A0000002A000114
:101330000029000000290000002900000029000009
:1013400000290001002800000028000000280000FB
:1013500000280000002800010027000000270000EE
:1013600000270000002700000027000100260000E1
:1013700000260000002600000026000000260001D4
:1013800000250000002500000025000000250000C9
:1013900000250000002500010024000000240000BA
:1013A00000240000002400000024000100230000AD
:1013B00000230000002300000023000000230000A1
:1013C0000023000000230001002200000022000092
:1013D0000022000000220000002200000022000184
:1013E0000021000000210000002100000021000079
:1013F0000021000000210000002100010020000069
:10140000002000000020000000200000002000005C
:10141000002000000020000000200001001F00004C
:10142000001F0000001F0000001F0000001F000040
:10143000001F0000001F0001001E0000001E000031
:10144000001E0000001E0000004D383420582059B6
:10145000205A2045006265640A002C207379737459
:10146000656D2073746F70706564212048656174C8
:1014700065725F49443A200048656174696E67206F
:101480006661696C65640048656174696E672066B1
:1014900061696C65640048656174696E67206661A6
:1014A000696C65640048656174696E67206661698E
:1014B0006C656400544845524D414C2052554E4194
:1014C00057415900546865726D616C2052756E61A8
:1014D00077617900466C6F7700466C6F77004661E4
:1014E0006E2073706565640046616E20737065657B
:1014F000640042656400426564004E6F7A7A6C65F0
:10150000004E6F7A7A6C65005370656564005370A5
:10151000656564004D61696E00507265686561744F
:1015200020504C41204265640050726568656174CA
:1015300020504C41005072657061726500507265B8
:1015400068656174204142532042656400507265B1
:101550006865617420414253005072657061726524
:10156000004D34323800436F6F6C646F776E0050FB
:101570007265686561742041425300507265686508
:10158000617420504C41004D3834004469736162ED
:101590006C65207374657070657273005365742098
:1015A000686F6D65206F66667365747300473238C7
:1015B0000A47323900473239004C6576656C206243
:1015C000656400473238004175746F20686F6D653F
:1015D000004D6F76652061786973004D61696E001A
:1015E0004D6F76652058004D6F76652059004D6F20
:1015F0007665205A004578747275646572004D6F87
:10160000766520302E316D6D004D6F766520316D21
:101610006D004D6F76652031306D6D004D6F7665D4
:101620002061786973004578747275646572004D45
:101630006F7665205A004D6F76652059004D6F76A4
:101640006520580000060900FE070192032120FFD3
:10165000FF08FF07FF000000060000010707060261
:101660000080808080800080030202060105A0A027
:101670000507070600005050F850F85050050707BE
:101680000600002078A07028F0200507070600005B
:10169000C0C810204098180507070600006090A0F9
:1016A00040A89068020303060104C04080030707B6
:1016B00006010020408080804020030707060100CB
:1016C0008040202020408005050506000120A870EC
:1016D000A8200505050600012020F82020020303AC
:1016E0000602FFC04080050101060003F802020265
:1016F000060200C0C0050505060001081020408054
:101700000507070600007088888888887003070727
:1017100006010040C040404040E0050707060000C9
:10172000708808708080F8050707060000F8102010
:10173000100808F005070706000010305090F81058
:1017400010050707060000F880F0080888700507F4
:1017500007060000708080F0888870050707060083
:1017600000F80810202020200507070600007088D8
:1017700088708888700507070600007088887808D8
:101780000870020505060200C0C000C0C0020606BF
:101790000602FFC0C000C04080040707060000101A
:1017A000204080402010050303060002F800F804E2
:1017B000070706010080402010204080050707062B
:1017C0000000708808102000200507070600007040
:1017D000880868A8A870050707060000708888F8C0
:1017E000888888050707060000F08888F08888F058
:1017F000050707060000708880808088700507074D
:10180000060000F08888888888F005070706000031
:10181000F88080F08080F8050707060000F88080D7
:10182000F0808080050707060000708880B88888EF
:1018300070050707060000888888F88888880107EF
:1018400007060200808080808080800507070600F0
:1018500000381010101090600507070600008890EF
:10186000A0C0A090880507070600008080808080C7
:1018700080F805070706000088D8A88888888805AA
:1018800007070600008888C8A89888880507070603
:10189000000070888888888870050707060000F0B7
:1018A0008888F08080800507070600007088888897
:1018B000A89068050707060000F08888F0A09088C7
:1018C000050707060000788080700808F005070704
:1018D000060000F820202020202005070706000031
:1018E00088888888888870050707060000888888A7
:1018F000888850200507070600008888888888A8FF
:101900005005070706000088885020508888050782
:101910000706000088888850202020050707060059
:1019200000F80810204080F8030707060100E08057
:1019300080808080E00505050600018040201008B9
:10194000030707060100E02020202020E005030314
:10195000060004205088050101060000F80202027A
:1019600006020580400505050600007008788878A5
:101970000507070600008080B0C88888F0050505C7
:1019800006000070808088700507070600000808C0
:1019900068988888780505050600007088F88070CA
:1019A0000507070600003048E040404040050606B5
:1019B0000600FF7088887808700507070600008019
:1019C00080B0C888888801070706020080008080F0
:1019D0008080800308080601FF200020202020A02E
:1019E00040040707060000808090A0C0A090030775
:1019F00007060100C04040404040E00505050600E4
:101A000000D0A8A8A8A8050505060000B0C88888C9
:101A1000880505050600007088888870050606069A
:101A200000FFF08888F080800506060600FF7888B1
:101A300088780808050505060000B0C88080800584
:101A4000050506000070807008F004070706000016
:101A50004040E04040403005050506000088888889
:101A6000986805050506000088888850200505054A
:101A70000600008888A8A8500505050600008850C3
:101A80002050880506060600FF88888878087005BB
:101A90000505060000F8102040F8030707060100BE
:101AA00020404080404020010707060200808080DF
:101AB000808080800307070601008040402040406E
:101AC0008005020206000268900000000600000087
:101AD00000000600000000000600000000000600F4
:101AE00000000000060000000000060000000000EA
:101AF00006000000000006000000000006000000D4
:101B000000000600000000000600000000000600C3
:101B100000000000060000000000060000000000B9
:101B200006000000000006000000000006000000A3
:101B30000000060000000000060000000000060093
:101B40000000000006000000000006000000000089
:101B50000600000000000600000000000600000073
:101B60000000060000000000060000000000060063
:101B70000000000006000000000006000000000059
:101B80000600000000000600000000000600000043
:101B90000000060000010707060200800080808028
:101BA00080800507070600002070A8A0A870200507
:101BB0000707060000304040E04050A80505050634
:101BC00000008870507088050707060000885020C4
:101BD000F820F8200107070602008080800080803E
:101BE000800508080600003048205050209060030F
:101BF0000101060107A0050707060000F888B8B82C
:101C0000B888F8050707060001700878887800F89A
:101C10000505050600012850A0502805030306000D
:101C200001F80808020202060206408005070706BE
:101C30000000F888A88898A8F8050101060006F8B1
:101C40000404040600036090906005070706000086
:101C50002020F8202000F8040505060003609020ED
:101C600040F0030505060003E020E020E002020248
:101C700006020640800508080600FF8888888898C4
:101C8000E8808005070706000078989878181818EB
:101C9000020202060202C0C00202020602FF4080E7
:101CA00003050506000340C04040E00507070600A5
:101CB00001708888887000F8050505060001A050AD
:101CC0002850A00507070600008890A858B8080803
:101CD0000507070600008890B848982038050808CE
:101CE000060000C040C048D83808080507070600AD
:101CF0000020002040808870050808060000402071
:101D0000007088F888880508080600001020007018
:101D100088F888880508080600002050007088F8B8
:101D200088880508080600006890007088F8888890
:101D30000508080600005000708888F888880508A3
:101D4000080600002050207088F8888805070706DC
:101D500000003860A0B8E0A0B80508080600FF70D1
:101D600088808088702060050808060000402000F8
:101D7000F880F080F8050808060000081000F880D8
:101D8000F080F8050808060000205000F880F08078
:101D9000F80507070600005000F880F080F80308F7
:101DA00008060100804000E0404040E003080806CB
:101DB0000100204000E0404040E003080806010028
:101DC00040A000E0404040E0030707060100A000FB
:101DD000E0404040E0050707060000704848E8483A
:101DE000487005080806000068900088C8A8988810
:101DF000050808060000402070888888887005085B
:101E00000806000010207088888888700508080679
:101E100000002050007088888870050808060000BF
:101E200068900070888888700508080600005000D7
:101E30007088888888700505050600018850205044
:101E4000880508080600FF1070A8A8A8A87040051B
:101E500008080600004020888888888870050808DF
:101E60000600001020888888888870050808060009
:101E700000205000888888887005080806000050F7
:101E80000088888888887005080806000010208867
:101E900050202020200509090600FFC04070484856
:101EA000704040E00408080601FF609090A0909008
:101EB000E080050808060000402000700878887857
:101EC00005080806000010200070087888780508CA
:101ED0000806000020500070087888780508080679
:101EE00000006890007008788878050707060000F1
:101EF00050007008788878050808060000205020F7
:101F00007008788878050606060000D02878A0A812
:101F1000500506060600FF708088702060050808DE
:101F20000600004020007088F88070050808060050
:101F3000001020007088F880700508080600002056
:101F400050007088F8807005070706000050007088
:101F500088F8807003080806010080400040C040F7
:101F600040E003080806010020400040C04040E077
:101F700003080806010040A00040C04040E00307FD
:101F800007060100A00040C04040E005070706002A
:101F900000A040A01078887005080806000068902E
:101FA00000B0C88888880508080600004020007036
:101FB000888888700508080600001020007088884E
:101FC0008870050808060000205000708888887016
:101FD000050808060000689000708888887005076A
:101FE0000706000050007088888870050505060007
:101FF000012000F800200507070600FF1070A8A8C0
:10200000A8704005080806000040200088888898CD
:102010006805080806000010200088888898680570
:10202000080806000020500088888898680507077F
:10203000060000500088888898680509090600FF96
:10204000102000888888F808700407070601FFC080
:102050004060506040E00508080600FF5000888896
:102060008878087043616E6E6F7420656E74657257
:10207000207375626469723A2000022E2E000152AC
:10208000656672657368004D61696E004572726FB6
:10209000722077726974696E6720746F20454550AD
:1020A000524F4D210A00206279746573290A00534A
:1020B000657474696E67732053746F726564202849
:1020C00000454550524F4D20636865636B73756DD5
:1020D000206D69736D617463680A002062797465AC
:1020E00073290A002073746F7265642073657474B9
:1020F000696E6773207265747269657665642028FD
:10210000004572723A204D415854454D5020424589
:1021100044004572723A204D415854454D50004D8F
:10212000415854454D502074726967676572656403
:10213000004572723A204D494E54454D502042455B
:1021400044004572723A204D494E54454D50004D61
:10215000494E54454D5020747269676765726564D5
:10216000000000000000000000000000000000006F
:10217000000000000000000000000000000000005F
:10218000000000000000000000000000000000004F
:10219000000000000000000000000000000000003F
:1021A000000000000000000000000000000000002F
:1021B000000000000000000000000000000000001F
:1021C000000000000000000000000000000000000F
:1021D00000000000000000000000000000000000FF
:1021E00000000000000000000000000000000000EF
:1021F00000000000000000000000000000000000DF
:1022000000000000000000000000000000000000CE
:1022100000000000000000000000000000000000BE
:1022200000000000000000000000000000000000AE
:10223000000000000000000000000000000000009E
:10224000000000000000000000000000000000008E
:10225000000000000000000000000000000000007E
:10226000000000000000000000000000000000006E
:1022700000070000038000000000000000000000D4
:10228000001FC0000FE07C03E0781C0781E0F03EF7
:102290000E7FE0003FF07E07E0FC1C0381C1F83FA9
:1022A0000E7FF8007FF07E07E0FC1C03C3C1F83FFF
:1022B0000E7BFE01FEF07F0FE1FE1C01C383FC3F9D
:1022C0008E7CFF87F9F0770EE1FE1C01E783FC3B73
:1022D0008E7F7FCFF7F0779EE1CE1C00E7039C3B1B
:1022E000CE7F9FFFCFF0739CE3CF1C00FF079E398A
:1022F000CE7FE7FF3FF073FCE3871C007E070E39BB
:10230000EE7FFBFEFFF071F8E3871C007E0F0F38B5
:10231000EE7FFCF9FFF071F8E7FF9C003C0FFF38FF
:10232000FE7FFF27FFF070F0E7FF9C003C0FFF38B7
:102330007E7FFFDFFFF070F0EFFFDC003C1FFFB897
:102340007E7FDFFFDFF07060EF03DFF83C1E07B831
:102350003E7FC7FF1FF07060EE01DFF83C1C03B842
:102360003E7FC3FE1FF07000EE01DFF83C1C03B897
:102370001E7FC3FE1FF000000000000000000000F0
:10238000007FC3DE1FF07FFFFFFFFFFFFFFFFFFFA8
:10239000FE7FC3DE1FF07FFFFFFFFFFFFFFFFFFF9A
:1023A000FE7FC3DE1FF07C3FFAFBFFFFFFFD7ABF1D
:1023B000FE7FC3DE1FF07D9FFBFFFFFFFFFF7EF769
:1023C000FE7FC3DE1FF07D931A8A18E38C451AA2A4
:1023D000DE3FC3DE0FF07C2DCACAD6E924CD6AB633
:1023E000BE1F83DE07E07DA36A9AD6E926656AB63A
:1023F0003E0603DE01807D910A8AD8E38C451AB33C
:102400007E0003DE00007FFFFFFFFEEFFFFFFFFF08
:102410007E0003DE00007FFFFFFFF1EFFFFFFFFE06
:10242000FE0003DE00007FFFFFFFFFFFFFFFFFFF57
:10243000FE0003DE00007FFFFFFFFFFFFFFFFFFF47
:10244000FE0003DE000000000000000000000000AD
:10245000000001DC0000000000000000000000009F
:10246000000000500000000000000000000000001C
:10247000000000000000000000000000000000005C
:10248000000000000000000000000000000000004C
:10249000000000000000000000000000000000003C
:1024A000000000000000000000000000000000002C
:1024B000000000000000000000000000000000001C
:1024C000000000000000000000000000000000000C
:1024D00000000000000000000000000000000000FC
:1024E00000000000000000000000000000000000EC
:1024F00000000000000000000000000000000000DC
:1025000000000000000000000000000000000000CB
:1025100000000000000000000000000000000000BB
:1025200000000000000000000000000000000000AB
:10253000000000000000000000000000000000009B
:10254000000000000000000000000000000000008B
:10255000000000000000000000000000000000007B
:10256000004578747275646572004D6F7665205A07
:10257000004D6F76652059004D6F766520580050EC
:1025800072657061726500526573746F7265206662
:1025900061696C73616665004C6F6164206D656D87
:1025A0006F72790053746F7265206D656D6F72790B
:1025B0000046696C616D656E74004D6F74696F6E75
:1025C0000054656D7065726174757265004D616966
:1025D0006E00507265686561742041425320636FDC
:1025E0006E66005072656865617420504C412063CE
:1025F0006F6E66005049442D44005049442D4400FC
:102600005049442D49005049442D49005049442D1A
:1026100050005049442D500020082046616374004A
:1026200020082046616374002008204D6178002056
:1026300008204D6178002008204D696E0020082098
:102640004D696E004F6666004F6E20004175746FD5
:1026500074656D700046616E207370656564004638
:10266000616E207370656564004265640042656454
:10267000004E6F7A7A6C65004E6F7A7A6C65004313
:102680006F6E74726F6C0053746F7265206D656D40
:102690006F72790042656400426564004E6F7A7A19
:1026A0006C65004E6F7A7A6C650046616E207370BF
:1026B0006565640046616E207370656564005465ED
:1026C0006D70657261747572650020746F6F206C37
:1026D0006F6E6720657874727573696F6E207072A3
:1026E0006576656E7465640A0020636F6C642065AE
:1026F0007874727573696F6E2070726576656E742A
:1027000065640A0070012C0190012701B0012201CB
:10271000C0011D01F00118011002130130020E0169
:102720006002090190020401C002FF000003FA00E8
:102730004003F5008003F000D003EB002004E60026
:102740007004E100E004DC004005D700C005D200C1
:102750004006CD00D006C8008007C3003008BE0088
:10276000F008B900C009B400B00AAF00B00BAA006D
:10277000D00CA500000EA000500F9B00C0109600CA
:102780005012910000148C00C0158700B017820011
:10279000B0197D00D01B7800001E730040206E0031
:1027A00090226900F024640040275F0090295A00BD
:1027B000E02B5500102E500020304B001032460008
:1027C000E033410090353C0010373700703832005C
:1027D000A0392D00B03A2800A03B2300603C1E0029
:1027E000103D1900903D1400103E0F00703E0A008D
:1027F000C03E0500003F0000403FFBFF803FF6FF6A
:10280000C03FF1FF43616E6E6F74206F70656E2084
:102810007375626469722000206669727374005A6D
:102820000059005800486F6D65200020666972737A
:10283000740A005A0059005800486F6D6520006501
:1028400063686F3A00205A3A0020593A0020436FDB
:10285000756E7420583A200020453A00205A3A00FC
:1028600020593A00583A0053657474696E672054D1
:10287000726176656C20416363656C657261746931
:102880006F6E3A200053657474696E6720526574E8
:102890007261637420416363656C65726174696F12
:1028A0006E3A200053657474696E67205072696EC9
:1028B0007420416363656C65726174696F6E3A2060
:1028C0000053657474696E67205072696E7420617C
:1028D0006E642054726176656C20416363656C653B
:1028E000726174696F6E3A2000205A0020590058B6
:1028F0000020204D61783A2000205A0020590058CD
:102900000020204D696E3A20004F6E20004F666611
:1029100000536F667420656E6473746F70733A2031
:102920000020643A0020693A0020703A0023646570
:1029300066696E65202044454641554C545F4B64A2
:10294000200023646566696E652020444546415534
:102950004C545F4B69200023646566696E652020D6
:1029600044454641554C545F4B702000504944202B
:102970004175746F74756E652066696E69736865FC
:1029800064212050757420746865206C6173742014
:102990004B702C204B6920616E64204B6420636F68
:1029A0006E7374616E74732066726F6D2062656CF5
:1029B0006F7720696E746F20436F6E6669677572FA
:1029C0006174696F6E2E680A005049442041757425
:1029D0006F74756E65206661696C65642120746929
:1029E0006D656F75740A00504944204175746F74A9
:1029F000756E65206661696C6564212054656D7033
:102A00006572617475726520746F6F20686967689C
:102A10000A00204B643A2000204B693A2000204BEA
:102A2000703A20000A20436C617373696320504937
:102A300044200A002054753A2000204B753A2000AB
:102A4000206D61783A2000206D696E3A2000206484
:102A50003A200020626961733A20000000210024BE
:102A60000027002A0000002200250028002B00007B
:102A700000200023002600290002020202020202B6
:102A8000020404040404040404030303030303030F
:102A900003010101010101010101020408102040AC
:102AA0008001020408102040800102040810204028
:102AB000808040201008040201000000010200098B
:102AC0000A000000000403080700000000000000E6
:102AD0000000000000000000004B494C4C45442E13
:102AE0002000202D20496E76616C69642065787421
:102AF0007275646572206E756D62657220210A00C0
:102B00002020506C616E6E65724275666665724219
:102B1000797465733A20002046726565204D656DB5
:102B20006F72793A2000436F6D70696C65643A206A
:102B30004A616E20323220323031370A00207C2048
:102B4000417574686F723A202842696F6E696362DA
:102B50006F6E65290A00323031362D31322D303614
:102B60002031323A303000204C617374205570644B
:102B7000617465643A2000312E312E302D52433875
:102B800020427567466978203620446563203230DC
:102B900031360A004D61726C696E0020536F6674A5
:102BA000776172652052657365740A0020576174FD
:102BB0006368646F672052657365740A002042720F
:102BC0006F776E206F75742052657365740A0020EC
:102BD00045787465726E616C2052657365740A0085
:102BE000506F77657255700A0073746172740A00D1
:102BF0006572726F722077726974696E6720746F84
:102C00002066696C650A00456E6473746F7073208A
:102C1000256320256320256320256300205A3A0080
:102C200020593A0020583A00656E6473746F7073CF
:102C3000206869743A2000446F6E6520736176697C
:102C40006E672066696C652E0A004D323900457347
:102C5000746570732F6D6D004573746570732F6D9F
:102C60006D005A73746570732F6D6D005A737465BF
:102C700070732F6D6D005973746570732F6D6D00D7
:102C80005973746570732F6D6D005873746570732C
:102C90002F6D6D005873746570732F6D6D00412D2D
:102CA00074726176656C00412D74726176656C009A
:102CB000412D7265747261637400412D7265747286
:102CC00061637400416D6178204500416D61782039
:102CD0004500416D6178205A00416D6178205A00AD
:102CE000416D6178205900416D6178205900416D36
:102CF0006178205800416D61782058005654726107
:102D000076206D696E005654726176206D696E0092
:102D1000566D696E00566D696E00566D617820457E
:102D200000566D6178204500566D6178205A005636
:102D30006D6178205A00566D6178205900566D619A
:102D400078205900566D6178205800566D617820C2
:102D5000580056652D6A65726B0056652D6A65725E
:102D60006B00567A2D6A65726B00567A2D6A657211
:102D70006B0056792D6A65726B0056792D6A657203
:102D80006B0056782D6A65726B0056782D6A6572F5
:102D90006B00416363656C00416363656C005A209E
:102DA0004F6666736574005A204F666673657400DB
:102DB000436F6E74726F6C0046696C2E20446961BB
:102DC0002E0046696C2E204469612E004F66660015
:102DD0004F6E20004520696E206D6D3300436F6E8D
:102DE00074726F6C0020706F736974696F6E206FFE
:102DF0007574206F662072616E67652E0A003F5001
:102E0000726F626520005374616E64617264204465
:102E10006576696174696F6E3A20002052616E6751
:102E2000653A2000204D61783A2000204D696E3AC5
:102E300020004D65616E3A200046696E69736865D1
:102E40006421002072616E67653A2000206D617810
:102E50003A2000206D696E3A2000207369676D6129
:102E60003A2000206D65616E3A20003A207A3A20BF
:102E700000206F662000205A00205900205800478B
:102E80006F696E6720746F3A00436C6F636B77698C
:102E900073650A00436F756E7465722D0020446976
:102EA00072656374696F6E3A2000202020616E673E
:102EB0006C653A20005374617274696E67207261A8
:102EC000646975733A2000506F736974696F6E6935
:102ED0006E67207468652070726F62652E2E2E0AF0
:102EE000003F4E756D626572206F66206C6567737A
:102EF00020696E206D6F76656D656E74206E6F74DF
:102F000020706C61757369626C652028302D3135D5
:102F1000292E0A00590058003F53616D706C6520DE
:102F200073697A65206E6F7420706C617573696265
:102F30006C652028342D3530292E0A004D34382078
:102F40005A2D50726F6265205265706561746162BE
:102F5000696C69747920546573740A003F56657210
:102F6000626F7365204C6576656C206E6F7420709F
:102F70006C61757369626C652028302D34292E0AC6
:102F8000002042403A0020403A00202F0020423AE0
:102F900000202F0020543A00526573656E643A2079
:102FA000006F6B00627573793A20706175736564A8
:102FB00020666F7220696E7075740A00627573798D
:102FC0003A2070617573656420666F722075736551
:102FD000720A00627573793A2070726F6365737359
:102FE000696E670A004B494C4C45442E2000506CDA
:102FF00065617365207265736574005052494E5463
:1030000045522048414C544544005072696E7465E5
:10301000722068616C7465642E206B696C6C282961
:103020002063616C6C6564210A00656E717565755D
:1030300065696E67202200000000000000000000AB
:103040000000005761726E696E673A20486F6D69C3
:103050006E672042756D702044697669736F7220C7
:103060003C20310A000000A0400000A04000000009
:1030700040000048430000484300003443FFFFFF86
:1030800048617264636F6465642044656661756C51
:10309000742053657474696E6773204C6F61646546
:1030A000640A0020204D383531205A005A2D5072C4
:1030B0006F6265204F666673657420286D6D293ACE
:1030C0000A0020204D3230302044300A0020204DAC
:1030D0003230302044002044697361626C65640AB8
:1030E0000046696C616D656E742073657474696EF9
:1030F00067733A0020440020490020204D333031CE
:103100002050005049442073657474696E67733AA7
:103110000A0020460020420020480020204D313483
:10312000352053004D6174657269616C206865617A
:1031300074757020706172616D65746572733A0A9E
:103140000020204D3432302053004175746F2042EE
:103150006564204C6576656C696E673A0A00205A92
:103160000020590020204D323036205800486F6D25
:1031700065206F666673657420286D6D290A0020CE
:103180004500205A002059002058002042002054B9
:103190000020204D323035205300416476616E634B
:1031A0006564207661726961626C65733A20533D93
:1031B0004D696E20666565647261746520286D6D69
:1031C0002F73292C20543D4D696E207472617665F1
:1031D0006C20666565647261746520286D6D2F735F
:1031E000292C20423D6D696E696D756D2073656790
:1031F0006D656E742074696D6520286D73292C20AF
:10320000583D6D6178696D756D205859206A6572F9
:103210006B20286D6D2F73292C20205A3D6D61780D
:10322000696D756D205A206A65726B20286D6D2F4F
:1032300073292C2020453D6D6178696D756D2045A1
:10324000206A65726B20286D6D2F73290A00205447
:103250000020520020204D32303420500041636362
:10326000656C65726174696F6E733A20503D70725F
:10327000696E74696E672C20523D72657472616369
:103280007420616E6420543D74726176656C0A002E
:10329000204500205A0020590020204D3230312096
:1032A00058004D6178696D756D20416363656C658B
:1032B000726174696F6E20286D6D2F7332293A0A1E
:1032C00000204500205A0020590020204D32303384
:1032D0002058004D6178696D756D20666565647272
:1032E0006174657320286D6D2F73293A0A0020459B
:1032F00000205A0020590020204D39322058005318
:10330000746570732070657220756E69743A0A0076
:103310007C3C3E5E2B3D3F2F5B5D3B2C2A225C00BC
:103320004E414E494E495459494E46CDCCCC3D0AAA
:10333000D7233C17B7D13877CC2B329595E6241F8D
:10334000B14F0A000020410000C84200401C462046
:10335000BCBE4CCA1B0E5AAEC59D74000BDB2DE0E3
:1033600011241FBECFEFD0E4DEBFCDBF13E0A0E03D
:10337000B1E0ECEDFBED01E00BBF02C007900D9258
:10338000AE37B107D9F723E1AEE7B3E001C01D9234
:10339000A23AB207E1F719E1CFEAD9E104C02197D7
:1033A000FE010E9442E1CE3AD107C9F70E9437DC04
:1033B0000C94E1ED0C9400002F923F924F925F929B
:1033C0006F927F928F929F92AF92BF92CF92DF9235
:1033D000EF92FF920F931F93CF93DF93CDB7DEB79A
:1033E000C75AD1090FB6F894DEBF0FBECDBF00910A
:1033F0008A1220E6029F80011124065F1E4E109360
:103400008E0300938D038091630D80FF18C0EFE35E
:10341000F8E284917F013FEFE31AF30A882321F059
:103420000E94A03FF701F5CFD8018D918D0188232F
:1034300019F00E94A03FF8CF8AE00E94A03F20919F
:103440008D0330918E03F90180812F5F3F4F8032D1
:10345000D1F3F0938E03E0938D038E3469F01091D5
:103460008D0300918E036AE270E0812F902F0E94FD
:10347000A1E40097D1F420C0818190ED980F9A309B
:1034800010F08D3261F73296DF0131962C91205386
:103490002A30D0F3CD01FC01019620812032D9F3EE
:1034A000F0938E03E0938D03DACFFC013196829185
:1034B000803231F08A3221F0A12FB02F9D9102C0CD
:1034C0001082F5CFFD01808111968032D9F38053AF
:1034D0008A3020F0EFE3F8E20C94BB38E12CF12CB9
:1034E0002AE02E9DB0012F9D700D11247B01B0E3C9
:1034F000EB1AF1088191E80EF11C87FDFA948081A6
:1035000080538A3070F38F013196D8018C918032CC
:10351000D1F310938C0300938B0321E030E03093C0
:103520006E1320936D139D3411F40C946D29943512
:1035300011F40C948538973411F00C949D38BCE14B
:10354000EB16F10409F48FC790F4F4E0EF16F104E0
:1035500038F480910E0122E0E216F10458F11EC108
:1035600034E0E316F10409F440C70C94B2384AE59C
:10357000E416F10411F40C94AB2870F48DE1E81614
:10358000F10411F40C949B239EE1E916F10411F46B
:103590000C94CB270C94B238ABE5EA16F10411F485
:1035A0000C94AF28BCE5EB16F10411F40C94B4288C
:1035B0000C94B238882311F40C94B2380E94FA3C6F
:1035C00087E793E10E94C1C60E945B3F8091630D33
:1035D00083FD93C0C0908313D0908413E090851333
:1035E000F09086132091E5103091E6104091E7109D
:1035F0005091E810C701B6010E948AE9882309F4B6
:103600007CC080915E0D811134C020914C013091BD
:103610004D0140914E0150914F016091850D709187
:10362000860D8091870D9091880D0E948AE987FF11
:1036300020C0C092E510D092E610E092E710F09220
:10364000E810EFE3F8E284918F010F5F1F4F8823AA
:1036500021F00E94A03FF801F6CFEFE5F1E0849160
:103660008F010F5F1F4F882321F00E94A03FF801B8
:10367000F6CFC0908313D0908413E0908513F09020
:1036800086132091E5103091E6104091E71050919B
:10369000E810C701B6010E9452E10E94BFE297FF05
:1036A00007C090958095709561957F4F8F4F9F4F84
:1036B000693C71058105910504F1C092E510D09235
:1036C000E610E092E710F092E810EFE3F8E2849160
:1036D0008F010F5F1F4F882321F00E94A03FF80148
:1036E000F6CFE0E4F1E084918F010F5F1F4F882354
:1036F00021F00E94A03FF801F6CF2091771330917E
:1037000078134091791350917A136091D910709188
:10371000DA108091DB109091DC100E948AE981110F
:103720001DC020917B1330917C1340917D135091EB
:103730007E136091DD107091DE108091DF1090910A
:10374000E0100E948AE9811109C060910001709126
:10375000010180910201909103011AC06091110151
:1037600070911201072E000C880B990B0E9491E9B1
:10377000209100013091010140910201509103011B
:103780000E94F0E92AE037ED43E25CE30E94F0E9B1
:103790000E94E33B0E94D93B0C94B238882311F479
:1037A0000C94B23811E0E2E0EE16F10409F010E0FA
:1037B0000E94FA3C82E50E943E3C882309F46EC1D7
:1037C0000E94D13C6B017C014090D9105090DA10DE
:1037D0006090DB107090DC102091DD103091DE10D5
:1037E0004091DF105091E010E0962CAF3DAF4EAF0E
:1037F0005FAFE0978091771390917813A091791340
:10380000B0917A13E8968CAF9DAFAEAFBFAFE8979B
:1038100020917B1330917C1340917D1350917E1346
:10382000EC962CAF3DAF4EAF5FAFEC9720E030E0B1
:10383000A901C701B6010E948AE9882309F4BBC522
:10384000A3019201E8966CAD7DAD8EAD9FADE8977A
:103850000E948AE9811111C0E0962CAD3DAD4EADBC
:103860005FADE097EC966CAD7DAD8EAD9FADEC9706
:103870000E948AE9882309F49EC520E030E0A9016E
:10388000C701B6010E948AE9881F8827881F18137C
:103890000DC080E090E0A0E8BFE3CC57DF4F888305
:1038A0009983AA83BB83C458D0400CC020E030E089
:1038B00040E85FEBCC57DF4F288339834A835B8333
:1038C000C458D040A3019201E8966CAD7DAD8EAD99
:1038D0009FADE8970E9452E1C458DF4F6883798317
:1038E0008A839B83CC57D040E0962CAD3DAD4EAD46
:1038F0005FADE097EC966CAD7DAD8EAD9FADEC9776
:103900000E9452E1C058DF4F688379838A839B838A
:10391000C058D040C458DF4F288139814A815B812B
:10392000CC57D040CA01B9010E94F0E94B015C01BB
:10393000C058DF4F288139814A815B81C058D0400F
:10394000CA01B9010E94F0E99B01AC01C501B401B3
:103950000E9453E10E9401E4E4966CAF7DAF8EAF0C
:103960009FAFE49720E030E040E05FE30E94F0E9A1
:103970004B015C01A7019601C701B6010E94F0E965
:103980006B017C01A5019401C501B4010E94F0E91D
:103990009B01AC01C701B6010E9452E10E9401E403
:1039A0009B01AC01CC57DF4F688179818A819B8173
:1039B000C458D0400E94F0E94B015C01E8962CAD60
:1039C0003DAD4EAD5FADE897C301B2010E9453E13A
:1039D00020E030E040E05FE30E94F0E96B017C0111
:1039E000C058DF4F688179818A819B81C058D0405F
:1039F0009058E4962CAD3DAD4EAD5FADE4970E947E
:103A00004DE29B01AC01C501B4010E94F0E99B01AC
:103A1000AC01C701B6010E9453E1A30192010E94CB
:103A200052E16B017C01EC962CAD3DAD4EAD5FAD2E
:103A3000EC97E0966CAD7DAD8EAD9FADE0970E94AA
:103A400053E120E030E040E05FE30E94F0E92B0129
:103A50003C01E4962CAD3DAD4EAD5FADE497C4584E
:103A6000DF4F688179818A819B81CC57D0400E9449
:103A70004DE29B01AC01C501B4010E94F0E99B013C
:103A8000AC01C301B2010E9453E1E0962CAD3DAD03
:103A90004EAD5FADE0970E9452E114C089E40E94F0
:103AA0003E3C882329F00E94D13C6B017C0103C07D
:103AB000C12CD12C76018AE40E943E3C8823F9F087
:103AC0000E94D13CE0966CAF7DAF8EAF9FAFE09788
:103AD00020E030E0A901C701B6010E948AE9811106
:103AE0001EC020E030E0A901E0966CAD7DAD8EAD4A
:103AF0009FADE0970E948AE9811111C05CC420E06B
:103B000030E0A901C701B6010E948AE9882309F4BF
:103B100052C4E0961CAE1DAE1EAE1FAEE097A701CC
:103B20009601C701B6010E94F0E94B015C01E096E5
:103B30002CAD3DAD4EAD5FADE097CA01B9010E941D
:103B4000F0E99B01AC01C501B4010E9453E10E9460
:103B500001E4C456DF4F688379838A839B83CC5901
:103B6000D0408091D9109091DA10A091DB10B091E3
:103B7000DC10E4968CAF9DAFAEAFBFAFE497A7016A
:103B80009601BC01CD010E9453E1CC57DF4F688301
:103B900079838A839B83C458D0402091DD10309173
:103BA000DE104091DF105091E010C458DF4F2883A1
:103BB00039834A835B83CC57D040E0962CAD3DAD32
:103BC0004EAD5FADE097C458DF4F688179818A813F
:103BD0009B81CC57D0400E9453E1C857DF4F688388
:103BE00079838A839B83C858D0408091E11090915B
:103BF000E210A091E310B091E410C457DF4F888326
:103C00009983AA83BB83CC58D0409C01AD016091BD
:103C10007F137091801380918113909182130E9481
:103C200052E1C058DF4F688379838A839B83C058F1
:103C3000D04020918313309184134091851350918B
:103C40008613C056DF4F288339834A835B83C05A6B
:103C5000D0408091E5109091E610A091E710B091CE
:103C6000E810C057DF4F88839983AA83BB83C0596C
:103C7000D040A70196015058E8962CAF3DAF4EAF0B
:103C80005FAFE897E0968CAD9DADAEADBFADE09770
:103C9000B058EC968CAF9DAFAEAFBFAFEC97C09075
:103CA0007713D0907813E0907913F0907A13CC5674
:103CB000DF4FC882D982EA82FB82C459D040CC57F8
:103CC000DF4F288139814A815B81C458D040C701C8
:103CD000B6010E9452E16B017C0120917B1330916F
:103CE0007C1340917D1350917E13C856DF4F28837B
:103CF00039834A835B83C859D040C857DF4F288136
:103D000039814A815B81C858D040C856DF4F6881ED
:103D100079818A819B81C859D0400E9452E14B0130
:103D20005C01A7019601E8966CAD7DAD8EAD9FADAF
:103D3000E8970E94F0E92B013C01A5019401EC9663
:103D40006CAD7DAD8EAD9FADEC970E94F0E99B010F
:103D5000AC01C301B2010E9453E12B013C01A5015A
:103D60009401E8966CAD7DAD8EAD9FADE8970E9455
:103D7000F0E94B015C01A7019601EC966CAD7DADBD
:103D80008EAD9FADEC970E94F0E99B01AC01C5019F
:103D9000B4010E9452E1A30192010E94D2E16B01A1
:103DA0007C0120E030E0A9010E948AE987FF0AC077
:103DB0002BED3FE049EC50E4C701B6010E9453E10E
:103DC0006B017C01112351F02BED3FE049EC50E4F5
:103DD000C701B6010E9452E16B017C0120E030E096
:103DE000A901C701B6010E948AE9811130C0CC56F1
:103DF000DF4F288139814A815B81C459D040E496E4
:103E00006CAD7DAD8EAD9FADE4970E948AE98111C6
:103E10001EC0C856DF4F288139814A815B81C8594D
:103E2000D040C458DF4F688179818A819B81CC570B
:103E3000D0400E948AE981110AC02BED3FE049EC95
:103E400050E4C701B6010E9453E16B017C01C456E6
:103E5000DF4F288139814A815B81CC59D040C7012D
:103E6000B6010E94F0E99B01AC010E94F0E94B0110
:103E70005C01C058DF4F288139814A815B81C0587D
:103E8000D040CA01B9010E94F0E99B01AC01C50113
:103E9000B4010E9453E10E9401E44B015C012FE652
:103EA00032E143E85AE30E948AE987FD80C2C501F6
:103EB000B4010E94F5E20E94C6E2EE967FAF6EAFBB
:103EC000EE97672B31F481E090E0EE969FAF8EAFD6
:103ED000EE97EE96AEADBFADEE97BD0180E090E0FF
:103EE0000E948FE94B015C019B01AC01C701B60147
:103EF0000E944DE2E4966CAF7DAF8EAF9FAFE4972A
:103F0000A5019401C058DF4F688179818A819B8126
:103F1000C058D0400E944DE2CC56DF4F6883798371
:103F20008A839B83C459D040C057DF4F2881398191
:103F30004A815B81C059D040C056DF4F688179818A
:103F40008A819B81C05AD0400E9452E1A501940110
:103F50000E944DE2C856DF4F688379838A839B8332
:103F6000C859D040E4962CAD3DAD4EAD5FADE49761
:103F7000CA01B9010E94F0E920E030E040E05FE3CF
:103F80000E94F0E99B01AC0160E070E080E89FE3F3
:103F90000E9452E1C058DF4F688379838A839B83F4
:103FA000C058D040C457DF4FC880D980EA80FB801A
:103FB000CC58D040C986DA86EB86FC86C057DF4FE6
:103FC000C880D980EA80FB80C059D040CD86DE868B
:103FD000EF86F88A6091110170911201072E000C92
:103FE000880B990B0E9491E9209100013091010109
:103FF00040910201509103010E94F0E92AE037ED5F
:1040000043E25CE30E94F0E9C457DF4F68837983A1
:104010008A839B83CC58D0400E94FE6C9B01AC01EC
:1040200028533F4F4F4F5F4FC057DF4F288339838F
:104030004A835B83C059D040E5964FACE597E6963E
:104040005FACE697E7966FACE797E8967FACE897AA
:1040500022242394312CD12CEE968EAD9FADEE9779
:104060002816390609F45DC10E9431590E94FE6C80
:10407000DC01CB01C057DF4F288139814A815B8148
:10408000C059D040821B930BA40BB50BB7FD12C0D7
:104090000E94FE6C9B01AC0128533F4F4F4F5F4F76
:1040A000C057DF4F288339834A835B83C059D04090
:1040B0000E947BC4D39438E13D150CF44FC0C05826
:1040C000DF4F288139814A815B81C058D040EC960E
:1040D0006CAD7DAD8EAD9FADEC970E94F0E94B01CC
:1040E0005C01E4962CAD3DAD4EAD5FADE497B20101
:1040F000C3010E94F0E9A50194010E9453E17B01F4
:104100008C01C058DF4F288139814A815B81C058BA
:10411000D040B201C3010E94F0E94B015C01E4967A
:104120002CAD3DAD4EAD5FADE497EC966CAD7DAD85
:104130008EAD9FADEC970E94F0E99B01AC01C501EB
:10414000B4010E9452E12B013C01C701D801EC9659
:104150008CAF9DAFAEAFBFAFEC975AC0B10180E05E
:1041600090E00E948FE9E4962CAD3DAD4EAD5FAD81
:10417000E4970E94F0E94B015C010E9448E26B0168
:104180007C01C501B4010E94F3E34B015C01A7016E
:104190009601E8966CAD7DAD8EAD9FADE8970E941F
:1041A000F0E92B013C01A5019401E0966CAD7DADD9
:1041B0008EAD9FADE0970E94F0E99B01AC01C30179
:1041C000B2010E9453E12B013C01A5019401E89644
:1041D0006CAD7DAD8EAD9FADE8970E94F0E94B01CF
:1041E0005C01A7019601E0966CAD7DAD8EAD9FADF3
:1041F000E0970E94F0E99B01AC01C501B4010E9467
:1042000052E1EC966CAF7DAF8EAF9FAFEC97D12CA7
:104210009201A301CC57DF4F688179818A819B810C
:10422000C458D0400E9453E169837A838B839C8376
:10423000EC962CAD3DAD4EAD5FADEC97C857DF4F62
:10424000688179818A819B81C858D0400E9453E15E
:104250006D837E838F839887CC56DF4F2881398189
:104260004A815B81C459D04069857A858B859C855C
:104270000E9453E169877A878B879C87C856DF4FF6
:10428000288139814A815B81C859D0406D857E85FE
:104290008F8598890E9453E16D877E878F87988BE1
:1042A000CE0101960E94C1C6C090850389819A8182
:1042B000AB81BC818DA39EA3AFA3B8A78D819E8146
:1042C000AF81B88589A79AA7ABA7BCA789859A852E
:1042D000AB85BC858DA79EA7AFA7B8ABAE01435DEC
:1042E0005F4FBE01675D7F4FCE0185960E949DC7DF
:1042F000C457DF4FE880F9800A811B81CC58D04039
:104300009E01235F3F4FAE01435D5F4FBE01675D7E
:104310007F4FCE0185960E9477974FEF241A340A7B
:104320009BCEC09085038091771390917813A091D4
:104330007913B0917A138DA39EA3AFA3B8A78091F0
:104340007B1390917C13A0917D13B0917E1389A76C
:104350009AA7ABA7BCA780917F1390918013A091DF
:104360008113B09182138DA79EA7AFA7B8ABAE0102
:10437000435D5F4FBE01675D7F4FCE0185960E9412
:104380009DC7C457DF4FE880F9800A811B81CC5854
:10439000D04023E833E1AE01435D5F4FBE01675D6E
:1043A0007F4FCE0185960E9477970E94D93B0E944D
:1043B0005B3F0C94B238E2E4FCE084918F010F5F24
:1043C0001F4F882321F00E94A03FF801F6CFEAE7B3
:1043D000F1E084918F010F5F1F4F882311F40C943B
:1043E000B2380E94A03FF801F4CF80E50E943E3C25
:1043F000882329F00E94C63C6B017C0103C0C12CBC
:10440000D12C760183E50E943E3C882321F00E9456
:104410006E3D6B017C010E94F85B0E945B3F8091C6
:104420006F1390917013A0917113B0917213C80E15
:10443000D91EEA1EFB1E80915401811105C060E067
:1044400080E991E00E9465740E94FE6CDC01CB0162
:104450008C199D09AE09BF09B7FD02C00C94B23892
:104460000E947BC4F1CF0E94F85B80E00E941D3A5D
:104470000E94803F11E010939D0188E50E943E3C20
:10448000E82E89E50E943E3C082F8AE50E943E3CCA
:10449000F82EE11005C0011105C0982F912705C025
:1044A000011102C090E001C0982F9093040180E1B7
:1044B000E9EDF0E1A7E7B3E101900D928A95E1F70C
:1044C000911104C0E11002C00023D9F120E030E0D6
:1044D00040EA50E4609184047091850480918604E0
:1044E000909187040E9453E12091780430917904DF
:1044F00040917A0450917B040E9453E160937F13B2
:104500007093801380938113909382132091E11014
:104510003091E2104091E3105091E4100E94B3E317
:1045200018167CF419821A821B821C829E012F5F4E
:104530003F4F4FE753E16DED70E189ED90E10E944F
:10454000323A80910401811102C0EE2021F080E016
:1045500090E00E9476C280910401811102C0002384
:1045600021F081E090E00E9476C2809104018111E7
:1045700003C0FF2009F4D3C08091D510882321F017
:104580008091D61081111EC060E08DEC91E00E94F8
:104590006574EFE3F8E284918F010F5F1F4F88236A
:1045A00021F00E94A03FF801F6CFECEBF1E08491FE
:1045B0008F010F5F1F4F882309F4B1C00E94A03FF5
:1045C000F801F5CF0E94FA3D20E030E048EC52E4DB
:1045D00060917C0470917D0480917E0490917F04B1
:1045E0000E9453E120917004309171044091720453
:1045F000509173040E9453E14B015C016093771367
:10460000709378138093791390937A1320E030E0BD
:1046100048EC52E46091800470918104809182049E
:10462000909183040E9453E12091740430917504A9
:1046300040917604509177040E9453E16B017C0114
:1046400060937B1370937C1380937D1390937E1300
:104650008091E1109091E210A091E310B091E410EC
:1046600080937F1390938013A0938113B093821350
:1046700087E793E10E9445548823A1F120E030E0D0
:104680004CE052E4C501B4010E9452E160937713FB
:10469000709378138093791390937A1320E030E02D
:1046A00048E452E4C701B6010E9453E160937B13D2
:1046B00070937C1380937D1390937E1319821A82DA
:1046C0001B821C829E012F5F3F4F41EE50E16BE742
:1046D00073E187E793E10E94323A82E090E00E9422
:1046E00076C21DC060E08BEA91E00E946574EFE342
:1046F000F8E284918F010F5F1F4F882321F00E9401
:10470000A03FF801F6CFE9E9F1E084918F010F5F56
:104710001F4F882321F00E94A03FF801F6CF0E948E
:10472000FA3D80919B1380939D010E94663F0E94F9
:1047300031B20C94B2380E940AA681110C94B2389E
:1047400086E50E943E3C882321F00E94B93C1C0172
:1047500003C022242394312C95E02916310470F0F3
:10476000EDEDF1E084918F010F5F1F4F882311F46D
:104770000C94B2380E94A03FF801F4CF84E40E9468
:104780003E3CAD968FAFAD9785E40E943E3CC82E6F
:104790000E94F85BD0905D0D10925D0DAD96EFAC70
:1047A000AD97E1100AC00E94A2C687E893E10E947B
:1047B00034A40E946CC20E94FA3D0E94803F81E0B6
:1047C0000E948E3B811128C380E090E0A8E4B2E40F
:1047D00089839A83AB83BC8340E050E066E173E455
:1047E0004D835E836F83788719861A861B861C86A5
:1047F0008D879E87AF87B88B898B9A8BAB8BBC8B51
:104800001D8A1E8A1F8A188E498F5A8F6B8F7C8F44
:104810008D8F9E8FAF8FB8A319A21AA21BA21CA2C4
:104820008E010F5F1F4F7E0125E2E20EF11C2091E9
:104830007C0430917D0440917E0450917F04D80126
:104840006D917D918D919C910E9453E12091700416
:104850003091710440917204509173040E9453E1AD
:10486000AC966CAF7DAF8EAF9FAFAC9720918004BC
:10487000309181044091820450918304F801648155
:104880007581868197810E9453E120917404309153
:10489000750440917604509177040E9453E1A896E4
:1048A0006CAF7DAF8EAF9FAFA89791014C2DBE012D
:1048B0006C597F4FCE0188599F4F0E942E44E89635
:1048C0006CAF7DAF8EAF9FAFE897D80118966D9310
:1048D0007D938D939C931B97045F1F4F0E151F05AF
:1048E00009F0A5CFAD96CFACAD97C11090C2CD84E5
:1048F000DE84EF84F88849885A886B887C888D88A4
:104900009E88AF88B88CA501940169A17AA18BA17A
:104910009CA10E9452E1EC966CAF7DAF8EAF9FAF31
:10492000EC97A30192016D8D7E8D8F8D98A10E94D1
:1049300052E1E4966CAF7DAF8EAF9FAFE497A701D5
:104940009601698D7A8D8B8D9C8D0E9452E1C458A1
:10495000DF4F688379838A839B83CC57D040A5013E
:10496000940169857A858B859C850E9452E14B0173
:104970005C01A301920160E070E086E193E40E9493
:1049800052E12B013C01A701960160E070E088E450
:1049900092E40E9452E16B017C01EC962CAD3DAD9E
:1049A0004EAD5FADEC97C301B2010E94F0E9C05873
:1049B000DF4F688379838A839B83C058D040E49615
:1049C0002CAD3DAD4EAD5FADE497C501B4010E9485
:1049D000F0E99B01AC01C058DF4F688179818A8181
:1049E0009B81C058D0400E9452E16C966CAF7DAF65
:1049F0008EAF9FAF6C97C458DF4F288139814A81B1
:104A00005B81CC57D040C501B4010E94F0E94B0155
:104A10005C01EC962CAD3DAD4EAD5FADEC97C701A2
:104A2000B6010E94F0E99B01AC01C501B4010E94EE
:104A300052E1A0966CAF7DAF8EAF9FAFA097E4968A
:104A40002CAD3DAD4EAD5FADE497C701B6010E9400
:104A5000F0E96B017C01C458DF4F288139814A811C
:104A60005B81CC57D040C301B2010E94F0E99B01A9
:104A7000AC01C701B6010E9452E1A4966CAF7DAFB4
:104A80008EAF9FAFA497CE01885A9F4F0E948ED8B9
:104A90006C96CCACDDACEEACFFAC6C97A0964CAC9D
:104AA0005DAC6EAC7FACA097A4968CAC9DACAEAC6C
:104AB000BFACA49720E030E0A901C501B4010E9479
:104AC0008AE987FF0CC0F7FAF094F7F8F09477FAC8
:104AD000709477F87094B7FAB094B7F8B0946C9675
:104AE000CCAEDDAEEEAEFFAE6C97A0964CAE5DAE3A
:104AF0006EAE7FAEA097A4968CAE9DAEAEAEBFAEAE
:104B0000A4976096CCAEDDAEEEAEFFAE6097649635
:104B10004CAE5DAE6EAE7FAE649768968CAE9DAEC9
:104B2000AEAEBFAE6897CE01845B9F4F0E948ED819
:104B300080E090E0A0E8BFE324968CAF9DAFAEAFDD
:104B4000BFAF249728961CAE1DAE1EAE1FAE289791
:104B5000C701B6019058A50194010E944DE22C9620
:104B60006CAF7DAF8EAF9FAF2C97CE01805C9F4F17
:104B70000E948ED86096CCACDDACEEACFFAC6097FA
:104B8000EC96CCAEDDAEEEAEFFAEEC9764964CACE0
:104B90005DAC6EAC7FAC649768968CAC9DACAEACF3
:104BA000BFAC68972496CCACDDACEEACFFAC2497E0
:104BB000E496CCAEDDAEEEAEFFAEE4972896CCAC7C
:104BC000DDACEEACFFAC2897C458DF4FC882D98269
:104BD000EA82FB82CC57D0402C96CCACDDACEEAC5C
:104BE000FFAC2C97A7019601C301B2010E94F0E926
:104BF000C058DF4F688379838A839B83C058D04035
:104C0000C458DF4F288139814A815B81CC57D0401D
:104C1000C501B4010E94F0E99B01AC01C058DF4F0F
:104C2000688179818A819B81C058D0400E9452E17D
:104C30006DA37EA38FA398A7E4962CAD3DAD4EAD9A
:104C40005FADE497C501B4010E94F0E94B015C013E
:104C5000A7019601EC966CAD7DAD8EAD9FADEC9746
:104C60000E94F0E99B01AC01C501B4010E9452E130
:104C700069A77AA78BA79CA7C458DF4F28813981E1
:104C80004A815B81CC57D040EC966CAD7DAD8EAD4A
:104C90009FADEC970E94F0E96B017C01E4962CAD8E
:104CA0003DAD4EAD5FADE497C301B2010E94F0E9A6
:104CB0009B01AC01C701B6010E9452E16DA77EA71E
:104CC0008FA798ABCE0185960E948ED824964CACC7
:104CD0005DAC6EAC7FAC249728968CAC9DACAEAC32
:104CE000BFAC28972C96CCACDDACEEACFFAC2C97CF
:104CF0002DA13EA14FA158A5EC962CAF3DAF4EAFD4
:104D00005FAFEC9789A59AA5ABA5BCA5E4968CAF3F
:104D10009DAFAEAFBFAFE4972DA53EA54FA558A957
:104D2000C458DF4F288339834A835B83CC57D040F4
:104D300060960CAD1DAD2EAD3FAD609764964CAD49
:104D40005DAD6EAD7FAD649768968CAD9DADAEAD3B
:104D5000BFAD68974092CC0D5092CD0D6092CE0DB4
:104D60007092CF0D8092D00D9092D10DA092D20D65
:104D7000B092D30DC092D40DD092D50DE092D60D45
:104D8000F092D70DEC96CCACDDACEEACFFACEC9772
:104D9000C092D80DD092D90DE092DA0DF092DB0DD1
:104DA000E496CCACDDACEEACFFACE497C092DC0D8D
:104DB000D092DD0DE092DE0DF092DF0DC458DF4F92
:104DC000C880D980EA80FB80CC57D040C092E00DEB
:104DD000D092E10DE092E20DF092E30D0093E40D2C
:104DE0001093E50D2093E60D3093E70D4093E80D09
:104DF0005093E90D6093EA0D7093EB0D8093EC0DE9
:104E00009093ED0DA093EE0DB093EF0DD12C80E0BB
:104E10000E948E3B882321F0D0925D0D0C94B23815
:104E20000E94663F232821F082ED92E00E9429D75C
:104E3000AD96EFACAD97E11094C08CE0E9EDF0E1F8
:104E4000DE01959601900D928A95E1F781E08093BD
:104E50005D0DCE0185960E9434A410925D0D20E078
:104E600030E04CE052E4AC966CAD7DAD8EAD9FADC4
:104E7000AC970E9452E19B01AC016091D9107091F6
:104E8000DA108091DB109091DC100E9452E14B010E
:104E90005C012DEB37E346E855EB0E94B3E31816AF
:104EA0000CF056C02DEB37E346E855E3C501B401DD
:104EB0000E948AE987FF4CC020E030E048E452E4D9
:104EC000A8966CAD7DAD8EAD9FADA8970E9453E1C5
:104ED0009B01AC016091DD107091DE108091DF10BC
:104EE0009091E0100E9452E14B015C012DEB37E301
:104EF00046E855EB0E94B3E3181654F52DEB37E363
:104F000046E855E3C501B4010E948AE987FF20C045
:104F10002091E0123091E1124091E2125091E3129F
:104F2000E8966CAD7DAD8EAD9FADE8970E9453E1E4
:104F30009B01AC016091E1107091E2108091E3104F
:104F40009091E4100E9452E16DA77EA78FA798ABC5
:104F50008CE0FE01B596A9EDB0E101900D928A9525
:104F6000E1F70E9431B281E090E090936E1380935C
:104F70006D13AD96FFACAD97FF2011F08D2D01C0E4
:104F800081E080935D0D882311F40C94B2380E9467
:104F9000FA3D0C94B23888E50E943E3C882319F013
:104FA0000E94D13C0EC020E030E04CE052E4609121
:104FB000D9107091DA108091DB109091DC100E9472
:104FC00053E124966CAF7DAF8EAF9FAF249789E5F8
:104FD0000E943E3C882319F00E94D13C0EC020E084
:104FE00030E048E452E46091DD107091DE10809171
:104FF000DF109091E0100E9452E16DA37EA38FA379
:1050000098A724960CAD1DAD2EAD3FAD2497098316
:105010001A832B833C836D837E838F83988720E064
:1050200030E0A90160918404709185048091860428
:10503000909187040E9453E1209178043091790483
:1050400040917A0450917B040E9453E169877A87EA
:105050008B879C87CE0101960E944554882311F4CA
:105060000C94B23883E50E943E3C882321F00E94D4
:10507000803C482F01C041E080E0C955DF4F4883A4
:10508000C75AD0400E941D3A0E94803F21E030E084
:10509000C955DF4F4881C75AD040BE016B5D7F4F75
:1050A000CE01805C9F4F0E942E446B017C01EFE09B
:1050B000F2E084918F010F5F1F4F882321F00E943F
:1050C000A03FF801F6CF27E137EB41ED58E32496F6
:1050D0006CAD7DAD8EAD9FAD24970E9453E142E053
:1050E0000E94B943EAE0F2E084918F010F5F1F4F05
:1050F000882321F00E94A03FF801F6CF27E137EB8B
:1051000041ED58E36DA17EA18FA198A50E9453E1C6
:1051100042E00E94B943E5E0F2E084918F010F5F25
:105120001F4F882321F00E94A03FF801F6CF27E10E
:1051300037EB41ED58E3C701B6010E9453E142E06D
:105140000E94B9438AE00E94A03F0E94663F0E94ED
:1051500031B20C94B23810928A030C94B23881E0C8
:1051600080938A030C94B33885E40E943E3CB82EA9
:10517000811102C00E94F85B31E0832E32E0932E51
:1051800049EDC42E40E1D42E50E7E52E54E0F52E33
:1051900000E010E0A12CD4018D914D010E943E3C15
:1051A000882309F44EC0F601208131814281538168
:1051B000CC55DF4F2883C45AD040CB55DF4F3883BE
:1051C000C55AD040C955DF4F4883C75AD040CA5549
:1051D000DF4F5883C65AD0400E94D13CD6016D9310
:1051E0007D938D939C931397CC55DF4F2881C45AA0
:1051F000D040CB55DF4F3881C55AD040C955DF4F1D
:105200004881C75AD040CA55DF4F5881C65AD0404E
:1052100003301105B1F00E9452E19B01AC01F7018E
:1052200060817181828193810E9453E1D7016D93E6
:105230007D938D939C931397C8010E94E53EAA2409
:10524000A3940F5F1F4FB4E0CB0ED11CE4E0EE0E31
:10525000F11C0430110509F09ECFAA2019F00E941C
:10526000FA3D37C0BB20A9F1C090E510D090E61000
:10527000E090E710F090E810209198123091991288
:1052800040919A1250919B12C701B6010E94F0E919
:105290000E94C0E36093100E7093110E8093120E63
:1052A0009093130EC701B6010E94BFE22FB7F89486
:1052B0006093750B7093760B8093770B9093780BBC
:1052C0002FBF1092000E1092010E1092020E10923B
:1052D000030E0E9431B20C94B238F1E7EF16F104DC
:1052E00009F494C608F0E5C030E3E316F10409F4CC
:1052F0006FC508F06EC058E1E516F10409F4BEC2AE
:10530000F0F592E1E916F10411F40C940134B0F4D3
:10531000B2E0EB16F10408F4EAC1E1E1EE16F104A3
:1053200011F00C94B23860E08AE492E00E94657457
:105330005E985E9815985E980C94B238F5E1EF1679
:10534000F10409F491C248F434E1E316F10411F0D8
:105350000C94B238E2E6F2E044C246E1E416F1040D
:1053600009F486C257E1E516F10411F00C94B23845
:1053700040E061E0C8010E94904F0C94B2388CE18B
:10538000E816F10409F4CFC258F4AAE1EA16F104D0
:1053900009F47FC208F08BC21092440E0C94B2380C
:1053A000EFE1EE16F10409F423C438F42EE1E2161D
:1053B000F10409F4BFC20C94B23830E2E316F104F0
:1053C00009F4C6C34AE2E416F10409F4B9C40C9422
:1053D000B2385CE5E516F10411F40C943B3490F519
:1053E00091E5E916F10411F40C94E233A0F4BCE465
:1053F000EB16F10409F4F0C4EDE4EE16F10409F43F
:1054000005C5FBE4EF16F10411F00C94B2380E94CC
:1054100034550C94B23823E5E216F10411F40C94DF
:10542000FD3310F40C94FA3344E5E416F10411F45E
:105430000C94013455E5E516F10411F40C942A346A
:105440000C94B2388CE6E816F10409F4D7C5D8F408
:10545000A9E6EA16F10409F41EC638F4E8E6EE16E9
:10546000F10409F4D7C40C94B238FAE6EF16F1044B
:1054700011F40C94AE332BE6E216F10411F40C9403
:10548000D2330C94B2383EE6E316F10409F406C5B3
:1054900008F41EC65FE6E516F10409F412C580E7BC
:1054A000E816F10411F00C94B2388BE593E00E94F9
:1054B0000FC492EEE916F10411F40C942D3608F0A5
:1054C00080C0BEEBEB16F10411F40C94273290F57A
:1054D000F7E7EF16F10411F40C94D334A8F433E792
:1054E000E316F10411F40C94C63410F40C94C33494
:1054F00055E7E516F10411F00C94B23860E0C801EC
:105500000E947A740C94B23889E7E816F10411F419
:105510000C943D3510F40C943735ACE8EA16F104E0
:1055200009F4A0C5B1E9EB16F10411F40C9442356D
:105530000C94B238EDECEE16F10411F40C94243610
:10554000F8F429ECE216F10411F40C94FF3540F460
:1055500048ECE416F10411F40C94B6350C94B2380E
:105560005BECE516F10411F40C9421368CECE81692
:10557000F10411F00C94B2380E94A6B10C94B23828
:1055800093EDE916F10411F40C94273650F4BEECB7
:10559000EB16F10411F00C94B2380E94F0B20C94A6
:1055A000B238ECEDEE16F10411F40C942A36FDED50
:1055B000EF16F10411F00C94B2380E947FB00C94F5
:1055C000B2382AE9E21621E0F20609F41BC508F018
:1055D00043C04FE2E41641E0F40611F40C94A43603
:1055E000A8F48DE2E81681E0F80611F40C94303648
:1055F00010F00C943336ACE2EA16A1E0FA0611F092
:105600000C94B2380E94F4AF0C94B238B0E9EB16A7
:10561000B1E0FB0611F40C94A73658F4F3E6EF164C
:10562000F1E0FF0611F00C94B238E2E4FCE00C94D7
:105630005E3821E9E21621E0F20611F40C94AA3654
:1056400032E9E31631E0F30611F00C94B23880E051
:105650000E948E3B0C94B23846EFE41641E0F4060B
:1056600011F40C94163818F58CEAE81681E0F80667
:1056700011F40C94FE3648F4A4EAEA16A1E0FA0606
:1056800011F40C94AE360C94B238B4EFEB16B1E0D2
:10569000FB0611F40C941338E5EFEE16E1E0FE067C
:1056A00011F00C94B2380E94A4810C94B238F3E546
:1056B000EF16F3E0FF0611F40C94253848F437EFA9
:1056C000E31631E0F30611F40C9419380C94B23857
:1056D00040EAE41643E0F40609F480C257EEE5160A
:1056E00053E0F50611F40C9475380C94B23880E54B
:1056F0000E943E3C882361F00E94C63C6B017C0105
:10570000BB24B394672B682B692B31F4B12C04C0F4
:10571000B12CC12CD12C760183E50E943E3C88231C
:1057200099F00E946E3D6B017C01B1100FC0672B98
:10573000682B692B59F4D8018C91882339F061E0EA
:10574000C8010E947A7407C0BB20A9F360E089E316
:1057500092E00E94657481E08093110C83E090E0F8
:1057600090936E1380936D130E94F85B0E945B3FD1
:10577000C114D104E104F104E9F080916F13909118
:105780007013A0917113B0917213C80ED91EEA1E46
:10579000FB1E0E94FE6CDC01CB018C199D09AE0939
:1057A000BF09B7FF1AC08091110C8823B1F00E9485
:1057B0007BC4EFCF8091110C882319F00E947BC429
:1057C000F9CF8091440E60E0882319F08AE292E0DC
:1057D00002C087E192E00E9465741092110C0C9453
:1057E000B23884918F010F5F1F4F882321F00E94F0
:1057F000A03FF801F6CF1092CA101092C91040E0F5
:1058000050E0BA0185E79EE00E9464D08BE1E5E7B5
:10581000FEE0DE01159601900D928A95E1F78091E8
:10582000730E9091740E9C838B8385E692E09A832D
:10583000898340E050E0BE016F5F7F4F8DE293E0CF
:105840000E94A5A9CE0101960E94FDC3E3E5F2E006
:1058500084918F010F5F1F4F882311F40C94B2388D
:105860000E94A03FF801F4CF0E94C7520C94B238B6
:105870001092440E1092450E0C94B2388091450E51
:10588000882319F081E08093440E0E9434550C94D3
:10589000B2388091450E882311F40C94B23883E518
:1058A0000E943E3C81110C94D6380C94B238809101
:1058B000450E882351F1E3E7F2E084918F010F5FF9
:1058C0001F4F882321F00E94A03FF801F6CF60917E
:1058D000C0107091C1108091C2109091C3104AE025
:1058E0000E94CE3F8FE20E94A03F6091BC10709159
:1058F000BD108091BE109091BF104AE00E94CE3F33
:105900008AE00E94A03F0C94B238E5E8F2E084916E
:105910008F010F5F1F4F882311F40C94B2380E943F
:10592000A03FF801F4CF40E060E0C8010E94904F32
:105930000C94B2388091450E882311F40C94B2383F
:105940008FE090E10E9450878FE090E10E9471D239
:105950001092430E1092420EE0908B03F0908C0355
:105960008091450E882311F40C94B2380E94854F23
:105970001D8218861C821B8285E692E09A838983A9
:1059800081E79EE09093910E8093900EF7018081C5
:105990008F3209F068C06FE270E0C7010E94A1E495
:1059A0008C010F5F1F4F9E012F5F3F4F4901011573
:1059B000110509F45EC06FE270E0C8010E94A1E425
:1059C0006C01009709F456C00817190708F052C077
:1059D0005C01A01AB10AA501B801CE0185960E940A
:1059E000CAE4E5E2F0E0EC0FFD1FEA0DFB1D1082BA
:1059F0008E010B5D1F4FD8018D918D01882319F009
:105A00000E94A03FF8CF8AE00E94A03F6091900ED4
:105A10007091910E6115710511F06C5F7F4F21E05F
:105A2000AE014B5D5F4FCE0105960E9429D68111D4
:105A300012C0BE016B5D7F4F8CEB92E00E94A73FCE
:105A40008EE20E94A03F8AE00E94A03FC4010E9413
:105A5000FDC30C94B2389092910E8092900E860104
:105A60000F5F1F4FA4CF82E99EE09093910E809329
:105A7000900E87016091900E7091910E61157105E5
:105A800011F06C5F7F4F1DA218A622E0A801CE0185
:105A900085960E9429D6811102C0F12C14C0CE0136
:105AA00085960E9413A98823C1F361E0CE018596F3
:105AB0000E947AD2009789F325EEFC01208318A674
:105AC0000E94FA84F82ECE0185960E94323FFF2074
:105AD00009F1E6E9F2E084917F012FEFE21AF20A80
