:100000000C946C190C9496190C9496190C949619DE
:100010000C9496190C9496190C9496190C949619A4
:100020000C9496190C9496190C9496190C94961994
:100030000C9496190C9433570C9496190C949619A9
:100040000C9496190C94C94F0C9440680C94961912
:100050000C9444440C9496190C9496190C9496198B
:100060000C9496190C9496190C9496190C94961954
:100070000C9496190C9496190C9496190C94961944
:100080000C9496190C9496190C9496191A502950A0
:1000900048505750725077507A507F508250875056
:1000A0008A508F509950AF67B467B967C367F167DB
:1000B000F167CD67D567DD67E767418044803780AA
:1000C0003B805B805B8048804C8052805680084A31
:1000D000D73B3BCE016E84BCBFFDC12F3D6C74315C
:1000E0009ABD56833DDA3D00C77F11BED9E4BB4CB3
:1000F0003E916BAAAABE000000803F05A84CCDB27D
:10010000D44EB93836A9020C50B9918688083CA65D
:10011000AAAA2ABE000000803F00434F4D4D554E15
:1001200049434154494F4E0044525952554E00459F
:1001300052524F525300494E464F004543484F00DC
:1001400020746F6F206C6F6E6720657874727573A2
:10015000696F6E2070726576656E7465640A002042
:10016000636F6C6420657874727573696F6E20704C
:10017000726576656E7465640A00536C6565702EF1
:100180002E2E005A2070726F6265206F75742E20BB
:100190006265640A005A2070726F6265206F757420
:1001A0002E2062656400473238205A20466F726202
:1001B000696464656E0A00473238205A20466F72BF
:1001C00062696464656E00205A3A200020593A2022
:1001D0000042656420583A20004D616C79616E20C0
:1001E0004D3135302072656164792E00526573752A
:1001F0006D696E67207072696E7400576169742052
:10020000666F7220757365722E2E2E004E6F206DF4
:100210006F76652E00456E642066696C65206C699A
:1002200073740A00426567696E2066696C65206CAC
:100230006973740A005344207072696E74696E6742
:10024000206279746520004E6F74205344207072D0
:10025000696E74696E670A0046696C652064656C36
:10026000657465643A0044656C6574696F6E2066F8
:1002700061696C65642C2046696C653A20006F707A
:10028000656E206661696C65642C2046696C653A10
:1002900020002569730025696D2025697300256993
:1002A000682025696D20256973002569642025690A
:1002B000682025696D2025697300256979202569E5
:1002C00064202569682025696D20256973005072B6
:1002D000696E742074696D653A200050726F7465A0
:1002E000637465642050696E0A0048656174696EC4
:1002F000672E2E2E004D616C79616E204D313530A8
:100300002072656164792E003B0136012F012801BE
:100310001A016F66660044454255473A004B494C06
:100320004C45442E20004D3131332053006F6B007B
:1003300042656420646F6E652E003F0A0020573AC4
:10034000004265642048656174696E672E004D61E6
:100350006C79616E204D313530204F66662E004637
:1003600049524D574152455F4E414D453A4D61729C
:100370006C696E20312E312E302D5243382042755B
:100380006746697820362044656320323031362054
:10039000284769746875622920534F555243455F59
:1003A000434F44455F55524C3A68747470733A2F0A
:1003B0002F6769746875622E636F6D2F4D61726C63
:1003C000696E4669726D776172652F4D61726C69F5
:1003D0006E2050524F544F434F4C5F564552534935
:1003E0004F4E3A312E30204D414348494E455F54DF
:1003F0005950453A4D616C79616E204D3135302050
:1004000045585452554445525F434F554E543A3126
:1004100020555549443A63656465326132662D342E
:100420003161322D343734382D396231322D633514
:10043000356336326633363766660A007A5F6D6931
:100440006E3A2000795F6D696E3A2000785F6D69C1
:100450006E3A20005265706F7274696E6720656E27
:100460006473746F70207374617475730A004D3116
:10047000343520533C696E6465783E206F75742076
:100480006F662072616E67652028302D31290A0061
:1004900053657474696E672054726176656C20418F
:1004A0006363656C65726174696F6E3A20005365B1
:1004B0007474696E6720526574726163742041635D
:1004C00063656C65726174696F6E3A200053657480
:1004D00074696E67205072696E7420416363656C45
:1004E00065726174696F6E3A200053657474696E49
:1004F00067205072696E7420616E64205472617658
:10050000656C20416363656C65726174696F6E3AF6
:100510002000205A00205900580020204D61783AD0
:100520002000205A00205900580020204D696E3AC2
:1005300020004F6E20004F666600536F6674206582
:100540006E6473746F70733A200020643A002069FF
:100550003A0020703A0043290A0061626C65642009
:10056000286D696E2074656D702000436F6C642087
:100570006578747275646573206172652000236408
:100580006566696E65202044454641554C545F4B75
:1005900064200023646566696E65202044454641F9
:1005A000554C545F4B69200023646566696E652075
:1005B0002044454641554C545F4B702000504944FF
:1005C000204175746F74756E652066696E69736815
:1005D0006564212050757420746865206C617374A3
:1005E000204B702C204B6920616E64204B6420638B
:1005F0006F6E7374616E74732066726F6D206265C6
:100600006C6F7720696E746F20436F6E66696775D3
:10061000726174696F6E2E680A00504944204175FA
:10062000746F74756E65206661696C6564212074F1
:10063000696D656F75740A00504944204175746F87
:1006400074756E65206661696C6564212054656D02
:10065000706572617475726520746F6F2068696768
:10066000680A00204B643A2000204B693A200020A1
:100670004B703A20000A20436C6173736963205009
:100680004944200A002054753A2000204B753A2036
:1006900000206D61783A2000206D696E3A200020BC
:1006A000643A200020626961733A20004F666673E5
:1006B000657473206170706C696564004572723A8C
:1006C00020546F6F206661722100546F6F20666145
:1006D000722066726F6D207265666572656E636505
:1006E00020706F696E740A003A20007A5F6D61783D
:1006F0003A20007A5F6D696E3A20005A204F666694
:10070000736574004E6F2063617365206C69676860
:10071000740A004163746976652045787472756463
:1007200065723A2000556E6B6E6F776E20636F6D49
:100730006D616E643A2022004E6F204C696E652018
:100740004E756D62657220776974682063686563B1
:100750006B73756D2C204C617374204C696E653A17
:1007600020004B494C4C45442E200053544F5050D0
:1007700045442E20005072696E7465722073746F48
:10078000707065642064756520746F206572726F87
:1007900072732E2046697820746865206572726FC6
:1007A0007220616E6420757365204D39393920746B
:1007B0006F20726573746172742E202854656D7099
:1007C00065726174757265206973207265736574F2
:1007D0002E205365742069742061667465722072DE
:1007E000657374617274696E67290A004E6F2043E5
:1007F0006865636B73756D2077697468206C696ECA
:1008000065206E756D6265722C204C617374204C8E
:10081000696E653A2000636865636B73756D206D62
:1008200069736D617463682C204C617374204C692A
:100830006E653A20004C696E65204E756D6265727A
:10084000206973206E6F74204C617374204C696E44
:1008500065204E756D6265722B312C204C6173746E
:10086000204C696E653A20004D313130004D3331F6
:10087000004D383420582059205A20450053442038
:1008800072656164206572726F720A00446F6E65F2
:10089000207072696E74696E672066696C650A0003
:1008A00020496E76616C6964206578747275646540
:1008B0007220000000484300004843000034430019
:1008C0000000000000000000000000205A3A200054
:1008D00020593A200042656420583A200047322FC0
:1008E00047332062616420706172616D6574657266
:1008F000730A0020706F736974696F6E206F75746E
:10090000206F662072616E67652E0A003F50726F1D
:100910006265200025753A25303275002530327524
:100920003A253032750025756420253032753A2518
:10093000303275005A0059005800092000000000AC
:100940000000000000000000007FFFE00000000049
:1009500000000000000000007000E0000000000047
:100960000000000000000061F860000000000000CE
:1009700000000000000041F820000000000000001E
:10098000000000000040F020000000000000000017
:100990000000000040602000000000000000000097
:1009A0000000005801A07F8000000000000000410E
:1009B00004005C63A0FFC000000000000000208273
:1009C000005EF7A0FFC000000000000000208200D1
:1009D0005EF7A0FFC0000000000000004104005CC2
:1009E00063A07F8000000000000000820800580122
:1009F000A07F800000000000000104100040602083
:100A0000FFC00000000000000104100040F020FFC3
:100A1000C00000000000000082080041F820FFC074
:100A20000000000000000041040061F8603F000089
:100A30000000000000000000007000E01E00000048
:100A40000000000001FFFF807FFFE00C00000000BD
:100A500000000001FFFF8000000000000000000017
:100A60000000000000007FFFE00000000000000028
:100A700000000000007000E0000000000000000026
:100A800000000000630C6000000000000000000097
:100A9000000000470E2000000000000000000000E1
:100AA00000004F0F200000000000000000000000C8
:100AB000005F0FA000000000000000000000000028
:100AC0005E07A07F8000000000000000410400409D
:100AD0006020FFC00000000000000020820040F005
:100AE00020FFC00000000000000020820040F02035
:100AF000FFC0000000000000004104004060207FB3
:100B000080000000000000008208005E07A07F80D7
:100B1000000000000000010410005F0FA0FFC000F3
:100B20000000000000010410004F0F20FFC0000073
:100B30000000000000820800470E20FFC0000000F7
:100B400000000000410400630C603F000000000052
:100B50000000000000007000E01E00000000000027
:100B60000001FFFF807FFFE00C000000000000009C
:100B700001FFFF80000000496E69742E205344205D
:100B800063617264004E6F2053442063617264009D
:100B90004D3231004368616E6765205344206361C4
:100BA0007264005072696E742066726F6D205344D7
:100BB000004D32310053746F70207072696E740092
:100BC000526573756D65207072696E740050617541
:100BD0007365207072696E7400436F6E74726F6C0F
:100BE00000507265706172650054756E6500496EE3
:100BF000666F2073637265656E0000060900FE0073
:100C00000000000001090008FE00000508080600B9
:100C10000040F0C88888987810050808060000C0D1
:100C2000F88888888888F80505050600012030F8CE
:100C300030200508080600002070F820202020E061
:100C40000509090600FF2070A8A8B888887020054B
:100C500009090600FFE080C0B0A82830282805094F
:100C6000090600FFF8A88888888888A8F8050A0A75
:100C70000600FE205050505088A8A8887003030337
:100C800006000340A040544845524D414C20525567
:100C90004E4157415900546865726D616C20527520
:100CA0006E61776179004572723A204D4158544522
:100CB0004D5020424544004572723A204D415854EF
:100CC000454D50004D415854454D50207472696750
:100CD0006765726564004572723A204D494E54450D
:100CE0004D5020424544004572723A204D494E54C1
:100CF000454D50004D494E54454D50207472696722
:100D000067657265640000000000000000000000DC
:100D100000000000000000000000000000000000D3
:100D200000000000000000000000000000000000C3
:100D300000000000000000000000000000000000B3
:100D400000000000000000000000000000000000A3
:100D50000000000000000000000000000000000093
:100D60000000000000000000000000000000000083
:100D70000000000000000000000000000000000073
:100D80000000000000000000000000000000000063
:100D90000000000000000000000000000000000053
:100DA0000000000000000000000000000000000043
:100DB0000000000000000000000000000000000033
:100DC0000000000000000000000000000000000023
:100DD0000000000000000000000000000000000013
:100DE0000000000000000000000000000000000003
:100DF00000000000000000000000000000000000F3
:100E000000000000000000000000000000000000E2
:100E10000000000000000700000380000000000048
:100E20000000000000001FC0000FE07C03E0781C01
:100E30000781E0F03E0E7FE0003FF07E07E0FC1C03
:100E40000381C1F83F0E7FF8007FF07E07E0FC1CB5
:100E500003C3C1F83F0E7BFE01FEF07F0FE1FE1CD5
:100E600001C383FC3F8E7CFF87F9F0770EE1FE1C07
:100E700001E783FC3B8E7F7FCFF7F0779EE1CE1CAE
:100E800000E7039C3BCE7F9FFFCFF0739CE3CF1C1A
:100E900000FF079E39CE7FE7FF3FF073FCE3871C1E
:100EA000007E070E39EE7FFBFEFFF071F8E3871C32
:100EB000007E0F0F38EE7FFCF9FFF071F8E7FF9C22
:100EC000003C0FFF38FE7FFF27FFF070F0E7FF9C2C
:100ED000003C0FFF387E7FFFDFFFF070F0EFFFDC9C
:100EE000003C1FFFB87E7FDFFFDFF07060EF03DFA5
:100EF000F83C1E07B83E7FC7FF1FF07060EE01DFB1
:100F0000F83C1C03B83E7FC3FE1FF07000EE01DF0B
:100F1000F83C1C03B81E7FC3FE1FF0000000000059
:100F20000000000000007FC3DE1FF07FFFFFFFFF17
:100F3000FFFFFFFFFFFE7FC3DE1FF07FFFFFFFFF0E
:100F4000FFFFFFFFFFFE7FC3DE1FF07C3FFAFBFFCA
:100F5000FFFFFD7ABFFE7FC3DE1FF07D9FFBFFFF1B
:100F6000FFFFFF7EF7FE7FC3DE1FF07D931A8A1816
:100F7000E38C451AA2DE3FC3DE0FF07C2DCACAD631
:100F8000E924CD6AB6BE1F83DE07E07DA36A9AD648
:100F9000E926656AB63E0603DE01807D910A8AD89D
:100FA000E38C451AB37E0003DE00007FFFFFFFFEE7
:100FB000EFFFFFFFFF7E0003DE00007FFFFFFFF17A
:100FC000EFFFFFFFFEFE0003DE00007FFFFFFFFFDD
:100FD000FFFFFFFFFFFE0003DE00007FFFFFFFFFBC
:100FE000FFFFFFFFFFFE0003DE0000000000000027
:100FF0000000000000000001DC0000000000000014
:101000000000000000000000500000000000000090
:1010100000000000000000000000000000000000D0
:1010200000000000000000000000000000000000C0
:1010300000000000000000000000000000000000B0
:1010400000000000000000000000000000000000A0
:101050000000000000000000000000000000000090
:101060000000000000000000000000000000000080
:101070000000000000000000000000000000000070
:101080000000000000000000000000000000000060
:101090000000000000000000000000000000000050
:1010A0000000000000000000000000000000000040
:1010B0000000000000000000000000000000000030
:1010C0000000000000000000000000000000000020
:1010D0000000000000000000000000000000000010
:1010E0000000000000000000000000000000000000
:1010F00000000000000000000000000000000000F0
:1011000000000000000024F4D43050C38E20C2A29E
:101110004017828B7011127A910D816CD90AA861E7
:10112000E108C7586607615143061E4B5D05C1457E
:10113000A7041A411104093D98037139310340365F
:10114000DB0265339102D4305402802E1D02632CE1
:10115000EE01752AC501B028A001102781018F2555
:1011600064012B244B01E0223401AC211F018D20AE
:101170000D01801FFC00841EED00971DDF00B81CD0
:10118000D200E61BC600201BBC00641AB200B219D4
:10119000A8000A19A0006A189900D11791004017F9
:1011A0008B00B516840031167E00B31579003A1510
:1011B0007300C7146F0058146A00EE13660088139A
:1011C000630025135E00C7125B006C1257001512F6
:1011D0005400C111510070114F0021114B00D61065
:1011E00049008D1047004610440002104200C00F15
:1011F0004000800F3E00420F3C00060F3B00CB0E2C
:101200003800930E37005C0E3500270E3400F30DC6
:101210003200C10D3100900D3000600D2E00320DF6
:101220002D00050D2C00D90C2B00AE0C2900850CCF
:1012300029005C0C2700350C27000E0C2600E80B5B
:101240002400C40B2400A00B23007D0B23005A0BA9
:101250002100390B2100180B2000F80A1F00D90AC1
:101260001E00BB0A1E009D0A1D00800A1D00630AA5
:101270001C00470A1B002C0A1B00110A1A00F70960
:101280001A00DD091900C4091900AB0919009209F7
:1012900017007B091800630917004C09160036096E
:1012A0001600200916000A091500F5081500E008C7
:1012B0001400CC081400B8081400A4081400900806
:1012C00013007D0812006B0813005808120046082E
:1012D000120034081100230811001208110001083F
:1012E0001100F0071000E0071000D0071000C00741
:1012F0001000B0070F00A107100091070E00830730
:101300000F0074070F0065070E0057070E0049070E
:101310000E003B070D002E070E0020070D001307DF
:101320000D0006070D00F9060C00ED060D00E006A5
:101330000C00D4060C00C8060C00BC060C00B0065D
:101340000C00A4060B0099060C008D060B0082060B
:101350000B0077060B006C060B0061060A005706AF
:101360000B004C060A0042060A0038060A002E0648
:101370000A0024060A001A060A00100609000706D9
:101380000A00FD050900F4050900EB050900E20566
:101390000900D9050900D0050900C7050900BE05E7
:1013A0000900B5050800AD050800A50509009C0564
:1013B0000800940508008C050800840508007C05D9
:1013C0000800740508006C050700650508005D0548
:1013D0000700560508004E050700470507004005B1
:1013E000080038050700310507002A050700230516
:1013F00007001C050600160507000F050700080575
:10140000060002050700FB040600F5040700EE04D1
:101410000600E8040600E2040700DB040600D50429
:101420000600CF040600C9040600C3040600BD047C
:101430000600B7040600B1040500AC040600A604CB
:101440000600A00405009B04060095040500900416
:1014500006008A04050085040500800406007A045D
:10146000050075040500700405006B0405006604A2
:101470000500610405005C040500570405005204E2
:1014800005004D04050048040500430405003E0422
:1014900004003A04050035040500300404002C045F
:1014A000050027040400230405001E0404001A0498
:1014B000040016040500110404000D0404000904CE
:1014C00005000404040000040400FC030400F80305
:1014D0000400F4030400F0030400EC030400E80338
:1014E0000400E4030400E0030400DC030400D80368
:1014F0000400D4030400D0030400CC030400C80398
:101500000300C503030024F404D9201BC40C5C0EA3
:101510009804C4095F0265077101F405F900FB0432
:10152000B30048048700C103690058035500030352
:101530004500BE023A008402310053022A0029020B
:10154000250004022000E4011C00C8011900AF01BD
:10155000170098011400840113007101100061014B
:10156000100051010E0043010D0036010B002B014C
:101570000B0020010B00150109000C0109000301FB
:101580000800FB000800F3000800EB000700E4007F
:101590000600DE000600D8000600D2000600CC00DF
:1015A0000500C7000500C2000500BD000400B90029
:1015B0000400B5000400B1000400AD000400A9005F
:1015C0000400A5000300A20003009F0004009B008C
:1015D00003009800030095000200930003009000B0
:1015E00003008D0002008B000300880002008600CB
:1015F000020084000300810002007F0002007D00E1
:1016000002007B00020079000200770001007600F2
:1016100002007400020072000100710002006F00FD
:1016200002006D0001006C0002006A000100690008
:10163000020067000100660001006500010064000F
:1016400002006200010061000100600001005F0013
:1016500002005D0001005C0001005B0001005A0017
:101660000100590001005800010057000100560018
:101670000100550001005400010053000000530018
:1016800001005200010051000100500001004F0014
:1016900001004E0000004E0001004D0001004C0012
:1016A00001004B0000004B0001004A00010049000E
:1016B000010048000000480001004700010046000A
:1016C0000000460001004500000045000100440004
:1016D00001004300000043000100420000004200FE
:1016E00001004100000041000100400001003F00F6
:1016F00000003F0001003E0000003E0001003D00F0
:1017000000003D0001003C0000003C0000003C00E7
:1017100001003B0000003B0001003A0000003A00DD
:1017200001003900000039000100380000003800D5
:1017300000003800010037000000370001003600CB
:1017400000003600000036000100350000003500C2
:1017500000003500010034000000340000003400B7
:1017600001003300000033000000330001003200AC
:1017700000003200000032000100310000003100A2
:101780000000310001003000000030000000300097
:1017900001002F0000002F0000002F0000002F008C
:1017A00001002E0000002E0000002E0001002D0080
:1017B00000002D0000002D0000002D0001002C0075
:1017C00000002C0000002C0000002C0001002B0069
:1017D00000002B0000002B0000002B0001002A005D
:1017E00000002A0000002A0000002A000100290051
:1017F0000000290000002900000029000000290045
:101800000100280000002800000028000000280037
:10181000000028000100270000002700000027002A
:10182000000027000000270001002600000026001D
:101830000000260000002600000026000100250010
:101840000000250000002500000025000000250004
:1018500000002500010024000000240000002400F6
:1018600000002400000024000100230000002300E9
:1018700000002300000023000000230000002300DC
:1018800000002300010022000000220000002200CE
:1018900000002200000022000000220001002100C0
:1018A00000002100000021000000210000002100B4
:1018B00000002100000021000100200000002000A5
:1018C0000000200000002000000020000000200098
:1018D000000020000000200001001F0000001F0089
:1018E00000001F0000001F0000001F0000001F007C
:1018F00000001F0001001E0000001E0000001E006E
:1019000000001E0000004D383420582059205A2075
:1019100045006265640A002C2073797374656D203C
:1019200073746F7070656421204865617465725FBF
:1019300049443A200048656174696E6720666169B0
:101940006C65640048656174696E67206661696CE6
:1019500065640048656174696E67206661696C65DD
:10196000640048656174696E67206661696C6564CE
:1019700000466C6F7700466C6F770046616E20738F
:10198000706565640046616E207370656564004231
:10199000656400426564004E6F7A7A6C65004E6F34
:1019A0007A7A6C6500537065656400537065656490
:1019B000004D61696E005072656865617420504C1D
:1019C0004120426564005072656865617420504C26
:1019D00041005072657061726500507265686561A2
:1019E000742041425320426564005072656865610D
:1019F00074204142530050726570617265004D342D
:101A0000323800436F6F6C646F776E005072656898
:101A100065617420414253005072656865617420AD
:101A2000504C41004D38340044697361626C65204C
:101A300073746570706572730053657420686F6DA0
:101A400065206F66667365747300473238004175B0
:101A5000746F20686F6D65004D6F766520617869E1
:101A600073004D61696E004D6F76652058004D6FB3
:101A700076652059004D6F7665205A00457874725E
:101A800075646572004D6F766520302E316D6D0086
:101A90004D6F766520316D6D004D6F76652031306C
:101AA0006D6D004D6F7665206178697300457874BF
:101AB0007275646572004D6F7665205A004D6F76C1
:101AC000652059004D6F766520580000060900FE1C
:101AD000070192032120FFFF08FF07FF0000000617
:101AE00000000107070602008080808080008003DC
:101AF0000202060105A0A00507070600005050F8E5
:101B000050F850500507070600002078A07028F014
:101B100020050707060000C0C810204098180507D8
:101B2000070600006090A040A89068020303060129
:101B300004C04080030707060100204080808040E9
:101B40002003070706010080402020204080050573
:101B50000506000120A870A8200505050600012043
:101B600020F820200203030602FFC0408005010187
:101B7000060003F8020202060200C0C005050506C1
:101B800000010810204080050707060000708888C3
:101B90008888887003070706010040C04040404025
:101BA000E0050707060000708808708080F80507C8
:101BB00007060000F81020100808F00507070600C7
:101BC0000010305090F81010050707060000F8804C
:101BD000F008088870050707060000708080F0880C
:101BE0008870050707060000F8081020202020054F
:101BF0000707060000708888708888700507070648
:101C0000000070888878080870020505060200C088
:101C1000C000C0C00206060602FFC0C000C040806F
:101C20000407070600001020408040201005030331
:101C3000060002F800F804070706010080402010A3
:101C4000204080050707060000708808102000204B
:101C500005070706000070880868A8A87005070730
:101C6000060000708888F888888805070706000045
:101C7000F08888F08888F0050707060000708880E3
:101C800080808870050707060000F08888888888AB
:101C9000F0050707060000F88080F08080F805074F
:101CA00007060000F88080F08080800507070600A6
:101CB00000708880B888887005070706000088884B
:101CC00088F8888888010707060200808080808065
:101CD000808005070706000038101010109060057E
:101CE00007070600008890A0C0A090880507070697
:101CF0000000808080808080F8050707060000884B
:101D0000D8A8888888880507070600008888C8A89A
:101D1000988888050707060000708888888888707A
:101D2000050707060000F08888F080808005070717
:101D300006000070888888A89068050707060000DC
:101D4000F08888F0A090880507070600007880805A
:101D5000700808F0050707060000F8202020202062
:101D6000200507070600008888888888887005078E
:101D70000706000088888888885020050707060025
:101D8000008888888888A85005070706000088888A
:101D90005020508888050707060000888888502052
:101DA0002020050707060000F80810204080F803EF
:101DB0000707060100E08080808080E005050506B9
:101DC00000018040201008030707060100E02020E2
:101DD000202020E0050303060004205088050101AF
:101DE000060000F80202020602058040050505060D
:101DF000000070087888780507070600008080B02A
:101E0000C88888F005050506000070808088700588
:101E10000707060000080868988888780505050601
:101E200000007088F880700507070600003048E061
:101E3000404040400506060600FF7088887808701C
:101E40000507070600008080B0C88888880107075A
:101E5000060200800080808080800308080601FF61
:101E6000200020202020A0400407070600008080DA
:101E700090A0C0A090030707060100C0404040406A
:101E800040E0050505060000D0A8A8A8A80505059E
:101E9000060000B0C888888805050506000070881F
:101EA0008888700506060600FFF08888F0808005A7
:101EB00006060600FF7888887808080505050600EC
:101EC00000B0C8808080050505060000708070089D
:101ED000F00407070600004040E0404040300505A0
:101EE00005060000888888986805050506000088B2
:101EF000888850200505050600008888A8A8500598
:101F0000050506000088502050880506060600FFDB
:101F1000888888780870050505060000F8102040BC
:101F2000F8030707060100204040804040200107D9
:101F300007060200808080808080800307070601FA
:101F40000080404020404080050202060002689068
:101F5000000000060000000000060000000000066F
:101F60000000000000060000000000060000000065
:101F7000000600000000000600000000000600004F
:101F8000000000060000000000060000000000063F
:101F90000000000000060000000000060000000035
:101FA000000600000000000600000000000600001F
:101FB000000000060000000000060000000000060F
:101FC0000000000000060000000000060000000005
:101FD00000060000000000060000000000060000EF
:101FE00000000006000000000006000000000006DF
:101FF00000000000000600000000000600000000D5
:1020000000060000000000060000000000060000BE
:10201000000000060000000000060000010707069F
:102020000200800080808080800507070600002075
:1020300070A8A0A87020050707060000304040E007
:102040004050A805050506000088705070880507F7
:1020500007060000885020F820F820010707060234
:1020600000808080008080800508080600003048DD
:10207000205050209060030101060107A0050707CA
:10208000060000F888B8B8B888F805070706000108
:10209000700878887800F80505050600012850A02A
:1020A0005028050303060001F80808020202060290
:1020B000064080050707060000F888A88898A8F859
:1020C000050101060006F804040406000360909070
:1020D000600507070600002020F8202000F804050E
:1020E0000506000360902040F0030505060003E0AC
:1020F00020E020E0020202060206408005080806F1
:1021000000FF8888888898E8808005070706000017
:1021100078989878181818020202060202C0C002C5
:1021200002020602FF408003050506000340C0408E
:1021300040E0050707060001708888887000F805F0
:102140000505060001A0502850A00507070600005D
:102150008890A858B808080507070600008890B8B6
:1021600048982038050808060000C040C048D83804
:102170000808050707060000200020408088700539
:1021800008080600004020007088F88888050808C4
:102190000600001020007088F888880508080600EE
:1021A000002050007088F88888050808060000683C
:1021B00090007088F88888050808060000500070B4
:1021C0008888F88888050808060000205020708854
:1021D000F888880507070600003860A0B8E0A0B8B6
:1021E0000508080600FF7088808088702060050858
:1021F00008060000402000F880F080F80508080676
:102200000000081000F880F080F8050808060000BB
:10221000205000F880F080F8050707060000500005
:10222000F880F080F8030808060100804000E040D4
:102230004040E0030808060100204000E040404024
:10224000E003080806010040A000E0404040E00331
:102250000707060100A000E0404040E00507070630
:102260000000704848E84848700508080600006803
:10227000900088C8A89888050808060000402070CB
:1022800088888888700508080600001020708888F3
:10229000888870050808060000205000708888882B
:1022A000700508080600006890007088888870052E
:1022B00008080600005000708888888870050505A9
:1022C00006000188502050880508080600FF10709D
:1022D000A8A8A8A870400508080600004020888823
:1022E000888888700508080600001020888888887B
:1022F00088700508080600002050008888888870CB
:10230000050808060000500088888888887005083D
:10231000080600001020885020202020050909060A
:1023200000FFC040704848704040E00408080601C3
:10233000FF609090A09090E08005080806000040A3
:102340002000700878887805080806000010200032
:10235000700878887805080806000020500070088A
:10236000788878050808060000689000700878886A
:10237000780507070600005000700878887805087F
:1023800008060000205020700878887805060606A8
:102390000000D02878A0A8500506060600FF70802F
:1023A000887020600508080600004020007088F84A
:1023B00080700508080600001020007088F8807002
:1023C0000508080600002050007088F88070050796
:1023D0000706000050007088F880700308080601A6
:1023E0000080400040C04040E00308080601002093
:1023F000400040C04040E003080806010040A00043
:1024000040C04040E0030707060100A00040C04074
:1024100040E0050707060000A040A010788870057E
:102420000808060000689000B0C888888805080879
:1024300006000040200070888888700508080600A3
:1024400000102000708888887005080806000020A9
:1024500050007088888870050808060000689000A1
:10246000708888887005070706000050007088880B
:1024700088700505050600012000F8002005070703
:102480000600FF1070A8A8A8704005080806000004
:1024900040200088888898680508080600001020F9
:1024A0000088888898680508080600002050008881
:1024B0008888986805070706000050008888889873
:1024C000680509090600FF102000888888F8087050
:1024D0000407070601FFC04060506040E00508089F
:1024E0000600FF50008888887808704572726F7205
:1024F0002077726974696E6720746F204545505269
:102500004F4D210A00206279746573290A005365D2
:102510007474696E67732053746F72656420280049
:10252000454550524F4D20636865636B73756D2050
:102530006D69736D617463680A00206279746573F4
:10254000290A002073746F7265642073657474695E
:102550006E67732072657472696576656420280001
:102560004578747275646572004D6F7665205A0007
:102570004D6F76652059004D6F766520580050727A
:10258000657061726500526573746F726520666173
:10259000696C73616665004C6F6164206D656D6F79
:1025A00072790053746F7265206D656D6F7279007A
:1025B00046696C616D656E74004D6F74696F6E0075
:1025C00054656D7065726174757265004D61696EF8
:1025D00000507265686561742041425320636F6EDC
:1025E00066005072656865617420504C4120636FCD
:1025F0006E66005049442D44005049442D4400501B
:1026000049442D49005049442D49005049442D501A
:10261000005049442D50002008204661637400207A
:10262000082046616374002008204D61780020086E
:10263000204D6178002008204D696E002008204D53
:10264000696E004F6666004F6E20004175746F74AE
:10265000656D700046616E2073706565640046614B
:102660006E207370656564004265640042656400B5
:102670004E6F7A7A6C65004E6F7A7A6C6500436FA4
:102680006E74726F6C0053746F7265206D656D6F40
:1026900072790042656400426564004E6F7A7A6C1C
:1026A00065004E6F7A7A6C650046616E20737065C6
:1026B00065640046616E2073706565640054656DE5
:1026C0007065726174757265000000210024002736
:1026D000002A0000002200250028002B0000002016
:1026E0000023002600290002020202020202020464
:1026F00004040404040404030303030303030301A5
:1027000001010101010101010204081020408001C2
:10271000020408102040800102040810204080803C
:1027200040201008040201000000010200090A0014
:102730000000000403080700000000000000000083
:10274000000000000000004B494C4C45442E200086
:10275000202D20496E76616C6964206578747275ED
:10276000646572206E756D62657220210A002020FA
:10277000506C616E6E657242756666657242797400
:1027800065733A20002046726565204D656D6F7255
:10279000793A2000436F6D70696C65643A204A6134
:1027A0006E20323820323031370A00207C204175CB
:1027B00074686F723A202842696F6E6963626F6E47
:1027C00065290A00323031362D31322D3036203134
:1027D000323A303000204C6173742055706461745B
:1027E00065643A2000312E312E302D52433820427C
:1027F000756746697820362044656320323031366B
:102800000A004D61726C696E0020536F66747761C7
:1028100072652052657365740A002057617463689D
:10282000646F672052657365740A002042726F7787
:102830006E206F75742052657365740A00204578A8
:102840007465726E616C2052657365740A00506F16
:1028500077657255700A0073746172740A0065724C
:10286000726F722077726974696E6720746F206668
:10287000696C650A00456E6473746F70732025631C
:1028800020256320256320256300205A3A00205923
:102890003A0020583A00656E6473746F7073206854
:1028A00069743A2000446F6E6520736176696E67C3
:1028B0002066696C652E0A004D32390070012C01CA
:1028C00090012701B0012201C0011D01F001180192
:1028D0001002130130020E0160020901900204018E
:1028E000C002FF000003FA004003F5008003F0007F
:1028F000D003EB002004E6007004E100E004DC00FB
:102900004005D700C005D2004006CD00D006C80063
:102910008007C3003008BE00F008B900C009B40049
:10292000B00AAF00B00BAA00D00CA500000EA000AA
:10293000500F9B00C01096005012910000148C00A4
:10294000C0158700B0178200B0197D00D01B780039
:10295000001E730040206E0090226900F024640085
:1029600040275F0090295A00E02B5500102E5000A0
:1029700020304B0010324600E033410090353C00DF
:102980001037370070383200A0392D00B03A2800D7
:10299000A03B2300603C1E00103D1900903D140038
:1029A000103E0F00703E0A00C03E0500003F0000D0
:1029B000403FFBFF803FF6FFC03FF1FF43616E6E7B
:1029C0006F74206F70656E20737562646972200089
:1029D0006563686F3A00627573793A207061757348
:1029E000656420666F7220696E7075740A00627586
:1029F00073793A2070617573656420666F72207513
:102A00007365720A00627573793A2070726F63653C
:102A10007373696E670A004B494C4C45442E200085
:102A2000506C65617365207265736574005052491E
:102A30004E5445522048414C544544005072696EF2
:102A40007465722068616C7465642E206B696C6CAF
:102A500028292063616C6C6564210A00656E7175BC
:102A6000657565696E6720220000000000000000A7
:102A700000000000005761726E696E673A20486F6F
:102A80006D696E672042756D702044697669736F59
:102A900072203C20310A000000A0400000A040004D
:102AA000000040000048430000484300003443FF5A
:102AB000FFFF20746F6F206C6F6E672065787472F3
:102AC0007573696F6E2070726576656E7465640AE1
:102AD0000020636F6C6420657874727573696F6E23
:102AE0002070726576656E7465640A007C3C3E5E9B
:102AF0002B3D3F2F5B5D3B2C2A225C0020666972D8
:102B00007374005A0059005800486F6D652000200A
:102B100066697273740A005A0059005800486F6D54
:102B20006520005374616E64617264204465766947
:102B30006174696F6E3A20002052616E67653A20B9
:102B400000204D61783A2000204D696E3A20004DFA
:102B500065616E3A200046696E697368656421009C
:102B60002072616E67653A2000206D61783A20001E
:102B7000206D696E3A2000207369676D613A20000C
:102B8000206D65616E3A20003A207A3A2000206F6D
:102B9000662000205A00205900205800476F696EB7
:102BA0006720746F3A00436C6F636B776973650AD3
:102BB00000436F756E7465722D0020446972656301
:102BC00074696F6E3A2000202020616E676C653A50
:102BD00020005374617274696E6720726164697554
:102BE000733A2000506F736974696F6E696E672065
:102BF0007468652070726F62652E2E2E0A003F4E3B
:102C0000756D626572206F66206C65677320696EF2
:102C1000206D6F76656D656E74206E6F7420706CBC
:102C200061757369626C652028302D3135292E0A53
:102C300000590058003F53616D706C652073697ACC
:102C400065206E6F7420706C61757369626C6520AD
:102C500028342D3530292E0A004D3438205A2D5075
:102C6000726F6265205265706561746162696C693A
:102C7000747920546573740A003F566572626F73ED
:102C800065204C6576656C206E6F7420706C617584
:102C90007369626C652028302D34292E0A00457333
:102CA000746570732F6D6D004573746570732F6D4F
:102CB0006D005A73746570732F6D6D005A7374656F
:102CC00070732F6D6D005973746570732F6D6D0087
:102CD0005973746570732F6D6D00587374657073DC
:102CE0002F6D6D005873746570732F6D6D00412DDD
:102CF00074726176656C00412D74726176656C004A
:102D0000412D7265747261637400412D7265747235
:102D100061637400416D6178204500416D617820E8
:102D20004500416D6178205A00416D6178205A005C
:102D3000416D6178205900416D6178205900416DE5
:102D40006178205800416D617820580056547261B6
:102D500076206D696E005654726176206D696E0042
:102D6000566D696E00566D696E00566D617820452E
:102D700000566D6178204500566D6178205A0056E6
:102D80006D6178205A00566D6178205900566D614A
:102D900078205900566D6178205800566D61782072
:102DA000580056652D6A65726B0056652D6A65720E
:102DB0006B00567A2D6A65726B00567A2D6A6572C1
:102DC0006B0056792D6A65726B0056792D6A6572B3
:102DD0006B0056782D6A65726B0056782D6A6572A5
:102DE0006B00416363656C00416363656C005A204E
:102DF0004F6666736574005A204F6666736574008B
:102E0000436F6E74726F6C00534420636172642070
:102E10006F6B0A006F70656E526F6F742066616928
:102E20006C65640A00766F6C756D652E696E6974E9
:102E3000206661696C65640A00534420696E697498
:102E4000206661696C0A0048617264636F6465643E
:102E50002044656661756C742053657474696E678F
:102E600073204C6F616465640A0020204D38353151
:102E7000205A005A2D50726F6265204F6666736546
:102E80007420286D6D293A0A0020204D3230302000
:102E900044300A0020204D32303020440020446964
:102EA0007361626C65640A0046696C616D656E747D
:102EB0002073657474696E67733A0020440020497A
:102EC0000020204D3330312050005049442073659C
:102ED0007474696E67733A0A00204600204200202D
:102EE000480020204D3134352053004D6174657207
:102EF00069616C2068656174757020706172616DC4
:102F000065746572733A0A00205A00205900202027
:102F10004D323036205800486F6D65206F666673FD
:102F2000657420286D6D290A00204500205A002074
:102F3000590020580020420020540020204D3230FB
:102F400035205300416476616E636564207661725A
:102F50006961626C65733A20533D4D696E20666508
:102F600065647261746520286D6D2F73292C20545F
:102F70003D4D696E2074726176656C20666565648E
:102F80007261746520286D6D2F73292C20423D6D70
:102F9000696E696D756D207365676D656E742074FB
:102FA000696D6520286D73292C20583D6D61786905
:102FB0006D756D205859206A65726B20286D6D2FD4
:102FC00073292C20205A3D6D6178696D756D205AEA
:102FD000206A65726B20286D6D2F73292C20204587
:102FE0003D6D6178696D756D2045206A65726B2055
:102FF000286D6D2F73290A002054002052002020D4
:103000004D323034205000416363656C65726174E9
:10301000696F6E733A20503D7072696E74696E67A5
:103020002C20523D7265747261637420616E64205D
:10303000543D74726176656C0A00204500205A0088
:1030400020590020204D3230312058004D617869E0
:103050006D756D20416363656C65726174696F6E37
:1030600020286D6D2F7332293A0A00204500205A1E
:103070000020590020204D3230332058004D617817
:10308000696D756D2066656564726174657320286D
:103090006D6D2F73293A0A00204500205A002059EF
:1030A0000020204D39322058005374657073207011
:1030B000657220756E69743A0A006175746F2569CE
:1030C0002E67004D3234004D323320257300577285
:1030D0006974696E6720746F2066696C653A2000B8
:1030E0006F70656E206661696C65642C2046696C42
:1030F000653A20006F70656E206661696C65642CAE
:103100002046696C653A200046696C652073656CE1
:1031100065637465640A002053697A653A20004645
:10312000696C65206F70656E65643A20006F70652C
:103130006E206661696C65642C2046696C653A2076
:10314000002066696C653A20004E6F7720002220CF
:10315000706F73002220706172656E743A220053A2
:103160005542524F5554494E452043414C4C2074D2
:1031700061726765743A22004B494C4C45442E20DD
:1031800000747279696E6720746F2063616C6C20C3
:103190007375622D67636F64652066696C65732063
:1031A0007769746820746F6F206D616E79206C652B
:1031B00076656C732E204D4158206C6576656C20C9
:1031C00069733A004572726F723A0046696C2E203C
:1031D0004469612E0046696C2E204469612E004FBF
:1031E0006666004F6E20004520696E206D6D3300CD
:1031F000436F6E74726F6C0043616E6E6F74206506
:103200006E746572207375626469723A2000022ED2
:103210002E000152656672657368004D61696E002B
:103220002042403A0020403A00202F0020423A003D
:10323000202F0020543A0048656174696E6720644D
:103240006F6E652E003F0A0020573A004865617492
:10325000696E672E2E2E004D616C79616E204D31A6
:1032600035302072656164792E00205A3A00205969
:103270003A0020436F756E7420583A200020453A7A
:1032800000205A3A0020593A00583A0052657365B6
:103290006E643A20006F6B004E414E494E495459BE
:1032A000494E46CDCCCC3D0AD7233C17B7D1387711
:1032B000CC2B329595E6241FB14F0A000020410027
:1032C00000C84200401C4620BCBE4CCA1B0E5AAE71
:1032D000C59D74001DD1FDD111241FBECFEFD0E4D8
:1032E000DEBFCDBF13E0A0E0B1E0E4E5F4EC01E027
:1032F0000BBF02C007900D92A635B107D9F723E1A5
:10330000A6E5B3E001C01D92A535B207E1F719E1CA
:10331000CBE6D9E104C02197FE010E947ED5CA36D2
:10332000D107C9F70E94FECC0C941DE20C9400005A
:103330002F923F924F925F926F927F928F929F92C5
:10334000AF92BF92CF92DF92EF92FF920F931F93B3
:10335000CF93DF93CDB7DEB7C457D1090FB6F8943A
:10336000DEBF0FBECDBF0091920C20E6029F800110
:1033700011240E5E144F1093660300936503809131
:10338000E60F80FF18C0E0EDF9E284917F013FEF86
:10339000E31AF30A882321F00E94BF38F701F5CF22
:1033A000D8018D918D01882319F00E94BF38F8CF84
:1033B0008AE00E94BF382091650330916603F901CD
:1033C00080812F5F3F4F8032D1F3F0936603E0930B
:1033D00065038E3469F010916503009166036AE21B
:1033E00070E0812F902F0E94DDD80097D1F420C08B
:1033F000818190ED980F9A3010F08D3261F73296FE
:10340000DF0131962C9120532A30D0F3CD01FC01FD
:10341000019620812032D9F3F0936603E09365038F
:10342000DACFFC0131968291803231F08A3221F07C
:10343000A12FB02F9D9102C01082F5CFFD01808198
:1034400011968032D9F380538A3020F0E0EDF9E212
:103450000C94393100E010E02AE0209FB001219F58
:10346000700D11248B01005311098191080F111D5A
:1034700087FD1A95808180538A3078F37F013196D9
:10348000D7018C918032D1F3F0926403E092630310
:1034900021E030E03093C00F2093BF0F9D3409F43A
:1034A0004EC4943511F40C940231973411F00C94FD
:1034B0001B310430110509F41EC128F40230110536
:1034C00008F010C119C00A35110509F489C350F478
:1034D0000C31110509F44DC10E31110509F4AEC2CC
:1034E0000C9430310B35110509F47EC30C351105F0
:1034F00009F47FC30C94303180911D01882311F4AD
:103500000C9430310E94903689EC9FE00E948DCB64
:103510000E947A388091E60F83FD93C0C090D50F4A
:10352000D090D60FE090D70FF090D80F2091ED0AF1
:103530003091EE0A4091EF0A5091F00AC701B601AE
:103540000E94C6DD882309F47CC08091E10F8111BF
:1035500034C020919601309197014091980150918B
:10356000990160919C0C70919D0C80919E0C9091A2
:103570009F0C0E94C6DD87FF20C0C092ED0AD0924A
:10358000EE0AE092EF0AF092F00AE0EDF9E284919F
:103590008F010F5F1F4F882321F00E94BF38F80171
:1035A000F6CFEFE5F1E084918F010F5F1F4F882385
:1035B00021F00E94BF38F801F6CFC090D50FD0900F
:1035C000D60FE090D70FF090D80F2091ED0A3091F0
:1035D000EE0A4091EF0A5091F00AC701B6010E942D
:1035E0008ED50E94FBD697FF07C090958095709569
:1035F00061957F4F8F4F9F4F693C71058105910504
:1036000004F1C092ED0AD092EE0AE092EF0AF09235
:10361000F00AE0EDF9E284918F010F5F1F4F8823DC
:1036200021F00E94BF38F801F6CFE0E4F1E0849188
:103630008F010F5F1F4F882321F00E94BF38F801D0
:10364000F6CF2091C90F3091CA0F4091CB0F509106
:10365000CC0F6091E10A7091E20A8091E30A9091A7
:10366000E40A0E94C6DD81111DC02091CD0F30916A
:10367000CE0F4091CF0F5091D00F6091E50A70911D
:10368000E60A8091E70A9091E80A0E94C6DD81115E
:1036900009C0609100017091010180910201909137
:1036A00003011AC06091200170912101072E000CC6
:1036B000880B990B0E94CDDD209100013091010112
:1036C00040910201509103010E942CDE2AE037ED67
:1036D00043E25CE30E942CDE0E94D5350E94CB358C
:1036E0000C94303181E00230110509F080E00E9435
:1036F000FF380C94303180E50E94EE35882329F0A4
:103700000E945C366B017C0103C0C12CD12C760178
:1037100083E50E94EE35882321F00E9404376B0177
:103720007C010E94EF560E947A388091C10F9091DF
:10373000C20FA091C30FB091C40FC80ED91EEA1ECC
:10374000FB1E80914E01811105C060E08AE791E087
:103750000E94B66E0E943468DC01CB018C199D0971
:10376000AE09BF09B7FD02C00C9430310E947789C1
:10377000F1CF0E94EF560E949F3881E080934D0167
:1037800088E50E94EE35F82E89E50E94EE35182F67
:103790008AE50E94EE35082FF11005C0111105C011
:1037A00091E0982705C0111102C090E001C0982F48
:1037B0009093040180E1E1EEFAE0A9ECBFE0019012
:1037C0000D928A95E1F7911104C0F11002C0112306
:1037D000D9F120E030E040EA50E46091A610709109
:1037E000A7108091A8109091A9100E948FD52091C8
:1037F0009A1030919B1040919C1050919D100E9406
:103800008FD56093D10F7093D20F8093D30F909385
:10381000D40F2091E90A3091EA0A4091EB0A5091C5
:10382000EC0A0E94EFD718167CF419821A821B82C8
:103830001C829E012F5F3F4F41ED5FE065EE7AE015
:1038400081EE9AE00E94243480910401811102C02B
:10385000FF2021F080E090E00E94728780910401B7
:10386000811102C0112321F081E090E00E94728753
:1038700080910401811103C0002309F4D3C0809119
:10388000DD0A882321F08091DE0A81111EC060E0EC
:1038900087EB91E00E94B66EE0EDF9E284918F0132
:1038A0000F5F1F4F882321F00E94BF38F801F6CF29
:1038B000E6EAF1E084918F010F5F1F4F882309F43E
:1038C000B1C00E94BF38F801F5CF0E94903720E0C8
:1038D00030E048EC52E460919E1070919F1080910E
:1038E000A0109091A1100E948FD52091921030913C
:1038F000931040919410509195100E948FD54B01D8
:103900005C016093C90F7093CA0F8093CB0F9093A3
:10391000CC0F20E030E048EC52E46091A2107091AE
:10392000A3108091A4109091A5100E948FD5209192
:1039300096103091971040919810509199100E94D4
:103940008FD56B017C016093CD0F7093CE0F809368
:10395000CF0F9093D00F8091E90A9091EA0AA0913D
:10396000EB0AB091EC0A8093D10F9093D20FA09301
:10397000D30FB093D40F89EC9FE00E94CCB588237D
:10398000A1F120E030E04CE052E4C501B4010E9416
:103990008ED56093C90F7093CA0F8093CB0F90930D
:1039A000CC0F20E030E048E452E4C701B6010E94A9
:1039B0008FD56093CD0F7093CE0F8093CF0F9093E0
:1039C000D00F19821A821B821C829E012F5F3F4FEB
:1039D00049EE5AE06DEC7FE089EC9FE00E942434D0
:1039E00082E090E00E9472871DC060E085E991E06E
:1039F0000E94B66EE0EDF9E284918F010F5F1F4FD8
:103A0000882321F00E94BF38F801F6CFE3E8F1E007
:103A100084918F010F5F1F4F882321F00E94BF38D0
:103A2000F801F6CF0E9490378091AA1080934D0143
:103A30000E9485380E9475C80C94303188E50E9438
:103A4000EE35882319F00E9467360EC020E030E082
:103A50004CE052E46091E10A7091E20A8091E30A3D
:103A60009091E40A0E948FD56BAF7CAF8DAF9EAF73
:103A700089E50E94EE35882319F00E9467360EC052
:103A800020E030E048E452E46091E50A7091E60AF3
:103A90008091E70A9091E80A0E948ED568A379A3E5
:103AA0008AA39BA30BAD1CAD2DAD3EAD09831A833C
:103AB0002B833C836D837E838F83988720E030E067
:103AC000A9016091A6107091A7108091A810909103
:103AD000A9100E948FD520919A1030919B1040918F
:103AE0009C1050919D100E948FD569877A878B8793
:103AF0009C87CE0101960E94CCB5882311F40C94CA
:103B0000303183E50E94EE35882319F00E9430366B
:103B100001C081E0E2968FAFE2970E949F3821E0DA
:103B200030E0E2968FADE297482FBE01605E7F4F96
:103B3000CE01CB960E9493426B017C01E1EDF1E056
:103B400084918F010F5F1F4F882321F00E94BF389F
:103B5000F801F6CF27E137EB41ED58E36BAD7CADD3
:103B60008DAD9EAD0E948FD542E00E940142ECECEB
:103B7000F1E084918F010F5F1F4F882321F00E9495
:103B8000BF38F801F6CF27E137EB41ED58E368A1E4
:103B900079A18AA19BA10E948FD542E00E94014297
:103BA000E7ECF1E084918F010F5F1F4F882321F034
:103BB0000E94BF38F801F6CF27E137EB41ED58E31B
:103BC000C701B6010E948FD542E00E9401428AE0FF
:103BD0000E94BF380E9485380E9475C80C9430310D
:103BE000109262030C94303181E0809362030C9454
:103BF000313185E40E94EE35B82E811102C00E9459
:103C0000EF5631EB832E31E0932E41EEC42E4AE085
:103C1000D42E52E9E52E50E1F52E00E010E0A12C63
:103C2000F40181914F010E94EE358823E1F1D60124
:103C30002D913D914D915C91E4962FAFE497E596DF
:103C40003FAFE597E2964FAFE297E3965FAFE3971A
:103C50000E946736F6016083718382839383E496C2
:103C60002FADE497E5963FADE597E2964FADE2972D
:103C7000E3965FADE39703301105A9F00E948ED55E
:103C80009B01AC01D7016D917D918D919C910E941A
:103C90008FD5F7016083718382839383C8010E946B
:103CA0000438AA24A3940F5F1F4FF4E0CF0ED11C59
:103CB00024E0E20EF11C0430110509F0B1CFAA2076
:103CC00019F00E94903737C0BB20A9F1C090ED0ACF
:103CD000D090EE0AE090EF0AF090F00A20910C10DC
:103CE00030910D1040910E1050910F10C701B60188
:103CF0000E942CDE0E94FCD76093000D7093010D92
:103D00008093020D9093030DC701B6010E94FBD66C
:103D10002FB7F89460933A0A70933B0A80933C0A59
:103D200090933D0A2FBF1092F00C1092F10C10925C
:103D3000F20C1092F30C0E9475C80C9430310137CC
:103D4000110509F439C608F0C4C00033110509F49F
:103D500019C508F060C00831110509F45FC2B8F553
:103D60000231110511F40C942527A0F4023011053D
:103D700008F48EC10131110511F00C94303160E06E
:103D80008CE092E00E94B66E5E985E9815985E9800
:103D90000C9430310531110509F436C240F4043178
:103DA000110511F00C943031E4E2F2E0EAC1063181
:103DB000110509F42DC20731110511F00C943031B1
:103DC00040E061E0C7010E94ADBF0C9430310C317E
:103DD000110509F478C250F40A31110509F429C219
:103DE00008F035C21092340D0C9430310F311105AA
:103DF00009F4D8C330F40E31110509F46BC20C94E8
:103E000030310032110509F47DC30A32110509F47D
:103E100071C40C9430310C35110511F40C946727E2
:103E200058F50135110511F40C94032788F40C346E
:103E3000110509F4ABC40D34110509F4C1C40B34E8
:103E4000110511F00C9430310E94BBB60C94303146
:103E50000335110511F40C94202710F40C941C2741
:103E60000435110511F40C9425270535110511F4BD
:103E70000C9454270C9430310C36110509F498C574
:103E8000A8F40936110509F4DCC530F4083611052B
:103E900009F49AC40C9430310A36110509F47BC731
:103EA0000B36110509F49DC70C9430310E361105FF
:103EB00009F4CEC408F4E2C50F36110509F4DBC4D9
:103EC0000037110511F00C9430318DE193E00E9420
:103ED0000B890D3D110511F40C94382B08F05CC0D2
:103EE0000E3B110509F4CEC560F50737110511F435
:103EF0000C94022898F40337110511F40C94F4275C
:103F000010F40C94F0270537110511F00C943031A2
:103F100060E0C7010E94CB6E0C9430310937110567
:103F200011F40C946D2810F40C9466280C381105CB
:103F300009F46EC50139110511F40C9473280C9421
:103F400030310C3C110511F40C94772988F4093CAC
:103F5000110511F40C9436290B3C110511F40C9445
:103F60005929083C110511F00C9430310C94EA28C1
:103F70000E3C110511F40C944C2A10F40C94E12918
:103F8000033D110511F40C94932A0C3D110511F415
:103F90000C942B2B0C943031023931E0130711F4BF
:103FA0000C94752FA8F50E3251E0150711F40C94FE
:103FB000422C80F40C3291E0190711F40C947D2B03
:103FC00010F00C94A32B023E110511F40C94512B0C
:103FD0000C9430310336B1E01B0711F40C94D93046
:103FE00038F40F32114011F40C94B32C0C9430318E
:103FF000003921E0120711F40C94722F013911409D
:1040000011F00C94303181E00E9480350C943031F5
:10401000063F41E0140711F40C949130F8F40C3A87
:1040200081E0180711F40C94792F48F40A391140F3
:1040300011F00C9430310E943EC80C943031043F92
:10404000B1E01B0711F40C948E30053F114011F0C4
:104050000C9430310E94CC710C9430310335F3E074
:104060001F0711F40C94A03038F4073F114011F4ED
:104070000C9494300C943031003A43E0140709F466
:1040800087C2073E134011F40C94F2300C94303187
:1040900080E50E94EE35882359F00E945C364B0182
:1040A0005C0111E0672B682B692B31F410E004C030
:1040B00010E0812C912C540183E50E94EE35882379
:1040C00099F00E9404374B015C0111110FC0672B5E
:1040D000682B692B59F4D7018C91882339F061E062
:1040E000C7010E94CB6E07C01123A9F360E08BEFDC
:1040F00091E00E94B66E81E08093691083E090E0C9
:104100009093C00F8093BF0F0E94EF560E947A38A1
:1041100081149104A104B104E9F08091C10F909140
:10412000C20FA091C30FB091C40F880E991EAA1E92
:10413000BB1E0E943468DC01CB0188199909AA09C9
:10414000BB09B7FF1AC0809169108823B1F00E94A3
:104150007789EFCF80916910882319F00E947789C1
:10416000F9CF8091340D60E0882319F08CEE91E056
:1041700002C089ED91E00E94B66E109269100C9415
:10418000303184918F010F5F1F4F882321F00E94EF
:10419000BF38F801F6CF1092BA0F1092B90F40E075
:1041A00050E0BA0185E69DE00E94CB998BE1E5E6FF
:1041B000FDE0DE01159601900D928A95E1F7809160
:1041C000630D9091640D9C838B8385E592E09A83C7
:1041D000898340E050E0BE016F5F7F4F87E493E04A
:1041E0000E94D483CE0101960E94F988E5E1F2E0B5
:1041F00084918F010F5F1F4F882311F40C9430318D
:104200000E94BF38F801F4CF0E944EB40C943031B4
:104210001092340D1092350D0C9430318091350D83
:10422000882319F081E08093340D0E94BBB60C9472
:1042300030318091350D882311F40C94303183E5B1
:104240000E94EE3581110C9454310C9430318091E0
:10425000350D882351F1E5E3F2E084918F010F5F82
:104260001F4F882321F00E94BF38F801F6CF6091DC
:10427000B00F7091B10F8091B20F9091B30F4AE0DF
:104280000E94163E8FE20E94BF386091AC0F709181
:10429000AD0F8091AE0F9091AF0F4AE00E94163E95
:1042A0008AE00E94BF380C943031E7E4F2E0849158
:1042B0008F010F5F1F4F882311F40C9430310E943F
:1042C000BF38F801F4CF40E060E0C7010E94ADBF05
:1042D0000C9430318091350D882311F40C943031D9
:1042E0008FEF9EE00E9488998FEF9EE00E94289CAD
:1042F0001092330D1092320DE0906303F09064033E
:104300008091350D882311F40C9430310E94A2BFA6
:104310001D8218861C821B8285E592E09A83898320
:1043200081E69DE09093810D8093800DF70180815F
:104330008F3209F068C06FE270E0C7010E94DDD8DB
:104340008C010F5F1F4F9E012F5F3F4F49010115E9
:10435000110509F45EC06FE270E0C8010E94DDD86B
:104360006C01009709F456C00817190708F052C0ED
:104370005C01A01AB10AA501B801CE0180960E9485
:1043800006D9E0E2F0E0EC0FFD1FEA0DFB1D108204
:104390008E01005E1F4FD8018D918D01882319F089
:1043A0000E94BF38F8CF8AE00E94BF386091800D2C
:1043B0007091810D6115710511F06C5F7F4F21E0E7
:1043C000AE01405E5F4FCE0105960E943D9F811178
:1043D00012C0BE01605E7F4F8EE792E00E94EF3D0B
:1043E0008EE20E94BF388AE00E94BF38C4010E945A
:1043F000F9880C9430319092810D8092800D860165
:104400000F5F1F4FA4CF82E89DE09093810D8093B2
:10441000800D87016091800D7091810D611571058E
:1044200011F06C5F7F4F18A21BA222E0A801CE0101
:1044300080960E943D9F811102C0F12C1EC0CE01CA
:1044400080960E9442838823C1F36CA57DA58EA52A
:104450009FA541E00E946775882379F3E8A9B0E23F
:10446000EB9FF0011124E555FF4E309731F385EEB7
:1044700080831BA20E942775F82ECE0180960E9491
:104480005138FF2009F1E8E5F2E084917F012FEF38
:10449000E21AF20A882321F00E94BF38F701F5CF13
:1044A000D8018D918D01882319F00E94BF38F8CF73
:1044B0008AE00E94BF381092B00F1092B10F109294
:1044C000B20F1092B30F18C0E6E6F2E084917F01BC
:1044D000BFEFEB1AFB0A882321F00E94BF38F701D7
:1044E000F5CFF80181918F01882319F00E94BF3820
:1044F000F8CF8EE20E94BF38CE0101960E94F98863
:104500000C9430318091340D81110E94EF5600914E
:1045100063031091640361E270E0C8010E94DDD87A
:10452000009719F08C010F5F1F4F80E50E94EE3558
:10453000882349F0FF24F394809156039091570308
:104540008017910708F0F12C8091350D882311F424
:104550000C9430314F2D61E0C8010E94ADBF83E55E
:104560000E94EE35882349F08091560390915703BD
:104570008017910710F40C9465318091350D8823D4
:1045800019F081E08093340DF1100C9430314DCE50
:1045900081E08093330D40E060E0C7010E94ADBF31
:1045A0000C9430310E940C832CE3C22ED12CE12CD0
:1045B000F12CA70196010E94BAE1762E672ECA015E
:1045C000B901A70196010E94BAE16B017C01CA0101
:1045D000B90128E130E040E050E00E94BAE14B012F
:1045E0005C01C9016DE671E00E9456D58E010F5F36
:1045F0001F4F6115710599F06F927F92DF92CF92F4
:104600009F928F929F938F937F936F938AEB92E009
:104610009F938F931F930F930E9496DD12C0009774
:10462000B1F06F927F92DF92CF929F928F929F9381
:104630008F938AEA92E09F938F931F930F930E9428
:1046400096DD0FB6F894DEBF0FBECDBF36C0811425
:104650009104A104B10479F06F927F92DF92CF921E
:104660009F928F928EE992E09F938F931F930F9367
:104670000E9496DDE6CFC114D104E104F10469F093
:104680006F927F92DF92CF9286E992E09F938F9311
:104690001F930F930E9496DDD4CF6F927F9282E991
:1046A00092E09F938F931F930F930E9496DD0F903C
:1046B0000F900F900F900F900F9060E0C8010E9434
:1046C000CB6EE0EDF9E284917F01BFEFEB1AFB0ABC
:1046D000882321F00E94BF38F701F5CFB8018EEC96
:1046E00092E00E94EF3D8AE00E94BF380E94573856
:1046F0000C94303183E50E94EE35882311F40C943C
:1047000030310E9476CC7C018F3F910519F010F07A
:104710000C94303180E50E94EE35882339F00E94F8
:1047200076CC8C0197FF04C00C9430310BE110E083
:10473000D02EE5EBF1E0C80199272191319128179E
:10474000390731F022E0E530F207B9F70C941D315A
:10475000E4ECF1E384918F010F5F1F4F882321F078
:104760000E94BF38F801F6CFEBEDF2E084918F01A3
:104770000F5F1F4F882311F40C9430310E94BF3813
:10478000F801F4CF0E9432A00C9430318091240DB6
:104790009091250D019711F00C94303182E090E05A
:1047A0009093250D8093240D0E94346860932E0D04
:1047B00070932F0D8093300D9093310D0C94303108
:1047C0000E94E4810C94303188E690E00E94C04160
:1047D00081110C9430318091E60F83FF02C00C945C
:1047E000303183E50E94EE35882371F10E946736EF
:1047F0000E94FBD670939B0C60939A0C0E94F580EC
:104800000E94673620E030E04AEA52E40E94C6DDAA
:1048100018163CF00E94E48160E085EF92E00E946F
:10482000B66E0E94673620919C0C30919D0C409191
:104830009E0C50919F0C0E94EFD718162CF460E04C
:104840008AEE92E00E94B66E0E94EF5D0C943031C9
:104850008EE40E94EE35882311F40C9430310E94CE
:1048600083CC609358037093590380935A039093B9
:104870005B030C94303183E50E94EE35882319F0F8
:104880000E94013601C080E08093E60FE0EDF9E27E
:1048900084918F010F5F1F4F882321F00E94BF3842
:1048A000F801F6CFE6E1F3E084918F010F5F1F4F2F
:1048B000882321F00E94BF38F801F6CF8091E60FDF
:1048C0008823A1F198E0C92E93E0D92EE12CF12C98
:1048D00020E08091E60F90E00E2C02C09595879520
:1048E0000A94E2F780FF17C0BB24B394B20E2223D0
:1048F00019F08CE20E94BF38F60125913491F9013C
:10490000849189010F5F1F4F882321F00E94BF38D7
:104910009801F5CF2B2DFFEFEF1AFF0A32E0C30EFF
:10492000D11C45E0E416F104A1F63DC0E2E1F3E05C
:1049300084918F010F5F1F4F8823A9F10E94BF3818
:10494000F801F6CF80E20E94BF388AE50E94EE357A
:10495000882311F40C94CB300E9467366B017C01E4
:1049600020E030E040EA51EC0E94EFD787FF02C020
:104970000C94BA3020E030E040EA51E4C701B601BF
:104980000E94C6DD181614F40C94BA30C09254106C
:10499000D0925510E0925610F092571042E0C701A5
:1049A000B6010E9401428AE00E94BF380C94303167
:1049B000109205010C94303183E50E94EE35882376
:1049C00069F00E940136809391018D3310F40C94AC
:1049D00030318CE3809391010C943031E0EDF9E2B9
:1049E00084918F010F5F1F4F882321F00E94BF38F1
:1049F000F801F6CF4091910150E060E070E086E26E
:104A000093E00E947E3E8AE00E94BF380C943031D1
:104A10008091E60F83FF02C00C94303183E50E9441
:104A2000EE35882311F40C9430310E9467360E94D1
:104A3000FBD67093BE0A6093BD0A0E9467520C9425
:104A4000303189E690E00E94C041811111C0EDE251
:104A5000F3E084918F010F5F1F4F882321F00E94A4
:104A6000BF38F801F6CF0E9434C98AE00E94BF38EF
:104A70001092C00F1092BF0F0C9473330E94BCC9E8
:104A80000C9430318091E60F83FF02C00C943031DA
:104A900060E081E493E00E94B66E83E50E94EE350B
:104AA00028968FAF2897811105C082E50E94EE35C8
:104AB0008823B1F00E9467360E94FBD67093BE0A2D
:104AC0006093BD0A0E9467520E94673620E030E082
:104AD00040EA50E40E94EFD7181614F40E94BBB6C7
:104AE00081E0809305011092C00F1092BF0F80915A
:104AF0005D0380935C0327961CAE1DAE1EAE1FAEF9
:104B000027972D961CAE1DAE1EAE1FAE2D971FAE65
:104B10002E961FAE2E975CE32F965FAF2F978CE1FA
:104B200060968FAF609796E462969FAF6297C12CB4
:104B3000D12C00E8E02E8FEBF82E812C912C540123
:104B40006091BD0A7091BE0A072E000C880B990B6C
:104B50000E94CDDD162F072F782E692E262F372F96
:104B6000482F592FB601C7010E94C6DD882331F1B5
:104B70002091D2033091D3034091D4035091D503B7
:104B8000612F702F872D962D0E94C6DD881F8827E4
:104B9000881F8FAF2896AFAD2897AA2399F0882356
:104BA00089F080910501882311F40C94303160E084
:104BB00080E393E00E94B66E0C9430311C2D0D2DD5
:104BC0007E2C6F2C0E9434686B017C01DC01CB01D0
:104BD0002D962CAD3DAD4EAD5FAD2D97821B930B49
:104BE000A40BB50BB7FD47C0D701C60188519C4F38
:104BF000AF4FBF4F2D968CAF9DAFAEAFBFAF2D97D0
:104C00000E9434C9EDE3F3E084912F019FEF491A2C
:104C1000590A882321F00E94BF38F201F5CF811490
:104C20009104A104B104D1F0D501C401805F984D75
:104C3000AF4FBF4FBC01CD016C197D098E099F0993
:104C400028EE33E040E050E00E94BAE1CA01B90129
:104C50000E949B3E8AE00E94BF380DC0EAE3F3E069
:104C600084912F01AFEF4A1A5A0A882321F00E943B
:104C7000BF38F201F5CF0E9477890E947A382090E0
:104C8000D2033090D3034090D4035090D5039101C8
:104C9000A201612F702F872D962D0E948ED59F77B0
:104CA00081149104A104B10449F420E030E040E80B
:104CB0005FE30E94C6DD87FF0BC008C020E030E044
:104CC00040E450E40E94EFD7181614F4460157014F
:104CD000BFADBB2309F443C027962CAD3DAD4EAD0F
:104CE0005FAD2797211531054105510541F0D701E9
:104CF000C601821B930BA40BB50BB7FD30C091010D
:104D0000A2012E966FAD2E972F967FAD2F976096AE
:104D10008FAD609762969FAD62970E948ED520E01E
:104D200030E040EC5FE30E94C6DD87FD3ACFD7015B
:104D3000C601805A9541AF4FBF4F27968CAF9DAFAC
:104D4000AEAFBFAF27972E962FAE2E972F963FAEC2
:104D50002F9760964FAE609762965FAE6297809194
:104D60000501882309F41DCF81149104A104B10425
:104D700029F4C12ED02EE72CF62CE2CE90E1C91AF0
:104D800097E2D90AE108F108C818D908EA08FB082F
:104D9000F7FE07CFEECF83E50E94EE35882321F0A2
:104DA0000E9469CC8C0102C00FEF10E080E50E94E8
:104DB000EE35882319F00E9469CC02C080E090E0B3
:104DC00098010F3F110519F010F02FEF30E0892BFB
:104DD00011F00C9430313093BC0A2093BB0A0C9430
:104DE000303180E50E94EE35811106C01092BC0A78
:104DF0001092BB0A0C9430310E9469CC892B11F0BF
:104E00000C943031F3CF0E94B7520E94EF560E94AB
:104E100001891092BC0A1092BB0A68EE73E080E030
:104E200090E00E94FA6760E08EE493E00E94B66E24
:104E30000E9450B10C943031109261030C943031C7
:104E400081E0809361030C94313183E50E94EE355B
:104E5000882361F00E94043760939201709393015C
:104E600080939401909395010C94303188E50E94D1
:104E7000EE3581110C94773189E50E94EE35811170
:104E80000C9477318AE50E94EE3581110C947731CC
:104E900085E40E94EE3581110C9477310E94EF5623
:104EA0000E9401890C94303183E50E94EE358823FD
:104EB00011F40C9430310E9404376093C50F709345
:104EC000C60F8093C70F9093C80F0C943031B1EB8D
:104ED000CB2EB1E0DB2E10E0E12E10E1F12E10E040
:104EE000D6018D916D010E94EE35882309F46DC0C5
:104EF000133009F063C00E9467364B015C0120E06B
:104F000030E040EA51E40E94C6DD87FF4EC0A501B3
:104F1000940160910C1070910D1080910E10909181
:104F20000F100E9489D62B013C019B01AC016091BE
:104F30004C1070914D1080914E1090914F100E9426
:104F40002CDE60934C1070934D1080934E10909314
:104F50004F10A301920160913C1070913D1080911F
:104F60003E1090913F100E942CDE60933C10709395
:104F70003D1080933E1090933F106091F30F70911D
:104F8000F40F8091F50F9091F60F0E94CBDDA301F5
:104F900092010E942CDE0E9402D76093F30F70935F
:104FA000F40F8093F50F9093F60F80920C1090926F
:104FB0000D10A0920E10B0920F1007C00E9467361D
:104FC000F70160837183828393831F5FF4E0EF0EA8
:104FD000F11C143009F084CF0E941F5E0C94303114
:104FE0000E9475C80C943031EFE5F3E084918F0195
:104FF0000F5F1F4F882311F40C9430310E94BF388B
:10500000F801F4CFE4E5F4E084918F010F5F1F4FC6
:10501000882321F00E94BF38F801F6CFECE4F4E0D9
:1050200084918F010F5F1F4F882321F00E94BF38AA
:10503000F801F6CF329B03C007EB12E002C00CEB85
:1050400012E0D8018D918D01882319F00E94BF389C
:10505000F8CF8AE00E94BF38E4E4F4E084918F0145
:105060000F5F1F4F882321F00E94BF38F801F6CF51
:10507000339B03C007EB12E002C00CEB12E0F80117
:1050800081918F01882319F00E94BF38F8CF8AE000
:105090000E94BF38ECE3F4E084918F010F5F1F4F53
:1050A000882321F00E94BF38F801F6CF349B03C05B
:1050B00007EB12E002C00CEB12E0D8018D918D01DC
:1050C000882309F470CC0E94BF38F7CF81E0809329
:1050D0004D018093AA100C94313110924D01109221
:1050E000AA100C94303183E50E94EE358823F9F044
:1050F0000E9476CC182F8230D8F0E4ECF1E3849152
:105100008F010F5F1F4F882321F00E94BF38F801E5
:10511000F6CFEEE6F4E084918F010F5F1F4F8823F6
:1051200011F40C9430310E94BF38F801F4CF10E034
:1051300088E40E94EE358823B1F00E9476CCE12FFE
:10514000F0E08A3A91053CF08530B1E09B072CF005
:1051500084E091E002C08AEA90E0EE0FFF1FED5379
:10516000F54F9183808386E40E94EE358823A1F079
:105170000E9476CCE12FF0E0EE0FFF1FE953F54FD0
:105180008F3F910519F014F08FEF90E097FF02C068
:1051900080E090E09183808382E40E94EE35882352
:1051A00011F40C9430310E9476CCE12FF0E0853080
:1051B000910534F0883891052CF087E890E002C022
:1051C00085E090E0EE0FFF1FE154F54F918380835F
:1051D0000C94303188EC90E00E94C04181110C9415
:1051E000303184E40E94EE35882311F40C94303180
:1051F0000E94673611E020E030E0A9010E94C6DD80
:10520000811101C010E01093B812112359F10091DF
:105210005C0310E00E946736000F111F000F111F82
:10522000F801ED55FE4F608371838283938320E004
:1052300030E0A9016091A3017091A4018091A501C2
:105240009091A6010E94C6DD81110CC080E090E023
:10525000A0E4B0E48093A3019093A401A093A501DE
:10526000B093A6010E94B6850C94303138E1E32E4C
:1052700030E1F32E01EB11E044E0D42ED00EF80122
:1052800081918F010E94EE35882351F00E9467368C
:105290000E9402D7D7016D937D938D939C931397B2
:1052A000B4E0EB0EF11CD012EACF0E949E8B0C945E
:1052B000303190E3E92E90E1F92E01EB11E024E08A
:1052C000D22ED00EF80181918F010E94EE358823F5
:1052D00041F00E946736D7016D937D938D939C9327
:1052E0001397B4E0EB0EF11CD012ECCFB9C783E5F5
:1052F0000E94EE358823D9F00E946736AB01BC01CD
:10530000409350105093511060935210709353106B
:10531000409310105093111060931210709313105B
:105320008AEE94E00E9476428AE00E94BF3880E5CF
:105330000E94EE35882399F00E946736AB01BC01CC
:10534000409350105093511060935210709353102B
:105350008DEC94E00E9476428AE00E94BF3882E59C
:105360000E94EE35882399F00E946736AB01BC019C
:1053700040931410509315106093161070931710EB
:105380008EEA94E00E9476428AE00E94BF3884E56B
:105390000E94EE35882309F463C70E946736AB018B
:1053A000BC01409310105093111060931210709331
:1053B000131080E994E00E9476428AE00E94BF3890
:1053C0004FC783E50E94EE35882351F00E9467366F
:1053D00060932C1070932D1080932E1090932F10AB
:1053E00084E50E94EE35882351F00E946736609371
:1053F00028107093291080932A1090932B1082E428
:105400000E94EE35882351F00E945C366093E20FD3
:105410007093E30F8093E40F9093E50F88E50E946B
:10542000EE35882351F00E946736609340107093E8
:105430004110809342109093431089E50E94EE350D
:10544000882351F00E946736609344107093451092
:1054500080934610909347108AE50E94EE3588238A
:1054600051F00E9467366093481070934910809302
:105470004A1090934B1085E40E94EE35882309F47E
:10548000EFC60E94673660934C1070934D10809366
:105490004E1090934F10E4C611EBA12E11E0B12EE7
:1054A00001EEC02E0AE0D02E8EE9E82E80E1F82E23
:1054B00000E010E0F50181915F010E94EE35882344
:1054C00011F10E9467362B013C01D7012D913D91CE
:1054D0004D915C910E948ED59B01AC01F6016081DB
:1054E0007181828193810E948FD5D6016D937D93C6
:1054F0008D939C931397F70140825182628273824D
:10550000C8010E9404380F5F1F4FF4E0CF0ED11C7A
:1055100024E0E20EF11C0330110561F60E94903781
:105520000E9475C89DC6E0EDF9E284918F010F5F7E
:105530001F4F882321F00E94BF38F801F6CF83E582
:105540000E94EE35882321F00E94303680932E0190
:10555000EAE3F5E084918F010F5F1F4F882321F06C
:105560000E94BF38F801F6CF80912E01811103C04F
:10557000E6E3F5E002C0E2E3F5E084918F010F5F1E
:105580001F4F882321F00E94BF38F801F6CFEAE2CE
:10559000F5E084918F010F5F1F4F882321F00E9457
:1055A000BF38F801F6CF40918D0A50918E0A609174
:1055B0008F0A7091900A88E295E00E9476424091AD
:1055C000910A5091920A6091930A7091940A85E22F
:1055D00095E00E9476424091950A5091960A60911A
:1055E000970A7091980A82E295E00E947642EAE179
:1055F000F5E084918F010F5F1F4F882321F00E94F7
:10560000BF38F801F6CF40912201509123016091FB
:1056100024017091250188E195E00E947642409135
:10562000260150912701609128017091290185E19F
:1056300095E00E94764240912A0150912B016091A1
:105640002C0170912D0182E195E00E9476428AE062
:105650000E94BF3805C683E50E94EE35882309F411
:10566000FFC50E9476CC9093210180932001F8C55C
:105670008DED90E00E94C0418111F2C583E50E944A
:10568000EE35882309F4ECC500915C0310E00E941C
:1056900076CC000F111FF801E25EFE4F91838083EC
:1056A000DFC580E50E94EE35882309F4D9C50E9444
:1056B00076CC8C0183E50E94EE35882321F00E9490
:1056C00076CC7C0103C0EE24EA94FE2CC70101963F
:1056D000039708F0C5C517FDC3C5E5EBF1E0C801A8
:1056E0009927219131912817390709F4B9C532E07A
:1056F000E530F307B1F70C944B3383E50E94EE35A8
:10570000882319F00E9469CC02C084E091E099A33B
:1057100088A380E50E94EE35882349F00E9469CC79
:10572000893843E1940728F088E893E102C088EEC5
:1057300093E09A838983BE01605E7F4FCE0101961C
:105740000E9498B58DC585E40E94EE35811110C088
:1057500080E50E94EE35882399F00E9467366093B9
:105760002F0170933001809331019093320108C072
:105770000E9476CC181619065CF7E4ECF1E371C0D0
:1057800089E40E94EE35882381F00E9467362CE977
:1057900033E549E45EE30E942CDE609337017093A9
:1057A00038018093390190933A0184E40E94EE35E8
:1057B000882381F00E9467362CE933E549E45EE3F3
:1057C0000E9489D660933301709334018093350130
:1057D00090933601E0EDF9E284918F010F5F1F4F46
:1057E000882321F00E94BF38F801F6CF40912F01A5
:1057F00050913001609131017091320182E595E064
:105800000E9476422CE933E549E45EE3609137017A
:10581000709138018091390190913A010E9489D6A6
:10582000AB01BC018EE495E00E9427442CE933E5EE
:1058300049E45EE360913301709134018091350158
:10584000909136010E942CDEAB01BC018AE495E008
:105850000E9427448AE00E94BF3802C50E94BF38D8
:10586000F80184918F010F5F1F4F8111F7CF0AEC70
:1058700012E0D8018D918D01882309F494C80E940B
:10588000BF38F7CF83E50E94EE35082F8823A1F0BB
:105890000E946736609396017093970180939801F8
:1058A0009093990111E020E030E0A9010E94C6DD4B
:1058B000811110E01093E10F80E50E94EE35182F62
:1058C0008823A9F020E030E0A90160919601709151
:1058D000970180919801909199010E94C6DD8823DB
:1058E00019F00E943036182F1093E10FB9C401113E
:1058F000B7C4E0EDF9E284918F010F5F1F4F882359
:1059000021F00E94BF38F801F6CF8091E10F81119C
:1059100003C066EC72E002C069EB72E08BE695E0D2
:105920000E94EF3D20E030E040E05FE360919601AF
:105930007091970180919801909199010E948FD563
:105940000E94FBD68AE595E00E94A741E6E5F5E0D6
:1059500084918F010F5F1F4F882309F481C40E9437
:10596000BF38F801F5CF85E40E94EE35882321F099
:105970000E9476CC7C0102C0E12CF12C83E40E94D1
:10598000EE35882339F00E9476CCAC969FAF8EAF6F
:10599000AC9706C0E5E0F0E0AC96FFAFEEAFAC9799
:1059A00085E50E94EE35882331F00E943036AD96B1
:1059B0008FAFAD9703C0AD961FAEAD9783E50E9444
:1059C000EE35882379F00E94673628966FAF2897C6
:1059D0002A967FAF2A972E968FAF2E972F969FAF3E
:1059E0002F9710C028961FAE28972A961FAE2A9789
:1059F000F7FC0EC0F6E12E96FFAF2E9723E42F960C
:105A00002FAF2F97E114F10459F410925C0308C0F2
:105A10003CE82E963FAF2E9742E42F964FAF2F973C
:105A20001092C00F1092BF0F0E9434684B015C01AE
:105A3000EF2819F40BED12E00EC00EEE12E0D801C3
:105A40008D918D01882319F00E94BF38F8CF8AE02C
:105A50000E94BF3805C4F80181918F01882319F095
:105A60000E94BF38F8CF8AE00E94BF380E94B75228
:105A70008FE78093FD0381E080930501A6968CAEAD
:105A80009DAEAEAEBFAEA697E1968CAE9DAEAEAE6D
:105A9000BFAEE19762961FAE6297F0E46396FFAFE8
:105AA00063972CE164962FAF649736E465963FAF19
:105AB000659766961FAE669767961FAE679768965E
:105AC0001FAE689769961FAE6997A1961CAE1DAE72
:105AD0001EAE1FAEA1976D961CAE1DAE1EAE1FAEC4
