:100000000C945A1A0C94841A0C94841A0C94841A22
:100010000C94841A0C94841A0C94841A0C94841AE8
:100020000C94841A0C94841A0C94841A0C94841AD8
:100030000C94841A0C940ABA0C94841A0C94841AA2
:100040000C94841A0C94C4910C9422540C94841A29
:100050000C9462420C94841A0C94841A0C94841AA2
:100060000C94841A0C94841A0C94841A0C94841A98
:100070000C94841A0C94841A0C94841A0C94841A88
:100080000C94841A0C94841A0C94841ABB52BE5299
:10009000B152B552D552D552C252C652CC52D0529C
:1000A000915396539B53A553D353D353AF53B75345
:1000B000BF53C95315922492439252926D927292F9
:1000C00075927A927D92829285928A929492084A4F
:1000D000D73B3BCE016E84BCBFFDC12F3D6C74315C
:1000E0009ABD56833DDA3D00C77F11BED9E4BB4CB3
:1000F0003E916BAAAABE000000803F05A84CCDB27D
:10010000D44EB93836A9020C50B9918688083CA65D
:10011000AAAA2ABE000000803F0047322F473320A2
:1001200062616420706172616D65746572730A004A
:100130005A2070726F6265206F75742E206265643C
:100140000A005A2070726F6265206F75742E2062EB
:10015000656400473238205A20466F7262696464D1
:10016000656E0A00473238205A20466F7262696411
:1001700064656E0059206F7574206F662072616E21
:1001800067652028312D37292E0A0058206F757495
:10019000206F662072616E67652028312D37292E09
:1001A0000A00473238004D6573682070726F6269CB
:1001B0006E6720646F6E652E0A005374617274203E
:1001C0006D6573682070726F62696E6720776974FD
:1001D00068202247323920533122206669727374B5
:1001E0002E0A004732380A473239205332005374FE
:1001F0006174653A20004D65736820626564206C07
:100200006576656C696E6720686173206E6F206427
:100210006174612E0A0053206F7574206F6620721E
:10022000616E67652028302D35292E0A00456E64E1
:100230002066696C65206C6973740A0042656769A1
:100240006E2066696C65206C6973740A0046696C7F
:10025000652064656C657465643A0044656C65741A
:10026000696F6E206661696C65642C2046696C65F7
:100270003A20006F70656E206661696C65642C20A1
:1002800046696C653A20002569730025696D202553
:100290006973002569682025696D2025697300252B
:1002A0006964202569682025696D2025697300250A
:1002B000697920256964202569682025696D2025D4
:1002C0006973005072696E742074696D653A20001C
:1002D00048656174696E672E2E2E004D616C7961E0
:1002E0006E204D3135302072656164792E004B49A6
:1002F0004C4C45442E20004D3131332053006F6B60
:100300000048656174696E6720646F6E652E003FFA
:100310000A0020573A0048656174696E672E2E2ED8
:10032000004D616C79616E204D3135302072656110
:1003300064792E0042656420646F6E652E003F0A6A
:100340000020573A004265642048656174696E6711
:100350002E004D616C79616E204D313530204F6635
:10036000662E004649524D574152455F4E414D451C
:100370003A4D61726C696E20312E312E302D524310
:1003800038204275674669782036204465632032FC
:1003900030313620284769746875622920534F55DB
:1003A0005243455F434F44455F55524C3A6874741D
:1003B00070733A2F2F6769746875622E636F6D2FA3
:1003C0004D61726C696E4669726D776172652F4D11
:1003D00061726C696E2050524F544F434F4C5F56C0
:1003E000455253494F4E3A312E30204D41434849F2
:1003F0004E455F545950453A4D616C79616E204DC0
:100400003135302045585452554445525F434F557D
:100410004E543A3120555549443A6365646532611A
:1004200032662D343161322D343734382D39623112
:10043000322D6335356336326633363766660A00E9
:100440007A5F6D696E3A2000795F6D696E3A2000BF
:10045000785F6D696E3A20005265706F7274696ED4
:100460006720656E6473746F702073746174757344
:100470000A004D31343520533C696E6465783E2066
:100480006F7574206F662072616E67652028302D4D
:1004900031290A0053657474696E6720547261765D
:1004A000656C20416363656C65726174696F6E3A57
:1004B000200053657474696E6720526574726163BD
:1004C0007420416363656C65726174696F6E3A2074
:1004D0000053657474696E67205072696E742041B0
:1004E0006363656C65726174696F6E3A2000536571
:1004F0007474696E67205072696E7420616E642036
:1005000054726176656C20416363656C65726174D9
:10051000696F6E3A2000205A0020590058002020B0
:100520004D61783A2000205A0020590058002020C0
:100530004D696E3A20004F6E20004F666600536F83
:10054000667420656E6473746F70733A2000206463
:100550003A0020693A0020703A0043290A0061629B
:100560006C656420286D696E2074656D7020004391
:100570006F6C642065787472756465732061726550
:10058000200023646566696E652020444546415518
:100590004C545F4B64200023646566696E652020BF
:1005A00044454641554C545F4B69200023646566C1
:1005B000696E65202044454641554C545F4B702080
:1005C00000504944204175746F74756E65206669EA
:1005D0006E697368656421205075742074686520A5
:1005E0006C617374204B702C204B6920616E642009
:1005F0004B6420636F6E7374616E74732066726FE8
:100600006D2062656C6F7720696E746F20436F6E2A
:1006100066696775726174696F6E2E680A00504969
:1006200044204175746F74756E65206661696C65F0
:1006300064212074696D656F75740A005049442007
:100640004175746F74756E65206661696C656421AF
:100650002054656D706572617475726520746F6F7A
:1006600020686967680A00204B643A2000204B69C3
:100670003A2000204B703A20000A20436C617373CB
:10068000696320504944200A002054753A20002014
:100690004B753A2000206D61783A2000206D696E1C
:1006A0003A200020643A200020626961733A2000F9
:1006B0004163746976652045787472756465723A31
:1006C0002000556E6B6E6F776E20636F6D6D616E7F
:1006D000643A2022004E6F204C696E65204E756D85
:1006E000626572207769746820636865636B7375EF
:1006F0006D2C204C617374204C696E653A20004B60
:10070000494C4C45442E200053544F505045442EE4
:1007100020005072696E7465722073746F7070651A
:10072000642064756520746F206572726F72732E19
:100730002046697820746865206572726F72206146
:100740006E6420757365204D39393920746F2072BD
:100750006573746172742E202854656D70657261C2
:10076000747572652069732072657365742E2053E9
:100770006574206974206166746572207265737493
:10078000617274696E67290A004E6F204368656361
:100790006B73756D2077697468206C696E65206E67
:1007A000756D6265722C204C617374204C696E65A6
:1007B0003A2000636865636B73756D206D69736DB6
:1007C000617463682C204C617374204C696E653AC7
:1007D00020004C696E65204E756D626572206973EC
:1007E000206E6F74204C617374204C696E65204ECE
:1007F000756D6265722B312C204C617374204C69CD
:100800006E653A20004D313130004D3331004D38A6
:100810003420582059205A204500534420726561E5
:1008200064206572726F720A00446F6E6520707288
:10083000696E74696E672066696C650A0020496E8E
:1008400076616C69642065787472756465722000E5
:10085000000048430000484300003443000000000B
:10086000000000000000000025753A2530327500B8
:10087000253032753A2530327500257564202530D3
:1008800032753A25303275005A0059005800092057
:10089000000000000000000000000000007FFFE0FA
:1008A0000000000000000000000000007000E000F8
:1008B000000000000000000000000061F86000007F
:1008C0000000000000000000000041F820000000CF
:1008D00000000000000000000040F02000000000C8
:1008E0000000000000000000406020000000000048
:1008F000000000000000005801A07F800000000000
:100900000000004104005C63A0FFC0000000000084
:1009100000002082005EF7A0FFC000000000000081
:10092000002082005EF7A0FFC00000000000000071
:100930004104005C63A07F80000000000000008292
:1009400008005801A07F8000000000000001041092
:1009500000406020FFC00000000000000104100003
:1009600040F020FFC00000000000000082080041AD
:10097000F820FFC00000000000000041040061F802
:10098000603F00000000000000000000007000E078
:100990001E0000000000000001FFFF807FFFE00C50
:1009A0000000000000000001FFFF800000000000C8
:1009B000000000000000000000007FFFE0000000D9
:1009C0000000000000000000007000E000000000D7
:1009D0000000000000000000630C60000000000048
:1009E00000000000000000470E2000000000000092
:1009F0000000000000004F0F200000000000000079
:100A000000000000005F0FA00000000000000000D8
:100A1000000000005E07A07F8000000000000000D2
:100A2000410400406020FFC00000000000000020E2
:100A3000820040F020FFC000000000000000208283
:100A40000040F020FFC00000000000000041040052
:100A50004060207F80000000000000008208005EEF
:100A600007A07F80000000000000010410005F0F5D
:100A7000A0FFC0000000000000010410004F0F2084
:100A8000FFC000000000000000820800470E20FFA9
:100A9000C000000000000000410400630C603F0043
:100AA000000000000000000000007000E01E0000D8
:100AB000000000000001FFFF807FFFE00C0000004D
:100AC0000000000001FFFF80000000496E69742EE5
:100AD0002053442063617264004E6F2053442063AE
:100AE000617264004D3231004368616E6765205366
:100AF000442063617264005072696E742066726F84
:100B00006D205344004D32310053746F7020707269
:100B1000696E7400526573756D65207072696E74CC
:100B2000005061757365207072696E7400436F6E5A
:100B300074726F6C00507265706172650054756EEE
:100B40006500496E666F2073637265656E0000060E
:100B50000900FE000000000001090008FE00000579
:100B6000080806000040F0C8888898781005080832
:100B7000060000C0F88888888888F8050505060002
:100B8000012030F830200508080600002070F82009
:100B9000202020E00509090600FF2070A8A8B888D9
:100BA0008870200509090600FFE080C0B0A8283041
:100BB00028280509090600FFF8A88888888888A8D9
:100BC000F8050A0A0600FE205050505088A8A88850
:100BD0007003030306000340A040466C6F77004695
:100BE0006C6F770046616E207370656564004661C6
:100BF0006E20737065656400426564004265640040
:100C00004E6F7A7A6C65004E6F7A7A6C650053701D
:100C1000656564005370656564004D61696E0050E0
:100C200072656865617420504C41204265640050D3
:100C300072656865617420504C4100507265706146
:100C400072650050726568656174204142532042AC
:100C500065640050726568656174204142530050BC
:100C6000726570617265004D34323800436F6F6C8D
:100C7000646F776E005072656865617420414253FD
:100C8000005072656865617420504C41004D3834E5
:100C90000044697361626C6520737465707065727D
:100CA000730053657420686F6D65206F66667365A9
:100CB000747300473238004175746F20686F6D653A
:100CC000004D6F76652061786973004D61696E0033
:100CD0004D6F76652058004D6F76652059004D6F39
:100CE0007665205A004578747275646572004D6FA0
:100CF000766520302E316D6D004D6F766520316D3B
:100D00006D004D6F76652031306D6D004D6F7665ED
:100D10002061786973004578747275646572004D5E
:100D20006F7665205A004D6F76652059004D6F76BD
:100D30006520580000002100240027002A00000040
:100D40002200250028002B000000200023002600A0
:100D50002900020202020202020204040404040442
:100D6000040403030303030303030101010101015D
:100D70000101010204081020408001020408102033
:100D800040800102040810204080804020100804A8
:100D90000201000000010200090A00000000040333
:100DA0000807000000000000000000000000000034
:100DB00000004B494C4C45442E2000202D20496E0C
:100DC00076616C6964206578747275646572206EF2
:100DD000756D62657220210A002020506C616E6E74
:100DE000657242756666657242797465733A200071
:100DF0002046726565204D656D6F72793A2000431B
:100E00006F6D70696C65643A204A616E20323220E1
:100E1000323031370A00207C20417574686F723A95
:100E2000202842696F6E6963626F6E65290A00321D
:100E30003031362D31322D30362031323A303000DB
:100E4000204C61737420557064617465643A2000AD
:100E5000312E312E302D5243382042756746697845
:100E600020362044656320323031360A004D6172ED
:100E70006C696E0020536F667477617265205265ED
:100E80007365740A00205761746368646F67205249
:100E9000657365740A002042726F776E206F7574F7
:100EA0002052657365740A002045787465726E611E
:100EB0006C2052657365740A00506F7765725570C7
:100EC0000A0073746172740A006572726F7220771F
:100ED000726974696E6720746F2066696C650A00B8
:100EE000456E6473746F707320256320256320251D
:100EF0006320256300205A3A0020593A0020583ACE
:100F000000656E6473746F7073206869743A2000B2
:100F1000446F6E6520736176696E672066696C65E3
:100F20002E0A004D323900454550524F4D2063681E
:100F300065636B73756D206D69736D617463680AA9
:100F400000206279746573290A002073746F7265DA
:100F5000642073657474696E677320726574726956
:100F60006576656420280048617264636F64656417
:100F70002044656661756C742053657474696E678E
:100F800073204C6F616465640A0020204D38353150
:100F9000205A005A2D50726F6265204F6666736545
:100FA0007420286D6D293A0A0020204D32303020FF
:100FB00044300A0020204D32303020440020446963
:100FC0007361626C65640A0046696C616D656E747C
:100FD0002073657474696E67733A00204400204979
:100FE0000020204D3330312050005049442073659B
:100FF0007474696E67733A0A00204600204200202C
:10100000480020204D3134352053004D6174657205
:1010100069616C2068656174757020706172616DC2
:1010200065746572733A0A00205A00205900202026
:1010300047323920533320580020204D343230209D
:1010400053004D65736820426564204C6576656C7D
:10105000696E673A0A00205A0020590020204D325C
:101060003036205800486F6D65206F666673657472
:1010700020286D6D290A00204500205A00205900C3
:1010800020580020420020540020204D32303520CE
:101090005300416476616E636564207661726961B4
:1010A000626C65733A20533D4D696E2066656564D8
:1010B0007261746520286D6D2F73292C20543D4D6D
:1010C000696E2074726176656C2066656564726114
:1010D000746520286D6D2F73292C20423D6D696E3B
:1010E000696D756D207365676D656E742074696DCB
:1010F0006520286D73292C20583D6D6178696D75C8
:101100006D205859206A65726B20286D6D2F7329E8
:101110002C20205A3D6D6178696D756D205A206ACA
:1011200065726B20286D6D2F73292C2020453D6D35
:101130006178696D756D2045206A65726B20286D38
:101140006D2F73290A0020540020520020204D32B8
:101150003034205000416363656C65726174696F5F
:101160006E733A20503D7072696E74696E672C2000
:10117000523D7265747261637420616E6420543DE7
:1011800074726176656C0A00204500205A0020596F
:101190000020204D3230312058004D6178696D7546
:1011A0006D20416363656C65726174696F6E2028A0
:1011B0006D6D2F7332293A0A00204500205A002015
:1011C000590020204D3230332058004D6178696D30
:1011D000756D2066656564726174657320286D6D38
:1011E0002F73293A0A00204500205A002059002078
:1011F000204D393220580053746570732070657229
:1012000020756E69743A0A0050726F746563746574
:10121000642050696E0A00206669727374005A0077
:1012200059005800486F6D6520002066697273741C
:101230000A005A0059005800486F6D652000537429
:10124000616E6461726420446576696174696F6E71
:101250003A20002052616E67653A2000204D617887
:101260003A2000204D696E3A20004D65616E3A20AB
:101270000046696E697368656421002072616E675B
:10128000653A2000206D61783A2000206D696E3A41
:101290002000207369676D613A2000206D65616EE2
:1012A0003A20003A207A3A2000206F662000205A27
:1012B00000205900205800476F696E6720746F3A0C
:1012C00000436C6F636B776973650A00436F756EDB
:1012D0007465722D0020446972656374696F6E3A9B
:1012E0002000202020616E676C653A2000537461F5
:1012F0007274696E67207261646975733A20005078
:101300006F736974696F6E696E67207468652070A9
:10131000726F62652E2E2E0A003F4E756D626572E9
:10132000206F66206C65677320696E206D6F76652F
:101330006D656E74206E6F7420706C617573696278
:101340006C652028302D3135292E0A0059005800AF
:101350003F53616D706C652073697A65206E6F74A0
:1013600020706C61757369626C652028342D35308E
:10137000292E0A004D3438205A2D50726F62652094
:101380005265706561746162696C69747920546535
:1013900073740A003F566572626F7365204C657600
:1013A000656C206E6F7420706C61757369626C651A
:1013B0002028302D34292E0A002042403A002040B7
:1013C0003A00202F0020423A00202F0020543A00FB
:1013D0004578747275646572004D6F7665205A00A9
:1013E0004D6F76652059004D6F766520580050721C
:1013F000657061726500526573746F726520666115
:10140000696C73616665004C6F6164206D656D6F1A
:1014100072790053746F7265206D656D6F7279001B
:1014200046696C616D656E74004D6F74696F6E0016
:1014300054656D7065726174757265004D61696E99
:1014400000507265686561742041425320636F6E7D
:1014500066005072656865617420504C4120636F6E
:101460006E66005049442D44005049442D440050BC
:1014700049442D49005049442D49005049442D50BC
:10148000005049442D50002008204661637400201C
:10149000082046616374002008204D617800200810
:1014A000204D6178002008204D696E002008204DF5
:1014B000696E004F6666004F6E20004175746F7450
:1014C000656D700046616E207370656564004661ED
:1014D0006E20737065656400426564004265640057
:1014E0004E6F7A7A6C65004E6F7A7A6C6500436F46
:1014F0006E74726F6C0053746F7265206D656D6FE2
:1015000072790042656400426564004E6F7A7A6CBD
:1015100065004E6F7A7A6C650046616E2073706567
:1015200065640046616E2073706565640054656D86
:101530007065726174757265004572726F722077A2
:10154000726974696E6720746F20454550524F4D23
:10155000210A00206279746573290A005365747446
:10156000696E67732053746F72656420280020745D
:101570006F6F206C6F6E6720657874727573696F1A
:101580006E2070726576656E7465640A0020636F04
:101590006C6420657874727573696F6E2070726503
:1015A00076656E7465640A0070012C019001270154
:1015B000B0012201C0011D01F00118011002130148
:1015C00030020E016002090190020401C002FF0016
:1015D0000003FA004003F5008003F000D003EB00A5
:1015E0002004E6007004E100E004DC004005D700C0
:1015F000C005D2004006CD00D006C8008007C30059
:101600003008BE00F008B900C009B400B00AAF004D
:10161000B00BAA00D00CA500000EA000500F9B003C
:10162000C01096005012910000148C00C015870065
:10163000B0178200B0197D00D01B7800001E730027
:1016400040206E0090226900F024640040275F0073
:1016500090295A00E02B5500102E500020304B00EE
:1016600010324600E033410090353C00103737001F
:1016700070383200A0392D00B03A2800A03B23007A
:10168000603C1E00103D1900903D1400103E0F00FC
:10169000703E0A00C03E0500003F0000403FFBFFD7
:1016A000803FF6FFC03FF1FF43616E6E6F74206FA5
:1016B00070656E2073756264697220006563686F7F
:1016C0003A006265640A002C2073797374656D209A
:1016D00073746F7070656421204865617465725F12
:1016E00049443A200048656174696E672066616903
:1016F0006C65640048656174696E67206661696C39
:1017000065640048656174696E67206661696C652F
:10171000640048656174696E67206661696C656420
:1017200000544845524D414C2052554E4157415965
:1017300000546865726D616C2052756E61776179D5
:10174000004572723A204D415854454D5020424553
:1017500044004572723A204D415854454D50004D59
:10176000415854454D5020747269676765726564CD
:10177000004572723A204D494E54454D5020424525
:1017800044004572723A204D494E54454D50004D2B
:10179000494E54454D50207472696767657265649F
:1017A000000000000000000000000000005761720F
:1017B0006E696E673A20486F6D696E672042756D7D
:1017C000702044697669736F72203C20310A0000F2
:1017D00000A0400000A0400000004000004843007E
:1017E00000484300003443FFFFFF7C3C3E5E2B3D3E
:1017F0003F2F5B5D3B2C2A225C00205A3A200020C0
:10180000593A200042656420583A200020746F6FD6
:10181000206C6F6E6720657874727573696F6E20C7
:1018200070726576656E7465640A0020636F6C641F
:1018300020657874727573696F6E20707265766555
:101840006E7465640A00536C6565702E2E2E002040
:10185000706F736974696F6E206F7574206F662086
:1018600072616E67652E0A003F50726F62652000DC
:10187000206E6F7420656E74657265642E0A002098
:1018800020000A4D6561737572656420706F696E22
:1018900074733A0A005A206F66667365743A2000C2
:1018A0005A20736561726368206865696768743A75
:1018B00020340A004E756D20582C593A20372C37A9
:1018C0000A00205A3A200020593A2000426564203C
:1018D000583A20004D616C79616E204D31353020D1
:1018E00072656164792E00526573756D696E67204B
:1018F0007072696E74005761697420666F7220752A
:101900007365722E2E2E004E6F206D6F76652E0041
:101910005344207072696E74696E672062797465D1
:1019200020004E6F74205344207072696E74696E8B
:10193000670A0000060900FE070192032120FFFF4D
:1019400008FF07FF0000000600000107070602006D
:1019500080808080800080030202060105A0A0052F
:1019600007070600005050F850F8505005070706CA
:1019700000002078A07028F020050707060000C0AE
:10198000C810204098180507070600006090A04086
:10199000A89068020303060104C0408003070706FD
:1019A000010020408080804020030707060100805E
:1019B00040202020408005050506000120A870A8D1
:1019C000200505050600012020F82020020303065B
:1019D00002FFC04080050101060003F80202020672
:1019E0000200C0C005050506000108102040800562
:1019F0000707060000708888888888700307070634
:101A0000010040C040404040E0050707060000706C
:101A10008808708080F8050707060000F81020107D
:101A20000808F005070706000010305090F8101065
:101A3000050707060000F880F0080888700507070A
:101A4000060000708080F088887005070706000097
:101A5000F80810202020200507070600007088885D
:101A60007088887005070706000070888878080865
:101A700070020505060200C0C000C0C002060606CE
:101A800002FFC0C000C0408004070706000010200D
:101A90004080402010050303060002F800F8040708
:101AA000070601008040201020408005070706003F
:101AB00000708808102000200507070600007088C5
:101AC0000868A8A870050707060000708888F888CD
:101AD0008888050707060000F08888F08888F005E8
:101AE0000707060000708880808088700507070659
:101AF0000000F08888888888F0050707060000F84D
:101B00008080F08080F8050707060000F88080F0EC
:101B1000808080050707060000708880B88888707C
:101B2000050707060000888888F888888801070765
:101B30000602008080808080808005070706000004
:101B4000381010101090600507070600008890A05C
:101B5000C0A09088050707060000808080808080F4
:101B6000F805070706000088D8A888888888050730
:101B7000070600008888C8A8988888050707060017
:101B80000070888888888870050707060000F0883C
:101B900088F080808005070706000070888888A884
:101BA0009068050707060000F08888F0A090880577
:101BB0000707060000788080700808F00507070610
:101BC0000000F820202020202005070706000088BC
:101BD00088888888887005070706000088888888B4
:101BE0008850200507070600008888888888A85044
:101BF00005070706000088885020508888050707D9
:101C0000060000888888502020200507070600006D
:101C1000F80810204080F8030707060100E08080E4
:101C2000808080E005050506000180402010080343
:101C30000707060100E02020202020E0050303061E
:101C40000004205088050101060000F80202020687
:101C500002058040050505060000700878887805B3
:101C600007070600008080B0C88888F005050506D3
:101C7000000070808088700507070600000808686B
:101C8000988888780505050600007088F88070053A
:101C900007070600003048E04040404005060606C1
:101CA00000FF7088887808700507070600008080AC
:101CB000B0C88888880107070602008000808080FD
:101CC00080800308080601FF200020202020A0407B
:101CD000040707060000808090A0C0A090030707BB
:101CE000060100C04040404040E0050505060000F8
:101CF000D0A8A8A8A8050505060000B0C88888884F
:101D0000050505060000708888887005060606002F
:101D1000FFF08888F080800506060600FF78888836
:101D2000780808050505060000B0C8808080050514
:101D30000506000070807008F004070706000040E8
:101D400040E040404030050505060000888888983E
:101D500068050505060000888888502005050506E9
:101D600000008888A8A850050505060000885020B6
:101D700050880506060600FF8888887808700505E3
:101D800005060000F8102040F803070706010020B0
:101D9000404080404020010707060200808080808C
:101DA000808080030707060100804040204040807B
:101DB0000502020600026890000000060000000014
:101DC0000006000000000006000000000006000001
:101DD00000000006000000000006000000000006F1
:101DE00000000000000600000000000600000000E7
:101DF00000060000000000060000000000060000D1
:101E000000000006000000000006000000000006C0
:101E100000000000000600000000000600000000B6
:101E200000060000000000060000000000060000A0
:101E30000000000600000000000600000000000690
:101E40000000000000060000000000060000000086
:101E50000006000000000006000000000006000070
:101E60000000000600000000000600000000000660
:101E70000000000000060000000000060000000056
:101E800000060000010707060200800080808080B5
:101E9000800507070600002070A8A0A8702005078D
:101EA00007060000304040E04050A8050505060048
:101EB000008870507088050707060000885020F8D9
:101EC00020F82001070706020080808000808080C3
:101ED000050808060000304820505020906003019B
:101EE00001060107A0050707060000F888B8B8B882
:101EF00088F8050707060001700878887800F8055B
:101F000005050600012850A050280503030600011E
:101F1000F8080802020206020640800507070600CC
:101F200000F888A88898A8F8050101060006F804BA
:101F30000404060003609090600507070600002077
:101F400020F8202000F804050506000360902040DA
:101F5000F0030505060003E020E020E0020202068F
:101F6000020640800508080600FF8888888898E8EF
:101F700080800507070600007898987818181802DE
:101F80000202060202C0C00202020602FF408003F3
:101F9000050506000340C04040E0050707060001B4
:101FA000708888887000F8050505060001A0502893
:101FB00050A00507070600008890A858B808080533
:101FC00007070600008890B84898203805080806DA
:101FD0000000C040C048D8380808050707060000C0
:101FE000200020408088700508080600004020007E
:101FF0007088F8888805080806000010200070889E
:10200000F888880508080600002050007088F888C5
:10201000880508080600006890007088F888880520
:1020200008080600005000708888F88888050808AD
:102030000600002050207088F888880507070600F1
:10204000003860A0B8E0A0B80508080600FF708856
:10205000808088702060050808060000402000F895
:1020600080F080F8050808060000081000F880F0ED
:1020700080F8050808060000205000F880F080F87D
:102080000507070600005000F880F080F8030808F4
:10209000060100804000E0404040E00308080601DF
:1020A00000204000E0404040E003080806010040F6
:1020B000A000E0404040E0030707060100A000E068
:1020C000404040E0050707060000704848E84848DF
:1020D0007005080806000068900088C8A898880560
:1020E0000808060000402070888888887005080865
:1020F000060000102070888888887005080806008F
:102100000020500070888888700508080600006864
:1021100090007088888870050808060000500070DC
:102120008888888870050505060001885020508839
:102130000508080600FF1070A8A8A8A870400508A8
:1021400008060000402088888888887005080806EE
:10215000000010208888888888700508080600001C
:102160002050008888888870050808060000500004
:102170008888888888700508080600001020885024
:10218000202020200509090600FFC0407048487043
:102190004040E00408080601FF609090A09090E0A5
:1021A000800508080600004020007008788878053F
:1021B00008080600001020007008788878050808D4
:1021C000060000205000700878887805080806008E
:1021D00000689000700878887805070706000050AE
:1021E00000700878887805080806000020502070E4
:1021F00008788878050606060000D02878A0A85040
:102200000506060600FF7080887020600508080635
:1022100000004020007088F8807005080806000063
:102220001020007088F88070050808060000205013
:10223000007088F88070050707060000500070885D
:10224000F8807003080806010080400040C040404C
:10225000E003080806010020400040C04040E003C1
:10226000080806010040A00040C04040E003070706
:10227000060100A00040C04040E00507070600003E
:10228000A040A0107888700508080600006890003B
:10229000B0C88888880508080600004020007088BB
:1022A000888870050808060000102000708888885B
:1022B00070050808060000205000708888887005A6
:1022C0000808060000689000708888887005070775
:1022D000060000500070888888700505050600011A
:1022E0002000F800200507070600FF1070A8A8A826
:1022F000704005080806000040200088888898681B
:1023000005080806000010200088888898680508DD
:10231000080600002050008888889868050707068E
:102320000000500088888898680509090600FF1099
:102330002000888888F808700407070601FFC0405D
:1023400060506040E00508080600FF50008888885B
:102350007808704573746570732F6D6D00457374E4
:102360006570732F6D6D005A73746570732F6D6D8A
:10237000005A73746570732F6D6D005973746570B6
:10238000732F6D6D005973746570732F6D6D0058E8
:1023900073746570732F6D6D005873746570732F4F
:1023A0006D6D00412D74726176656C00412D747203
:1023B0006176656C00412D726574726163740041D1
:1023C0002D7265747261637400416D6178204500FF
:1023D000416D6178204500416D6178205A00416D62
:1023E0006178205A00416D6178205900416D617813
:1023F000205900416D6178205800416D6178205866
:10240000005654726176206D696E00565472617682
:10241000206D696E00566D696E00566D696E0056CE
:102420006D6178204500566D6178204500566D61DC
:1024300078205A00566D6178205A00566D617820D8
:102440005900566D6178205900566D61782058000A
:10245000566D617820580056652D6A65726B00567E
:10246000652D6A65726B00567A2D6A65726B00562F
:102470007A2D6A65726B0056792D6A65726B00560B
:10248000792D6A65726B0056782D6A65726B0056FD
:10249000782D6A65726B00416363656C004163630C
:1024A000656C005A204F6666736574005A204F664B
:1024B0006673657400436F6E74726F6C0024F4D49D
:1024C0003050C38E20C2A24017828B7011127A91B5
:1024D0000D816CD90AA861E108C7586607615143AC
:1024E000061E4B5D05C145A7041A411104093D981C
:1024F00003713931034036DB0265339102D4305425
:1025000002802E1D02632CEE01752AC501B028A0A1
:1025100001102781018F2564012B244B01E0223417
:1025200001AC211F018D200D01801FFC00841EEDD8
:1025300000971DDF00B81CD200E61BC600201BBCA4
:1025400000641AB200B219A8000A19A0006A18990A
:1025500000D117910040178B00B516840031167E0C
:1025600000B31579003A157300C7146F0058146A48
:1025700000EE1366008813630025135E00C7125B2C
:10258000006C12570015125400C111510070114F08
:102590000021114B00D61049008D10470046104411
:1025A0000002104200C00F4000800F3E00420F3C6E
:1025B00000060F3B00CB0E3800930E37005C0E3543
:1025C00000270E3400F30D3200C10D3100900D30A4
:1025D00000600D2E00320D2D00050D2C00D90C2BA6
:1025E00000AE0C2900850C29005C0C2700350C2757
:1025F000000E0C2600E80B2400C40B2400A00B23C3
:10260000007D0B23005A0B2100390B2100180B20F1
:1026100000F80A1F00D90A1E00BB0A1E009D0A1DF1
:1026200000800A1D00630A1C00470A1B002C0A1BBD
:1026300000110A1A00F7091A00DD091900C4091966
:1026400000AB091900920917007B091800630917EC
:10265000004C09160036091600200916000A091553
:1026600000F5081500E0081400CC081400B80814A0
:1026700000A4081400900813007D0812006B0813D2
:1026800000580812004608120034081100230811EF
:10269000001208110001081100F0071000E00710F7
:1026A00000D0071000C0071000B0070F00A10710EE
:1026B0000091070E0083070F0074070F0065070ED7
:1026C0000057070E0049070E003B070D002E070EAE
:1026D0000020070D0013070D0006070D00F9060C7A
:1026E00000ED060D00E0060C00D4060C00C8060C38
:1026F00000BC060C00B0060C00A4060B0099060CEA
:10270000008D060B0082060B0077060B006C060B93
:102710000061060A0057060B004C060A0042060A32
:102720000038060A002E060A0024060A001A060AC5
:10273000001006090007060A00FD050900F4050956
:1027400000EB050900E2050900D9050900D00509DB
:1027500000C7050900BE050900B5050800AD05085C
:1027600000A50509009C050800940508008C0508D3
:1027700000840508007C050800740508006C050746
:1027800000650508005D050700560508004E0507B1
:102790000047050700400508003805070031050718
:1027A000002A050700230507001C0506001605077B
:1027B000000F0507000805060002050700FB0406D8
:1027C00000F5040700EE040600E8040600E2040732
:1027D00000DB040600D5040600CF040600C9040689
:1027E00000C3040600BD040600B7040600B10405DA
:1027F00000AC040600A6040600A00405009B040625
:102800000095040500900406008A0405008504056F
:1028100000800406007A04050075040500700405B4
:10282000006B04050066040500610405005C0405F6
:102830000057040500520405004D04050048040536
:1028400000430405003E0404003A04050035040575
:1028500000300404002C04050027040400230405B0
:10286000001E0404001A04040016040500110404E8
:10287000000D04040009040500040404000004041D
:1028800000FC030400F8030400F4030400F0030454
:1028900000EC030400E8030400E4030400E0030484
:1028A00000DC030400D8030400D4030400D00304B4
:1028B00000CC030400C8030300C503030024F40490
:1028C000D9201BC40C5C0E9804C4095F0265077113
:1028D00001F405F900FB04B30048048700C1036953
:1028E000005803550003034500BE023A008402313C
:1028F0000053022A002902250004022000E4011CE2
:1029000000C8011900AF01170098011400840113D9
:1029100000710110006101100051010E0043010D12
:102920000036010B002B010B0020010B00150109E3
:10293000000C01090003010800FB000800F3000877
:1029400000EB000700E4000600DE000600D80006E9
:1029500000D2000600CC000500C7000500C200053B
:1029600000BD000400B9000400B5000400B100047B
:1029700000AD000400A9000400A5000300A20003AC
:10298000009F0004009B00030098000300950002D4
:102990000093000300900003008D0002008B0003F1
:1029A000008800020086000200840003008100020B
:1029B000007F0002007D0002007B0002007900021F
:1029C000007700010076000200740002007200012E
:1029D00000710002006F0002006D0001006C000237
:1029E000006A000100690002006700010066000142
:1029F0000065000100640002006200010061000146
:102A000000600001005F0002005D0001005C000149
:102A1000005B0001005A000100590001005800014C
:102A2000005700010056000100550001005400014C
:102A3000005300000053000100520001005100014A
:102A400000500001004F0001004E0000004E000148
:102A5000004D0001004C0001004B0000004B000144
:102A6000004A000100490001004800000048000140
:102A7000004700010046000000460001004500003C
:102A80000045000100440001004300000043000134
:102A9000004200000042000100410000004100012E
:102AA00000400001003F0000003F0001003E000028
:102AB000003E0001003D0000003D0001003C000020
:102AC000003C0000003C0001003B0000003B000116
:102AD000003A0000003A000100390000003900010E
:102AE0000038000000380000003800010037000006
:102AF00000370001003600000036000000360001FB
:102B000000350000003500000035000100340000F1
:102B100000340000003400010033000000330000E6
:102B200000330001003200000032000000320001DA
:102B300000310000003100000031000100300000D1
:102B40000030000000300001002F0000002F0000C6
:102B5000002F0000002F0001002E0000002E0000BA
:102B6000002E0001002D0000002D0000002D0000AF
:102B7000002D0001002C0000002C0000002C0000A3
:102B8000002C0001002B0000002B0000002B000097
:102B9000002B0001002A0000002A0000002A00008B
:102BA000002A00010029000000290000002900007F
:102BB0000029000000290001002800000028000072
:102BC0000028000000280000002800010027000065
:102BD0000027000000270000002700000027000158
:102BE000002600000026000000260000002600004D
:102BF000002600010025000000250000002500003F
:102C00000025000000250000002500010024000030
:102C10000024000000240000002400000024000123
:102C20000023000000230000002300000023000018
:102C30000023000000230000002300010022000008
:102C400000220000002200000022000000220000FC
:102C500000220001002100000021000000210000EE
:102C600000210000002100000021000000210001DF
:102C700000200000002000000020000000200000D4
:102C800000200000002000000020000000200001C3
:102C9000001F0000001F0000001F0000001F0000B8
:102CA000001F0000001F0000001F0001001E0000A8
:102CB000001E0000001E0000001E0000004D383401
:102CC00020582059205A204500526573656E643A99
:102CD00020006F6B00627573793A207061757365BF
:102CE0006420666F7220696E7075740A0062757375
:102CF000793A2070617573656420666F7220757310
:102D000065720A00627573793A2070726F63657339
:102D100073696E670A004B494C4C45442E200050A5
:102D20006C65617365207265736574005052494E1D
:102D30005445522048414C544544005072696E74C9
:102D400065722068616C7465642E206B696C6C28F8
:102D5000292063616C6C6564210A00656E7175657C
:102D60007565696E67202200534420636172642098
:102D70006F6B0A006F70656E526F6F7420666169C9
:102D80006C65640A00766F6C756D652E696E69748A
:102D9000206661696C65640A00534420696E697439
:102DA000206661696C0A00434F4D4D554E494341C1
:102DB00054494F4E0044525952554E004552524FBD
:102DC000525300494E464F004543484F00C82DC35B
:102DD0002DBC2DB52DA72D6F666600444542554785
:102DE0003A00205A3A0020593A0020436F756E7419
:102DF00020583A200020453A00205A3A0020593AFB
:102E000000583A004D65736820426564204C657631
:102E1000656C20646174613A0A00426564204C6507
:102E200076656C696E6720004661696C6564207424
:102E30006F20656E61626C6520426564204C65762A
:102E4000656C696E670A004D3432312072657175A8
:102E50006972656420706172616D6574657273205A
:102E60006D697373696E670A004D65736820706FD2
:102E7000696E742063616E6E6F7420626520726586
:102E8000736F6C7665640A004D65736820706F69B6
:102E90006E742063616E6E6F74206265207265735C
:102EA0006F6C7665640A004F6666736574732061A3
:102EB00070706C696564004572723A20546F6F20BF
:102EC0006661722100546F6F206661722066726FB6
:102ED0006D207265666572656E636520706F696EE0
:102EE000740A003A20007A5F6D61783A20007A5FB8
:102EF0006D696E3A20005A204F6666736574004E05
:102F00006F2063617365206C696768740A00000054
:102F100000000000000000000000000000000000B1
:102F200000000000000000000000000000000000A1
:102F30000000000000000000000000000000000091
:102F40000000000000000000000000000000000081
:102F50000000000000000000000000000000000071
:102F60000000000000000000000000000000000061
:102F70000000000000000000000000000000000051
:102F80000000000000000000000000000000000041
:102F90000000000000000000000000000000000031
:102FA0000000000000000000000000000000000021
:102FB0000000000000000000000000000000000011
:102FC0000000000000000000000000000000000001
:102FD00000000000000000000000000000000000F1
:102FE00000000000000000000000000000000000E1
:102FF00000000000000000000000000000000000D1
:1030000000000000000000000000000000000000C0
:1030100000000000000000000000000000000700A9
:1030200000038000000000000000000000001FC03E
:10303000000FE07C03E0781C0781E0F03E0E7FE0AB
:10304000003FF07E07E0FC1C0381C1F83F0E7FF8D3
:10305000007FF07E07E0FC1C03C3C1F83F0E7BFE3F
:1030600001FEF07F0FE1FE1C01C383FC3F8E7CFF5D
:1030700087F9F0770EE1FE1C01E783FC3B8E7F7F32
:10308000CFF7F0779EE1CE1C00E7039C3BCE7F9FFD
:10309000FFCFF0739CE3CF1C00FF079E39CE7FE784
:1030A000FF3FF073FCE3871C007E070E39EE7FFBC9
:1030B000FEFFF071F8E3871C007E0F0F38EE7FFCF7
:1030C000F9FFF071F8E7FF9C003C0FFF38FE7FFF2F
:1030D00027FFF070F0E7FF9C003C0FFF387E7FFF7A
:1030E000DFFFF070F0EFFFDC003C1FFFB87E7FDFFA
:1030F000FFDFF07060EF03DFF83C1E07B83E7FC7CC
:10310000FF1FF07060EE01DFF83C1C03B83E7FC388
:10311000FE1FF07000EE01DFF83C1C03B81E7FC3F9
:10312000FE1FF000000000000000000000007FC350
:10313000DE1FF07FFFFFFFFFFFFFFFFFFFFE7FC3EC
:10314000DE1FF07FFFFFFFFFFFFFFFFFFFFE7FC3DC
:10315000DE1FF07C3FFAFBFFFFFFFD7ABFFE7FC35F
:10316000DE1FF07D9FFBFFFFFFFFFF7EF7FE7FC3AB
:10317000DE1FF07D931A8A18E38C451AA2DE3FC346
:10318000DE0FF07C2DCACAD6E924CD6AB6BE1F83F5
:10319000DE07E07DA36A9AD6E926656AB63E060395
:1031A000DE01807D910A8AD8E38C451AB37E000344
:1031B000DE00007FFFFFFFFEEFFFFFFFFF7E00034B
:1031C000DE00007FFFFFFFF1EFFFFFFFFEFE0003C9
:1031D000DE00007FFFFFFFFFFFFFFFFFFFFE00039A
:1031E000DE00007FFFFFFFFFFFFFFFFFFFFE00038A
:1031F000DE000000000000000000000000000001F0
:10320000DC000000000000000000000000000000E2
:10321000500000000000000000000000000000005E
:10322000000000000000000000000000000000009E
:10323000000000000000000000000000000000008E
:10324000000000000000000000000000000000007E
:10325000000000000000000000000000000000006E
:10326000000000000000000000000000000000005E
:10327000000000000000000000000000000000004E
:10328000000000000000000000000000000000003E
:10329000000000000000000000000000000000002E
:1032A000000000000000000000000000000000001E
:1032B000000000000000000000000000000000000E
:1032C00000000000000000000000000000000000FE
:1032D00000000000000000000000000000000000EE
:1032E00000000000000000000000000000000000DE
:1032F00000000000000000000000000000000000CE
:1033000000000000000000000000000000006175E7
:10331000746F25692E67004D3234004D32332025FD
:10332000730057726974696E6720746F2066696CE8
:10333000653A20006F70656E206661696C65642C6B
:103340002046696C653A20006F70656E2066616981
:103350006C65642C2046696C653A200046696C6592
:103360002073656C65637465640A002053697A652F
:103370003A200046696C65206F70656E65643A207E
:10338000006F70656E206661696C65642C2046690B
:103390006C653A20002066696C653A20004E6F77B4
:1033A00020002220706F73002220706172656E749D
:1033B0003A2200535542524F5554494E45204341FD
:1033C0004C4C207461726765743A22004B494C4C36
:1033D00045442E2000747279696E6720746F2063F3
:1033E000616C6C207375622D67636F64652066691C
:1033F0006C6573207769746820746F6F206D616EDF
:1034000079206C6576656C732E204D4158206C6573
:1034100076656C2069733A004572726F723A0046A5
:10342000696C2E204469612E0046696C2E20446927
:10343000612E004F6666004F6E20004520696E20A9
:103440006D6D3300436F6E74726F6C0043616E6E0E
:103450006F7420656E746572207375626469723A68
:103460002000022E2E000152656672657368004DC1
:1034700061696E004E414E494E495459494E46CD00
:10348000CCCC3D0AD7233C17B7D13877CC2B32951B
:1034900095E6241FB14F0A000020410000C84200F9
:1034A000401C4620BCBE4CCA1B0E5AAEC59D7400C3
:1034B000A2E0E4E211241FBECFEFD0E4DEBFCDBF17
:1034C00013E0A0E0B1E0E6E9F4EE01E00BBF02C0DA
:1034D00007900D92A633B107D9F724E1A6E3B3E034
:1034E00001C01D92A630B207E1F71AE1C9E5DAE1A1
:1034F00004C02197FE010E9493E5C835D107C9F7A2
:103500000E947CDC0C943EF20C9400002F923F92BF
:103510004F925F926F927F928F929F92AF92BF92E3
:10352000CF92DF92EF92FF920F931F93CF93DF938F
:10353000CDB7DEB7CF58D1090FB6F894DEBF0FBEB6
:10354000CDBF0091D80520E6029F80011124085AC2
:103550001B4F10934403009343038091140680FF94
:1035600018C0ECEBF6E184917F013FEFE31AF30A18
:10357000882321F00E949A3DF701F5CFD8018D9163
:103580008D01882319F00E949A3DF8CF8AE00E94AD
:103590009A3D2091430330914403F90180812F5FCC
:1035A0003F4F8032D1F3F0934403E09343038E34D2
:1035B00069F010914303009144036AE270E0812FA7
:1035C000902F0E94FEE80097D1F420C0818190EDF9
:1035D000980F9A3010F08D3261F73296DF013196F4
:1035E0002C9120532A30D0F3CD01FC01019620818B
:1035F0002032D9F3F0934403E0934303DACFFC0184
:1036000031968291803231F08A3221F0A12FB02F91
:103610002D9102C01082F5CFFD018081119680327C
:10362000D9F380538A3020F0ECEBF6E10C94573755
:10363000E12CF12C9AE09E9DB0019F9D700D11240C
:103640007B01B0E3EB1AF1088191E80EF11C87FDD4
:10365000FA94808180538A3070F3CF013196DC0177
:103660003C913032D1F3909342038093410341E087
:1036700050E05093A8104093A7102D3411F40C94EF
:103680002426243511F40C941A37273411F00C94A5
:103690003237BCE1EB16F10409F4F4C5B0F4F4E000
:1036A000EF16F10440F422E0E216F10490F50E94D6
:1036B000E3A10C944E3734E0E316F10411F00C94BE
:1036C0004E370E942AA10C944E374AE5E416F104C5
:1036D00011F40C94622578F48DE1E816F10409F4F4
:1036E000ABC79EE1E916F10411F00C944E370E942D
:1036F000EBA50C944E37ABE5EA16F10411F40C94EB
:103700006625BCE5EB16F10411F40C946B250C94C2
:103710004E3780918B01882311F40C944E3711E0C1
:10372000E2E0EE16F10409F010E00E946FA182E5DC
:103730000E94863B882309F452C10E94173C6B010A
:103740007C014090270450902804609029047090D8
:103750002A0420912B0430912C0440912D04509187
:103760002E042BAF3CAF4DAF5EAF80918E0A90918F
:103770008F0AA091900AB091910A23968CAF9DAFC9
:10378000AEAFBFAF23972091920A3091930A409138
:10379000940A5091950A2F962CAF3DAF4EAF5FAF74
:1037A0002F9720E030E0A901C701B6010E94E7EDA4
:1037B000882309F44DC5A301920123966CAD7DAD1C
:1037C0008EAD9FAD23970E94E7ED81110FC02BAD09
:1037D0003CAD4DAD5EAD2F966CAD7DAD8EAD9FAD6C
:1037E0002F970E94E7ED882309F432C520E030E0EE
:1037F000A901C701B6010E94E7ED881F8827881F2D
:1038000018130BC080E090E0A0E8BFE367968CAF90
:103810009DAFAEAFBFAF67970AC020E030E040E891
:103820005FEB67962CAF3DAF4EAF5FAF6797A301DD
:10383000920123966CAD7DAD8EAD9FAD23970E9416
:10384000AFE52B966CAF7DAF8EAF9FAF2B972BADB7
:103850003CAD4DAD5EAD2F966CAD7DAD8EAD9FADEB
:103860002F970E94AFE563966CAF7DAF8EAF9FAF91
:1038700063972B962CAD3DAD4EAD5FAD2B97CA0136
:10388000B9010E944DEE4B015C0163962CAD3DAD3C
:103890004EAD5FAD6397CA01B9010E944DEE9B0129
:1038A000AC01C501B4010E94B0E50E945EE8279614
:1038B0006CAF7DAF8EAF9FAF279720E030E040E048
:1038C0005FE30E944DEE4B015C01A7019601C70129
:1038D000B6010E944DEE6B017C01A5019401C5016A
:1038E000B4010E944DEE9B01AC01C701B6010E94DC
:1038F000AFE50E945EE89B01AC0167966CAD7DADC3
:103900008EAD9FAD67970E944DEE4B015C012396F3
:103910002CAD3DAD4EAD5FAD2397C301B2010E940A
:10392000B0E520E030E040E05FE30E944DEE6B0147
:103930007C0163966CAD7DAD8EAD9FAD6397905865
:1039400027962CAD3DAD4EAD5FAD27970E94AAE600
:103950009B01AC01C501B4010E944DEE9B01AC017D
:10396000C701B6010E94B0E5A30192010E94AFE534
:103970006B017C012F962CAD3DAD4EAD5FAD2F9709
:103980006BAD7CAD8DAD9EAD0E94B0E520E030E02A
:1039900040E05FE30E944DEE2B013C0127962CADE9
:1039A0003DAD4EAD5FAD27972B966CAD7DAD8EAD29
:1039B0009FAD2B970E94AAE69B01AC01C501B40103
:1039C0000E944DEE9B01AC01C301B2010E94B0E523
:1039D0002BAD3CAD4DAD5EAD0E94AFE514C089E4AA
:1039E0000E94863B882329F00E94173C6B017C01D2
:1039F00003C0C12CD12C76018AE40E94863B882327
:103A0000D9F00E94173C6BAF7CAF8DAF9EAF20E02A
:103A100030E0A901C701B6010E94E7ED81111AC08B
:103A200020E030E0A9016BAD7CAD8DAD9EAD0E9474
:103A3000E7ED81110FC00CC420E030E0A901C701FF
:103A4000B6010E94E7ED882309F402C41BAE1CAE48
:103A50001DAE1EAEA7019601C701B6010E944DEE34
:103A60004B015C012BAD3CAD4DAD5EADCA01B90162
:103A70000E944DEE9B01AC01C501B4010E94B0E56E
:103A80000E945EE8AF966CAF7DAF8EAF9FAFAF97F1
:103A90008091270490912804A0912904B0912A04D0
:103AA00027968CAF9DAFAEAFBFAF2797A70196010A
:103AB000BC01CD010E94B0E567966CAF7DAF8EAFC3
:103AC0009FAF679720912B0430912C0440912D04D7
:103AD00050912E0463962CAF3DAF4EAF5FAF63970E
:103AE0002BAD3CAD4DAD5EAD63966CAD7DAD8EAD99
:103AF0009FAD63970E94B0E56B966CAF7DAF8EAFC4
:103B00009FAF6B9780912F0490913004A091310466
:103B1000B09132046F968CAF9DAFAEAFBFAF6F97D1
:103B20009C01AD016091960A7091970A8091980A64
:103B30009091990A0E94AFE52B966CAF7DAF8EAF46
:103B40009FAF2B9720919A0A30919B0A40919C0A33
:103B500050919D0AE3962CAF3DAF4EAF5FAFE39718
:103B60008091330490913404A0913504B0913604CF
:103B7000A3968CAF9DAFAEAFBFAFA397A701960141
:103B8000505823962CAF3DAF4EAF5FAF23978BAD10
:103B90009CADADADBEADB0582F968CAF9DAFAEAF66
:103BA000BFAF2F9720918E0A30918F0A4091900AD3
:103BB0005091910AA7962CAF3DAF4EAF5FAFA7973C
:103BC00067962CAD3DAD4EAD5FAD6797A7966CADDA
:103BD0007DAD8EAD9FADA7970E94AFE56B017C01D7
:103BE0008091920A9091930AA091940AB091950ABB
:103BF000AB968CAF9DAFAEAFBFAFAB976B962CAD16
:103C00003DAD4EAD5FAD6B97BC01CD010E94AFE500
:103C10004B015C01A701960123966CAD7DAD8EAD85
:103C20009FAD23970E944DEE2B013C01A50194010D
:103C30002F966CAD7DAD8EAD9FAD2F970E944DEE52
:103C40009B01AC01C301B2010E94B0E52B013C0114
:103C5000A501940123966CAD7DAD8EAD9FAD2397EC
:103C60000E944DEE4B015C01A70196012F966CADB1
:103C70007DAD8EAD9FAD2F970E944DEE9B01AC01A7
:103C8000C501B4010E94AFE5A30192010E942FE695
:103C90006B017C0120E030E0A9010E94E7ED87FF85
:103CA0000AC02BED3FE049EC50E4C701B6010E9489
:103CB000B0E56B017C01112351F02BED3FE049ECA5
:103CC00050E4C701B6010E94AFE56B017C0120E022
:103CD00030E0A901C701B6010E94E7ED81112AC0B9
:103CE000A7962CAD3DAD4EAD5FADA79727966CADB9
:103CF0007DAD8EAD9FAD27970E94E7ED81111AC073
:103D0000AB962CAD3DAD4EAD5FADAB9763966CAD54
:103D10007DAD8EAD9FAD63970E94E7ED81110AC026
:103D20002BED3FE049EC50E4C701B6010E94B0E53D
:103D30006B017C01AF962CAD3DAD4EAD5FADAF9745
:103D4000C701B6010E944DEE9B01AC010E944DEEF1
:103D50004B015C012B962CAD3DAD4EAD5FAD2B976D
:103D6000CA01B9010E944DEE9B01AC01C501B4012D
:103D70000E94B0E50E945EE84B015C012FE632E153
:103D800043E85AE30E94E7ED87FD5EC2C501B40136
:103D90000E9452E70E9423E71B01672B19F422249B
:103DA0002394312CB10180E090E00E94ECED4B01B6
:103DB0005C019B01AC01C701B6010E94AAE62796EF
:103DC0006CAF7DAF8EAF9FAF2797A50194012B9667
:103DD0006CAD7DAD8EAD9FAD2B970E94AAE6AB96E4
:103DE0006CAF7DAF8EAF9FAFAB97A3962CAD3DADC3
:103DF0004EAD5FADA397E3966CAD7DAD8EAD9FAD3F
:103E0000E3970E94AFE5A50194010E94AAE6AF9650
:103E10006CAF7DAF8EAF9FAFAF9727962CAD3DAD0A
:103E20004EAD5FAD2797CA01B9010E944DEE20E06B
:103E300030E040E05FE30E944DEE9B01AC0160E0AA
:103E400070E080E89FE30E94AFE5A7966CAF7DAF7E
:103E50008EAF9FAFA7976F962CAD3DAD4EAD5FADCA
:103E60006F9729873A874B875C87A3968CAD9DAD6A
:103E7000AEADBFADA3978D879E87AF87B88B60919E
:103E80000A0170910B01072E000C880B990B0E9400
:103E9000EEED20910101309102014091030150911A
:103EA00004010E944DEE2AE037ED43E25CE30E94FC
:103EB0004DEE6F966CAF7DAF8EAF9FAF6F970E9448
:103EC00016549B01AC0128533F4F4F4F5F4FA396B1
:103ED0002CAF3DAF4EAF5FAFA3974FAC21965FAC19
:103EE000219722966FAC229723967FAC239741E0CF
:103EF00050E061965FAF4EAF619728961FAE28974E
:103F00006196AEADBFAD6197A215B30509F458C176
:103F10000E9424950E941654DC01CB01A3962CAD7F
:103F20003DAD4EAD5FADA397821B930BA40BB50BBC
:103F3000B7FD10C00E9416549B01AC0128533F4F9F
:103F40004F4F5F4FA3962CAF3DAF4EAF5FAFA397E0
:103F50000E94AAC128963FAD28973F5F28963FAFA1
:103F6000289739310CF04BC0A7962CAD3DAD4EAD26
:103F70005FADA7972F966CAD7DAD8EAD9FAD2F97A2
:103F80000E944DEE6B017C0127962CAD3DAD4EADF0
:103F90005FAD2797B201C3010E944DEEA7019601C4
:103FA0000E94B0E56B017C01A7962CAD3DAD4EADF6
:103FB0005FADA797B201C3010E944DEE4B015C01BA
:103FC00027962CAD3DAD4EAD5FAD27972F966CADCE
:103FD0007DAD8EAD9FAD2F970E944DEE9B01AC0144
:103FE000C501B4010E94AFE52B013C01C601D70118
:103FF0002F968CAF9DAFAEAFBFAF2F975CC06196D1
:104000004EAD5FAD6197BA0180E090E00E94ECEDAB
:1040100027962CAD3DAD4EAD5FAD27970E944DEE7E
:104020004B015C010E94A5E66B017C01C501B40156
:104030000E9450E84B015C01A701960123966CADEC
:104040007DAD8EAD9FAD23970E944DEE2B013C01BF
:10405000A50194016BAD7CAD8DAD9EAD0E944DEE82
:104060009B01AC01C301B2010E94B0E52B013C01F0
:10407000A501940123966CAD7DAD8EAD9FAD2397C8
:104080000E944DEE4B015C01A70196016BAD7CAD2A
:104090008DAD9EAD0E944DEE9B01AC01C501B401FA
:1040A0000E94AFE52F966CAF7DAF8EAF9FAF2F977D
:1040B00028961FAE28979201A30167966CAD7DAD3F
:1040C0008EAD9FAD67970E94B0E569837A838B833D
:1040D0009C832F962CAD3DAD4EAD5FAD2F976B966B
:1040E0006CAD7DAD8EAD9FAD6B970E94B0E56D83DD
:1040F0007E838F839887AB962CAD3DAD4EAD5FAD83
:10410000AB9769857A858B859C850E94B0E5698728
:104110007A878B879C87AF962CAD3DAD4EAD5FAD5A
:10412000AF976D857E858F8598890E94B0E56D87F4
:104130007E878F87988BCE0101960E94A4C6C0907F
:104140003B0389819A81AB81BC8188A399A3AAA3EF
:10415000BBA38D819E81AF81B8858CA39DA3AEA3A7
:10416000BFA389859A85AB85BC8588A799A7AAA78F
:10417000BBA7AE01485D5F4FBE016C5D7F4FCE01B6
:1041800080960E94AA876F96ECACFDAC0EAD1FAD79
:104190006F979E01235F3F4FAE01485D5F4FBE01A9
:1041A0006C5D7F4FCE0180960E94057A61968EAD40
:1041B0009FAD6197019661969FAF8EAF6197A0CE3C
:1041C000C0903B0380918E0A90918F0AA091900A33
:1041D000B091910A88A399A3AAA3BBA38091920A44
:1041E0009091930AA091940AB091950A8CA39DA3F3
:1041F000AEA3BFA38091960A9091970AA091980AC6
:10420000B091990A88A799A7AAA7BBA7AE01485D54
:104210005F4FBE016C5D7F4FCE0180960E94AA87E2
:104220006F96ECACFDAC0EAD1FAD6F972AE93AE08E
:10423000AE01485D5F4FBE016C5D7F4FCE01809641
:104240000E94057A0E94E6390E948F3D0C944E37F9
:10425000E8E1F4E384918F010F5F1F4F882321F081
:104260000E949A3DF801F6CFEAE1F1E084918F01D6
:104270000F5F1F4F882311F40C944E370E949A3D14
:10428000F801F4CF0E940E9880E00E94A7A38091CD
:10429000A00681FF2AC09091EB039923A1F0909191
:1042A000EC03992381F09091ED03992361F080E074
:1042B0000E94A7A380902F0490903004A090310416
:1042C000B090320418C08D7F8093A00680E090E00B
:1042D000A0E8B0E480932F0490933004A0933104BD
:1042E000B09332044C015D0106C0812C912C00E892
:1042F000A02E00E4B02E0E94CBA511E010931F0168
:1043000088E50E94863B382E89E50E94863B082F6F
:104310008AE50E94863B282E311005C0011105C098
:10432000982F912705C0011102C090E001C0982F7D
:104330009093000180E1E7E2F4E0AEE8BAE001909A
:104340000D928A95E1F7911104C0311002C000234B
:10435000D9F120E030E040EA50E46091EA10709139
:10436000EB108091EC109091ED100E94B0E520913F
:10437000DE103091DF104091E0105091E1100E946A
:10438000B0E56093960A7093970A8093980A909389
:10439000990A20912F0430913004409131045091BA
:1043A00032040E9410E818167CF419821A821B82CB
:1043B0001C829E012F5F3F4F46E95AE06BE274E09A
:1043C00087E294E00E94A23A80910001811102C02C
:1043D000332021F080E090E00E94CA9D809100018E
:1043E000811102C0002321F081E090E00E94CA9D6B
:1043F00080910001811103C0222009F4D7C080916F
:104400002304882321F080912404811120C060E0DE
:1044100084E691E00E94D6ACECEBF6E184917F015A
:10442000BFEFEB1AFB0A882321F00E949A3DF701A7
:10443000F5CFE3E5F1E084917F012FEFE21AF20A74
:10444000882309F4B3C00E949A3DF701F4CF0E947B
:10445000CC3C20E030E048EC52E46091E2107091F6
:10446000E3108091E4109091E5100E94B0E5209156
:10447000D6103091D7104091D8105091D9100E9489
:10448000B0E56B017C0160938E0A70938F0A809374
:10449000900A9093910A20E030E048EC52E4609159
:1044A000E6107091E7108091E8109091E9100E9459
:1044B000B0E52091DA103091DB104091DC10509182
:1044C000DD100E94B0E52B013C016093920A7093CD
:1044D000930A8093940A9093950A80912F04909167
:1044E0003004A0913104B09132048093960A9093E5
:1044F000970AA093980AB093990A8EE89AE00E94CE
:104500005BC98823A1F120E030E04CE052E4C70110
:10451000B6010E94AFE560938E0A70938F0A809374
:10452000900A9093910A20E030E048E452E4C301FD
:10453000B2010E94B0E56093920A7093930A80934F
:10454000940A9093950A19821A821B821C829E01FA
:104550002F5F3F4F4FE254E062E97AE08EE89AE045
:104560000E94A23A82E090E00E94CA9D1FC060E0D3
:1045700082E491E00E94D6ACECEBF6E184917F01FD
:104580003FEFE31AF30A882321F00E949A3DF701D6
:10459000F5CFE0E3F1E084917F014FEFE41AF40AF4
:1045A000882321F00E949A3DF701F5CF0E94CC3C70
:1045B0008091E60580931F018091A00680FF36C0A0
:1045C0008091000181110AC08091EB03882371F171
:1045D0008091EC03882351F1222069F080E090E083
:1045E000A0E8B0E480932F0490933004A0933104AA
:1045F000B093320410C08091ED038823B9F03110DC
:1046000002C0002399F080922F0490923004A0926F
:104610003104B09232040E94CC3C8091A0068260AA
:104620008093A00687E294E00E94C2860E94B1A512
:104630000E940FCE0C944E3783E50E94863B882360
:10464000A1F00E94993B90E08630910580F0E6E170
:10465000F2E084918F010F5F1F4F882311F40C94B7
:104660004E370E949A3DF801F4CF80E090E083300D
:10467000910509F48AC134F48130910561F1029702
:1046800099F107C08430910509F4DFC1059709F459
:10469000ECC18091A00680FF11C081FD03C063E9D9
:1046A00072E002C06FE872E08EEE91E00E94A13DE0
:1046B0008AE00E949A3D0E947FA000C2E6EFF1E0EE
:1046C00084918F010F5F1F4F882309F4F7C10E9467
:1046D0009A3DF801F5CF0E9491891092060110923F
:1046E000050183EE91E04AC1809105019091060198
:1046F00097FF0EC0EAEBF1E084918F010F5F1F4F2F
:10470000882311F40C944E370E949A3DF801F4CF9F
:10471000009779F480E090E0A0E8B0E480932F0463
:1047200090933004A0933104B09332040E94CC3CA7
:1047300023C0815067E00E945DE580FF03C026E052
:10474000291B922F57E08502F0011124E90FF11D7A
:1047500097FDFA95EE0FFF1FEE0FFF1FE056F94F82
:1047600080912F0490913004A0913104B0913204D3
:1047700085839683A783B087809105019091060178
:10478000813391050CF0D1C067E00E945DE5182FE0
:1047900080FF03C086E0891B982F809001019090D4
:1047A0000201A0900301B0900401C12CD12CB0E80B
:1047B000EB2EB0E4FB2EC0920101D0920201E092F8
:1047C0000301F092040140E050E060E171E44093A5
:1047D0002F04509330046093310470933204C45713
:1047E000DF4F9883CC58D0400E944B3A45E555E5C1
:1047F00065E073E44093010150930201609303016B
:1048000070930401C457DF4F9881CC58D0408EE19B
:104810009802B0011124665F7F4F072E000C880BB1
:10482000990B0E94EEED2091E2103091E31040913F
:10483000E4105091E5100E94B0E52091D61030911F
:10484000D7104091D8105091D9100E94B0E56093D4
:104850002704709328048093290490932A049EE1EE
:104860001902B0011124665F7F4F072E000C880BE0
:10487000990B0E94EEED2091E6103091E7104091E7
:10488000E8105091E9100E94B0E52091DA103091C3
:10489000DB104091DC105091DD100E94B0E5609378
:1048A0002B0470932C0480932D0490932E040E946B
:1048B0004B3AC0920101D0920201E0920301F092C2
:1048C0000401A70196016091EA107091EB108091AC
:1048D000EC109091ED100E94B0E52091DE10309127
:1048E000DF104091E0105091E1100E94B0E560931C
:1048F0002F047093300480933104909332040E940B
:104900004B3A8092010190920201A0920301B09271
:1049100004010E940E988091050190910601019674
:104920009093060180930501C9C080E090E0A0E16A
:10493000B1E480932F0490933004A0933104B0939A
:1049400032040E944B3A0E940E98E6EAF1E084910C
:104950008F010F5F1F4F882321F00E949A3DF801BD
:10496000F6CF8FEF9FEF9093060180930501809122
:10497000A00681608093A00682EA91E09093FA13EA
:104980008093F9130E94683C99C088E50E94863B99
:10499000882399F00E94F43B0FEF080F0730A0F036
:1049A0000BE811E0F8018491882311F40C944E3740
:1049B0000F5F1F4F0E949A3DF5CF88E50E949A3DF8
:1049C0000E9484E10C944E3789E50E94863B88233F
:1049D000A1F00E94F43B1FEF180F1730A8F0E4E796
:1049E000F1E084918F010F5F1F4F882311F40C9425
:1049F0004E370E949A3DF801F4CF89E50E949A3D16
:104A00000E9484E10C944E378AE50E94863B8823FD
:104A1000A9F00E94173C27E01202F0011124E00FD8
:104A2000F11D07FDFA95EE0FFF1FEE0FFF1FE05679
:104A3000F94F658376838783908740C08AE50E941B
:104A40009A3D0E9484E10C944E378AE50E94863B91
:104A50008823A1F30E94173C6093A1067093A206DD
:104A60008093A3069093A40629C08091A00681FF9D
:104A700023C020E030E040E850E460912F047091C2
:104A8000300480913104909132040E94AFE560932C
:104A90002F047093300480933104909332044FE2DA
:104AA00054E06BE274E087E294E00E94AA870E94DF
:104AB00091890E94CC3C02C00E9491890E940FCE35
:104AC0000C944E37109240030C944E3781E0809343
:104AD00040030C944F3785E40E94863BB82E811129
:104AE00002C00E940E983BEB832E31E0932E47E2EA
:104AF000C42E44E0D42E56EDE52E50E1F52E00E014
:104B000010E0A12CD4018D914D010E94863B882399
:104B100009F44EC0F6012081318142815381C4578E
:104B2000DF4F2883CC58D040C357DF4F3883CD5850
:104B3000D040C257DF4F4883CE58D040C157DF4FD7
:104B40005883CF58D0400E94173CD6016D937D9377
:104B50008D939C931397C457DF4F2881CC58D04036
:104B6000C357DF4F3881CD58D040C257DF4F4881FF
:104B7000CE58D040C157DF4F5881CF58D040033076
:104B80001105B1F00E94AFE59B01AC01F701608116
:104B90007181828193810E94B0E5D7016D937D93ED
:104BA0008D939C931397C8010E94193DAA24A39446
:104BB0000F5F1F4FB4E0CB0ED11CE4E0EE0EF11CF2
:104BC0000430110509F09ECFAA2019F00E94CC3CB8
:104BD00037C0BB20A9F1C0903304D0903404E090DA
:104BE0003504F09036042091D50A3091D60A4091D0
:104BF000D70A5091D80AC701B6010E944DEE0E9413
:104C00001DE860939A0670939B0680939C06909390
:104C10009D06C701B6010E941CE72FB7F894609368
:104C2000340A7093350A8093360A9093370A2FBF5F
:104C300010928A0610928B0610928C0610928D06A6
:104C40000E940FCE0C944E37F2E7EF16F10411F4E8
:104C50000C94762F08F0F9C03BE4E316F10409F454
:104C60005CC408F070C058E1E516F10409F46EC2A6
:104C7000B0F5B2E1EB16F10411F40C94B42E78F413
:104C8000F2E0EF16F10408F410C221E1E216F1049B
:104C900011F00C944E370E94E59F0C944E3735E18D
:104CA000E316F10409F448C248F454E1E516F104AE
:104CB00011F00C944E37ECE3F2E0FBC1A6E1EA16EA
:104CC000F10409F43DC2B7E1EB16F10411F00C94C4
:104CD0004E3740E061E00E948ED30C944E37EEE1F7
:104CE000EE16F10409F453C2C0F42AE1E216F1040D
:104CF00009F43BC208F435C24BE1E416F10409F4AF
:104D000042C25CE1E516F10411F00C944E3740E02C
:104D100060E00E948ED30C944E3780E2E816F104D6
:104D200009F442C308F44DC3AAE2EA16F10409F4F7
:104D3000F0C3B0E3EB16F10411F00C944E370E946F
:104D4000E6600C944E37E8E6EE16F10409F4F1C380
:104D500008F04CC022E5E216F10411F40C94AB2EDD
:104D600030F54DE4E416F10409F4DFC308F4D9C3C7
:104D700081E5E816F10411F00C944E370E94389149
:104D80000E940E980E9434C11092EB051092EA0521
:104D900068EE73E080E090E00E94DC5360E082E522
:104DA00093E00E94D6AC0E94BFB10C944E3794E5BC
:104DB000E916F10411F40C94B42E08F4D0C7B5E54B
:104DC000EB16F10411F40C94E32EECE5EE16F1046D
:104DD00011F00C944E37BBEBCB2EB1E0DB2E19EC6F
:104DE000E12E1AE0F12E10E00C94F62EFDE6EF16FF
:104DF000F10409F45FC4B0F43AE6E316F10409F4EF
:104E000072C708F43AC45BE6E516F10409F491C7E9
:104E10008CE6E816F10411F00C944E37109207015D
:104E20000C944E379FE6E916F10409F4D9C308F44F
:104E3000C4C3B0E7EB16F10409F4D6C3E1E7EE16FC
:104E4000F10409F4D5C30C944E37FCE2EF16F1E0FF
:104E5000FF0611F40C94EF3208F08FC038ECE31623
:104E6000F10411F40C946C30E0F558E7E516F10408
:104E700011F40C94F22FB0F4B5E7EB16F10411F431
:104E80000C94862FE7E7EE16F10411F40C948B2FA7
:104E9000F3E7EF16F10411F00C944E37E3E6F3E07C
:104EA0000C947A2F2CE8E216F10409F4CDC360F4D7
:104EB00049E7E416F10411F00C944E3710921F01EB
:104EC0001092E6050C944E3751E9E516F10411F401
:104ED0000C94F82F8EEBE816F10409F48FC50C94AE
:104EE0004E379EECE916F10411F40C94C13130F503
:104EF000BBECEB16F10411F40C94CE3088F4F9EC11
:104F0000EF16F10411F00C944E3731EEE32E3AE037
:104F1000F32E0BEB11E044E0D42ED00E0C94B53000
:104F20002CECE216F10411F40C94EC303DECE31699
:104F3000F10411F40C9456310C944E374CEDE416F8
:104F4000F10411F40C949E3250F483EDE816F10450
:104F500011F00C944E37ECEBF6E10C9408329DED19
:104F6000E916F10411F40C94AB32A2EEEA16F10446
:104F700011F40C94C4320C944E37B4EAEB16B1E041
:104F8000FB0611F40C94FC3608F040C0F3E6EF1673
:104F9000F1E0FF0611F40C94173798F43EE2E316A3
:104FA00031E0F30611F40C94B43310F40C9415337F
:104FB0005FE2E51651E0F50611F40C9425340C94EB
:104FC0004E3781E9E81681E0F80611F40C94F436C6
:104FD00058F4A0E9EA16A1E0FA0611F00C944E3755
:104FE0000E940E980C944E37B2E9EB16B1E0FB0626
:104FF00011F40C94F836EAE9EE16E1E0FE0611F041
:105000000C944E370E94D4CD0C944E37F6EFEF1629
:10501000F1E0FF0611F40C94053728F53CEAE3169D
:1050200031E0F30611F40C94FF3658F455EAE51616
:1050300051E0F50611F00C944E370E9431CC0C94DF
:105040004E3784EFE81681E0F80611F40C9402372D
:1050500095EFE91691E0F90611F00C944E370E9495
:10506000D95C0C944E37A3E5EA16A3E0FA0611F4D6
:105070000C94143748F4E7EFEE16E1E0FE0611F465
:105080000C9408370C944E37F0EAEF16F3E0FF0665
:1050900009F48EC127EEE21623E0F20611F00C941B
:1050A0004E370E9498CB0C944E370E94EF9F0C9481
:1050B0004E3784918F010F5F1F4F882321F00E948C
:1050C0009A3DF801F6CF10921D0A10921C0A40E09A
:1050D00050E0BA0188EC97E00E94D2748BE1E8ECD2
:1050E000F7E0DE01159601900D928A95E1F7809127
:1050F000C6079091C7079C838B838DE492E09A83C7
:10510000898340E050E0BE016F5F7F4F89E293E00A
:105110000E94BA8DCE0101960E942CC1EDE2F2E010
:1051200084918F010F5F1F4F882311F40C944E3729
:105130000E949A3DF801F4CF0E94DDC70C944E37CF
:1051400010929707109298070C944E378091980709
:10515000882319F081E0809397070E944ACA0C9433
:105160004E37109297070C944E37809198078823FA
:1051700011F40C944E3783E50E94863B81110C9408
:1051800072370C944E370E94A89F0C944E37809132
:105190009807882311F40C944E3782E699E00E9418
:1051A0009F7482E699E00E941898109296071092D8
:1051B0009507E0904103F09042038091980788237F
:1051C00011F40C944E370E9483D31D8218861C82E2
:1051D0001B828DE492E09A83898384EC97E090931C
:1051E000E4078093E307D7018C918F3209F067C001
:1051F0006FE270E0C7010E94FEE88C010F5F1F4F55
:10520000FE0131964F010115110509F45EC06FE2F0
:1052100070E0C8010E94FEE86C01009709F456C0D6
:105220000817190708F052C05C01A01AB10AA501BD
:10523000B801CE0180960E9427E9E0E2F0E0EC0F91
:10524000FD1FEA0DFB1D10828E01005E1F4FD8016D
:105250008D918D01882319F00E949A3DF8CF8AE044
:105260000E949A3D6091E3077091E4076115710512
:1052700011F06C5F7F4F21E0AE01405E5F4FCE01C9
:1052800005960E94719C811112C0BE01605E7F4F25
:1052900083E792E00E94A13D8EE20E949A3D8AE05F
:1052A0000E949A3DC4010E942CC10C944E379092EA
:1052B000E4078092E30786010F5F1F4FA4CF85EEBE
:1052C00097E09093E4078093E30787016091E307F9
:1052D0007091E4076115710511F06C5F7F4F18A2A2
:1052E0001BA222E0A801CE0180960E94719C811130
:1052F00002C0F12C14C0CE0180960E94288D882314
:10530000C1F361E0CE0180960E942198009789F355
:1053100025EEFC0120831BA20E94AB72F82ECE0169
:1053200080960E94663DFF2009F1EDE4F2E0849151
:105330007F012FEFE21AF20A882321F00E949A3DA2
:10534000F701F5CFD8018D918D01882319F00E94C6
:105350009A3DF8CF8AE00E949A3D1092130A10926B
:10536000140A1092150A1092160A18C0EBE5F2E022
:1053700084917F01BFEFEB1AFB0A882321F00E9482
:105380009A3DF701F5CFF80181918F01882319F03B
:105390000E949A3DF8CF8EE20E949A3DCE0101967E
:1053A0000E942CC10C944E370E9463680C944E37B7
:1053B00021E02093960740E060E00E948ED30C9499
:1053C0004E370E94F28C2CE3C22ED12CE12CF12C12
:1053D000A70196010E94DBF1762E672ECA01B90162
:1053E000A70196010E94DBF16B017C01CA01B901A2
:1053F00028E130E040E050E00E94DBF14B015C012D
:10540000C9016DE671E00E946BE58E010F5F1F4FD1
:105410006115710599F06F927F92DF92CF929F9202
:105420008F929F938F937F936F938FEA92E09F93D6
:105430008F931F930F930E94B7ED12C00097B1F0A6
:105440006F927F92DF92CF929F928F929F938F93D2
:105450008FE992E09F938F931F930F930E94B7ED74
:105460000FB6F894DEBF0FBECDBF36C081149104D5
:10547000A104B10479F06F927F92DF92CF929F9254
:105480008F9283E992E09F938F931F930F930E94D3
:10549000B7EDE6CFC114D104E104F10469F06F92D5
:1054A0007F92DF92CF928BE892E09F938F931F932E
:1054B0000F930E94B7EDD4CF6F927F9287E892E06E
:1054C0009F938F931F930F930E94B7ED0F900F90B0
:1054D0000F900F900F900F9060E0C8010E94AEB146
:1054E000ECEBF6E184917F01BFEFEB1AFB0A882316
:1054F00021F00E949A3DF701F5CFB80183EC92E0CC
:105500000E94A13D8AE00E949A3D0E946C3D0C944D
:105510004E370E9409680C944E370E944ACA0C9478
:105520004E370E94CF600C944E370E94CA8B0C9469
:105530004E3788E690E00E94724181110C944E37FC
:105540008091140683FF02C00C944E3783E50E94BD
:10555000863B882371F10E94173C0E941CE77093E0
:105560003506609334060E9441890E94173C20E072
:1055700030E04AEA52E40E94E7ED18163CF00E943F
:10558000CA8B60E08BED92E00E94D6AC0E94173C83
:1055900020913606309137064091380650913906F1
:1055A0000E9410E818162CF460E080ED92E00E9452
:1055B000D6AC0E9472E00C944E378EE40E94863B7B
:1055C000882311F40C944E370E94013C60933603FB
:1055D0007093370380933803909339030C944E37BC
:1055E0000E94F6CF0C944E378EEE92E00E943EC1A0
:1055F00083E50E94863B882369F00E94993B809353
:1056000096018D3310F40C944E378CE38093960101
:105610000C944E37ECEBF6E184918F010F5F1F4F36
:10562000882321F00E949A3DF801F6CF409196011F
:1056300050E060E070E087EF92E00E94303E8AE048
:105640000E949A3D0C944E378091140683FF02C04D
:105650000C944E3783E50E94863B882311F40C940A
:105660004E370E94173C0E941CE77093ED05609333
:10567000EC050E94E8900C944E3789E690E00E9479
:105680007241811111C0EEEFF2E084918F010F5F42
:105690001F4F882321F00E949A3DF801F6CF0E9407
:1056A00047608AE00E949A3D1092A8101092A710BD
:1056B0000C9454398DE690E00E94724181110C9453
:1056C0004E378091140683FF02C00C944E3783E559
:1056D0000E94863B2C968FAF2C97811105C082E5E6
:1056E0000E94863B8823C1F10E94173C0E941CE760
:1056F00070933506609334060E9441890E94173CDE
:1057000020E030E04AEA52E40E94E7ED181614F473
:105710000C9483370E94CA8B60E081E293E00E9480
:10572000D6AC6091340670913506072E000C880BBC
:10573000990B0E94EEED209136063091370640918C
:105740003806509139060E9410E818162CF460E0D3
:1057500086E193E00E94D6AC0E9472E081E08093E3
:1057600007011092A8101092A71023961CAE1DAE30
:105770001EAE1FAE239727961CAE1DAE1EAE1FAEEB
:1057800027971BAE28961FAE2897ECE36096EFAFE5
:105790006097FCE16496FFAF649726E468962FAFAC
:1057A0006897E12CF12C00E81FEB812C912C54011F
:1057B0006091340670913506072E000C880B990B0A
:1057C0000E94EEED762E672E582E492E262F372F6B
:1057D000482F592FB701C8010E94E7ED882319F11E
:1057E000209136063091370640913806509139069F
:1057F000672D762D852D942D0E94E7ED881F882733
:10580000881F8BAF2C963FAD2C97332381F08823D4
:1058100071F080910701882311F40C944E3760E0F9
:1058200081E093E06FC17E2C6F2C502E412E0E94A0
:1058300016546B017C01DC01CB0127962CAD3DADEC
:105840004EAD5FAD2797821B930BA40BB50BB7FD35
:1058500045C0D701C60188519C4FAF4FBF4F279617
:105860008CAF9DAFAEAFBFAF27970E944760E2E11C
:10587000F3E084918F010F5F1F4F882321F00E9476
:105880009A3DF801F6CF81149104A104B104D1F03E
:10589000D501C401805F984DAF4FBF4FBC01CD0112
:1058A0006C197D098E099F0928EE33E040E050E035
:1058B0000E94DBF1CA01B9010E944D3E8AE00E94BC
:1058C0009A3D0CC0EFE0F3E084918F010F5F1F4F12
:1058D000882321F00E949A3DF801F6CF0E94AAC1C8
:1058E0000E948F3D20903606309037060091380692
:1058F000109139069101A801672D762D852D942DE3
:105900000E94AFE59F7781149104A104B10449F48A
:1059100020E030E040E85FE30E94E7ED87FF0BC046
:1059200008C020E030E040E450E40E9410E818167F
:1059300014F4460157019BAD992309F443C0239603
:105940002CAD3DAD4EAD5FAD239721153105410521
:10595000510541F0D701C601821B930BA40BB50B77
:10596000B7FD30C09101A80128966FAD28976096C9
:105970007FAD609764968FAD649768969FAD68978A
:105980000E94AFE520E030E040EC5FE30E94E7EDED
:1059900087FD3FCFD701C601805A9541AF4FBF4F1A
:1059A00023968CAF9DAFAEAFBFAF239728962FAE97
:1059B000289760963FAE609764960FAF649768969D
:1059C0001FAF689780910701882309F422CF8114C3
:1059D0009104A104B10429F4E72CF62C052D142D13
:1059E000E7CE90E1C91A97E2D90AE108F108C81890
:1059F000D908EA08FB08F7FE0CCFEECF8091140619
:105A000083FF02C00C944E3760E085E493E00E946F
:105A1000D6AC83E50E94863B2C968FAF2C978111E4
:105A20000C94873782E50E94863B81110C9487375E
:105A300081E0809307011092A8101092A710809126
:105A40003B0380933A0323961CAE1DAE1EAE1FAEE1
:105A5000239727961CAE1DAE1EAE1FAE27971BAE1A
:105A600028961FAE2897ACE36096AFAF6097BCE175
:105A70006496BFAF6497E6E46896EFAF6897C12C71
:105A8000D12C00E8E02E8FEBF82E812C912C5401C4
:105A90006091EC057091ED05072E000C880B990BB9
:105AA0000E94EEED162F072F782E692E262F372F06
:105AB000482F592FB601C7010E94E7ED882331F125
:105AC0002091E7033091E8034091E9035091EA0304
:105AD000612F702F872D962D0E94E7ED881F882754
